:100000000C9483030C94B4030C94B4030C94B403C5
:100010000C94B4030C94B4030C94B4030C94B40384
:100020000C94B4030C94B4030C94B4030C94B40374
:100030000C94B4030C94B4030C94B4030C94B40364
:100040000C94B4030C94B4030C94B4030C94B40354
:100050000C94B4030C94B4030C94B4030C9498164D
:100060000C94B4030C9408180C94DE170C94B4038D
:100070000C94B4030C94B4030C94B4030C94B40324
:100080000C94B4030C94B4030C94B4030C94B40314
:100090000C94B4170C948A170C94B4030C94B40306
:1000A0000C94B4030C94B4030C94B4030C94B403F4
:1000B0000C94B4030C94B4030C94B4030C94B403E4
:1000C0000C94B4030C94B4030C94B4030C94601714
:1000D0000C9436170C94B4030C940C170C94E21681
:1000E0000C94B4030C94E6080C9414040C94B20C15
:1000F0000C9432180C94F8130C942B100C940104EB
:100100000C9411090C9485080C94E60C0C94F204E0
:100110000C94C7040C9445050C94CC040C94FA047C
:100120000C946A0B0C9427080C94D6040C947E183B
:100130000C941C080C9415040C944C060C94E603C7
:100140000C94A7140C9434130C94EA040C940B0430
:100150000C941D070C94BF040C9459050C940704CF
:100160000C94330C0C9416120C94F9030C94F705B0
:100170000C94D4030C94E7100C94FD030C943D08EC
:100180000C94A7120C94C9140C94FB070C945F06F2
:100190000C9418050C9427050C94FA080C9432085A
:1001A0000C94DE030C947E160C94FD070C94E20371
:1001B0000C947C070C94D1080C94080D0C94DC0C66
:1001C0000C940E050C9415150C946D060C941904E2
:1001D0000C943B050C94C50B0C94DA030C944F055E
:1001E0000C94E0040C9404050C9476140C941108FF
:1001F0000C9431050C943C060C940F040C94F303FE
:100200000C94EF030C94FF120C940F0D0C94E90363
:100210000C94FE0C000020002300260029002C0076
:100220002F003200000100000301060109013E3EDB
:100230003E20496F54205761746368646F672041A2
:1002400077616B656E00466F726365205075626CF6
:100250006973683A002F696E2C0041542B514D543C
:1002600050554245583D302C312C322C302C726781
:10027000742F0041542B514D545055423D302C3178
:100280002C322C302C7267742F007D0022616F7528
:1002900074223A002C002261696E223A002C00225E
:1002A000646F7574223A002C002264696E223A0051
:1002B0002C007B22637371223A005B537472696E67
:1002C00067205370616365204E4F54204F4B5D0093
:1002D0005B537472205370616365204F4B5D000067
:1002E00041542B514D544F50454E3D302C696F7445
:1002F0002E7265632D67742E636F6D2C3138383024
:1003000000466F726365204F70656E3A004F50452E
:100310004E00464F5243450052455345540000009D
:10032000002B514D545055423A20302C312C300086
:100330002B514D545055423A20302C302C30002B4C
:10034000514D5450554245583A20302C312C3000F4
:100350002B514D5450554245583A20302C302C30BA
:10036000003E0041542B4353510041542B4350490C
:100370004E3F003E3E3E2051756572792043504904
:100380004E20262043535100302C310031002B5198
:100390004D545355423A20302C312C302C30002B08
:1003A000514D54434F4E4E3A20302C302C30002BC0
:1003B000514D544F50454E3A20302C300041542B73
:1003C000514D544F50454E3D302C382E3231302E49
:1003D00038342E32342C313838300041542B514DC2
:1003E000544F50454E3D302C696F742E7265632D0D
:1003F00067742E636F6D2C313838300041542B43B5
:10040000455245473F0041542B43474154543F0018
:1004100041542B4353510041542B4347534E3D31DC
:100420000041542B514D54444953433D30004154F5
:100430002B514D54434C4F53453D300041542B43B9
:1004400045445258533D302C350041542B435343BF
:100450004F4E3D300041542B4350534D533D3000DF
:1004600041542B5153434C4B3D300041542B434698
:10047000554E3D310041542B5149444E534346475C
:100480003D302C312E312E312E312C3232332E355F
:100490002E352E350041542B5153434C4B3D3000EB
:1004A00041542B4346554E3D31003E3E3E20494F80
:1004B0005420434F4E4E454354494F4E20494E49D8
:1004C0005400415449003E3E3E20494F542053457C
:1004D0005249414C204641494C210029003E3E3EB4
:1004E00020494F542053455249414C2050524F42CD
:1004F000452E2E2E20280041542B5153434C4B3D6A
:10050000300041544530003E3E3E2046494E49535E
:100510004820484152445741524520524553455482
:1005200000524459000000000000000000000000DC
:100530003E3E3E20494F54204D4F44554C452049A6
:100540004E49542C205245534554002B4350494E9C
:100550003A204E4F54205245414459002B434D45BB
:10056000204552524F52002B51495552433A2022B6
:100570007064706465616374222C31002B514D549A
:10058000524543563A2000302C31002B434552450A
:10059000473A20302C310031002B43474154543A24
:1005A0002031002B4353513A20002F6F75742C30AB
:1005B0000041542B514D545355423D302C312C7237
:1005C00067742F002C747377682C31576F3D5B363E
:1005D0007641306D0041542B514D54434F4E4E3DAA
:1005E000302C6465765F002B4347534E3A20000061
:1005F000002100240027002A002D003000330001D4
:10060000010000040107010A010000220025002862
:10061000002B002E0031003400020100000501080B
:10062000010B010505050507050808080802020277
:10063000020A0A080804040404010101010101017D
:10064000010303030303030303040707070C0C0C54
:100650000C0C0C0C0C02020202060606060606062C
:10066000060B0B0B0B0B0B0B0B01021020200808C9
:100670001020401020408002010201080402010104
:1006800002040810204080804020100804020180ED
:100690000402018040201008040201080402010144
:1006A000020408102040800102040810204080004D
:1006B000000A0B02090C0D0E0807030401000000DC
:1006C000000000000000000000000000000000002A
:1006D00000000000000000000000001211100000E7
:1006E000000000000000000000000000000000000A
:1006F00000000000005D002C005B005D002C005B32
:1007000000007E18321811241FBECFEFD1E2DEBFE9
:10071000CDBF00E00CBF15E0A0E0B2E0E4E8F9E5F1
:1007200000E00BBF02C007900D92A433B107D9F7C8
:1007300022E1A4E3B5E001C01D92A834B207E1F7BD
:1007400013E0C2E8D3E000E006C021970109802F42
:10075000FE010E94B027C138D10780E00807A9F741
:100760000E94D91B0C94B02C0C9400008150823153
:1007700008F05AC0E82FF0E08827EE53FC4F8F4F67
:100780000C94B027E203E603D403DA03DE03140477
:10079000E903EF03F303F903FD03010407040B046A
:1007A00014040F0415041904809180008F7780933E
:1007B00080000895809180008F7DF9CF8091800026
:1007C000877FF5CF84B58F7784BD089584B58F7DFD
:1007D000FBCF8091B0008F778093B0000895809117
:1007E000B0008F7DF9CF809190008F77809390003B
:1007F0000895809190008F7DF9CF80919000877F40
:10080000F5CF8091A0008F778093A000089580910C
:10081000A0008F7DF9CF8091A000877FF5CF8091D8
:1008200020018F77809320010895809120018F7D92
:10083000F9CF80912001877FF5CF1F93CF93DF936E
:10084000282F30E0F901E155F94F8491F901E7597A
:10085000F94FD491F901ED5DF94FC491CC23A9F082
:10086000162F81110E94B603EC2FF0E0EE0FFF1F50
:10087000E75FF94FA591B4918FB7F894EC911111FE
:1008800008C0D095DE23DC938FBFDF91CF911F91FD
:100890000895DE2BF8CFCF93DF9390E0FC01E7596A
:1008A000F94F24918D5D994FFC0184918823C9F003
:1008B00090E0880F991FFC01E151FA4FA591B49186
:1008C000FC01E75FF94FC591D49161110DC09FB74D
:1008D000F8948C91209582238C93888128232883F7
:1008E0009FBFDF91CF910895623051F49FB7F89484
:1008F0003C91822F809583238C93E8812E2BEFCF20
:100900008FB7F894EC912E2B2C938FBFEACF1F93C7
:10091000CF93DF93182FEB0161E00E944B042097E7
:1009200039F460E0812FDF91CF911F910C941D0469
:10093000CF3FD10511F461E0F5CFE12FF0E0E155B3
:10094000F94FE491E150E23108F0B3C0F0E08827BC
:10095000E355FB4F8F4F0C94B027BF04C704CC0462
:10096000D604E0045905EA04F204FA0404050E056D
:1009700018052705310559053B0545054F0584B583
:10098000806884BDC7BDDF91CF911F91089584B564
:10099000806284BDC8BDF7CF80918000806880935D
:1009A0008000D0938900C0938800EDCF80918000B3
:1009B000806280938000D0938B00C0938A00E3CF45
:1009C00080918000886080938000D0938D00C093D8
:1009D0008C00D9CF8091B00080688093B000C09324
:1009E000B300D1CF8091B00080628093B000C093FB
:1009F000B400C9CF80919000806880939000D0931C
:100A00009900C0939800BFCF80919000806280933E
:100A10009000D0939B00C0939A00B5CF8091900036
:100A2000886080939000D0939D00C0939C00ABCFD2
:100A30008091A00080688093A0008091A0008F7BAF
:100A40008093A000D093A900C093A8009CCF809170
:100A5000A00080628093A000D093AB00C093AA0056
:100A600092CF8091A00088608093A000D093AD00C9
:100A7000C093AC0088CF80912001806880932001D2
:100A8000D0932901C09328017ECF809120018062FC
:100A900080932001D0932B01C0932A0174CF8091C1
:100AA0002001886080932001D0932D01C0932C01F8
:100AB0006ACFC038D1050CF03ECF33CF863308F073
:100AC000865320917B00982F9870277F922B9093CC
:100AD0007B002091000290E4299F900111248770EF
:100AE000822B80937C0080917A00806480937A00CE
:100AF00080917A0086FDFCCF8091780090917900FA
:100B000008953FB7F89480917E0590917F05A0915C
:100B10008005B091810526B5A89B05C02F3F19F02F
:100B20000196A11DB11D3FBFBA2FA92F982F88276D
:100B3000BC01CD01620F711D811D911D42E0660F48
:100B4000771F881F991F4A95D1F708958F929F921A
:100B5000AF92BF92CF92DF92EF92FF926B017C0136
:100B60000E9481054B015C01C114D104E104F10430
:100B7000B9F00E948105681979098A099B09683EC4
:100B800073408105910580F321E0C21AD108E10884
:100B9000F10888EE880E83E0981EA11CB11CE4CFFA
:100BA000FF90EF90DF90CF90BF90AF909F908F908D
:100BB00008952FB7F89460917A0570917B05809124
:100BC0007C0590917D052FBF0895FC01248135811E
:100BD0006217730748F480819181009729F0860F8E
:100BE000971FFC018081089580E008950895AF92D9
:100BF000BF92CF92DF92EF92FF920F931F93CF930A
:100C0000DF936C017B018B01040F151FEB015E016B
:100C1000AE18BF08C017D10759F06991D601ED9100
:100C2000FC910190F081E02DC6011995892B79F78F
:100C3000C501DF91CF911F910F91FF90EF90DF9051
:100C4000CF90BF90AF900895FC01A089B1898C919D
:100C5000A689B78982FD0EC09C91818D8F5F228D00
:100C6000821749F0A18DAE0FBF2FB11D5D969C93E9
:100C7000818F08958C910895FC01538D448D252F0B
:100C800030E0842F90E0821B930B541718F08150B2
:100C90009F4F089501970895FC01918D828D9817BB
:100CA00059F0A28DAE0FBF2FB11D5D968C91928D24
:100CB0009F5F928F90E008958FEF9FEF0895FC0162
:100CC000918D828D981731F0828DE80FF11D858D01
:100CD00090E008958FEF9FEF0895FC01918D828D34
:100CE000981B892F90E0089587E49CE00E946D0690
:100CF00021E0892B09F420E0822F089584E895E013
:100D00000E946D0621E0892B09F420E0822F0895CE
:100D100081EA97E00E946D0621E0892B09F420E02A
:100D2000822F089580ED99E00E946D0621E0892BC5
:100D300009F420E0822F0895CF92DF92EF92FF9284
:100D40001F93CF93DF93EC016A017B01122FE88997
:100D5000F98982E08083C11481EED806E104F104B0
:100D6000A1F060E079E08DE390E0A70196010E9498
:100D70006B272150310941095109569547953795FF
:100D80002795211580E1380798F0E889F9891082C4
:100D900060E874E88EE190E0A70196010E946B275D
:100DA00021503109410951095695479537952795A5
:100DB000EC85FD853083EE85FF852083188EEC89D8
:100DC000FD891083EA89FB89808180618083EA89BB
:100DD000FB89808188608083EA89FB8980818068C3
:100DE0008083EA89FB8980818F7D8083DF91CF9129
:100DF0001F91FF90EF90DF90CF900895FC01A48D9C
:100E0000A80FB92FB11DA35EBE4F9C91848D8F5F3B
:100E1000848FA689B7899C93A089B1898C918370AE
:100E200080648C93938D848D981306C00288F38917
:100E3000E02D80818F7D808308950F931F93CF9342
:100E4000DF93EC0181E0888F9B8D8C8D981318C007
:100E5000E889F989808185FF13C09FB7F894EE89EE
:100E6000FF896083E889F989808183708064808349
:100E70009FBF81E090E0DF91CF911F910F91089586
:100E8000062F1B8D1F5F8C8D81130CC00FB607FCC6
:100E9000FACFE889F989808185FFF5CFCE010E94DC
:100EA000FE06F1CFEB8DEC0FFD2FF11DE35EFE4F43
:100EB00000839FB7F8941B8FEA89FB898081806249
:100EC000D6CF0F931F93CF93DF938C01D0E0C0E078
:100ED000F801EC0FFD1F6491662341F080ED99E06D
:100EE0000E941D07892B11F02196F2CFCE01DF91D0
:100EF000CF911F910F910895CF93DF93EC01888DCF
:100F00008823B9F0AA89BB89E889F9898C9185FD84
:100F100003C0808186FD0DC00FB607FCF7CF8C9112
:100F200085FFF2CF808185FFEDCFCE010E94FE06C6
:100F3000E9CFDF91CF91089580E090E0892B29F0EF
:100F40000E94920681110E94000080E090E0892BAF
:100F500029F00E94880681110E94000080E090E044
:100F6000892B29F00E947E0681110E94000080E0FA
:100F700090E0892B29F00E94740681110C940000E6
:100F80000895009741F0DC015896ED91FC9104A082
:100F9000F5A1E02D19940895009741F0DC015896D1
:100FA000ED91FC9100A0F1A1E02D199486E190E073
:100FB00090933D1280933C128FEF9FEF0895CF9353
:100FC000DF93EC01288539854A855B85A8EEB3E07F
:100FD0000E9460270E94A6058C859D858230910520
:100FE00038F0880F991F880F991F05970197F1F71F
:100FF000DF91CF91089581E00895FC01808D8823D1
:1010000049F084859585DC01ED91FC910190F0819A
:10101000E02D199481E090E09383828390E080E05A
:101020000895DC011C968D919C91DC01ED91FC9161
:101030000680F781E02D1994DC011C968D919C911E
:10104000DC01ED91FC910284F385E02D1994DC0123
:101050001C968D919C91DC01ED91FC910484F585A9
:10106000E02D1994DC011C968D919C91DC01ED9191
:10107000FC910084F185E02D19940F931F93CF9379
:10108000DF938C01FC01C485D585E881F981068058
:10109000F781E02DCE011995EA89FB8980818F7E49
:1010A0008083EA89FB898081877F8083EA89FB8945
:1010B00080818F778083EA89FB8980818F7D80831F
:1010C0008A8D898FF8018089918997FD08C060E039
:1010D0000E941D0460E0F80180890E944B04F80121
:1010E0008289938997FD0CC060E00E941D0460E036
:1010F000F8018289DF91CF911F910F910C944B04DD
:10110000DF91CF911F910F9108958F929F92AF928F
:10111000BF92DF92EF92FF920F931F93CF93DF93D3
:10112000EC014A015B01D22E898E9A8EAB8EBC8E69
:101130002D8F3E8F8C899D89009709F08C010C8B37
:101140001D8B8E899F89009709F07C01EE8AFF8AAA
:101150008889998997FD07C061E00E944B0460E08F
:1011600088890E941D048A899B8997FD07C061E0D8
:101170000E944B0461E08A890E941D04188E2D2D67
:10118000B501A4018C859D85DF91CF911F910F91B1
:10119000FF90EF90DF90BF90AF909F908F900C9456
:1011A0009C06EF92FF920F931F93DC01ED91FC914F
:1011B0000488F589E02DA2E3EA2EF12C02E310E089
:1011C00019951F910F91FF90EF900895EF92FF9264
:1011D0000F931F93DC01ED91FC910488F589E02DBC
:1011E0007801890126E030E019951F910F91FF9059
:1011F000EF900895EF92FF920F931F93DC01ED9112
:10120000FC910488F589E02D22E3E22EF12C02E323
:1012100010E026E030E019951F910F91FF90EF90BC
:10122000089590E080E0089560E086E10E941D044A
:1012300061E070E080E090E00C94A605982F80EDCE
:10124000890F8A3070F08FEB890F863018F489ECA3
:10125000890F08958FE9890F863010F489EAF8CF55
:1012600080E00895CF93DF93EC010E94D905688355
:1012700079838A839B83DF91CF9108950F931F9386
:10128000CF93DF93EC0120E030E0A90197FD0AC085
:101290009C018531954014F024E135E0032E000CCB
:1012A000440B550BAFEFB0E00E94602724E135E01E
:1012B00040E050E00E94412789019A01CE0162E39B
:1012C00070E00E949C27CB01072E000CAA0BBB0BE1
:1012D000800F911FA21FB31F8F3F4FEF9407A407EA
:1012E000B4077CF08F3F9105A105B1056CF46F5FE9
:1012F0007F4FCB01800F911FDF91CF911F910F91F5
:10130000089590E080E0F8CF8FEF90E0F5CF24ECE7
:1013100030E040E050E0843C91055CF09C012115F8
:1013200084E0380714F02FEF33E0032E000C440B59
:10133000550B245C310941095109A4E1B5E00E9433
:1013400060272BE333E040E050E00E944127C901D1
:1013500008958F929F92AF92BF92CF92DF92EF92B9
:10136000FF92CF93DF93EC016A017B010E94D905C4
:101370008C809D80AE80BF809B01AC01281939090B
:101380004A095B0949015A018885811108C00E94F8
:10139000D9056C837D838E839F8381E08887C81401
:1013A000D904EA04FB0408F418860E94D9058C804D
:1013B0009D80AE80BF80681979098A099B0921E068
:1013C000C616D706E806F90608F020E0822FDF915E
:1013D000CF91FF90EF90DF90CF90BF90AF909F9014
:1013E0008F900895CF93DF93FC012181222331F068
:1013F000EC0160E080810E941D041982DF91CF9191
:101400000895CF93DF93FC012181211107C0EC01E6
:1014100061E080810E941D0481E08983DF91CF918A
:101420000895CF93DF93EC01862F6883198261E0E2
:101430000E944B04CE01DF91CF910C94F209CF9220
:10144000DF92EF92FF920F931F93CF93DF93EC0104
:10145000288130E0F901E155F94F8491F901E7590C
:10146000F94F0491F901ED5DF94F1491112379F0D1
:1014700081110E94B603E12FF0E0EE0FFF1FEC5E3A
:10148000FD4FA591B491EC910E2311E009F410E009
:1014900089818117C9F00E94D905CA80DB80EC8060
:1014A000FD806C197D098E099F09633371058105E3
:1014B000910508F01983DF91CF911F910F91FF9053
:1014C000EF90DF90CF9008950E94D9056A837B83C7
:1014D0008C839D83F0CFCF92DF92EF92FF920F9398
:1014E0001F93CF93DF93EC01898100E410E0C12CBE
:1014F000D12C7601813009F065C000E011E0C12CEB
:10150000D12C760188810E945E05092E000CAA0B61
:10151000BB0BC80ED91EEA1EFB1E0150110991F724
:1015200094E0F694E794D794C7949A95D1F7DB8228
:10153000CA82FE013496CE01C296DF0112962D9129
:101540003C9113972D933D938A179B07B9F7DBAA1C
:10155000CAAA9E012C5C3F4F60E070E0CB01419134
:101560005191640F751F811D911D2E173F07B9F70B
:1015700028E130E040E050E00E946B273DAB2CAB0F
:101580005CA94DA989818130A9F5252F342F203CF4
:101590008EE3380710F02FEB3EE3AFEFBFE00E9481
:1015A0008D272FEB3EE340E050E00E9441273FAB08
:1015B0002EABDF91CF911F910F91FF90EF90DF90B5
:1015C000CF90089588810E945E05092E000CAA0B19
:1015D000BB0BC80ED91EEA1EFB1E0150110991F764
:1015E00086E0F694E794D794C7948A95D1F7DDAA5C
:1015F000CCAAC6CF852F942F811524E0920710F036
:101600008FEF93E09FAB8EABD4CFCF93DF9320913E
:10161000040F3091050F232B89F0FC01C091000FBE
:10162000D091010F60817181CE010E94F029009755
:1016300029F08C1B9D0BDF91CF9108958FEF9FEFC9
:10164000FACF2091FE0E3091FF0E232B39F421E0CA
:10165000FC018081882361F020E00AC0BC018091F8
:10166000FA0E9091FB0E0E94E02921E0892BA1F750
:10167000822F0895FC0124813581FB01448155812D
:1016800024173507E1F4FC0180819181FB01608121
:1016900071810097D1F061157105A1F4232BC1F080
:1016A000FC01808190E008C0232B91F0FB01808138
:1016B00090E091958195910921E0892B09F020E036
:1016C000822F08950E94E029F7CF6115710561F717
:1016D00021E0F6CF0E94D2298F929F92AF92BF92C3
:1016E000EF92FF920F931F93CF93DF93CDB7DEB7A7
:1016F000A1970FB6F894DEBF0FBECDBF7C01FA01F3
:10170000CB0119A2223008F42AE08E010F5D1F4F91
:10171000822E912CB12CA12CBF01A50194010E9415
:101720006B27F901CA016A3074F5605DD8016E93C8
:101730008D01232B242B252B79F790E080E0109747
:1017400089F0FD0101900020E9F73197AF014A1BB4
:101750005B0BD701ED91FC910280F381E02DB80184
:10176000C7011995A1960FB6F894DEBF0FBECDBF85
:10177000DF91CF911F910F91FF90EF90BF90AF90AD
:101780009F908F900895695CD1CF8F929F92AF9276
:10179000BF92CF92DF92EF92FF920F931F93CF935E
:1017A000DF937C01EB016C0182E0C80ED11C470184
:1017B000E5E08E0E911C10E000E0F60141916F0112
:1017C00050E070E060E02AE0CE010E946C0B5C010A
:1017D000E881F9810190F081E02D6EE2CE0119954A
:1017E0008A0D9B1D080F191FC814D90431F7F70182
:1017F000458150E070E060E02AE0CE010E946C0B71
:10180000800F911FDF91CF911F910F91FF90EF906B
:10181000DF90CF90BF90AF909F908F90089542E05F
:1018200050E069E672E00C94F705CF93DF930E94D5
:101830006107EC0180ED99E00E940F0C8C0F9D1F59
:10184000DF91CF9108958091D40E81110BC08091CA
:10185000D50E811107C086E492E00E94150C81E04C
:101860008093D40E089510923A058EE292E00C9483
:10187000150C0F931F93CF93DF93EC01FB01448171
:101880005581608171810E94F7058C01CE010E9413
:101890000F0C800F911FDF91CF911F910F91089531
:1018A000BC0181EA97E00E94390C81EA97E00E942E
:1018B0007C0761E070E080E090E00C94A6050F9357
:1018C0001F93CF93DF938C01EB01FC018081918109
:1018D0000097E1F06881798161157105A9F0428175
:1018E00053812C813D814217530770F00E94E929F2
:1018F0008C819D81F801958384831D821C82DF91F8
:10190000CF911F910F9108950E9468288881998135
:10191000F801918380838A819B81938382838C8168
:101920009D8195838483198218821B821A82E5CF58
:10193000CF93DF93EC0188819981009711F00E9489
:101940006828198218821D821C821B821A82DF91EC
:10195000CF910895FC0180819181009711F00C9442
:1019600068280895CF93DF93EC0185E292E0998394
:1019700088838C899D89009711F00E9468288E8940
:101980009F89009711F00E946828888D998D009793
:1019900011F00E9468288A8D9B8D009711F00E949B
:1019A00068288A819B81009721F0DF91CF910C9468
:1019B000C107DF91CF910895CF93DF93EC010E948F
:1019C000B20CCE01DF91CF910C946828CF93DF93B6
:1019D000EC0189E392E0998388838B899C89009745
:1019E00011F00E9468288A819B81009721F0DF9185
:1019F000CF910C94C107DF91CF910895CF93DF93DE
:101A0000EC010E94E60CCE01DF91CF910C94682886
:101A100021E432E0FC01318320830C94E60CCF9367
:101A2000DF93EC010E94080DCE01DF91CF910C9461
:101A300068280F931F93CF93DF93EC0188819981DE
:101A4000009759F02A813B812617370730F081E053
:101A5000DF91CF911F910F9108958B016F5F7F4FA1
:101A60000E94F128009759F0998388831B830A8389
:101A70002C813D81232B59F7FC011082E8CF80E0B7
:101A8000E7CFEF92FF920F931F93CF93DF938C01D9
:101A90007B01EB0109900020E9F72197C61BD70BCA
:101AA000BE010E94190D811109C0C801DF91CF91BB
:101AB0001F910F91FF90EF900C94980CF801D58333
:101AC000C483B70180819181DF91CF911F910F91E4
:101AD000FF90EF900C94E929EF92FF920F931F93E0
:101AE000CF93DF936115710541F480E0DF91CF91D1
:101AF0001F910F91FF90EF9008957B01EC01CB01B6
:101B00000E94EE260097A9F00C811D81080F191F75
:101B1000B801CE010E94190D882339F3288139813B
:101B20008C819D81B701820F931F0E94E7261D8340
:101B30000C8381E0DBCFEF92FF920F931F93CF9343
:101B4000DF936115710541F480E0DF91CF911F9122
:101B50000F91FF90EF90089541155105B1F07B0171
:101B6000EC010C811D81040F151FB8010E94190D95
:101B7000882351F3288139818C819D81B701820F9F
:101B8000931F0E94E9291D830C8381E0DECFEF9231
:101B9000FF920F931F93CF93DF9300D000D01F923B
:101BA000CDB7DEB77C01CB014AE08E010F5F1F4F3E
:101BB000B8010E941727F80101900020E9F731973A
:101BC000AF01401B510BB801C7010E949B0D279626
:101BD0000FB6F894DEBF0FBECDBFDF91CF911F913E
:101BE0000F91FF90EF900895EF92FF920F931F9344
:101BF000CF93DF9300D01F92CDB7DEB77C01862F45
:101C00004AE08E010F5F1F4FB80190E00E94F72657
:101C1000F80101900020E9F73197AF01401B510B0B
:101C2000B801C7010E949B0D0F900F900F900F906D
:101C3000DF91CF911F910F91FF90EF900895FB01DD
:101C400044815581608171810C949B0DEF92FF92CC
:101C50000F931F93CF93DF93EC018B0161157105F7
:101C600051F0CB010E94EE267C01BC01CE010E9406
:101C7000190D81110BC0CE010E94980CCE01DF918D
:101C8000CF911F910F91FF90EF900895FD82EC820C
:101C9000B801888199810E94E726F0CF0F931F93A6
:101CA000CF93DF93EFECF1E140E090E080E021E0C2
:101CB00030E05181511120E0082E01C0220F0A941A
:101CC000EAF7422B019636968830910581F74093CA
:101CD0008305EFEBF1E140E030E020E08181022E6E
:101CE00001C0880F0A94EAF7482B2F5F3F4F3296C6
:101CF0002830310599F7409382056FEF76E08CE04C
:101D00009FE00E94260E07E11FE0D0E0C0E0F8014E
:101D100066A977A98CE09FE00E94C70DCB30D10562
:101D200031F06DEF76E08CE09FE00E946C0D219623
:101D3000085C1F4FCC30D10551F76BEF76E08CE09B
:101D40009FE00E946C0D69EF76E086E09FE00E94C4
:101D5000260E07EB11E1D0E0C0E0F801618186E0DA
:101D60009FE00E94F40DC330D10531F067EF76E0BB
:101D700086E09FE00E946C0D21960E5F1F4FC430DD
:101D8000D10559F765EF76E086E09FE0DF91CF91CE
:101D90001F910F910C946C0DFC0111821082138223
:101DA0001282158214820C94260ECF93DF938091B9
:101DB000D50E81115CC0C0918205D091830562EB84
:101DC00072E088EC9EE00E94260E6EEE7EE088ECCB
:101DD0009EE00E941F0E60EB72E088EC9EE00E9485
:101DE0006C0D69EA72E088EC9EE00E946C0D6D2F2C
:101DF00088EC9EE00E94F40D67EA72E088EC9EE0B9
:101E00000E946C0D6FE972E088EC9EE00E946C0D00
:101E10006C2F88EC9EE00E94F40D6DE972E088EC76
:101E20009EE00E946C0D66E972E088EC9EE00E94E4
:101E30006C0D6CE07FE088EC9EE00E941F0E64E970
:101E400072E088EC9EE00E946C0D6CE872E088EC19
:101E50009EE00E946C0D66E07FE088EC9EE00E94B0
:101E60001F0E6AE872E088EC9EE00E946C0D8CE622
:101E700092E00E94210B63E772E0811108C08EE7B7
:101E800092E00E94210B882331F06AE572E08EEC2B
:101E90009EE00E94260E64EF7EE08EEC9EE00E94A3
:101EA0001F0E65E572E08EEC9EE00E946C0D609165
:101EB000CC0E7091CD0E8EEC9EE0DF91CF910C9404
:101EC000C70DEF92FF920F931F93CF93DF93EC0117
:101ED0007B01198218821B821A821D821C82FB01DF
:101EE00001900020E9F731978F01061B170BB8010D
:101EF0000E94190D811109C0CE01DF91CF911F9170
:101F00000F91FF90EF900C94980C1D830C83B701F8
:101F100088819981DF91CF911F910F91FF90EF9070
:101F20000C94E929AF92BF92CF92DF92EF92FF9289
:101F30000F931F93CF93DF936C015B017A018901AB
:101F40002417350720F48F2D7901042F182F6BE605
:101F500072E0C6010E94610FD5011496CD91DC910B
:101F6000EC16FD06E0F40C171D0708F4E801D50196
:101F7000ED91FC911197EC0FFD1F108110826D9176
:101F80007C916E0D7F1DC60161157105A1F00E9447
:101F9000410DF50180819181C80FD91F1883C601B9
:101FA000DF91CF911F910F91FF90EF90DF90CF9035
:101FB000BF90AF9008950E94980CEBCFBF92CF9244
:101FC000DF92EF92FF920F931F93CF93DF93CDB7E2
:101FD000DEB7ED84FE84CF84D888B9880B891C894C
:101FE000D70114968D919C91892B59F0AE01475ED3
:101FF0005F4F6F89788D80914212909143120E94B9
:102000000A2A8D899E89892B31F0C7010E94DF073A
:10201000C7010E94CC07F6018281938180589F4FAF
:1020200093838283D7015896ED91FC910484F585C2
:10203000E02DB801C6011995F801E80FF91FB0822B
:102040000196DF91CF911F910F91FF90EF90DF905C
:10205000CF90BF9008952F923F924F925F926F92D0
:102060007F928F929F92AF92BF92CF92DF92EF9228
:10207000FF920F931F93CF93DF93CDB7DEB7C85175
:10208000D2400FB6F894DEBF0FBECDBFFC01A281D7
:10209000B381109749F486E190E090933D128093CC
:1020A0003C1290E080E05BC45C017E01FBEFEF1A24
:1020B000FEEFFF0A5896ED91FC9159970488F58937
:1020C000E02DB701CD0119951816190654F7D50161
:1020D00012966D907C90C55FDD4F99838883CB50BD
:1020E000D24086E190E06114710409F432C4D30156
:1020F0005896ED91FC91C280D380A4E0B1E0AC0F82
:10210000BD1FAC0DBD1D8C91282F30E0CD5EDD4F85
:1021100039832883C351D240A7014C0D5D1DC15F97
:10212000DD4F59834883CF50D240DA019C90092D6E
:1021300010E0A6E0B1E0AC0FBD1FAC0DBD1D4C9092
:10214000512C542C4424A7E0B1E0AC0FBD1FAC0DC2
:10215000BD1D8C91480E511C1E01BBEF2B1ABDEF0B
:102160003B0AD10111963C932E9313961C930E9328
:1021700012970684F785E02DBE01655F7D4FC7018C
:102180001995F10195838483EFEFE90DE73108F0AC
:10219000B5C5F0E08827E053FF4E8F4F0C94B02771
:1021A000E710E71016121612A712FF12A7147E16D8
:1021B0007E167E167E167E167E167E163413F81355
:1021C00076147E167E167E167E16C91415150230FC
:1021D000110509F04CC0D5011A964D915C911B97E1
:1021E00018962D913C9119975696AD90BC908FE81A
:1021F00092E0E8E0F1E0EC0FFD1FEC0DFD1DE0804A
:10220000F12CFE2CEE24E9E0F1E0EC0FFD1FEC0DCB
:10221000FD1D6081E60EF11CB70161507109603D42
:10222000774078F127E02F9320ED2F939F938F93A2
:10223000FF92EF9283EC92E09F938F931F9281E045
:102240008F9321E030E02C0F3D1F3F932F931F927F
:1022500083E08F933F922F927F926F920E94DE0FC6
:102260008C010FB6F894DEBF0FBECDBF67C0F5017D
:102270004681578124813581A488B58885E892E01C
:10228000B8CF6201C41AD50AD7FC08C047018C0C2C
:102290009D1C28153905ACF44E0C5F1C9F938F9341
:1022A0005F924F928BEE92E09F938F931F921F92BB
:1022B00061E070E06C0F7D1F7F936F931F9282E04F
:1022C0000FC2D3015896ED91FC910484F585E02D61
:1022D000BE016F5F7F4FC10119958C010F5F1F4FCA
:1022E000E1E0F0E0EC0FFD1F8E0F9F1F21E0A70142
:1022F00047705527452B09F420E0F3E0F594E79467
:10230000FA95E1F7E20EDC01EC92F501EC0DFD1D12
:1023100030E020E090E080E0AF014A195B09481509
:1023200059050CF46AC0892B49F0E1E0F0E0EC0FAC
:10233000FD1FE00FF11F20830F5F1F4FCD5EDD4FAC
:1023400028813981C351D240232B09F406C3D3011C
:102350005896ED91FC910088F189E02DB801CE01ED
:10236000019619957C01D3015896ED91FC91028854
:10237000F389E02DA701BE016F5F7F4FC30119955F
:102380008B016F3F7F4F39F5F301868181FF23C0B9
:10239000C0903C12D0903D12F2EFCF16FDE2DF0666
:1023A00009F0BCC4D3015896ED91FC91068CF78DD1
:1023B000E02DC3011995C3010E94DF07D301589690
:1023C000ED91FC91048CF58DE02DC3011995D0920F
:1023D0003D12C0923C12F301868181FF03C00F3F82
:1023E000100709F2101611060CF0B7C2E016F1063C
:1023F00009F4B3C28FEE9BE2ACC2419150E0082ECB
:1024000002C0440F551F0A94E2F7242B352B873066
:10241000910551F4A1E0B0E0AC0FBD1FA00FB11FBA
:102420002C930F5F1F4F74CF019676CF04301105A8
:10243000B1F5F5014685578524853585808C918CCD
:102440008FE992E0E8E0F1E0EC0FFD1FEC0DFD1DDF
:10245000008110E0102F0027E9E0F1E0EC0FFD1FF4
:10246000EC0DFD1D6081060F111DB8016150710951
:10247000FE0131966F016D37710500F11F922DE756
:102480002F939F938F931F930F9383EC92E09F93CF
:102490008F931F9281E08F93FF93EF93D8CED50156
:1024A00052964D915C91539750962D913C91519736
:1024B0005A968D909C9084EB92E0C4CF7201E41AFE
:1024C000F50A5701F7FC07C0E00EF11E2E153F0577
:1024D0007CF4400E511E9F938F935F924F928BEE30
:1024E00092E09F938F931F921F92DF92CF92E6CE3E
:1024F000D3015896ED91FC910484F585E02DB60149
:10250000C1011995F601E80FF91F000F008395012D
:10251000220F331F820E931E0196F601E80FF91F5A
:102520008F010C191D09AE14BF040CF007CFD401A4
:1025300011968C91B2E08B0E911C8083D40112977E
:102540008C9181832FEFA21AB20A3296E9CFD5017E
:1025500016968D919C911797A201481B590BCE019D
:10256000019657FD06C014962D913C9142175307D2
:102570004CF05F924F922DE033E03F932F931F92E8
:102580001F92B1C1E8E0F1E0EC0FFD1FEC0DFD1D65
:10259000208130E0322F2227E9E0F1E0EC0FFD1F2F
:1025A000EC0DFD1D6081260F311D2115FFEF3F074A
:1025B00019F021153105B1F4D5015496ED91FC9136
:1025C000E40FF51F41E0232B09F440E04083C55F91
:1025D000DD4F08811981CB50D240A801B7010E947C
:1025E000D729ACCE5F924F923F932F9326E333E0EF
:1025F0003F932F931F921F929F938F936FC0D5018C
:1026000052968D919C9153979201281B390BCE01C4
:10261000019637FD07C050964D915C915197241754
:1026200035072CF05F924F9224E733E0A6CF220FBC
:10263000331F5A96ED91FC91E20FF31FA8E0B1E031
:10264000AC0FBD1FAC0DBD1D2C9130E0322F2227E9
:10265000A9E0B1E0AC0FBD1FAC0DBD1D4C91240F26
:10266000311D31832083B3CFE8E0F1E0EC0FFD1F93
:10267000EC0DFD1D808190E0982F8827E9E0F1E0C6
:10268000EC0FFD1FEC0DFD1D2081820F911D9C01A3
:1026900021503109203B374070F4EAE0F1E0EC0FC3
:1026A000FD1FEC0DFD1D2081E8E02E9F90011124FF
:1026B00028173907ECF427E02F9320EB2F939F93F3
:1026C0008F9382EA93E09F938F931F9281E08F9381
:1026D00021E030E02C0F3D1F3F932F931F9283E0AA
:1026E0008F933F922F927F926F920E94DE0FB8CD10
:1026F000D50116962D913C911797F201E21BF30B31
:102700009F01F7FD0CC0BC016E0F7F1F14964D9109
:102710005C91159746175707D4F4480E591E5F92DF
:102720004F9286ED93E09F938F931F921F9221E02B
:1027300030E02C0F3D1F3F932F931F9282E08F9329
:102740003F922F927F926F920E94DE0F89CD56E0CA
:10275000C50ED11C54960D911C91200F311FF9010B
:1027600050E040E081E090E08C0F9D1FC80ED91E24
:10277000CF01801B910B86179707F0F0D301589675
:10278000ED91FC910484F585E02DBE016F5F7F4FD4
:10279000C1011995A1E0B0E0AC0FBD1FA80FB91F92
:1027A000F701E80FF91F24E001900D922A95E1F757
:1027B0008C010C5F1F4FC2CDCF01821B930BA3E096
:1027C00096958795AA95E1F78C0D9D1D8C5F9E4F80
:1027D000DC018C9190E0042E02C0959587950A94B7
:1027E000E2F7817081934F5F5F4F47705527C0CFED
:1027F000E8E0F1E0EC0FFD1FEC0DFD1D208130E065
:10280000322F2227E9E0F1E0EC0FFD1FEC0DFD1D5A
:102810008081280F311DC90101978B37910570F414
:10282000EAE0F1E0EC0FFD1FEC0DFD1D8081B8E04A
:102830008B9FC0011124821793077CF41F928BE7B2
:102840008F933F932F9380E094E09F938F931F92F9
:1028500081E08F93CE010196CFCED50152968D9116
:102860009C915397F201E81BF90BCF01F7FD31C0A2
:10287000A9014E0F5F1F50966D917C9164177507EB
:1028800034F1C15FDD4FE881F981CF50D2409C0126
:10289000220F331F2E193F092C193D098417950764
:1028A0000CF06CCFD5015A966D917C91DB01A20F93
:1028B000B31FAE0FBF1F668170E0762F66271781AA
:1028C000610F711D6D937C9301963296E7CF420E96
:1028D000531E5F924F9289E394E09F938F931F92D0
:1028E0001F92CE0101969F938F9327CFD3015896C5
:1028F000ED91FC910484F585E02DBE016F5F7F4F63
:10290000C1011995FE01E80FF91F24EB2283FE0196
:10291000E80FF91F2FEF2383DC011396E1E0F0E0CD
:10292000EC0FFD1FAE0FBF1F28E0E8E6F4E00190BA
:102930000D922A95E1F78C01055F1F4FE1E0F0E071
:10294000EC0FFD1FE80FF91F8AE08083F7CC8DE6BE
:1029500090E090933D1280933C1281E090E0C85E3D
:10296000DD4F0FB6F894DEBF0FBECDBFDF91CF9124
:102970001F910F91FF90EF90DF90CF90BF90AF909D
:102980009F908F907F906F905F904F903F902F908F
:102990000895D50152968D919C915397F201E81BB1
:1029A000F90BCE010196F7FD3DCE50962D913C914D
:1029B0005197E217F3070CF035CEEE0FFF1F5A9632
:1029C0002D913C91E20FF31FAAE0B1E0AC0FBD1FC7
:1029D000AC0DBD1D2C9130E0322F2227ABE0B1E0D1
:1029E000AC0FBD1FAC0DBD1D4C91240F311DA8E0D7
:1029F000B1E0AC0FBD1FAC0DBD1D4C91642F70E05C
:102A0000762F6627A9E0B1E0AC0FBD1FAC0DBD1D50
:102A10004C91460F572F511D60817181622773279A
:102A200046235723242735271CCEE8E0F1E0EC0F9E
:102A3000FD1FEC0DFD1D808190E0982F8827E9E0B7
:102A4000F1E0EC0FFD1FEC0DFD1D2081FC01E20FFC
:102A5000F11DC35FDD4FF983E883CD50D240ECE038
:102A6000F1E0EC0FFD1FEC0DFD1D808190E0982F33
:102A70008827EDE0F1E0EC0FFD1FEC0DFD1D20813E
:102A8000820F911D9C0121503109DE0111962937D9
:102A90003105C0F4C35FDD4F28813981CD50D2406C
:102AA000215031092D37310568F4EEE0F1E0EC0FEB
:102AB000FD1FEC0DFD1D40819C01220F331F4217AD
:102AC000130639F11F922DE72F931F9229E72F93B9
:102AD000C25FDD4FF881CE50D240FF93C35FDD4F20
:102AE0002881CD50D2402F939F938F9381E794E01C
:102AF0009F938F931F9281E08F93BF93AF931F9209
:102B000083E08F933F922F927F926F920E94DE0F0D
:102B1000A7CBEAE0F1E0EC0FFD1FEC0DFD1D2081DD
:102B200030E0322F2227EBE0F1E0EC0FFD1FEC0D3F
:102B3000FD1D4081240F311DF50142895389820119
:102B4000041B150BCF5EDD4F19830883C151D240A2
:102B5000B901641B750BAB014B0117FDE6C0C35FE8
:102B6000DD4FE881F981CD50D240E00FF11FCB5EFF
:102B7000DD4FF983E883C551D240F5016089718941
:102B8000CB5EDD4FE881F981C551D2406E177F07DA
:102B9000FCF057FD1FC0AC01480D591DC95EDD4F4B
:102BA00059834883C751D24064177507E4F4280F4E
:102BB000391F17FF0FC03F932F935F924F928DEBFA
:102BC00094E09F938F931F921F92BF93AF9376CB06
:102BD00057FFEDCFC35FDD4F68817981CD50D24083
:102BE000460E571EE8CFF301808D918DFC012485A0
:102BF00035857D01BD01CE018B5F9D4FF901199592
:102C0000F701E80FF91FC35FDD4F2881CD50D24097
:102C1000220F2083C15FDD4FE881F981CF50D24080
:102C2000AE014B5F5E4F9401220F331F241B350B07
:102C30002C193D09C95EDD4F48815981C751D240E9
:102C4000841695060CF443C0F701E80FF91F9801AC
:102C5000220F331F2E193F09B901681B790BCB01D5
:102C600041E050E04E195F098A010E0F1F1FCB5E35
:102C7000DD4F68817981C551D240CF5EDD4FA8819B
:102C8000B981C151D240A617B7070CF057CBBC0190
:102C90006E0F7F1FD5015A962D913C91DB01A20F3B
:102CA000B31F11962C91119721832C912283CF5E13
:102CB000DD4F28813981C151D2402F5F3F4FCF5E18
:102CC000DD4F39832883C151D2403296CDCFD50113
:102CD0005A964D915C91DA01A20FB31FAE0FBF1F40
:102CE000428550E0542F44276385460F511D4D9374
:102CF0005C93BFEF8B1A9B0A32969CCF1F929F92D8
:102D00008EE095E09F938F931F9281E08F939E01B9
:102D10002F5F3F4F3F932F931F9211CDC3010E940E
:102D2000DF07C3010E94CC0752CB77FF40CF43CFD0
:102D30001F920F920FB60F9211242F933F938F93F0
:102D40009F93AF93BF9380917A0590917B05A0915B
:102D50007C05B0917D053091790523E0230F2D3757
:102D600058F50196A11DB11D2093790580937A0530
:102D700090937B05A0937C05B0937D0580917E05A3
:102D800090917F05A0918005B09181050196A11DCC
:102D9000B11D80937E0590937F05A0938005B0932D
:102DA0008105BF91AF919F918F913F912F910F908E
:102DB0000FBE0F901F90189526E8230F0296A11DB5
:102DC000B11DD2CF1F920F920FB60F9211240BB6E6
:102DD0000F922F933F934F935F936F937F938F93B4
:102DE0009F93AF93BF93EF93FF9387E49CE00E9480
:102DF000FE06FF91EF91BF91AF919F918F917F91CF
:102E00006F915F914F913F912F910F900BBE0F905B
:102E10000FBE0F901F9018951F920F920FB60F9232
:102E200011240BB60F922F933F934F935F936F93A1
:102E30007F938F939F93AF93BF93EF93FF9387E419
:102E40009CE00E942406FF91EF91BF91AF919F916A
:102E50008F917F916F915F914F913F912F910F9043
:102E60000BBE0F900FBE0F901F9018951F920F92E0
:102E70000FB60F9211240BB60F922F933F934F93DF
:102E80005F936F937F938F939F93AF93BF93EF93D2
:102E9000FF9384E895E00E94FE06FF91EF91BF91B9
:102EA000AF919F918F917F916F915F914F913F91E2
:102EB0002F910F900BBE0F900FBE0F901F90189583
:102EC0001F920F920FB60F9211240BB60F922F93F1
:102ED0003F934F935F936F937F938F939F93AF93A2
:102EE000BF93EF93FF9384E895E00E942406FF913F
:102EF000EF91BF91AF919F918F917F916F915F9172
:102F00004F913F912F910F900BBE0F900FBE0F90DE
:102F10001F9018951F920F920FB60F9211240BB6A7
:102F20000F922F933F934F935F936F937F938F9362
:102F30009F93AF93BF93EF93FF9381EA97E00E9433
:102F4000FE06FF91EF91BF91AF919F918F917F917D
:102F50006F915F914F913F912F910F900BBE0F900A
:102F60000FBE0F901F9018951F920F920FB60F92E1
:102F700011240BB60F922F933F934F935F936F9350
:102F80007F938F939F93AF93BF93EF93FF9381EAC8
:102F900097E00E942406FF91EF91BF91AF919F911E
:102FA0008F917F916F915F914F913F912F910F90F2
:102FB0000BBE0F900FBE0F901F9018951F920F928F
:102FC0000FB60F9211240BB60F922F933F934F938E
:102FD0005F936F937F938F939F93AF93BF93EF9381
:102FE000FF9380ED99E00E94FE06FF91EF91BF9163
:102FF000AF919F918F917F916F915F914F913F9191
:103000002F910F900BBE0F900FBE0F901F90189531
:103010001F920F920FB60F9211240BB60F922F939F
:103020003F934F935F936F937F938F939F93AF9350
:10303000BF93EF93FF9380ED99E00E942406FF91E8
:10304000EF91BF91AF919F918F917F916F915F9120
:103050004F913F912F910F900BBE0F900FBE0F908D
:103060001F90189588E29CE00E94080D89E89EE078
:103070000E94AA0C8FE89EE00E94AA0C85E99EE0BF
:103080000E94AA0C82EC9EE00E94AA0C88EC9EE0B2
:103090000E94AA0C8EEC9EE00E94AA0C86ED9EE097
:1030A0000E94AA0C8CED9EE00E94AA0C82EE9EE08B
:1030B0000E94AA0C88EE9EE00E94AA0C8EEE9EE072
:1030C0000E94AA0C84EF9EE00E94AA0C8AEF9EE068
:1030D0000E94AA0C80E09FE00E94AA0C86E09FE07C
:1030E0000E94AA0C8CE09FE00E94AA0C8FEF91E155
:1030F0000E94080D8EE192E10C94B20C2F923F9247
:103100004F925F926F927F928F929F92AF92BF92F7
:10311000CF92DF92EF92FF920F931F93CF93DF93A3
:1031200007E41CE0D80113961C921E92129788EEB9
:10313000C82E83E0D82EE12CF12CF801C482D58270
:10314000E682F78283E192E09183808325E331E098
:103150003587248724E331E03787268720E331E071
:10316000318B208B21E331E0338B228B22E331E062
:10317000358B248B26E331E0378B268B118E128E14
:10318000138E148EE4E8F5E013821282C482D58295
:10319000E682F7829183808325ED30E035872487AE
:1031A00024ED30E03787268720ED30E0318B208B0F
:1031B00021ED30E0338B228B22ED30E0358B248BF8
:1031C00026ED30E0378B268B118E128E138E148EE7
:1031D000E1EAF7E013821282C482D582E682F782A6
:1031E000918380832DEC30E0358724872CEC30E010
:1031F0003787268728EC30E0318B208B29EC30E0B4
:10320000338B228B2AEC30E0358B248B2EEC30E094
:10321000378B268B118E128E138E148EE0EDF9E013
:1032200013821282C482D582E682F78291838083E0
:1032300085EC90E09587848784EC90E0978786877B
:1032400080EC90E0918B808B81EC90E0938B828B73
:1032500082EC90E0958B848B86EC90E0978B868B4C
:10326000118E128E138E148EAEEBB9E099E4A92E56
:1032700092E0B92E1196BC92AE9212961C921297C1
:1032800013961C92139714961C92149715961C92E1
:10329000A4ECB9E01196BC92AE9212961C921297D1
:1032A00013961C92139714961C92149715961C92C1
:1032B000AAECB9E01196BC92AE9212961C921297AB
:1032C00013961C92139714961C92149715961C92A1
:1032D000CEE1D2E11B821A8222E232E188E1D901F9
:1032E0001D928A95E9F78FE292E099838883ADEE8B
:1032F000BBE0BD8FAC8FCFEFD1E11B821A82CC82B5
:10330000DD82EE82FF82198618861A861C8A1B8A45
:103310001E8A1D8A188E1F8A1A8E198E1C8E1B8E6D
:1033200021E4222E22E0322E39822882BE8FAD8FF8
:1033300013961C921E9212971496CD92DD92ED92E6
:10334000FC9217973FE4832E32E0932E11969C92C5
:103350008E921D96FC93EE931C9781E090E01F9651
:103360009C938E931E9782E090E051969C938E934F
:1033700050978FEF9FEF53969C938E93529755964D
:103380001C921E92549757961C921E9256975896CE
:103390001C92CFECD1E180E28883198260E00E9428
:1033A0004B0481E28E831F8260E00E944B0482E224
:1033B0008C871D8660E00E944B0483E28A8B1B8A07
:1033C00060E00E944B0484E2888F198E60E00E94C6
:1033D0004B0485E28E8F1F8E60E00E944B0486E2D4
:1033E0008CA31DA260E00E944B0487E28AA71BA663
:1033F00060E00E944B0468E28FEB91E10E94110AA9
:1034000069E281EC91E10E94110A6AE283EC91E1A8
:103410000E94110A6BE285EC91E10E94110A6CE2B4
:1034200087EC91E10E94110A6DE289EC91E10E9422
:10343000110A6EE28BEC91E10E94110A6FE28DECB1
:1034400091E10E94110AC7EBD1E184E0888361E039
:103450000E944B0485E08A8361E00E944B0486E071
:103460008C8361E00E944B0487E08E8361E00E94C0
:103470004B04C7E1DFE086E3888377247394798285
:1034800060E00E944B0487E388AF79AE60E00E9461
:103490004B0488E38093870F7092880F60E00E944E
:1034A0004B0489E38093BF0F7092C00F60E00E94CD
:1034B0004B048AE38093F70F7092F80F60E00E944C
:1034C0004B048BE380932F107092301060E00E94C9
:1034D0004B048CE3809367107092681060E00E9448
:1034E0004B048DE380939F107092A01060E00E94C7
:1034F0004B048EE38093D7107092D81060E00E9446
:103500004B048FE380930F117092101160E00E94C2
:103510004B0480E4809347117092481160E00E9450
:103520004B0481E480937F117092801160E00E94CF
:103530004B04C2E1DFE08BE1888362E00E944B0430
:103540008CE1898362E00E944B048DE18A8362E012
:103550000E944B048EE18B8362E00E944B048FE15A
:103560008C8362E00E944B046BE672E08CE09FE08B
:103570000E94610F6BE672E086E09FE00E94610F9F
:103580006BE672E080E09FE00E94610F6BE672E004
:103590008AEF9EE00E94610F6BE672E084EF9EE08E
:1035A0000E94610F6BE672E08EEE9EE00E94610F5A
:1035B0006BE672E088EE9EE00E94610F6BE672E0BF
:1035C00082EE9EE00E94610F6BE672E08CED9EE061
:1035D0000E94610F6BE672E086ED9EE00E94610F33
:1035E0001092D50E1092D40E6BE672E08EEC9EE037
:1035F0000E94610F6BE672E088EC9EE00E94610F12
:103600006BE672E082EC9EE00E94610F1092C10EA8
:10361000E8EBFEE048EB442E4BE0542E612C712C7D
:1036200040825182628273821482158216821782CE
:103630001086EFEAFEE04082518262827382148239
:103640001582168217821086E6EAFEE040825182D9
:103650006282738214821582168217821086EBE9C9
:10366000FEE01482158216821782108688EC9FEA8B
:10367000A0E0B0E080839183A283B3831286118699
:103680006BE672E085E99EE00E94610F6BE672E0F6
:103690008FE89EE00E94610F6BE672E089E89EE091
:1036A0000E94610FE3E8FEE0B182A08212821382E1
:1036B00014821582A4E6BEE013961C921E92129705
:1036C0001496CD92DD92ED92FC92179711969C92F2
:1036D0008E921D961C930E931C971F961C921E9201
:1036E0001E9751961C921E92509786E190E0539639
:1036F0009C938E93529755961C921E925497579670
:103700001C921E92569758961C925897E8E2FCE03D
:1037100013821282C482D582E682F78211861086D5
:103720001286148A138A168A158A108E178A128EA8
:10373000118E148E138E31822082B68FA58FEFE109
:10374000FCE040825182628273821482158216826A
:1037500017821086E6E1FCE0408251826282738229
:10376000148215821682178210861092150CECE0D6
:10377000FCE080E09CE5A6E2B5E080839183A28333
:10378000B38314821582168217821086DF91CF913F
:103790001F910F91FF90EF90DF90CF90BF90AF906F
:1037A0009F908F907F906F905F904F903F902F9061
:1037B0000895CF93DF93CDB7DEB768970FB6F8942F
:1037C000DEBF0FBECDBF789484B5826084BD84B562
:1037D000816084BD85B5826085BD85B5816085BD0C
:1037E00080916E00816080936E00109281008091C4
:1037F000810082608093810080918100816080934C
:103800008100809180008160809380008091B10070
:1038100084608093B1008091B00081608093B0009B
:1038200080919100826080939100809191008160ED
:1038300080939100809190008160809390008091AE
:10384000A10082608093A1008091A100816080939B
:10385000A1008091A00081608093A000809121014F
:1038600082608093210180912101816080932101F8
:103870008091200181608093200180917A00846092
:1038800080937A0080917A00826080937A008091A0
:103890007A00816080937A0080917A0080688093BA
:1038A0007A001092C10026E040E855E260E070E046
:1038B00080ED99E00E949C061092000268E070E0A2
:1038C0008EEE9EE00E94190D68E070E088EE9EE0AA
:1038D0000E94190D68E070E082EE9EE00E94190DD2
:1038E00068E070E082EC9EE00E94190D60E170E0FB
:1038F0008AEF9EE00E94190D60E170E084EF9EE087
:103900000E94190D60E270E086E09FE00E94190DB0
:1039100060E270E089E89EE00E94190D60E470E0CA
:103920008CED9EE00E94190D60E470E086ED9EE053
:103930000E94190D60E470E08EEC9EE00E94190D6B
:1039400060E470E08CE09FE00E94190D60E870E098
:1039500085E99EE00E94190D60E870E088EC9EE029
:103960000E94190D60E072E080E09FE00E94190D56
:10397000882309F475C080ED92E00E94150C61E087
:1039800088E10E944B0461E088E10E941D041092CE
:103990003A0581E08093A30E83E39CE09093A50E0B
:1039A0008093A40E26E040E855E260E070E084E8F1
:1039B00095E00E949C0661E086E10E944B040E9413
:1039C000140926E040E052EC61E070E087E49CE0FE
:1039D0000E949C0607E11FE0F8011182085C1F4F5E
:1039E000F1E1073B1F07C1F78FEB91E10E94F2095C
:1039F00081EC91E10E94F20983EC91E10E94F209CD
:103A000085EC91E10E94F20988E199E20FB6F89401
:103A1000A895809360000FBE909360003324339488
:103A2000EBE02E2E80ED99E00E946D061816190627
:103A30000CF04EC080ED99E00E944C068D3011F4E0
:103A40000C9491268A3071F389831A8241E050E008
:103A5000BE016F5F7F4F89E89EE00E949B0DE2CF21
:103A60008AEB92E08ACF10923A056FED72E089E816
:103A70009EE00E94260ED6CF6DE073E0CE01019647
:103A80000E94CC0EBE016F5F7F4F89E89EE00E94CE
:103A90003A0BF82ECE0101960E94AA0CFF2099F055
:103AA00081E093E00E94150C60EE72E0CE01019679
:103AB0000E94CC0ECE0101960E94500CCE010196C0
:103AC0000E94AA0CD2CF89E89EE00E94500CCDCF74
:103AD0007FECE72E71E1F72EC7010E941F0A26E056
:103AE000E20EF11C3FEFE31631E1F306A9F767E1BF
:103AF000E62E6FE0F62EC7010E946B0A48E3E40E43
:103B0000F11C0E151F05B9F70E944E0E0E94D50E2E
:103B10008091C60E9091C70E892B09F46CC070E09D
:103B200060E082EC9EE00E94E505F82E61E070E026
:103B300082EC9EE00E94E505D82E62E070E082EC07
:103B40009EE00E94E505B82E63E070E082EC9EE006
:103B50000E94E505E82E64E070E082EC9EE00E94A1
:103B6000E505C82E54E4F512D4C18AE3D812BDC1CC
:103B70008B2D0E941E09F82E8E2D0E941E0990E1A9
:103B8000F99E90011124F82EF22A8DEC91E1F0FCBF
:103B900097C10E94F2098BEC91E1F1FC94C10E9463
:103BA000F20989EC91E1F2FC91C10E94F20987ECE3
:103BB00091E1F3FC8EC10E94F20985EC91E1F4FCE5
:103BC0008BC10E94F20983EC91E1F5FC88C10E944F
:103BD000F20981EC91E1F6FC85C10E94F2098FEBBC
:103BE00091E1F7FC93C10E94F2096EE173E082EC6F
:103BF0009EE00E94260E8FEC91E10E941F0A85ED47
:103C000091E10E941F0A8BED91E10E941F0A81EE53
:103C100091E10E941F0A87EE91E10E941F0A87E14D
:103C20009FE00E946B0A8FE49FE00E946B0A87E886
:103C30009FE00E946B0A80914D0F90914E0F0E9461
:103C400087094C018091850F9091860F0E9487090A
:103C50005C018091BD0F9091BE0F0E9487096C019D
:103C6000C4010E943E097C01C5010E943E093C013D
:103C7000C6010E943E092C0151E2851653E09506CB
:103C80000CF469C18FEB91E10E94010A9BEFA91628
:103C9000B1040CF46BC181EC91E10E94010AFFE1D7
:103CA000CF16D1040CF46CC183EC91E10E94010A9F
:103CB000E092B811B70177278091B7110E9487046D
:103CC0006092BA11B30177278091B9110E948704DD
:103CD0004092BC11B20177278091BB110E948704EA
:103CE0009091D61181E0911180E02091150C8217FE
:103CF00051F08093150C992331F00E944E0E0E94D2
:103D0000D50E0E94230C8091D011882309F442C162
:103D100083E29CE00E94320985EC91E10E94F20965
:103D200048E853E160E070E086E19CE00E94A90968
:103D3000882311F168EC7EE080ED99E00E94390C57
:103D400061E086E10E941D0461E070E080E090E0A7
:103D50000E94A60568EC7EE087E49CE00E94390C96
:103D600087E49CE00E947C0761E070E080E090E0E6
:103D70000E94A6050E9414090E94D9054B015C010E
:103D80008091750590917605A0917705B0917805A1
:103D9000A5019401281B390B4A0B5B0BDA01C90101
:103DA000813D9740A105B10508F451C18091EE0E07
:103DB0009091EF0EE12C009719F00E94C026E62E9C
:103DC0006FE173E0CE0101960E94CC0EBE016F5FE1
:103DD0007F4F8AEF9EE00E943A0BF12C81110AC0BE
:103DE0008EE792E00E94210BFF24F394811102C020
:103DF00032E0F32ECE0101960E94AA0C4BE54093CF
:103E00003D0580913A0590913905890F90913705CC
:103E1000890F80933E05E0923F05F0924005809126
:103E20008305809341058091820580934205EDE3EF
:103E3000F5E0A7E1BFE0D6968C91D697D7969C91F6
:103E4000D79796838783D896329655E0E535F50760
:103E500091F710925B058091B81180935C051092E8
:103E60005D058091BA1180935E0510925F05809187
:103E7000BC1180936005109261058091BE11809302
:103E8000620523E6E22E25E0F22ED12CC12CB601EC
:103E900084EF9EE00E94E505F70181937F01FFEF2B
:103EA000CF1ADF0A20E1C216D10489F7EEE3F5E06C
:103EB00096E380E0915009F4B1C02191820FFACFCE
:103EC0000E94010A68CE0E94010A6BCE0E94010A7C
:103ED0006ECE0E94010A71CE0E94010A74CE0E9429
:103EE000010A77CE0E94010A7ACE80ED8D0D8830CE
:103EF00008F07BCEED2DE053FF0BCF01880F991F0B
:103F000081549E4EF0E3EF1609F46DCE0E94010A33
:103F10006CCE21E4F21269CE80ED8D0D853008F073
:103F200064CE8E2D0E941E09F82E8C2D0E941E0933
:103F300030E1F39EB0011124682B4D2D4053550BF9
:103F4000FA01EE0FFF1FE954FE4E618370E080819D
:103F50000E9487044ACE8DE1881683E098060CF013
:103F600095CE8FEB91E10E94F20990CEE7EFAE166D
:103F7000B1040CF094CE81EC91E10E94F2098FCE55
:103F80002BE1C216D1040CF093CE83EC91E10E9498
:103F9000F2098ECE81E020919D1030919E10223347
:103FA000310508F080E02091D5103091D6102233F1
:103FB000310508F48F5F20910D1130910E112233DD
:103FC000310508F48F5F209145113091461122335D
:103FD000310508F48F5F20917D1130917E112233DD
:103FE000310508F48F5F2091B5113091B61122335D
:103FF000310508F48F5F833008F48ACE40EE53E930
:1040000064E070E08FE19CE00E94A909882309F434
:1040100087CE85EC91E10E94010A82CE80937305E0
:104020003DE53093740548E350E06DE375E084E8C6
:1040300095E00E94F70584E895E00E947C07809255
:10404000750590927605A0927705B09278058091DB
:10405000A30E882331F10E94D905C0909F0ED09005
:10406000A00EE090A10EF090A20E6C197D098E09B1
:104070009F09C0909B0ED0909C0EE0909D0EF090FA
:104080009E0EC616D706E806F90658F4E091A40E6F
:10409000F091A50E309701F119958FE99EE00E94ED
:1040A000320981EA97E00E946D0618161906FCF4A1
:1040B00081EA97E00E944C068D30C9F08A3089F37E
:1040C00089831A8241E050E0BE016F5F7F4F80E03C
:1040D0009FE00E949B0DE5CF88E198E00FB6F89431
:1040E000A895809360000FBE90936000FFCF67EEAD
:1040F00075E0CE0101960E94CC0ECE0101960E9481
:10410000050B7C0190933C0580933B05CE01019605
:104110000E94AA0CF7FC5EC08EE792E00E94210B81
:104120008823B9F09701295E3F4FA701485F5F4F91
:1041300060E07FE0CE0101960E94920FBE016F5FAA
:104140007F4F84EF9EE00E945F0CCE0101960E949B
:10415000AA0C8CE692E00E94210B8823B9F097010B
:104160002A5E3F4FA701495F5F4F60E07FE0CE01CD
:1041700001960E94920FBE016F5F7F4F84EF9EE019
:104180000E945F0CCE0101960E94AA0C65ED75E0BD
:104190008CED9EE00E94260E64EF7EE08CED9EE0AA
:1041A0000E941F0E64EC75E08CED9EE00E946C0D89
:1041B00061EB75E086ED9EE00E94260E64EF7EE0E6
:1041C00086ED9EE00E941F0E6AEA75E086ED9EE095
:1041D0000E946C0D63EA75E0CE0101960E94CC0E40
:1041E000CE0101960E94050B7C0190933C058093C3
:1041F0003B05CE0101960E94AA0CF7FC40C0970136
:10420000285F3F4FA7014A5F5F4F60E07FE0CE012C
:1042100001960E94920FBE016F5F7F4F8EEE9EE06F
:104220000E945F0CCE0101960E94AA0C8091F20EB2
:104230009091F30E029718F1E091EE0EF091EF0ECF
:10424000309709F0A1C410923805E8E3F5E08081C9
:104250008C32A9F421E030E050E040E06EEE7EE0E8
:10426000CE0101960E94920FBE016F5F7F4F8EEECE
:104270009EE00E945F0CCE0101960E94AA0C69E9A3
:1042800075E0CE0101960E94CC0ECE0101960E94EF
:10429000050B7C01CE0101960E94AA0CF7FC06C01A
:1042A00067E975E088EE9EE00E94260E6BE875E0F7
:1042B000CE0101960E94CC0ECE0101960E94050B04
:1042C0007C01CE0101960E94AA0CF7FC06C067E8AB
:1042D00075E082EE9EE00E94260E6CE775E0CE014E
:1042E00001960E94CC0ECE0101960E94050B7C0126
:1042F00090933C0580933B05CE0101960E94AA0C49
:10430000F7FC1DC09701225D3F4FA701475D5F4F3E
:1043100060E07FE0CE0101960E94920FBE016F5FC8
:104320007F4F82EC9EE00E945F0CCE0101960E94BE
:10433000AA0C62EC7EE080ED99E00E94390C67E601
:1043400075E0CE0101960E94CC0ECE0101960E942E
:10435000050B7C01CE0101960E94AA0CF7FE10927B
:104360003A056CE575E0CE0101960E94CC0ECE01B7
:1043700001960E94050B7C01CE0101960E94AA0CB9
:10438000F7FE10923A056BE475E0CE0101960E94AB
:10439000CC0ECE0101960E94050B7C01CE01019648
:1043A0000E94AA0CF7FE10923A0580913A058111FD
:1043B00050C080E395E00E94150C30923A051092AF
:1043C0003905109237056FE275E080E09FE00E94AA
:1043D000260E6EE275E08AEF9EE00E94260E6DE2E8
:1043E00075E084EF9EE00E94260E6CE275E08EEE92
:1043F0009EE00E94260E6BE275E088EE9EE00E9431
:10440000260E6AE275E082EE9EE00E94260E69E2C8
:1044100075E08CED9EE00E94260E68E275E086ED68
:104420009EE00E94260E1092D50E1092D40E67E2E6
:1044300075E08EEC9EE00E94260E66E275E088EC48
:104440009EE00E94260E65E275E082EC9EE00E94EE
:10445000260E80913A05813049F5E0913505F091BD
:104460003605EE0FFF1FEE0FFF1FE95FFD4F408186
:1044700051816281738126E081EA97E00E949C0667
:1044800060E088E10E941D0440ED57E060E070E0CC
:1044900088EB9EE00E94A909882309F441C061E0ED
:1044A00088E10E941D0442E040933A0580913A055C
:1044B0008230B1F561E275E0CE0101960E94CC0E2A
:1044C000CE0101960E94050B7C01CE0101960E944F
:1044D000AA0CF7FC5BC387E095E00E94150C62E034
:1044E00075E0CE0101960E94CC0ECE0101960E948D
:1044F000500CCE0101960E94AA0C67EF74E0CE0129
:1045000001960E94CC0ECE0101960E94500CCE0165
:1045100001960E94AA0C53E050933A051092C10EE6
:1045200080913A05833019F486E080933A058091B2
:104530003A058630E1F448EE53E060E070E088EB45
:104540009EE00E94A909882309F451C062EC74E03E
:10455000CE0101960E94CC0ECE0101960E94500C15
:10456000CE0101960E94AA0C89E080933A058091C1
:104570003A058930E1F56EE772E0CE0101960E94BE
:10458000610FCE0101960E94050B7C01CE010196C0
:104590000E94AA0C6EE772E0F7FE13C06CE672E0B0
:1045A000CE0101960E94610FCE0101960E94050B7B
:1045B0007C01CE0101960E94AA0CF7FC21C06CE69A
:1045C00072E08AEF9EE00E94410D4091FE0E5091F4
:1045D000FF0E6091FA0E7091FB0E80ED99E00E9443
:1045E000F70520923A058FE99EE00E9432098091FA
:1045F0003A058B3029F48CE080933A051092390506
:1046000080913A058C3009F093C28091390581116F
:1046100007C08AEA94E00E94150C93E09093390554
:1046200080913905833009F0A5C048EE53E060E081
:1046300070E08FEA9EE00E94A909882309F4BFC0B8
:1046400060EA74E0CE0101960E94CC0ECE01019684
:104650000E94500CCE0101960E94AA0C65E974E0FC
:10466000CE0101960E94CC0ECE0101960E94500C04
:10467000CE0101960E94AA0C65E774E0CE01019676
:104680000E94CC0ECE0101960E94500CCE010196E4
:104690000E94AA0C8CE692E00E94210B882309F468
:1046A00046C06BE674E0CE0101960E94CC0ECE01AE
:1046B00001960E94500CCE0101960E94AA0C60E661
:1046C00074E0CE0101960E94CC0ECE0101960E94AC
:1046D000500CCE0101960E94AA0C65E574E0CE0153
:1046E00001960E94CC0ECE0101960E94500CCE0184
:1046F00001960E94AA0C6AE474E0CE0101960E9421
:10470000CC0ECE0101960E94500CCE0101960E9463
:10471000AA0C6CE374E0CE0101960E94CC0ECE018F
:1047200001960E94500CCE0101960E94AA0C6EE2E6
:1047300074E0CE0101960E94CC0ECE0101960E943B
:10474000500CCE0101960E94AA0C61E274E0CE01E9
:1047500001960E94CC0ECE0101960E94500CCE0113
:1047600001960E94AA0C84E0809339058FE99EE0AF
:104770000E94320980913905843009F548EE53E0F2
:1047800060E070E08FEA9EE00E94A909882371F042
:1047900067E174E0CE0101960E94CC0ECE01019635
:1047A0000E94500CCE0101960E94AA0C8091F80E36
:1047B0009091F90E0F9719F485E080933905809157
:1047C0003905853059F548EE53E060E070E08FEA36
:1047D0009EE00E94A909882371F060E174E0CE0197
:1047E00001960E94CC0ECE0101960E94500CCE0183
:1047F00001960E94AA0C8091EE0E9091EF0E009708
:1048000069F00E94C026633649F0633038F086E0D4
:10481000809339058FE99EE00E9432098091390525
:10482000863019F487E08093390580913905873007
:1048300099F548EE53E060E070E08FEA9EE00E9458
:10484000A909882371F066E074E0CE0101960E9408
:10485000CC0ECE0101960E94500CCE0101960E9412
:10486000AA0C6CE873E0CE0101960E94CC0EBE014A
:104870006F5F7F4F88EE9EE00E943A0BF82ECE01CC
:1048800001960E94AA0CFF2039F088E08093390538
:104890008FE99EE00E94320980913905883019F431
:1048A00089E08093390580913905893099F548EE82
:1048B00053E060E070E08FEA9EE00E94A90988233F
:1048C00071F06CEF73E0CE0101960E94CC0ECE0128
:1048D00001960E94500CCE0101960E94AA0C68E835
:1048E00073E0CE0101960E94CC0EBE016F5F7F4F38
:1048F00082EE9EE00E943A0BF82ECE0101960E94B5
:10490000AA0CFF2039F08AE0809339058FE99EE0F8
:104910000E943209809139058A3009F0A2C18EE7E0
:1049200092E00E94210B882309F479C148EE53E0FC
:1049300060E070E08FEA9EE00E94A9096BED73E0F1
:10494000811181C1809139058C3089F448EE53E0A2
:1049500060E070E08FEA9EE00E94A909882319F1C7
:104960008CED9EE00E94500C8DE080933905809183
:1049700039058D30C1F46FE973E0CE0101960E94D4
:10498000CC0ECE0101960E94050B7C01CE01019652
:104990000E94AA0CF7FC07C08EE0809339058FE9CE
:1049A0009EE00E943209809139058E3089F448EEEC
:1049B00053E060E070E08FEA9EE00E94A90988233E
:1049C00019F186ED9EE00E94500C8FE0809339052E
:1049D000809139058F30C1F46EE873E0CE01019605
:1049E0000E94CC0ECE0101960E94050B7C01CE01E7
:1049F00001960E94AA0CF7FC07C081E1809339055B
:104A00008FE99EE00E94320980913905813129F4B5
:104A10001092370582E18093390580913905823102
:104A200009F086C08091370581110FC08091D40EA6
:104A3000882309F434C11092D40E3092D50E8EEC36
:104A40009EE00E94500C3092370561E673E0CE0183
:104A500001960E94CC0ECE0101960E94050B7C01AE
:104A6000CE0101960E94AA0CF7FC0DC0809137057B
:104A7000813049F488EC9EE00E94500C1092D50ED3
:104A8000F2E0F093370560E573E0CE0143960E94B3
:104A9000CC0ECE0143960E94050BFF24F39497FFA2
:104AA00037C06FE373E0CE010D960E94CC0ECE01AD
:104AB0000D960E94050BFF24F39497FF25C060E339
:104AC00073E0CE0107960E94CC0ECE0107960E949D
:104AD000050BFF24F39497FF13C061E273E0CE014E
:104AE00001960E94CC0ECE0101960E94050B909576
:104AF000F92EFF1CFF24FF1CCE0101960E94AA0C78
:104B0000CE0107960E94AA0CCE010D960E94AA0C17
:104B1000CE0143960E94AA0CFF2051F080913705E8
:104B2000823031F48FE99EE00E94320910923705FD
:104B300060E273E080E09FE00E94260E0E94D905AB
:104B4000C090100CD090110CE090120CF090130C4F
:104B50006C197D098E099F09C0900C0CD0900D0C2A
:104B6000E0900E0CF0900F0CC616D706E806F9067A
:104B700008F0A8956AE070E080E090E00E94A60549
:104B80000E949C070C94121D319661CB48EE53E0B5
:104B900060E070E088EB9EE00E94A909882301F1A3
:104BA0008DED94E00E946107E0913505F0913605A6
:104BB000EE0FFF1FEE0FFF1FE95FFD4F4081518198
:104BC000628173812AE080ED99E00E946C0B8BED8D
:104BD00094E00E94150C8091C10E8F5F8093C10EEE
:104BE0008091C10E853008F49BCC1092C10E86ECEA
:104BF00094E00E94150C8091350590913605019640
:104C00008230910538F490933605809335051092E3
:104C10003A0586CC1092360510923505F8CF8CE611
:104C200092E00E94210B882309F48CCE48EE53E0D9
:104C300060E070E08FEA9EE00E94A909882309F4F1
:104C400081CE6DEB73E0CE0101960E94CC0ECE01B9
:104C500001960E94500CCE0101960E94AA0C20924F
:104C60003905809139058B3009F06CCE6FEA73E01D
:104C7000CE0101960E94CC0ECE0101960E94050B3A
:104C80007C01CE0101960E94AA0CF7FC5BCEECE001
:104C9000E09339058FE99EE00E94320953CE40E34C
:104CA00055E760E070E08FEA9EE00E94A909882342
:104CB00041F03092D50E8EEC9EE00E94500C309266
:104CC00037058091D50E8111C0CE48EB5BE060E0E6
:104CD00070E086EA9EE00E94A909882309F4B5CE17
:104CE00083E793E00E94150C6AE673E0CE0101961B
:104CF0000E94CC0ECE0101960E94500CCE0101966E
:104D00000E94AA0C63E673E0CE0101960E94CC0ECD
:104D1000CE0101960E94500CCE0101960E94AA0C71
:104D200094CE68E173E0CE0101960E94CC0EBE01E4
:104D30006F5F7F4F89E89EE00E943A0BF82ECE010C
:104D400001960E94AA0CF1100C94331D62E173E0ED
:104D5000CE0101960E94CC0EBE016F5F7F4F89E8A5
:104D60009EE00E943A0BF82ECE0101960E94AA0CFA
:104D7000FF2011F40C943C1D0E94230C0C94351D53
:104D80001F93FC0199278827BC01E89411911032E8
:104D9000E9F3193010F01E30C8F31B3251F01D3208
:104DA00049F4689406C00E940227610F711D811D9D
:104DB000911D119110531A30B0F33EF490958095E7
:104DC000709561957F4F8F4F9F4F1F910895FB0105
:104DD000DC0105900D920020E1F70895FC0105909B
:104DE0000020E9F7809590958E0F9F1F0895BB27AF
:104DF0004A3031F4992322F4BDE2909581959F4F7A
:104E00000C941827592F482F372F262F660F771FFE
:104E1000881F991F660F771F881F991F620F731FC6
:104E2000841F951F660F771F881F991F0895BB2742
:104E3000FB015527AA27880F991FAA1FA41710F056
:104E4000A41B83955051B9F7A05DAA3308F0A95D62
:104E5000A193009779F7B111B1931192CB010C9402
:104E60003127DC01FC01672F71917723E1F732973D
:104E700004C07C916D9370836291AE17BF07C8F335
:104E80000895052E97FB1EF400940E94582757FDA5
:104E900007D00E946B2707FC03D04EF40C945827D0
:104EA00050954095309521953F4F4F4F5F4F089556
:104EB00090958095709561957F4F8F4F9F4F089586
:104EC0000E948D27A59F900DB49F900DA49F800DEB
:104ED000911D11240895A1E21A2EAA1BBB1BFD01EE
:104EE0000DC0AA1FBB1FEE1FFF1FA217B307E407C9
:104EF000F50720F0A21BB30BE40BF50B661F771F21
:104F0000881F991F1A9469F7609570958095909500
:104F10009B01AC01BD01CF010895A29FB001B39FD9
:104F2000C001A39F700D811D1124911DB29F700DB2
:104F3000811D1124911D089597FB072E16F40094EE
:104F400007D077FD09D00E94B82707FC05D03EF4B2
:104F5000909581959F4F0895709561957F4F089525
:104F6000EE0FFF1F881F8BBF0790F691E02D19945D
:104F7000AA1BBB1B51E107C0AA1FBB1FA617B7077F
:104F800010F0A61BB70B881F991F5A95A9F780959B
:104F90009095BC01CD0108950F931F93CF93DF939C
:104FA0008230910510F482E090E0E0914612F09199
:104FB000471230E020E0B0E0A0E0309799F42115EE
:104FC000310509F44AC0281B390B24303105D8F5C6
:104FD0008A819B816115710589F1FB01938382832D
:104FE000FE0111C040815181028113814817590788
:104FF000E0F04817590799F4109761F012960C9356
:10500000129713961C933296CF01DF91CF911F9187
:105010000F9108950093461210934712F4CF211573
:10502000310551F04217530738F0A901DB019A010D
:10503000BD01DF01F801C1CFEF01F9CF9093471215
:1050400080934612CDCFFE01E20FF31F819391931F
:105050002250310939832883D7CF209144123091CF
:105060004512232B41F42091030230910402309326
:105070004512209344122091010230910202211521
:10508000310541F42DB73EB740910502509106021B
:10509000241B350BE0914412F0914512E217F307FF
:1050A000A0F42E1B3F0B2817390778F0AC014E5F98
:1050B0005F4F2417350748F04E0F5F1F509345127E
:1050C00040934412819391939FCFF0E0E0E09CCF16
:1050D000CF93DF930097E9F0FC013297138212829D
:1050E000A0914612B0914712ED0130E020E01097F8
:1050F000A1F420813181820F931F209144123091BD
:1051000045122817390709F061C0F0934512E09362
:105110004412DF91CF910895EA01CE17DF07E8F539
:105120004A815B819E0141155105B1F7E901FB837D
:10513000EA8349915991C40FD51FEC17FD0761F41B
:10514000808191810296840F951FE901998388835C
:10515000828193819B838A83F0E0E0E012968D91B7
:105160009C9113970097B9F52D913C911197CD0122
:105170000296820F931F20914412309145122817F6
:10518000390739F6309751F51092471210924612AE
:10519000B0934512A0934412BCCFD383C283408105
:1051A0005181840F951FC817D90761F44E5F5F4F77
:1051B00088819981480F591F518340838A819B813F
:1051C000938382832115310509F0B0CFF093471204
:1051D000E09346129ECFFD01DC01C0CF1382128204
:1051E000D7CF4F925F926F927F928F929F92AF92A2
:1051F000BF92CF92DF92EF92FF920F931F93CF93C4
:10520000DF938C01009799F4CB01DF91CF911F912F
:105210000F91FF90EF90DF90CF90BF90AF909F9055
:105220008F907F906F905F904F900C94CC27FC01F3
:10523000E60FF71F9C0122503109E217F30708F42B
:10524000AEC0D901CD91DC911197C617D70720F1D7
:10525000C530D10578F0CE0104978617970750F036
:10526000C61BD70B2297C193D1936D937C93CF012B
:105270000E946828C801DF91CF911F910F91FF9084
:10528000EF90DF90CF90BF90AF909F908F907F90E6
:105290006F905F904F9008955B01AC1ABD0A4C016E
:1052A0008C0E9D1EA0914612B0914712512C412C9C
:1052B000F12CE12C109731F5809144129091451218
:1052C0008815990509F05CC04616570608F058C0C5
:1052D0008091010290910202009741F48DB79EB730
:1052E0004091050250910602841B950BE817F907BF
:1052F00008F055C0F0934512E0934412F901718310
:105300006083B8CF8D919C91119712966C901297F3
:1053100013967C901397A815B90559F56C0142E0D6
:10532000C40ED11CCA14DB0420F1AC014A195B097C
:10533000DA011296159780F062827382518340835E
:10534000D9016D937C93E114F10471F0D7011396A8
:10535000FC93EE9312978ECF22968C0F9D1FF9012E
:1053600091838083F301EFCFF0934712E0934612CD
:1053700081CF4816590608F42C017D01D3019ACF3C
:10538000CB010E94CC277C01009749F0AE01B80107
:105390000E94D729C8010E94682887016BCF10E0BE
:1053A00000E068CF81E090E0F8940C94B02CFB0111
:1053B000DC0102C001900D9241505040D8F7089591
:1053C000FB01DC018D91019080190110D9F3990B3B
:1053D0000895FB01DC0101900D920020E1F7089592
:1053E000FB0151915523A9F0BF01DC014D914517F7
:1053F0004111E1F759F4CD010190002049F04D91A0
:1054000040154111C9F3FB014111EFCF81E090E05C
:10541000019708952F923F924F925F926F927F92E1
:105420008F929F92AF92BF92CF92DF92EF92FF92B4
:105430000F931F93CF93DF9300D000D000D01F9223
:105440001F92CDB7DEB77C013B018A01FC011782B8
:105450001682838181FFDDC1CE0101965C01F701D7
:105460009381F30193FD859193FF81913F018823FF
:1054700009F453C1853239F493FD859193FF8191ED
:105480003F01853229F4B70190E00E94222CE7CF3A
:10549000912C212C312CFFE1F31538F08B3211F1D6
:1054A00090F4803209F1833229F137FC3CC020EDC1
:1054B000280F2A3050F536FE20C08AE0989E200D35
:1054C0001124922E06C08D3291F0803371F76894CA
:1054D00030F8F30193FD859193FF81913F01811194
:1054E000DACF21C0689431F8689432F8F2CF68942A
:1054F00033F8EFCF689434F8ECCFEAE02E9E200D1D
:105500001124222E689435F8E4CF8E3229F436FC2B
:1055100004C1689436F8DDCF8C3619F4689437F8F6
:10552000D8CF8836B1F2982F9F7D95549330E0F014
:105530008336A1F18337C1F1833509F063C02801B7
:10554000F2E04F0E511CF801C080D180692D70E04F
:1055500036FC02C06FEF7FEFC6010E940C2C4C019D
:10556000689437F882010AC00C5F1F4FFFE3F9838C
:1055700088248394912C6501E89437F833FE2DC07C
:10558000522C8114910471F5552009F468CFB701AC
:1055900080E290E00E94222C5A94F6CFF80180819C
:1055A00089830E5F1F4FE4CF2801F2E04F0E511C9C
:1055B000F801C080D180692D70E036FC02C06FEF29
:1055C0007FEFC6010E94172C4C018201D5CFB70195
:1055D00080E290E00E94222C2A942814190409F0F9
:1055E000B0F7CECFF60137FC859137FE81916F0180
:1055F000B70190E00E94222C51105A94F1E08F1ACA
:105600009108BFCF843619F0893609F077C0F801C8
:1056100037FE6BC060817181828193810C5F1F4F67
:10562000F32DFF763F2E97FF09C0909580957095DA
:1056300061957F4F8F4F9F4F689437F82AE030E095
:10564000A5010E94522CC82ECA188C2C432C36FE61
:105650000CC0E89440F8C91440F434FE05C032FC94
:1056600003C0F32DFE7E4F2E892C44FEAAC0FE01FE
:10567000EC0DF11D8081803309F09CC0242D297E22
:10568000422E842D8870582E43FCAAC040FEA4C030
:105690009C2C821418F42C0C922C981844FEA6C052
:1056A000B70180E390E00E94222C42FE09C088E707
:1056B00090E041FE02C088E590E0B7010E94222CF4
:1056C000C91408F49FC0CA94D12C9FEFC91AD90AF3
:1056D000CA0CDB1CF60182916F01B70190E00E94B9
:1056E000222CAC14BD04B1F74FCF60817181072E1D
:1056F000000C880B990B0E5F1F4F92CFD32CE894B0
:10570000D4F82AE030E08537E1F1232D297FD22E2D
:105710008F36A9F1F0F4883551F1F7018681978130
:105720002B960FB6F894DEBF0FBECDBFDF91CF91A1
:105730001F910F91FF90EF90DF90CF90BF90AF90AF
:105740009F908F907F906F905F904F903F902F90A1
:105750000895803749F0883701F7D4FE02C0689475
:10576000D2F820E130E00DC06894D4F8F6CF34FED2
:1057700003C0822F8660D82E20E132E002C028E0EC
:1057800030E0F801D7FE0FC0608171818281938182
:105790000C5F1F4FA5010E94522CC82ECA183D2C29
:1057A000E89437F852CF6081718190E080E00E5F1D
:1057B0001F4FF0CF42FC02C0839463CF8394839445
:1057C00060CF842D867809F45CCFF6CFB70180E2F4
:1057D00090E00E94222C83948214C0F3512C5ECF5F
:1057E000522C5818821408F459CFF8CF842D86789B
:1057F00009F466CF8BE241FE80E247FC8DE2B701FF
:1058000090E05CCFB70180E390E00E94222C9A9454
:1058100057CF8FEF9FEF84CFFC0105906150704010
:105820000110D8F7809590958E0F9F1F0895FC0169
:105830006150704001900110D8F7809590958E0FBF
:105840009F1F08950F931F93CF93DF93182F092F56
:10585000EB018B8181FD09C01FEF0FEF812F902F8E
:10586000DF91CF911F910F91089582FF14C02E8177
:105870003F818C819D81281739073CF4E881F981AB
:10588000CF0101969983888310838E819F81019631
:105890009F838E83E3CFE885F985812F1995892B26
:1058A000A1F3DACFFA01AA27283051F1203181F192
:1058B000E8946F936E7F6E5F7F4F8F4F9F4FAF4F18
:1058C000B1E03ED0B4E03CD0670F781F891F9A1F2B
:1058D000A11D680F791F8A1F911DA11D6A0F711DDF
:1058E000811D911DA11D20D009F468943F912AE0EB
:1058F000269F11243019305D3193DEF6CF010895D3
:10590000462F4770405D4193B3E00FD0C9F7F6CF03
:10591000462F4F70405D4A3318F0495D31FD4052CB
:10592000419302D0A9F7EACFB4E0A6959795879561
:1059300077956795BA95C9F7009761057105089540
:105940009B01AC010A2E06945795479537952795EC
:10595000BA95C9F7620F731F841F951FA01D089584
:1059600013E0C2E8D3E000E006C0802FFE010E94F1
:10597000B0272196011DC338D10780E00807A9F799
:04598000F894FFCFC9
:10598400010000481280008025000000C2010000D0
:105994000000001D07F7053C067C076D064C065FFA
:1059A40006000000006A0B00000000000000002B4D
:1059B40010B20CDC0C00000000E60CFE0C00000031
:1059C40000080D0F0D00000000C50B00000000FDD5
:1059D40007F7051109110832081C082708FA08D12D
:1059E40008E60885083D08FB070D0A005175656344
:1059F40074656C5F4243323630592D434E00454343
:105A04003830304B00726561645F62697473007290
:105A14006561645F696E7075745F62697473007246
:105A24006561645F696E7075745F726567697374CC
:105A340065727300726561645F726567697374652A
:105A4400727300496C6C6567616C206E62206F66CE
:105A54002076616C75657320256420696E2025733A
:105A640020286D6178202564290A00496C6C6567DB
:105A7400616C206461746120616464726573732075
:105A8400307825305820696E2025730A00496C6CE3
:105A94006567616C2064617461206164647265731C
:105AA4007320307825305820696E207772697465C8
:105AB4005F6269740A00496C6C6567616C2064619B
:105AC40074612076616C75652030782530582069C2
:105AD4006E2077726974655F62697420726571758E
