:020000040000FA
:100000000C94A9030C94DA030C94DA030C94DA032D
:100010000C94DA030C94DA030C94DA030C94DA03EC
:100020000C94DA030C94DA030C94DA030C94DA03DC
:100030000C94DA030C94DA030C94DA030C94DA03CC
:100040000C94DA030C94DA030C94DA030C94DA03BC
:100050000C94DA030C94DA030C94DA030C94510A2E
:100060000C94DA030C94C10B0C94970B0C94DA03E8
:100070000C94DA030C94DA030C94DA030C94DA038C
:100080000C94DA030C94DA030C94DA030C94DA037C
:100090000C946D0B0C94430B0C94DA030C94DA0360
:1000A0000C94DA030C94DA030C94DA030C94DA035C
:1000B0000C94DA030C94DA030C94DA030C94DA034C
:1000C0000C94DA030C94DA030C94DA030C94190BF5
:1000D0000C94EF0A0C94DA030C94C50A0C949B0A56
:1000E0000C94DA030C9446040C9461040C94691685
:1000F0000C948C160C944A040C943B160C94AA167F
:100100000C9496160C9433040C942F040C94131630
:100110000C9421040C9458040C9462040C94400434
:100120000C9418160C9427160C9427040C9459065A
:100130000C944B160C9443160C94B11B0C94A01603
:100140000C9431160C945C040C94AE050C94CF0501
:100150000C942A070C942B040C9455160C946604EA
:100160000C945F160C9454040C94EB0B0C94BC068A
:100170000C9436040C9482160C9485060C94781614
:100180000C944E040C94B9050C941D160C943C046C
:100190000C946B060D0A3D3D3D204E42494F5420C4
:1001A0005354415254203D3D3D005B537472696E7F
:1001B00067205370616365204E4F54204F4B5D00A4
:1001C0005B537472205370616365204F4B5D002B4D
:1001D000514D54524543563A002B514D54535542BC
:1001E0003A002B514D545055423A00300030002C0B
:1001F000003A20002B4353513A002B4345524547C8
:100200003A002B43474154543A002F6F75742C30F9
:100210000041542B514D545355423D302C312C72DA
:1002200067742F002C747377682C31576F3D5B36E1
:100230007641306D0041542B514D54434F4E4E3D4D
:10024000302C6465765F002B4347534E3A000D0A0D
:1002500046494E49534820524547554C415220503B
:1002600055424C495348002B514D545055423A2069
:10027000302C302C30003E000D0A46494E49534880
:100280002047455454494E47204345524547002B8B
:1002900043455245473A000D0A46494E49534820C6
:1002A00047455454494E47204347415454002B433B
:1002B000474154543A000D0A46494E495348204795
:1002C000455454494E4720435351002B4353513A10
:1002D000000D0A53554220544F504943204F4B00C4
:1002E0002B514D545355423A000D0A434F4E4E4543
:1002F00043544544204D515454002B514D54434FC9
:100300004E4E3A20302C302C30000D0A4F50454EC6
:100310004544204D515454002B514D544F50454E9F
:100320003A20302C30000D0A46494E4953482047A8
:10033000455454494E47204345524547002B4345B9
:100340005245473A000D0A46494E49534820474511
:100350005454494E47204347415454002B4347418E
:1003600054543A000D0A46494E49534820474554D3
:1003700054494E4720435351002B4353513A000DEB
:100380000A46494E495348205345545550000D0ADA
:1003900046494E4953482057414954494E47204900
:1003A00050002B49503A005B534F46545F5245531F
:1003B00045545D000D0A4558454355544520524566
:1003C00047554C4152205055424C495348004154E6
:1003D0002B43455245473F000D0A5B436F6E6E65E8
:1003E000637465645D205155455259494E47204319
:1003F000455245470041542B43474154543F000D5B
:100400000A5B436F6E6E65637465645D205155458C
:100410005259494E472043474154540041542B43BD
:100420005351000D0A5B436F6E6E65637465645DC6
:10043000205155455259494E4720435351000D0A0A
:1004400046494E49534820494E4954204E42494F4F
:1004500054000D0A53554253435242494E472054CB
:100460004F5049432E2E2E000D0A434F4E4E45430A
:1004700054494E47204D5154542E2E2E0041542B9A
:10048000514D544F50454E3D302C696F742E72655E
:10049000632D67742E636F6D2C31383830000D0A70
:1004A0004F50454E494E47204D5154542E2E2E004C
:1004B00041542B43455245473F000D0A474554548C
:1004C000494E472043455245470041542B4347413D
:1004D00054543F000D0A47455454494E4720434762
:1004E0004154540041542B435351000D0A47455485
:1004F00054494E47204353510041542B514D5444CD
:100500004953433D300041542B514D54434C4F53BC
:10051000453D300041542B4345445258533D302C07
:10052000350041542B4353434F4E3D300041542B33
:100530004350534D533D300041542B5153434C4B8A
:100540003D300041542B4346554E3D31000D0A537A
:10055000455454494E47205550204E42494F54006F
:100560000D0A57616974696E672049500041542B28
:100570005153434C4B3D300041542B4347534E3D68
:10058000310041542B5149444E534346473D302C92
:10059000382E382E382E382C3232332E352E352E3A
:1005A00035002C002F696E2C0041542B514D5450B6
:1005B00055423D302C302C302C302C7267742F007B
:1005C0007D0022616F7574223A002C002261696EF1
:1005D000223A002C0022646F7574223A002C00220B
:1005E00064696E223A002C007B22637371223A0008
:1005F0005D002C005B005D002C005B000000200013
:100600002300260029002C002F00320000010000EA
:100610000301060109015B48656C6C6F2066726F0F
:100620006D205247542048656C6C6F2066726F6D68
:10063000205247542048656C6C6F2066726F6D20A5
:100640005247545D0041540000002100240027005F
:100650002A002D00300033000101000004010701D1
:100660000A0100002200250028002B002E00310086
:10067000340002010000050108010B010505050514
:10068000070508080808020202020A0A080804040A
:100690000404010101010101010103030303030338
:1006A0000303040707070C0C0C0C0C0C0C0C0202C7
:1006B000020206060606060606060B0B0B0B0B0BC4
:1006C0000B0B010210202008081020401020408051
:1006D0000201020108040201010204081020408006
:1006E0008040201008040201800402018040201094
:1006F00008040201080402010102040810204080DD
:10070000010204081020408000000A0B02090C0DB1
:100710000E080703040100000000000000000000B4
:1007200000000000000000000000000000000000C9
:100730000000000012111000000000000000000086
:100740000000000000000000000000000000EB0BB3
:10075000B11B11241FBECFEFD1E2DEBFCDBF00E041
:100760000CBF12E0A0E0B2E0EAE3FEE300E00BBF62
:1007700002C007900D92A233B107D9F726E1A2E398
:10078000B2E001C01D92A739B207E1F713E0C8EA51
:10079000D3E000E006C021970109802FFE010E94EE
:1007A000CA1CC73AD10780E00807A9F70E94610E6A
:1007B0000C940B1F0C940000FC01A089B18982E00D
:1007C0008C93A485B5851C92A685B7858FEC8C93F8
:1007D000108EA489B58986E08C93A289B3898C9107
:1007E00080618C93A289B3898C9188608C93A28953
:1007F000B3898C9180688C930288F389E02D808185
:100800008F7D808308958150823108F05AC0E82F8F
:10081000F0E08827E15FFB4F8F4F0C94CA1C2F0438
:100820003304210427042B04610436043C044004EF
:1008300046044A044E045404580461045C046204EF
:100840006604809180008F77809380000895809166
:1008500080008F7DF9CF80918000877FF5CF84B5B0
:100860008F7784BD089584B58F7DFBCF8091B000D4
:100870008F778093B00008958091B0008F7DF9CF7D
:10088000809190008F7780939000089580919000E0
:100890008F7DF9CF80919000877FF5CF8091A00068
:1008A0008F778093A00008958091A0008F7DF9CF6D
:1008B0008091A000877FF5CF809120018F77809372
:1008C00020010895809120018F7DF9CF8091200132
:1008D000877FF5CF1F93CF93DF93282F30E0F90167
:1008E000E85FF84F8491F901EE53F94FD491F90183
:1008F000E458F94FC491CC23A9F0162F81110E941E
:100900000304EC2FF0E0EE0FFF1FEE59F94FA59115
:10091000B4918FB7F894EC91111108C0D095DE23F3
:10092000DC938FBFDF91CF911F910895DE2BF8CF1D
:10093000CF93DF9390E0FC01EE53F94F249184585C
:10094000994FFC0184918823C9F090E0880F991F8A
:10095000FC01E85BF94FA591B491FC01EE59F94F08
:10096000C591D49161110DC09FB7F8948C912095D9
:1009700082238C938881282328839FBFDF91CF9186
:100980000895623051F49FB7F8943C91822F80957E
:1009900083238C93E8812E2BEFCF8FB7F894EC91C3
:1009A0002E2B2C938FBFEACF863308F086532091ED
:1009B0007B00982F9870277F922B90937B0020913B
:1009C000000290E4299F900111248770822B80936C
:1009D0007C0080917A00806480937A0080917A0014
:1009E00086FDFCCF809178009091790008953FB703
:1009F000F8948091760290917702A0917802B0915C
:100A0000790226B5A89B05C02F3F19F00196A11DBC
:100A1000B11D3FBFBA2FA92F982F8827BC01CD0148
:100A2000620F711D811D911D42E0660F771F881FA7
:100A3000991F4A95D1F708958F929F92AF92BF92D6
:100A4000CF92DF92EF92FF926B017C010E94F7043C
:100A50004B015C01C114D104E104F104B9F00E941E
:100A6000F704681979098A099B09683E7340810572
:100A7000910580F321E0C21AD108E108F10888EE5F
:100A8000880E83E0981EA11CB11CE4CFFF90EF906C
:100A9000DF90CF90BF90AF909F908F9008952FB729
:100AA000F894609172027091730280917402909137
:100AB00075022FBF08958F929F92AF92BF92CF92EF
:100AC000DF92EF92FF926B017C010E944F058090B4
:100AD000261390902713A0902813B09029139B0100
:100AE000AC01281939094A095B0949015A01809169
:100AF0002A1381110DC00E944F0560932613709335
:100B00002713809328139093291381E080932A134D
:100B1000C814D904EA04FB0410F410922A130E94AA
:100B20004F058090261390902713A0902813B09023
:100B30002913681979098A099B0921E0C616D70685
:100B4000E806F90608F020E0822FFF90EF90DF9092
:100B5000CF90BF90AF909F908F900895FC01218D12
:100B6000328D838D948DA901481B590BCA01917058
:100B7000089581E0809332020895FC01248135813B
:100B80006217730748F480819181009729F0860FDE
:100B9000971FFC018081089580E008950895AF9229
:100BA000BF92CF92DF92EF92FF920F931F93CF935A
:100BB000DF936C017B018B01040F151FEB015E01BC
:100BC000AE18BF08C017D10759F06991D601ED9151
:100BD000FC910190F081E02DC6011995892B79F7E0
:100BE000C501DF91CF911F910F91FF90EF90DF90A2
:100BF000CF90BF90AF9008952091D50A3091D60A3A
:100C00008091D70A9091D80A281B390B317081E066
:100C1000232B09F480E008952091930230919402EF
:100C20008091950290919602281B390B317081E0DA
:100C3000232B09F480E008952091F60E3091F70EF1
:100C40008091F80E9091F90E281B390B317081E0DC
:100C5000232B09F480E008952091B4063091B50665
:100C60008091B6069091B706281B390B317081E050
:100C7000232B09F480E00895FC01A089B1898C91AF
:100C8000A689B78982FD13C02C91818D928D019622
:100C90009170438D548D8417950751F0A18DB28DBD
:100CA000AE0FBF1F91962C93928F818F08958C91D8
:100CB00008954FB7F894FC01258D368D878D90A14E
:100CC0004FBF2817390728F081509E4F821B930B86
:100CD00008950197FBCFFC01218D328D838D948D7A
:100CE0002817390779F0A38DB48DAE0FBF1F9196E9
:100CF0008C91238D348D2F5F3F4F3170348F238F34
:100D000090E008958FEF9FEF0895FC01218D328DC3
:100D1000838D948D2817390739F0838D948DE80FD2
:100D2000F91F81A190E008958FEF9FEF0895FC01D6
:100D3000A78DB0A1A80FB91FAF5DBD4F2C91878DB6
:100D400090A10196917090A3878FA689B7892C9363
:100D5000A089B1898C91837080648C93258D368DA8
:100D6000878D90A12817390731F40288F389E02D87
:100D700080818F7D80830895FF920F931F93CF937F
:100D8000DF93EC0181E0888F2D8D3E8D8F8D98A1B2
:100D900028173907C9F4E889F989808185FF14C0CB
:100DA0009FB7F894EE89FF896083E889F98980818B
:100DB0008370806480839FBF81E090E0DF91CF915A
:100DC0001F910F91FF900895F62E0D8D1E8D0F5FD0
:100DD0001F4F11708F8D98A18017910761F40FB686
:100DE00007FCF8CFE889F989808185FFF3CFCE0130
:100DF0000E949706EFCFED8DFE8DEC0FFD1FEF5D8E
:100E0000FD4FF0829FB7F8941E8F0D8FEA89FB8902
:100E100080818062CFCFEF92FF920F931F93CF9389
:100E2000DF938C017B01D0E0C0E0F701EC0FFD1FE8
:100E30006491662339F0C8010E94BC06892B11F029
:100E40002196F3CFCE01DF91CF911F910F91FF90AB
:100E5000EF900895CF93DF93EC01888D8823B9F04C
:100E6000AA89BB89E889F9898C9185FD03C08081B5
:100E700086FD0DC00FB607FCF7CF8C9185FFF2CF32
:100E8000808185FFEDCFCE010E949706E9CFDF91EB
:100E9000CF91089580E090E0892B29F00E942C06E4
:100EA00081110E94000080E090E0892B29F00E94CF
:100EB0001C0681110E94000080E090E0892B29F03F
:100EC0000E940C0681110E94000080E090E0892BB6
:100ED00029F00E94FC0581110C9400000895CF9325
:100EE000DF93EC010E944F05688379838A839B839B
:100EF000DF91CF910895982F80ED890F8A3070F09F
:100F00008FEB890F863018F489EC890F08958FE9EB
:100F1000890F863010F489EAF8CF80E00895EF92C7
:100F2000FF920F931F93CF93DF938C01FC01E4801A
:100F3000F580D0E0C0E0EC16FD0661F0BE01C8010E
:100F40000E94BD05082E000C990BC0970A9750F41B
:100F50002196F1CF81E0DF91CF911F910F91FF900A
:100F6000EF90089580E0F7CFCF93DF93FC012181CC
:100F7000222331F0EC0160E080810E946A04198232
:100F8000DF91CF910895CF93DF93FC01218121114F
:100F900007C0EC0161E080810E946A0481E08983DE
:100FA000DF91CF910895CF93DF93EC01862F688373
:100FB000198261E00E949804CE01DF91CF910C94D8
:100FC000B407CF93DF93FC0124813581232B81F07B
:100FD000C081D1816091901370919113CE010E94D4
:100FE000F11E009729F08C1B9D0BDF91CF91089586
:100FF0008FEF9FEFFACFFB0101900020E9F73197C7
:10100000AF01461B570B0C94CF050F931F93CF9343
:10101000DF93EC01FB0144815581608171810E9465
:10102000CF058C0169E172E0CE010E94FB07800FC1
:10103000911FDF91CF911F910F910895BC018DED0C
:101040009EE00E9405088DED9EE00E942A0762E066
:1010500070E080E090E00C941C050F931F93CF93F9
:10106000DF93EC010E940B078C0169E172E0CE0175
:101070000E94FB07800F911FDF91CF911F910F916D
:101080000895FC0124813581232B39F421E0FB01F3
:101090008081882349F020E007C0808191810E94EF
:1010A000E11E21E0892BB9F7822F08950F931F933A
:1010B000CF93DF938C01EB01FC018081918100973C
:1010C000E1F06881798161157105A9F04281538150
:1010D0002C813D814217530770F00E94EA1E8C81DB
:1010E0009D81F801958384831D821C82DF91CF91BD
:1010F0001F910F9108950E946E1D88819981F801BA
:10110000918380838A819B81938382838C819D815B
:1011100095838483198218821B821A82E5CFCF932C
:10112000DF93EC0188819981009711F00E946E1D78
:10113000198218821D821C821B821A82DF91CF9134
:101140000895FC0180819181009711F00C946E1D2F
:1011500008950F931F93CF93DF93EC0188819981BA
:10116000009759F02A813B812617370730F081E03C
:10117000DF91CF911F910F9108958B016F5F7F4F8A
:101180000E94F71D009759F0998388831B830A8377
:101190002C813D81232B59F7FC011082E8CF80E0A0
:1011A000E7CFEF92FF920F931F93CF93DF936115D9
:1011B000710541F480E0DF91CF911F910F91FF9075
:1011C000EF9008957B01EC01CB010E94271C009752
:1011D000A9F00C811D81080F191FB801CE010E94D2
:1011E000A908882339F3288139818C819D81B70131
:1011F000820F931F0E94201C1D830C8381E0DBCF94
:10120000EF92FF920F931F93CF93DF9361157105B8
:1012100041F480E0DF91CF911F910F91FF90EF900B
:10122000089541155105B1F07B01EC010C811D8140
:10123000040F151FB8010E94A908882351F32881C3
:1012400039818C819D81B701820F931F0E94EA1E14
:101250001D830C8381E0DECF0F931F93CF93DF9329
:1012600000D01F92CDB7DEB74AE08E010F5F1F4F4F
:10127000B80190E00E94301CF80101900020E9F7CD
:101280003197AF01401B510BB80180E693E10E94FA
:1012900000090F900F900F900F90DF91CF911F9149
:1012A0000F910895EF92FF920F931F93CF93DF93C7
:1012B00000D000D01F92CDB7DEB77C01CB014AE051
:1012C0008E010F5F1F4FB8010E94501CF801019062
:1012D0000020E9F73197AF01401B510BB801C7015E
:1012E0000E94000927960FB6F894DEBF0FBECDBF4F
:1012F000DF91CF911F910F91FF90EF900895FB0127
:1013000044815581608171810C940009EF92FF92B4
:101310000F931F93CF93DF93EC018B016115710540
:1013200051F0CB010E94271C7C01BC01CE010E9420
:10133000A90881110BC0CE010E948F08CE01DF9158
:10134000CF911F910F91FF90EF900895FD82EC8255
:10135000B801888199810E94201CF0CFFC01118284
:10136000108213821282158214820C948609EF92E5
:10137000FF920F931F93CF93DF93EC017B018A01C0
:10138000BA010E94A90881110BC0CE010E948F08EA
:10139000CE01DF91CF911F910F91FF90EF900895B3
:1013A0001D830C83B701888199810E94EA1EF0CFCA
:1013B000FC0111821082138212821582148250E085
:1013C00040E06BE172E00C94B709FB010190002052
:1013D000E9F73197AF01461B570B0C94B709CF9231
:1013E000DF92EF92FF920F931F93CF93DF936C01E5
:1013F0007B018A014617570720F48F2D7A01062FAB
:10140000182FC6010E94D809C0918E13D0918F1356
:10141000EC16FD06F8F40C171D0708F4E801E0913E
:101420008A13F0918B13EC0FFD1F108110826091D5
:101430008A1370918B136E0D7F1DC60161157105A6
:1014400099F00E94E50980918A1390918B13C80F3F
:10145000D91F1883C601DF91CF911F910F91FF9083
:10146000EF90DF90CF9008950E948F08ECCF8DED24
:101470009EE00E946B06181619063CF461E070E0CD
:1014800080E090E00E941C05F2CF6BE172E08AE8F8
:1014900093E10E94E5096AE070E080E090E00C943E
:1014A0001C051F920F920FB60F9211242F933F939A
:1014B0008F939F93AF93BF93809172029091730229
:1014C000A0917402B09175023091710223E0230F54
:1014D0002D3758F50196A11DB11D209371028093FF
:1014E000720290937302A0937402B093750280917C
:1014F000760290917702A0917802B09179020196DC
:10150000A11DB11D8093760290937702A09378027B
:10151000B0937902BF91AF919F918F913F912F919D
:101520000F900FBE0F901F90189526E8230F02967C
:10153000A11DB11DD2CF1F920F920FB60F92112491
:101540000BB60F922F933F934F935F936F937F93BD
:101550008F939F93AF93BF93EF93FF938CEB9AE09E
:101560000E949706FF91EF91BF91AF919F918F914C
:101570007F916F915F914F913F912F910F900BBE93
:101580000F900FBE0F901F9018951F920F920FB6DD
:101590000F9211240BB60F922F933F934F935F93AB
:1015A0006F937F938F939F93AF93BF93EF93FF932B
:1015B0008CEB9AE00E943C06FF91EF91BF91AF91B6
:1015C0009F918F917F916F915F914F913F912F915B
:1015D0000F900BBE0F900FBE0F901F9018951F928B
:1015E0000F920FB60F9211240BB60F922F933F93C9
:1015F0004F935F936F937F938F939F93AF93BF931B
:10160000EF93FF938AE792E00E949706FF91EF9194
:10161000BF91AF919F918F917F916F915F914F910A
:101620003F912F910F900BBE0F900FBE0F901F9008
:1016300018951F920F920FB60F9211240BB60F92AE
:101640002F933F934F935F936F937F938F939F93CA
:10165000AF93BF93EF93FF938AE792E00E943C061B
:10166000FF91EF91BF91AF919F918F917F916F917A
:101670005F914F913F912F910F900BBE0F900FBE36
:101680000F901F9018951F920F920FB60F92112472
:101690000BB60F922F933F934F935F936F937F936C
:1016A0008F939F93AF93BF93EF93FF938DED9EE046
:1016B0000E949706FF91EF91BF91AF919F918F91FB
:1016C0007F916F915F914F913F912F910F900BBE42
:1016D0000F900FBE0F901F9018951F920F920FB68C
:1016E0000F9211240BB60F922F933F934F935F935A
:1016F0006F937F938F939F93AF93BF93EF93FF93DA
:101700008DED9EE00E943C06FF91EF91BF91AF915D
:101710009F918F917F916F915F914F913F912F9109
:101720000F900BBE0F900FBE0F901F9018951F9239
:101730000F920FB60F9211240BB60F922F933F9377
:101740004F935F936F937F938F939F93AF93BF93C9
:10175000EF93FF938BE996E00E949706FF91EF913C
:10176000BF91AF919F918F917F916F915F914F91B9
:101770003F912F910F900BBE0F900FBE0F901F90B7
:1017800018951F920F920FB60F9211240BB60F925D
:101790002F933F934F935F936F937F938F939F9379
:1017A000AF93BF93EF93FF938BE996E00E943C06C3
:1017B000FF91EF91BF91AF919F918F917F916F9129
:1017C0005F914F913F912F910F900BBE0F900FBEE5
:1017D0000F901F901895EF92FF920F931F93CF9346
:1017E000DF93ECEBFAE01382128248EE53E060E004
:1017F00070E044835583668377838BE092E0918326
:10180000808325E331E03587248724E331E037877F
:10181000268720E331E0318B208B21E331E0338BCD
:10182000228B22E331E0358B248B26E331E0378BAA
:10183000268B128E118E148E138E168E158E10A27C
:10184000178EEAE7F2E0138212824483558366839F
:1018500077839183808325ED30E03587248724EDDD
:1018600030E03787268720ED30E0318B208B21ED6B
:1018700030E0338B228B22ED30E0358B248B26ED4C
:1018800030E0378B268B128E118E148E138E168EAF
:10189000158E10A2178EEDEDFEE0138212824483A6
:1018A000558366837783918380832DEC30E0358781
:1018B00024872CEC30E03787268728EC30E0318B0A
:1018C000208B29EC30E0338B228B2AEC30E0358BF7
:1018D000248B2EEC30E0378B268B128E118E148EDB
:1018E000138E168E158E10A2178EEBE9F6E013827A
:1018F000128244835583668377839183808385EC4A
:1019000090E09587848784EC90E09787868780ECC9
:1019100090E0918B808B81EC90E0938B828B82ECBA
:1019200090E0958B848B86EC90E0978B868B128E63
:10193000118E148E138E168E158E10A2178EC3E67E
:10194000D6E180E28883198260E00E94980481E2F7
:101950008E831F8260E00E94980482E28C871D863D
:1019600060E00E94980483E28A8B1B8A60E00E94F8
:10197000980484E2888F198E60E00E94980485E2C2
:101980008E8F1F8E60E00E94980486E28CA31DA2B9
:1019900060E00E94980487E28AA71BA660E00E948C
:1019A000980468E283E596E10E94D30769E285E541
:1019B00096E10E94D3076AE287E596E10E94D30789
:1019C0006BE289E596E10E94D3076CE28BE596E134
:1019D0000E94D3076DE28DE596E10E94D3076EE287
:1019E0008FE596E10E94D3076FE281E696E10E94BF
:1019F000D30707E416E184E0F801808361E00E94E8
:101A0000980485E0F801838361E00E94980486E0F1
:101A1000F801868361E00E94980487E0F8018187DD
:101A200061E00E94980487EAE82E83E1F82E86E3BD
:101A3000F701808311E0118360E00E94980487E33E
:101A4000F70180AF11AF60E00E94980488E38093B3
:101A500017141093181460E00E94980489E380938F
:101A60004F141093501460E00E9498048AE380930E
:101A700087141093881460E00E9498048BE380938D
:101A8000BF141093C01460E00E9498048CE380930C
:101A9000F7141093F81460E00E9498048DE380938B
:101AA0002F151093301560E00E9498048EE3809308
:101AB00067151093681560E00E9498048FE3809387
:101AC0009F151093A01560E00E94980480E4809315
:101AD000D7151093D81560E00E94980481E4809394
:101AE0000F161093101660E00E94980402EA13E1AA
:101AF0008BE1F801808362E00E9498048CE1F80198
:101B0000818362E00E9498048DE1F801828362E0A3
:101B10000E9498048EE1F801838362E00E94980499
:101B20008FE1F801848362E00E9498048CE993E1DC
:101B30000E94D80986E993E10E94D80980E993E1DF
:101B40000E94D8098AE893E10E94D80984E893E1C9
:101B50000E94D8098EE793E10E94D80988E793E1B3
:101B60000E94D80982E793E10E94D8098CE693E1AC
:101B70000E94D80986E693E10E94D80980E693E1A5
:101B80000E94D8098AE593E10E94D80984E593E18F
:101B90000E94D8098EE493E10E94D80988E493E179
:101BA0000E94D80982E493E10E94D8098CE393E172
:101BB0000E94D80986E393E10E94D809EBE2F3E1A1
:101BC0001482158216821782108680E395E7A0E0C2
:101BD000B0E080839183A283B38312861186E2E210
:101BE000F3E180E197E2A0E0B0E080839183A283FB
:101BF000B383148215821682178210860AE113E1DC
:101C0000F801108288E18183128281E090E0948360
:101C100083831682158217828DED9EE00E94DC037D
:101C200061E0F80181810E94980461E0F8018181FE
:101C30000E946A0461E086E10E94980460E086E107
:101C40000E946A048CEB9AE00E94DC03EEEFF2E162
:101C500084EF91E09383828380E293E09583848391
:101C600083E596E19783868385E596E19187808772
:101C700087E596E19387828789E596E19587848752
:101C80008BE596E1978786878DE596E1918B808B32
:101C90008FE596E1938B828BD58BC48B89E696E199
:101CA000978B868B108E118E128E138E82E090E0B1
:101CB00091838083DF91CF911F910F91FF90EF90DF
:101CC0000895CF93DF93CDB7DEB7A1970FB6F89401
:101CD000DEBF0FBECDBF789484B5826084BD84B56D
:101CE000816084BD85B5826085BD85B5816085BD17
:101CF00080916E00816080936E00109281008091CF
:101D00008100826080938100809181008160809356
:101D10008100809180008160809380008091B1007B
:101D200084608093B1008091B00081608093B000A6
:101D300080919100826080939100809191008160F8
:101D400080939100809190008160809390008091B9
:101D5000A10082608093A1008091A10081608093A6
:101D6000A1008091A00081608093A000809121015A
:101D70008260809321018091210181608093210103
:101D80008091200181608093200180917A0084609D
:101D900080937A0080917A00826080937A008091AB
:101DA0007A00816080937A0080917A0080688093C5
:101DB0007A001092C1008BE996E00E94DC03109239
:101DC000000268E070E088E793E10E94A90868E0FB
:101DD00070E08CE693E10E94A90868E070E086E676
:101DE00093E10E94A90868E070E088E493E10E9412
:101DF000A90868E070E082E493E10E94A90868E025
:101E000070E08EE493E10E94A90860E270E082E74E
:101E100093E10E94A90860E270E080E993E10E94EA
:101E2000A90860E470E086E993E10E94A90860E4F3
:101E300070E084E893E10E94A90860E470E08EE716
:101E400093E10E94A90860E470E08AE593E10E94B2
:101E5000A90860E870E08CE993E10E94A90860E8B5
:101E600070E08CE393E10E94A90860E870E08AE8E2
:101E700093E10E94A90860E071E080E693E10E948E
:101E8000A90860E072E084E593E10E94A90860E09F
:101E900074E086E393E10E94A90860EC71E081118F
:101EA00002C06AEA71E08BE996E00E940B0764E9E0
:101EB00071E08BE996E00E942D0811E01093331336
:101EC00089EB95E090933513809334130E94370A81
:101ED00010931A138AE792E00E94DC0387E496E1EC
:101EE000F7EAEF2EF3E1FF2EF7011182F8E3EF0E90
:101EF000F11C8E159F05C1F788E199E20FB6F894A1
:101F0000A895809360000FBE90936000E6E02E2EAF
:101F1000312C54E0A52EB12C6CE0462E512C7AE0E9
:101F2000672E712C80913313882339F10E944F055D
:101F300000912F13109130132091311330913213EF
:101F4000601B710B820B930B00912B1310912C13C0
:101F500020912D1330912E130617170728073907E4
:101F600060F4E0913413F0913513309709F4FDC219
:101F700019958FE293E10E946F0780911D13909154
:101F80001E13019709F056C06BE172E08AE893E1F5
:101F90000E94E5096BE172E084E893E10E94E509A3
:101FA0006BE172E08EE793E10E94E5096BE172E07C
:101FB00088E793E10E94E5096BE172E082E793E133
:101FC0000E94E5096BE172E08CE693E10E94E5096D
:101FD0006BE172E086E693E10E94E5096BE172E055
:101FE00080E693E10E94E5096BE172E08AE593E106
:101FF0000E94E5096BE172E084E593E10E94E50946
:102000001092211360E080911B130E946A0468EE15
:1020100073E080E090E00E945B05882359F061E066
:1020200080911B130E946A0482E090E090931E133B
:1020300080931D1380911D1390911E130297F1F54B
:1020400064EF71E080E090E00E945B058823B1F1CD
:1020500062E875E0CE0101960E94AE09CE010196BC
:102060000E941E08CE0101960E94A10868E775E053
:10207000CE0101960E94AE09CE0101960E941E0873
:10208000CE0101960E94A1086DE675E0CE01019691
:102090000E94AE09CE0101960E941E08CE01019653
:1020A0000E94A10860E675E08BE996E00E942D0889
:1020B00083E090E090931E1380931D1380911D1375
:1020C00090911E13049709F06EC06DE475E08BE9E2
:1020D00096E00E942D0863E475E0CE0101960E940F
:1020E000AE09CE0101960E941E08CE0101960E9403
:1020F000A10868E375E0CE0101960E94AE09CE0109
:1021000001960E941E08CE0101960E94A1086DE270
:1021100075E0CE0101960E94AE09CE0101960E94A3
:102120001E08CE0101960E94A10862E275E0CE0170
:1021300001960E94AE09CE0101960E941E08CE01B2
:1021400001960E94A10864E175E0CE0101960E940B
:10215000AE09CE0101960E941E08CE0101960E9492
:10216000A10866E075E0CE0101960E94AE09CE019D
:1021700001960E941E08CE0101960E94A10869EFF7
:1021800074E0CE0101960E94AE09CE0101960E9434
:102190001E08CE0101960E94A10885E090E0909370
:1021A0001E1380931D1380911D1390911E1306978B
:1021B00011F568EE73E080E090E00E945B058823F3
:1021C000D1F06BEE74E08BE996E00E942D0864EE8E
:1021D00074E0CE0101960E94AE09CE0101960E94E4
:1021E0001E08CE0101960E94A10887E090E090931E
:1021F0001E1380931D1380911D1390911E13089739
:1022000011F568EE73E080E090E00E945B058823A2
:10221000D1F064ED74E08BE996E00E942D086AEC41
:1022200074E0CE0101960E94AE09CE0101960E9493
:102230001E08CE0101960E94A10889E090E09093CB
:102240001E1380931D1380911D1390911E130A97E6
:1022500011F568EE73E080E090E00E945B05882352
:10226000D1F06AEB74E08BE996E00E942D0860EBF8
:1022700074E0CE0101960E94AE09CE0101960E9443
:102280001E08CE0101960E94A1088BE090E0909379
:102290001E1380931D1380911D1390911E130C9794
:1022A00011F568EE73E080E090E00E945B05882302
:1022B000D1F06EE974E08BE996E00E942D086DE79D
:1022C00074E0CE0101960E94AE09CE0101960E94F3
:1022D0001E08CE0101960E94A1088DE090E0909327
:1022E0001E1380931D1380911D1390911E130E9742
:1022F000C1F468EE73E080E090E00E945B05882303
:1023000081F068E674E08BE996E00E942D0884E88D
:1023100093E10E941E088FE090E090931E1380933B
:102320001D1380911D1390911E13409781F462E557
:1023300074E08BE996E00E942D088EE793E10E94FD
:102340001E0881E190E090931E1380931D138091ED
:102350001D1390911E13429779F481E080931A1314
:1023600083E190E090931E1380931D136EE374E05D
:102370008BE996E00E942D0880911D1390911E1309
:10238000439709F0B3C080911F1390912013892BBC
:1023900011F568E873E180E090E00E945B05882316
:1023A000D1F063E274E08BE996E00E942D086CE1C5
:1023B00074E0CE0101960E94AE09CE0101960E9402
:1023C0001E08CE0101960E94A10881E090E0909342
:1023D000201380931F1380911F1390912013029755
:1023E00011F568E873E180E090E00E945B058823C6
:1023F000D1F06FEF73E08BE996E00E942D0865EF56
:1024000073E0CE0101960E94AE09CE0101960E94B2
:102410001E08CE0101960E94A10883E090E09093EF
:10242000201380931F1380911F1390912013049702
:1024300011F568E873E180E090E00E945B05882375
:10244000D1F068ED73E08BE996E00E942D086EEC08
:1024500073E0CE0101960E94AE09CE0101960E9462
:102460001E08CE0101960E94A10885E090E090939D
:10247000201380931F1380911F13909120130697B0
:10248000D9F468EC72E380E090E00E945B05882359
:1024900099F064EB73E08BE996E00E942D088AE5E1
:1024A00093E10E941E0881E08093211387E090E071
:1024B0009093201380931F1380911F1390912013EA
:1024C0000897A1F460ED77E080E090E00E945B0562
:1024D000882361F080E693E10E941E081092211388
:1024E00089E090E09093201380931F138091F60E63
:1024F0009091F70E2091F80E3091F90E821B930BFC
:102500009170892B09F441C048E0842E912CDD2480
:10251000D3948091F60E9091F70E2091F80E3091A1
:10252000F90E821B930B9170892B79F18DED9EE052
:102530000E946B06182F80911C13882329F0612FAD
:102540008BE996E00E94BC061D3009F4CEC51A3016
:1025500001F319831A8241E050E0BE016F5F7F4FA3
:102560008AE893E10E940009D4CF88E198E00FB691
:10257000F894A895809360000FBE90936000FFCF01
:1025800060E070E0CB010C94041B80913202882340
:10259000A1F00E94370A1092320281E090E09093FD
:1025A0001E1380931D131092201310921F1367EABD
:1025B00073E08BE996E00E942D08D0901A13D11099
:1025C00007C06AE070E080E090E00E941C05AACCA1
:1025D00080911D138093350223E6A22E26E1B22EB0
:1025E00033E9832E36E1932E8501F801208130E016
:1025F000F901E85FF84F8491F901EE53F94F6490C7
:10260000F901E458F94F7490772009F458C2811108
:102610000E940304E72DF0E0EE0FFF1FE450FA4F95
:10262000A591B491EC916E2281E009F480E0782EBE
:10263000F8018181781609F444C20E944F05F8011F
:102640002281338144815581621B730B840B950B6E
:10265000633371058105910508F071820A5F1F4F90
:102660008016910609F0C1CF07EA13E1F8018181D4
:1026700060E4862E912C412C512C3201813009F0DE
:1026800028C2812C99249394412C512C3201F801B9
:1026900080810E94D404092E000CAA0BBB0B480EAB
:1026A000591E6A1E7B1EF1E08F1A910881F7B4E073
:1026B0007694679457944794BA95D1F7F80153826A
:1026C0004282349681E090E02281338121933193DC
:1026D000019688319105C1F7F80153AA42AA60E03A
:1026E00070E0CB0150E040E0FA01EE0FFF1FE00F79
:1026F000F11F24813581620F731F811D911D4F5F72
:102700005F4F4831510581F728E130E040E050E06B
:102710000E94991CF80135AB24AB085C1F4F0E15C5
:102720001F0509F0A3CF40E090E080E021E030E019
:10273000F5015181511120E0082E01C0220F0A94A9
:10274000EAF7422B0196F6E0AF0EB11C88309105F6
:1027500069F740933402E3E5F6E140E030E020E041
:102760008181022E01C0880F0A94EAF7482B2F5F5F
:102770003F4F32962830310599F7409333026AEF84
:1027800075E08CE993E10E94860907EA13E1B12C18
:10279000A12CF80154A945A98181813009F0B4C167
:1027A000252F342F203CFEE33F0710F02FEB3EE3B4
:1027B000AFEFBFE00E94BB1C2FEB3EE340E050E0D8
:1027C0000E947A1CF80137AB26ABF80166A977A9FD
:1027D0008CE993E10E945209FBE0AF16B10431F09D
:1027E00068EF75E08CE993E10E94D1082FEFA21AFF
:1027F000B20A085C1F4F3CE0A316B10451F666EF25
:1028000075E08CE993E10E94D10864EF75E086E9F8
:1028100093E10E94860947E4A42E46E1B42E10E01D
:1028200000E0F5016181728186E993E10E9452091D
:102830000330110531F062EF75E086E993E10E9403
:10284000D1080F5F1F4FF3E0AF0EB11C043011052C
:1028500041F760EF75E086E993E10E94D10880912D
:102860002113811156C068EE75E080E693E10E9465
:10287000860968E773E180E693E10E947F0966EECE
:1028800075E080E693E10E94D1086FED75E080E687
:1028900093E10E94D108809134020E942C096DEDD1
:1028A00075E080E693E10E94D10865ED75E080E671
:1028B00093E10E94D108809133020E942C0963EDBC
:1028C00075E080E693E10E94D1086CEC75E080E64B
:1028D00093E10E94D1086CE973E180E693E10E94E4
:1028E0007F096AEC75E080E693E10E94D10862EC12
:1028F00075E080E693E10E94D10866E973E180E625
:1029000093E10E947F0960EC75E080E693E10E940C
:10291000D10869EA75E08AE593E10E94860962E7D9
:1029200073E18AE593E10E947F0964EA75E08AE534
:1029300093E10E94D10860916413709165138AE558
:1029400093E10E94520960915A1370915B136115D3
:10295000710509F4E5C040915E1350915F1384E561
:1029600093E10E94B70962EA75E084E593E10E9471
:10297000D10860E673E184E593E10E947F098091CC
:10298000521390915313892B09F465C070E060E0F5
:102990008EE493E10E94BD05B82E61E070E08EE404
:1029A00093E10E94BD05182F63E070E08EE493E18F
:1029B0000E94BD05082F64E070E08EE493E10E9460
:1029C000BD05A82E24E4B212D8C01A3309F0C2C043
:1029D000802F0E947B07182F8A2D0E947B0740E1E1
:1029E000149F90011124182F122B81E696E110FDFF
:1029F0009CC00E94B4078FE596E111FD99C00E942A
:102A0000B4078DE596E112FD96C00E94B4078BE5F0
:102A100096E113FD93C00E94B40789E596E114FD89
:102A200090C00E94B40787E596E115FD8DC00E9415
:102A3000B40785E596E116FD8AC00E94B40783E5D8
:102A400096E117FD97C00E94B4076BE172E08EE437
:102A500093E10E94E50960E086E10E946A0461E07A
:102A600070E080E090E00E941C050091D50A109172
:102A7000D60A8091D70A9091D80A081B190B1170B9
:102A80000115110509F46BC18CEB9AE00E946B06ED
:102A9000182F682F8BE996E00E94BC061D3009F4C0
:102AA0003FC61A3011F319831A8241E050E0BE018B
:102AB0006F5F7F4F8CE393E10E940009D6CF712CAA
:102AC000B7CD0E944F05F801628373838483958399
:102AD000C5CDF80180810E94D404092E000CAA0BF8
:102AE000BB0B480E591E6A1E7B1EF1E08F1A91081F
:102AF00081F756E076946794579447945A95D1F7A6
:102B0000F80155AA44AA09CE852F942F8115F4E027
:102B10009F0710F08FEF93E0F80197AB86AB55CE8F
:102B200084E593E10E948F081ECF0E94C30763CF04
:102B30000E94C30766CF0E94C30769CF0E94C307E4
:102B40006CCF0E94C3076FCF0E94C30772CF0E9451
:102B5000C30775CF8FEC810F883008F076CFE12F57
:102B6000E153FF0BCF01880F991F8D5A994E003307
:102B700009F469CF0E94C30768CFF1E4BF1265CFA3
:102B80008FEC810F853008F060CF802F0E947B078B
:102B9000B82E8A2D0E947B0740E1B49E900111243B
:102BA000B82EB22AE12FE153FF0BCF010B2D10E01D
:102BB000EE0FFF1FE80FF91FE95BF94E1283018347
:102BC000A08061E08A2D0E949804B11005C060E0E9
:102BD0008A2D0E946A0439CF0F3F110511F461E07C
:102BE000F7CFEA2DF0E0E85FF84FE491E150E231F1
:102BF00008F0B0C0F0E08827EF5FF94E8F4F0C94DB
:102C0000CA1C131618161D1627163116AA163B16BF
:102C100043164B1655165F16691678168216AA16B5
:102C20008C169616A01684B5806884BDB7BC0DCFEF
:102C300084B5806284BDB8BC08CF80918000806874
:102C4000809380001093890000938800FECE8091CD
:102C5000800080628093800010938B0000938A0034
:102C6000F4CE8091800088608093800010938D0066
:102C700000938C00EACE8091B00080688093B00011
:102C8000B092B300E2CE8091B00080628093B00039
:102C9000B092B400DACE809190008068809390006A
:102CA0001093990000939800D0CE8091900080629C
:102CB0008093900010939B0000939A00C6CE809161
:102CC000900088608093900010939D0000939C007A
:102CD000BCCE8091A00080688093A0008091A0006D
:102CE0008F7B8093A0001093A9000093A800ADCE25
:102CF0008091A00080628093A0001093AB000093AD
:102D0000AA00A3CE8091A00088608093A0001093B9
:102D1000AD000093AC0099CE809120018068809333
:102D2000200110932901009328018FCE809120016A
:102D300080628093200110932B0100932A0185CE9D
:102D40008091200188608093200110932D010093D1
:102D50002C017BCE003811050CF041CF38CF0E94FA
:102D60004F052B013C0180916D0290916E02A09164
:102D70006F02B0917002A3019201281B390B4A0B1C
:102D80005B0BDA01C901813D9740A105B10508F44B
:102D90007FC0809178139091791360E0009711F0D3
:102DA0000E94F91B8BE58093360280913502809357
:102DB0003702609338028091340280933902809107
:102DC000330280933A02E6E3F2E0A7EAB3E1D69653
:102DD0008C91D697D7969C91D79795838683D896D2
:102DE000329642E0EE34F40791F7809148169091C4
:102DF0004916909353028093540280914B16909100
:102E00004C16909355028093560280914E169091E5
:102E10004F169093570280935802809151169091CB
:102E200052169093590280935A029BE5A92E92E084
:102E3000B92EB80182E793E10E94BD05F5018193A7
:102E40005F010F5F1F4F0031110599F7E7E3F2E0D3
:102E500095E380E0915019F02191820FFBCF809390
:102E60006B028DE580936C0247E350E066E372E00D
:102E70008AE792E00E94CF058AE792E00E942A0743
:102E800040926D0250926E0260926F0270927002D8
:102E900080910813909109130E94C3078091FE123C
:102EA0009091FF128230910509F077C08091041350
:102EB000909105130E94C307809106139091071308
:102EC0000E94B40780910A1390910B130E94B407DB
:102ED00080910C1390910D130E94C30780910E13E3
:102EE00090910F130E94B4078091101390911113C9
:102EF0000E94B40707EA13E18AE0482E512C612CA6
:102F0000712CF80186A897A8940150E040E019A21E
:102F10005E01F1E2AF0EB11CCA01B901A301920139
:102F20000E94991C605DF50162935F0121153105D6
:102F30004105510589F7309729F0BF018BE996E0EB
:102F40000E94FB0769E172E08BE996E00E94FB07B3
:102F5000E0911213F09113138181811119C08091B6
:102F60000013909101138815990508F0B7C0085C0B
:102F70001F4FF5E1073D1F0721F6A8956AE070E0B5
:102F800080E090E00E941C050E944A070C94890F83
:102F90008091021390910313E6CF8330910509F0DD
:102FA00062C080910413909105130E94B407809130
:102FB0000613909107130E94C30780910A13909102
:102FC0000B130E94C30780910C1390910D130E9464
:102FD000B40780910E1390910F130E94B407809153
:102FE0001013909111130E94C307E0911213F091F6
:102FF00013138181811132C08091001390910113CC
:103000004996E7EAF3E126A937A98217930708F062
:10301000D12CF89625E1E73DF207A9F7DD2031F044
:1030200082E090E09093FF128093FE12E0911413DF
:10303000F091151381818111A0CF84E090E09093ED
:10304000FF128093FE120E944F0560931613709337
:10305000171380931813909319138FCF8091021335
:1030600090910313CDCF049709F087CF809104137B
:10307000909105130E94C307809106139091071346
:103080000E94B40780910A1390910B130E94B40719
:1030900080910C1390910D130E94C30780910E1321
:1030A00090910F130E94C3078091101390911113F8
:1030B0000E94B4070E944F05009116131091171338
:1030C0002091181330911913601B710B820B930B15
:1030D000603177428105910508F44FCF83E090E09D
:1030E0009093FF128093FE1248CF80911D13909110
:1030F0001E130397D1F462EA73E080E993E10E9422
:1031000086098AE893E10E94E10797FD0EC06EE808
:1031100073E08BE996E00E942D08B0921E13A092F6
:103120001D138FE293E10E946F0780911D13909110
:103130001E13059771F46FE773E08BE996E00E9428
:103140002D0830921E1320921D138FE293E10E94EE
:103150006F0780911D1390911E130797D1F469E7B3
:1031600073E080E993E10E9486098AE893E10E9476
:10317000E10797FD0EC064E673E08BE996E00E94DC
:103180002D0890921E1380921D138FE293E10E94EE
:103190006F0780911D1390911E130997D1F46CE570
:1031A00073E080E993E10E9486098AE893E10E9436
:1031B000E10797FD0EC065E473E08BE996E00E949D
:1031C0002D0870921E1360921D138FE293E10E94EE
:1031D0006F0780911D1390911E130B97D1F46DE32F
:1031E00073E080E993E10E9486098AE893E10E94F6
:1031F000E10797FD0EC066E273E08BE996E00E945E
:103200002D0850921E1340921D138FE293E10E94ED
:103210006F0780911D1390911E130D97E1F468E1E3
:1032200073E080E993E10E9486098AE893E10E94B5
:10323000E10797FD10C06AE073E08BE996E00E9419
:103240002D082EE030E030931E1320931D138FE2E3
:1032500093E10E946F0780911D1390911E130F97A9
:10326000E1F46AEF72E080E993E10E9486098AE85E
:1032700093E10E94E10797FD10C069EE72E08BE9CF
:1032800096E00E942D0840E150E050931E134093B9
:103290001D138FE293E10E946F0780911D1390919F
:1032A0001E134197E1F460EE72E080E993E10E9421
:1032B00086098AE893E10E94E10797FD10C061ED5D
:1032C00072E08BE996E00E942D0882E190E09093F5
:1032D0001E1380931D138FE293E10E946F0780916C
:1032E0001D1390911E13439709F09CC080911F13EA
:1032F000909120130197E1F46BEC72E080E993E187
:103300000E9486098AE893E10E94E10797FD10C0B8
:1033100066EB72E08BE996E00E942D08E2E0F0E0B7
:10332000F0932013E0931F138FE293E10E946F0745
:1033300080911F13909120130397D1F46EEA72E0ED
:1033400080E993E10E9486098AE893E10E94E107FF
:1033500097FD0EC067E972E08BE996E00E942D08A8
:10336000B0922013A0921F138FE293E10E946F0787
:1033700080911F13909120130597D1F46FE872E0AC
:1033800080E993E10E9486098AE893E10E94E107BF
:1033900097FD0EC068E772E08BE996E00E942D0869
:1033A0003092201320921F138FE293E10E946F0747
:1033B00080911F13909120130797A1F466E772E0A4
:1033C00080E993E10E9486098AE893E10E94E1077F
:1033D00097FD08C09092201380921F138FE293E113
:1033E0000E946F0780911F13909120130997D1F4C9
:1033F00067E672E080E993E10E9486098AE893E13A
:103400000E94E10797FD0EC01092201310921F1327
:103410006EE472E08BE996E00E942D088FE293E162
:103420000E946F0767E472E080E993E10E948609D9
:103430008AE893E10E94E10797FD3FC046E150E032
:1034400067E070E0CE0101960E94EF09BE016F5F58
:103450007F4F82E793E10E945608CE0101960E94B9
:10346000A10882E793E10E948F07811102C0D092E8
:10347000320265E372E084E893E10E94860962E724
:1034800073E184E893E10E947F0964E272E084E8DA
:1034900093E10E94D10861E172E08EE793E10E941E
:1034A000860962E773E18EE793E10E947F096AE093
:1034B00072E08EE793E10E94D10862E072E080E959
:1034C00093E10E9486098AE893E10E94E10797FD53
:1034D0001DC049E050E068E070E0CE0101960E9416
:1034E000EF09BE016F5F7F4F8CE693E10E945608A3
:1034F000CE0101960E94A1086EE172E08CE693E194
:103500000E944108811102C0D09232026AEF71E03C
:1035100080E993E10E9486098AE893E10E94E1072D
:1035200097FD1DC04BE050E068E070E0CE010196D1
:103530000E94EF09BE016F5F7F4F86E693E10E9414
:103540005608CE0101960E94A1086CE172E086E661
:1035500093E10E944108811102C0D092320264EFCF
:1035600071E080E993E10E9486098AE893E10E9474
:10357000E10797FD56C061EF71E080E993E10E9499
:1035800086098AE893E10E94E1078C016FEE71E001
:1035900080E993E10E9486098AE893E10E94E107AD
:1035A000B8016E5F7F4FAC01CE0101960E94EF091A
:1035B000BE016F5F7F4F88E793E10E945608CE01FE
:1035C00001960E94A10860E272E088E793E10E9400
:1035D00041088111D092320288E793E10E948F075F
:1035E000811108C0D09232026DEE71E088E793E15C
:1035F0000E9486098091781390917913009711F4B5
:103600000C94C0120E94F91B655071096B31710551
:1036100040F0D09232026BEE71E088E793E10E94B5
:10362000860962EE71E080E993E10E9486098AE8EA
:1036300093E10E94E10797FD1DC04EE050E069E074
:1036400070E0CE0101960E94EF09BE016F5F7F4FCF
:1036500088E493E10E945608CE0101960E94A108D9
:1036600063E272E088E493E10E944108811102C0A4
:10367000D092320269ED71E080E993E10E948609FF
:103680008AE893E10E94E10797FD1DC040E150E008
:1036900069E070E0CE0101960E94EF09BE016F5F04
:1036A0007F4F82E493E10E945608CE0101960E946A
:1036B000A10869E272E082E493E10E94410881116D
:1036C00002C0D09232026FEC71E080E993E10E9477
:1036D00086098AE893E10E94E10797FD19C04EE24E
:1036E00050E069E270E0CE0101960E94EF09BE0150
:1036F0006F5F7F4F8EE493E10E945608CE010196E2
:103700000E94A1086EE473E18BE996E00E9405082F
:103710006BE172E08AE893E10E94E5090C9489125A
:1037200065E476E080E993E10E9486098CE393E109
:103730000E94E10797FD99C961E086E10E946A0451
:1037400062E070E080E090E00E941C0566E176E0B7
:103750008CEB9AE00E942D088CEB9AE00E942A07DD
:1037600084C986E393E10E94A1088CE393E10E945F
:10377000A10882E493E10E94A10888E493E10E94F9
:10378000A1088EE493E10E94A10884E593E10E94E0
:10379000A1088AE593E10E94A10880E693E10E94D6
:1037A000A10886E693E10E94A1088CE693E10E94BD
:1037B000A10882E793E10E94A10888E793E10E94B3
:1037C000A1088EE793E10E94A10884E893E10E949A
:1037D000A1088AE893E10E94A10880E993E10E9490
:1037E000A10886E993E10E94A1088CE993E10C9479
:1037F000A1081F93FC0199278827BC01E894119127
:103800001032E9F3193010F01E30C8F31B3251F0BA
:103810001D3249F4689406C00E943B1C610F711D63
:10382000811D911D119110531A30B0F33EF4909503
:103830008095709561957F4F8F4F9F4F1F91089591
:10384000FB01DC0105900D920020E1F70895FC01D9
:1038500005900020E9F7809590958E0F9F1F0895A1
:10386000BB274A3031F4992322F4BDE2909581952B
:103870009F4F0C94511C592F482F372F262F660F1E
:10388000771F881F991F660F771F881F991F620F68
:10389000731F841F951F660F771F881F991F089538
:1038A000BB27FB015527AA27880F991FAA1FA4171A
:1038B00010F0A41B83955051B9F7A05DAA3308F00E
:1038C000A95DA193009779F7B111B1931192CB0142
:1038D0000C946A1CDC01FC01672F71917723E1F7DE
:1038E000329704C07C916D9370836291AE17BF07CD
:1038F000C8F30895052E97FB1EF400940E94911CB6
:1039000057FD07D00E94991C07FC03D04EF40C947D
:10391000911C50954095309521953F4F4F4F5F4FEB
:10392000089590958095709561957F4F8F4F9F4F2B
:103930000895A1E21A2EAA1BBB1BFD010DC0AA1FF0
:10394000BB1FEE1FFF1FA217B307E407F50720F008
:10395000A21BB30BE40BF50B661F771F881F991F83
:103960001A9469F760957095809590959B01AC01CC
:10397000BD01CF010895A29FB001B39FC001A39FD5
:10398000700D811D1124911DB29F700D811D112498
:10399000911D0895EE0FFF1F881F8BBF0790F691B2
:1039A000E02D19940F931F93CF93DF9382309105ED
:1039B00010F482E090E0E0919516F091961630E0D8
:1039C00020E0B0E0A0E0309799F42115310509F42A
:1039D0004AC0281B390B24303105D8F58A819B81D8
:1039E0006115710589F1FB0193838283FE0111C08A
:1039F000408151810281138148175907E0F048172F
:103A0000590799F4109761F012960C931297139638
:103A10001C933296CF01DF91CF911F910F910895A2
:103A20000093951610939616F4CF2115310551F099
:103A30004217530738F0A901DB019A01BD01DF01EC
:103A4000F801C1CFEF01F9CF9093961680939516A8
:103A5000CDCFFE01E20FF31F8193919322503109E4
:103A600039832883D7CF2091931630919416232B36
:103A700041F4209103023091040230939416209374
:103A8000931620910102309102022115310541F473
:103A90002DB73EB74091050250910602241B350B0D
:103AA000E0919316F0919416E217F307A0F42E1B01
:103AB0003F0B2817390778F0AC014E5F5F4F241792
:103AC000350748F04E0F5F1F50939416409393169E
:103AD000819391939FCFF0E0E0E09CCFCF93DF9371
:103AE0000097E9F0FC01329713821282A09195169B
:103AF000B0919616ED0130E020E01097A1F42081FE
:103B00003181820F931F20919316309194162817BC
:103B1000390709F061C0F0939416E0939316DF9192
:103B2000CF910895EA01CE17DF07E8F54A815B815E
:103B30009E0141155105B1F7E901FB83EA834991E3
:103B40005991C40FD51FEC17FD0761F48081918155
:103B50000296840F951FE90199838883828193815E
:103B60009B838A83F0E0E0E012968D919C911397FD
:103B70000097B9F52D913C911197CD010296820FD6
:103B8000931F20919316309194162817390739F610
:103B9000309751F51092961610929516B093941690
:103BA000A0939316BCCFD383C28340815181840FED
:103BB000951FC817D90761F44E5F5F4F88819981BF
:103BC000480F591F518340838A819B81938382834D
:103BD0002115310509F0B0CFF0939616E0939516B4
:103BE0009ECFFD01DC01C0CF13821282D7CF4F924E
:103BF0005F926F927F928F929F92AF92BF92CF927D
:103C0000DF92EF92FF920F931F93CF93DF938C017C
:103C1000009799F4CB01DF91CF911F910F91FF9005
:103C2000EF90DF90CF90BF90AF909F908F907F905C
:103C30006F905F904F900C94D21CFC01E60FF71F21
:103C40009C0122503109E217F30708F4AEC0D901F4
:103C5000CD91DC911197C617D70720F1C530D1055A
:103C600078F0CE0104978617970750F0C61BD70B44
:103C70002297C193D1936D937C93CF010E946E1DC7
:103C8000C801DF91CF911F910F91FF90EF90DF90CE
:103C9000CF90BF90AF909F908F907F906F905F90EC
:103CA0004F9008955B01AC1ABD0A4C018C0E9D1E0D
:103CB000A0919516B0919616512C412CF12CE12C27
:103CC000109731F580919316909194168815990567
:103CD00009F05CC04616570608F058C080910102F2
:103CE00090910202009741F48DB79EB74091050272
:103CF00050910602841B950BE817F90708F055C090
:103D0000F0939416E0939316F90171836083B8CF12
:103D10008D919C91119712966C90129713967C90AE
:103D20001397A815B90559F56C0142E0C40ED11CD2
:103D3000CA14DB0420F1AC014A195B09DA011296BE
:103D4000159780F06282738251834083D9016D930D
:103D50007C93E114F10471F0D7011396FC93EE9378
:103D600012978ECF22968C0F9D1FF901918380832D
:103D7000F301EFCFF0939616E093951681CF481696
:103D8000590608F42C017D01D3019ACFCB010E9482
:103D9000D21C7C01009749F0AE01B8010E94D81EE8
:103DA000C8010E946E1D87016BCF10E000E068CF54
:103DB000FB01DC0102C001900D9241505040D8F748
:103DC0000895FB01DC018D91019080190110D9F358
:103DD000990B0895FB01DC0101900D920020E1F7A1
:103DE0000895FB0151915523A9F0BF01DC014D91CC
:103DF00045174111E1F759F4CD010190002049F038
:103E00004D9140154111C9F3FB014111EFCF81E004
:103E100090E00197089513E0C8EAD3E000E006C0FF
:103E2000802FFE010E94CA1C2196011DC93AD107AC
:103E300080E00807A9F7F894FFCF010000971680EB
:103E40000000000000BC06CF0559062A07AE056B2E
:103E50000685060D0A00302C3100393900302C302F
:0C3E60002C3000302C312C302C300000B5
:020000040003F7
:10E000000D9489F10D94B2F10D94B2F10D94B2F129
:10E010000D94B2F10D94B2F10D94B2F10D94B2F1F0
:10E020000D94B2F10D94B2F10D94B2F10D94B2F1E0
:10E030000D94B2F10D94B2F10D94B2F10D94B2F1D0
:10E040000D94B2F10D94B2F10D94B2F10D94B2F1C0
:10E050000D94B2F10D94B2F10D94B2F10D94B2F1B0
:10E060000D94B2F10D94B2F10D94B2F10D94B2F1A0
:10E070000D94B2F10D94B2F10D94B2F10D94B2F190
:10E080000D94B2F10D94B2F10D94B2F10D94B2F180
:10E090000D94B2F10D94B2F10D94B2F10D94B2F170
:10E0A0000D94B2F10D94B2F10D94B2F10D94B2F160
:10E0B0000D94B2F10D94B2F10D94B2F10D94B2F150
:10E0C0000D94B2F10D94B2F10D94B2F10D94B2F140
:10E0D0000D94B2F10D94B2F10D94B2F10D94B2F130
:10E0E0000D94B2F141546D656761323536300041AF
:10E0F000726475696E6F206578706C6F72657220DE
:10E1000073746B3530305632206279204D4C530099
:10E11000426F6F746C6F616465723E004875683F52
:10E1200000436F6D70696C6564206F6E203D200048
:10E130004350552054797065202020203D20005FF9
:10E140005F4156525F415243485F5F3D2000415658
:10E1500052204C696243205665723D20004743437C
:10E160002056657273696F6E203D20004350552024
:10E1700049442020202020203D20004C6F7720663D
:10E18000757365202020203D20004869676820665F
:10E190007573652020203D200045787420667573D6
:10E1A00065202020203D20004C6F636B2066757336
:10E1B000652020203D20004D617220203720323024
:10E1C000313300312E362E3800342E332E350056A2
:10E1D00023202020414444522020206F7020636F70
:10E1E00064652020202020696E73747275637469E1
:10E1F0006F6E2061646472202020496E74657272B3
:10E20000757074006E6F20766563746F7200726A49
:10E210006D702020006A6D70200057686174207056
:10E220006F72743A00506F7274206E6F7420737541
:10E2300070706F72746564004D7573742062652030
:10E2400061206C6574746572002000577269747483
:10E25000696E672045450052656164696E672045B7
:10E26000450045452065727220636E743D00504F35
:10E27000525400303D5A65726F2061646472003FF1
:10E280003D43505520737461747300403D454550C3
:10E29000524F4D207465737400423D426C696E6B41
:10E2A000204C454400453D44756D70204545505215
:10E2B0004F4D00463D44756D7020464C415348001B
:10E2C000483D48656C70004C3D4C69737420492F83
:10E2D0004F20506F72747300513D51756974005234
:10E2E0003D44756D702052414D00563D73686F7707
:10E2F00020696E7465727275707420566563746FF0
:10E30000727300593D506F727420626C696E6B00BD
:10E310002A0011241FBECFEFD1E2DEBFCDBF01E046
:10E320000CBF12E0A0E0B2E0EEE1FDEF03E00BBFB6
:10E3300002C007900D92A030B107D9F712E0A0E01B
:10E34000B2E001C01D92AE30B107E1F70F9460F367
:10E350000D948DFE01E20EBF0FEF0DBF11241FBE05
:10E360000D9460F30D9400F020E030E040ED57E0B4
:10E3700005C0FA013197F1F72F5F3F4F2817390792
:10E38000C0F308959C01260F311DC901A0E0B0E043
:10E390002F5F3F4FABBFFC018791882361F08093D3
:10E3A000C6008091C00086FFFCCF8091C0008064D1
:10E3B0008093C000EACF08958DE08093C6008091DD
:10E3C000C00086FFFCCF8091C00080648093C000B5
:10E3D0008AE08093C6008091C00086FFFCCF8091C8
:10E3E000C00080648093C00008950F94C2F10F9420
:10E3F000DCF10895FC019081992359F09093C600B7
:10E400008091C00086FFFCCF8091C0008064809323
:10E41000C0003196992379F70895282F982F929567
:10E420009F70892F805D8A3308F0895F8093C600D2
:10E430008091C00086FFFCCF8091C00080648093F3
:10E44000C000822F8F70982F905D9A3308F0995FEB
:10E450009093C6008091C00086FFFCCF8091C000E1
:10E4600080648093C00008959C01FB01853691056E
:10E470001CF46330710594F0C90164E670E00F94F8
:10E480002EFE605D7F4F6093C6008091C00086FFC6
:10E49000FCCF8091C00080648093C0002B30310598
:10E4A00014F43297B4F0C90164E670E00F942EFEC4
:10E4B0006AE070E00F942EFE605D7F4F6093C600AF
:10E4C0008091C00086FFFCCF8091C0008064809363
:10E4D000C000C9016AE070E00F942EFEC0968093E0
:10E4E000C6008091C00086FFFCCF8091C000806490
:10E4F0008093C00008951F93182F8EE692EE60E07F
:10E500000F94C2F11093C6008091C00086FFFCCF2B
:10E510008091C00080648093C0000F94DCF11F9153
:10E5200008952F923F924F925F926F927F928F92B7
:10E530009F92AF92BF92CF92DF92EF92FF920F9392
:10E540001F93DF93CF93CDB7DEB762970FB6F894E2
:10E55000DEBF0FBECDBF382E622ECA01DB015C01CB
:10E560006D01772420E2222E2E010894411C511CBB
:10E570008BC081E0A81680E0B80681E0C80680E084
:10E58000D80628F0C601AA27BB270F940DF2BB2797
:10E59000AD2D9C2D8B2D0F940DF28A2D0F940DF225
:10E5A0002092C6008091C00086FFFCCF8091C00001
:10E5B00080648093C0009DE29093C6008091C0006B
:10E5C00086FFFCCF8091C00080648093C0002092C1
:10E5D000C6008091C00086FFFCCF8091C00080649F
:10E5E0008093C00019828601750188249924A1E0D6
:10E5F0003A1651F03A1620F0B2E03B1661F409C029
:10E600000BBFF701779007C0C7010F9477FE782EF4
:10E6100002C0F7017080872D0F940DF22092C60082
:10E620008091C00086FFFCCF8091C0008064809301
:10E63000C000872D8052F401EF70F0708F3520F408
:10E64000E40DF51D708204C0E40DF51D8EE280839B
:10E650000894E11CF11C011D111D0894811C911CE2
:10E6600090E18916910409F0C2CF80E190E0A0E02A
:10E67000B0E0A80EB91ECA1EDB1E198AC2010F9493
:10E68000FAF10F94DCF16A94662009F072CF629679
:10E690000FB6F894DEBF0FBECDBFCF91DF911F91B3
:10E6A0000F91FF90EF90DF90CF90BF90AF909F9031
:10E6B0008F907F906F905F904F903F902F90089534
:10E6C0002F923F924F925F926F927F928F929F9282
:10E6D000AF92BF92CF92DF92EF92FF920F931F9370
:10E6E000DF93CF93CDB7DEB7CD53D1400FB6F894BB
:10E6F000DEBF0FBECDBF01E20EBF0FEF0DBF94B75F
:10E70000F894A89514BE80916000886180936000A1
:10E7100010926000789493FF05C0E0910002F091A0
:10E7200001021995279A2F9A8091C00082608093E8
:10E73000C00080E18093C40088E18093C1000000A4
:10E74000EE24FF24870144E0A42EB12CCC24DD2448
:10E7500024C0C5010197F1F70894E11CF11C011DCB
:10E76000111D21E2E2162EE4F20620E0020720E06D
:10E77000120718F031E0C32ED12CC801B70127ECE5
:10E780003BE140E050E00F9441FE611571058105C9
:10E79000910519F485B1805885B98091C00087FD35
:10E7A00003C0C114D104A9F2A6014F5F5F4FC25E3E
:10E7B000DE4F59834883CE51D140C25EDE4F8881FF
:10E7C0009981CE51D140019711F00D9410FEC05D9A
:10E7D000DE4F19821882C053D14060E0C15DDE4F28
:10E7E0001882CF52D14088249924C35DDE4F19820C
:10E7F0001882CD52D140C05EDE4F188219821A8233
:10E800001B82C052D140CE5CDE4F188219821A8220
:10E810001B82C253D140EE24FF2487010BBFF701B6
:10E8200007911691C45CDE4F19830883CC53D14005
:10E830000D940BFEC25EDE4F28813981CE51D1404E
:10E840002130310509F52091C600C25EDE4F1982E4
:10E850001882CE51D14022C02F5F3F4F4F4F5F4FA4
:10E86000213082E138078AE7480780E0580780F0C6
:10E87000C45CDE4FE881F981CC53D140EF5FFF4F9C
:10E8800019F0EE27FF27099420E030E040E050E047
:10E890008091C00087FFE0CF2091C600C35DDE4FAE
:10E8A00048815981CD52D1404F5F5F4FC35DDE4FEC
:10E8B00059834883CD52D140213209F063C64A3092
:10E8C000510508F05FC60894811C911C53E0851621
:10E8D000910409F059C600E010E018C081E280936D
:10E8E000C6008091C00086FFFCCF8091C00080648C
:10E8F0008093C0002F5F3F4F2931310579F70F9486
:10E90000DCF10F5F1F4F0530110519F020E030E0FA
:10E91000E5CF10920A0210920B0210920C02109294
:10E920000D02109206021092070210920802109235
:10E930000902109202021092030210920402109235
:10E9400005028FEE90EE60E00F94F5F180E191EE1C
:10E9500060E00F94C2F18091C00087FFFCCF9091DE
:10E96000C600903608F09F759032B8F09093C600BC
:10E970008091C00086FFFCCF8091C00080648093AE
:10E98000C000A0E2A093C6008091C00086FFFCCF2B
:10E990008091C00080648093C000983409F4D7C18E
:10E9A0009934B8F4923409F459C1933458F490333B
:10E9B00019F1903308F4E3C59F33A1F1903409F0C5
:10E9C000DEC5BDC0953409F470C1963409F0D7C5D1
:10E9D00098C1923509F42BC2933538F49C3409F46C
:10E9E000F5C1913509F0CBC518C2963509F445C279
:10E9F000993509F0C4C567C483E792EE62E00F94CD
:10EA0000F5F110920602109207021092080210927D
:10EA1000090210920A0210920B0210920C0210923C
:10EA20000D0213C18FE792EE62E00F94F5F18FEEC5
:10EA300090EE60E00F94F5F181E291EE60E00F94CA
:10EA4000C2F187EB91EE60E00F94F5F180E391EE77
:10EA500060E00F94C2F184EE90EE60E00F94F5F167
:10EA60008FE391EE60E00F94C2F186E090E061E008
:10EA700070E00F9434F20F94DCF18DE591EE60E0DC
:10EA80000F94C2F189EC91EE60E00F94F5F18EE401
:10EA900091EE60E00F94C2F183EC91EE60E00F9490
:10EAA000F5F18CE691EE60E00F94C2F18EE10F94E7
:10EAB0000DF288E90F940DF281E00F940DF20F949E
:10EAC000DCF18BE791EE60E00F94C2F119E0E0E039
:10EAD000F0E010935700E4918E2F0F940DF20F94F5
:10EAE000DCF18AE891EE60E00F94C2F1E3E0F0E03F
:10EAF00010935700E4918E2F0F940DF20F94DCF1D8
:10EB000089E991EE60E00F94C2F1E2E0F0E0109349
:10EB10005700E4918E2F0F940DF20F94DCF188EAE8
:10EB200091EE60E00F94C2F1E1E0F0E01093570045
:10EB30001491812F0F940DF20F94DCF107CF8BE825
:10EB400092EE62E00F94F5F18BE492EE60E00F94A8
:10EB5000F5F10F94DCF100E010E019C0C8016F2D51
:10EB60000F947FFEFF2031F489E492EE60E00F9471
:10EB7000C2F10BC0F092C6008091C00086FFFCCFAE
:10EB80008091C00080648093C0000F5F1F4FC80158
:10EB900081519F41A0E0B0E0ABBFFC01F790BAE229
:10EBA000FB1621F0E2E000301E07C1F60F94DCF105
:10EBB0000F94DCF187E592EE60E00F94F5F10F948D
:10EBC000DCF1CC24DD2400E010E01EC0C8010F946D
:10EBD00077FEF82E882331F489E492EE60E00F94FA
:10EBE000C2F10BC08093C6008091C00086FFFCCFAD
:10EBF0008091C00080648093C000FE1419F00894D6
:10EC0000C11CD11C0F5F1F4FC80181519F41A0E063
:10EC1000B0E0ABBFFC01E790FAE2EF1621F022E092
:10EC20000030120799F60F94DCF10F94DCF182E6C4
:10EC300092EE60E00F94C2F1C60161E070E00F94C3
:10EC400034F20F94DCF10F94DCF110920202109276
:10EC50000302109204021092050278CE89E992EE26
:10EC600062E00F94F5F1279A2F9A16C02F9880E052
:10EC700090E0E0EDF7E03197F1F7019684369105E9
:10EC8000C1F72F9A80E090E0E0EDF7E03197F1F7DF
:10EC9000019684369105C1F78091C00087FFE6CFC9
:10ECA0008091C00087FFFCCF64C485EA92EE62E0E9
:10ECB0000F94F5F140910202509103026091040219
:10ECC0007091050281E020E10F9491F2809102029F
:10ECD00090910302A0910402B091050280509F4FD1
:10ECE000AF4FBF4F8093020290930302A0930402A0
:10ECF000B093050280509041A040B04008F426CE69
:10ED0000A4CF83EB92EE62E00F94F5F140910602FE
:10ED100050910702609108027091090280E020E1A1
:10ED20000F9491F28091060290910702A09108023F
:10ED3000B091090280509F4FAF4FBF4F80930602A2
:10ED400090930702A0930802B0930902FFCD80ECD4
:10ED500092EE62E00F94F5F183E792EE60E00F949B
:10ED6000F5F18FE792EE60E00F94F5F18BE892EE0B
:10ED700060E00F94F5F189E992EE60E00F94F5F10F
:10ED800085EA92EE60E00F94F5F183EB92EE60E09D
:10ED90000F94F5F180EC92EE60E00F94F5F187ECC2
:10EDA00092EE60E00F94F5F188ED92EE60E00F9442
:10EDB000F5F18FED92EE60E00F94F5F18AEE92EEB0
:10EDC00060E00F94F5F183E093EEBDCD87EC92EE19
:10EDD00062E00F94F5F181E40F947BF282E40F94EA
:10EDE0007BF283E40F947BF284E40F947BF285E45E
:10EDF0000F947BF286E40F947BF287E40F947BF20E
:10EE000088E40F947BF28AE40F947BF28BE40F94F6
:10EE10007BF28CE40F947BF299CD88ED92EE62E068
:10EE20000F94F5F1772473948824992409C48FED05
:10EE300092EE62E00F94F5F140910A0250910B02BC
:10EE400060910C0270910D0282E020E10F9491F22A
:10EE500080910A0290910B02A0910C02B0910D02D8
:10EE600080509F4FAF4FBF4F80930A0290930B0289
:10EE7000A0930C02B0930D0269CD8AEE92EE62E08F
:10EE80000F94F5F184EE90EE60E00F94F5F18FECC5
:10EE900091EE60E00F94F5F1662477244301CC5D98
:10EEA000DE4F19821882C452D140D401C301B695F5
:10EEB000A79597958795CA5DDE4F88839983AA8326
:10EEC000BB83C652D140CC5DDE4FA881B981C4520C
:10EED000D1401196CC5DDE4FB983A883C452D14096
:10EEE000CD0162E070E00F9434F2B0E2B093C6005E
:10EEF0008091C00086FFFCCF8091C0008064809329
:10EF0000C000EDE2E093C6008091C00086FFFCCF18
:10EF10008091C00080648093C000F0E2F093C6004E
:10EF20008091C00086FFFCCF8091C00080648093F8
:10EF3000C000CA5DDE4FE880F9800A811B81C6529D
:10EF4000D140BB27A12F902F8F2D0F940DF2CA5DBA
:10EF5000DE4F8881C652D1400F940DF2B0E2FB2EF5
:10EF6000F092C6008091C00086FFFCCF8091C00067
:10EF700080648093C0000DE30093C6008091C000C0
:10EF800086FFFCCF8091C00080648093C00010E2B7
:10EF90001093C6008091C00086FFFCCF8091C00016
:10EFA00080648093C0008BBEF3012791C65DDE4F65
:10EFB0002883CA52D140A22EBB24CC24DD2408943D
:10EFC000611C711C811C911C8BBEF3018791282E42
:10EFD0003324442455240894611C711C811C911C09
:10EFE0008BBEF3013791C55DDE4F3883CB52D140E4
:10EFF0000894611C711C811C911C8BBEF30147910C
:10F00000C45DDE4F4883CC52D140ADEFEA2EAFEF66
:10F01000FA2EAFEF0A2FAFEF1A2F6E0C7F1C801E57
:10F02000911E142D032DF22CEE24EA0CFB1C0C1D5A
:10F030001D1D0F940DF220E22093C6008091C000A8
:10F0400086FFFCCF8091C00080648093C000C65DC5
:10F05000DE4F8881CA52D1400F940DF230E23093D6
:10F06000C6008091C00086FFFCCF8091C000806404
:10F070008093C000C45DDE4F8881CC52D1400F9494
:10F080000DF240E24093C6008091C00086FFFCCFA5
:10F090008091C00080648093C000C55DDE4F888190
:10F0A000CB52D1400F940DF250E25093C6008091A4
:10F0B000C00086FFFCCF8091C00080648093C000B8
:10F0C0008FEFE8168FEFF80680E0080780E018075A
:10F0D00031F484E092EE60E00F94C2F1DFC0D80119
:10F0E000C7018070907CA070B0708050904CA040A0
:10F0F000B040D1F52FEF3FE340E050E0E222F322B1
:10F1000004231523CA5DDE4FA880B980CA80DB8046
:10F11000C652D140AE0CBF1CC01ED11EAA0CBB1CD7
:10F12000CC1CDD1C8EE092EE60E00F94C2F1BB2798
:10F13000A12F902F8F2D0F940DF28E2D0F940DF285
:10F1400030E23093C6008091C00086FFFCCF8091F2
:10F15000C00080648093C0004EE34093C60080915D
:10F16000C00086FFFCCF87C08EE09EEFA0E0B0E03D
:10F17000E822F9220A231B239CE0E91694E9F90608
:10F1800090E0090790E0190709F088C0C45DDE4FE0
:10F19000A881CC52D140EA2EFF2400E010E0102FCD
:10F1A0000F2DFE2CEE24C55DDE4FB881CB52D14031
:10F1B000EB0EF11C011D111DD601C501817090706F
:10F1C000A070B070DC0199278827E80EF91E0A1F8D
:10F1D0001B1F20EF30E040E050E0A222B322C42207
:10F1E000D52241E1AA0CBB1CCC1CDD1C4A95D1F7F1
:10F1F000EA0CFB1C0C1D1D1D81E090E0A0E0B0E0BE
:10F20000282239224A225B2235E1220C331C441C7D
:10F21000551C3A95D1F7E20CF31C041D151D57013E
:10F220006801AA0CBB1CCC1CDD1C85E192EE60E0E1
:10F230000F94C2F1C801AA27BB270F940DF2BB2778
:10F24000A12F902F8F2D0F940DF28E2D0F940DF274
:10F2500090E29093C6008091C00086FFFCCF809121
:10F26000C00080648093C000AEE3A093C60080918C
:10F27000C00086FFFCCF8091C00080648093C000F6
:10F28000C601AA27BB270F940DF2BB27AD2D9C2DDD
:10F290008B2D0F940DF28A2D0F940DF20F94DCF14B
:10F2A000CC5DDE4FE881F981C452D140F99709F471
:10F2B0004DCBF4E0EF2EF12C012D112D6E0C7F1CA7
:10F2C000801E911EF2CD83E093EE62E00F94F5F183
:10F2D0008AE192EE60E00F94C2F18091C00087FF56
:10F2E000FCCF1091C6001F751093C6008091C0001E
:10F2F00086FFFCCF8091C00080648093C0000F9493
:10F30000DCF1812F81548A3108F036C1163409F4BA
:10F3100095C0173490F4133409F44EC0143430F40B
:10F320001134F1F0123409F01DC130C0143409F465
:10F3300059C0153409F016C16BC01A3409F4C4C0A1
:10F340001B3438F4173409F48FC0183409F00AC19B
:10F35000A1C01B3409F4D2C01C3409F003C1E8C0B9
:10F360008FEF81B90DC082B1809582B980E090E0C5
:10F37000E0EDF7E03197F1F70196883C9105C1F790
:10F380008091C00087FFEFCF12B8EFC08FEF84B934
:10F390000DC085B1809585B980E090E0E0EDF7E0A3
:10F3A0003197F1F70196883C9105C1F78091C00033
:10F3B00087FFEFCF15B8D9C08FEF87B90DC088B1DF
:10F3C000809588B980E090E0E0EDF7E03197F1F7C3
:10F3D0000196883C9105C1F78091C00087FFEFCF6F
:10F3E00018B8C3C08FEF8AB90DC08BB180958BB9A7
:10F3F00080E090E0E0EDF7E03197F1F70196883C8E
:10F400009105C1F78091C00087FFEFCF1BB8ADC059
:10F410008FEF8DB90DC08EB180958EB980E090E0F0
:10F42000E0EDF7E03197F1F70196883C9105C1F7DF
:10F430008091C00087FFEFCF1EB897C08FEF80BBD1
:10F440000DC081B3809581BB80E090E0E0EDF7E0F6
:10F450003197F1F70196883C9105C1F78091C00082
:10F4600087FFEFCF11BA81C08FEF83BB0DC084B38C
:10F47000809584BB80E090E0E0EDF7E03197F1F714
:10F480000196883C9105C1F78091C00087FFEFCFBE
:10F4900014BA6BC08FEF809301010FC080910201FD
:10F4A00080958093020180E090E0E0EDF7E03197F5
:10F4B000F1F70196883C9105C1F78091C00087FF64
:10F4C000EDCF1092020151C08FEF809304010FC065
:10F4D0008091050180958093050180E090E0E0ED4A
:10F4E000F7E03197F1F70196883C9105C1F78091DB
:10F4F000C00087FFEDCF1092050137C08FEF8093DA
:10F5000007010FC08091080180958093080180E079
:10F5100090E0E0EDF7E03197F1F70196883C910536
:10F52000C1F78091C00087FFEDCF109208011DC088
:10F530008FEF80930A010FC080910B01809580931B
:10F540000B0180E090E0E0EDF7E03197F1F70196F4
:10F55000883C9105C1F78091C00087FFEDCF1092E4
:10F560000B0103C085E292EEEEC98091C00087FFD7
:10F57000FCCF8091C600EAC988E392EEE4C98CE131
:10F5800091EEE1C988249924933011F1943028F444
:10F59000913089F09230B8F408C0953061F195301F
:10F5A000F0F0963009F048C043C02B3109F042C951
:10F5B00091E06BE13FC96227C15DDE4F2883CF52E6
:10F5C000D14092E037C9B22FA0E0622793E032C960
:10F5D000822F90E0A82BB92B622794E02BC92E3004
:10F5E00009F039C3622795E0C05DDE4F19821882A9
:10F5F000C053D1401FC9E1E0F0E0EC0FFD1FC05D3A
:10F60000DE4F08811981C053D140E00FF11F2083E4
:10F610000F5F1F4FC05DDE4F19830883C053D14079
:10F6200062270A171B0709F005C9D80196E002C92D
:10F63000261709F010C303C0973009F0FBC87724E0
:10F640009981933109F412C19431C8F4963009F4C8
:10F65000D8C0973050F4923009F406C1933009F4C1
:10F660006DC0913009F059C253C0913109F477C08F
:10F67000923108F0BBC0903109F04FC2F5C098310B
:10F6800009F487C0993150F4953109F4EFC09531F0
:10F6900008F4C6C1963109F040C2C2C19A3109F4DA
:10F6A0006CC09A3108F491C09B3109F45BC09D3164
:10F6B00009F033C29D81903359F48F81882311F46E
:10F6C0009EE11CC0813011F091E018C098E916C08D
:10F6D000892F807591F0903539F4E0E0F0E089E011
:10F6E0008093570094910AC0983539F4E3E0F0E034
:10F6F00089E080935700949101C090E01A821B82A8
:10F700008D818C831D829E831F8227E030E009C299
:10F710001A8288E08B8381E48C8386E58D8382E581
:10F720008E8389E48F8383E5888780E589878FE5E9
:10F730008A8782E38B872BE030E0F3C18A818139AD
:10F7400041F0823941F0803911F48FE005C080E04A
:10F7500003C082E001C08AE01A828B8344C0772410
:10F76000739482C08D81882311F48EE12CC0813086
:10F7700011F081E028C088E926C01A82E1E0F0E0BB
:10F7800089E08093570084918B831C8224E030E0D1
:10F79000C8C18B81803589F48C81883039F4E2E0EE
:10F7A000F0E089E08093570084910DC0E0E0F0E044
:10F7B00089E080935700849106C0E3E0F0E089E09F
:10F7C0008093570084911A82DFCF8D81836C99E0FA
:10F7D000E1E0F0E0082E90935700E89507B600FCB2
:10F7E000FDCF1A821B8223E030E09BC180EC8A832C
:10F7F000CE5CDE4F188219821A821B82C253D1401E
:10F800008EC18A8190E0A0E0B0E0582F44273327D2
:10F8100022278B8190E0A0E0B0E0DC0199278827C7
:10F82000282B392B4A2B5B2B8D8190E0A0E0B0E098
:10F83000282B392B4A2B5B2B8C8190E0A0E0B0E089
:10F84000BA2FA92F982F8827282B392B4A2B5B2BCF
:10F85000220F331F441F551FC05EDE4F288339839C
:10F860004A835B83C052D1401A8259C13A81C95C34
:10F87000DE4F3883C753D140CA5CDE4F1882C6536F
:10F88000D1408B81C82EDD24CA5CDE4F488159816E
:10F89000C653D140C42AD52A933109F082C0CE5C28
:10F8A000DE4F88819981AA81BB81C253D1408050AB
:10F8B000904CA340B04030F583E0CE5CDE4FE88052
:10F8C000F9800A811B81C253D140F70100935B008C
:10F8D00080935700E89507B600FCFDCFCE5CDE4F65
:10F8E000088119812A813B81C253D14000501F4FAA
:10F8F0002F4F3F4FCE5CDE4F088319832A833B8313
:10F90000C253D140C05EDE4F488159816A817B81FC
:10F91000C052D140DE011B9631E08C9111962C91A2
:10F9200011971296C75CDE4F2883C953D140C85C3B
:10F93000DE4F1882C853D14090E0C85CDE4FE881AA
:10F94000F981C853D1408E2B9F2B0C01FA01609393
:10F950005B0030935700E89511244E5F5F4F6F4F67
:10F960007F4F0EEFE02E0FEFF02ECE0CDF1CC114F8
:10F97000D10499F685E0C05EDE4F088119812A81A5
:10F980003B81C052D140F80120935B008093570027
:10F99000E89507B600FCFDCF81E180935700E8951C
:10F9A00035C0C05EDE4F88819981AA81BB81C0527B
:10F9B000D140B695A795979587957C018601ABE0D8
:10F9C000AA2EB12CAC0EBD1E0BC0D5016D915D01F0
:10F9D000C7010F947FFE0894E11CF11C01501040F8
:10F9E0000115110591F7A60160E070E0440F551F65
:10F9F000661F771FC05EDE4FE880F9800A811B8199
:10FA0000C052D1404E0D5F1D601F711F1A82C05E33
:10FA1000DE4F488359836A837B83C052D1407FC0C5
:10FA2000FA80C55CDE4FF882CB53D140C65CDE4F16
:10FA30001882CA53D1408B81C82EDD24C65CDE4FAC
:10FA400008811981CA53D140C02AD12A1A828981DA
:10FA5000BE016D5F7F4F843121F59601C05EDE4FA0
:10FA6000E880F9800A811B81C052D1400BBFF701A9
:10FA700087919691DB018C9311969C936E5F7F4FDB
:10FA8000D801C7010296A11DB11DC05EDE4F88835B
:10FA90009983AA83BB83C052D14022503040F1F6F3
:10FAA00036C0C05EDE4F288139814A815B81C052F9
:10FAB000D1400894C108D108760100E010E0089414
:10FAC000C11CD11C0894E11CF11C011D111DE20E8A
:10FAD000F31E041F151F21BDBB27A52F942F832FB5
:10FAE00082BD2F5F3F4F4F4F5F4FF89A80B5DB01CC
:10FAF0008D93BD012E153F054007510761F7C05E8C
:10FB0000DE4F288339834A835B83C052D1409601FC
:10FB10002D5F3F4FFB01108204C080EC8A8322E0FE
:10FB200030E08BE18093C6008091C00086FFFCCF5F
:10FB30008091C00080648093C000C15DDE4FF88179
:10FB4000CF52D140F093C6008091C00086FFFCCF19
:10FB50008091C00080648093C000432F3093C60022
:10FB60008091C00086FFFCCF8091C00080648093AC
:10FB7000C000922F2093C6008091C00086FFFCCF6A
:10FB80008091C00080648093C0008EE08093C600A6
:10FB90008091C00086FFFCCF8091C000806480937C
:10FBA000C00065E1C15DDE4FE880CF52D1406E25D7
:10FBB00069276427FE01319610C090819093C6009A
:10FBC0008091C00086FFFCCF31968091C000806498
:10FBD0008093C0006927215030402115310569F715
:10FBE0006093C6008091C00086FFFCCF8091C0006A
:10FBF00080648093C00085B1805885B9772081F4F6
:10FC0000C15DDE4F0881CF52D1400F5FC15DDE4F35
:10FC10000883CF52D14090E0A0E0B0E00D941AF4F8
:10FC200027982F9880E090E020ED37E0F901319798
:10FC3000F1F7019684369105C9F700008091C00064
:10FC40008D7F8093C00081E180935700E895EE2777
:10FC5000FF270994FFCF90E00D941AF497FB092E2B
:10FC600007260AD077FD04D02ED006D000201AF443
