:100000000C9483030C94B4030C94B4030C94B403C5
:100010000C94B4030C94B4030C94B4030C94B40384
:100020000C94B4030C94B4030C94B4030C94B40374
:100030000C94B4030C94B4030C94B4030C94B40364
:100040000C94B4030C94B4030C94B4030C94B40354
:100050000C94B4030C94B4030C94B4030C948E1657
:100060000C94B4030C94FE170C94D4170C94B403A2
:100070000C94B4030C94B4030C94B4030C94B40324
:100080000C94B4030C94B4030C94B4030C94B40314
:100090000C94AA170C9480170C94B4030C94B4031A
:1000A0000C94B4030C94B4030C94B4030C94B403F4
:1000B0000C94B4030C94B4030C94B4030C94B403E4
:1000C0000C94B4030C94B4030C94B4030C9456171E
:1000D0000C942C170C94B4030C9402170C94D8169F
:1000E0000C94B4030C94BB0B0C9411080C949D1449
:1000F0000C9459050C94FD030C9474180C94DE03B5
:100100000C94D20C0C9418050C94BF040C945F064C
:100110000C940B150C94E6030C943D080C94741687
:100120000C9404050C9427050C943C060C940E05C5
:100130000C940F040C946D060C9485080C942A13EF
:100140000C94D1080C94CC040C94050D0C949D12C5
:100150000C9411090C94600B0C940C120C94F90380
:100160000C94DD100C9421100C941C080C941504B4
:100170000C9445050C94F40C0C941D070C94070486
:100180000C94F2040C9432080C94FA080C9428187D
:100190000C94DA030C9431050C9414040C944C0662
:1001A0000C9419040C94FE0C0C94FB070C94E608B8
:1001B0000C94F5120C94DC0C0C94A80C0C944F05C8
:1001C0000C94EF030C94FD070C94EE130C94290C83
:1001D0000C94E0040C94FA040C94D6040C94F705E7
:1001E0000C94E9030C94BF140C9401040C94E203E6
:1001F0000C946C140C9427080C94F3030C94EA04EC
:100200000C94C7040C94D4030C947C070C943B0509
:100210000C940B04000020002300260029002C0071
:100220002F003200000100000301060109013E3EDB
:100230003E20496F54205761746368646F672041A2
:1002400077616B656E00466F726365205075626CF6
:100250006973683A002F696E2C0041542B514D543C
:1002600050554245583D302C312C322C302C726781
:10027000742F0041542B514D545055423D302C3178
:100280002C322C302C7267742F007D0022616F7528
:1002900074223A002C002261696E223A002C00225E
:1002A000646F7574223A002C002264696E223A0051
:1002B0002C007B22637371223A005B537472696E67
:1002C00067205370616365204E4F54204F4B5D0093
:1002D0005B537472205370616365204F4B5D000067
:1002E00041542B514D544F50454E3D302C696F7445
:1002F0002E7265632D67742E636F6D2C3138383024
:1003000000466F726365204F70656E3A004F50452E
:100310004E00464F5243450052455345540000009D
:10032000002B514D545055423A20302C312C300086
:100330002B514D545055423A20302C302C30002B4C
:10034000514D5450554245583A20302C312C3000F4
:100350002B514D5450554245583A20302C302C30BA
:10036000003E0041542B4353510041542B4350490C
:100370004E3F003E3E3E2051756572792043504904
:100380004E20262043535100302C310031002B5198
:100390004D545355423A20302C312C302C30002B08
:1003A000514D54434F4E4E3A20302C302C30002BC0
:1003B000514D544F50454E3A20302C300041542B73
:1003C000514D544F50454E3D302C382E3231302E49
:1003D00038342E32342C313838300041542B514DC2
:1003E000544F50454E3D302C696F742E7265632D0D
:1003F00067742E636F6D2C313838300041542B43B5
:10040000455245473F0041542B43474154543F0018
:1004100041542B4353510041542B4347534E3D31DC
:100420000041542B514D54444953433D30004154F5
:100430002B514D54434C4F53453D300041542B43B9
:1004400045445258533D302C350041542B435343BF
:100450004F4E3D300041542B4350534D533D3000DF
:1004600041542B5153434C4B3D300041542B434698
:10047000554E3D310041542B5149444E534346475C
:100480003D302C312E312E312E312C3232332E355F
:100490002E352E350041542B5153434C4B3D3000EB
:1004A00041542B4346554E3D31003E3E3E20494F80
:1004B0005420434F4E4E454354494F4E20494E49D8
:1004C0005400415449003E3E3E20494F542053457C
:1004D0005249414C204641494C210029003E3E3EB4
:1004E00020494F542053455249414C2050524F42CD
:1004F000452E2E2E20280041542B5153434C4B3D6A
:10050000300041544530003E3E3E2046494E49535E
:100510004820484152445741524520524553455482
:1005200000524459000000000000000000000000DC
:100530003E3E3E20494F54204D4F44554C452049A6
:100540004E49542C205245534554002B4350494E9C
:100550003A204E4F54205245414459002B434D45BB
:10056000204552524F52002B51495552433A2022B6
:100570007064706465616374222C31002B514D549A
:10058000524543563A2000302C31002B434552450A
:10059000473A20302C310031002B43474154543A24
:1005A0002031002B4353513A20002F6F75742C30AB
:1005B0000041542B514D545355423D302C312C7237
:1005C00067742F002C747377682C31576F3D5B363E
:1005D0007641306D0041542B514D54434F4E4E3DAA
:1005E000302C6465765F002B4347534E3A20000061
:1005F000002100240027002A002D003000330001D4
:10060000010000040107010A010000220025002862
:10061000002B002E0031003400020100000501080B
:10062000010B010505050507050808080802020277
:10063000020A0A080804040404010101010101017D
:10064000010303030303030303040707070C0C0C54
:100650000C0C0C0C0C02020202060606060606062C
:10066000060B0B0B0B0B0B0B0B01021020200808C9
:100670001020401020408002010201080402010104
:1006800002040810204080804020100804020180ED
:100690000402018040201008040201080402010144
:1006A000020408102040800102040810204080004D
:1006B000000A0B02090C0D0E0807030401000000DC
:1006C000000000000000000000000000000000002A
:1006D00000000000000000000000001211100000E7
:1006E000000000000000000000000000000000000A
:1006F00000000000005D002C005B005D002C005B32
:1007000000007418281811241FBECFEFD1E2DEBFFD
:10071000CDBF00E00CBF15E0A0E0B2E0E6E3FAE5F3
:1007200000E00BBF02C007900D92A433B107D9F7C8
:1007300022E1A4E3B5E001C01D92AF33B207E1F7B7
:1007400013E0C2E8D3E000E006C021970109802F42
:10075000FE010E940928C138D10780E00807A9F7E7
:100760000E94971C0C94092D0C940000815082313A
:1007700008F05AC0E82FF0E08827EE53FC4F8F4F67
:100780000C940928E203E603D403DA03DE0314041D
:10079000E903EF03F303F903FD03010407040B046A
:1007A00014040F0415041904809180008F7780933E
:1007B00080000895809180008F7DF9CF8091800026
:1007C000877FF5CF84B58F7784BD089584B58F7DFD
:1007D000FBCF8091B0008F778093B0000895809117
:1007E000B0008F7DF9CF809190008F77809390003B
:1007F0000895809190008F7DF9CF80919000877F40
:10080000F5CF8091A0008F778093A000089580910C
:10081000A0008F7DF9CF8091A000877FF5CF8091D8
:1008200020018F77809320010895809120018F7D92
:10083000F9CF80912001877FF5CF1F93CF93DF936E
:10084000282F30E0F901E155F94F8491F901E7597A
:10085000F94FD491F901ED5DF94FC491CC23A9F082
:10086000162F81110E94B603EC2FF0E0EE0FFF1F50
:10087000E75FF94FA591B4918FB7F894EC911111FE
:1008800008C0D095DE23DC938FBFDF91CF911F91FD
:100890000895DE2BF8CFCF93DF9390E0FC01E7596A
:1008A000F94F24918D5D994FFC0184918823C9F003
:1008B00090E0880F991FFC01E151FA4FA591B49186
:1008C000FC01E75FF94FC591D49161110DC09FB74D
:1008D000F8948C91209582238C93888128232883F7
:1008E0009FBFDF91CF910895623051F49FB7F89484
:1008F0003C91822F809583238C93E8812E2BEFCF20
:100900008FB7F894EC912E2B2C938FBFEACF1F93C7
:10091000CF93DF93182FEB0161E00E944B042097E7
:1009200039F460E0812FDF91CF911F910C941D0469
:10093000CF3FD10511F461E0F5CFE12FF0E0E155B3
:10094000F94FE491E150E23108F0B3C0F0E08827BC
:10095000E355FB4F8F4F0C940928BF04C704CC0408
:10096000D604E0045905EA04F204FA0404050E056D
:1009700018052705310559053B0545054F0584B583
:10098000806884BDC7BDDF91CF911F91089584B564
:10099000806284BDC8BDF7CF80918000806880935D
:1009A0008000D0938900C0938800EDCF80918000B3
:1009B000806280938000D0938B00C0938A00E3CF45
:1009C00080918000886080938000D0938D00C093D8
:1009D0008C00D9CF8091B00080688093B000C09324
:1009E000B300D1CF8091B00080628093B000C093FB
:1009F000B400C9CF80919000806880939000D0931C
:100A00009900C0939800BFCF80919000806280933E
:100A10009000D0939B00C0939A00B5CF8091900036
:100A2000886080939000D0939D00C0939C00ABCFD2
:100A30008091A00080688093A0008091A0008F7BAF
:100A40008093A000D093A900C093A8009CCF809170
:100A5000A00080628093A000D093AB00C093AA0056
:100A600092CF8091A00088608093A000D093AD00C9
:100A7000C093AC0088CF80912001806880932001D2
:100A8000D0932901C09328017ECF809120018062FC
:100A900080932001D0932B01C0932A0174CF8091C1
:100AA0002001886080932001D0932D01C0932C01F8
:100AB0006ACFC038D1050CF03ECF33CF863308F073
:100AC000865320917B00982F9870277F922B9093CC
:100AD0007B002091000290E4299F900111248770EF
:100AE000822B80937C0080917A00806480937A00CE
:100AF00080917A0086FDFCCF8091780090917900FA
:100B000008953FB7F89480917E0590917F05A0915C
:100B10008005B091810526B5A89B05C02F3F19F02F
:100B20000196A11DB11D3FBFBA2FA92F982F88276D
:100B3000BC01CD01620F711D811D911D42E0660F48
:100B4000771F881F991F4A95D1F708958F929F921A
:100B5000AF92BF92CF92DF92EF92FF926B017C0136
:100B60000E9481054B015C01C114D104E104F10430
:100B7000B9F00E948105681979098A099B09683EC4
:100B800073408105910580F321E0C21AD108E10884
:100B9000F10888EE880E83E0981EA11CB11CE4CFFA
:100BA000FF90EF90DF90CF90BF90AF909F908F908D
:100BB00008952FB7F89460917A0570917B05809124
:100BC0007C0590917D052FBF0895FC01248135811E
:100BD0006217730748F480819181009729F0860F8E
:100BE000971FFC018081089580E008950895AF92D9
:100BF000BF92CF92DF92EF92FF920F931F93CF930A
:100C0000DF936C017B018B01040F151FEB015E016B
:100C1000AE18BF08C017D10759F06991D601ED9100
:100C2000FC910190F081E02DC6011995892B79F78F
:100C3000C501DF91CF911F910F91FF90EF90DF9051
:100C4000CF90BF90AF900895FC01A089B1898C919D
:100C5000A689B78982FD0EC09C91818D8F5F228D00
:100C6000821749F0A18DAE0FBF2FB11D5D969C93E9
:100C7000818F08958C910895FC01538D448D252F0B
:100C800030E0842F90E0821B930B541718F08150B2
:100C90009F4F089501970895FC01918D828D9817BB
:100CA00059F0A28DAE0FBF2FB11D5D968C91928D24
:100CB0009F5F928F90E008958FEF9FEF0895FC0162
:100CC000918D828D981731F0828DE80FF11D858D01
:100CD00090E008958FEF9FEF0895FC01918D828D34
:100CE000981B892F90E008958EE39CE00E946D068A
:100CF00021E0892B09F420E0822F089584E895E013
:100D00000E946D0621E0892B09F420E0822F0895CE
:100D100081EA97E00E946D0621E0892B09F420E02A
:100D2000822F089580ED99E00E946D0621E0892BC5
:100D300009F420E0822F0895CF92DF92EF92FF9284
:100D40001F93CF93DF93EC016A017B01122FE88997
:100D5000F98982E08083C11481EED806E104F104B0
:100D6000A1F060E079E08DE390E0A70196010E9498
:100D7000C4272150310941095109569547953795A6
:100D80002795211580E1380798F0E889F9891082C4
:100D900060E874E88EE190E0A70196010E94C42704
:100DA00021503109410951095695479537952795A5
:100DB000EC85FD853083EE85FF852083188EEC89D8
:100DC000FD891083EA89FB89808180618083EA89BB
:100DD000FB89808188608083EA89FB8980818068C3
:100DE0008083EA89FB8980818F7D8083DF91CF9129
:100DF0001F91FF90EF90DF90CF900895FC01A48D9C
:100E0000A80FB92FB11DA35EBE4F9C91848D8F5F3B
:100E1000848FA689B7899C93A089B1898C918370AE
:100E200080648C93938D848D981306C00288F38917
:100E3000E02D80818F7D808308950F931F93CF9342
:100E4000DF93EC0181E0888F9B8D8C8D981318C007
:100E5000E889F989808185FF13C09FB7F894EE89EE
:100E6000FF896083E889F989808183708064808349
:100E70009FBF81E090E0DF91CF911F910F91089586
:100E8000062F1B8D1F5F8C8D81130CC00FB607FCC6
:100E9000FACFE889F989808185FFF5CFCE010E94DC
:100EA000FE06F1CFEB8DEC0FFD2FF11DE35EFE4F43
:100EB00000839FB7F8941B8FEA89FB898081806249
:100EC000D6CF0F931F93CF93DF938C01D0E0C0E078
:100ED000F801EC0FFD1F6491662341F080ED99E06D
:100EE0000E941D07892B11F02196F2CFCE01DF91D0
:100EF000CF911F910F910895CF93DF93EC01888DCF
:100F00008823B9F0AA89BB89E889F9898C9185FD84
:100F100003C0808186FD0DC00FB607FCF7CF8C9112
:100F200085FFF2CF808185FFEDCFCE010E94FE06C6
:100F3000E9CFDF91CF91089580E090E0892B29F0EF
:100F40000E94920681110E94000080E090E0892BAF
:100F500029F00E94880681110E94000080E090E044
:100F6000892B29F00E947E0681110E94000080E0FA
:100F700090E0892B29F00E94740681110C940000E6
:100F80000895009741F0DC015896ED91FC9104A082
:100F9000F5A1E02D19940895009741F0DC015896D1
:100FA000ED91FC9100A0F1A1E02D199486E190E073
:100FB00090933412809333128FEF9FEF0895CF9365
:100FC000DF93EC01288539854A855B85A8EEB3E07F
:100FD0000E94B9270E94A6058C859D8582309105C7
:100FE00038F0880F991F880F991F05970197F1F71F
:100FF000DF91CF91089581E00895FC01808D8823D1
:1010000049F084859585DC01ED91FC910190F0819A
:10101000E02D199481E090E09383828390E080E05A
:101020000895DC011C968D919C91DC01ED91FC9161
:101030000680F781E02D1994DC011C968D919C911E
:10104000DC01ED91FC910284F385E02D1994DC0123
:101050001C968D919C91DC01ED91FC910484F585A9
:10106000E02D1994DC011C968D919C91DC01ED9191
:10107000FC910084F185E02D19940F931F93CF9379
:10108000DF938C01FC01C485D585E881F981068058
:10109000F781E02DCE011995EA89FB8980818F7E49
:1010A0008083EA89FB898081877F8083EA89FB8945
:1010B00080818F778083EA89FB8980818F7D80831F
:1010C0008A8D898FF8018089918997FD08C060E039
:1010D0000E941D0460E0F80180890E944B04F80121
:1010E0008289938997FD0CC060E00E941D0460E036
:1010F000F8018289DF91CF911F910F910C944B04DD
:10110000DF91CF911F910F9108958F929F92AF928F
:10111000BF92DF92EF92FF920F931F93CF93DF93D3
:10112000EC014A015B01D22E898E9A8EAB8EBC8E69
:101130002D8F3E8F8C899D89009709F08C010C8B37
:101140001D8B8E899F89009709F07C01EE8AFF8AAA
:101150008889998997FD07C061E00E944B0460E08F
:1011600088890E941D048A899B8997FD07C061E0D8
:101170000E944B0461E08A890E941D04188E2D2D67
:10118000B501A4018C859D85DF91CF911F910F91B1
:10119000FF90EF90DF90BF90AF909F908F900C9456
:1011A0009C06EF92FF920F931F93DC01ED91FC914F
:1011B0000488F589E02DA2E3EA2EF12C02E310E089
:1011C00019951F910F91FF90EF900895EF92FF9264
:1011D0000F931F93DC01ED91FC910488F589E02DBC
:1011E0007801890126E030E019951F910F91FF9059
:1011F000EF900895EF92FF920F931F93DC01ED9112
:10120000FC910488F589E02D22E3E22EF12C02E323
:1012100010E026E030E019951F910F91FF90EF90BC
:10122000089590E080E00895982F80ED890F8A302E
:1012300070F08FEB890F863018F489EC890F0895D0
:101240008FE9890F863010F489EAF8CF80E008959D
:10125000CF93DF93EC010E94D905688379838A8359
:101260009B83DF91CF9108950F931F93CF93DF93CB
:10127000EC0120E030E0A90197FD0AC09C01853116
:10128000954014F024E135E0032E000C440B550B7F
:10129000AFEFB0E00E94B92724E135E040E050E034
:1012A0000E949A2789019A01CE0162E370E00E94B0
:1012B000F527CB01072E000CAA0BBB0B800F911F4B
:1012C000A21FB31F8F3F4FEF9407A407B4077CF012
:1012D0008F3F9105A105B1056CF46F5F7F4FCB0186
:1012E000800F911FDF91CF911F910F91089590E092
:1012F00080E0F8CF8FEF90E0F5CF24EC30E040E0D5
:1013000050E0843C91055CF09C01211584E0380795
:1013100014F02FEF33E0032E000C440B550B245C2C
:10132000310941095109A4E1B5E00E94B9272BE335
:1013300033E040E050E00E949A27C90108958F925F
:101340009F92AF92BF92CF92DF92EF92FF92CF9394
:10135000DF93EC016A017B010E94D9058C809D809E
:10136000AE80BF809B01AC01281939094A095B098D
:1013700049015A018885811108C00E94D9056C83F2
:101380007D838E839F8381E08887C814D904EA0413
:10139000FB0408F418860E94D9058C809D80AE80DD
:1013A000BF80681979098A099B0921E0C616D7060A
:1013B000E806F90608F020E0822FDF91CF91FF9038
:1013C000EF90DF90CF90BF90AF909F908F90089557
:1013D000CF93DF93FC012181222331F0EC0160E007
:1013E00080810E941D041982DF91CF910895CF93CF
:1013F000DF93FC012181211107C0EC0161E08081B4
:101400000E941D0481E08983DF91CF910895CF93DD
:10141000DF93EC01862F6883198261E00E944B0400
:10142000CE01DF91CF910C94E809CF92DF92EF9239
:10143000FF920F931F93CF93DF93EC01288130E04D
:10144000F901E155F94F8491F901E759F94F0491F8
:10145000F901ED5DF94F1491112379F081110E948A
:10146000B603E12FF0E0EE0FFF1FEC5EFD4FA591FC
:10147000B491EC910E2311E009F410E089818117F9
:10148000C9F00E94D905CA80DB80EC80FD806C1910
:101490007D098E099F09633371058105910508F067
:1014A0001983DF91CF911F910F91FF90EF90DF9003
:1014B000CF9008950E94D9056A837B838C839D8396
:1014C000F0CFCF92DF92EF92FF920F931F93CF93C3
:1014D000DF93EC01898100E410E0C12CD12C76016E
:1014E000813009F065C000E011E0C12CD12C7601FB
:1014F00088810E945E05092E000CAA0BBB0BC80E4A
:10150000D91EEA1EFB1E0150110991F794E0F694D2
:10151000E794D794C7949A95D1F7DB82CA82FE01EB
:101520003496CE01C296DF0112962D913C9113970D
:101530002D933D938A179B07B9F7DBAACAAA9E0190
:101540002C5C3F4F60E070E0CB0141915191640F02
:10155000751F811D911D2E173F07B9F728E130E057
:1015600040E050E00E94C4273DAB2CAB5CA94DA9E4
:1015700089818130A9F5252F342F203C8EE338074F
:1015800010F02FEB3EE3AFEFBFE00E94E6272FEB1A
:101590003EE340E050E00E949A273FAB2EABDF9144
:1015A000CF911F910F91FF90EF90DF90CF90089512
:1015B00088810E945E05092E000CAA0BBB0BC80E89
:1015C000D91EEA1EFB1E0150110991F786E0F69420
:1015D000E794D794C7948A95D1F7DDAACCAAC6CF51
:1015E000852F942F811524E0920710F08FEF93E060
:1015F0009FAB8EABD4CFCF93DF932091FB0E309176
:10160000FC0E232B89F0FC01C091F70ED091F80E4F
:1016100060817181CE010E94492A009729F08C1BBC
:101620009D0BDF91CF9108958FEF9FEFFACF20911F
:10163000F50E3091F60E232B39F421E0FC01808168
:10164000882361F020E00AC0BC018091F10E9091E6
:10165000F20E0E94392A21E0892BA1F7822F0895EA
:10166000FC0124813581FB01448155812417350714
:10167000E1F4FC0180819181FB016081718100971F
:10168000D1F061157105A1F4232BC1F0FC0180811B
:1016900090E008C0232B91F0FB01808190E09195B0
:1016A0008195910921E0892B09F020E0822F08958E
:1016B0000E94392AF7CF6115710561F721E0F6CF55
:1016C0000E942B2A8F929F92AF92BF92EF92FF922D
:1016D0000F931F93CF93DF93CDB7DEB7A1970FB6CC
:1016E000F894DEBF0FBECDBF7C01FA01CB0119A279
:1016F000223008F42AE08E010F5D1F4F822E912CBC
:10170000B12CA12CBF01A50194010E94C427F901AD
:10171000CA016A3074F5605DD8016E938D01232B88
:10172000242B252B79F790E080E0109789F0FD01BC
:1017300001900020E9F73197AF014A1B5B0BD701FD
:10174000ED91FC910280F381E02DB801C70119955C
:10175000A1960FB6F894DEBF0FBECDBFDF91CF913B
:101760001F910F91FF90EF90BF90AF909F908F903F
:101770000895695CD1CF8F929F92AF92BF92CF9222
:10178000DF92EF92FF920F931F93CF93DF937C0131
:10179000EB016C0182E0C80ED11C4701E5E08E0E22
:1017A000911C10E000E0F60141916F0150E070E003
:1017B00060E02AE0CE010E94620B5C01E881F981C1
:1017C0000190F081E02D6EE2CE0119958A0D9B1DEE
:1017D000080F191FC814D90431F7F701458150E0EB
:1017E00070E060E02AE0CE010E94620B800F911F42
:1017F000DF91CF911F910F91FF90EF90DF90CF90ED
:10180000BF90AF909F908F90089542E050E069E6BE
:1018100072E00C94F705CF93DF930E946107EC010F
:1018200080ED99E00E94050C8C0F9D1FDF91CF91F8
:1018300008958091CB0E81110BC08091CC0E811147
:1018400007C086E492E00E940B0C81E08093CB0EEF
:10185000089510923A058EE292E00C940B0C0F93CF
:101860001F93CF93DF93EC01FB014481558160818D
:1018700071810E94F7058C01CE010E94050C800F3A
:10188000911FDF91CF911F910F910895BC0181EAC3
:1018900097E00E942F0C81EA97E00E947C0761E0AC
:1018A00070E080E090E00C94A6050F931F93CF9317
:1018B000DF938C01EB01FC01808191810097E1F0C5
:1018C0006881798161157105A9F0428153812C816C
:1018D0003D814217530770F00E94422A8C819D81FE
:1018E000F801958384831D821C82DF91CF911F9123
:1018F0000F9108950E94C12888819981F8019183F0
:1019000080838A819B81938382838C819D8195834F
:101910008483198218821B821A82E5CFCF93DF93CA
:10192000EC0188819981009711F00E94C1281982E9
:1019300018821D821C821B821A82DF91CF9108952A
:10194000FC0180819181009711F00C94C1280895C9
:10195000CF93DF93EC0185E292E0998388838C89B1
:101960009D89009711F00E94C1288E899F89009758
:1019700011F00E94C128888D998D009711F00E9466
:10198000C1288A8D9B8D009711F00E94C1288A8101
:101990009B81009721F0DF91CF910C94C107DF91DB
:1019A000CF910895CF93DF93EC010E94A80CCE0154
:1019B000DF91CF910C94C128CF93DF93EC0189E3A1
:1019C00092E0998388838B899C89009711F00E940B
:1019D000C1288A819B81009721F0DF91CF910C94DF
:1019E000C107DF91CF910895CF93DF93EC010E945F
:1019F000DC0CCE01DF91CF910C94C12821E432E0C0
:101A0000FC01318320830C94DC0CCF93DF93EC0139
:101A10000E94FE0CCE01DF91CF910C94C1280F9350
:101A20001F93CF93DF93EC0188819981009759F040
:101A30002A813B812617370730F081E0DF91CF9173
:101A40001F910F9108958B016F5F7F4F0E944A296C
:101A5000009759F0998388831B830A832C813D81E9
:101A6000232B59F7FC011082E8CF80E0E7CFEF92FB
:101A7000FF920F931F93CF93DF938C017B01EB01B8
:101A800009900020E9F72197C61BD70BBE010E94E1
:101A90000F0D811109C0C801DF91CF911F910F91E6
:101AA000FF90EF900C948E0CF801D583C483B7019E
:101AB00080819181DF91CF911F910F91FF90EF90E5
:101AC0000C94422AEF92FF920F931F93CF93DF93D0
:101AD0006115710541F480E0DF91CF911F910F9165
:101AE000FF90EF9008957B01EC01CB010E94472706
:101AF0000097A9F00C811D81080F191FB801CE01B4
:101B00000E940F0D882339F3288139818C819D81B2
:101B1000B701820F931F0E9440271D830C8381E031
:101B2000DBCFEF92FF920F931F93CF93DF9361155B
:101B3000710541F480E0DF91CF911F910F91FF90EB
:101B4000EF90089541155105B1F07B01EC010C8136
:101B50001D81040F151FB8010E940F0D882351F33A
:101B6000288139818C819D81B701820F931F0E944A
:101B7000422A1D830C8381E0DECFEF92FF920F9308
:101B80001F93CF93DF9300D000D01F92CDB7DEB765
:101B90007C01CB014AE08E010F5F1F4FB8010E940C
:101BA0007027F80101900020E9F73197AF01401B41
:101BB000510BB801C7010E94910D27960FB6F894FA
:101BC000DEBF0FBECDBFDF91CF911F910F91FF9070
:101BD000EF900895EF92FF920F931F93CF93DF93AF
:101BE00000D01F92CDB7DEB77C01862F4AE08E0170
:101BF0000F5F1F4FB80190E00E945027F80101903D
:101C00000020E9F73197AF01401B510BB801C70124
:101C10000E94910D0F900F900F900F90DF91CF9138
:101C20001F910F91FF90EF900895FB014481558122
:101C3000608171810C94910DEF92FF920F931F932D
:101C4000CF93DF93EC018B016115710551F0CB014E
:101C50000E9447277C01BC01CE010E940F0D81111B
:101C60000BC0CE010E948E0CCE01DF91CF911F914F
:101C70000F91FF90EF900895FD82EC82B80188816A
:101C800099810E944027F0CF0F931F93CF93DF934A
:101C9000E6ECF1E140E090E080E021E030E05181CD
:101CA000511120E0082E01C0220F0A94EAF7422BBE
:101CB000019636968830910581F740938305E6EBCF
:101CC000F1E140E030E020E08181022E01C0880F88
:101CD0000A94EAF7482B2F5F3F4F329628303105A0
:101CE00099F7409382056FEF76E083E09FE00E94D2
:101CF0001C0E0EE01FE0D0E0C0E0F80166A977A955
:101D000083E09FE00E94BD0DCB30D10531F06DEF37
:101D100076E083E09FE00E94620D2196085C1F4FF1
:101D2000CC30D10551F76BEF76E083E09FE00E9465
:101D3000620D69EF76E08DEF9EE00E941C0E0EEAC8
:101D400011E1D0E0C0E0F80161818DEF9EE00E94DA
:101D5000EA0DC330D10531F067EF76E08DEF9EE0FC
:101D60000E94620D21960E5F1F4FC430D10559F7B6
:101D700065EF76E08DEF9EE0DF91CF911F910F919F
:101D80000C94620DFC011182108213821282158262
:101D900014820C941C0ECF93DF938091CC0E811192
:101DA0005CC0C0918205D091830562EB72E08FEB3D
:101DB0009EE00E941C0E65EE7EE08FEB9EE00E948E
:101DC000150E60EB72E08FEB9EE00E94620D69EAF7
:101DD00072E08FEB9EE00E94620D6D2F8FEB9EE014
:101DE0000E94EA0D67EA72E08FEB9EE00E94620DAE
:101DF0006FE972E08FEB9EE00E94620D6C2F8FEB1B
:101E00009EE00E94EA0D6DE972E08FEB9EE00E9479
:101E1000620D66E972E08FEB9EE00E94620D63E066
:101E20007FE08FEB9EE00E94150E64E972E08FEB7D
:101E30009EE00E94620D6CE872E08FEB9EE00E94D3
:101E4000620D6DEF7EE08FEB9EE00E94150E6AE85A
:101E500072E08FEB9EE00E94620D8CE692E00E94A1
:101E6000170B63E772E0811108C08EE792E00E94D1
:101E7000170B882331F06AE572E085EC9EE00E9442
:101E80001C0E6BEE7EE085EC9EE00E94150E65E573
:101E900072E085EC9EE00E94620D6091C30E70912D
:101EA000C40E85EC9EE0DF91CF910C94BD0DEF92B6
:101EB000FF920F931F93CF93DF93EC017B01198265
:101EC00018821B821A821D821C82FB010190002055
:101ED000E9F731978F01061B170BB8010E940F0D10
:101EE000811109C0CE01DF91CF911F910F91FF9019
:101EF000EF900C948E0C1D830C83B701888199811F
:101F0000DF91CF911F910F91FF90EF900C94422A97
:101F1000AF92BF92CF92DF92EF92FF920F931F93F7
:101F2000CF93DF936C015B017A0189012417350798
:101F300020F48F2D7901042F182F6BE672E0C60173
:101F40000E94570FD5011496CD91DC91EC16FD0639
:101F5000E0F40C171D0708F4E801D501ED91FC91A0
:101F60001197EC0FFD1F108110826D917C916E0D09
:101F70007F1DC60161157105A1F00E94370DF501A5
:101F800080819181C80FD91F1883C601DF91CF913D
:101F90001F910F91FF90EF90DF90CF90BF90AF9087
:101FA00008950E948E0CEBCFBF92CF92DF92EF92FA
:101FB000FF920F931F93CF93DF93CDB7DEB7ED84DE
:101FC000FE84CF84D888B9880B891C89D7011496E0
:101FD0008D919C91892B59F0AE01475E5F4F6F89BF
:101FE000788D8091391290913A120E94632A8D89DE
:101FF0009E89892B31F0C7010E94DF07C7010E942B
:10200000CC07F6018281938180589F4F938382830E
:10201000D7015896ED91FC910484F585E02DB80127
:10202000C6011995F801E80FF91FB0820196DF91FA
:10203000CF911F910F91FF90EF90DF90CF90BF90C5
:1020400008952F923F924F925F926F927F928F925C
:102050009F92AF92BF92CF92DF92EF92FF920F9337
:102060001F93CF93DF93CDB7DEB7C851D2400FB6E1
:10207000F894DEBF0FBECDBFFC01A281B3811097E3
:1020800049F486E190E0909334128093331290E00B
:1020900080E05BC45C017E01FBEFEF1AFEEFFF0AFC
:1020A0005896ED91FC9159970488F589E02DB70178
:1020B000CD0119951816190654F7D50112966D9091
:1020C0007C90C55FDD4F99838883CB50D24086E1F9
:1020D00090E06114710409F432C4D3015896ED9173
:1020E000FC91C280D380A4E0B1E0AC0FBD1FAC0D69
:1020F000BD1D8C91282F30E0CD5EDD4F39832883C4
:10210000C351D240A7014C0D5D1DC15FDD4F598306
:102110004883CF50D240DA019C90092D10E0A6E010
:10212000B1E0AC0FBD1FAC0DBD1D4C90512C542C1B
:102130004424A7E0B1E0AC0FBD1FAC0DBD1D8C91D8
:10214000480E511C1E01BBEF2B1ABDEF3B0AD101FB
:1021500011963C932E9313961C930E93129706841C
:10216000F785E02DBE01655F7D4FC7011995F1012F
:1021700095838483EFEFE90DE73108F0B5C5F0E012
:102180008827EA53FF4E8F4F0C940928DD10DD108D
:102190000C120C129D12F5129D14741674167416FE
:1021A00074167416741674162A13EE136C147416BF
:1021B000741674167416BF140B150230110509F04D
:1021C0004CC0D5011A964D915C911B9718962D9194
:1021D0003C9119975696AD90BC908FE892E0E8E05C
:1021E000F1E0EC0FFD1FEC0DFD1DE080F12CFE2C4D
:1021F000EE24E9E0F1E0EC0FFD1FEC0DFD1D608128
:10220000E60EF11CB70161507109603D774078F12D
:1022100027E02F9320ED2F939F938F93FF92EF92C0
:1022200083EC92E09F938F931F9281E08F9321E044
:1022300030E02C0F3D1F3F932F931F9283E08F932D
:102240003F922F927F926F920E94D40F8C010FB613
:10225000F894DEBF0FBECDBF67C0F5014681578140
:1022600024813581A488B58885E892E0B8CF6201E1
:10227000C41AD50AD7FC08C047018C0C9D1C281530
:102280003905ACF44E0C5F1C9F938F935F924F9275
:102290008BEE92E09F938F931F921F9261E070E00C
:1022A0006C0F7D1F7F936F931F9282E00FC2D3014B
:1022B0005896ED91FC910484F585E02DBE016F5F89
:1022C0007F4FC10119958C010F5F1F4FE1E0F0E0D6
:1022D000EC0FFD1F8E0F9F1F21E0A70147705527B0
:1022E000452B09F420E0F3E0F594E794FA95E1F743
:1022F000E20EDC01EC92F501EC0DFD1D30E020E07A
:1023000090E080E0AF014A195B09481559050CF4CB
:102310006AC0892B49F0E1E0F0E0EC0FFD1FE00F0F
:10232000F11F20830F5F1F4FCD5EDD4F2881398164
:10233000C351D240232B09F406C3D3015896ED9123
:10234000FC910088F189E02DB801CE010196199524
:102350007C01D3015896ED91FC910288F389E02D20
:10236000A701BE016F5F7F4FC30119958B016F3FBE
:102370007F4F39F5F301868181FF23C0C09033126E
:10238000D0903412F2EFCF16FDE2DF0609F0BCC4A4
:10239000D3015896ED91FC91068CF78DE02DC30189
:1023A0001995C3010E94DF07D3015896ED91FC9166
:1023B000048CF58DE02DC3011995D0923412C09292
:1023C0003312F301868181FF03C00F3F100709F22A
:1023D000101611060CF0B7C2E016F10609F4B3C2EC
:1023E0008FEE9BE2ACC2419150E0082E02C0440F38
:1023F000551F0A94E2F7242B352B8730910551F4B1
:10240000A1E0B0E0AC0FBD1FA00FB11F2C930F5F78
:102410001F4F74CF019676CF04301105B1F5F50149
:102420004685578524853585808C918C8FE992E08F
:10243000E8E0F1E0EC0FFD1FEC0DFD1D008110E068
:10244000102F0027E9E0F1E0EC0FFD1FEC0DFD1D62
:102450006081060F111DB80161507109FE013196AE
:102460006F016D37710500F11F922DE72F939F9338
:102470008F931F930F9383EC92E09F938F931F9200
:1024800081E08F93FF93EF93D8CED50152964D9173
:102490005C91539750962D913C9151975A968D90FF
:1024A0009C9084EB92E0C4CF7201E41AF50A5701C4
:1024B000F7FC07C0E00EF11E2E153F057CF4400E20
:1024C000511E9F938F935F924F928BEE92E09F935A
:1024D0008F931F921F92DF92CF92E6CED301589630
:1024E000ED91FC910484F585E02DB601C1011995AB
:1024F000F601E80FF91F000F00839501220F331F2B
:10250000820E931E0196F601E80FF91F8F010C1938
:102510001D09AE14BF040CF007CFD40111968C91A5
:10252000B2E08B0E911C8083D40112978C91818331
:102530002FEFA21AB20A3296E9CFD50116968D91E5
:102540009C911797A201481B590BCE01019657FD8C
:1025500006C014962D913C91421753074CF05F92A0
:102560004F922DE033E03F932F931F921F92B1C102
:10257000E8E0F1E0EC0FFD1FEC0DFD1D208130E0E7
:10258000322F2227E9E0F1E0EC0FFD1FEC0DFD1DDD
:102590006081260F311D2115FFEF3F0719F021152E
:1025A0003105B1F4D5015496ED91FC91E40FF51F7E
:1025B00041E0232B09F440E04083C55FDD4F0881F3
:1025C0001981CB50D240A801B7010E94302AACCE6D
:1025D0005F924F923F932F9326E333E03F932F93E5
:1025E0001F921F929F938F936FC0D50152968D912A
:1025F0009C9153979201281B390BCE01019637FD10
:1026000007C050964D915C915197241735072CF0D7
:102610005F924F9224E733E0A6CF220F331F5A96E2
:10262000ED91FC91E20FF31FA8E0B1E0AC0FBD1FEC
:10263000AC0DBD1D2C9130E0322F2227A9E0B1E076
:10264000AC0FBD1FAC0DBD1D4C91240F311D31834E
:102650002083B3CFE8E0F1E0EC0FFD1FEC0DFD1D92
:10266000808190E0982F8827E9E0F1E0EC0FFD1FD2
:10267000EC0DFD1D2081820F911D9C01215031091F
:10268000203B374070F4EAE0F1E0EC0FFD1FEC0D69
:10269000FD1D2081E8E02E9F9001112428173907A5
:1026A000ECF427E02F9320EB2F939F938F9382EAF4
:1026B00093E09F938F931F9281E08F9321E030E00E
:1026C0002C0F3D1F3F932F931F9283E08F933F92D8
:1026D0002F927F926F920E94D40FB8CDD50116969B
:1026E0002D913C911797F201E21BF30B9F01F7FD2F
:1026F0000CC0BC016E0F7F1F14964D915C91159715
:1027000046175707D4F4480E591E5F924F9286ED34
:1027100093E09F938F931F921F9221E030E02C0F44
:102720003D1F3F932F931F9282E08F933F922F92F2
:102730007F926F920E94D40F89CD56E0C50ED11CB6
:1027400054960D911C91200F311FF90150E040E08B
:1027500081E090E08C0F9D1FC80ED91ECF01801B19
:10276000910B86179707F0F0D3015896ED91FC91E5
:102770000484F585E02DBE016F5F7F4FC10119957F
:10278000A1E0B0E0AC0FBD1FA80FB91FF701E80F23
:10279000F91F24E001900D922A95E1F78C010C5F5E
:1027A0001F4FC2CDCF01821B930BA3E09695879557
:1027B000AA95E1F78C0D9D1D8C5F9E4FDC018C91DD
:1027C00090E0042E02C0959587950A94E2F78170F7
:1027D00081934F5F5F4F47705527C0CFE8E0F1E02E
:1027E000EC0FFD1FEC0DFD1D208130E0322F222764
:1027F000E9E0F1E0EC0FFD1FEC0DFD1D8081280FDD
:10280000311DC90101978B37910570F4EAE0F1E0C1
:10281000EC0FFD1FEC0DFD1D8081B8E08B9FC0010A
:102820001124821793077CF41F928BE78F933F93B9
:102830002F9380E094E09F938F931F9281E08F937A
:10284000CE010196CFCED50152968D919C91539792
:10285000F201E81BF90BCF01F7FD31C0A9014E0FC2
:102860005F1F50966D917C916417750734F1C15FBD
:10287000DD4FE881F981CF50D2409C01220F331FF8
:102880002E193F092C193D09841795070CF06CCFC0
:10289000D5015A966D917C91DB01A20FB31FAE0F4B
:1028A000BF1F668170E0762F66271781610F711D4B
:1028B0006D937C9301963296E7CF420E531E5F9242
:1028C0004F9289E394E09F938F931F921F92CE01C2
:1028D00001969F938F9327CFD3015896ED91FC914A
:1028E0000484F585E02DBE016F5F7F4FC10119950E
:1028F000FE01E80FF91F24EB2283FE01E80FF91F08
:102900002FEF2383DC011396E1E0F0E0EC0FFD1FD5
:10291000AE0FBF1F28E0E8E6F4E001900D922A9583
:10292000E1F78C01055F1F4FE1E0F0E0EC0FFD1FC8
:10293000E80FF91F8AE08083F7CC8DE690E0909352
:1029400034128093331281E090E0C85EDD4F0FB601
:10295000F894DEBF0FBECDBFDF91CF911F910F91D5
:10296000FF90EF90DF90CF90BF90AF909F908F90AF
:102970007F906F905F904F903F902F900895D5017A
:1029800052968D919C915397F201E81BF90BCE0161
:102990000196F7FD3DCE50962D913C915197E2174F
:1029A000F3070CF035CEEE0FFF1F5A962D913C9198
:1029B000E20FF31FAAE0B1E0AC0FBD1FAC0DBD1DCF
:1029C0002C9130E0322F2227ABE0B1E0AC0FBD1FDD
:1029D000AC0DBD1D4C91240F311DA8E0B1E0AC0F32
:1029E000BD1FAC0DBD1D4C91642F70E0762F662786
:1029F000A9E0B1E0AC0FBD1FAC0DBD1D4C91460F61
:102A0000572F511D608171816227732746235723F9
:102A1000242735271CCEE8E0F1E0EC0FFD1FEC0D7C
:102A2000FD1D808190E0982F8827E9E0F1E0EC0F10
:102A3000FD1FEC0DFD1D2081FC01E20FF11DC35FA8
:102A4000DD4FF983E883CD50D240ECE0F1E0EC0FAC
:102A5000FD1FEC0DFD1D808190E0982F8827EDE093
:102A6000F1E0EC0FFD1FEC0DFD1D2081820F911D8B
:102A70009C0121503109DE01119629373105C0F43E
:102A8000C35FDD4F28813981CD50D24021503109BB
:102A90002D37310568F4EEE0F1E0EC0FFD1FEC0D91
:102AA000FD1D40819C01220F331F4217130639F18F
:102AB0001F922DE72F931F9229E72F93C25FDD4FBF
:102AC000F881CE50D240FF93C35FDD4F2881CD50B7
:102AD000D2402F939F938F9381E794E09F938F939E
:102AE0001F9281E08F93BF93AF931F9283E08F93E8
:102AF0003F922F927F926F920E94D40FA7CBEAE071
:102B0000F1E0EC0FFD1FEC0DFD1D208130E0322FB8
:102B10002227EBE0F1E0EC0FFD1FEC0DFD1D4081E5
:102B2000240F311DF501428953898201041B150BC5
:102B3000CF5EDD4F19830883C151D240B901641BB8
:102B4000750BAB014B0117FDE6C0C35FDD4FE8819C
:102B5000F981CD50D240E00FF11FCB5EDD4FF983FC
:102B6000E883C551D240F50160897189CB5EDD4FA4
:102B7000E881F981C551D2406E177F07FCF057FDFF
:102B80001FC0AC01480D591DC95EDD4F59834883F4
:102B9000C751D24064177507E4F4280F391F17FF97
:102BA0000FC03F932F935F924F928DEB94E09F93D2
:102BB0008F931F921F92BF93AF9376CB57FFEDCFAA
:102BC000C35FDD4F68817981CD50D240460E571EDC
:102BD000E8CFF301808D918DFC01248535857D0141
:102BE000BD01CE018B5F9D4FF9011995F701E80FEB
:102BF000F91FC35FDD4F2881CD50D240220F2083C3
:102C0000C15FDD4FE881F981CF50D240AE014B5F0B
:102C10005E4F9401220F331F241B350B2C193D09E5
:102C2000C95EDD4F48815981C751D240841695064F
:102C30000CF443C0F701E80FF91F9801220F331F6E
:102C40002E193F09B901681B790BCB0141E050E017
:102C50004E195F098A010E0F1F1FCB5EDD4F688181
:102C60007981C551D240CF5EDD4FA881B981C15174
:102C7000D240A617B7070CF057CBBC016E0F7F1FD1
:102C8000D5015A962D913C91DB01A20FB31F1196ED
:102C90002C91119721832C912283CF5EDD4F2881C7
:102CA0003981C151D2402F5F3F4FCF5EDD4F398315
:102CB0002883C151D2403296CDCFD5015A964D913D
:102CC0005C91DA01A20FB31FAE0FBF1F428550E027
:102CD000542F44276385460F511D4D935C93BFEFDE
:102CE0008B1A9B0A32969CCF1F929F928EE095E0A2
:102CF0009F938F931F9281E08F939E012F5F3F4F91
:102D00003F932F931F9211CDC3010E94DF07C30190
:102D10000E94CC0752CB77FF40CF43CF1F920F9238
:102D20000FB60F9211242F933F938F939F93AF93DE
:102D3000BF9380917A0590917B05A0917C05B0911D
:102D40007D053091790523E0230F2D3758F5019645
:102D5000A11DB11D2093790580937A0590937B0581
:102D6000A0937C05B0937D0580917E0590917F05B1
:102D7000A0918005B09181050196A11DB11D8093A0
:102D80007E0590937F05A0938005B0938105BF9148
:102D9000AF919F918F913F912F910F900FBE0F9008
:102DA0001F90189526E8230F0296A11DB11DD2CFC2
:102DB0001F920F920FB60F9211240BB60F922F9302
:102DC0003F934F935F936F937F938F939F93AF93B3
:102DD000BF93EF93FF938EE39CE00E94FE06FF916A
:102DE000EF91BF91AF919F918F917F916F915F9183
:102DF0004F913F912F910F900BBE0F900FBE0F90F0
:102E00001F9018951F920F920FB60F9211240BB6B8
:102E10000F922F933F934F935F936F937F938F9373
:102E20009F93AF93BF93EF93FF938EE39CE00E9439
:102E30002406FF91EF91BF91AF919F918F917F9168
:102E40006F915F914F913F912F910F900BBE0F901B
:102E50000FBE0F901F9018951F920F920FB60F92F2
:102E600011240BB60F922F933F934F935F936F9361
:102E70007F938F939F93AF93BF93EF93FF9384E8D8
:102E800095E00E94FE06FF91EF91BF91AF919F9157
:102E90008F917F916F915F914F913F912F910F9003
:102EA0000BBE0F900FBE0F901F9018951F920F92A0
:102EB0000FB60F9211240BB60F922F933F934F939F
:102EC0005F936F937F938F939F93AF93BF93EF9392
:102ED000FF9384E895E00E942406FF91EF91BF9153
:102EE000AF919F918F917F916F915F914F913F91A2
:102EF0002F910F900BBE0F900FBE0F901F90189543
:102F00001F920F920FB60F9211240BB60F922F93B0
:102F10003F934F935F936F937F938F939F93AF9361
:102F2000BF93EF93FF9381EA97E00E94FE06FF9123
:102F3000EF91BF91AF919F918F917F916F915F9131
:102F40004F913F912F910F900BBE0F900FBE0F909E
:102F50001F9018951F920F920FB60F9211240BB667
:102F60000F922F933F934F935F936F937F938F9322
:102F70009F93AF93BF93EF93FF9381EA97E00E94F3
:102F80002406FF91EF91BF91AF919F918F917F9117
:102F90006F915F914F913F912F910F900BBE0F90CA
:102FA0000FBE0F901F9018951F920F920FB60F92A1
:102FB00011240BB60F922F933F934F935F936F9310
:102FC0007F938F939F93AF93BF93EF93FF9380ED86
:102FD00099E00E94FE06FF91EF91BF91AF919F9102
:102FE0008F917F916F915F914F913F912F910F90B2
:102FF0000BBE0F900FBE0F901F9018951F920F924F
:103000000FB60F9211240BB60F922F933F934F934D
:103010005F936F937F938F939F93AF93BF93EF9340
:10302000FF9380ED99E00E942406FF91EF91BF91FC
:10303000AF919F918F917F916F915F914F913F9150
:103040002F910F900BBE0F900FBE0F901F901895F1
:103050008FE19CE00E94FE0C80E89EE00E94A00CA4
:1030600086E89EE00E94A00C8CE89EE00E94A00CE6
:1030700089EB9EE00E94A00C8FEB9EE00E94A00CCA
:1030800085EC9EE00E94A00C8DEC9EE00E94A00CBE
:1030900083ED9EE00E94A00C89ED9EE00E94A00CB2
:1030A0008FED9EE00E94A00C85EE9EE00E94A00C99
:1030B0008BEE9EE00E94A00C81EF9EE00E94A00C8F
:1030C00087EF9EE00E94A00C8DEF9EE00E94A00C76
:1030D00083E09FE00E94A00C86EF91E10E94FE0C2D
:1030E00085E192E10C94A80C4F925F926F927F92CF
:1030F0008F929F92AF92BF92CF92DF92EF92FF9208
:103100000F931F93CF931092410C1092400C88EEB6
:10311000C82E83E0D82EE12CF12CC092420CD09224
:10312000430CE092440CF092450C83E192E09093C2
:103130003F0C80933E0C25E331E030934B0C209301
:103140004A0C24E331E030934D0C20934C0C20E3E7
:1031500031E030934F0C20934E0C21E331E030935B
:10316000510C2093500C22E331E03093530C209308
:10317000520C26E331E03093550C2093540C1092FE
:10318000570C1092580C1092590C10925A0C109225
:10319000870510928605C0928805D0928905E09235
:1031A0008A05F0928B05909385058093840525ED23
:1031B00030E0309391052093900524ED30E030937A
:1031C00093052093920520ED30E0309395052093F0
:1031D000940521ED30E0309397052093960522ED7C
:1031E00030E0309399052093980526ED30E0309338
:1031F0009B0520939A0510929D0510929E051092B2
:103200009F051092A0051092A4071092A307C092E8
:10321000A507D092A607E092A707F092A80790937F
:10322000A2078093A1072DEC30E03093AE072093E6
:10323000AD072CEC30E03093B0072093AF0728ECBB
:1032400030E03093B2072093B10729EC30E030939F
:10325000B4072093B3072AEC30E03093B6072093ED
:10326000B5072EEC30E03093B8072093B7071092E3
:10327000BA071092BB071092BC071092BD071092BC
:10328000D3091092D209C092D409D092D509E09204
:10329000D609F092D7099093D1098093D00985EC93
:1032A00090E09093DD098093DC0984EC90E09093AA
:1032B000DF098093DE0980EC90E09093E109809330
:1032C000E00981EC90E09093E3098093E20982ECBD
:1032D00090E09093E5098093E40986EC90E0909368
:1032E000E7098093E6091092E9091092EA09109221
:1032F000EB091092EC0909E412E01093BF09009366
:10330000BE091092C0091092C1091092C209109210
:10331000C3091093C5090093C4091092C6091092FD
:10332000C7091092C8091092C9091093CB090093DC
:10333000CA091092CC091092CD091092CE091092B0
:10334000CF091092181210921712E9E1F2E188E108
:10335000DF011D928A95E9F78FE292E090931612B1
:10336000809315128DEE9BE0909332128093311270
:103370001092F9111092F811C092FA11D092FB112B
:10338000E092FC11F092FD111092FF111092FE11CB
:103390001092001210920A121092091210920C123E
:1033A00010920B1210920E1210920D121092101217
:1033B00010920F12109212121092111221E4A22EEA
:1033C00022E0B22EB092F711A092F611909314124F
:1033D000809313121092F00B1092EF0BC092F10B2E
:1033E000D092F20BE092F30BF092F40B3FE4832EB9
:1033F00032E0932E9092EE0B8092ED0B80ED99E0EF
:103400009093FA0B8093F90B81E090E09093FC0B82
:103410008093FB0B82E090E09093FE0B8093FD0B7A
:103420008FEF9FEF9093000C8093FF0B1092020C94
:103430001092010C1092040C1092030C1092050CC7
:1034400080E28093C6111092C71160E00E944B0485
:1034500081E28093CC111092CD1160E00E944B0468
:1034600082E28093D2111092D31160E00E944B044B
:1034700083E28093D8111092D91160E00E944B042E
:1034800084E28093DE111092DF1160E00E944B0411
:1034900085E28093E4111092E51160E00E944B04F4
:1034A00086E28093EA111092EB1160E00E944B04D7
:1034B00087E28093F0111092F11160E00E944B04BA
:1034C00068E286EB91E10E94070A69E288EB91E1EC
:1034D0000E94070A6AE28AEB91E10E94070A6BE206
:1034E0008CEB91E10E94070A6CE28EEB91E10E9465
:1034F000070A6DE280EC91E10E94070A6EE282EC1D
:1035000091E10E94070A6FE284EC91E10E94070AB0
:1035100084E08093AE1161E00E944B0485E08093CB
:10352000B01161E00E944B0486E08093B21161E02B
:103530000E944B0487E08093B41161E00E944B0429
:1035400086E380930E0FC1E0C0930F0F60E00E94EE
:103550004B0487E38093460FC093470F60E00E94BF
:103560004B0488E380937E0FC0937F0F60E00E943E
:103570004B0489E38093B60FC093B70F60E00E94BD
:103580004B048AE38093EE0FC093EF0F60E00E943C
:103590004B048BE380932610C093271060E00E94B9
:1035A0004B048CE380935E10C0935F1060E00E9438
:1035B0004B048DE380939610C093971060E00E94B7
:1035C0004B048EE38093CE10C093CF1060E00E9436
:1035D0004B048FE380930611C093071160E00E94B3
:1035E0004B0480E480933E11C0933F1160E00E9441
:1035F0004B0481E480937611C093771160E00E94C0
:103600004B048BE18093090F62E00E944B048CE134
:1036100080930A0F62E00E944B048DE180930B0FB0
:1036200062E00E944B048EE180930C0F62E00E94E6
:103630004B048FE180930D0F62E00E944B046BE618
:1036400072E083E09FE00E94570F6BE672E08DEF1F
:103650009EE00E94570F6BE672E087EF9EE00E94AB
:10366000570F6BE672E081EF9EE00E94570F6BE60A
:1036700072E08BEE9EE00E94570F6BE672E085EEE3
:103680009EE00E94570F6BE672E08FED9EE00E9475
:10369000570F6BE672E089ED9EE00E94570F6BE6D4
:1036A00072E083ED9EE00E94570F6BE672E08DECB6
:1036B0009EE00E94570F1092CC0E1092CB0E6BE63C
:1036C00072E085EC9EE00E94570F6BE672E08FEB94
:1036D0009EE00E94570F6BE672E089EB9EE00E942D
:1036E000570F1092B80E48EB442E4BE0542E612C2D
:1036F000712C4092AF0E5092B00E6092B10E70924B
:10370000B20E1092B30E1092B40E1092B50E10922B
:10371000B60E1092B70E4092A60E5092A70E60926F
:10372000A80E7092A90E1092AA0E1092AB0E1092D3
:10373000AC0E1092AD0E1092AE0E40929D0E5092B5
:103740009E0E60929F0E7092A00E1092A10E10928B
:10375000A20E1092A30E1092A40E1092A50E10921B
:10376000960E1092970E1092980E1092990E10923B
:103770009A0E88EC9FEAA0E0B0E08093920E9093BE
:10378000930EA093940EB093950E10929C0E1092EF
:103790009B0E6BE672E08CE89EE00E94570F6BE692
:1037A00072E086E89EE00E94570F6BE672E080E8C8
:1037B0009EE00E94570F10937B0E00937A0E10929A
:1037C0007C0E10927D0E10927E0E10927F0E109243
:1037D0005E0E10925D0EC0925F0ED092600EE0926F
:1037E000610EF092620E90925C0E80925B0E8EE300
:1037F0009CE09093680E8093670E10926A0E109270
:10380000690E10926C0E10926B0E86E190E0909310
:103810006E0E80936D0E1092700E10926F0E1092BD
:10382000720E1092710E1092730E1092220C109262
:10383000210CC092230CD092240CE092250CF09223
:10384000260C1092280C1092270C1092290C109222
:10385000330C1092320C1092350C1092340C1092E2
:10386000370C1092360C1092390C1092380C1092C2
:103870003B0C10923A0CB092200CA0921F0C8BE5DE
:103880009EE090933D0C80933C0C4092160C50921D
:10389000170C6092180C7092190C10921A0C10925E
:1038A0001B0C10921C0C10921D0C10921E0C1092EE
:1038B000150CEEE0FFE01182F896B1E1EE3AFB075D
:1038C000D1F786EB91E10E94E80988EB91E10E9433
:1038D000E8098AEB91E10E94E8098CEB91E10E94F2
:1038E000E80980E09CE5A6E2B5E080930C0C90939B
:1038F0000D0CA0930E0CB0930F0C1092100C1092A4
:10390000110C1092120C1092130C1092140CCF91F7
:103910001F910F91FF90EF90DF90CF90BF90AF90ED
:103920009F908F907F906F905F904F900895CF936E
:10393000DF93CDB7DEB768970FB6F894DEBF0FBE42
:10394000CDBF789484B5826084BD84B5816084BD28
:1039500085B5826085BD85B5816085BD80916E002D
:10396000816080936E00109281008091810082605E
:10397000809381008091810081608093810080919B
:1039800080008160809380008091B100846080938A
:10399000B1008091B00081608093B000809191006F
:1039A000826080939100809191008160809391006A
:1039B000809190008160809390008091A10082604E
:1039C0008093A1008091A10081608093A1008091EB
:1039D000A00081608093A00080912101826080938B
:1039E000210180912101816080932101809120013A
:1039F00081608093200180917A00846080937A00B6
:103A000080917A00826080937A0080917A00816050
:103A100080937A0080917A00806880937A00109277
:103A2000C10026E040E855E260E070E080ED99E0FA
:103A30000E949C061092000268E070E085EE9EE015
:103A40000E940F0D68E070E08FED9EE00E940F0D68
:103A500068E070E089ED9EE00E940F0D68E070E084
:103A600089EB9EE00E940F0D60E170E081EF9EE027
:103A70000E940F0D60E170E08BEE9EE00E940F0D42
:103A800060E270E08DEF9EE00E940F0D60E270E05A
:103A900080E89EE00E940F0D60E470E083ED9EE000
:103AA0000E940F0D60E470E08DEC9EE00E940F0D0F
:103AB00060E470E085EC9EE00E940F0D60E470E031
:103AC00083E09FE00E940F0D60E870E08CE89EE0CC
:103AD0000E940F0D60E870E08FEB9EE00E940F0DDA
:103AE00060E072E087EF9EE00E940F0D882309F4EA
:103AF0004CC080ED92E00E940B0C61E088E10E94D6
:103B00004B0461E088E10E941D0410923A0581E0B7
:103B100080939A0E89E29CE090939C0E80939B0E7A
:103B200026E040E855E260E070E084E895E00E941D
:103B30009C0688E199E20FB6F894A89580936000FE
:103B40000FBE90936000332433946CE0262E80EDFA
:103B500099E00E946D06181619060CF04EC080ED13
:103B600099E00E944C068D3011F40C94EA268A30BC
:103B700071F389831A8241E050E0BE016F5F7F4F8D
:103B800080E89EE00E94910DE2CF8AEB92E0B3CFF5
:103B900010923A056FED72E080E89EE00E941C0EE4
:103BA000D6CF6DE073E0CE0101960E94C20EBE0139
:103BB0006F5F7F4F80E89EE00E94300B182FCE0190
:103BC00001960E94A00C112399F081E093E00E94DD
:103BD0000B0C60EE72E0CE0101960E94C20ECE0187
:103BE00001960E94460CCE0101960E94A00CD2CFF5
:103BF00080E89EE00E94460CCDCF06EC11E1C801A2
:103C00000E94150A0A5F1F4F21E1063F1207B9F70C
:103C10000EE01FE07801C7010E94610A38E3E30E5D
:103C2000F11C4EEA51E14E155F05A9F70E94440EC2
:103C30000E94CB0E8091BD0E9091BE0E892B09F48F
:103C400065C070E060E089EB9EE00E94E505C82E4B
:103C500061E070E089EB9EE00E94E505E82E63E0FC
:103C600070E089EB9EE00E94E505F82E64E070E0CC
:103C700089EB9EE00E94E505D82E54E4C512A5C14B
:103C80008AE3E8128EC18F2D0E941409F82E8D2D23
:103C90000E94140990E1F99E90011124F82EF22A55
:103CA00084EC91E1F0FC68C10E94E80982EC91E1AA
:103CB000F1FC65C10E94E80980EC91E1F2FC62C16F
:103CC0000E94E8098EEB91E1F3FC5FC10E94E809D4
:103CD0008CEB91E1F4FC5CC10E94E8098AEB91E174
:103CE000F5FC59C10E94E80988EB91E1F6FC56C148
:103CF0000E94E80986EB91E1F7FC64C10E94E809A3
:103D00006EE173E089EB9EE00E941C0E86EC91E16F
:103D10000E94150A8CEC91E10E94150A82ED91E156
:103D20000E94150A88ED91E10E94150A8EED91E13D
:103D30000E94150A8EE09FE00E94610A86E49FE0DF
:103D40000E94610A8EE79FE00E94610A8091440F01
:103D50009091450F0E947D094C0180917C0F9091BC
:103D60007D0F0E947D095C018091B40F9091B50F89
:103D70000E947D096C01C4010E9434097C01C501C7
:103D80000E9434093C01C6010E9434092C0131E231
:103D9000831633E093060CF43AC186EB91E10E945E
:103DA000F7095BEFA516B1040CF43CC188EB91E177
:103DB0000E94F7099FE1C916D1040CF43DC18AEBBA
:103DC00091E10E94F709E092AF11B7017727809146
:103DD000AE110E9487046092B111B30177278091E0
:103DE000B0110E9487044092B311B20177278091ED
:103DF000B2110E9487049091CD1181E0911180E071
:103E00002091150C821751F08093150C992331F0F5
:103E10000E94440E0E94CB0E0E94190C8091C71183
:103E2000882309F413C18AE19CE00E9428098CEBE5
:103E300091E10E94E8090E94D9054B015C01809143
:103E4000750590917605A0917705B0917805A5014B
:103E50009401281B390B4A0B5B0BDA01C901813D28
:103E60009740A105B10508F44EC18091E50E9091EF
:103E7000E60EE12C009719F00E941927E62E6FE15B
:103E800073E0CE0101960E94C20EBE016F5F7F4FAC
:103E900081EF9EE00E94300BF12C81110AC08EE769
:103EA00092E00E94170BFF24F394811102C032E0CC
:103EB000F32ECE0101960E94A00C4BE540933D05E8
:103EC00080913A0590913905890F90913705890FB6
:103ED00080933E05E0923F05F09240058091830576
:103EE000809341058091820580934205EDE3F5E0E2
:103EF000D801D6968C91D697D7969C919683878336
:103F0000085C1F4F3296B5E0E535FB0789F7109244
:103F10005B058091AF1180935C0510925D058091E7
:103F2000B11180935E0510925F058091B31180936B
:103F30006005109261058091B5118093620523E6BA
:103F4000E22E25E0F22E10E000E0B8018BEE9EE0BC
:103F50000E94E505F70181937F010F5F1F4F00313C
:103F6000110599F7EEE3F5E096E380E0915009F44E
:103F7000B1C02191820FFACF0E94F70997CE0E941B
:103F8000F7099ACE0E94F7099DCE0E94F709A0CEAC
:103F90000E94F709A3CE0E94F709A6CE0E94F70956
:103FA000A9CE8FEC8E0D883008F0AACEAE2DA1538D
:103FB000BB0BCD01880F991F8A549E4EB0E3FB16B0
:103FC00009F49CCE0E94F7099BCEE1E4CE1298CE74
:103FD0008FEC8E0D853008F093CE8F2D0E94140942
:103FE000F82E8D2D0E941409F0E1FF9EB0011124DE
:103FF000682B2E2D2153330BF901EE0FFF1FE255D5
:10400000FE4E618370E080810E94870479CE4DE18D
:10401000841643E094060CF0C4CE86EB91E10E9436
:10402000E809BFCE87EFA816B1040CF0C3CE88EB29
:1040300091E10E94E809BECEABE1CA16D1040CF0B2
:10404000C2CE8AEB91E10E94E809BDCE81E02091C9
:104050009410309195102233310508F080E02091C2
:10406000CC103091CD102233310508F48F5F2091B0
:104070000411309105112233310508F48F5F20912E
:104080003C1130913D112233310508F48F5F2091AE
:104090007411309175112233310508F48F5F20912E
:1040A000AC113091AD112233310508F48F5F8330AC
:1040B00008F4B9CE40EE53E964E070E086E19CE09C
:1040C0000E949F09882309F4B6CE8CEB91E10E94EF
:1040D000F709B1CE80937305FDE5F093740548E3CD
:1040E00050E06DE375E084E895E00E94F70584E810
:1040F00095E00E947C078092750590927605A092CB
:104100007705B092780580919A0E882331F10E944C
:10411000D9050091960E1091970E2091980E30912E
:10412000990E601B710B820B930B0091920E1091F4
:10413000930E2091940E3091950E061717072807BD
:10414000390758F4E0919B0EF0919C0E309701F1E5
:10415000199586E99EE00E94280981EA97E00E946D
:104160006D0618161906FCF481EA97E00E944C06C9
:104170008D30C9F08A3089F389831A8241E050E09A
:10418000BE016F5F7F4F87EF9EE00E94910DE5CFEC
:1041900088E198E00FB6F894A895809360000FBE70
:1041A00090936000FFCF67EE75E0CE0101960E940C
:1041B000C20ECE0101960E94FB0A8C0190933C0531
:1041C00080933B05CE0101960E94A00C17FD5EC0B6
:1041D0008EE792E00E94170B8823B9F09801295EC0
:1041E0003F4FA801485F5F4F67EF7EE0CE01019629
:1041F0000E94880FBE016F5F7F4F8BEE9EE00E9492
:10420000550CCE0101960E94A00C8CE692E00E9413
:10421000170B8823B9F098012A5E3F4FA801495F28
:104220005F4F67EF7EE0CE0101960E94880FBE01CE
:104230006F5F7F4F8BEE9EE00E94550CCE01019682
:104240000E94A00C65ED75E083ED9EE00E941C0EBF
:104250006BEE7EE083ED9EE00E94150E64EC75E04F
:1042600083ED9EE00E94620D61EB75E08DEC9EE0B7
:104270000E941C0E6BEE7EE08DEC9EE00E94150EFF
:104280006AEA75E08DEC9EE00E94620D63EA75E0DB
:10429000CE0101960E94C20ECE0101960E94FB0A39
:1042A0008C0190933C0580933B05CE0101960E94C2
:1042B000A00C17FD40C09801285F3F4FA8014A5F3E
:1042C0005F4F67EF7EE0CE0101960E94880FBE012E
:1042D0006F5F7F4F85EE9EE00E94550CCE010196E8
:1042E0000E94A00C8091E90E9091EA0E029718F1BD
:1042F000E091E50EF091E60E309709F09EC4109221
:104300003805E8E3F5E080818C32A9F421E030E063
:1043100050E040E065EE7EE0CE0101960E94880FFD
:10432000BE016F5F7F4F85EE9EE00E94550CCE016F
:1043300001960E94A00C69E975E0CE0101960E94E9
:10434000C20ECE0101960E94FB0A8C01CE0101969D
:104350000E94A00C17FD06C067E975E08FED9EE096
:104360000E941C0E6BE875E0CE0101960E94C20E01
:10437000CE0101960E94FB0A8C01CE0101960E949B
:10438000A00C17FD06C067E875E089ED9EE00E946D
:104390001C0E6CE775E0CE0101960E94C20ECE01A4
:1043A00001960E94FB0A8C0190933C0580933B058B
:1043B000CE0101960E94A00C17FD1DC09801225D40
:1043C0003F4FA801475D5F4F67EF7EE0CE0101964A
:1043D0000E94880FBE016F5F7F4F89EB9EE00E94B5
:1043E000550CCE0101960E94A00C69EB7EE080ED99
:1043F00099E00E942F0C67E675E0CE0101960E94BD
:10440000C20ECE0101960E94FB0A8C01CE010196DC
:104410000E94A00C17FF10923A056CE575E0CE01E2
:1044200001960E94C20ECE0101960E94FB0A8C01E9
:10443000CE0101960E94A00C17FF10923A056BE482
:1044400075E0CE0101960E94C20ECE0101960E9437
:10445000FB0A8C01CE0101960E94A00C17FF10925E
:104460003A0580913A05811150C080E395E00E94A1
:104470000B0C30923A0510923905109237056FE215
:1044800075E087EF9EE00E941C0E6EE275E081EF02
:104490009EE00E941C0E6DE275E08BEE9EE00E9495
:1044A0001C0E6CE275E085EE9EE00E941C0E6BE235
:1044B00075E08FED9EE00E941C0E6AE275E089EDCA
:1044C0009EE00E941C0E69E275E083ED9EE00E9472
:1044D0001C0E68E275E08DEC9EE00E941C0E1092AE
:1044E000CC0E1092CB0E67E275E085EC9EE00E9448
:1044F0001C0E66E275E08FEB9EE00E941C0E65E2EA
:1045000075E089EB9EE00E941C0E80913A05813097
:1045100049F5E0913505F0913605EE0FFF1FEE0FDE
:10452000FF1FE95FFD4F408151816281738126E069
:1045300081EA97E00E949C0660E088E10E941D04E9
:1045400040ED57E060E070E08FEA9EE00E949F0936
:10455000882309F441C061E088E10E941D0422E043
:1045600020933A0580913A058230B1F561E275E019
:10457000CE0101960E94C20ECE0101960E94FB0A56
:104580008C01CE0101960E94A00C17FD58C387E054
:1045900095E00E940B0C62E075E0CE0101960E944E
:1045A000C20ECE0101960E94460CCE0101960E94D9
:1045B000A00C67EF74E0CE0101960E94C20ECE01FE
:1045C00001960E94460CCE0101960E94A00C33E099
:1045D00030933A051092B80E80913A05833019F461
:1045E00086E080933A0580913A058630E1F448EE02
:1045F00053E060E070E08FEA9EE00E949F0988230C
:1046000009F452C062EC74E0CE0101960E94C20E21
:10461000CE0101960E94460CCE0101960E94A00C8C
:1046200089E080933A0580913A058930E9F56EE793
:1046300072E0CE0101960E94570FCE0101960E94B2
:10464000FB0A8C01CE0101960E94A00C6EE772E07D
:1046500017FF13C06CE672E0CE0101960E94570F5F
:10466000CE0101960E94FB0A8C01CE0101960E94A8
:10467000A00C17FD21C06CE672E081EF9EE00E9465
:10468000370D4091F50E5091F60E6091F10E70913C
:10469000F20E80ED99E00E94F7058BE080933A05D9
:1046A00086E99EE00E94280980913A058B3021F42A
:1046B00020923A051092390580913A058C3009F024
:1046C00090C280913905811107C08AEA94E00E9466
:1046D0000B0C43E04093390580913905833009F094
:1046E000A5C048EE53E060E070E086EA9EE00E94DC
:1046F0009F09882309F4BFC060EA74E0CE010196E7
:104700000E94C20ECE0101960E94460CCE01019677
:104710000E94A00C65E974E0CE0101960E94C20ED1
:10472000CE0101960E94460CCE0101960E94A00C7B
:1047300065E774E0CE0101960E94C20ECE0101969B
:104740000E94460CCE0101960E94A00C8CE692E0DD
:104750000E94170B882309F446C06BE674E0CE0173
:1047600001960E94C20ECE0101960E94460CCE0117
:1047700001960E94A00C60E674E0CE0101960E94B2
:10478000C20ECE0101960E94460CCE0101960E94F7
:10479000A00C65E574E0CE0101960E94C20ECE0128
:1047A00001960E94460CCE0101960E94A00C6AE47C
:1047B00074E0CE0101960E94C20ECE0101960E94C5
:1047C000460CCE0101960E94A00C6CE374E0CE0171
:1047D00001960E94C20ECE0101960E94460CCE01A7
:1047E00001960E94A00C6EE274E0CE0101960E9438
:1047F000C20ECE0101960E94460CCE0101960E9487
:10480000A00C61E274E0CE0101960E94C20ECE01BE
:1048100001960E94460CCE0101960E94A00C84E0F5
:104820008093390586E99EE00E9428098091390528
:10483000843009F548EE53E060E070E086EA9EE0DF
:104840000E949F09882371F067E174E0CE01019610
:104850000E94C20ECE0101960E94460CCE01019626
:104860000E94A00C8091EF0E9091F00E0F9719F41A
:1048700085E08093390580913905853059F548EEFA
:1048800053E060E070E086EA9EE00E949F09882382
:1048900071F060E174E0CE0101960E94C20ECE017B
:1048A00001960E94460CCE0101960E94A00C8091B8
:1048B000E50E9091E60E009769F00E941927633685
:1048C00049F0633038F086E08093390586E99EE050
:1048D0000E94280980913905863019F487E0809379
:1048E000390580913905873099F548EE53E060E04D
:1048F00070E086EA9EE00E949F09882371F066E0DE
:1049000074E0CE0101960E94C20ECE0101960E9473
:10491000460CCE0101960E94A00C6CE873E0CE011B
:1049200001960E94C20EBE016F5F7F4F8FED9EE029
:104930000E94300B182FCE0101960E94A00C11236B
:1049400039F088E08093390586E99EE00E942809C5
:1049500080913905883019F489E080933905809178
:104960003905893099F548EE53E060E070E086EA59
:104970009EE00E949F09882371F06CEF73E0CE01E6
:1049800001960E94C20ECE0101960E94460CCE01F5
:1049900001960E94A00C68E873E0CE0101960E9487
:1049A000C20EBE016F5F7F4F89ED9EE00E94300B0B
:1049B000182FCE0101960E94A00C112339F08AE035
:1049C0008093390586E99EE00E9428098091390587
:1049D0008A3009F0A0C18EE792E00E94170B88236D
:1049E00009F476C148EE53E060E070E086EA9EE0AC
:1049F0000E949F096BED73E081117EC180913905A2
:104A00008C3089F448EE53E060E070E086EA9EE086
:104A10000E949F09882319F183ED9EE00E94460CB5
:104A20008DE080933905809139058D30C1F46FE9AF
:104A300073E0CE0101960E94C20ECE0101960E9443
:104A4000FB0A8C01CE0101960E94A00C17FD07C045
:104A50008EE08093390586E99EE00E9428098091C6
:104A600039058E3089F448EE53E060E070E086EA64
:104A70009EE00E949F09882319F18DEC9EE00E9420
:104A8000460C8FE080933905809139058F30C1F451
:104A90006EE873E0CE0101960E94C20ECE0101962F
:104AA0000E94FB0A8C01CE0101960E94A00C17FD0A
:104AB00007C081E18093390586E99EE00E942809BC
:104AC00080913905813129F41092370582E1809374
:104AD000390580913905823109F083C0809137050D
:104AE00081110FC08091CB0E882309F431C110923F
:104AF000CB0E3092CC0E85EC9EE00E94460C30929C
:104B0000370561E673E0CE0101960E94C20ECE0128
:104B100001960E94FB0A8C01CE0101960E94A00C16
:104B200017FD0DC080913705813049F48FEB9EE071
:104B30000E94460C1092CC0E52E05093370560E56F
:104B400073E0CE0143960E94C20ECE0143960E94AE
:104B5000FB0A11E097FF35C06FE373E0CE010D96BD
:104B60000E94C20ECE010D960E94FB0A11E097FF33
:104B700024C060E373E0CE0107960E94C20ECE010E
:104B800007960E94FB0A11E097FF13C061E273E0F1
:104B9000CE0101960E94C20ECE0101960E94FB0A30
:104BA0009095192F111F1127111FCE0101960E94F8
:104BB000A00CCE0107960E94A00CCE010D960E947B
:104BC000A00CCE0143960E94A00C112351F08091BD
:104BD0003705823031F486E99EE00E942809109260
:104BE000370560E273E087EF9EE00E941C0E0E9492
:104BF000D9050091100C1091110C2091120C3091DC
:104C0000130C601B710B820B930B00910C0C109119
:104C10000D0C20910E0C30910F0C0617170728076A
:104C2000390708F0A8956AE070E080E090E00E9403
:104C3000A6050E949C070C94A71D319664CB48EEF4
:104C400053E060E070E08FEA9EE00E949F098823B5
:104C500001F18DED94E00E946107E0913505F0913E
:104C60003605EE0FFF1FEE0FFF1FE95FFD4F40817E
:104C70005181628173812AE080ED99E00E94620B8C
:104C80008BED94E00E940B0C8091B80E8F5F8093A7
:104C9000B80E8091B80E853008F49ECC1092B80EF4
:104CA00086EC94E00E940B0C8091350590913605BE
:104CB00001968230910538F490933605809335053E
:104CC00010923A0589CC1092360510923505F8CF2E
:104CD0008CE692E00E94170B882309F48FCE48EEF1
:104CE00053E060E070E086EA9EE00E949F0988231E
:104CF00009F484CE6DEB73E0CE0101960E94C20EE2
:104D0000CE0101960E94460CCE0101960E94A00C95
:104D10008BE080933905809139058B3009F06ECE98
:104D20006FEA73E0CE0101960E94C20ECE01019699
:104D30000E94FB0A8C01CE0101960E94A00C17FD77
:104D40005DCE2092390586E99EE00E94280956CE64
:104D500040E355E760E070E086EA9EE00E949F092C
:104D6000882341F03092CC0E85EC9EE00E94460CE8
:104D7000309237058091CC0E8111C3CE48EB5BE0B9
:104D800060E070E08DE99EE00E949F09882309F4AD
:104D9000B8CE83E793E00E940B0C6AE673E0CE0185
:104DA00001960E94C20ECE0101960E94460CCE01D1
:104DB00001960E94A00C63E673E0CE0101960E946A
:104DC000C20ECE0101960E94460CCE0101960E94B1
:104DD000A00C97CE68E173E0CE0101960E94C20E4E
:104DE000BE016F5F7F4F80E89EE00E94300B182F5E
:104DF000CE0101960E94A00C11110C94C81D62E115
:104E000073E0CE0101960E94C20EBE016F5F7F4F1C
:104E100080E89EE00E94300B182FCE0101960E9480
:104E2000A00C112311F40C94D11D0E94190C0C94A8
:104E3000CA1D1F93FC0199278827BC01E894119192
:104E40001032E9F3193010F01E30C8F31B3251F064
:104E50001D3249F4689406C00E945B27610F711DE2
:104E6000811D911D119110531A30B0F33EF49095AD
:104E70008095709561957F4F8F4F9F4F1F9108953B
:104E8000FB01DC0105900D920020E1F70895FC0183
:104E900005900020E9F7809590958E0F9F1F08954B
:104EA000BB274A3031F4992322F4BDE290958195D5
:104EB0009F4F0C947127592F482F372F262F660F9D
:104EC000771F881F991F660F771F881F991F620F12
:104ED000731F841F951F660F771F881F991F0895E2
:104EE000BB27FB015527AA27880F991FAA1FA417C4
:104EF00010F0A41B83955051B9F7A05DAA3308F0B8
:104F0000A95DA193009779F7B111B1931192CB01EB
:104F10000C948A27DC01FC01672F71917723E1F75C
:104F2000329704C07C916D9370836291AE17BF0776
:104F3000C8F30895052E97FB1EF400940E94B12734
:104F400057FD07D00E94C42707FC03D04EF40C94F1
:104F5000B12750954095309521953F4F4F4F5F4F6A
:104F6000089590958095709561957F4F8F4F9F4FD5
:104F700008950E94E627A59F900DB49F900DA49FD1
:104F8000800D911D11240895A1E21A2EAA1BBB1BAE
:104F9000FD010DC0AA1FBB1FEE1FFF1FA217B30705
:104FA000E407F50720F0A21BB30BE40BF50B661F1B
:104FB000771F881F991F1A9469F7609570958095DF
:104FC00090959B01AC01BD01CF010895A29FB00156
:104FD000B39FC001A39F700D811D1124911DB29F2D
:104FE000700D811D1124911D089597FB072E16F455
:104FF000009407D077FD09D00E94112807FC05D046
:105000003EF4909581959F4F0895709561957F4FDF
:105010000895EE0FFF1F881F8BBF0790F691E02DBC
:105020001994AA1BBB1B51E107C0AA1FBB1FA617DF
:10503000B70710F0A61BB70B881F991F5A95A9F741
:1050400080959095BC01CD0108950F931F93CF9348
:10505000DF938230910510F482E090E0E0913D1200
:10506000F0913E1230E020E0B0E0A0E0309799F4FB
:105070002115310509F44AC0281B390B24303105AC
:10508000D8F58A819B816115710589F1FB019383B4
:105090008283FE0111C04081518102811381481732
:1050A0005907E0F04817590799F4109761F01296E4
:1050B0000C93129713961C933296CF01DF91CF91E8
:1050C0001F910F91089500933D1210933E12F4CF5B
:1050D0002115310551F04217530738F0A901DB01C2
:1050E0009A01BD01DF01F801C1CFEF01F9CF909323
:1050F0003E1280933D12CDCFFE01E20FF31F81934C
:1051000091932250310939832883D7CF20913B12C4
:1051100030913C12232B41F4209103023091040280
:1051200030933C1220933B122091010230910202F5
:105130002115310541F42DB73EB74091050250913C
:105140000602241B350BE0913B12F0913C12E21752
:10515000F307A0F42E1B3F0B2817390778F0AC019A
:105160004E5F5F4F2417350748F04E0F5F1F509377
:105170003C1240933B12819391939FCFF0E0E0E08B
:105180009CCFCF93DF930097E9F0FC013297138215
:105190001282A0913D12B0913E12ED0130E020E06C
:1051A0001097A1F420813181820F931F20913B122F
:1051B00030913C122817390709F061C0F0933C1276
:1051C000E0933B12DF91CF910895EA01CE17DF07FC
:1051D000E8F54A815B819E0141155105B1F7E9016E
:1051E000FB83EA8349915991C40FD51FEC17FD0742
:1051F00061F4808191810296840F951FE901998362
:105200008883828193819B838A83F0E0E0E0129619
:105210008D919C9113970097B9F52D913C91119721
:10522000CD010296820F931F20913B1230913C12C8
:105230002817390739F6309751F510923E1210921F
:105240003D12B0933C12A0933B12BCCFD383C283D8
:1052500040815181840F951FC817D90761F44E5FB3
:105260005F4F88819981480F591F518340838A81FC
:105270009B81938382832115310509F0B0CFF09390
:105280003E12E0933D129ECFFD01DC01C0CF1382A0
:105290001282D7CF4F925F926F927F928F929F929E
:1052A000AF92BF92CF92DF92EF92FF920F931F9334
:1052B000CF93DF938C01009799F4CB01DF91CF91CD
:1052C0001F910F91FF90EF90DF90CF90BF90AF9024
:1052D0009F908F907F906F905F904F900C942528B7
:1052E000FC01E60FF71F9C0122503109E217F3077A
:1052F00008F4AEC0D901CD91DC911197C617D7073C
:1053000020F1C530D10578F0CE01049786179707B4
:1053100050F0C61BD70B2297C193D1936D937C930A
:10532000CF010E94C128C801DF91CF911F910F9139
:10533000FF90EF90DF90CF90BF90AF909F908F90B5
:105340007F906F905F904F9008955B01AC1ABD0AFB
:105350004C018C0E9D1EA0913D12B0913E12512C1D
:10536000412CF12CE12C109731F580913B1290915A
:105370003C128815990509F05CC04616570608F0DE
:1053800058C08091010290910202009741F48DB7BC
:105390009EB74091050250910602841B950BE817B9
:1053A000F90708F055C0F0933C12E0933B12F90165
:1053B00071836083B8CF8D919C91119712966C90F8
:1053C000129713967C901397A815B90559F56C019F
:1053D00042E0C40ED11CCA14DB0420F1AC014A190E
:1053E0005B09DA011296159780F06282738251830D
:1053F0004083D9016D937C93E114F10471F0D701DE
:105400001396FC93EE9312978ECF22968C0F9D1FCE
:10541000F90191838083F301EFCFF0933E12E09383
:105420003D1281CF4816590608F42C017D01D301A5
:105430009ACFCB010E9425287C01009749F0AE014C
:10544000B8010E94302AC8010E94C12887016BCF91
:1054500010E000E068CF81E090E0F8940C94092D12
:10546000FB01DC0102C001900D9241505040D8F781
:105470000895FB01DC018D91019080190110D9F391
:10548000990B0895FB01DC0101900D920020E1F7DA
:105490000895FB0151915523A9F0BF01DC014D9105
:1054A00045174111E1F759F4CD010190002049F071
:1054B0004D9140154111C9F3FB014111EFCF81E03E
:1054C00090E0019708952F923F924F925F926F92D2
:1054D0007F928F929F92AF92BF92CF92DF92EF9284
:1054E000FF920F931F93CF93DF9300D000D000D093
:1054F0001F921F92CDB7DEB77C013B018A01FC01F0
:1055000017821682838181FFDDC1CE0101965C0185
:10551000F7019381F30193FD859193FF81913F0101
:10552000882309F453C1853239F493FD859193FFA3
:1055300081913F01853229F4B70190E00E947B2CD4
:10554000E7CF912C212C312CFFE1F31538F08B3271
:1055500011F190F4803209F1833229F137FC3CC01B
:1055600020ED280F2A3050F536FE20C08AE0989EA4
:10557000200D1124922E06C08D3291F0803371F7E8
:10558000689430F8F30193FD859193FF81913F0179
:105590008111DACF21C0689431F8689432F8F2CFE3
:1055A000689433F8EFCF689434F8ECCFEAE02E9E9D
:1055B000200D1124222E689435F8E4CF8E3229F480
:1055C00036FC04C1689436F8DDCF8C3619F4689443
:1055D00037F8D8CF8836B1F2982F9F7D9554933005
:1055E000E0F08336A1F18337C1F1833509F063C060
:1055F0002801F2E04F0E511CF801C080D180692DC6
:1056000070E036FC02C06FEF7FEFC6010E94652C90
:105610004C01689437F882010AC00C5F1F4FFFE30A
:10562000F98388248394912C6501E89437F833FE3C
:105630002DC0522C8114910471F5552009F468CFC6
:10564000B70180E290E00E947B2C5A94F6CFF801DB
:10565000808189830E5F1F4FE4CF2801F2E04F0E57
:10566000511CF801C080D180692D70E036FC02C069
:105670006FEF7FEFC6010E94702C4C018201D5CFE5
:10568000B70180E290E00E947B2C2A942814190430
:1056900009F0B0F7CECFF60137FC859137FE819146
:1056A0006F01B70190E00E947B2C51105A94F1E0F9
:1056B0008F1A9108BFCF843619F0893609F077C068
:1056C000F80137FE6BC060817181828193810C5F2C
:1056D0001F4FF32DFF763F2E97FF09C090958095C1
:1056E000709561957F4F8F4F9F4F689437F82AE0F0
:1056F00030E0A5010E94AB2CC82ECA188C2C432C7C
:1057000036FE0CC0E89440F8C91440F434FE05C0DD
:1057100032FC03C0F32DFE7E4F2E892C44FEAAC01E
:10572000FE01EC0DF11D8081803309F09CC0242D19
:10573000297E422E842D8870582E43FCAAC040FE3C
:10574000A4C09C2C821418F42C0C922C981844FEA3
:10575000A6C0B70180E390E00E947B2C42FE09C006
:1057600088E790E041FE02C088E590E0B7010E9422
:105770007B2CC91408F49FC0CA94D12C9FEFC91A7E
:10578000D90ACA0CDB1CF60182916F01B70190E0C7
:105790000E947B2CAC14BD04B1F74FCF60817181A6
:1057A000072E000C880B990B0E5F1F4F92CFD32C46
:1057B000E894D4F82AE030E08537E1F1232D297F01
:1057C000D22E8F36A9F1F0F4883551F1F701868198
:1057D00097812B960FB6F894DEBF0FBECDBFDF9139
:1057E000CF911F910F91FF90EF90DF90CF90BF90DE
:1057F000AF909F908F907F906F905F904F903F9071
:105800002F900895803749F0883701F7D4FE02C001
:105810006894D2F820E130E00DC06894D4F8F6CF57
:1058200034FE03C0822F8660D82E20E132E002C011
:1058300028E030E0F801D7FE0FC0608171818281DD
:1058400093810C5F1F4FA5010E94AB2CC82ECA1874
:105850003D2CE89437F852CF6081718190E080E070
:105860000E5F1F4FF0CF42FC02C0839463CF83943E
:10587000839460CF842D867809F45CCFF6CFB7018E
:1058800080E290E00E947B2C83948214C0F3512C20
:105890005ECF522C5818821408F459CFF8CF842DBB
:1058A000867809F466CF8BE241FE80E247FC8DE208
:1058B000B70190E05CCFB70180E390E00E947B2CC1
:1058C0009A9457CF8FEF9FEF84CFFC0105906150E2
:1058D00070400110D8F7809590958E0F9F1F089506
:1058E000FC016150704001900110D8F780959095AF
:1058F0008E0F9F1F08950F931F93CF93DF93182F41
:10590000092FEB018B8181FD09C01FEF0FEF812F64
:10591000902FDF91CF911F910F91089582FF14C0B6
:105920002E813F818C819D81281739073CF4E881C5
:10593000F981CF0101969983888310838E819F819D
:1059400001969F838E83E3CFE885F985812F199592
:10595000892BA1F3DACFFA01AA27283051F120319F
:1059600081F1E8946F936E7F6E5F7F4F8F4F9F4FF3
:10597000AF4FB1E03ED0B4E03CD0670F781F891F35
:105980009A1FA11D680F791F8A1F911DA11D6A0F03
:10599000711D811D911DA11D20D009F468943F91B6
:1059A0002AE0269F11243019305D3193DEF6CF01B5
:1059B0000895462F4770405D4193B3E00FD0C9F77B
:1059C000F6CF462F4F70405D4A3318F0495D31FDE8
:1059D0004052419302D0A9F7EACFB4E0A69597953B
:1059E000879577956795BA95C9F700976105710511
:1059F00008959B01AC010A2E06945795479537955B
:105A00002795BA95C9F7620F731F841F951FA01DB4
:105A1000089513E0C2E8D3E000E006C0802FFE0145
:105A20000E9409282196011DC338D10780E008078C
:065A3000A9F7F894FFCF76
:105A36000100003F1280008025000000C201000026
:105A46000000001D07F7053C067C076D064C065F47
:105A56000600000000600B000000000000000021AE
:105A660010A80CD20C00000000DC0CF40C000000A6
:105A760000FE0C050D00000000BB0B00000000FD41
:105A860007F7051109110832081C082708FA08D17A
:105A960008E60885083D08FB070D0A005175656391
:105AA60074656C5F4243323630592D434E00454390
:105AB6003830304B00726561645F626974730072DE
:105AC6006561645F696E7075745F62697473007294
:105AD6006561645F696E7075745F7265676973741A
