:020000040000FA
:100000000C9483030C94B4030C94B4030C94B403C5
:100010000C94B4030C94B4030C94B4030C94B40384
:100020000C94B4030C94B4030C94B4030C94B40374
:100030000C94B4030C94B4030C94B4030C94B40364
:100040000C94B4030C94B4030C94B4030C94B40354
:100050000C94B4030C94B4030C94B4030C94D01615
:100060000C94B4030C9440180C9416180C94B4031C
:100070000C94B4030C94B4030C94B4030C94B40324
:100080000C94B4030C94B4030C94B4030C94B40314
:100090000C94EC170C94C2170C94B4030C94B40396
:1000A0000C94B4030C94B4030C94B4030C94B403F4
:1000B0000C94B4030C94B4030C94B4030C94B403E4
:1000C0000C94B4030C94B4030C94B4030C949817DC
:1000D0000C946E170C94B4030C9444170C941A17D8
:1000E0000C94B4030C9427090C9450080C947C08CD
:1000F0000C944D150C9427050C94E5050C94AE1446
:100100000C9430140C949E060C94D4030C94E203CB
:100110000C94DE030C941E0D0C94BF040C9401157A
:100120000C94360D0C94FD0B0C943B090C94B616F4
:100130000C943B050C94EF030C94E0040C94FA042B
:100140000C94E9030C940F040C94C6080C946310EF
:100150000C94FD030C94EA0C0C9431050C946A1871
:100160000C940E050C9452090C9418050C94E6039B
:100170000C94140D0C9414040C94DA030C943C08A5
:100180000C94B6180C94DF120C9466080C948C0630
:100190000C94470D0C94D6040C9401040C945B0849
:1001A0000C94DF140C943A080C94A20B0C946B0C76
:1001B0000C940B040C9404050C9407040C944E123C
:1001C0000C9415040C94C7040C9402060C94450579
:1001D0000C9471080C9412090C94EA040C94F30327
:1001E0000C9419040C94F2040C946C130C941F11CD
:1001F0000C94400D0C9451070C94BB070C943713CE
:100200000C94F9030C944F050C9459050C94CC04F0
:100210000C94B806000020002300260029002C00C2
:100220002F003200000100000301060109013E3EDB
:100230003E20496F54205761746368646F672041A2
:1002400077616B656E00466F726365205075626CF6
:100250006973683A002F696E2C0041542B514D543C
:1002600050554245583D302C312C322C302C726781
:10027000742F0041542B514D545055423D302C3178
:100280002C322C302C7267742F007D0022616F7528
:1002900074223A002C002261696E223A002C00225E
:1002A000646F7574223A002C002264696E223A0051
:1002B0002C007B22637371223A005B537472696E67
:1002C00067205370616365204E4F54204F4B5D0093
:1002D0005B537472205370616365204F4B5D000067
:1002E00041542B514D544F50454E3D302C696F7445
:1002F0002E7265632D67742E636F6D2C3138383024
:1003000000466F726365204F70656E3A004F50452E
:100310004E00464F52434500524553455400002B72
:10032000514D545055423A20302C312C30002B5135
:100330004D545055423A20302C302C30002B514D2A
:100340005450554245583A20302C312C30002B5116
:100350004D5450554245583A20302C302C30003EF8
:100360000041542B4353510041542B4350494E3FBD
:10037000003E3E3E205175657279204350494E2023
:10038000262043535100302C310031002B514D5465
:100390005355423A20302C312C302C30002B514D0B
:1003A00054434F4E4E3A20302C302C30002B514DC0
:1003B000544F50454E3A20302C300041542B514D73
:1003C000544F50454E3D302C382E3231302E38347B
:1003D0002E32342C313838300041542B514D544F8B
:1003E00050454E3D302C696F742E7265632D6774D5
:1003F0002E636F6D2C313838300041542B434552F9
:1004000045473F0041542B43474154543F0041541A
:100410002B4353510041542B4347534E3D31004130
:10042000542B514D54444953433D300041542B51BA
:100430004D54434C4F53453D300041542B434544AC
:100440005258533D302C350041542B4353434F4EAB
:100450003D300041542B4350534D533D30004154E7
:100460002B5153434C4B3D300041542B4346554E8A
:100470003D310041542B5149444E534346473D3092
:100480002C312E312E312E312C3232332E352E3569
:100490002E350041542B5153434C4B3D30004154B9
:1004A0002B4346554E3D31003E3E3E20494F5420A1
:1004B000434F4E4E454354494F4E20494E495400F8
:1004C000415449003E3E3E20494F54205345524935
:1004D000414C204641494C210029003E3E3E2049E6
:1004E0004F542053455249414C2050524F42452EC3
:1004F0002E2E20280041542B5153434C4B3D3000AD
:1005000041544530003E3E3E2046494E4953482026
:100510004841524457415245205245534554005298
:1005200044590000000000000000000000003E3EB2
:100530003E20494F54204D4F44554C4520494E498B
:10054000542C205245534554002B4350494E3A20D9
:100550004E4F54205245414459002B434D452045B0
:1005600052524F52002B51495552433A2022706447
:10057000706465616374222C31002B514D545245D7
:1005800043563A2000302C31002B43455245473A20
:1005900020302C310031002B43474154543A203154
:1005A000002B4353513A20002F6F75742C300041BB
:1005B000542B514D545355423D302C312C7267749D
:1005C0002F002C747377682C31576F3D5B36764162
:1005D000306D0041542B514D54434F4E4E3D302C05
:1005E0006465765F002B4347534E3A2000000000BD
:1005F000002100240027002A002D003000330001D4
:10060000010000040107010A010000220025002862
:10061000002B002E0031003400020100000501080B
:10062000010B010505050507050808080802020277
:10063000020A0A080804040404010101010101017D
:10064000010303030303030303040707070C0C0C54
:100650000C0C0C0C0C02020202060606060606062C
:10066000060B0B0B0B0B0B0B0B01021020200808C9
:100670001020401020408002010201080402010104
:1006800002040810204080804020100804020180ED
:100690000402018040201008040201080402010144
:1006A000020408102040800102040810204080004D
:1006B000000A0B02090C0D0E0807030401000000DC
:1006C000000000000000000000000000000000002A
:1006D00000000000000000000000001211100000E7
:1006E000000000000000000000000000000000000A
:1006F00000000000005D002C005B005D002C005B32
:100700000000B6186A1811241FBECFEFD1E2DEBF79
:10071000CDBF00E00CBF15E0A0E0B2E0ECEFF9E5E2
:1007200000E00BBF02C007900D92A433B107D9F7C8
:100730002AE1A4E3B5E001C01D92A634B207E1F7B7
:1007400013E0C2E8D3E000E006C021970109802F42
:10075000FE010E94EC27C138D10780E00807A9F705
:100760000E94D91C0C94EC2C0C9400008150823116
:1007700008F05AC0E82FF0E08827EE53FC4F8F4F67
:100780000C94EC27E203E603D403DA03DE0314043B
:10079000E903EF03F303F903FD03010407040B046A
:1007A00014040F0415041904809180008F7780933E
:1007B00080000895809180008F7DF9CF8091800026
:1007C000877FF5CF84B58F7784BD089584B58F7DFD
:1007D000FBCF8091B0008F778093B0000895809117
:1007E000B0008F7DF9CF809190008F77809390003B
:1007F0000895809190008F7DF9CF80919000877F40
:10080000F5CF8091A0008F778093A000089580910C
:10081000A0008F7DF9CF8091A000877FF5CF8091D8
:1008200020018F77809320010895809120018F7D92
:10083000F9CF80912001877FF5CF1F93CF93DF936E
:10084000282F30E0F901E155F94F8491F901E7597A
:10085000F94FD491F901ED5DF94FC491CC23A9F082
:10086000162F81110E94B603EC2FF0E0EE0FFF1F50
:10087000E75FF94FA591B4918FB7F894EC911111FE
:1008800008C0D095DE23DC938FBFDF91CF911F91FD
:100890000895DE2BF8CFCF93DF9390E0FC01E7596A
:1008A000F94F24918D5D994FFC0184918823C9F003
:1008B00090E0880F991FFC01E151FA4FA591B49186
:1008C000FC01E75FF94FC591D49161110DC09FB74D
:1008D000F8948C91209582238C93888128232883F7
:1008E0009FBFDF91CF910895623051F49FB7F89484
:1008F0003C91822F809583238C93E8812E2BEFCF20
:100900008FB7F894EC912E2B2C938FBFEACF1F93C7
:10091000CF93DF93182FEB0161E00E944B042097E7
:1009200039F460E0812FDF91CF911F910C941D0469
:10093000CF3FD10511F461E0F5CFE12FF0E0E155B3
:10094000F94FE491E150E23108F0B3C0F0E08827BC
:10095000E355FB4F8F4F0C94EC27BF04C704CC0426
:10096000D604E0045905EA04F204FA0404050E056D
:1009700018052705310559053B0545054F0584B583
:10098000806884BDC7BDDF91CF911F91089584B564
:10099000806284BDC8BDF7CF80918000806880935D
:1009A0008000D0938900C0938800EDCF80918000B3
:1009B000806280938000D0938B00C0938A00E3CF45
:1009C00080918000886080938000D0938D00C093D8
:1009D0008C00D9CF8091B00080688093B000C09324
:1009E000B300D1CF8091B00080628093B000C093FB
:1009F000B400C9CF80919000806880939000D0931C
:100A00009900C0939800BFCF80919000806280933E
:100A10009000D0939B00C0939A00B5CF8091900036
:100A2000886080939000D0939D00C0939C00ABCFD2
:100A30008091A00080688093A0008091A0008F7BAF
:100A40008093A000D093A900C093A8009CCF809170
:100A5000A00080628093A000D093AB00C093AA0056
:100A600092CF8091A00088608093A000D093AD00C9
:100A7000C093AC0088CF80912001806880932001D2
:100A8000D0932901C09328017ECF809120018062FC
:100A900080932001D0932B01C0932A0174CF8091C1
:100AA0002001886080932001D0932D01C0932C01F8
:100AB0006ACFC038D1050CF03ECF33CF863308F073
:100AC000865320917B00982F9870277F922B9093CC
:100AD0007B002091000290E4299F900111248770EF
:100AE000822B80937C0080917A00806480937A00CE
:100AF00080917A0086FDFCCF8091780090917900FA
:100B000008953FB7F89480917E0590917F05A0915C
:100B10008005B091810526B5A89B05C02F3F19F02F
:100B20000196A11DB11D3FBFBA2FA92F982F88276D
:100B3000BC01CD01620F711D811D911D42E0660F48
:100B4000771F881F991F4A95D1F708958F929F921A
:100B5000AF92BF92CF92DF92EF92FF926B017C0136
:100B60000E9481054B015C01C114D104E104F10430
:100B7000B9F00E948105681979098A099B09683EC4
:100B800073408105910580F321E0C21AD108E10884
:100B9000F10888EE880E83E0981EA11CB11CE4CFFA
:100BA000FF90EF90DF90CF90BF90AF909F908F908D
:100BB00008952FB7F89460917A0570917B05809124
:100BC0007C0590917D052FBF0895FC01218D328D0C
:100BD000838D948DA901481B590BCA01917008950A
:100BE000FC01248135816217730748F4808191816B
:100BF000009729F0860F971FFC018081089580E0FF
:100C000008950895AF92BF92CF92DF92EF92FF9234
:100C10000F931F93CF93DF936C017B018B01040F24
:100C2000151FEB015E01AE18BF08C017D10759F0C0
:100C30006991D601ED91FC910190F081E02DC60102
:100C40001995892B79F7C501DF91CF911F910F91EC
:100C5000FF90EF90DF90CF90BF90AF9008952091DC
:100C60005A1230915B1280915C1290915D12281B98
:100C7000390B317081E0232B09F480E00895209135
:100C80009D0530919E0580919F059091A005281BA0
:100C9000390B317081E0232B09F480E00895209115
:100CA000BE093091BF098091C0099091C109281BEC
:100CB000390B317081E0232B09F480E008952091F5
:100CC000F10D3091F20D8091F30D9091F40D281BF0
:100CD000390B317081E0232B09F480E00895FC0189
:100CE000A089B1898C91A689B78982FD13C02C9106
:100CF000818D928D01969170438D548D8417950747
:100D000051F0A18DB28DAE0FBF1F91962C93928F93
:100D1000818F08958C9108954FB7F894FC01258D2B
:100D2000368D878D90A14FBF2817390728F0815045
:100D30009E4F821B930B08950197FBCFFC01218DE1
:100D4000328D838D948D2817390779F0A38DB48D5A
:100D5000AE0FBF1F91968C91238D348D2F5F3F4F27
:100D60003170348F238F90E008958FEF9FEF0895B7
:100D7000FC01218D328D838D948D2817390739F030
:100D8000838D948DE80FF91F81A190E008958FEF76
:100D90009FEF0895CF92DF92EF92FF921F93CF9330
:100DA000DF93EC016A017B01122FE889F98982E067
:100DB0008083C11481EED806E104F104A1F060E063
:100DC00079E08DE390E0A70196010E94A7272150CA
:100DD00031094109510956954795379527952115B0
:100DE00080E1380798F0E889F989108260E874E8B2
:100DF0008EE190E0A70196010E94A72721503109BA
:100E0000410951095695479537952795EC85FD85FC
:100E10003083EE85FF852083188EEC89FD89108351
:100E2000EA89FB89808180618083EA89FB898081EE
:100E300088608083EA89FB89808180688083EA8971
:100E4000FB8980818F7D8083DF91CF911F91FF90FF
:100E5000EF90DF90CF900895FC01A78DB0A1A80F6F
:100E6000B91FAF5DBD4F2C91878D90A101969170F8
:100E700090A3878FA689B7892C93A089B1898C917B
:100E8000837080648C93258D368D878D90A1281773
:100E9000390731F40288F389E02D80818F7D8083CA
:100EA0000895FF920F931F93CF93DF93EC0181E09E
:100EB000888F2D8D3E8D8F8D98A128173907C9F405
:100EC000E889F989808185FF14C09FB7F894EE897D
:100ED000FF896083E889F9898081837080648083D9
:100EE0009FBF81E090E0DF91CF911F910F91FF9024
:100EF0000895F62E0D8D1E8D0F5F1F4F11708F8D73
:100F000098A18017910761F40FB607FCF8CFE88924
:100F1000F989808185FFF3CFCE010E942C07EFCFA6
:100F2000ED8DFE8DEC0FFD1FEF5DFD4FF0829FB745
:100F3000F8941E8F0D8FEA89FB8980818062CFCF64
:100F40000F931F93CF93DF938C01D0E0C0E0F801A3
:100F5000EC0FFD1F6491662341F088ED9DE00E9437
:100F60005107892B11F02196F2CFCE01DF91CF915D
:100F70001F910F910895CF93DF93EC01888D882303
:100F8000B9F0AA89BB89E889F9898C9185FD03C0EC
:100F9000808186FD0DC00FB607FCF7CF8C9185FFD1
:100FA000F2CF808185FFEDCFCE010E942C07E9CFE3
:100FB000DF91CF91089580E090E0892B29F00E9485
:100FC0005F0681110E94000080E090E0892B29F0EB
:100FD0000E944F0681110E94000080E090E0892B62
:100FE00029F00E943F0681110E94000080E090E0FD
:100FF000892B29F00E942F0681110C94000008957E
:10100000009741F0DC015896ED91FC9104A0F5A108
:10101000E02D19940895009741F0DC015896ED9168
:10102000FC9100A0F1A1E02D199486E190E090934D
:101030003B1A80933A1A8FEF9FEF0895CF93DF9377
:10104000EC01288539854A855B85A8EEB3E00E94CE
:101050009C270E94A6058C859D858230910538F0DD
:10106000880F991F880F991F05970197F1F7DF9156
:10107000CF91089581E00895FC01808D882349F087
:1010800084859585DC01ED91FC910190F081E02D46
:10109000199481E090E09383828390E080E008954A
:1010A000DC011C968D919C91DC01ED91FC910680F8
:1010B000F781E02D1994DC011C968D919C91DC0147
:1010C000ED91FC910284F385E02D1994DC011C96CE
:1010D0008D919C91DC01ED91FC910484F585E02DCE
:1010E0001994DC011C968D919C91DC01ED91FC9191
:1010F0000084F185E02D19940F931F93CF93DF9314
:101100008C01FC01C485D585E881F9810680F781D1
:10111000E02DCE011995EA89FB8980818F7E80833D
:10112000EA89FB898081877F8083EA89FB898081C6
:101130008F778083EA89FB8980818F7D80838B8D87
:101140009C8D9A8F898FF8018089918997FD08C0BD
:1011500060E00E941D0460E0F80180890E944B0459
:10116000F8018289938997FD0CC060E00E941D04FC
:1011700060E0F8018289DF91CF911F910F910C946B
:101180004B04DF91CF911F910F9108958F929F9201
:10119000AF92BF92DF92EF92FF920F931F93CF9384
:1011A000DF93EC014A015B01D22E898E9A8EAB8EC1
:1011B000BC8E2D8F3E8F8C899D89009709F08C0104
:1011C0000C8B1D8B8E899F89009709F07C01EE8A1C
:1011D000FF8A8889998997FD07C061E00E944B04C6
:1011E00060E088890E941D048A899B8997FD07C059
:1011F00061E00E944B0461E08A890E941D04188E00
:101200002D2DB501A4018C859D85DF91CF911F9176
:101210000F91FF90EF90DF90BF90AF909F908F90D5
:101220000C94CA06EF92FF920F931F93DC01ED918D
:10123000FC910488F589E02DA2E3EA2EF12C02E36B
:1012400010E019951F910F91FF90EF900895EF9284
:10125000FF920F931F93DC01ED91FC910488F589B7
:10126000E02D7801890126E030E019951F910F915A
:10127000FF90EF900895EF92FF920F931F93DC0180
:10128000ED91FC910488F589E02D22E3E22EF12C0A
:1012900002E310E026E030E019951F910F91FF90D6
:1012A000EF90089590E080E00895982F80ED890FE9
:1012B0008A3070F08FEB890F863018F489EC890F33
:1012C00008958FE9890F863010F489EAF8CF80E01D
:1012D0000895CF93DF93EC010E94D9056883798349
:1012E0008A839B83DF91CF9108950F931F93CF93B0
:1012F000DF93EC0120E030E0A90197FD0AC09C01DA
:101300008531954014F024E135E0032E000C440BA8
:10131000550BAFEFB0E00E949C2724E135E040E0A0
:1013200050E00E947D2789019A01CE0162E370E0BE
:101330000E94D827CB01072E000CAA0BBB0B800FF5
:10134000911FA21FB31F8F3F4FEF9407A407B4074D
:101350007CF08F3F9105A105B1056CF46F5F7F4F65
:10136000CB01800F911FDF91CF911F910F910895B5
:1013700090E080E0F8CF8FEF90E0F5CF24EC30E004
:1013800040E050E0843C91055CF09C01211584E034
:10139000380714F02FEF33E0032E000C440B550BED
:1013A000245C310941095109A4E1B5E00E949C2760
:1013B0002BE333E040E050E00E947D27C90108950F
:1013C0008F929F92AF92BF92CF92DF92EF92FF9255
:1013D000CF93DF93EC016B010E94D9058C809D8037
:1013E000AE80BF809B01AC01281939094A095B090D
:1013F00049015A01F12CE12C8885811108C00E9415
:10140000D9056C837D838E839F8381E08887C81490
:10141000D904EA04FB0408F418860E94D9058C80DC
:101420009D80AE80BF80681979098A099B0921E0F7
:10143000C616D706E806F90608F020E0822FDF91ED
:10144000CF91FF90EF90DF90CF90BF90AF909F90A3
:101450008F900895CF93DF93FC012181222331F0F7
:10146000EC0160E080810E941D041982DF91CF9120
:101470000895CF93DF93FC012181211107C0EC0176
:1014800061E080810E941D0481E08983DF91CF911A
:101490000895CF93DF93EC01862F6883198261E072
:1014A0000E944B04CE01DF91CF910C942A0ACF9277
:1014B000DF92EF92FF920F931F93CF93DF93EC0194
:1014C000288130E0F901E155F94F8491F901E7599C
:1014D000F94F0491F901ED5DF94F1491112379F061
:1014E00081110E94B603E12FF0E0EE0FFF1FEC5ECA
:1014F000FD4FA591B491EC910E2311E009F410E099
:1015000089818117C9F00E94D905CA80DB80EC80EF
:10151000FD806C197D098E099F0963337105810572
:10152000910508F01983DF91CF911F910F91FF90E2
:10153000EF90DF90CF9008950E94D9056A837B8356
:101540008C839D83F0CFCF92DF92EF92FF920F9327
:101550001F93CF93DF93EC01898100E410E0C12C4D
:10156000D12C7601813009F065C000E011E0C12C7A
:10157000D12C760188810E945E05092E000CAA0BF1
:10158000BB0BC80ED91EEA1EFB1E0150110991F7B4
:1015900094E0F694E794D794C7949A95D1F7DB82B8
:1015A000CA82FE013496CE01C296DF0112962D91B9
:1015B0003C9113972D933D938A179B07B9F7DBAAAC
:1015C000CAAA9E012C5C3F4F60E070E0CB014191C4
:1015D0005191640F751F811D911D2E173F07B9F79B
:1015E00028E130E040E050E00E94A7273DAB2CAB63
:1015F0005CA94DA989818130A9F5252F342F203C84
:101600008EE3380710F02FEB3EE3AFEFBFE00E9410
:10161000C9272FEB3EE340E050E00E947D273FAB1F
:101620002EABDF91CF911F910F91FF90EF90DF9044
:10163000CF90089588810E945E05092E000CAA0BA8
:10164000BB0BC80ED91EEA1EFB1E0150110991F7F3
:1016500086E0F694E794D794C7948A95D1F7DDAAEB
:10166000CCAAC6CF852F942F811524E0920710F0C5
:101670008FEF93E09FAB8EABD4CFCF93DF932091CE
:10168000021730910317232B89F0FC01C091FE163D
:10169000D091FF1660817181CE010E942C2A0097A3
:1016A00029F08C1B9D0BDF91CF9108958FEF9FEF59
:1016B000FACF2091FC163091FD16232B39F421E04E
:1016C000FC018081882361F020E00AC0BC01809188
:1016D000F8169091F9160E941C2A21E0892BA1F797
:1016E000822F0895FC0124813581FB0144815581BD
:1016F00024173507E1F4FC0180819181FB016081B1
:1017000071810097D1F061157105A1F4232BC1F00F
:10171000FC01808190E008C0232B91F0FB018081C7
:1017200090E091958195910921E0892B09F020E0C5
:10173000822F08950E941C2AF7CF6115710561F769
:1017400021E0F6CF0E940E2A8F929F92AF92BF9215
:10175000EF92FF920F931F93CF93DF93CDB7DEB736
:10176000A1970FB6F894DEBF0FBECDBF7C01FA0182
:10177000CB0119A2223008F42AE08E010F5D1F4F21
:10178000822E912CB12CA12CBF01A50194010E94A5
:10179000A727F901CA016A3074F5605DD8016E931C
:1017A0008D01232B242B252B79F790E080E01097D7
:1017B00089F0FD0101900020E9F73197AF014A1B44
:1017C0005B0BD701ED91FC910280F381E02DB80114
:1017D000C7011995A1960FB6F894DEBF0FBECDBF15
:1017E000DF91CF911F910F91FF90EF90BF90AF903D
:1017F0009F908F900895695CD1CF8F929F92AF9206
:10180000BF92CF92DF92EF92FF920F931F93CF93ED
:10181000DF937C01EB016C0182E0C80ED11C470113
:10182000E5E08E0E911C10E000E0F60141916F01A1
:1018300050E070E060E02AE0CE010E94A40B5C0161
:10184000E881F9810190F081E02D6EE2CE011995D9
:101850008A0D9B1D080F191FC814D90431F7F70111
:10186000458150E070E060E02AE0CE010E94A40BC8
:10187000800F911FDF91CF911F910F91FF90EF90FB
:10188000DF90CF90BF90AF909F908F90089542E0EF
:1018900050E069E672E00C940206CF93DF930E9459
:1018A000A007EC0188ED9DE00E94470C8C0F9D1F66
:1018B000DF91CF9108958091D21681110BC0809154
:1018C000D316811107C086E492E00E944D0C81E09E
:1018D0008093D216089510923C058EE292E00C940B
:1018E0004D0C0F931F93CF93DF93EC01FB014481C9
:1018F0005581608171810E9402068C01CE010E9497
:10190000470C800F911FDF91CF911F910F91089588
:10191000BC0185EA99E00E94710C85EA99E00E9479
:10192000BB0761E070E080E090E00C94A6050F93A7
:101930001F93CF93DF938C01EB01FC018081918198
:101940000097E1F06881798161157105A9F0428104
:1019500053812C813D814217530770F00E94252A44
:101960008C819D81F801958384831D821C82DF9187
:10197000CF911F910F9108950E94A4288881998189
:10198000F801918380838A819B81938382838C81F8
:101990009D8195838483198218821B821A82E5CFE8
:1019A000CF93DF93EC0188819981009711F00E9419
:1019B000A428198218821D821C821B821A82DF9140
:1019C000CF910895FC0180819181009711F00C94D2
:1019D000A4280895CF93DF93EC0185E292E09983E8
:1019E00088838C899D89009711F00E94A4288E8994
:1019F0009F89009711F00E94A428888D998D0097E7
:101A000011F00E94A4288A8D9B8D009711F00E94EE
:101A1000A4288A819B81009721F0DF91CF910C94BB
:101A20000008DF91CF910895CF93DF93EC010E94DE
:101A3000EA0CCE01DF91CF910C94A428CF93DF93D1
:101A4000EC0189E392E0998388838B899C890097D4
:101A500011F00E94A4288A819B81009721F0DF91D8
:101A6000CF910C940008DF91CF910895CF93DF932D
:101A7000EC010E941E0DCE01DF91CF910C94A428A1
:101A800021E432E0FC01318320830C941E0DCF93BE
:101A9000DF93EC010E94400DCE01DF91CF910C94B9
:101AA000A4280F931F93CF93DF93EC018881998132
:101AB000009759F02A813B812617370730F081E0E3
:101AC000DF91CF911F910F9108958B016F5F7F4F31
:101AD0000E942D29009759F0998388831B830A83DC
:101AE0002C813D81232B59F7FC011082E8CF80E047
:101AF000E7CFEF92FF920F931F93CF93DF938C0169
:101B00007B01EB0109900020E9F72197C61BD70B59
:101B1000BE010E94510D811109C0C801DF91CF9112
:101B20001F910F91FF90EF900C94D00CF801D5838A
:101B3000C483B70180819181DF91CF911F910F9173
:101B4000FF90EF900C94252AEF92FF920F931F9332
:101B5000CF93DF936115710541F480E0DF91CF9160
:101B60001F910F91FF90EF9008957B01EC01CB0145
:101B70000E942A270097A9F00C811D81080F191FC8
:101B8000B801CE010E94510D882339F32881398193
:101B90008C819D81B701820F931F0E9423271D8393
:101BA0000C8381E0DBCFEF92FF920F931F93CF93D3
:101BB000DF936115710541F480E0DF91CF911F91B2
:101BC0000F91FF90EF90089541155105B1F07B0101
:101BD000EC010C811D81040F151FB8010E94510DED
:101BE000882351F3288139818C819D81B701820F2F
:101BF000931F0E94252A1D830C8381E0DECFEF9284
:101C0000FF920F931F93CF93DF9300D000D01F92CA
:101C1000CDB7DEB77C01CB014AE08E010F5F1F4FCD
:101C2000B8010E945327F80101900020E9F731978D
:101C3000AF01401B510BB801C7010E94D30D27967D
:101C40000FB6F894DEBF0FBECDBFDF91CF911F91CD
:101C50000F91FF90EF900895EF92FF920F931F93D3
:101C6000CF93DF9300D01F92CDB7DEB77C01862FD4
:101C70004AE08E010F5F1F4FB80190E00E943327AA
:101C8000F80101900020E9F73197AF01401B510B9B
:101C9000B801C7010E94D30D0F900F900F900F90C5
:101CA000DF91CF911F910F91FF90EF900895FB016D
:101CB00044815581608171810C94D30DEF92FF9224
:101CC0000F931F93CF93DF93EC018B016115710587
:101CD00051F0CB010E942A277C01BC01CE010E9459
:101CE000510D81110BC0CE010E94D00CCE01DF91AD
:101CF000CF911F910F91FF90EF900895FD82EC829C
:101D0000B801888199810E942327F0CF0F931F93F8
:101D1000CF93DF93EDECF9E140E090E080E021E04B
:101D200030E05181511120E0082E01C0220F0A94A9
:101D3000EAF7422B019636968830910581F7409359
:101D40008305EDEBF9E140E030E020E08181022EF7
:101D500001C0880F0A94EAF7482B2F5F3F4F329655
:101D60002830310599F7409382056FEF76E08AE0DD
:101D700097E10E945E0E05E117E1D0E0C0E0F801B6
:101D800066A977A98AE097E10E94FF0DCB30D105C3
:101D900031F06DEF76E08AE097E10E94A40D219684
:101DA000085C1F4FCC30D10551F76BEF76E08AE02D
:101DB00097E10E94A40D69EF76E084E097E10E942C
:101DC0005E0E05EB19E1D0E0C0E0F801618184E02E
:101DD00097E10E942C0EC330D10531F067EF76E019
:101DE00084E097E10E94A40D21960E5F1F4FC4303E
:101DF000D10559F765EF76E084E097E1DF91CF9167
:101E00001F910F910C94A40DFC011182108213827A
:101E10001282158214820C945E0ECF93DF93809110
:101E2000D31681115CC0C0918205D091830562EB0D
:101E300072E086EC96E10E945E0E6CEE76E186EC36
:101E400096E10E94570E60EB72E086EC96E10E94EC
:101E5000A40D69EA72E086EC96E10E94A40D6D2F54
:101E600086EC96E10E942C0E67EA72E086EC96E121
:101E70000E94A40D6FE972E086EC96E10E94A40D29
:101E80006C2F86EC96E10E942C0E6DE972E086ECD8
:101E900096E10E94A40D66E972E086EC96E10E944C
:101EA000A40D6AE077E186EC96E10E94570E64E9A2
:101EB00072E086EC96E10E94A40D6CE872E086EC7C
:101EC00096E10E94A40D64E077E186EC96E10E9421
:101ED000570E6AE872E086EC96E10E94A40D8CE64B
:101EE00092E00E94590B63E772E0811108C08EE70F
:101EF00092E00E94590B882331F06AE572E08CEC85
:101F000096E10E945E0E62EF76E18CEC96E10E9413
:101F1000570E65E572E08CEC96E10E94A40D60918D
:101F2000CA167091CB168CEC96E1DF91CF910C9490
:101F3000FF0DEF92FF920F931F93CF93DF93EC016E
:101F40007B01198218821B821A821D821C82FB016E
:101F500001900020E9F731978F01061B170BB8019C
:101F60000E94510D811109C0CE01DF91CF911F91C7
:101F70000F91FF90EF900C94D00C1D830C83B70150
:101F800088819981DF91CF911F910F91FF90EF9000
:101F90000C94252AAF92BF92CF92DF92EF92FF92DC
:101FA0000F931F93CF93DF936C015B017A0189013B
:101FB0002417350720F48F2D7901042F182F6BE695
:101FC00072E0C6010E94990FD5011496CD91DC9163
:101FD000EC16FD06E0F40C171D0708F4E801D50126
:101FE000ED91FC911197EC0FFD1F108110826D9106
:101FF0007C916E0D7F1DC60161157105A1F00E94D7
:10200000790DF50180819181C80FD91F1883C60110
:10201000DF91CF911F910F91FF90EF90DF90CF90C4
:10202000BF90AF9008950E94D00CEBCFBF92CF929B
:10203000DF92EF92FF920F931F93CF93DF93CDB771
:10204000DEB7ED84FE84CF84D888B9880B891C89DB
:10205000D70114968D919C91892B59F0AE01475E62
:102060005F4F6F89788D8091401A9091411A0E943C
:10207000462A8D899E89892B31F0C7010E941E084E
:10208000C7010E940B08F6018281938180589F4FFF
:1020900093838283D7015896ED91FC910484F58552
:1020A000E02DB801C6011995F801E80FF91FB082BB
:1020B0000196DF91CF911F910F91FF90EF90DF90EC
:1020C000CF90BF9008952F923F924F925F926F9260
:1020D0007F928F929F92AF92BF92CF92DF92EF92B8
:1020E000FF920F931F93CF93DF93CDB7DEB7C85105
:1020F000D2400FB6F894DEBF0FBECDBFFC01A28167
:10210000B381109749F486E190E090933B1A809355
:102110003A1A90E080E05BC45C017E01FBEFEF1AAD
:10212000FEEFFF0A5896ED91FC9159970488F589C6
:10213000E02DB701CD0119951816190654F7D501F0
:1021400012966D907C90C55FDD4F99838883CB504C
:10215000D24086E190E06114710409F432C4D301E5
:102160005896ED91FC91C280D380A4E0B1E0AC0F11
:10217000BD1FAC0DBD1D8C91282F30E0CD5EDD4F15
:1021800039832883C351D240A7014C0D5D1DC15F27
:10219000DD4F59834883CF50D240DA019C90092DFE
:1021A00010E0A6E0B1E0AC0FBD1FAC0DBD1D4C9022
:1021B000512C542C4424A7E0B1E0AC0FBD1FAC0D52
:1021C000BD1D8C91480E511C1E01BBEF2B1ABDEF9B
:1021D0003B0AD10111963C932E9313961C930E93B8
:1021E00012970684F785E02DBE01655F7D4FC7011C
:1021F0001995F10195838483EFEFE90DE73108F03C
:10220000B5C5F0E08827E85FFE4E8F4F0C94EC27B1
:102210001F111F114E124E12DF123713DF14B616A4
:10222000B616B616B616B616B616B6166C13301423
:10223000AE14B616B616B616B61601154D15023002
:10224000110509F04CC0D5011A964D915C911B9770
:1022500018962D913C9119975696AD90BC908FE8A9
:1022600092E0E8E0F1E0EC0FFD1FEC0DFD1DE080D9
:10227000F12CFE2CEE24E9E0F1E0EC0FFD1FEC0D5B
:10228000FD1D6081E60EF11CB70161507109603DD2
:10229000774078F127E02F9320ED2F939F938F9332
:1022A000FF92EF9283EC92E09F938F931F9281E0D5
:1022B0008F9321E030E02C0F3D1F3F932F931F920F
:1022C00083E08F933F922F927F926F920E9416101D
:1022D0008C010FB6F894DEBF0FBECDBF67C0F5010D
:1022E0004681578124813581A488B58885E892E0AC
:1022F000B8CF6201C41AD50AD7FC08C047018C0CBC
:102300009D1C28153905ACF44E0C5F1C9F938F93D0
:102310005F924F928BEE92E09F938F931F921F924A
:1023200061E070E06C0F7D1F7F936F931F9282E0DE
:102330000FC2D3015896ED91FC910484F585E02DF0
:10234000BE016F5F7F4FC10119958C010F5F1F4F59
:10235000E1E0F0E0EC0FFD1F8E0F9F1F21E0A701D1
:1023600047705527452B09F420E0F3E0F594E794F6
:10237000FA95E1F7E20EDC01EC92F501EC0DFD1DA2
:1023800030E020E090E080E0AF014A195B09481599
:1023900059050CF46AC0892B49F0E1E0F0E0EC0F3C
:1023A000FD1FE00FF11F20830F5F1F4FCD5EDD4F3C
:1023B00028813981C351D240232B09F406C3D301AC
:1023C0005896ED91FC910088F189E02DB801CE017D
:1023D000019619957C01D3015896ED91FC910288E4
:1023E000F389E02DA701BE016F5F7F4FC3011995EF
:1023F0008B016F3F7F4F39F5F301868181FF23C049
:10240000C0903A1AD0903B1AF2EFCF16FDE2DF06E9
:1024100009F0BCC4D3015896ED91FC91068CF78D60
:10242000E02DC3011995C3010E941E08D3015896DF
:10243000ED91FC91048CF58DE02DC3011995D0929E
:102440003B1AC0923A1AF301868181FF03C00F3F05
:10245000100709F2101611060CF0B7C2E016F106CB
:1024600009F4B3C28FEE9BE2ACC2419150E0082E5A
:1024700002C0440F551F0A94E2F7242B352B8730F6
:10248000910551F4A1E0B0E0AC0FBD1FA00FB11F4A
:102490002C930F5F1F4F74CF019676CF0430110538
:1024A000B1F5F5014685578524853585808C918C5D
:1024B0008FE992E0E8E0F1E0EC0FFD1FEC0DFD1D6F
:1024C000008110E0102F0027E9E0F1E0EC0FFD1F84
:1024D000EC0DFD1D6081060F111DB80161507109E1
:1024E000FE0131966F016D37710500F11F922DE7E6
:1024F0002F939F938F931F930F9383EC92E09F935F
:102500008F931F9281E08F93FF93EF93D8CED501E5
:1025100052964D915C91539750962D913C915197C5
:102520005A968D909C9084EB92E0C4CF7201E41A8D
:10253000F50A5701F7FC07C0E00EF11E2E153F0506
:102540007CF4400E511E9F938F935F924F928BEEBF
:1025500092E09F938F931F921F92DF92CF92E6CECD
:10256000D3015896ED91FC910484F585E02DB601D8
:10257000C1011995F601E80FF91F000F00839501BD
:10258000220F331F820E931E0196F601E80FF91FEA
:102590008F010C191D09AE14BF040CF007CFD40134
:1025A00011968C91B2E08B0E911C8083D40112970E
:1025B0008C9181832FEFA21AB20A3296E9CFD5010E
:1025C00016968D919C911797A201481B590BCE012D
:1025D000019657FD06C014962D913C914217530762
:1025E0004CF05F924F922DE033E03F932F931F9278
:1025F0001F92B1C1E8E0F1E0EC0FFD1FEC0DFD1DF5
:10260000208130E0322F2227E9E0F1E0EC0FFD1FBE
:10261000EC0DFD1D6081260F311D2115FFEF3F07D9
:1026200019F021153105B1F4D5015496ED91FC91C5
:10263000E40FF51F41E0232B09F440E04083C55F20
:10264000DD4F08811981CB50D240A801B7010E940B
:10265000132AACCE5F924F923F932F9326E333E041
:102660003F932F931F921F929F938F936FC0D5011B
:1026700052968D919C9153979201281B390BCE0154
:10268000019637FD07C050964D915C9151972417E4
:1026900035072CF05F924F9224E733E0A6CF220F4C
:1026A000331F5A96ED91FC91E20FF31FA8E0B1E0C1
:1026B000AC0FBD1FAC0DBD1D2C9130E0322F222779
:1026C000A9E0B1E0AC0FBD1FAC0DBD1D4C91240FB6
:1026D000311D31832083B3CFE8E0F1E0EC0FFD1F23
:1026E000EC0DFD1D808190E0982F8827E9E0F1E056
:1026F000EC0FFD1FEC0DFD1D2081820F911D9C0133
:1027000021503109203B374070F4EAE0F1E0EC0F52
:10271000FD1FEC0DFD1D2081E8E02E9F900111248E
:1027200028173907ECF427E02F9320EB2F939F9382
:102730008F9382EA93E09F938F931F9281E08F9310
:1027400021E030E02C0F3D1F3F932F931F9283E039
:102750008F933F922F927F926F920E941610B8CD66
:10276000D50116962D913C911797F201E21BF30BC0
:102770009F01F7FD0CC0BC016E0F7F1F14964D9199
:102780005C91159746175707D4F4480E591E5F926F
:102790004F9286ED93E09F938F931F921F9221E0BB
:1027A00030E02C0F3D1F3F932F931F9282E08F93B9
:1027B0003F922F927F926F920E94161089CD56E021
:1027C000C50ED11C54960D911C91200F311FF9019B
:1027D00050E040E081E090E08C0F9D1FC80ED91EB4
:1027E000CF01801B910B86179707F0F0D301589605
:1027F000ED91FC910484F585E02DBE016F5F7F4F64
:10280000C1011995A1E0B0E0AC0FBD1FA80FB91F21
:10281000F701E80FF91F24E001900D922A95E1F7E6
:102820008C010C5F1F4FC2CDCF01821B930BA3E025
:1028300096958795AA95E1F78C0D9D1D8C5F9E4F0F
:10284000DC018C9190E0042E02C0959587950A9446
:10285000E2F7817081934F5F5F4F47705527C0CF7C
:10286000E8E0F1E0EC0FFD1FEC0DFD1D208130E0F4
:10287000322F2227E9E0F1E0EC0FFD1FEC0DFD1DEA
:102880008081280F311DC90101978B37910570F4A4
:10289000EAE0F1E0EC0FFD1FEC0DFD1D8081B8E0DA
:1028A0008B9FC0011124821793077CF41F928BE742
:1028B0008F933F932F9380E094E09F938F931F9289
:1028C00081E08F93CE010196CFCED50152968D91A6
:1028D0009C915397F201E81BF90BCF01F7FD31C032
:1028E000A9014E0F5F1F50966D917C91641775077B
:1028F00034F1C15FDD4FE881F981CF50D2409C01B6
:10290000220F331F2E193F092C193D0984179507F3
:102910000CF06CCFD5015A966D917C91DB01A20F22
:10292000B31FAE0FBF1F668170E0762F6627178139
:10293000610F711D6D937C9301963296E7CF420E25
:10294000531E5F924F9289E394E09F938F931F925F
:102950001F92CE0101969F938F9327CFD301589654
:10296000ED91FC910484F585E02DBE016F5F7F4FF2
:10297000C1011995FE01E80FF91F24EB2283FE0126
:10298000E80FF91F2FEF2383DC011396E1E0F0E05D
:10299000EC0FFD1FAE0FBF1F28E0E8E6F4E001904A
:1029A0000D922A95E1F78C01055F1F4FE1E0F0E001
:1029B000EC0FFD1FE80FF91F8AE08083F7CC8DE64E
:1029C00090E090933B1A80933A1A81E090E0C85EC1
:1029D000DD4F0FB6F894DEBF0FBECDBFDF91CF91B4
:1029E0001F910F91FF90EF90DF90CF90BF90AF902D
:1029F0009F908F907F906F905F904F903F902F901F
:102A00000895D50152968D919C915397F201E81B40
:102A1000F90BCE010196F7FD3DCE50962D913C91DC
:102A20005197E217F3070CF035CEEE0FFF1F5A96C1
:102A30002D913C91E20FF31FAAE0B1E0AC0FBD1F56
:102A4000AC0DBD1D2C9130E0322F2227ABE0B1E060
:102A5000AC0FBD1FAC0DBD1D4C91240F311DA8E066
:102A6000B1E0AC0FBD1FAC0DBD1D4C91642F70E0EB
:102A7000762F6627A9E0B1E0AC0FBD1FAC0DBD1DE0
:102A80004C91460F572F511D60817181622773272A
:102A900046235723242735271CCEE8E0F1E0EC0F2E
:102AA000FD1FEC0DFD1D808190E0982F8827E9E047
:102AB000F1E0EC0FFD1FEC0DFD1D2081FC01E20F8C
:102AC000F11DC35FDD4FF983E883CD50D240ECE0C8
:102AD000F1E0EC0FFD1FEC0DFD1D808190E0982FC3
:102AE0008827EDE0F1E0EC0FFD1FEC0DFD1D2081CE
:102AF000820F911D9C0121503109DE011196293769
:102B00003105C0F4C35FDD4F28813981CD50D240FB
:102B1000215031092D37310568F4EEE0F1E0EC0F7A
:102B2000FD1FEC0DFD1D40819C01220F331F42173C
:102B3000130639F11F922DE72F931F9229E72F9348
:102B4000C25FDD4FF881CE50D240FF93C35FDD4FAF
:102B50002881CD50D2402F939F938F9381E794E0AB
:102B60009F938F931F9281E08F93BF93AF931F9298
:102B700083E08F933F922F927F926F920E94161064
:102B8000A7CBEAE0F1E0EC0FFD1FEC0DFD1D20816D
:102B900030E0322F2227EBE0F1E0EC0FFD1FEC0DCF
:102BA000FD1D4081240F311DF501428953898201A9
:102BB000041B150BCF5EDD4F19830883C151D24032
:102BC000B901641B750BAB014B0117FDE6C0C35F78
:102BD000DD4FE881F981CD50D240E00FF11FCB5E8F
:102BE000DD4FF983E883C551D240F50160897189D1
:102BF000CB5EDD4FE881F981C551D2406E177F076A
:102C0000FCF057FD1FC0AC01480D591DC95EDD4FDA
:102C100059834883C751D24064177507E4F4280FDD
:102C2000391F17FF0FC03F932F935F924F928DEB89
:102C300094E09F938F931F921F92BF93AF9376CB95
:102C400057FFEDCFC35FDD4F68817981CD50D24012
:102C5000460E571EE8CFF301808D918DFC0124852F
:102C600035857D01BD01CE018B5F9D4FF901199521
:102C7000F701E80FF91FC35FDD4F2881CD50D24027
:102C8000220F2083C15FDD4FE881F981CF50D24010
:102C9000AE014B5F5E4F9401220F331F241B350B97
:102CA0002C193D09C95EDD4F48815981C751D24079
:102CB000841695060CF443C0F701E80FF91F98013C
:102CC000220F331F2E193F09B901681B790BCB0165
:102CD00041E050E04E195F098A010E0F1F1FCB5EC5
:102CE000DD4F68817981C551D240CF5EDD4FA8812B
:102CF000B981C151D240A617B7070CF057CBBC0120
:102D00006E0F7F1FD5015A962D913C91DB01A20FCA
:102D1000B31F11962C91119721832C912283CF5EA2
:102D2000DD4F28813981C151D2402F5F3F4FCF5EA7
:102D3000DD4F39832883C151D2403296CDCFD501A2
:102D40005A964D915C91DA01A20FB31FAE0FBF1FCF
:102D5000428550E0542F44276385460F511D4D9303
:102D60005C93BFEF8B1A9B0A32969CCF1F929F9267
:102D70008EE095E09F938F931F9281E08F939E0149
:102D80002F5F3F4F3F932F931F9211CDC3010E949E
:102D90001E08C3010E940B0852CB77FF40CF43CFE0
:102DA0001F920F920FB60F9211242F933F938F9380
:102DB0009F93AF93BF9380917A0590917B05A091EB
:102DC0007C05B0917D053091790523E0230F2D37E7
:102DD00058F50196A11DB11D2093790580937A05C0
:102DE00090937B05A0937C05B0937D0580917E0533
:102DF00090917F05A0918005B09181050196A11D5C
:102E0000B11D80937E0590937F05A0938005B093BC
:102E10008105BF91AF919F918F913F912F910F901D
:102E20000FBE0F901F90189526E8230F0296A11D44
:102E3000B11DD2CF1F920F920FB60F9211240BB675
:102E40000F922F933F934F935F936F937F938F9343
:102E50009F93AF93BF93EF93FF9381E492E10E941E
:102E60002C07FF91EF91BF91AF919F918F917F912F
:102E70006F915F914F913F912F910F900BBE0F90EB
:102E80000FBE0F901F9018951F920F920FB60F92C2
:102E900011240BB60F922F933F934F935F936F9331
:102EA0007F938F939F93AF93BF93EF93FF9381E4AF
:102EB00092E10E946F06FF91EF91BF91AF919F91B8
:102EC0008F917F916F915F914F913F912F910F90D3
:102ED0000BBE0F900FBE0F901F9018951F920F9270
:102EE0000FB60F9211240BB60F922F933F934F936F
:102EF0005F936F937F938F939F93AF93BF93EF9362
:102F0000FF9384E895E00E942C07FF91EF91BF9119
:102F1000AF919F918F917F916F915F914F913F9171
:102F20002F910F900BBE0F900FBE0F901F90189512
:102F30001F920F920FB60F9211240BB60F922F9380
:102F40003F934F935F936F937F938F939F93AF9331
:102F5000BF93EF93FF9384E895E00E946F06FF9183
:102F6000EF91BF91AF919F918F917F916F915F9101
:102F70004F913F912F910F900BBE0F900FBE0F906E
:102F80001F9018951F920F920FB60F9211240BB637
:102F90000F922F933F934F935F936F937F938F93F2
:102FA0009F93AF93BF93EF93FF9385EA99E00E94BD
:102FB0002C07FF91EF91BF91AF919F918F917F91DE
:102FC0006F915F914F913F912F910F900BBE0F909A
:102FD0000FBE0F901F9018951F920F920FB60F9271
:102FE00011240BB60F922F933F934F935F936F93E0
:102FF0007F938F939F93AF93BF93EF93FF9385EA54
:1030000099E00E946F06FF91EF91BF91AF919F9160
:103010008F917F916F915F914F913F912F910F9081
:103020000BBE0F900FBE0F901F9018951F920F921E
:103030000FB60F9211240BB60F922F933F934F931D
:103040005F936F937F938F939F93AF93BF93EF9310
:10305000FF9388ED9DE00E942C07FF91EF91BF91B7
:10306000AF919F918F917F916F915F914F913F9120
:103070002F910F900BBE0F900FBE0F901F901895C1
:103080001F920F920FB60F9211240BB60F922F932F
:103090003F934F935F936F937F938F939F93AF93E0
:1030A000BF93EF93FF9388ED9DE00E946F06FF9121
:1030B000EF91BF91AF919F918F917F916F915F91B0
:1030C0004F913F912F910F900BBE0F900FBE0F901D
:1030D0001F90189582E292E10E94400D87E896E1E8
:1030E0000E94E20C8DE896E10E94E20C83E996E1F1
:1030F0000E94E20C80EC96E10E94E20C86EC96E1E4
:103100000E94E20C8CEC96E10E94E20C84ED96E1C8
:103110000E94E20C8AED96E10E94E20C80EE96E1BC
:103120000E94E20C86EE96E10E94E20C8CEE96E1A3
:103130000E94E20C82EF96E10E94E20C88EF96E199
:103140000E94E20C8EEF96E10E94E20C84E097E18F
:103150000E94E20C8AE097E10E94E20C8DEF99E177
:103160000E94400D8CE19AE10C94EA0C8F929F92A0
:10317000AF92BF92CF92DF92EF92FF920F931F9385
:10318000CF93109244121092431288EEC82E83E01F
:10319000D82EE12CF12CC0924512D0924612E0922A
:1031A0004712F092481283E192E09093421280938A
:1031B000411225E331E030934E1220934D1224E367
:1031C00031E03093501220934F1220E331E03093DE
:1031D00052122093511221E331E030935412209384
:1031E000531222E331E0309356122093551226E316
:1031F00031E0309358122093571210925B121092C4
:103200005A1210925D1210925C1210925F1210927C
:103210005E12109261121092601210928705109245
:103220008605C0928805D0928905E0928A05F092C1
:103230008B05909385058093840525ED30E03093D0
:1032400091052093900524ED30E030939305209371
:10325000920520ED30E0309395052093940521ED03
:1032600030E0309397052093960522ED30E03093BF
:1032700099052093980526ED30E030939B05209327
:103280009A0510929E0510929D051092A00510922D
:103290009F051092A2051092A1051092A40510920C
:1032A000A3051092A8091092A709C092A909D0926B
:1032B000AA09E092AB09F092AC099093A609809319
:1032C000A5092DEC30E03093B2092093B1092CEC24
:1032D00030E03093B4092093B30928EC30E0309308
:1032E000B6092093B50929EC30E03093B809209352
:1032F000B7092AEC30E03093BA092093B9092EECD3
:1033000030E03093BC092093BB091092BF091092A2
:10331000BE091092C1091092C0091092C3091092FF
:10332000C2091092C5091092C4091092DB0D1092C7
:10333000DA0DC092DC0DD092DD0DE092DE0DF09240
:10334000DF0D9093D90D8093D80D85EC90E090938C
:10335000E50D8093E40D84EC90E09093E70D80936D
:10336000E60D80EC90E09093E90D8093E80D81EC00
:1033700090E09093EB0D8093EA0D82EC90E09093B7
:10338000ED0D8093EC0D86EC90E09093EF0D809323
:10339000EE0D1092F20D1092F10D1092F40D1092AC
:1033A000F30D1092F60D1092F50D1092F80D10928B
:1033B000F70D09E412E01093C70D0093C60D1092AB
:1033C000C80D1092C90D1092CA0D1092CB0D10931A
:1033D000CD0D0093CC0D1092CE0D1092CF0D10920A
:1033E000D00D1092D10D1093D30D0093D20D1092E9
:1033F000D40D1092D50D1092D60D1092D70D1092BB
:103400001F1A10921E1AE0E2FAE188E1DF011D9214
:103410008A95E9F78FE292E090931D1A80931C1A27
:1034200089EF91E19093391A8093381A1092001A1B
:103430001092FF19C092011AD092021AE092031A58
:10344000F092041A1092061A1092051A1092071A96
:103450001092111A1092101A1092131A1092121A36
:103460001092151A1092141A1092171A1092161A16
:103470001092191A1092181A21E4A22E22E0B22EEC
:10348000B092FE19A092FD1990931B1A80931A1AFC
:103490001092FC111092FB11C092FD11D092FE11FE
:1034A000E092FF11F09200123FE4832E32E0932E5F
:1034B0009092FA118092F91188ED9DE09093061296
:1034C0008093051281E090E0909308128093071298
:1034D00082E090E090930A12809309128FEF9FEFA1
:1034E00090930C1280930B1210920E1210920D12E8
:1034F0001092101210920F121092111280E280930B
:10350000CD191092CE1960E00E944B0481E28093A5
:10351000D3191092D41960E00E944B0482E2809388
:10352000D9191092DA1960E00E944B0483E280936B
:10353000DF191092E01960E00E944B0484E280934E
:10354000E5191092E61960E00E944B0485E2809331
:10355000EB191092EC1960E00E944B0486E2809314
:10356000F1191092F21960E00E944B0487E28093F7
:10357000F7191092F81960E00E944B0468E28DEB95
:1035800099E10E94490A69E28FEB99E10E94490A98
:103590006AE281EC99E10E94490A6BE283EC99E1CD
:1035A0000E94490A6CE285EC99E10E94490A6DE2A9
:1035B00087EC99E10E94490A6EE289EC99E10E9448
:1035C000490A6FE28BEC99E10E94490A84E08093FA
:1035D000B51961E00E944B0485E08093B71961E062
:1035E0000E944B0486E08093B91961E00E944B046D
:1035F00087E08093BB1961E00E944B0486E38093CF
:103600001517C1E0C093161760E00E944B0487E3D2
:1036100080934D17C0934E1760E00E944B0488E3DF
:1036200080938517C093861760E00E944B0489E35E
:103630008093BD17C093BE1760E00E944B048AE3DD
:103640008093F517C093F61760E00E944B048BE35C
:1036500080932D18C0932E1860E00E944B048CE3D9
:1036600080936518C093661860E00E944B048DE358
:1036700080939D18C0939E1860E00E944B048EE3D7
:103680008093D518C093D61860E00E944B048FE356
:1036900080930D19C0930E1960E00E944B0480E4E2
:1036A00080934519C093461960E00E944B0481E461
:1036B00080937D19C0937E1960E00E944B048BE1DA
:1036C0008093101762E00E944B048CE180931117E5
:1036D00062E00E944B048DE18093121762E00E9429
:1036E0004B048EE18093131762E00E944B048FE13C
:1036F0008093141762E00E944B046BE672E08AE04C
:1037000097E10E94990F6BE672E084E097E10E94D6
:10371000990F6BE672E08EEF96E10E94990F6BE6CF
:1037200072E088EF96E10E94990F6BE672E082EFFB
:1037300096E10E94990F6BE672E08CEE96E10E9492
:10374000990F6BE672E086EE96E10E94990F6BE6A8
:1037500072E080EE96E10E94990F6BE672E08AEDCE
:1037600096E10E94990F6BE672E084ED96E10E946B
:10377000990F1092D3161092D2166BE672E08CEC71
:1037800096E10E94990F6BE672E086EC96E10E944A
:10379000990F6BE672E080EC96E10E94990F10920F
:1037A000BF1688EB9BE0A0E0B0E08093B616909344
:1037B000B716A093B816B093B9161092BA16109215
:1037C000BB161092BC161092BD161092BE168093B6
:1037D000AD169093AE16A093AF16B093B01610929C
:1037E000B1161092B2161092B3161092B41610922F
:1037F000B5168093A4169093A516A093A616B09321
:10380000A7161092A8161092A9161092AA16109236
:10381000AB161092AC1610929D1610929E16109236
:103820009F161092A0161092A11688EC9FEAA0E0B5
:10383000B0E08093991690939A16A0939B16B0933C
:103840009C161092A3161092A2166BE672E083E902
:1038500096E10E94990F6BE672E08DE896E10E9476
:10386000990F6BE672E087E896E10E94990F10933A
:10387000821600938116109283161092841610926D
:103880008516109286161092651610926416C092D4
:103890006616D0926716E0926816F09269169092BA
:1038A00063168092621681E492E190936F16809382
:1038B0006E16109271161092701610927316109266
:1038C000721686E190E090937516809374161092AC
:1038D000771610927616109279161092781610922A
:1038E0007A161092251210922412C0922612D092AB
:1038F0002712E0922812F092291210922B121092A5
:103900002A1210922C121092361210923512109226
:1039100038121092371210923A12109239121092F5
:103920003C1210923B1210923E1210923D12B09235
:103930002312A092221282E696E190934012809385
:103940003F1210922112E5E1F7E11182F896B9E1F8
:10395000E53BFB07D1F78DEB99E10E942A0A8FEB3B
:1039600099E10E942A0A81EC99E10E942A0A80E0EA
:103970009CE5A6E2B5E08093181290931912A093EB
:103980001A12B0931B1210921C1210921D12109258
:103990001E1210921F1210922012CF911F910F91A0
:1039A000FF90EF90DF90CF90BF90AF909F908F905F
:1039B0000895CF93DF93CDB7DEB768970FB6F8942D
:1039C000DEBF0FBECDBF789484B5826084BD84B560
:1039D000816084BD85B5826085BD85B5816085BD0A
:1039E00080916E00816080936E00109281008091C2
:1039F000810082608093810080918100816080934A
:103A00008100809180008160809380008091B1006E
:103A100084608093B1008091B00081608093B00099
:103A200080919100826080939100809191008160EB
:103A300080939100809190008160809390008091AC
:103A4000A10082608093A1008091A1008160809399
:103A5000A1008091A00081608093A000809121014D
:103A600082608093210180912101816080932101F6
:103A70008091200181608093200180917A00846090
:103A800080937A0080917A00826080937A0080919E
:103A90007A00816080937A0080917A0080688093B8
:103AA0007A001092C10026E040E855E260E070E044
:103AB00088ED9DE00E94CA061092000268E070E066
:103AC0008CEE96E10E94510D68E070E086EE96E182
:103AD0000E94510D68E070E080EE96E10E94510D69
:103AE00068E070E080EC96E10E94510D60E170E0CA
:103AF00088EF96E10E94510D60E170E082EF96E15F
:103B00000E94510D60E270E084E097E10E94510D47
:103B100060E270E087E896E10E94510D60E470E099
:103B20008AED96E10E94510D60E470E084ED96E12B
:103B30000E94510D60E470E08CEC96E10E94510D02
:103B400060E470E08AE097E10E94510D60E870E067
:103B500083E996E10E94510D60E870E086EC96E101
:103B60000E94510D60E072E08EEF96E10E94510DCF
:103B7000882309F457C080ED92E00E944D0C61E06B
:103B800088E10E944B0461E088E10E941D041092CC
:103B90003C0581E08093A1168BE69CE09093A316F0
:103BA0008093A21626E040E855E260E070E084E8E9
:103BB00095E00E94CA0688E199E20FB6F894A895AC
:103BC000809360000FBE9093600033243394EBE049
:103BD0002E2EF5EB4F2EF9E15F2E0091F10D109195
:103BE000F20D8091F30D9091F40D081B190B1170DB
:103BF0000115110509F44EC088ED9DE00E949E0656
:103C00008D3011F40C94CD268A3039F389831A82D1
:103C100041E050E0BE016F5F7F4F87E896E10E9470
:103C2000D30DDBCF8AEB92E0A8CF10923C056FED6D
:103C300072E087E896E10E945E0ECFCF6DE073E000
:103C4000CE0101960E94040FBE016F5F7F4F87E88F
:103C500096E10E94720B182FCE0101960E94E20C91
:103C6000112399F081E093E00E944D0C60EE72E028
:103C7000CE0101960E94040FCE0101960E94880C8D
:103C8000CE0101960E94E20CD2CF87E896E10E9415
:103C9000880CCDCF8091A116882331F10E94D905DF
:103CA000C0909D16D0909E16E0909F16F090A016A2
:103CB0006C197D098E099F09C0909916D0909A16AB
:103CC000E0909B16F0909C16C616D706E806F906FB
:103CD00058F4E091A216F091A316309731F119959E
:103CE0008DE996E10E9469098091BE099091BF0912
:103CF0002091C0093091C109821B930B9170892BCF
:103D0000F9F085EA99E00E949E068D30C9F08A306C
:103D100059F389831A8241E050E0BE016F5F7F4F03
:103D20008EEF96E10E94D30DDFCF88E198E00FB6C9
:103D3000F894A895809360000FBE90936000FFCF29
:103D400065EE75E0CE0101960E94040FCE0101964A
:103D50000E943D0B7C019093390580933805CE017C
:103D600001960E94E20CF7FC5EC08EE792E00E9492
:103D7000590B8823B9F09701295E3F4FA701485F8F
:103D80005F4F6EEF76E1CE0101960E94CA0FBE0131
:103D90006F5F7F4F82EF96E10E94970CCE010196F4
:103DA0000E94E20C8CE692E00E94590B8823B9F045
:103DB00097012A5E3F4FA701495F5F4F6EEF76E1A3
:103DC000CE0101960E94CA0FBE016F5F7F4F82EF46
:103DD00096E10E94970CCE0101960E94E20C63EDE1
:103DE00075E08AED96E10E945E0E62EF76E18AED63
:103DF00096E10E94570E62EC75E08AED96E10E9412
:103E0000A40D6FEA75E084ED96E10E945E0E62EF0C
:103E100076E184ED96E10E94570E68EA75E084ED44
:103E200096E10E94A40D61EA75E0CE0101960E9420
:103E3000040FCE0101960E943D0B7C019093390541
:103E400080933805CE0101960E94E20CF7FC40C039
:103E50009701285F3F4FA7014A5F5F4F6EEF76E102
:103E6000CE0101960E94CA0FBE016F5F7F4F8CEE9C
:103E700096E10E94970CCE0101960E94E20C80917F
:103E8000F0169091F116029718F1E091EC16F0916E
:103E9000ED16309709F01BC410923705E7E3F5E003
:103EA00080818C32A9F421E030E050E040E06CEEFB
:103EB00076E1CE0101960E94CA0FBE016F5F7F4F6F
:103EC0008CEE96E10E94970CCE0101960E94E20CC6
:103ED00067E975E0CE0101960E94040FCE010196BC
:103EE0000E943D0B7C01CE0101960E94E20CF7FC82
:103EF00006C065E975E086EE96E10E945E0E69E80F
:103F000075E0CE0101960E94040FCE0101960E9439
:103F10003D0B7C01CE0101960E94E20CF7FC06C02D
:103F200065E875E080EE96E10E945E0E6AE775E056
:103F3000CE0101960E94040FCE0101960E943D0B16
:103F40007C019093390580933805CE0101960E943B
:103F5000E20CF7FC1DC09701225D3F4FA701475DB2
:103F60005F4F6EEF76E1CE0101960E94CA0FBE014F
:103F70006F5F7F4F80EC96E10E94970CCE01019617
:103F80000E94E20C60EC76E188ED9DE00E94710CED
:103F900065E675E0CE0101960E94040FCE01019600
:103FA0000E943D0B7C01CE0101960E94E20CF7FEBF
:103FB00010923C056AE575E0CE0101960E94040F5F
:103FC000CE0101960E943D0B7C01CE0101960E941C
:103FD000E20CF7FE10923C0569E475E0CE01019613
:103FE0000E94040FCE0101960E943D0B7C01CE0180
:103FF00001960E94E20CF7FE10923C0580913C0570
:10400000811150C08EE295E00E944D0C30923C052B
:1040100010923B0510923A056DE275E08EEF96E145
:104020000E945E0E6CE275E088EF96E10E945E0EE3
:104030006BE275E082EF96E10E945E0E6AE275E047
:104040008CEE96E10E945E0E69E275E086EE96E1E6
:104050000E945E0E68E275E080EE96E10E945E0EC0
:1040600067E275E08AED96E10E945E0E66E275E019
:1040700084ED96E10E945E0E1092D3161092D21635
:1040800065E275E08CEC96E10E945E0E64E275E0FC
:1040900086EC96E10E945E0E63E275E080EC96E1AC
:1040A0000E945E0E80913C05813039F5E091350526
:1040B000F0913605EE0FFF1FEE0FFF1FE95FFD4F7A
:1040C000408151816281738126E085EA99E00E94F6
:1040D000CA0660E088E10E941D0460ED77E086EB8F
:1040E00096E10E94E009882309F441C061E088E17B
:1040F0000E941D0422E020933C0580913C05823003
:10410000B1F56FE175E0CE0101960E94040FCE017A
:1041100001960E943D0B7C01CE0101960E94E20CAB
:10412000F7FCD7C285E095E00E944D0C60E075E099
:10413000CE0101960E94040FCE0101960E94880CC8
:10414000CE0101960E94E20C65EF74E0CE0101966B
:104150000E94040FCE0101960E94880CCE010196A8
:104160000E94E20C33E030933C051092BF16809120
:104170003C05833019F486E080933C0580913C0532
:104180008630D1F468EE73E086EB96E10E94E00998
:10419000882309F451C060EC74E0CE0101960E94BE
:1041A000040FCE0101960E94880CCE0101960E9458
:1041B000E20C89E080933C0580913C058930E1F573
:1041C0006EE772E0CE0101960E94990FCE01019632
:1041D0000E943D0B7C01CE0101960E94E20C6EE72D
:1041E00072E0F7FE13C06CE672E0CE0101960E9409
:1041F000990FCE0101960E943D0B7C01CE010196E4
:104200000E94E20CF7FC21C06CE672E088EF96E1B8
:104210000E94790D4091FC165091FD166091F816A0
:104220007091F91688ED9DE00E94020620923C05EF
:104230008DE996E10E94690980913C058B3029F453
:104240004CE040933C0510923B0580913C058C303E
:1042500009F03FC380913B05811107C088EA94E0D3
:104260000E944D0C53E050933B0580913B058330F9
:1042700009F0A3C068EE73E08DEA96E10E94E009C0
:10428000882309F4BDC06EE974E0CE0101960E9456
:10429000040FCE0101960E94880CCE0101960E9467
:1042A000E20C63E974E0CE0101960E94040FCE0196
:1042B00001960E94880CCE0101960E94E20C63E7F1
:1042C00074E0CE0101960E94040FCE0101960E9477
:1042D000880CCE0101960E94E20C8CE692E00E94CE
:1042E000590B882309F446C069E674E0CE010196B3
:1042F0000E94040FCE0101960E94880CCE01019607
:104300000E94E20C6EE574E0CE0101960E94040F5B
:10431000CE0101960E94880CCE0101960E94E20C0B
:1043200063E574E0CE0101960E94040FCE01019670
:104330000E94880CCE0101960E94E20C68E474E0B1
:10434000CE0101960E94040FCE0101960E94880CB6
:10435000CE0101960E94E20C6AE374E0CE01019660
:104360000E94040FCE0101960E94880CCE01019696
:104370000E94E20C6CE274E0CE0101960E94040FF0
:10438000CE0101960E94880CCE0101960E94E20C9B
:104390006FE174E0CE0101960E94040FCE010196F8
:1043A0000E94880CCE0101960E94E20C84E080936A
:1043B0003B058DE996E10E94690980913B058430B7
:1043C000F9F468EE73E08DEA96E10E94E009882333
:1043D00071F065E174E0CE0101960E94040FCE01F8
:1043E00001960E94880CCE0101960E94E20C8091F9
:1043F000F6169091F7160F9719F485E080933B0518
:1044000080913B05853049F568EE73E08DEA96E1D1
:104410000E94E009882371F06EE074E0CE010196FD
:104420000E94040FCE0101960E94880CCE010196D5
:104430000E94E20C8091EC169091ED16009769F0C5
:104440000E94FC26633649F0633038F086E08093A2
:104450003B058DE996E10E94690980913B05863014
:1044600019F487E080933B0580913B05873089F5FF
:1044700068EE73E08DEA96E10E94E009882371F00E
:1044800064E074E0CE0101960E94040FCE01019613
:104490000E94880CCE0101960E94E20C6AE873E04B
:1044A000CE0101960E94040FBE016F5F7F4F86EE22
:1044B00096E10E94720BF82ECE0101960E94E20C4A
:1044C000FF2039F088E080933B058DE996E10E945A
:1044D000690980913B05883019F489E080933B0598
:1044E00080913B05893089F568EE73E08DEA96E1AD
:1044F0000E94E009882371F06AEF73E0CE01019613
:104500000E94040FCE0101960E94880CCE010196F4
:104510000E94E20C66E873E0CE0101960E94040F4F
:10452000BE016F5F7F4F80EE96E10E94720BF82E06
:10453000CE0101960E94E20CFF2039F08AE08093C0
:104540003B058DE996E10E94690980913B058A301F
:1045500009F026C18EE792E00E94590B882309F4E6
:10456000FFC068EE73E08DEA96E10E94E00969ED14
:1045700073E0811107C180913B058C3079F468EEBE
:1045800073E08DEA96E10E94E009882319F18AED33
:1045900096E10E94880C8DE080933B0580913B055D
:1045A0008D30C1F46DE973E0CE0101960E94040FD5
:1045B000CE0101960E943D0B7C01CE0101960E9426
:1045C000E20CF7FC07C08EE080933B058DE996E195
:1045D0000E94690980913B058E3079F468EE73E0A2
:1045E0008DEA96E10E94E009882319F184ED96E1B5
:1045F0000E94880C8FE080933B0580913B058F30B3
:10460000C1F46CE873E0CE0101960E94040FCE0164
:1046100001960E943D0B7C01CE0101960E94E20CA6
:10462000F7FC07C081E180933B058DE996E10E948C
:10463000690980913B05813129F410923A0582E1A4
:1046400080933B0580913B05823109F042C1809106
:104650003A058111CBC08091D316811128C068EB37
:104660007BE084EA96E10E94E009882301F181E77A
:1046700093E00E944D0C68E673E0CE0101960E9423
:10468000040FCE0101960E94880CCE0101960E9473
:10469000E20C61E673E0CE0101960E94040FCE01A8
:1046A00001960E94880CCE0101960E94E20C809136
:1046B000D216882309F492C01092D2163092D316E3
:1046C0008CEC96E10E94880C30923A058FC03196AE
:1046D000E7CB68EE73E086EB96E10E94E009882361
:1046E00001F18BED94E00E94A007E0913505F09177
:1046F0003605EE0FFF1FEE0FFF1FE95FFD4F4081F4
:104700005181628173812AE088ED9DE00E94A40BB3
:1047100089ED94E00E944D0C8091BF168F5F8093CD
:10472000BF168091BF16853008F421CD1092BF16B8
:1047300084EC94E00E944D0C8091350590913605F3
:1047400001968230910538F49093360580933505B3
:1047500010923C050CCD1092360510923505F8CF1D
:104760008CE692E00E94590B882309F404CF68EE8E
:1047700073E08DEA96E10E94E009882309F4FBCEFC
:104780006BEB73E0CE0101960E94040FCE010196FF
:104790000E94880CCE0101960E94E20C20923B05FB
:1047A00080913B058B3009F0E6CE6DEA73E0CE01D7
:1047B00001960E94040FCE0101960E943D0B7C01E0
:1047C000CE0101960E94E20CF7FCD5CE8CE08093DE
:1047D0003B058DE996E10E946909CDCE60E375E75E
:1047E0008DEA96E10E94E009811168CF6FE573E0E0
:1047F000CE0101960E94040FCE0101960E943D0B4E
:104800007C01CE0101960E94E20CF7FC0DC0809164
:104810003A05813049F486EC96E10E94880C1092AA
:10482000D31692E090933A056EE473E0CE0143967E
:104830000E94040FCE0143960E943D0BFF24F39487
:1048400097FF37C06DE373E0CE010D960E94040F11
:10485000CE010D960E943D0BFF24F39497FF25C0D7
:104860006EE273E0CE0107960E94040FCE01079618
:104870000E943D0BFF24F39497FF13C06FE173E098
:10488000CE0101960E94040FCE0101960E943D0BBD
:104890009095F92EFF1CFF24FF1CCE0101960E946B
:1048A000E20CCE0107960E94E20CCE010D960E940A
:1048B000E20CCE0143960E94E20CFF2051F0809161
:1048C0003A05823031F48DE996E10E94690910922F
:1048D0003A056EE173E08EEF96E10E945E0E5DECAC
:1048E000E52E59E1F52EC7010E94570AA6E0EA0E0F
:1048F000F11CEDEFF9E1EE15FF05A9F745E1E42E16
:1049000047E1F42E6701C6010E94A30AF8E3CF0E27
:10491000D11C4C145D04B9F70E94860E0E940D0F45
:104920008091C4169091C516892B09F465C070E07A
:1049300060E080EC96E10E94F005A82E61E070E056
:1049400080EC96E10E94F005D82E63E070E080ECE8
:1049500096E10E94F005C82E64E070E080EC96E1DC
:104960000E94F005B82E24E4A2120FC13AE3D3123C
:10497000F8C08C2D0E945509D82E8B2D0E94550908
:1049800040E1D49E90011124D82ED22A8BEC99E1DB
:10499000D0FCD2C00E942A0A89EC99E1D1FCCFC098
:1049A0000E942A0A87EC99E1D2FCCCC00E942A0A14
:1049B00085EC99E1D3FCC9C00E942A0A83EC99E1F5
:1049C000D4FCC6C00E942A0A81EC99E1D5FCC3C080
:1049D0000E942A0A8FEB99E1D6FCC0C00E942A0AE5
:1049E0008DEB99E1D7FCCEC00E942A0A6DEE75E0EE
:1049F00080EC96E10E945E0E0E94D9054B015C019D
:104A00008091750590917605A0917705B091780514
:104A1000A5019401281B390B4A0B5B0BDA01C90174
:104A2000813D9740A105B10508F4EAC08091EC16DC
:104A30009091ED16C12C009719F00E94FC26C62E0D
:104A40006EEE75E0CE0101960E94040FBE016F5F0D
:104A50007F4F88EF96E10E94720BD12C81110AC022
:104A60008EE792E00E94590BDD24D394811102C09D
:104A700092E0D92ECE0101960E94E20C8BE5809344
:104A80003D0580913C0590913B05890F90913A0539
:104A9000890F80933E05C0923F05D09240058091DA
:104AA0008305809341058091820580934205EDE363
:104AB000F5E0D701D6968C91D697D7969C919683A0
:104AC0008783B8E3EB0EF11C329625E0E535F2075B
:104AD00081F710925B058091B61980935C05109266
:104AE0005D058091B81980935E0510925F058091F5
:104AF000BA1980936005109261058091BC1980936A
:104B0000620583E6E82E85E0F82EB80182EF96E193
:104B10000E94F005D7018D937D010F5F1F4F00317B
:104B2000110599F7EEE3F5E096E380E0915009F482
:104B30004EC02191820FFACF0E94390A2DCF0E94D8
:104B4000390A30CF0E94390A33CF0E94390A36CF52
:104B50000E94390A39CF0E94390A3CCF0E94390A93
:104B60003FCF8FEC8D0D883008F040CFAD2DA15395
:104B7000BB0BCD01880F991F8354964EB0E3CB1623
:104B800009F432CF0E94390A31CFE1E4AE122ECFC0
:104B90008FEC8D0D853008F029CF8C2D0E945509A2
:104BA000C82E8B2D0E945509F0E1CF9EB001112433
:104BB000682B2D2D2153330BF901EE0FFF1FEB5402
:104BC000F64E618370E080810E9487040FCF80934E
:104BD00073058DE58093740548E350E06DE375E05F
:104BE00084E895E00E94020684E895E00E94BB07F5
:104BF0008092750590927605A0927705B09278051F
:104C00008DEC99E10E94570A83ED99E10E94570AC1
:104C100089ED99E10E94570A8FED99E10E94570AA8
:104C200085EE99E10E94570A85E197E10E94A30A67
:104C30008DE497E10E94A30A85E897E10E94A30A08
:104C400080914B1790914C170E94BE094C018091A6
:104C50008317909184170E94BE095C018091BB1755
:104C60009091BC170E94BE096C01C4010E94750995
:104C70007C01C5010E9475098C01C6010E9475095D
:104C80003C01B1E28B16B3E09B060CF467C08DEBE0
:104C900099E10E94390AFBEFAF16B1040CF469C028
:104CA0008FEB99E10E94390A3FE1C316D1040CF45D
:104CB0006AC081EC99E10E94390AE092B619B70105
:104CC00077278091B5190E9487040093B819B8011D
:104CD00077278091B7190E9487046092BA19B301AF
:104CE00077278091B9190E9487049091D41981E0A7
:104CF000911180E020912112821751F080932112AE
:104D0000992331F00E94860E0E940D0F0E945B0CC9
:104D10000E94D90500911C1210911D1220911E12A3
:104D200030911F12601B710B820B930B00911812B4
:104D30001091191220911A1230911B1206171707A1
:104D40002807390708F0A8956AE070E080E090E055
:104D50000E94A6050E94DB070C94ED1DEDE18E1666
:104D6000E3E09E060CF097CF8DEB99E10E942A0AB2
:104D700092CF27EFA216B1040CF096CF8FEB99E1FA
:104D80000E942A0A91CF4BE1C416D1040CF095CFB2
:104D900081EC99E10E942A0A90CF68E173E0CE018C
:104DA00001960E94040FBE016F5F7F4F87E896E176
:104DB0000E94720B182FCE0101960E94E20C111175
:104DC0000C94151E62E173E0CE0101960E94040F5F
:104DD000BE016F5F7F4F87E896E10E94720B182F2C
:104DE000CE0101960E94E20C112311F40C941E1EB8
:104DF0000E945B0C0C94171E1F93FC0199278827B7
:104E0000BC01E89411911032E9F3193010F01E3012
:104E1000C8F31B3251F01D3249F4689406C00E9459
:104E20003E27610F711D811D911D119110531A3084
:104E3000B0F33EF490958095709561957F4F8F4FBC
:104E40009F4F1F910895FB01DC0105900D920020FA
:104E5000E1F70895FC0105900020E9F78095909511
:104E60008E0F9F1F0895BB274A3031F4992322F4F7
:104E7000BDE2909581959F4F0C945427592F482F50
:104E8000372F262F660F771F881F991F660F771FF2
:104E9000881F991F620F731F841F951F660F771F4E
:104EA000881F991F0895BB27FB015527AA27880F44
:104EB000991FAA1FA41710F0A41B83955051B9F78E
:104EC000A05DAA3308F0A95DA193009779F7B1110D
:104ED000B1931192CB010C946D27DC01FC01672F7B
:104EE00071917723E1F7329704C07C916D937083C1
:104EF0006291AE17BF07C8F30895052E97FB1EF405
:104F000000940E94942757FD07D00E94A72707FC12
:104F100003D04EF40C9494275095409530952195EC
:104F20003F4F4F4F5F4F08959095809570956195D5
:104F30007F4F8F4F9F4F08950E94C927A59F900DC7
:104F4000B49F900DA49F800D911D11240895A1E29E
:104F50001A2EAA1BBB1BFD010DC0AA1FBB1FEE1FF3
:104F6000FF1FA217B307E407F50720F0A21BB30B3E
:104F7000E40BF50B661F771F881F991F1A9469F7BA
:104F800060957095809590959B01AC01BD01CF0116
:104F90000895A29FB001B39FC001A39F700D811D12
:104FA0001124911DB29F700D811D1124911D089532
:104FB00097FB072E16F4009407D077FD09D00E94C6
:104FC000F42707FC05D03EF4909581959F4F0895F6
:104FD000709561957F4F0895EE0FFF1F881F8BBF5F
:104FE0000790F691E02D1994AA1BBB1B51E107C055
:104FF000AA1FBB1FA617B70710F0A61BB70B881F69
:10500000991F5A95A9F780959095BC01CD010895F7
:105010000F931F93CF93DF938230910510F482E0BA
:1050200090E0E091441AF091451A30E020E0B0E0C1
:10503000A0E0309799F42115310509F44AC0281BE6
:10504000390B24303105D8F58A819B8161157105B2
:1050500089F1FB0193838283FE0111C0408151815C
:105060000281138148175907E0F04817590799F44E
:10507000109761F012960C93129713961C93329628
:10508000CF01DF91CF911F910F9108950093441AA2
:105090001093451AF4CF2115310551F042175307EB
:1050A00038F0A901DB019A01BD01DF01F801C1CF90
:1050B000EF01F9CF9093451A8093441ACDCFFE01AA
:1050C000E20FF31F81939193225031093983288392
:1050D000D7CF2091421A3091431A232B41F42091CB
:1050E0000302309104023093431A2093421A209114
:1050F0000102309102022115310541F42DB73EB76E
:105100004091050250910602241B350BE091421A92
:10511000F091431AE217F307A0F42E1B3F0B281758
:10512000390778F0AC014E5F5F4F2417350748F020
:105130004E0F5F1F5093431A4093421A81939193ED
:105140009FCFF0E0E0E09CCFCF93DF930097E9F0B2
:10515000FC01329713821282A091441AB091451A31
:10516000ED0130E020E01097A1F420813181820F21
:10517000931F2091421A3091431A2817390709F0DA
:1051800061C0F093431AE093421ADF91CF910895E2
:10519000EA01CE17DF07E8F54A815B819E014115E0
:1051A0005105B1F7E901FB83EA8349915991C40F95
:1051B000D51FEC17FD0761F4808191810296840F61
:1051C000951FE90199838883828193819B838A83D8
:1051D000F0E0E0E012968D919C9113970097B9F55D
:1051E0002D913C911197CD010296820F931F209132
:1051F000421A3091431A2817390739F6309751F57A
:105200001092451A1092441AB093431AA093421A6E
:10521000BCCFD383C28340815181840F951FC817AF
:10522000D90761F44E5F5F4F88819981480F591FFC
:10523000518340838A819B81938382832115310529
:1052400009F0B0CFF093451AE093441A9ECFFD01C8
:10525000DC01C0CF13821282D7CF4F925F926F9240
:105260007F928F929F92AF92BF92CF92DF92EF92F6
:10527000FF920F931F93CF93DF938C01009799F4C4
:10528000CB01DF91CF911F910F91FF90EF90DF90B5
:10529000CF90BF90AF909F908F907F906F905F90D6
:1052A0004F900C940828FC01E60FF71F9C01225038
:1052B0003109E217F30708F4AEC0D901CD91DC91B2
:1052C0001197C617D70720F1C530D10578F0CE0168
:1052D00004978617970750F0C61BD70B2297C193E8
:1052E000D1936D937C93CF010E94A428C801DF91D4
:1052F000CF911F910F91FF90EF90DF90CF90BF90D3
:10530000AF909F908F907F906F905F904F90089597
:105310005B01AC1ABD0A4C018C0E9D1EA091441A73
:10532000B091451A512C412CF12CE12C109731F5FC
:105330008091421A9091431A8815990509F05CC032
:105340004616570608F058C080910102909102025B
:10535000009741F48DB79EB7409105025091060227
:10536000841B950BE817F90708F055C0F093431A12
:10537000E093421AF90171836083B8CF8D919C91BB
:10538000119712966C90129713967C901397A8150C
:10539000B90559F56C0142E0C40ED11CCA14DB04F6
:1053A00020F1AC014A195B09DA011296159780F0D9
:1053B0006282738251834083D9016D937C93E1149F
:1053C000F10471F0D7011396FC93EE9312978ECFF0
:1053D00022968C0F9D1FF90191838083F301EFCFFB
:1053E000F093451AE093441A81CF4816590608F401
:1053F0002C017D01D3019ACFCB010E9408287C01AA
:10540000009749F0AE01B8010E94132AC8010E941A
:10541000A42887016BCF10E000E068CF81E090E026
:10542000F8940C94EC2CFB01DC0102C001900D926D
:1054300041505040D8F70895FB01DC018D91019057
:1054400080190110D9F3990B0895FB01DC0101903B
:105450000D920020E1F70895FB0151915523A9F029
:10546000BF01DC014D9145174111E1F759F4CD0120
:105470000190002049F04D9140154111C9F3FB0105
:105480004111EFCF81E090E0019708952F923F9274
:105490004F925F926F927F928F929F92AF92BF9244
:1054A000CF92DF92EF92FF920F931F93CF93DF93F0
:1054B00000D000D000D01F921F92CDB7DEB77C0184
:1054C0003B018A01FC0117821682838181FFDDC1C5
:1054D000CE0101965C01F7019381F30193FD859163
:1054E00093FF81913F01882309F453C1853239F438
:1054F00093FD859193FF81913F01853229F4B70196
:1055000090E00E945E2CE7CF912C212C312CFFE102
:10551000F31538F08B3211F190F4803209F18332B7
:1055200029F137FC3CC020ED280F2A3050F536FE1B
:1055300020C08AE0989E200D1124922E06C08D3244
:1055400091F0803371F7689430F8F30193FD859101
:1055500093FF81913F018111DACF21C0689431F826
:10556000689432F8F2CF689433F8EFCF689434F847
:10557000ECCFEAE02E9E200D1124222E689435F8FF
:10558000E4CF8E3229F436FC04C1689436F8DDCFBE
:105590008C3619F4689437F8D8CF8836B1F2982F42
:1055A0009F7D95549330E0F08336A1F18337C1F1AC
:1055B000833509F063C02801F2E04F0E511CF80159
:1055C000C080D180692D70E036FC02C06FEF7FEFA4
:1055D000C6010E94482C4C01689437F882010AC029
:1055E0000C5F1F4FFFE3F98388248394912C65019E
:1055F000E89437F833FE2DC0522C8114910471F5D4
:10560000552009F468CFB70180E290E00E945E2C3B
:105610005A94F6CFF801808189830E5F1F4FE4CF43
:105620002801F2E04F0E511CF801C080D180692D95
:1056300070E036FC02C06FEF7FEFC6010E94532C72
:105640004C018201D5CFB70180E290E00E945E2C30
:105650002A942814190409F0B0F7CECFF60137FCCC
:10566000859137FE81916F01B70190E00E945E2C19
:1056700051105A94F1E08F1A9108BFCF843619F077
:10568000893609F077C0F80137FE6BC060817181FF
:10569000828193810C5F1F4FF32DFF763F2E97FF82
:1056A00009C090958095709561957F4F8F4F9F4F62
:1056B000689437F82AE030E0A5010E948E2CC82EAD
:1056C000CA188C2C432C36FE0CC0E89440F8C91440
:1056D00040F434FE05C032FC03C0F32DFE7E4F2E95
:1056E000892C44FEAAC0FE01EC0DF11D808180339F
:1056F00009F09CC0242D297E422E842D8870582EBE
:1057000043FCAAC040FEA4C09C2C821418F42C0CAC
:10571000922C981844FEA6C0B70180E390E00E9446
:105720005E2C42FE09C088E790E041FE02C088E599
:1057300090E0B7010E945E2CC91408F49FC0CA947F
:10574000D12C9FEFC91AD90ACA0CDB1CF601829131
:105750006F01B70190E00E945E2CAC14BD04B1F75C
:105760004FCF60817181072E000C880B990B0E5F63
:105770001F4F92CFD32CE894D4F82AE030E085373D
:10578000E1F1232D297FD22E8F36A9F1F0F488354F
:1057900051F1F701868197812B960FB6F894DEBF01
:1057A0000FBECDBFDF91CF911F910F91FF90EF9072
:1057B000DF90CF90BF90AF909F908F907F906F9031
:1057C0005F904F903F902F900895803749F0883731
:1057D00001F7D4FE02C06894D2F820E130E00DC099
:1057E0006894D4F8F6CF34FE03C0822F8660D82E9A
:1057F00020E132E002C028E030E0F801D7FE0FC01F
:1058000060817181828193810C5F1F4FA5010E948D
:105810008E2CC82ECA183D2CE89437F852CF6081E0
:10582000718190E080E00E5F1F4FF0CF42FC02C01C
:10583000839463CF8394839460CF842D867809F416
:105840005CCFF6CFB70180E290E00E945E2C83949B
:105850008214C0F3512C5ECF522C5818821408F4D5
:1058600059CFF8CF842D867809F466CF8BE241FEBC
:1058700080E247FC8DE2B70190E05CCFB70180E3A6
:1058800090E00E945E2C9A9457CF8FEF9FEF84CFC9
:10589000FC010590615070400110D8F780959095FB
:1058A0008E0F9F1F0895FC01615070400190011000
:1058B000D8F7809590958E0F9F1F08950F931F9393
:1058C000CF93DF93182F092FEB018B8181FD09C046
:1058D0001FEF0FEF812F902FDF91CF911F910F912D
:1058E000089582FF14C02E813F818C819D812817ED
:1058F00039073CF4E881F981CF01019699838883C7
:1059000010838E819F8101969F838E83E3CFE885EC
:10591000F985812F1995892BA1F3DACFFA01AA27EE
:10592000283051F1203181F1E8946F936E7F6E5FE2
:105930007F4F8F4F9F4FAF4FB1E03ED0B4E03CD090
:10594000670F781F891F9A1FA11D680F791F8A1F73
:10595000911DA11D6A0F711D811D911DA11D20D0DA
:1059600009F468943F912AE0269F11243019305D94
:105970003193DEF6CF010895462F4770405D419385
:10598000B3E00FD0C9F7F6CF462F4F70405D4A33D2
:1059900018F0495D31FD4052419302D0A9F7EACF9A
:1059A000B4E0A6959795879577956795BA95C9F7C9
:1059B00000976105710508959B01AC010A2E0694BC
:1059C0005795479537952795BA95C9F7620F731F75
:1059D000841F951FA01D089513E0C2E8D3E000E0E6
:1059E00006C0802FFE010E94EC272196011DC338BE
:1059F000D10780E00807A9F7F894FFCF010000461F
:105A00001A80008025000000C20100000000005143
:105A10000702068C06BB07E5059E06B806000000D7
:105A200000A20B00000000000000006310EA0C144C
:105A30000D000000001E0D360D00000000400D4757
:105A40000D00000000FD0B000000003C08020652A3
:105A500009500871085B0866083B0912092709C646
:105A6000087C083A080D0A005175656374656C5F1F
:105A70004243323630592D434E0045433830304B87
:105A800000726561645F6269747300726561645F6E
:105A9000696E7075745F6269747300726561645FCA
:105AA000696E7075745F726567697374657273008F
:105AB000726561645F7265676973746572730049CA
:105AC0006C6C6567616C206E62206F662076616C1D
:105AD00075657320256420696E20257320286D610B
