:100000000C94A9030C94DA030C94DA030C94DA032D
:100010000C94DA030C94DA030C94DA030C94DA03EC
:100020000C94DA030C94DA030C94DA030C94DA03DC
:100030000C94DA030C94DA030C94DA030C94DA03CC
:100040000C94DA030C94DA030C94DA030C94DA03BC
:100050000C94DA030C94DA030C94DA030C94490A36
:100060000C94DA030C94B90B0C948F0B0C94DA03F8
:100070000C94DA030C94DA030C94DA030C94DA038C
:100080000C94DA030C94DA030C94DA030C94DA037C
:100090000C94650B0C943B0B0C94DA030C94DA0370
:1000A0000C94DA030C94DA030C94DA030C94DA035C
:1000B0000C94DA030C94DA030C94DA030C94DA034C
:1000C0000C94DA030C94DA030C94DA030C94110BFD
:1000D0000C94E70A0C94DA030C94BD0A0C94930A6E
:1000E0000C94DA030C94BF150C9421040C9458045E
:1000F0000C9415160C9466040C9454040C94E71597
:100100000C942F040C9427040C94DD150C94C91541
:100110000C94E30B0C9459070C9476060C942B0466
:100120000C9436040C9440040C9433040C944A044C
:100130000C944C160C9438160C944E040C94241603
:100140000C9442160C9446040C94D9060C94561642
:100150000C94B9050C94F7150C945C040C940116DE
:100160000C94A2060C94EF150C94CF050C9461042A
:100170000C94391A0C94D3150C943C040C942E1640
:100180000C940B160C94AE050C94C4150C946204DC
:100190000C9488060D0A3D3D3D204E42494F5420A7
:1001A0005354415254203D3D3D005B537472696E7F
:1001B00067205370616365204E4F54204F4B5D00A4
:1001C0005B537472205370616365204F4B5D002B4D
:1001D000514D54524543563A002B514D54535542BC
:1001E0003A002B514D545055423A00300030002C0B
:1001F000003A20002B4353513A002B4345524547C8
:100200003A002B43474154543A002F6F75742C30F9
:100210000041542B514D545355423D302C312C72DA
:1002200067742F002C747377682C31576F3D5B36E1
:100230007641306D0041542B514D54434F4E4E3D4D
:10024000302C6465765F002B4347534E3A000D0A0D
:1002500046494E49534820524547554C415220503B
:1002600055424C495348002B514D545055423A2069
:10027000302C302C30003E000D0A46494E49534880
:100280002047455454494E47204345524547002B8B
:1002900043455245473A000D0A46494E49534820C6
:1002A00047455454494E47204347415454002B433B
:1002B000474154543A000D0A46494E495348204795
:1002C000455454494E4720435351002B4353513A10
:1002D000000D0A53554220544F504943204F4B00C4
:1002E0002B514D545355423A000D0A434F4E4E4543
:1002F00043544544204D515454002B514D54434FC9
:100300004E4E3A20302C302C30000D0A4F50454EC6
:100310004544204D515454002B514D544F50454E9F
:100320003A20302C30000D0A46494E4953482047A8
:10033000455454494E47204345524547002B4345B9
:100340005245473A000D0A46494E49534820474511
:100350005454494E47204347415454002B4347418E
:1003600054543A000D0A46494E49534820474554D3
:1003700054494E4720435351002B4353513A000DEB
:100380000A46494E495348205345545550000D0ADA
:1003900046494E4953482057414954494E47204900
:1003A00050002B49503A005B534F46545F5245531F
:1003B00045545D000D0A4558454355544520524566
:1003C00047554C4152205055424C495348004154E6
:1003D0002B43455245473F000D0A5B436F6E6E65E8
:1003E000637465645D205155455259494E47204319
:1003F000455245470041542B43474154543F000D5B
:100400000A5B436F6E6E65637465645D205155458C
:100410005259494E472043474154540041542B43BD
:100420005351000D0A5B436F6E6E65637465645DC6
:10043000205155455259494E4720435351000D0A0A
:1004400046494E49534820494E4954204E42494F4F
:1004500054000D0A53554253435242494E472054CB
:100460004F5049432E2E2E000D0A434F4E4E45430A
:1004700054494E47204D5154542E2E2E0041542B9A
:10048000514D544F50454E3D302C696F742E72655E
:10049000632D67742E636F6D2C31383830000D0A70
:1004A0004F50454E494E47204D5154542E2E2E004C
:1004B00041542B43455245473F000D0A474554548C
:1004C000494E472043455245470041542B4347413D
:1004D00054543F000D0A47455454494E4720434762
:1004E0004154540041542B435351000D0A47455485
:1004F00054494E47204353510041542B514D5444CD
:100500004953433D300041542B514D54434C4F53BC
:10051000453D300041542B4345445258533D302C07
:10052000350041542B4353434F4E3D300041542B33
:100530004350534D533D300041542B5153434C4B8A
:100540003D300041542B4346554E3D31000D0A537A
:10055000455454494E47205550204E42494F54006F
:100560000D0A57616974696E672049500041542B28
:100570005153434C4B3D300041542B4347534E3D68
:10058000310041542B5149444E534346473D302C92
:10059000382E382E382E382C3232332E352E352E3A
:1005A00035002C002F696E2C0041542B514D5450B6
:1005B00055423D302C302C302C302C7267742F007B
:1005C0007D0022616F7574223A002C002261696EF1
:1005D000223A002C0022646F7574223A002C00220B
:1005E00064696E223A002C007B22637371223A0008
:1005F0005D002C005B005D002C005B000000200013
:100600002300260029002C002F00320000010000EA
:100610000301060109015B48656C6C6F2066726F0F
:100620006D205247542048656C6C6F2066726F6D68
:10063000205247542048656C6C6F2066726F6D20A5
:100640005247545D0041540000002100240027005F
:100650002A002D00300033000101000004010701D1
:100660000A0100002200250028002B002E00310086
:10067000340002010000050108010B010505050514
:10068000070508080808020202020A0A080804040A
:100690000404010101010101010103030303030338
:1006A0000303040707070C0C0C0C0C0C0C0C0202C7
:1006B000020206060606060606060B0B0B0B0B0BC4
:1006C0000B0B010210202008081020401020408051
:1006D0000201020108040201010204081020408006
:1006E0008040201008040201800402018040201094
:1006F00008040201080402010102040810204080DD
:10070000010204081020408000000A0B02090C0DB1
:100710000E080703040100000000000000000000B4
:1007200000000000000000000000000000000000C9
:100730000000000012111000000000000000000086
:100740000000000000000000000000000000E30BBB
:10075000391A11241FBECFEFD1E2DEBFCDBF00E0BA
:100760000CBF12E0A0E0B2E0EAE4FBE300E00BBF64
:1007700002C007900D92A233B107D9F726E1A2E398
:10078000B2E001C01D92AB37B207E1F713E0C8EA4F
:10079000D3E000E006C021970109802FFE010E94EE
:1007A000521BC73AD10780E00807A9F70E94120E32
:1007B0000C94931D0C940000FC01A089B18982E087
:1007C0008C93A485B5851C92A685B7858FEC8C93F8
:1007D000108EA489B58986E08C93A289B3898C9107
:1007E00080618C93A289B3898C9188608C93A28953
:1007F000B3898C9180688C930288F389E02D808185
:100800008F7D808308958150823108F05AC0E82F8F
:10081000F0E08827E15FFB4F8F4F0C94521B2F04B1
:100820003304210427042B04610436043C044004EF
:1008300046044A044E045404580461045C046204EF
:100840006604809180008F77809380000895809166
:1008500080008F7DF9CF80918000877FF5CF84B5B0
:100860008F7784BD089584B58F7DFBCF8091B000D4
:100870008F778093B00008958091B0008F7DF9CF7D
:10088000809190008F7780939000089580919000E0
:100890008F7DF9CF80919000877FF5CF8091A00068
:1008A0008F778093A00008958091A0008F7DF9CF6D
:1008B0008091A000877FF5CF809120018F77809372
:1008C00020010895809120018F7DF9CF8091200132
:1008D000877FF5CF1F93CF93DF93282F30E0F90167
:1008E000E85FF84F8491F901EE53F94FD491F90183
:1008F000E458F94FC491CC23A9F0162F81110E941E
:100900000304EC2FF0E0EE0FFF1FEE59F94FA59115
:10091000B4918FB7F894EC91111108C0D095DE23F3
:10092000DC938FBFDF91CF911F910895DE2BF8CF1D
:10093000CF93DF9390E0FC01EE53F94F249184585C
:10094000994FFC0184918823C9F090E0880F991F8A
:10095000FC01E85BF94FA591B491FC01EE59F94F08
:10096000C591D49161110DC09FB7F8948C912095D9
:1009700082238C938881282328839FBFDF91CF9186
:100980000895623051F49FB7F8943C91822F80957E
:1009900083238C93E8812E2BEFCF8FB7F894EC91C3
:1009A0002E2B2C938FBFEACF863308F086532091ED
:1009B0007B00982F9870277F922B90937B0020913B
:1009C000000290E4299F900111248770822B80936C
:1009D0007C0080917A00806480937A0080917A0014
:1009E00086FDFCCF809178009091790008953FB703
:1009F000F8948091760290917702A0917802B0915C
:100A0000790226B5A89B05C02F3F19F00196A11DBC
:100A1000B11D3FBFBA2FA92F982F8827BC01CD0148
:100A2000620F711D811D911D42E0660F771F881FA7
:100A3000991F4A95D1F708958F929F92AF92BF92D6
:100A4000CF92DF92EF92FF926B017C010E94F7043C
:100A50004B015C01C114D104E104F104B9F00E941E
:100A6000F704681979098A099B09683E7340810572
:100A7000910580F321E0C21AD108E108F10888EE5F
:100A8000880E83E0981EA11CB11CE4CFFF90EF906C
:100A9000DF90CF90BF90AF909F908F9008952FB729
:100AA000F894609172027091730280917402909137
:100AB00075022FBF08958F929F92AF92BF92CF92EF
:100AC000DF92EF92FF926B017C010E944F058090B4
:100AD0000A1390900B13A0900C13B0900D139B0170
:100AE000AC01281939094A095B0949015A01809169
:100AF0000E1381110DC00E944F0560930A1370936D
:100B00000B1380930C1390930D1381E080930E13BD
:100B1000C814D904EA04FB0410F410920E130E94C6
:100B20004F0580900A1390900B13A0900C13B09077
:100B30000D13681979098A099B0921E0C616D706A1
:100B4000E806F90608F020E0822FFF90EF90DF9092
:100B5000CF90BF90AF909F908F900895FC01218D12
:100B6000328D838D948DA901481B590BCA01917058
:100B7000089581E0809332020895FC01248135813B
:100B80006217730748F480819181009729F0860FDE
:100B9000971FFC018081089580E008950895AF9229
:100BA000BF92CF92DF92EF92FF920F931F93CF935A
:100BB000DF936C017B018B01040F151FEB015E01BC
:100BC000AE18BF08C017D10759F06991D601ED9151
:100BD000FC910190F081E02DC6011995892B79F7E0
:100BE000C501DF91CF911F910F91FF90EF90DF90A2
:100BF000CF90BF90AF90089542E050E069E172E07D
:100C00000C94CF050F931F93CF93DF93EC01FB015F
:100C100044815581608171810E94CF058C01CE0194
:100C20000E94FC05800F911FDF91CF911F910F91C2
:100C300008952091D50A3091D60A8091D70A9091D3
:100C4000D80A281B390B317081E0232B09F480E08E
:100C50000895209193023091940280919502909191
:100C60009602281B390B317081E0232B09F480E0B8
:100C700008952091F60E3091F70E8091F80E909124
:100C8000F90E281B390B317081E0232B09F480E029
:100C900008952091B4063091B5068091B6069091E2
:100CA000B706281B390B317081E0232B09F480E053
:100CB0000895FC01A089B1898C91A689B78982FD2C
:100CC00013C02C91818D928D01969170438D548D1E
:100CD0008417950751F0A18DB28DAE0FBF1F91966D
:100CE0002C93928F818F08958C9108954FB7F8942B
:100CF000FC01258D368D878D90A14FBF28173907B0
:100D000028F081509E4F821B930B08950197FBCFD3
:100D1000FC01218D328D838D948D2817390779F050
:100D2000A38DB48DAE0FBF1F91968C91238D348D02
:100D30002F5F3F4F3170348F238F90E008958FEFF6
:100D40009FEF0895FC01218D328D838D948D28179E
:100D5000390739F0838D948DE80FF91F81A190E058
:100D600008958FEF9FEF0895FC01A78DB0A1A80F04
:100D7000B91FAF5DBD4F2C91878D90A101969170E9
:100D800090A3878FA689B7892C93A089B1898C916C
:100D9000837080648C93258D368D878D90A1281764
:100DA000390731F40288F389E02D80818F7D8083BB
:100DB0000895FF920F931F93CF93DF93EC0181E08F
:100DC000888F2D8D3E8D8F8D98A128173907C9F4F6
:100DD000E889F989808185FF14C09FB7F894EE896E
:100DE000FF896083E889F9898081837080648083CA
:100DF0009FBF81E090E0DF91CF911F910F91FF9015
:100E00000895F62E0D8D1E8D0F5F1F4F11708F8D63
:100E100098A18017910761F40FB607FCF8CFE88915
:100E2000F989808185FFF3CFCE010E94B406EFCF10
:100E3000ED8DFE8DEC0FFD1FEF5DFD4FF0829FB736
:100E4000F8941E8F0D8FEA89FB8980818062CFCF55
:100E5000EF92FF920F931F93CF93DF938C017B014F
:100E6000D0E0C0E0F701EC0FFD1F6491662339F07C
:100E7000C8010E94D906892B11F02196F3CFCE012B
:100E8000DF91CF911F910F91FF90EF9008950F93F5
:100E90001F93CF93DF93EC010E9428078C01CE01B2
:100EA0000E94FC05800F911FDF91CF911F910F9140
:100EB0000895CF93DF93EC01888D8823B9F0AA8938
:100EC000BB89E889F9898C9185FD03C0808186FD05
:100ED0000DC00FB607FCF7CF8C9185FFF2CF808154
:100EE00085FFEDCFCE010E94B406E9CFDF91CF910F
:100EF0000895BC018DED9EE00E9402068DED9EE0FE
:100F00000E94590762E070E080E090E00C941C05BC
:100F100080E090E0892B29F00E94490681110E940F
:100F2000000080E090E0892B29F00E9439068111B1
:100F30000E94000080E090E0892B29F00E942906A1
:100F400081110E94000080E090E0892B29F00E942E
:100F5000190681110C9400000895CF93DF93EC01E2
:100F60000E944F05688379838A839B83DF91CF91A9
:100F70000895982F80ED890F8A3070F08FEB890FDC
:100F8000863018F489EC890F08958FE9890F86302F
:100F900010F489EAF8CF80E00895EF92FF920F9362
:100FA0001F93CF93DF938C01FC01E480F580D0E0A8
:100FB000C0E0EC16FD0661F0BE01C8010E94BD054F
:100FC000082E000C990BC0970A9750F42196F1CF88
:100FD00081E0DF91CF911F910F91FF90EF900895E5
:100FE00080E0F7CFCF93DF93FC012181222331F002
:100FF000EC0160E080810E946A041982DF91CF9148
:101000000895CF93DF93FC012181211107C0EC01EA
:1010100061E080810E946A0481E08983DF91CF9141
:101020000895CF93DF93EC01862F6883198261E0E6
:101030000E949804CE01DF91CF910C94F207CF93D8
:10104000DF93FC0124813581232B81F0C081D18184
:101050006091741370917513CE010E94791D0097F1
:1010600029F08C1B9D0BDF91CF9108958FEF9FEF9F
:10107000FACFFC0124813581232B39F421E0FB01D7
:101080008081882349F020E007C0808191810E94FF
:10109000691D21E0892BB9F7822F08950F931F93C3
:1010A000CF93DF938C01EB01FC018081918100974C
:1010B000E1F06881798161157105A9F04281538160
:1010C0002C813D814217530770F00E94721D8C8164
:1010D0009D81F801958384831D821C82DF91CF91CD
:1010E0001F910F9108950E94F61B88819981F80144
:1010F000918380838A819B81938382838C819D816C
:1011000095838483198218821B821A82E5CFCF933C
:10111000DF93EC0188819981009711F00E94F61B02
:10112000198218821D821C821B821A82DF91CF9144
:101130000895FC0180819181009711F00C94F61BB9
:1011400008950F931F93CF93DF93EC0188819981CA
:10115000009759F02A813B812617370730F081E04C
:10116000DF91CF911F910F9108958B016F5F7F4F9A
:101170000E947F1C009759F0998388831B830A8300
:101180002C813D81232B59F7FC011082E8CF80E0B0
:10119000E7CFEF92FF920F931F93CF93DF936115E9
:1011A000710541F480E0DF91CF911F910F91FF9085
:1011B000EF9008957B01EC01CB010E94AF1A0097DC
:1011C000A9F00C811D81080F191FB801CE010E94E2
:1011D000A108882339F3288139818C819D81B70149
:1011E000820F931F0E94A81A1D830C8381E0DBCF1E
:1011F000EF92FF920F931F93CF93DF9361157105C9
:1012000041F480E0DF91CF911F910F91FF90EF901B
:10121000089541155105B1F07B01EC010C811D8150
:10122000040F151FB8010E94A108882351F32881DB
:1012300039818C819D81B701820F931F0E94721D9D
:101240001D830C8381E0DECF0F931F93CF93DF9339
:1012500000D01F92CDB7DEB74AE08E010F5F1F4F5F
:10126000B80190E00E94B81AF80101900020E9F757
:101270003197AF01401B510BB80184E493E10E9408
:10128000F8080F900F900F900F90DF91CF911F9162
:101290000F910895EF92FF920F931F93CF93DF93D7
:1012A00000D000D01F92CDB7DEB77C01CB014AE061
:1012B0008E010F5F1F4FB8010E94D81AF8010190EC
:1012C0000020E9F73197AF01401B510BB801C7016E
:1012D0000E94F80827960FB6F894DEBF0FBECDBF68
:1012E000DF91CF911F910F91FF90EF900895FB0137
:1012F00044815581608171810C94F808EF92FF92CE
:101300000F931F93CF93DF93EC018B016115710550
:1013100051F0CB010E94AF1A7C01BC01CE010E94AA
:10132000A10881110BC0CE010E948708CE01DF9178
:10133000CF911F910F91FF90EF900895FD82EC8265
:10134000B801888199810E94A81AF0CFFC0111820E
:10135000108213821282158214820C947E09EF92FD
:10136000FF920F931F93CF93DF93EC017B018A01D0
:10137000BA010E94A10881110BC0CE010E9487080A
:10138000CE01DF91CF911F910F91FF90EF900895C3
:101390001D830C83B701888199810E94721DF0CF53
:1013A000FC0111821082138212821582148250E095
:1013B00040E06BE172E00C94AF09FB01019000206A
:1013C000E9F73197AF01461B570B0C94AF09CF9249
:1013D000DF92EF92FF920F931F93CF93DF936C01F5
:1013E0007B018A014617570720F48F2D7A01062FBB
:1013F000182FC6010E94D009C0917213D0917313A7
:10140000EC16FD06F8F40C171D0708F4E801E0914E
:101410006E13F0916F13EC0FFD1F1081108260911D
:101420006E1370916F136E0D7F1DC60161157105EE
:1014300099F00E94DD0980916E1390916F13C80F8F
:10144000D91F1883C601DF91CF911F910F91FF9093
:10145000EF90DF90CF9008950E948708ECCF8DED3C
:101460009EE00E948806181619063CF461E070E0C0
:1014700080E090E00E941C05F2CF6BE172E08EE606
:1014800093E10E94DD096AE070E080E090E00C9456
:101490001C051F920F920FB60F9211242F933F93AA
:1014A0008F939F93AF93BF93809172029091730239
:1014B000A0917402B09175023091710223E0230F64
:1014C0002D3758F50196A11DB11D2093710280930F
:1014D000720290937302A0937402B093750280918C
:1014E000760290917702A0917802B09179020196EC
:1014F000A11DB11D8093760290937702A09378028C
:10150000B0937902BF91AF919F918F913F912F91AD
:101510000F900FBE0F901F90189526E8230F02968C
:10152000A11DB11DD2CF1F920F920FB60F921124A1
:101530000BB60F922F933F934F935F936F937F93CD
:101540008F939F93AF93BF93EF93FF938CEB9AE0AE
:101550000E94B406FF91EF91BF91AF919F918F913F
:101560007F916F915F914F913F912F910F900BBEA3
:101570000F900FBE0F901F9018951F920F920FB6ED
:101580000F9211240BB60F922F933F934F935F93BB
:101590006F937F938F939F93AF93BF93EF93FF933B
:1015A0008CEB9AE00E945906FF91EF91BF91AF91A9
:1015B0009F918F917F916F915F914F913F912F916B
:1015C0000F900BBE0F900FBE0F901F9018951F929B
:1015D0000F920FB60F9211240BB60F922F933F93D9
:1015E0004F935F936F937F938F939F93AF93BF932B
:1015F000EF93FF938AE792E00E94B406FF91EF9188
:10160000BF91AF919F918F917F916F915F914F911A
:101610003F912F910F900BBE0F900FBE0F901F9018
:1016200018951F920F920FB60F9211240BB60F92BE
:101630002F933F934F935F936F937F938F939F93DA
:10164000AF93BF93EF93FF938AE792E00E9459060E
:10165000FF91EF91BF91AF919F918F917F916F918A
:101660005F914F913F912F910F900BBE0F900FBE46
:101670000F901F9018951F920F920FB60F92112482
:101680000BB60F922F933F934F935F936F937F937C
:101690008F939F93AF93BF93EF93FF938DED9EE056
:1016A0000E94B406FF91EF91BF91AF919F918F91EE
:1016B0007F916F915F914F913F912F910F900BBE52
:1016C0000F900FBE0F901F9018951F920F920FB69C
:1016D0000F9211240BB60F922F933F934F935F936A
:1016E0006F937F938F939F93AF93BF93EF93FF93EA
:1016F0008DED9EE00E945906FF91EF91BF91AF9151
:101700009F918F917F916F915F914F913F912F9119
:101710000F900BBE0F900FBE0F901F9018951F9249
:101720000F920FB60F9211240BB60F922F933F9387
:101730004F935F936F937F938F939F93AF93BF93D9
:10174000EF93FF938BE996E00E94B406FF91EF912F
:10175000BF91AF919F918F917F916F915F914F91C9
:101760003F912F910F900BBE0F900FBE0F901F90C7
:1017700018951F920F920FB60F9211240BB60F926D
:101780002F933F934F935F936F937F938F939F9389
:10179000AF93BF93EF93FF938BE996E00E945906B6
:1017A000FF91EF91BF91AF919F918F917F916F9139
:1017B0005F914F913F912F910F900BBE0F900FBEF5
:1017C0000F901F9018950F931F93CF93DF93ECEB1F
:1017D000FAE01382128248EE53E060E070E0448346
:1017E0005583668377838BE092E09183808325E342
:1017F00031E03587248724E331E03787268720E3EB
:1018000031E0318B208B21E331E0338B228B22E3DB
:1018100031E0358B248B26E331E0378B268B128E1B
:10182000118E148E138E168E158E10A2178EEAE767
:10183000F2E0138212824483558366837783918317
:10184000808325ED30E03587248724ED30E037872D
:10185000268720ED30E0318B208B21ED30E0338B7B
:10186000228B22ED30E0358B248B26ED30E0378B58
:10187000268B128E118E148E138E168E158E10A23C
:10188000178EEDEDFEE0138212824483558366834A
:101890007783918380832DEC30E0358724872CEC8F
:1018A00030E03787268728EC30E0318B208B29EC1D
:1018B00030E0338B228B2AEC30E0358B248B2EECFE
:1018C00030E0378B268B128E118E148E138E168E6F
:1018D000158E10A2178EEBE9F6E013821282448374
:1018E0005583668377839183808385EC90E0958729
:1018F000848784EC90E09787868780EC90E0918BDA
:10190000808B81EC90E0938B828B82EC90E0958BC6
:10191000848B86EC90E0978B868B128E118E148EC2
:10192000138E168E158E10A2178EC7E4D6E180E2B4
:101930008883198260E00E94980481E28E831F826E
:1019400060E00E94980482E28C871D8660E00E941D
:10195000980483E28A8B1B8A60E00E94980484E2E8
:10196000888F198E60E00E94980485E28E8F1F8E0A
:1019700060E00E94980486E28CA31DA260E00E94B1
:10198000980487E28AA71BA660E00E94980468E298
:1019900087E396E10E94110869E289E396E10E94DB
:1019A00011086AE28BE396E10E9411086BE28DE375
:1019B00096E10E9411086CE28FE396E10E94110803
:1019C0006DE281E496E10E9411086EE283E496E103
:1019D0000E9411086FE285E496E10E941108CBE2B3
:1019E000D6E184E0888361E00E94980485E08B83DF
:1019F00061E00E94980486E08E8361E00E94980472
:101A000087E0898761E00E9498040BE813E186E390
:101A1000F8018083C1E0C18360E00E94980487E3FD
:101A2000F80180AFC1AF60E00E94980488E3809322
:101A3000FB13C093FC1360E00E94980489E3809339
:101A40003314C093341460E00E9498048AE38093B6
:101A50006B14C0936C1460E00E9498048BE3809335
:101A6000A314C093A41460E00E9498048CE38093B4
:101A7000DB14C093DC1460E00E9498048DE3809333
:101A80001315C093141560E00E9498048EE38093B0
:101A90004B15C0934C1560E00E9498048FE380932F
:101AA0008315C093841560E00E94980480E48093BD
:101AB000BB15C093BC1560E00E94980481E480933C
:101AC000F315C093F41560E00E949804C6E8D3E1D2
:101AD0008BE1888362E00E9498048CE1898362E054
:101AE0000E9498048DE18A8362E00E9498048EE14E
:101AF0008B8362E00E9498048FE18C8362E00E94F5
:101B0000980480E893E10E94D0098AE793E10E945B
:101B1000D00984E793E10E94D0098EE693E10E9408
:101B2000D00988E693E10E94D00982E693E10E9401
:101B3000D0098CE593E10E94D00986E593E10E94EB
:101B4000D00980E593E10E94D0098AE493E10E94E4
:101B5000D00984E493E10E94D0098EE393E10E94CE
:101B6000D00988E393E10E94D00982E393E10E94C7
:101B7000D0098CE293E10E94D00986E293E10E94B1
:101B8000D00980E293E10E94D0098AE193E10E94AA
:101B9000D009EFE0F3E114821582168217821086D5
:101BA00080E395E7A0E0B0E080839183A283B383D4
:101BB00012861186E6E0F3E180E197E2A0E0B0E072
:101BC00080839183A283B383148215821682178245
:101BD0001086CEEFD2E1188288E189831A8281E0F3
:101BE00090E09C838B831E821D821F828DED9EE080
:101BF0000E94DC0361E089810E94980461E0898190
:101C00000E946A0461E086E10E94980460E086E137
:101C10000E946A048CEB9AE0DF91CF911F910F91A3
:101C20000C94DC03CF93DF9300D000D0CDB7DEB7A8
:101C3000789484B5826084BD84B5816084BD85B5A7
:101C4000826085BD85B5816085BD80916E008160B3
:101C500080936E0010928100809181008260809359
:101C6000810080918100816080938100809180005B
:101C70008160809380008091B10084608093B10086
:101C80008091B00081608093B0008091910082606B
:101C90008093910080919100816080939100809168
:101CA00090008160809390008091A1008260809379
:101CB000A1008091A10081608093A1008091A0008B
:101CC00081608093A0008091210182608093210136
:101CD00080912101816080932101809120018160A8
:101CE0008093200180917A00846080937A008091B3
:101CF0007A00826080937A0080917A00816080937C
:101D00007A0080917A00806880937A001092C100F6
:101D10008BE996E00E94DC031092000268E070E01C
:101D20008CE593E10E94A10868E070E080E593E112
:101D30000E94A10868E070E08AE493E10E94A10893
:101D400068E070E08CE293E10E94A10868E070E036
:101D500086E293E10E94A10868E070E082E393E1EB
:101D60000E94A10860E270E086E593E10E94A1086C
:101D700060E270E084E793E10E94A10860E470E013
:101D80008AE793E10E94A10860E470E088E693E1AD
:101D90000E94A10860E470E082E693E10E94A1083D
:101DA00060E470E08EE393E10E94A10860E870E0D7
:101DB00080E893E10E94A10860E870E080E293E18E
:101DC0000E94A10860E870E08EE693E10E94A108FD
:101DD00060E071E084E493E10E94A10860E072E0B9
:101DE00088E393E10E94A10860E074E08AE193E156
:101DF0000E94A10860EC71E0811102C06AEA71E002
:101E00008BE996E00E94280764E971E08BE996E08F
:101E10000E94470711E01093171389EB95E0909308
:101E20001913809318130E942F0A1093FE128AE749
:101E300092E00E94DC038BE296E1FBE8EF2EF3E1F7
:101E4000FF2EF7011182F8E3EF0EF11C8E159F05AE
:101E5000C1F788E199E20FB6F894A89580936000E5
:101E60000FBE90936000E6E08E2E912C54E0C52EBC
:101E7000D12C6CE0262E312C7AE0472E512C80910B
:101E80001713882339F10E944F0500911313109105
:101E900014132091151330911613601B710B820BD4
:101EA000930B00910F131091101320911113309187
:101EB0001213061717072807390760F4E091181363
:101EC000F0911913309709F4FDC2199583E193E15C
:101ED0000E94AD078091011390910213019709F0C0
:101EE00056C06BE172E08EE693E10E94DD096BE182
:101EF00072E088E693E10E94DD096BE172E082E620
:101F000093E10E94DD096BE172E08CE593E10E94B0
:101F1000DD096BE172E086E593E10E94DD096BE18A
:101F200072E080E593E10E94DD096BE172E08AE4F2
:101F300093E10E94DD096BE172E084E493E10E9489
:101F4000DD096BE172E08EE393E10E94DD096BE154
:101F500072E088E393E10E94DD091092051360E0CE
:101F60008091FF120E946A0468EE73E080E090E0C6
:101F70000E945B05882359F061E08091FF120E9466
:101F80006A0482E090E090930213809301138091A1
:101F90000113909102130297F1F564EF71E080E074
:101FA00090E00E945B058823B1F162E875E0CE0104
:101FB00001960E94A609CE0101960E947907CE01E2
:101FC00001960E94990868E775E0CE0101960E948B
:101FD000A609CE0101960E947907CE0101960E94C2
:101FE00099086DE675E0CE0101960E94A609CE0122
:101FF00001960E947907CE0101960E94990860E639
:1020000075E08BE996E00E94470783E090E09093AB
:10201000021380930113809101139091021304978E
:1020200009F06EC06DE475E08BE996E00E94470709
:1020300063E475E0CE0101960E94A609CE010196E7
:102040000E947907CE0101960E94990868E375E025
:10205000CE0101960E94A609CE0101960E94790741
:10206000CE0101960E9499086DE275E0CE010196BD
:102070000E94A609CE0101960E947907CE01019621
:102080000E94990862E275E0CE0101960E94A609BD
:10209000CE0101960E947907CE0101960E9499080F
:1020A00064E175E0CE0101960E94A609CE01019679
:1020B0000E947907CE0101960E94990866E075E0BA
:1020C000CE0101960E94A609CE0101960E947907D1
:1020D000CE0101960E94990869EF74E0CE01019645
:1020E0000E94A609CE0101960E947907CE010196B1
:1020F0000E94990885E090E0909302138093011369
:102100008091011390910213069711F568EE73E028
:1021100080E090E00E945B058823D1F06BEE74E0D4
:102120008BE996E00E94470764EE74E0CE010196C9
:102130000E94A609CE0101960E947907CE01019660
:102140000E94990887E090E0909302138093011316
:102150008091011390910213089711F568EE73E0D6
:1021600080E090E00E945B058823D1F064ED74E08C
:102170008BE996E00E9447076AEC74E0CE01019675
:102180000E94A609CE0101960E947907CE01019610
:102190000E94990889E090E09093021380930113C4
:1021A00080910113909102130A9711F568EE73E084
:1021B00080E090E00E945B058823D1F06AEB74E038
:1021C0008BE996E00E94470760EB74E0CE01019630
:1021D0000E94A609CE0101960E947907CE010196C0
:1021E0000E9499088BE090E0909302138093011372
:1021F00080910113909102130C9711F568EE73E032
:1022000080E090E00E945B058823D1F06EE974E0E5
:102210008BE996E00E9447076DE774E0CE010196D6
:102220000E94A609CE0101960E947907CE0101966F
:102230000E9499088DE090E090930213809301131F
:1022400080910113909102130E97C1F468EE73E030
:1022500080E090E00E945B05882381F068E674E0EE
:102260008BE996E00E94470788E693E10E94790790
:102270008FE090E0909302138093011380910113FB
:1022800090910213409781F462E574E08BE996E047
:102290000E94470782E693E10E94790781E190E07E
:1022A0009093021380930113809101139091021374
:1022B000429779F481E08093FE1283E190E090935D
:1022C0000213809301136EE374E08BE996E00E94A1
:1022D00047078091011390910213439709F0B3C00F
:1022E0008091031390910413892B11F568E873E131
:1022F00080E090E00E945B058823D1F063E274E007
:102300008BE996E00E9447076CE174E0CE010196EC
:102310000E94A609CE0101960E947907CE0101967E
:102320000E94990881E090E0909304138093031336
:102330008091031390910413029711F568E873E1FB
:1023400080E090E00E945B058823D1F06FEF73E09E
:102350008BE996E00E94470765EF73E0CE01019696
:102360000E94A609CE0101960E947907CE0101962E
:102370000E94990883E090E09093041380930313E4
:102380008091031390910413049711F568E873E1A9
:1023900080E090E00E945B058823D1F068ED73E057
:1023A0008BE996E00E9447076EEC73E0CE01019640
:1023B0000E94A609CE0101960E947907CE010196DE
:1023C0000E94990885E090E0909304138093031392
:1023D00080910313909104130697D9F468EC72E38B
:1023E00080E090E00E945B05882399F064EB73E045
:1023F0008BE996E00E9447078EE393E10E947907FC
:1024000081E08093051387E090E09093041380931C
:10241000031380910313909104130897A1F460EDC6
:1024200077E080E090E00E945B05882361F084E41F
:1024300093E10E9479071092051389E090E0909350
:102440000413809303138091F60E9091F70E209160
:10245000F80E3091F90E821B930B9170892B09F4C1
:1024600040C048E0642E712CBB24B3948091F60EDA
:102470009091F70E2091F80E3091F90E821B930B7C
:102480009170892B71F18DED9EE00E948806182FC6
:1024900080910013882329F0612F8BE996E00E9438
:1024A000D9061D3009F4AAC41A3001F319831A821F
:1024B00041E050E0BE016F5F7F4F8EE693E10E94E6
:1024C000F808D4CF88E198E00FB6F894A8958093E7
:1024D00060000FBE90936000FFCF60E070E0CB0122
:1024E0001BC7809132028823A1F00E942F0A10920C
:1024F000320281E090E090930213809301131092D6
:1025000004131092031367EA73E08BE996E00E94CC
:1025100047078091FE12811107C06AE070E080E0F9
:1025200090E00E941C05ABCC809101138093350292
:1025300027E4C22E26E1D22E37E7A32E36E1B32EB2
:102540008601F801208130E0F901E85FF84F8491BD
:10255000F901EE53F94F6490F901E458F94F749082
:10256000772009F458C281110E940304E72DF0E09E
:10257000EE0FFF1FE450FA4FA591B491EC916E223B
:1025800081E009F480E0782EF8018181781609F461
:1025900044C20E944F05F801228133814481558154
:1025A000621B730B840B950B6333710581059105D9
:1025B00008F071820A5F1F4FA016B10609F0C1CF63
:1025C0000BE813E1F801818160E4A62EB12C412CC7
:1025D000512C3201813009F028C2A12CBB24B394C4
:1025E000412C512C3201F80180810E94D404092E23
:1025F000000CAA0BBB0B480E591E6A1E7B1EF1E095
:10260000AF1AB10881F7B4E0769467945794479471
:10261000BA95D1F7F80153824282349681E090E076
:102620002281338121933193019688319105C1F73D
:10263000F80153AA42AA60E070E0CB0150E040E00C
:10264000FA01EE0FFF1FE00FF11F24813581620FA9
:10265000731F811D911D4F5F5F4F4831510581F7F9
:1026600028E130E040E050E00E94211BF80135AB4A
:1026700024AB085C1F4F0E151F0509F0A3CF40E0E7
:1026800090E080E021E030E0F6015181511120E03E
:10269000082E01C0220F0A94EAF7422B0196F6E0B9
:1026A000CF0ED11C8830910569F740933402E7E3DF
:1026B000F6E140E030E020E08181022E01C0880F89
:1026C0000A94EAF7482B2F5F3F4F329628303105A6
:1026D00099F7409333026AEF75E080E893E10E9436
:1026E0007E090BE813E1D12CC12CF80154A945A9AE
:1026F0008181813009F0B4C1252F342F203CFEE3C5
:102700003F0710F02FEB3EE3AFEFBFE00E94431B0B
:102710002FEB3EE340E050E00E94021BF80137AB94
:1027200026ABF80166A977A980E893E10E944A09DF
:10273000FBE0CF16D10431F068EF75E080E893E15B
:102740000E94C9082FEFC21AD20A085C1F4F3CE052
:10275000C316D10451F666EF75E080E893E10E945C
:10276000C90864EF75E08AE793E10E947E094BE2B5
:10277000C42E46E1D42E10E000E0F60161817281A2
:102780008AE793E10E944A090330110531F062EFB4
:1027900075E08AE793E10E94C9080F5F1F4FF3E0DD
:1027A000CF0ED11C0430110541F760EF75E08AE7C8
:1027B00093E10E94C90880910513811156C068EE0B
:1027C00075E084E493E10E947E096CE573E184E4A2
:1027D00093E10E94770966EE75E084E493E10E943C
:1027E000C9086FED75E084E493E10E94C908809107
:1027F00034020E9424096DED75E084E493E10E94A7
:10280000C90865ED75E084E493E10E94C9088091F0
:1028100033020E94240963ED75E084E493E10E9491
:10282000C9086CEC75E084E493E10E94C90860E893
:1028300073E184E493E10E9477096AEC75E084E433
:1028400093E10E94C90862EC75E084E493E10E9480
:10285000C9086AE773E184E493E10E94770960ECB8
:1028600075E084E493E10E94C90869EA75E08EE3AB
:1028700093E10E947E0966E573E18EE393E10E9495
:10288000770964EA75E08EE393E10E94C9086091DC
:102890004813709149138EE393E10E944A096091B5
:1028A0003E1370913F136115710509F4E5C0409125
:1028B00042135091431388E393E10E94AF0962EA07
:1028C00075E088E393E10E94C90864E473E188E35A
:1028D00093E10E9477098091361390913713892BE9
:1028E00009F465C070E060E082E393E10E94BD05F9
:1028F000D82E61E070E082E393E10E94BD05082FCD
:1029000063E070E082E393E10E94BD05182F64E06C
:1029100070E082E393E10E94BD05C82E24E4D21248
:10292000D8C00A3309F0C2C0812F0E94B907182FFE
:102930008C2D0E94B90740E1149F90011124182F9B
:10294000122B85E496E110FD9CC00E94F20783E4FF
:1029500096E111FD99C00E94F20781E496E112FD13
:1029600096C00E94F2078FE396E113FD93C00E9488
:10297000F2078DE396E114FD90C00E94F2078BE30D
:1029800096E115FD8DC00E94F20789E396E116FDE0
:102990008AC00E94F20787E396E117FD97C00E9464
:1029A000F2076BE172E082E393E10E94DD0960E0EF
:1029B00086E10E946A0461E070E080E090E00E949D
:1029C0001C050091D50A1091D60A8091D70A9091E2
:1029D000D80A081B190B11700115110509F46BC1F8
:1029E0008CEB9AE00E948806182F682F8BE996E0FE
:1029F0000E94D9061D3009F41BC51A3011F3198342
:102A00001A8241E050E0BE016F5F7F4F80E293E1A8
:102A10000E94F808D6CF712CB7CD0E944F05F8015F
:102A20006283738384839583C5CDF80180810E947E
:102A3000D404092E000CAA0BBB0B480E591E6A1EAB
:102A40007B1EF1E0AF1AB10881F756E076946794E7
:102A5000579447945A95D1F7F80155AA44AA09CE3C
:102A6000852F942F8115F4E09F0710F08FEF93E0EE
:102A7000F80197AB86AB55CE88E393E10E948708B7
:102A80001ECF0E94010863CF0E94010866CF0E94FA
:102A9000010869CF0E9401086CCF0E9401086FCF26
:102AA0000E94010872CF0E94010875CF8FEC800F41
:102AB000883008F076CFE02FE153FF0BCF01880F6D
:102AC000991F895C994E103309F469CF0E9401085F
:102AD00068CFF1E4DF1265CF8FEC800F853008F00E
:102AE00060CF812F0E94B907D82E8C2D0E94B90784
:102AF00040E1D49E90011124D82ED22AE02FE15338
:102B0000FF0BCF010D2D10E0EE0FFF1FE80FF91F97
:102B1000E55DF94E12830183C08061E08C2D0E9437
:102B20009804D11005C060E08C2D0E946A0439CF52
:102B30000F3F110511F461E0F7CFEC2DF0E0E85FF5
:102B4000F84FE491E150E23108F0B0C0F0E088279E
:102B5000E355FA4E8F4F0C94521BBF15C415C9157F
:102B6000D315DD155616E715EF15F71501160B16DB
:102B7000151624162E165616381642164C1684B5FF
:102B8000806884BDD7BC0DCF84B5806284BDD8BCBD
:102B900008CF809180008068809380001093890026
:102BA00000938800FECE8091800080628093800038
:102BB00010938B0000938A00F4CE8091800088608F
:102BC0008093800010938D0000938C00EACE80915A
:102BD000B00080688093B000D092B300E2CE8091C4
:102BE000B00080628093B000D092B400DACE8091C1
:102BF0009000806880939000109399000093980053
:102C0000D0CE8091900080628093900010939B00C2
:102C100000939A00C6CE80919000886080939000C7
:102C200010939D0000939C00BCCE8091A000806812
:102C30008093A0008091A0008F7B8093A0001093D0
:102C4000A9000093A800ADCE8091A000806280937F
:102C5000A0001093AB000093AA00A3CE8091A00027
:102C600088608093A0001093AD000093AC0099CED3
:102C700080912001806880932001109329010093A6
:102C800028018FCE809120018062809320011093D3
:102C90002B0100932A0185CE8091200188608093CA
:102CA000200110932D0100932C017BCE00381105DB
:102CB0000CF041CF38CF0E944F052B013C01809191
:102CC0006D0290916E02A0916F02B0917002A3010B
:102CD0009201281B390B4A0B5B0BDA01C901813DBC
:102CE0009740A105B10508F47FC080915C139091D5
:102CF0005D1360E0009711F00E94811A8BE58093CC
:102D000036028091350280933702609338028091B9
:102D10003402809339028091330280933A02E6E3D1
:102D2000F2E0ABE8B3E1D6968C91D697D7969C911A
:102D3000D79795838683D896329642E0EE34F4078F
:102D400091F780912C1690912D16909353028093B9
:102D5000540280912F1690913016909355028093D3
:102D600056028091321690913316909357028093B9
:102D7000580280913516909136169093590280939F
:102D80005A028BE5C82E82E0D82EB80186E593E181
:102D90000E94BD05F60181936F010F5F1F4F003147
:102DA000110599F7E7E3F2E095E380E0915019F01F
:102DB0002191820FFBCF80936B028DE580936C0293
:102DC00047E350E066E372E08AE792E00E94CF05B5
:102DD0008AE792E00E94590740926D0250926E027B
:102DE00060926F0270927002A8956AE070E080E0D5
:102DF00090E00E941C050E94880738C8809101134A
:102E0000909102130397D1F462EA73E084E793E1AF
:102E10000E947E098EE693E10E941F0897FD0EC076
:102E20006EE873E08BE996E00E944707D0920213A8
:102E3000C092011383E193E10E94AD0780910113D9
:102E400090910213059771F46FE773E08BE996E0B8
:102E50000E944707909202138092011383E193E14D
:102E60000E94AD0780910113909102130797D1F44E
:102E700069E773E084E793E10E947E098EE693E1BF
:102E80000E941F0897FD0EC064E673E08BE996E090
:102E90000E944707709202136092011383E193E14D
:102EA0000E94AD0780910113909102130997D1F40C
:102EB0006CE573E084E793E10E947E098EE693E17E
:102EC0000E941F0897FD0EC065E473E08BE996E051
:102ED0000E944707509202134092011383E193E14D
:102EE0000E94AD0780910113909102130B97D1F4CA
:102EF0006DE373E084E793E10E947E098EE693E13F
:102F00000E941F0897FD0EC066E273E08BE996E011
:102F10000E944707309202132092011383E193E14C
:102F20000E94AD0780910113909102130D97E1F477
:102F300068E173E084E793E10E947E098EE693E105
:102F40000E941F0897FD10C06AE073E08BE996E0CD
:102F50000E9447072EE030E03093021320930113C4
:102F600083E193E10E94AD078091011390910213D8
:102F70000F97E1F46AEF72E084E793E10E947E0923
:102F80008EE693E10E941F0897FD10C069EE72E083
:102F90008BE996E00E94470740E150E0509302130E
:102FA0004093011383E193E10E94AD0780910113E7
:102FB000909102134197E1F460EE72E084E793E1AF
:102FC0000E947E098EE693E10E941F0897FD10C0C3
:102FD00061ED72E08BE996E00E94470782E190E0A4
:102FE000909302138093011383E193E10E94AD0754
:102FF0008091011390910213439709F09CC0809136
:103000000313909104130197E1F46BEC72E084E7F1
:1030100093E10E947E098EE693E10E941F0897FDCE
:1030200010C066EB72E08BE996E00E944707E2E091
:10303000F0E0F0930413E093031383E193E10E9423
:10304000AD0780910313909104130397D1F46EEAB6
:1030500072E084E793E10E947E098EE693E10E948C
:103060001F0897FD0EC067E972E08BE996E00E94A9
:103070004707D0920413C092031383E193E10E94A7
:10308000AD0780910313909104130597D1F46FE875
:1030900072E084E793E10E947E098EE693E10E944C
:1030A0001F0897FD0EC068E772E08BE996E00E946A
:1030B0004707909204138092031383E193E10E94E7
:1030C000AD0780910313909104130797A1F466E76D
:1030D00072E084E793E10E947E098EE693E10E940C
:1030E0001F0897FD08C0709204136092031383E1D8
:1030F00093E10E94AD078091031390910413099707
:10310000D1F467E672E084E793E10E947E098EE6DF
:1031100093E10E941F0897FD0EC0109204131092B5
:1031200003136EE472E08BE996E00E94470783E1A7
:1031300093E10E94AD0767E472E084E793E10E94A7
:103140007E098EE693E10E941F0897FD3FC046E18D
:1031500050E067E070E0CE0101960E94E709BE01F1
:103160006F5F7F4F86E593E10E944E08CE01019686
:103170000E94990886E593E10E94CD07811102C063
:10318000B092320265E372E088E693E10E947E0924
:1031900066E573E188E693E10E94770964E272E0F4
:1031A00088E693E10E94C90861E172E082E693E15A
:1031B0000E947E0966E573E182E693E10E94770949
:1031C0006AE072E082E693E10E94C90862E072E080
:1031D00084E793E10E947E098EE693E10E941F0836
:1031E00097FD1DC049E050E068E070E0CE01019617
:1031F0000E94E709BE016F5F7F4F80E593E10E9467
:103200004E08CE0101960E9499086EE172E080E5B9
:1032100093E10E943908811102C0B09232026AEF34
:1032200071E084E793E10E947E098EE693E10E94BB
:103230001F0897FD1DC04BE050E068E070E0CE0134
:1032400001960E94E709BE016F5F7F4F8AE493E118
:103250000E944E08CE0101960E9499086CE172E02E
:103260008AE493E10E943908811102C0B0923202CF
:1032700064EF71E084E793E10E947E098EE693E1BA
:103280000E941F0897FD55C061EF71E084E793E14C
:103290000E947E098EE693E10E941F088C016FEE6A
:1032A00071E084E793E10E947E098EE693E10E943B
:1032B0001F08B8016E5F7F4FAC01CE0101960E94DE
:1032C000E709BE016F5F7F4F8CE593E10E944E08D6
:1032D000CE0101960E94990860E272E08CE593E1CC
:1032E0000E9439088111B09232028CE593E10E946C
:1032F000CD07811108C0B09232026DEE71E08CE50D
:1033000093E10E947E0980915C1390915D13009778
:1033100009F4E3C80E94811A655071096B31710587
:1033200040F0B09232026BEE71E08CE593E10E94C6
:103330007E0962EE71E084E793E10E947E098EE6E9
:1033400093E10E941F0897FD1DC04EE050E069E028
:1033500070E0CE0101960E94E709BE016F5F7F4FCA
:103360008CE293E10E944E08CE0101960E949908DA
:1033700063E272E08CE293E10E943908811102C09D
:10338000B092320269ED71E084E793E10E947E0918
:103390008EE693E10E941F0897FD1DC040E150E0BA
:1033A00069E070E0CE0101960E94E709BE016F5FFF
:1033B0007F4F86E293E10E944E08CE0101960E9463
:1033C000990869E272E086E293E10E94390881116E
:1033D00002C0B09232026FEC71E084E793E10E9488
:1033E0007E098EE693E10E941F0897FD19C04EE208
:1033F00050E069E270E0CE0101960E94E709BE014B
:103400006F5F7F4F82E393E10E944E08CE010196E9
:103410000E94990862E373E18BE996E00E9402063C
:103420006BE172E08EE693E10E94DD090C943612A6
:1034300065E476E084E793E10E947E0980E293E10F
:103440000E941F0897FDBDCA61E086E10E946A04E0
:1034500062E070E080E090E00E941C0566E176E0AA
:103460008CEB9AE00E9447078CEB9AE00E94590788
:10347000A8CA8AE193E10E94990880E293E10E9440
:10348000990886E293E10E9499088CE293E10E94F8
:10349000990882E393E10E94990888E393E10E94EE
:1034A00099088EE393E10E94990884E493E10E94D5
:1034B00099088AE493E10E94990880E593E10E94CB
:1034C000990886E593E10E9499088CE593E10E94B2
:1034D000990882E693E10E94990888E693E10E94A8
:1034E00099088EE693E10E94990884E793E10E948F
:1034F00099088AE793E10E94990880E893E10C9487
:1035000099081F93FC0199278827BC01E894119121
:103510001032E9F3193010F01E30C8F31B3251F0AD
:103520001D3249F4689406C00E94C31A610F711DD0
:10353000811D911D119110531A30B0F33EF49095F6
:103540008095709561957F4F8F4F9F4F1F91089584
:10355000FB01DC0105900D920020E1F70895FC01CC
:1035600005900020E9F7809590958E0F9F1F089594
:10357000BB274A3031F4992322F4BDE2909581951E
:103580009F4F0C94D91A592F482F372F262F660F8B
:10359000771F881F991F660F771F881F991F620F5B
:1035A000731F841F951F660F771F881F991F08952B
:1035B000BB27FB015527AA27880F991FAA1FA4170D
:1035C00010F0A41B83955051B9F7A05DAA3308F001
:1035D000A95DA193009779F7B111B1931192CB0135
:1035E0000C94F21ADC01FC01672F71917723E1F74B
:1035F000329704C07C916D9370836291AE17BF07C0
:10360000C8F30895052E97FB1EF400940E94191B21
:1036100057FD07D00E94211B07FC03D04EF40C94E9
:10362000191B50954095309521953F4F4F4F5F4F57
:10363000089590958095709561957F4F8F4F9F4F1E
:103640000895A1E21A2EAA1BBB1BFD010DC0AA1FE3
:10365000BB1FEE1FFF1FA217B307E407F50720F0FB
:10366000A21BB30BE40BF50B661F771F881F991F76
:103670001A9469F760957095809590959B01AC01BF
:10368000BD01CF010895A29FB001B39FC001A39FC8
:10369000700D811D1124911DB29F700D811D11248B
:1036A000911D0895EE0FFF1F881F8BBF0790F691A5
:1036B000E02D19940F931F93CF93DF9382309105E0
:1036C00010F482E090E0E0917916F0917A1630E003
:1036D00020E0B0E0A0E0309799F42115310509F41D
:1036E0004AC0281B390B24303105D8F58A819B81CB
:1036F0006115710589F1FB0193838283FE0111C07D
:10370000408151810281138148175907E0F0481721
:10371000590799F4109761F012960C93129713962B
:103720001C933296CF01DF91CF911F910F91089595
:103730000093791610937A16F4CF2115310551F0C4
:103740004217530738F0A901DB019A01BD01DF01DF
:10375000F801C1CFEF01F9CF90937A1680937916D3
:10376000CDCFFE01E20FF31F8193919322503109D7
:1037700039832883D7CF2091771630917816232B61
:1037800041F4209103023091040230937816209383
:10379000771620910102309102022115310541F482
:1037A0002DB73EB74091050250910602241B350B00
:1037B000E0917716F0917816E217F307A0F42E1B2C
:1037C0003F0B2817390778F0AC014E5F5F4F241785
:1037D000350748F04E0F5F1F5093781640937716C9
:1037E000819391939FCFF0E0E0E09CCFCF93DF9364
:1037F0000097E9F0FC01329713821282A0917916AA
:10380000B0917A16ED0130E020E01097A1F420810C
:103810003181820F931F20917716309178162817E7
:10382000390709F061C0F0937816E0937716DF91BD
:10383000CF910895EA01CE17DF07E8F54A815B8151
:103840009E0141155105B1F7E901FB83EA834991D6
:103850005991C40FD51FEC17FD0761F48081918148
:103860000296840F951FE901998388838281938151
:103870009B838A83F0E0E0E012968D919C911397F0
:103880000097B9F52D913C911197CD010296820FC9
:10389000931F20917716309178162817390739F63B
:1038A000309751F510927A1610927916B0937816D7
:1038B000A0937716BCCFD383C28340815181840FFC
:1038C000951FC817D90761F44E5F5F4F88819981B2
:1038D000480F591F518340838A819B819383828340
:1038E0002115310509F0B0CFF0937A16E0937916DF
:1038F0009ECFFD01DC01C0CF13821282D7CF4F9241
:103900005F926F927F928F929F92AF92BF92CF926F
:10391000DF92EF92FF920F931F93CF93DF938C016F
:10392000009799F4CB01DF91CF911F910F91FF90F8
:10393000EF90DF90CF90BF90AF909F908F907F904F
:103940006F905F904F900C945A1BFC01E60FF71F8D
:103950009C0122503109E217F30708F4AEC0D901E7
:10396000CD91DC911197C617D70720F1C530D1054D
:1039700078F0CE0104978617970750F0C61BD70B37
:103980002297C193D1936D937C93CF010E94F61B34
:10399000C801DF91CF911F910F91FF90EF90DF90C1
:1039A000CF90BF90AF909F908F907F906F905F90DF
:1039B0004F9008955B01AC1ABD0A4C018C0E9D1E00
:1039C000A0917916B0917A16512C412CF12CE12C52
:1039D000109731F580917716909178168815990592
:1039E00009F05CC04616570608F058C080910102E5
:1039F00090910202009741F48DB79EB74091050265
:103A000050910602841B950BE817F90708F055C082
:103A1000F0937816E0937716F90171836083B8CF3D
:103A20008D919C91119712966C90129713967C90A1
:103A30001397A815B90559F56C0142E0C40ED11CC5
:103A4000CA14DB0420F1AC014A195B09DA011296B1
:103A5000159780F06282738251834083D9016D9300
:103A60007C93E114F10471F0D7011396FC93EE936B
:103A700012978ECF22968C0F9D1FF9019183808320
:103A8000F301EFCFF0937A16E093791681CF4816C1
:103A9000590608F42C017D01D3019ACFCB010E9475
:103AA0005A1B7C01009749F0AE01B8010E94601DCD
:103AB000C8010E94F61B87016BCF10E000E068CFC1
:103AC000FB01DC0102C001900D9241505040D8F73B
:103AD0000895FB01DC018D91019080190110D9F34B
:103AE000990B0895FB01DC0101900D920020E1F794
:103AF0000895FB0151915523A9F0BF01DC014D91BF
:103B000045174111E1F759F4CD010190002049F02A
:103B10004D9140154111C9F3FB014111EFCF81E0F7
:103B200090E00197089513E0C8EAD3E000E006C0F2
:103B3000802FFE010E94521B2196011DC93AD10718
:0A3B400080E00807A9F7F894FFCF12
:103B4A000100007B16800000000000D906CF057630
:103B5A00065907AE058806A2060D0A00302C310068
:103B6A00393900302C302C3000302C312C302C30AC
:023B7A00000049
:00000001FF
