:020000040000FA
:100000000C9483030C94B4030C94B4030C94B403C5
:100010000C94B4030C94B4030C94B4030C94B40384
:100020000C94B4030C94B4030C94B4030C94B40374
:100030000C94B4030C94B4030C94B4030C94B40364
:100040000C94B4030C94B4030C94B4030C94B40354
:100050000C94B4030C94B4030C94B4030C944C139C
:100060000C94B4030C94BC140C9492140C94B4032C
:100070000C94B4030C94B4030C94B4030C94B40324
:100080000C94B4030C94B4030C94B4030C94B40314
:100090000C9468140C943E140C94B4030C94B403A4
:1000A0000C94B4030C94B4030C94B4030C94B403F4
:1000B0000C94B4030C94B4030C94B4030C94B403E4
:1000C0000C94B4030C94B4030C94B4030C94141463
:1000D0000C94EA130C94B4030C94C0130C94961370
:1000E0000C94B4030C94E6030C941C1E0C94DE03D5
:1000F0000C94BC0A0C949B0D0C94AE070C94B30F9B
:100100000C9415040C9420050C9414040C9488058C
:100110000C9496050C94321E0C9450070C94D40346
:100120000C94261E0C94FA070C945B0F0C940F0889
:100130000C94C60A0C9407040C945A1E0C94EF03FA
:100140000C943A080C94AC100C94F1090C945B11CB
:100150000C94A40A0C94F3030C94A71E0C94A5060B
:100160000C94DF0C0C9432150C9424070C9432136D
:100170000C9438090C94DA030C9445070C947E1EF9
:100180000C9466070C9423080C947D110C949B1E10
:100190000C949A0A0C9426070C940B040C94BF1E22
:1001A0000C94E9030C94E80F0C94F9030C94CA0E18
:1001B0000C940F040C94E2030C943E1E0C943A072A
:1001C0000C9446060C94700A0C944A1E0C94721EF1
:1001D0000C94B31E0C94521E0C94661E0C940104D5
:1001E0000C942A110C9475050C9465050C94E61476
:1001F0000C94CB1E0C94211E0C94FD030C9419043A
:100200000C948F1E0C94CD0A0C9493090C94C91174
:100210000C945B073E3E3E20496F54205761746347
:1002200068646F67204177616B656E005B53747221
:10023000696E67205370616365204E4F54204F4BA9
:100240005D005B537472205370616365204F4B5D9A
:1002500000466F726365205075626C6973683A007E
:100260000041542B514D544F50454E3D302C696F39
:10027000742E7265632D67742E636F6D2C31383860
:100280003000466F726365204F70656E3A004F50C4
:10029000454E00464F5243450052455345540000D9
:1002A0002F696E2C0041542B514D545055424558E6
:1002B0003D302C312C322C302C7267742F0041547D
:1002C0002B514D545055423D302C312C322C302C7A
:1002D0007267742F007D0022616F7574223A002CC2
:1002E000002261696E223A002C0022646F7574222C
:1002F0003A002C002264696E223A002C007B2263B3
:100300007371223A005D002C005B005D002C005BE5
:1003100000000020002300260029002C002F0032BE
:10032000000001000003010601090100002B514DEE
:10033000545055423A20302C312C30002B514D5422
:100340005055423A20302C302C30002B514D545017
:10035000554245583A20302C312C30002B514D5409
:1003600050554245583A20302C302C30003E004148
:10037000542B4353510041542B4350494E3F003EB0
:100380003E3E205175657279204350494E2026200B
:1003900043535100302C310031002B514D545355F3
:1003A000423A20302C312C302C30002B514D54430C
:1003B0004F4E4E3A20302C302C30002B514D544FA4
:1003C00050454E3A20302C300041542B514D544F63
:1003D00050454E3D302C382E3231302E38342E32AE
:1003E000342C313838300041542B514D544F504546
:1003F0004E3D302C696F742E7265632D67742E63C9
:100400006F6D2C313838300041542B4345524547ED
:100410003F0041542B43474154543F0041542B4328
:1004200053510041542B4347534E3D310041542B0F
:10043000514D54444953433D300041542B514D5488
:10044000434C4F53453D300041542B434544525893
:10045000533D302C350041542B4353434F4E3D30D8
:100460000041542B4350534D533D300041542B51C8
:1004700053434C4B3D300041542B4346554E3D3188
:100480000041542B5149444E534346473D302C3193
:100490002E312E312E312C3232332E352E352E3553
:1004A0000041542B5153434C4B3D300041542B439E
:1004B00046554E3D31003E3E3E20494F5420434F6D
:1004C0004E4E454354494F4E20494E4954004154E5
:1004D00049003E3E3E20494F542053455249414C2D
:1004E000204641494C210029003E3E3E20494F54C0
:1004F0002053455249414C2050524F42452E2E2EFA
:1005000020280041542B5153434C4B3D3000415463
:100510004530003E3E3E2046494E49534820484122
:100520005244574152452052455345540052445974
:100530000000000000000000000000003E3E3E20E1
:10054000494F54204D4F44554C4520494E49542C59
:10055000205245534554002B4350494E3A204E4FAC
:1005600054205245414459002B434D452045525299
:100570004F52002B51495552433A20227064706407
:1005800065616374222C31002B514D545245435602
:100590003A2000302C31002B43455245473A203059
:1005A0002C310031002B43474154543A2031002B69
:1005B0004353513A20002F6F75742C300041542B57
:1005C000514D545355423D302C312C7267742F00DD
:1005D0002C747377682C31576F3D5B367641306DE4
:1005E0000041542B514D54434F4E4E3D302C6465C9
:1005F000765F002B4347534E3A2000000021002431
:100600000027002A002D0030003300010100000403
:100610000107010A0100002200250028002B002EFE
:10062000003100340002010000050108010B010542
:10063000050505070508080808020202020A0A085B
:100640000804040404010101010101010103030381
:100650000303030303040707070C0C0C0C0C0C0C1E
:100660000C0202020206060606060606060B0B0B25
:100670000B0B0B0B0B010210202008081020401060
:100680002040800201020108040201010204081056
:100690002040808040201008040201800402018074
:1006A000402010080402010804020101020408109D
:1006B000204080010204081020408000000A0B0244
:1006C000090C0D0E080703040100000000000000E3
:1006D000000000000000000000000000000000001A
:1006E00000000000000000121110000000000000D7
:1006F00000000000000000000000000000000000FA
:1007000000003215E61411241FBECFEFD1E2DEBF88
:10071000CDBF00E00CBF15E0A0E0B2E0E0E4F8E5FA
:1007200000E00BBF02C007900D92A433B107D9F7C8
:1007300022E1A4E3B5E001C01D92A135B207E1F7C3
:1007400013E0C2E8D3E000E006C021970109802F42
:10075000FE010E942227C138D10780E00807A9F7CF
:100760000E94B9180C940E2C0C9400008150823118
:1007700008F05AC0E82FF0E08827EE53FC4F8F4F67
:100780000C942227E203E603D403DA03DE03140405
:10079000E903EF03F303F903FD03010407040B046A
:1007A00014040F0415041904809180008F7780933E
:1007B00080000895809180008F7DF9CF8091800026
:1007C000877FF5CF84B58F7784BD089584B58F7DFD
:1007D000FBCF8091B0008F778093B0000895809117
:1007E000B0008F7DF9CF809190008F77809390003B
:1007F0000895809190008F7DF9CF80919000877F40
:10080000F5CF8091A0008F778093A000089580910C
:10081000A0008F7DF9CF8091A000877FF5CF8091D8
:1008200020018F77809320010895809120018F7D92
:10083000F9CF80912001877FF5CF1F93CF93DF936E
:10084000282F30E0F901E554F94F8491F901EB5874
:10085000F94FD491F901E15DF94FC491CC23A9F08E
:10086000162F81110E94B603EC2FF0E0EE0FFF1F50
:10087000EB5EF94FA591B4918FB7F894EC911111FB
:1008800008C0D095DE23DC938FBFDF91CF911F91FD
:100890000895DE2BF8CFCF93DF9390E0FC01EB5867
:1008A000F94F2491815D994FFC0184918823C9F00F
:1008B00090E0880F991FFC01E550FA4FA591B49183
:1008C000FC01EB5EF94FC591D49161110DC09FB74A
:1008D000F8948C91209582238C93888128232883F7
:1008E0009FBFDF91CF910895623051F49FB7F89484
:1008F0003C91822F809583238C93E8812E2BEFCF20
:100900008FB7F894EC912E2B2C938FBFEACF8633C0
:1009100008F0865320917B00982F9870277F922BA8
:1009200090937B002091000290E4299F9001112474
:100930008770822B80937C0080917A008064809302
:100940007A0080917A0086FDFCCF809178009091AA
:10095000790008953FB7F8948091800590918105C2
:10096000A0918205B091830526B5A89B05C02F3FB5
:1009700019F00196A11DB11D3FBFBA2FA92F982FC5
:100980008827BC01CD01620F711D811D911D42E0C0
:10099000660F771F881F991F4A95D1F708958F9288
:1009A0009F92AF92BF92CF92DF92EF92FF926B0134
:1009B0007C010E94AA044B015C01C114D104E10432
:1009C000F104B9F00E94AA04681979098A099B09FF
:1009D000683E73408105910580F321E0C21AD10879
:1009E000E108F10888EE880E83E0981EA11CB11C76
:1009F000E4CFFF90EF90DF90CF90BF90AF909F90AB
:100A00008F9008952FB7F89460917C0570917D05C3
:100A100080917E0590917F052FBF0895FC01248170
:100A200035816217730748F480819181009729F01E
:100A3000860F971FFC018081089580E00895089536
:100A4000AF92BF92CF92DF92EF92FF920F931F93DC
:100A5000CF93DF936C017B018B01040F151FEB011A
:100A60005E01AE18BF08C017D10759F06991D601D1
:100A7000ED91FC910190F081E02DC6011995892B33
:100A800079F7C501DF91CF911F910F91FF90EF9002
:100A9000DF90CF90BF90AF900895FC01A089B189FD
:100AA0008C91A689B78982FD0EC09C91818D8F5F44
:100AB000228D821749F0A18DAE0FBF2FB11D5D961B
:100AC0009C93818F08958C910895FC01538D448DE2
:100AD000252F30E0842F90E0821B930B541718F0E1
:100AE00081509F4F089501970895FC01918D828D4B
:100AF000981759F0A28DAE0FBF2FB11D5D968C9146
:100B0000928D9F5F928F90E008958FEF9FEF0895F1
:100B1000FC01918D828D981731F0828DE80FF11DC7
:100B2000858D90E008958FEF9FEF0895FC01918DE2
:100B3000828D981B892F90E0089580E59CE00E94AB
:100B4000960521E0892B09F420E0822F089584E89E
:100B500095E00E94960521E0892B09F420E0822F80
:100B6000089581EA97E00E94960521E0892B09F417
:100B700020E0822F089580ED99E00E94960521E003
:100B8000892B09F420E0822F0895CF92DF92EF9213
:100B9000FF921F93CF93DF93EC016A017B01122F29
:100BA000E889F98982E08083C11481EED806E104E6
:100BB000F104A1F060E079E08DE390E0A7019601F7
:100BC0000E94F12621503109410951095695479556
:100BD00037952795211580E1380798F0E889F9893C
:100BE000108260E874E88EE190E0A70196010E940F
:100BF000F1262150310941095109569547953795FC
:100C00002795EC85FD853083EE85FF852083188E42
:100C1000EC89FD891083EA89FB898081806180836A
:100C2000EA89FB89808188608083EA89FB898081E9
:100C300080688083EA89FB8980818F7D8083DF9152
:100C4000CF911F91FF90EF90DF90CF900895FC011E
:100C5000A48DA80FB92FB11DA35EBE4F9C91848DAA
:100C60008F5F848FA689B7899C93A089B1898C9165
:100C7000837080648C93938D848D981306C0028852
:100C8000F389E02D80818F7D808308950F931F93DA
:100C9000CF93DF93EC0181E0888F9B8D8C8D98132F
:100CA00018C0E889F989808185FF13C09FB7F8943F
:100CB000EE89FF896083E889F98980818370806487
:100CC00080839FBF81E090E0DF91CF911F910F91D2
:100CD0000895062F1B8D1F5F8C8D81130CC00FB6DE
:100CE00007FCFACFE889F989808185FFF5CFCE012D
:100CF0000E942706F1CFEB8DEC0FFD2FF11DE35E77
:100D0000FE4F00839FB7F8941B8FEA89FB8980818F
:100D10008062D6CF0F931F93CF93DF938C01D0E0E7
:100D2000C0E0F801EC0FFD1F6491662341F080EDF7
:100D300099E00E944606892B11F02196F2CFCE0150
:100D4000DF91CF911F910F910895CF93DF93EC0125
:100D5000888D8823B9F0AA89BB89E889F9898C91A3
:100D600085FD03C0808186FD0DC00FB607FCF7CF5F
:100D70008C9185FFF2CF808185FFEDCFCE010E945F
:100D80002706E9CFDF91CF91089580E090E0892B8D
:100D900029F00E94BB0581110E94000080E090E0D4
:100DA000892B29F00E94B10581110E94000080E08A
:100DB00090E0892B29F00E94A70581110E94000074
:100DC00080E090E0892B29F00E949D0581110C9410
:100DD00000000895009741F0DC015896ED91FC91D8
:100DE00004A0F5A1E02D19940895009741F0DC01CD
:100DF0005896ED91FC9100A0F1A1E02D199486E1A7
:100E000090E090934612809345128FEF9FEF0895E4
:100E1000CF93DF93EC01288539854A855B85A8EE61
:100E2000B3E00E94E6260E94CF048C859D85823027
:100E3000910538F0880F991F880F991F0597019722
:100E4000F1F7DF91CF91089581E00895FC01808D45
:100E5000882349F084859585DC01ED91FC91019012
:100E6000F081E02D199481E090E09383828390E0FB
:100E700080E00895DC011C968D919C91DC01ED9140
:100E8000FC910680F781E02D1994DC011C968D9170
:100E90009C91DC01ED91FC910284F385E02D199485
:100EA000DC011C968D919C91DC01ED91FC910484F8
:100EB000F585E02D1994DC011C968D919C91DC0147
:100EC000ED91FC910084F185E02D19940F931F930F
:100ED000CF93DF938C01FC01C485D585E881F9812E
:100EE0000680F781E02DCE011995EA89FB89808182
:100EF0008F7E8083EA89FB898081877F8083EA896E
:100F0000FB8980818F778083EA89FB8980818F7D4F
:100F100080838A8D898FF8018089918997FD08C027
:100F200060E00E941D0460E0F80180890E944B048B
:100F3000F8018289938997FD0CC060E00E941D042E
:100F400060E0F8018289DF91CF911F910F910C949D
:100F50004B04DF91CF911F910F9108958F929F9233
:100F6000AF92BF92DF92EF92FF920F931F93CF93B6
:100F7000DF93EC014A015B01D22E898E9A8EAB8EF3
:100F8000BC8E2D8F3E8F8C899D89009709F08C0136
:100F90000C8B1D8B8E899F89009709F07C01EE8A4E
:100FA000FF8A8889998997FD07C061E00E944B04F8
:100FB00060E088890E941D048A899B8997FD07C08B
:100FC00061E00E944B0461E08A890E941D04188E32
:100FD0002D2DB501A4018C859D85DF91CF911F91A9
:100FE0000F91FF90EF90DF90BF90AF909F908F9008
:100FF0000C94C505EF92FF920F931F93DC01ED91C6
:10100000FC910488F589E02DA2E3EA2EF12C02E39D
:1010100010E019951F910F91FF90EF900895EF92B6
:10102000FF920F931F93DC01ED91FC910488F589E9
:10103000E02D7801890126E030E019951F910F918C
:10104000FF90EF900895EF92FF920F931F93DC01B2
:10105000ED91FC910488F589E02D22E3E22EF12C3C
:1010600002E310E026E030E019951F910F91FF9008
:10107000EF90089590E080E00895982F80ED890F1B
:101080008A3070F08FEB890F863018F489EC890F65
:1010900008958FE9890F863010F489EAF8CF80E04F
:1010A0000895CF93DF93EC010E9402056883798352
:1010B0008A839B83DF91CF9108958F929F92AF9205
:1010C000BF92CF92DF92EF92FF92CF93DF93EC012A
:1010D0006A017B010E9402058C809D80AE80BF80EA
:1010E0009B01AC01281939094A095B0949015A01D8
:1010F0008885811108C00E9402056C837D838E83E0
:101100009F8381E08887C814D904EA04FB0408F4AB
:1011100018860E9402058C809D80AE80BF80681971
:1011200079098A099B0921E0C616D706E806F9065F
:1011300008F020E0822FDF91CF91FF90EF90DF90B9
:10114000CF90BF90AF909F908F900895CF93DF93F3
:10115000FC012181222331F0EC0160E080810E94BA
:101160001D041982DF91CF910895CF93DF93FC0185
:101170002181211107C0EC0161E080810E941D04E2
:1011800081E08983DF91CF910895CF93DF93EC01C4
:10119000862F6883198261E00E944B04CE01DF91A3
:1011A000CF910C94A608CF93DF9320910D0F30912F
:1011B0000E0F232B89F0FC01C091090FD0910A0F6B
:1011C00060817181CE010E944E29009729F08C1B0D
:1011D0009D0BDF91CF9108958FEF9FEFFACF209174
:1011E000070F3091080F232B39F421E0FC01808197
:1011F000882361F020E00AC0BC018091030F909128
:10120000040F0E943E2921E0892BA1F7822F089527
:10121000FC0124813581FB01448155812417350768
:10122000E1F4FC0180819181FB0160817181009773
:10123000D1F061157105A1F4232BC1F0FC0180816F
:1012400090E008C0232B91F0FB01808190E0919504
:101250008195910921E0892B09F020E0822F0895E2
:101260000E943E29F7CF6115710561F721E0F6CFA5
:101270000E9430298F929F92AF92BF92EF92FF927D
:101280000F931F93CF93DF93CDB7DEB7A1970FB620
:10129000F894DEBF0FBECDBF7C01FA01CB0119A2CD
:1012A000223008F42AE08E010F5D1F4F822E912C10
:1012B000B12CA12CBF01A50194010E94F126F901D6
:1012C000CA016A3074F5605DD8016E938D01232BDD
:1012D000242B252B79F790E080E0109789F0FD0111
:1012E00001900020E9F73197AF014A1B5B0BD70152
:1012F000ED91FC910280F381E02DB801C7011995B1
:10130000A1960FB6F894DEBF0FBECDBFDF91CF918F
:101310001F910F91FF90EF90BF90AF909F908F9093
:101320000895695CD1CF8F929F92AF92BF92CF9276
:10133000DF92EF92FF920F931F93CF93DF937C0185
:10134000EB016C0182E0C80ED11C4701E5E08E0E76
:10135000911C10E000E0F60141916F0150E070E057
:1013600060E02AE0CE010E943A095C01E881F9813F
:101370000190F081E02D6EE2CE0119958A0D9B1D42
:10138000080F191FC814D90431F7F701458150E03F
:1013900070E060E02AE0CE010E943A09800F911FC0
:1013A000DF91CF911F910F91FF90EF90DF90CF9041
:1013B000BF90AF909F908F90089542E050E069E613
:1013C00072E00C942005CF93DF930E948A06EC0113
:1013D00080ED99E00E94DD098C0F9D1FDF91CF9178
:1013E000089510923C0584E192E00C94E3090F9378
:1013F0001F93CF93DF93EC01FB0144815581608102
:1014000071810E9420058C01CE010E94DD09800FB0
:10141000911FDF91CF911F910F910895BC0181EA37
:1014200097E00E94F70981EA97E00E94A50661E033
:1014300070E080E090E00C94CF040F931F93CF9363
:10144000DF938C01EB01FC01808191810097E1F039
:101450006881798161157105A9F0428153812C81E0
:101460003D814217530770F00E9447298C819D816E
:10147000F801958384831D821C82DF91CF911F9197
:101480000F9108950E94C62788819981F801918360
:1014900080838A819B81938382838C819D819583C4
:1014A0008483198218821B821A82E5CFCF93DF933F
:1014B000EC0188819981009711F00E94C62719825A
:1014C00018821D821C821B821A82DF91CF9108959F
:1014D000FC0180819181009711F00C94C62708953A
:1014E000CF93DF93EC0185E292E0998388838C8926
:1014F0009D89009711F00E94C6278E899F890097C9
:1015000011F00E94C627888D998D009711F00E94D6
:10151000C6278A8D9B8D009711F00E94C6278A816D
:101520009B81009721F0DF91CF910C94EA06DF9127
:10153000CF910895CF93DF93EC010E94700ACE0102
:10154000DF91CF910C94C627CF93DF93EC0189E311
:1015500092E0998388838B899C89009711F00E947F
:10156000C6278A819B81009721F0DF91CF910C944F
:10157000EA06DF91CF910895CF93DF93EC010E94AB
:10158000A40ACE01DF91CF910C94C62721E432E06A
:10159000FC01318320830C94A40ACF93DF93EC01E8
:1015A0000E94C60ACE01DF91CF910C94C6270F93FB
:1015B0001F93CF93DF93EC0188819981009759F0B5
:1015C0002A813B812617370730F081E0DF91CF91E8
:1015D0001F910F9108958B016F5F7F4F0E944F28DD
:1015E000009759F0998388831B830A832C813D815E
:1015F000232B59F7FC011082E8CF80E0E7CFEF9270
:10160000FF920F931F93CF93DF938C017B01EB012C
:1016100009900020E9F72197C61BD70BBE010E9455
:10162000D70A811109C0C801DF91CF911F910F9195
:10163000FF90EF900C94560AF801D583C483B7014C
:1016400080819181DF91CF911F910F91FF90EF9059
:101650000C944729EF92FF920F931F93CF93DF9340
:101660006115710541F480E0DF91CF911F910F91D9
:10167000FF90EF9008957B01EC01CB010E9474264E
:101680000097A9F00C811D81080F191FB801CE0128
:101690000E94D70A882339F3288139818C819D8162
:1016A000B701820F931F0E946D261D830C8381E07A
:1016B000DBCFEF92FF920F931F93CF93DF936115D0
:1016C000710541F480E0DF91CF911F910F91FF9060
:1016D000EF90089541155105B1F07B01EC010C81AB
:1016E0001D81040F151FB8010E94D70A882351F3EA
:1016F000288139818C819D81B701820F931F0E94BF
:1017000047291D830C8381E0DECFEF92FF920F9378
:101710001F93CF93DF9300D000D01F92CDB7DEB7D9
:101720007C01CB014AE08E010F5F1F4FB8010E9480
:101730009D26F80101900020E9F73197AF01401B89
:10174000510BB801C7010E94590B27960FB6F894A8
:10175000DEBF0FBECDBFDF91CF911F910F91FF90E4
:10176000EF900895EF92FF920F931F93CF93DF9323
:1017700000D01F92CDB7DEB77C01862F4AE08E01E4
:101780000F5F1F4FB80190E00E947D26F801019085
:101790000020E9F73197AF01401B510BB801C70199
:1017A0000E94590B0F900F900F900F90DF91CF91E7
:1017B0001F910F91FF90EF900895FB014481558197
:1017C000608171810C94590BEF92FF920F931F93DC
:1017D000CF93DF93EC018B016115710551F0CB01C3
:1017E0000E9474267C01BC01CE010E94D70A81119F
:1017F0000BC0CE010E94560ACE01DF91CF911F91FE
:101800000F91FF90EF900895FD82EC82B8018881DE
:1018100099810E946D26F0CFFC0111821082138203
:101820001282158214820C94E40BEF92FF920F93B4
:101830001F93CF93DF93EC017B01198218821B82E7
:101840001A821D821C82FB0101900020E9F731976A
:101850008F01061B170BB8010E94D70A811109C01E
:10186000CE01DF91CF911F910F91FF90EF900C94DB
:10187000560A1D830C83B70188819981DF91CF912E
:101880001F910F91FF90EF900C944729AF92BF9258
:10189000CF92DF92EF92FF920F931F93CF93DF933C
:1018A0006C015B017A0189012417350720F48F2D23
:1018B0007901042F182F6BE672E0C6010E94150C07
:1018C000D5011496CD91DC91EC16FD06E0F40C17D1
:1018D0001D0708F4E801D501ED91FC911197EC0F7B
:1018E000FD1F108110826D917C916E0D7F1DC601D0
:1018F00061157105A1F00E94FF0AF50180819181B7
:10190000C80FD91F1883C601DF91CF911F910F9186
:10191000FF90EF90DF90CF90BF90AF9008950E941E
:10192000560AEBCFBF92CF92DF92EF92FF920F93C6
:101930001F93CF93DF93CDB7DEB7ED84FE84CF84C2
:10194000D888B9880B891C89D70114968D919C91F0
:10195000892B59F0AE01475E5F4F6F89788D80917A
:101960004B1290914C120E9468298D899E89892B77
:1019700031F0C7010E940807C7010E94F506F60171
:101980008281938180589F4F93838283D701589699
:10199000ED91FC910484F585E02DB801C6011995FF
:1019A000F801E80FF91FB0820196DF91CF911F91E6
:1019B0000F91FF90EF90DF90CF90BF9008952F92FE
:1019C0003F924F925F926F927F928F929F92AF92CF
:1019D000BF92CF92DF92EF92FF920F931F93CF931C
:1019E000DF93CDB7DEB7C851D2400FB6F894DEBF53
:1019F0000FBECDBFFC01A281B381109749F486E1EF
:101A000090E0909346128093451290E080E05BC492
:101A10005C017E01FBEFEF1AFEEFFF0A5896ED9195
:101A2000FC9159970488F589E02DB701CD011995EE
:101A30001816190654F7D50112966D907C90C55F63
:101A4000DD4F99838883CB50D24086E190E06114CA
:101A5000710409F432C4D3015896ED91FC91C2800F
:101A6000D380A4E0B1E0AC0FBD1FAC0DBD1D8C91C7
:101A7000282F30E0CD5EDD4F39832883C351D2401B
:101A8000A7014C0D5D1DC15FDD4F59834883CF50C9
:101A9000D240DA019C90092D10E0A6E0B1E0AC0F35
:101AA000BD1FAC0DBD1D4C90512C542C4424A7E0FF
:101AB000B1E0AC0FBD1FAC0DBD1D8C91480E511C8B
:101AC0001E01BBEF2B1ABDEF3B0AD10111963C93CF
:101AD0002E9313961C930E9312970684F785E02D90
:101AE000BE01655F7D4FC7011995F1019583848320
:101AF000EFEFE90DE73108F0B5C5F0E08827EC57C6
:101B0000F24F8F4F0C9422279B0D9B0DCA0ECA0ECD
:101B10005B0FB30F5B1132133213321332133213D4
:101B200032133213E80FAC102A113213321332136E
:101B300032137D11C9110230110509F04CC0D501D5
:101B40001A964D915C911B9718962D913C9119977F
:101B50005696AD90BC9086E792E0E8E0F1E0EC0F9D
:101B6000FD1FEC0DFD1DE080F12CFE2CEE24E9E0C4
:101B7000F1E0EC0FFD1FEC0DFD1D6081E60EF11C88
:101B8000B70161507109603D774078F127E02F93EC
:101B900020ED2F939F938F93FF92EF928AEA92E02A
:101BA0009F938F931F9281E08F9321E030E02C0F61
:101BB0003D1F3F932F931F9283E08F933F922F926D
:101BC0007F926F920E94920C8C010FB6F894DEBF48
:101BD0000FBECDBF67C0F501468157812481358195
:101BE000A488B5888CE692E0B8CF6201C41AD50A01
:101BF000D7FC08C047018C0C9D1C28153905ACF496
:101C00004E0C5F1C9F938F935F924F9282ED92E0F8
:101C10009F938F931F921F9261E070E06C0F7D1F66
:101C20007F936F931F9282E00FC2D3015896ED917C
:101C3000FC910484F585E02DBE016F5F7F4FC101EB
:101C400019958C010F5F1F4FE1E0F0E0EC0FFD1FD5
:101C50008E0F9F1F21E0A70147705527452B09F4E0
:101C600020E0F3E0F594E794FA95E1F7E20EDC0169
:101C7000EC92F501EC0DFD1D30E020E090E080E0FD
:101C8000AF014A195B09481559050CF46AC0892B44
:101C900049F0E1E0F0E0EC0FFD1FE00FF11F2083C1
:101CA0000F5F1F4FCD5EDD4F28813981C351D24078
:101CB000232B09F406C3D3015896ED91FC910088BB
:101CC000F189E02DB801CE01019619957C01D3016F
:101CD0005896ED91FC910288F389E02DA701BE0191
:101CE0006F5F7F4FC30119958B016F3F7F4F39F5B0
:101CF000F301868181FF23C0C0904512D090461227
:101D0000F2EFCF16FDE2DF0609F0BCC4D30158960E
:101D1000ED91FC91068CF78DE02DC3011995C3015F
:101D20000E940807D3015896ED91FC91048CF58D23
:101D3000E02DC3011995D0924612C0924512F301CD
:101D4000868181FF03C00F3F100709F210161106AC
:101D50000CF0B7C2E016F10609F4B3C28FEE9BE2B5
:101D6000ACC2419150E0082E02C0440F551F0A94A6
:101D7000E2F7242B352B8730910551F4A1E0B0E038
:101D8000AC0FBD1FA00FB11F2C930F5F1F4F74CF5F
:101D9000019676CF04301105B1F5F50146855785DA
:101DA00024853585808C918C86E892E0E8E0F1E02E
:101DB000EC0FFD1FEC0DFD1D008110E0102F002722
:101DC000E9E0F1E0EC0FFD1FEC0DFD1D6081060F59
:101DD000111DB80161507109FE0131966F016D3717
:101DE000710500F11F922DE72F939F938F931F93FF
:101DF0000F938AEA92E09F938F931F9281E08F93D3
:101E0000FF93EF93D8CED50152964D915C915397A5
:101E100050962D913C9151975A968D909C908BE9BC
:101E200092E0C4CF7201E41AF50A5701F7FC07C02B
:101E3000E00EF11E2E153F057CF4400E511E9F93BF
:101E40008F935F924F9282ED92E09F938F931F92B8
:101E50001F92DF92CF92E6CED3015896ED91FC917E
:101E60000484F585E02DB601C1011995F601E80F4E
:101E7000F91F000F00839501220F331F820E931E5E
:101E80000196F601E80FF91F8F010C191D09AE1418
:101E9000BF040CF007CFD40111968C91B2E08B0EE9
:101EA000911C8083D40112978C9181832FEFA21A09
:101EB000B20A3296E9CFD50116968D919C9117976B
:101EC000A201481B590BCE01019657FD06C014967E
:101ED0002D913C91421753074CF05F924F9224EFA3
:101EE00032E03F932F931F921F92B1C1E8E0F1E0DF
:101EF000EC0FFD1FEC0DFD1D208130E0322F22275D
:101F0000E9E0F1E0EC0FFD1FEC0DFD1D6081260FF7
:101F1000311D2115FFEF3F0719F021153105B1F4EF
:101F2000D5015496ED91FC91E40FF51F41E0232B70
:101F300009F440E04083C55FDD4F08811981CB5033
:101F4000D240A801B7010E943529ACCE5F924F92D2
:101F50003F932F932DE133E03F932F931F921F92D6
:101F60009F938F936FC0D50152968D919C915397FB
:101F70009201281B390BCE01019637FD07C0509600
:101F80004D915C915197241735072CF05F924F9239
:101F90002BE533E0A6CF220F331F5A96ED91FC912B
:101FA000E20FF31FA8E0B1E0AC0FBD1FAC0DBD1DEB
:101FB0002C9130E0322F2227A9E0B1E0AC0FBD1FF9
:101FC000AC0DBD1D4C91240F311D31832083B3CF47
:101FD000E8E0F1E0EC0FFD1FEC0DFD1D808190E0CD
:101FE000982F8827E9E0F1E0EC0FFD1FEC0DFD1DB7
:101FF0002081820F911D9C0121503109203B3740E7
:1020000070F4EAE0F1E0EC0FFD1FEC0DFD1D208106
:10201000E8E02E9F9001112428173907ECF427E0FF
:102020002F9320EB2F939F938F9389E893E09F93B7
:102030008F931F9281E08F9321E030E02C0F3D1FA2
:102040003F932F931F9283E08F933F922F927F9223
:102050006F920E94920CB8CDD50116962D913C91AD
:102060001797F201E21BF30B9F01F7FD0CC0BC01B7
:102070006E0F7F1F14964D915C9115974617570769
:10208000D4F4480E591E5F924F928DEB93E09F93CC
:102090008F931F921F9221E030E02C0F3D1F3F9342
:1020A0002F931F9282E08F933F922F927F926F9295
:1020B0000E94920C89CD56E0C50ED11C54960D910C
:1020C0001C91200F311FF90150E040E081E090E0C9
:1020D0008C0F9D1FC80ED91ECF01801B910B861738
:1020E0009707F0F0D3015896ED91FC910484F585A3
:1020F000E02DBE016F5F7F4FC1011995A1E0B0E0F7
:10210000AC0FBD1FA80FB91FF701E80FF91F24E09E
:1021100001900D922A95E1F78C010C5F1F4FC2CD03
:10212000CF01821B930BA3E096958795AA95E1F7C3
:102130008C0D9D1D8C5F9E4FDC018C9190E0042ED8
:1021400002C0959587950A94E2F7817081934F5F5D
:102150005F4F47705527C0CFE8E0F1E0EC0FFD1F5F
:10216000EC0DFD1D208130E0322F2227E9E0F1E067
:10217000EC0FFD1FEC0DFD1D8081280F311DC901E5
:1021800001978B37910570F4EAE0F1E0EC0FFD1F49
:10219000EC0DFD1D8081B8E08B9FC00111248217DA
:1021A00093077CF41F928BE78F933F932F9387EED7
:1021B00093E09F938F931F9281E08F93CE010196BE
:1021C000CFCED50152968D919C915397F201E81B89
:1021D000F90BCF01F7FD31C0A9014E0F5F1F5096DB
:1021E0006D917C916417750734F1C15FDD4FE88113
:1021F000F981CF50D2409C01220F331F2E193F0985
:102200002C193D09841795070CF06CCFD5015A960F
:102210006D917C91DB01A20FB31FAE0FBF1F6681D2
:1022200070E0762F66271781610F711D6D937C9387
:1022300001963296E7CF420E531E5F924F9280E294
:1022400094E09F938F931F921F92CE0101969F93CC
:102250008F9327CFD3015896ED91FC910484F58597
:10226000E02DBE016F5F7F4FC1011995FE01E80FA0
:10227000F91F24EB2283FE01E80FF91F2FEF2383C0
:10228000DC011396E1E0F0E0EC0FFD1FAE0FBF1F85
:1022900028E0EFE4F4E001900D922A95E1F78C013B
:1022A000055F1F4FE1E0F0E0EC0FFD1FE80FF91FA5
:1022B0008AE08083F7CC8DE690E09093461280937D
:1022C000451281E090E0C85EDD4F0FB6F894DEBFA6
:1022D0000FBECDBFDF91CF911F910F91FF90EF9077
:1022E000DF90CF90BF90AF909F908F907F906F9036
:1022F0005F904F903F902F900895D50152968D9109
:102300009C915397F201E81BF90BCE010196F7FD62
:102310003DCE50962D913C915197E217F3070CF06A
:1023200035CEEE0FFF1F5A962D913C91E20FF31F11
:10233000AAE0B1E0AC0FBD1FAC0DBD1D2C9130E08B
:10234000322F2227ABE0B1E0AC0FBD1FAC0DBD1D9D
:102350004C91240F311DA8E0B1E0AC0FBD1FAC0DB6
:10236000BD1D4C91642F70E0762F6627A9E0B1E087
:10237000AC0FBD1FAC0DBD1D4C91460F572F511D0D
:1023800060817181622773274623572324273527CD
:102390001CCEE8E0F1E0EC0FFD1FEC0DFD1D80818F
:1023A00090E0982F8827E9E0F1E0EC0FFD1FEC0D9D
:1023B000FD1D2081FC01E20FF11DC35FDD4FF9839C
:1023C000E883CD50D240ECE0F1E0EC0FFD1FEC0DC6
:1023D000FD1D808190E0982F8827EDE0F1E0EC0F63
:1023E000FD1FEC0DFD1D2081820F911D9C012150D0
:1023F0003109DE01119629373105C0F4C35FDD4F85
:1024000028813981CD50D240215031092D373105F5
:1024100068F4EEE0F1E0EC0FFD1FEC0DFD1D4081D6
:102420009C01220F331F4217130639F11F922DE72B
:102430002F931F9229E72F93C25FDD4FF881CE5073
:10244000D240FF93C35FDD4F2881CD50D2402F9300
:102450009F938F9388E594E09F938F931F9281E0E1
:102460008F93BF93AF931F9283E08F933F922F92EE
:102470007F926F920E94920CA7CBEAE0F1E0EC0F02
:10248000FD1FEC0DFD1D208130E0322F2227EBE0F7
:10249000F1E0EC0FFD1FEC0DFD1D4081240F311DFF
:1024A000F501428953898201041B150BCF5EDD4F74
:1024B00019830883C151D240B901641B750BAB016C
:1024C0004B0117FDE6C0C35FDD4FE881F981CD50B8
:1024D000D240E00FF11FCB5EDD4FF983E883C55199
:1024E000D240F50160897189CB5EDD4FE881F981C9
:1024F000C551D2406E177F07FCF057FD1FC0AC01DD
:10250000480D591DC95EDD4F59834883C751D240DC
:1025100064177507E4F4280F391F17FF0FC03F93A6
:102520002F935F924F9284EA94E09F938F931F9230
:102530001F92BF93AF9376CB57FFEDCFC35FDD4FB5
:1025400068817981CD50D240460E571EE8CFF30105
:10255000808D918DFC01248535857D01BD01CE01E5
:102560008B5F9D4FF9011995F701E80FF91FC35FC4
:10257000DD4F2881CD50D240220F2083C15FDD4F37
:10258000E881F981CF50D240AE014B5F5E4F94019C
:10259000220F331F241B350B2C193D09C95EDD4F5B
:1025A00048815981C751D240841695060CF443C026
:1025B000F701E80FF91F9801220F331F2E193F0969
:1025C000B901681B790BCB0141E050E04E195F095E
:1025D0008A010E0F1F1FCB5EDD4F68817981C551C7
:1025E000D240CF5EDD4FA881B981C151D240A6173C
:1025F000B7070CF057CBBC016E0F7F1FD5015A9661
:102600002D913C91DB01A20FB31F11962C911197D4
:1026100021832C912283CF5EDD4F28813981C151E6
:10262000D2402F5F3F4FCF5EDD4F39832883C151AA
:10263000D2403296CDCFD5015A964D915C91DA01B8
:10264000A20FB31FAE0FBF1F428550E0542F442787
:102650006385460F511D4D935C93BFEF8B1A9B0A08
:1026600032969CCF1F929F9285EF94E09F938F9319
:102670001F9281E08F939E012F5F3F4F3F932F93D7
:102680001F9211CDC3010E940807C3010E94F506E5
:1026900052CB77FF40CF43CF1F920F920FB60F92CE
:1026A00011242F933F938F939F93AF93BF93809168
:1026B0007C0590917D05A0917E05B0917F053091BC
:1026C0007B0523E0230F2D3758F50196A11DB11D81
:1026D00020937B0580937C0590937D05A0937E05D8
:1026E000B0937F058091800590918105A09182052E
:1026F000B09183050196A11DB11D80938005909333
:102700008105A0938205B0938305BF91AF919F91FE
:102710008F913F912F910F900FBE0F901F901895A2
:1027200026E8230F0296A11DB11DD2CF1F920F9252
:102730000FB60F9211240BB60F922F933F934F9326
:102740005F936F937F938F939F93AF93BF93EF9319
:10275000FF9380E59CE00E942706FF91EF91BF91D7
:10276000AF919F918F917F916F915F914F913F9129
:102770002F910F900BBE0F900FBE0F901F901895CA
:102780001F920F920FB60F9211240BB60F922F9338
:102790003F934F935F936F937F938F939F93AF93E9
:1027A000BF93EF93FF9380E59CE00E944D05FF915E
:1027B000EF91BF91AF919F918F917F916F915F91B9
:1027C0004F913F912F910F900BBE0F900FBE0F9026
:1027D0001F9018951F920F920FB60F9211240BB6EF
:1027E0000F922F933F934F935F936F937F938F93AA
:1027F0009F93AF93BF93EF93FF9384E895E00E947C
:102800002706FF91EF91BF91AF919F918F917F919B
:102810006F915F914F913F912F910F900BBE0F9051
:102820000FBE0F901F9018951F920F920FB60F9228
:1028300011240BB60F922F933F934F935F936F9397
:102840007F938F939F93AF93BF93EF93FF9384E80E
:1028500095E00E944D05FF91EF91BF91AF919F913F
:102860008F917F916F915F914F913F912F910F9039
:102870000BBE0F900FBE0F901F9018951F920F92D6
:102880000FB60F9211240BB60F922F933F934F93D5
:102890005F936F937F938F939F93AF93BF93EF93C8
:1028A000FF9381EA97E00E942706FF91EF91BF9185
:1028B000AF919F918F917F916F915F914F913F91D8
:1028C0002F910F900BBE0F900FBE0F901F90189579
:1028D0001F920F920FB60F9211240BB60F922F93E7
:1028E0003F934F935F936F937F938F939F93AF9398
:1028F000BF93EF93FF9381EA97E00E944D05FF910C
:10290000EF91BF91AF919F918F917F916F915F9167
:102910004F913F912F910F900BBE0F900FBE0F90D4
:102920001F9018951F920F920FB60F9211240BB69D
:102930000F922F933F934F935F936F937F938F9358
:102940009F93AF93BF93EF93FF9380ED99E00E9425
:102950002706FF91EF91BF91AF919F918F917F914A
:102960006F915F914F913F912F910F900BBE0F9000
:102970000FBE0F901F9018951F920F920FB60F92D7
:1029800011240BB60F922F933F934F935F936F9346
:102990007F938F939F93AF93BF93EF93FF9380EDBC
:1029A00099E00E944D05FF91EF91BF91AF919F91EA
:1029B0008F917F916F915F914F913F912F910F90E8
:1029C0000BBE0F900FBE0F901F90189581E39CE0F7
:1029D0000E94C60A82E99EE00E94680A88E99EE099
:1029E0000E94680A8EE99EE00E94680A8BEC9EE0D5
:1029F0000E94680A81ED9EE00E94680A87ED9EE0D1
:102A00000E94680A8FED9EE00E94680A85EE9EE0B3
:102A10000E94680A8BEE9EE00E94680A81EF9EE0A9
:102A20000E94680A87EF9EE00E94680A8DEF9EE090
:102A30000E94680A83E09FE00E94680A89E09FE0A4
:102A40000E94680A8FE09FE00E94680A85E19FE08B
:102A50000E94680A88E092E10E94C60A87E292E139
:102A60000C94700A3F924F925F926F927F928F9276
:102A70009F92AF92BF92CF92DF92EF92FF920F930D
:102A80001F93CF93DF9300E51CE0D80113961C92AF
:102A90001E92129788EEC82E83E0D82EE12CF12CDE
:102AA000F801C482D582E682F78283E192E09183C5
:102AB000808325E331E03587248724E331E03787BD
:102AC000268720E331E0318B208B21E331E0338B0B
:102AD000228B22E331E0358B248B26E331E0378BE8
:102AE000268B118E128E138E148EE4E8F5E013827D
:102AF0001282C482D582E682F7829183808325ED9B
:102B000030E03587248724ED30E03787268720EDB5
:102B100030E0318B208B21ED30E0338B228B22EDA6
:102B200030E0358B248B26ED30E0378B268B118EF1
:102B3000128E138E148EE1EAF7E013821282C482A1
:102B4000D582E682F782918380832DEC30E0358751
:102B500024872CEC30E03787268728EC30E0318B57
:102B6000208B29EC30E0338B228B2AEC30E0358B44
:102B7000248B2EEC30E0378B268B118E128E138E29
:102B8000148EE0EDF9E013821282C482D582E682CF
:102B9000F7829183808385EC90E09587848784EC2D
:102BA00090E09787868780EC90E0918B808B81EC1A
:102BB00090E0938B828B82EC90E0958B848B86ECFB
:102BC00090E0978B868B118E128E138E148EAEEB47
:102BD000B9E099E4892E92E0992E11969C928E92FA
:102BE00012961C92129713961C92139714961C928D
:102BF000149715961C92A4ECB9E011969C928E92B3
:102C000012961C92129713961C92139714961C926C
:102C1000149715961C92AAECB9E011969C928E928C
:102C200012961C92129713961C92139714961C924C
:102C3000149715961C92C7E2D2E11B821A822BE2EE
:102C400032E188E1D9011D928A95E9F78FE292E09D
:102C500099838883ADEEBBE0BD8FAC8FC8E0D2E135
:102C60001B821A82CC82DD82EE82FF821986188650
:102C70001A861C8A1B8A1E8A1D8A188E1F8A1A8E23
:102C8000198E1C8E1B8E21E4422E22E0522E598278
:102C90004882BE8FAD8F13961C921E921297149687
:102CA000CD92DD92ED92FC9217973FE4632E32E0D5
:102CB000732E11967C926E921D96FC93EE931C9748
:102CC00081E090E01F969C938E931E9782E090E0A7
:102CD00051969C938E9350978FEF9FEF53969C93B2
:102CE0008E93529755961C921E92549757961C920B
:102CF0001E92569758961C92C8EDD1E180E28883C7
:102D0000198260E00E944B0481E28E831F8260E0A2
:102D10000E944B0482E28C871D8660E00E944B0477
:102D200083E28A8B1B8A60E00E944B0484E2888FD6
:102D3000198E60E00E944B0485E28E8F1F8E60E04A
:102D40000E944B0486E28CA31DA260E00E944B040B
:102D500087E28AA71BA660E00E944B0468E288EC29
:102D600091E10E94C50869E28AEC91E10E94C508E0
:102D70006AE28CEC91E10E94C5086BE28EEC91E175
:102D80000E94C5086CE280ED91E10E94C5086DE2E9
:102D900082ED91E10E94C5086EE284ED91E10E940E
:102DA000C5086FE286ED91E10E94C50840ECA42EB3
:102DB00041E1B42E84E0F501808361E00E944B0480
:102DC00085E0D50112968C9361E00E944B0486E069
:102DD000F501848361E00E944B0487E0D5011696DB
:102DE0008C9361E00E944B0450E2A52E5FE0B52E6B
:102DF00086E3F501808333243394318260E00E94BE
:102E00004B0487E3D501D8968C93D897D9963C92FA
:102E100060E00E944B0488E38093900F3092910F02
:102E200060E00E944B0489E38093C80F3092C90F81
:102E300060E00E944B048AE38093001030920110FE
:102E400060E00E944B048BE380933810309239107D
:102E500060E00E944B048CE38093701030927110FC
:102E600060E00E944B048DE38093A8103092A9107B
:102E700060E00E944B048EE38093E0103092E110FA
:102E800060E00E944B048FE3809318113092191177
:102E900060E00E944B0480E4809350113092511105
:102EA00060E00E944B0481E4809388113092891184
:102EB00060E00E944B046BE1A62E6FE0B62E8BE122
:102EC000F501808362E00E944B048CE1D5011196EC
:102ED0008C9362E00E944B048DE1F501828362E0F5
:102EE0000E944B048EE1D50113968C9362E00E9400
:102EF0004B048FE1F501848362E00E944B046BE692
:102F000072E085E19FE00E94150C6BE672E08FE0B5
:102F10009FE00E94150C6BE672E089E09FE00E9442
:102F2000150C6BE672E083E09FE00E94150C6BE6E7
:102F300072E08DEF9EE00E94150C6BE672E087EF69
:102F40009EE00E94150C6BE672E081EF9EE00E940D
:102F5000150C6BE672E08BEE9EE00E94150C6BE6A2
:102F600072E085EE9EE00E94150C6BE672E08FED3C
:102F70009EE00E94150C1092DE0E1092DD0E6BE6A4
:102F800072E087ED9EE00E94150C6BE672E081ED29
:102F90009EE00E94150C6BE672E08BEC9EE00E94B6
:102FA000150C1092CA0EE1ECFEE088EB9BE0A0E06D
:102FB000B0E080839183A283B3831482158216824A
:102FC00017821086E8EBFEE080839183A283B383AF
:102FD00014821582168217821086EFEAFEE0808343
:102FE0009183A283B383148215821682178210867E
:102FF000E4EAFEE01482158216821782108688ECBD
:103000009FEAA0E0B0E080839183A283B38312861D
:1030100011866BE672E08EE99EE00E94150C6BE66D
:1030200072E088E99EE00E94150C6BE672E082E98E
:103030009EE00E94150CECE8FEE0918280821282F4
:10304000138214821582ADE6BEE013961C921E9286
:1030500012971496CD92DD92ED92FC9217971196ED
:103060007C926E921D961C930E931C971F961C9239
:103070001E921E9751961C921E92509786E190E0E8
:1030800053969C938E93529755961C921E925497EA
:1030900057961C921E92569758961C925897E1E3A9
:1030A000FCE013821282C482D582E682F782118606
:1030B00010861286148A138A168A158A108E178A29
:1030C000128E118E148E138E51824082B68FA58F70
:1030D000E5E1FCE084EF91E09383828380E293E07A
:1030E0009583848388EC91E1978386838AEC91E1D0
:1030F000918780878CEC91E1938782878EEC91E1B8
:103100009587848780ED91E19787868782ED91E1AD
:10311000918B808B84ED91E1938B828BD58BC48BCB
:103120008EED91E1978B868B108E118E128E138E01
:10313000ECE0FCE080E09CE5A6E2B5E080839183D2
:10314000A283B38314821582168217821086DF91C0
:10315000CF911F910F91FF90EF90DF90CF90BF9094
:10316000AF909F908F907F906F905F904F903F9027
:103170000895CF93DF93CDB7DEB768970FB6F89475
:10318000DEBF0FBECDBF789484B5826084BD84B5A8
:10319000816084BD85B5826085BD85B5816085BD52
:1031A00080916E00816080936E001092810080910A
:1031B0008100826080938100809181008160809392
:1031C0008100809180008160809380008091B100B7
:1031D00084608093B1008091B00081608093B000E2
:1031E0008091910082608093910080919100816034
:1031F00080939100809190008160809390008091F5
:10320000A10082608093A1008091A10081608093E1
:10321000A1008091A00081608093A0008091210195
:10322000826080932101809121018160809321013E
:103230008091200181608093200180917A008460D8
:1032400080937A0080917A00826080937A008091E6
:103250007A00816080937A0080917A008068809300
:103260007A001092C10026E040E855E260E070E08C
:1032700080ED99E00E94C5051092000268E070E0C0
:1032800087EF9EE00E94D70A68E070E081EF9EE041
:103290000E94D70A68E070E08BEE9EE00E94D70A99
:1032A00068E070E08BEC9EE00E94D70A60E170E07D
:1032B00083E09FE00E94D70A60E170E08DEF9EE01E
:1032C0000E94D70A60E270E08FE09FE00E94D70A78
:1032D00060E270E082E99EE00E94D70A60E470E05C
:1032E00085EE9EE00E94D70A60E470E08FED9EE0DC
:1032F0000E94D70A60E470E087ED9EE00E94D70A42
:1033000060E470E085E19FE00E94D70A60E870E029
:103310008EE99EE00E94D70A60E870E081ED9EE0B1
:103320000E94D70A60E072E089E09FE00E94D70A1D
:10333000882309F461C082E492E00E94E30961E01D
:1033400088E10E944B0461E088E10E941D04109214
:103350003C0581E08093AC0E81EF99E09093AE0E36
:103360008093AD0E26E040E855E260E070E084E82E
:1033700095E00E94C50580EC91E100E21FE0F801B4
:103380001182085C1F4F80179107C9F782E090E017
:103390009093160C8093150C88E199E20FB6F8947F
:1033A000A895809360000FBE909360005FEB852E20
:1033B0005EE3952EA12CB12CFF24F39480ED99E0CF
:1033C0000E949605181619060CF04EC080ED99E083
:1033D0000E9475058D3011F40C9406268A3071F325
:1033E00089831A8241E050E0BE016F5F7F4F82E91E
:1033F0009EE00E94590BE2CF8CE292E09ECF1092A9
:103400003C0560E672E082E99EE00E94E40BD6CFC4
:103410006EE872E0CE0101960E940C0CBE016F5F57
:103420007F4F82E99EE00E940809E82ECE010196B6
:103430000E94680AEE2099F082E892E00E94E30977
:1034400061E672E0CE0101960E940C0CCE0101965D
:103450000E940E0ACE0101960E94680AD2CF82E92C
:103460009EE00E940E0ACDCF48ED242E41E1342E7D
:103470007101F701208130E0F901E554F94F8491A1
:10348000F901EB58F94FD490F901E15DF94FC4907F
:10349000CC2009F426C381110E94B603EC2DF0E084
:1034A000EE0FFF1FEF5EFC4FA591B491EC91ED2163
:1034B00081E009F480E0D82EF7018181D81609F463
:1034C00012C30E940205F701428053806480758018
:1034D000641975098609970963337105810591059A
:1034E00008F0D182F6E0EF0EF11C28E0E21622E1AE
:1034F000F20609F0BECF20E2E22E2FE0F22EF70115
:103500008181A0E4CA2ED12C412C512C3201813072
:1035100009F0F1C2C12CDD24D394412C512C32018D
:10352000F70180810E948704092E000CAA0BBB0BB7
:10353000480E591E6A1E7B1EF1E0CF1AD10881F792
:1035400084E076946794579447948A95D1F7F7016D
:1035500053824282349681E090E02281338121932C
:103560003193019688319105C1F7F70153AA42AA18
:1035700060E070E0CB0150E040E0FA01EE0FFF1F89
:10358000EE0DFF1D24813581620F731F811D911D7A
:103590004F5F5F4F4831510581F728E130E040E04F
:1035A00050E00E94F126F70135AB24ABF70154A996
:1035B00045A98181813009F0B9C2252F342F203CE3
:1035C000FEE33F0710F02FEB3EE3AFEFBFE00E94BA
:1035D0001327A50194010E94C726F70137AB26AB3C
:1035E000F8E3EF0EF11CE016F10609F088CF40E099
:1035F00090E080E021E030E0F1015181511120E0C4
:10360000082E01C0220F0A94EAF7422B0196F6E039
:103610002F0E311C8830910569F740933605E8EC90
:10362000F1E140E030E020E08181022E01C0880F0E
:103630000A94EAF7482B2F5F3F4F32962830310526
:1036400099F7409335056FE073E085E19FE00E94B4
:10365000E40BE0E2CE2EEFE0DE2EF12CE12CF601C1
:1036600066A977A985E19FE00E94850BFBE0EF1634
:10367000F10431F06DE073E085E19FE00E942A0BD8
:103680002FEFE21AF20A38E3C30ED11C4CE0E41625
:10369000F10429F76BE073E085E19FE00E942A0BBB
:1036A00069E073E08FE09FE00E94E40B70ECC72EAE
:1036B00071E1D72EF12CE12CF60161818FE09FE0C2
:1036C0000E94B20BF3E0EF16F10431F067E073E013
:1036D0008FE09FE00E942A0B2FEFE21AF20A32E0FD
:1036E000C30ED11C44E0E416F10431F765E073E049
:1036F0008FE09FE00E942A0B8091DE0E81115CC05A
:10370000F0903505E09036056DEF72E081ED9EE0BA
:103710000E94E40B67EF7EE081ED9EE00E94DD0BEE
:103720006BEF72E081ED9EE00E942A0B64EF72E085
:1037300081ED9EE00E942A0B6E2D81ED9EE00E949D
:10374000B20B62EF72E081ED9EE00E942A0B6AEEFE
:1037500072E081ED9EE00E942A0B6F2D81ED9EE0CC
:103760000E94B20B68EE72E081ED9EE00E942A0B8F
:1037700061EE72E081ED9EE00E942A0B65E17FE040
:1037800081ED9EE00E94DD0B6FED72E081ED9EE029
:103790000E942A0B67ED72E081ED9EE00E942A0BE9
:1037A0006FE07FE081ED9EE00E94DD0B65ED72E051
:1037B00081ED9EE00E942A0B8AE195E00E94EF08CD
:1037C0006EEB72E0811108C08CE295E00E94EF0878
:1037D000882331F065EA72E087ED9EE00E94E40BF9
:1037E0006DEF7EE087ED9EE00E94DD0B60EA72E007
:1037F00087ED9EE00E942A0B6091D50E7091D60E47
:1038000087ED9EE00E94850B8091CF0E9091D00EA7
:10381000892B09F465C070E060E08BEC9EE00E94AB
:103820000E05C82E61E070E08BEC9EE00E940E0554
:10383000E82E63E070E08BEC9EE00E940E05F82E0F
:1038400064E070E08BEC9EE00E940E05D82E54E4FC
:10385000C512A1C18AE3E8128AC18F2D0E943D08DA
:10386000F82E8D2D0E943D0890E1F99E90011124C3
:10387000F82EF22A86ED91E1F0FC64C10E94A608C0
:1038800084ED91E1F1FC61C10E94A60882ED91E115
:10389000F2FC5EC10E94A60880ED91E1F3FC5BC1E1
:1038A0000E94A6088EEC91E1F4FC58C10E94A60883
:1038B0008CEC91E1F5FC55C10E94A6088AEC91E1DF
:1038C000F6FC52C10E94A60888EC91E1F7FC60C1A9
:1038D0000E94A6086FE972E08BEC9EE00E94E40B68
:1038E00080911F0C9091200C0E94B5088091150CBE
:1038F0009091160C8230910509F055C280911B0CF5
:1039000090911C0C0E94B50880911D0C90911E0C8A
:103910000E94A6088091210C9091220C0E94A6087A
:103920008091230C9091240C0E94B5088091250C65
:103930009091260C0E94A6088091270C9091280C4B
:103940000E94A60840E2E42E4FE0F42EF701C6A83C
:10395000D7A8A60170E060E02AE080ED99E00E941F
:103960003A0980ED99E00E94DD09E091290CF0917F
:103970002A0C8181811112C28091170C9091180C30
:103980008C159D0510F00C944326F8E3EF0EF11C06
:1039900020E5E21621E1F206C9F60E9402052B019C
:1039A0003C018091770590917805A0917905B091BF
:1039B0007A05A3019201281B390B4A0B5B0BDA0134
:1039C000C901813D9740A105B10508F4AEC28091BF
:1039D000F70E9091F80EE12C009719F00E94462600
:1039E000E62E6BE273E0CE0101960E940C0CBE0144
:1039F0006F5F7F4F83E09FE00E940809F12C8111E7
:103A00000AC08CE295E00E94EF08FF24F394811134
:103A100002C032E0F32ECE0101960E94680A8BE5C7
:103A200080933F0580913C0590913B05890F9091D3
:103A30003905890F80934005E0924105F0924205D7
:103A40008091360580934305809135058093440528
:103A5000EFE3F5E0A0E2BFE0D6968C91D697D7963B
:103A60009C91D79796838783D896329645E0E73521
:103A7000F40791F710925D058091C11180935E0566
:103A800010925F058091C3118093600510926105CB
:103A90008091C51180936205109263058091C711D2
:103AA0008093640525E6E22E25E0F22ED12CC12C70
:103AB000B6018DEF9EE00E940E05F70181937F0114
:103AC000FFEFCF1ADF0A20E1C216D10489F7E0E444
:103AD000F5E096E380E0915009F40EC22191820F47
:103AE000FACFD12CE9CC0E940205F70162837383DF
:103AF00084839583F7CCF70180810E948704092E87
:103B0000000CAA0BBB0B480E591E6A1E7B1EF1E06F
:103B1000CF1AD10881F7F6E07694679457944794CA
:103B2000FA95D1F7F70155AA44AA40CD852F942FD5
:103B30008115F4E09F0710F08FEF93E0F70197AB4A
:103B400086AB4ECD0E94B5089BCE0E94B5089ECE96
:103B50000E94B508A1CE0E94B508A4CE0E94B50867
:103B6000A7CE0E94B508AACE0E94B508ADCE8FECB4
:103B70008E0D883008F0AECEEE2DE153FF0BCF0155
:103B8000880F991F88539E4EF0E3FF1609F4A0CECC
:103B90000E94B5089FCE21E4C2129CCE8FEC8E0D00
:103BA000853008F097CE8F2D0E943D08F82E8D2D80
:103BB0000E943D0840E1F49E90011124F82EF22A63
:103BC0008E2D8153990BFC01EE0FFF1FE054FE4E2A
:103BD000F182E08061E08E2D0E944B04F11005C05F
:103BE00060E08E2D0E941D0475CE9FEFF91202C079
:103BF00061E0F7CFEE2DF0E0E554F94FE491E150AC
:103C0000E23108F0C8C0F0E08827E65FF14E8F4F40
:103C10000C9422271C1E211E261E321E3E1ECB1E69
:103C20004A1E521E5A1E661E721E7E1E8F1E9B1E2E
:103C3000CB1EA71EB31EBF1E84B5806884BDF7BC13
:103C400049CE84B5806284BDF8BC44CE80918000AA
:103C50008068809380008F2D90E0909389008093FE
:103C6000880038CE809180008062809380008F2D04
:103C700090E090938B0080938A002CCE80918000FE
:103C80008860809380008F2D90E090938D008093CA
:103C90008C0020CE8091B00080688093B000F092BC
:103CA000B30018CE8091B00080628093B000F09293
:103CB000B40010CE809190008068809390008F2D8A
:103CC00090E0909399008093980004CE80919000AA
:103CD0008062809390008F2D90E090939B00809362
:103CE0009A00F8CD809190008860809390008F2D8D
:103CF00090E090939D0080939C00ECCD8091A0007B
:103D000080688093A0008091A0008F7B8093A000AA
:103D10008F2D90E09093A9008093A800DBCD809137
:103D2000A00080628093A0008F2D90E09093AB0064
:103D30008093AA00CFCD8091A00088608093A000DE
:103D40008F2D90E09093AD008093AC00C3CD809117
:103D500020018068809320018F2D90E090932901AD
:103D600080932801B7CD809120018062809320014B
:103D70008F2D90E090932B0180932A01ABCD809101
:103D800020018860809320018F2D90E090932D0179
:103D900080932C019FCDF7FC2BCF22CF8091190C63
:103DA00090911A0CEDCD8330910509F063C080919C
:103DB0001B0C90911C0C0E94A60880911D0C9091E8
:103DC0001E0C0E94B5088091210C9091220C0E943B
:103DD000B5088091230C9091240C0E94A608809134
:103DE000250C9091260C0E94A6088091270C90919A
:103DF000280C0E94B508E091290CF0912A0C8181D1
:103E0000811133C08091170C9091180C4996E0E213
:103E1000FFE021E046A957A98417950708F020E0A4
:103E2000F89631E1E035F307A9F7222331F082E07B
:103E300090E09093160C8093150CE0912B0CF09170
:103E40002C0C81818111A9CD84E090E09093160C17
:103E50008093150C0E94020560932D0C70932E0C1C
:103E600080932F0C9093300C98CD8091190C9091E9
:103E70001A0CCCCF049709F090CD80911B0C909137
:103E80001C0C0E94B50880911D0C90911E0C0E9484
:103E9000A6088091210C9091220C0E94A608809186
:103EA000230C9091240C0E94B5088091250C9091D0
:103EB000260C0E94B5088091270C9091280C0E9436
:103EC000A6080E940205C0902D0CD0902E0CE09008
:103ED0002F0CF090300C6C197D098E099F09603110
:103EE00077428105910508F458CD82E090E09093E7
:103EF000160C8093150C51CD809375058DE580933C
:103F0000760548E350E06FE375E084E895E00E94B1
:103F1000200584E895E00E94A5064092770550921E
:103F200078056092790570927A058091AC0E8823AD
:103F300031F10E940205C090A80ED090A90EE09029
:103F4000AA0EF090AB0E6C197D098E099F09C090E6
:103F5000A40ED090A50EE090A60EF090A70EC61667
:103F6000D706E806F90658F4E091AD0EF091AE0ED2
:103F7000309701F1199588EA9EE00E94510881EA84
:103F800097E00E94960518161906FCF481EA97E05E
:103F90000E9475058D30C9F08A3089F389831A82B1
:103FA00041E050E0BE016F5F7F4F89E09FE00E94DB
:103FB000590BE5CF88E198E00FB6F894A895809367
:103FC00060000FBE90936000FFCF63EF75E0CE01FD
:103FD00001960E940C0CCE0101960E94D3087C0130
:103FE00090933E0580933D05CE0101960E94680A9C
:103FF000F7FC5EC08CE295E00E94EF088823B9F0E0
:104000009701295E3F4FA701485F5F4F69E07FE05E
:10401000CE0101960E94460CBE016F5F7F4F8DEF6F
:104020009EE00E941D0ACE0101960E94680A8AE164
:1040300095E00E94EF088823B9F097012A5E3F4F70
:10404000A701495F5F4F69E07FE0CE0101960E94C2
:10405000460CBE016F5F7F4F8DEF9EE00E941D0AF0
:10406000CE0101960E94680A61EE75E085EE9EE041
:104070000E94E40B6DEF7EE085EE9EE00E94DD0B7A
:1040800060ED75E085EE9EE00E942A0B6DEB75E019
:104090008FED9EE00E94E40B6DEF7EE08FED9EE0E1
:1040A0000E94DD0B66EB75E08FED9EE00E942A0B0F
:1040B0006FEA75E0CE0101960E940C0CCE010196CC
:1040C0000E94D3087C0190933E0580933D05CE016C
:1040D00001960E94680AF7FC40C09701285F3F4F95
:1040E000A7014A5F5F4F69E07FE0CE0101960E9421
:1040F000460CBE016F5F7F4F87EF9EE00E941D0A56
:10410000CE0101960E94680A8091FB0E9091FC0EF0
:10411000029718F1E091F70EF091F80E309709F040
:10412000A5C410923A05EAE3F5E080818C32A9F447
:1041300021E030E050E040E067EF7EE0CE01019604
:104140000E94460CBE016F5F7F4F87EF9EE00E948A
:104150001D0ACE0101960E94680A65EA75E0CE014B
:1041600001960E940C0CCE0101960E94D3087C019E
:10417000CE0101960E94680AF7FC06C063EA75E06A
:1041800081EF9EE00E94E40B67E975E0CE010196A5
:104190000E940C0CCE0101960E94D3087C01CE0136
:1041A00001960E94680AF7FC06C063E975E08BEE91
:1041B0009EE00E94E40B68E875E0CE0101960E9443
:1041C0000C0CCE0101960E94D3087C0190933E0511
:1041D00080933D05CE0101960E94680AF7FC1DC040
:1041E0009701225D3F4FA701475D5F4F69E07FE088
:1041F000CE0101960E94460CBE016F5F7F4F8BEC93
:104200009EE00E941D0ACE0101960E94680A6BEC96
:104210007EE080ED99E00E94F70963E775E0CE014A
:1042200001960E940C0CCE0101960E94D3087C01DD
:10423000CE0101960E94680AF7FE10923C0568E6DE
:1042400075E0CE0101960E940C0CCE0101960E94F1
:10425000D3087C01CE0101960E94680AF7FE1092F5
:104260003C0567E575E0CE0101960E940C0CCE017D
:1042700001960E94D3087C01CE0101960E94680A33
:10428000F7FE10923C0580913C05811151C08CE3F2
:1042900095E00E94E30981E080933C0510923B0584
:1042A000109239056BE375E089E09FE00E94E40B12
:1042B0006AE375E083E09FE00E94E40B69E375E048
:1042C0008DEF9EE00E94E40B68E375E087EF9EE0CF
:1042D0000E94E40B67E375E081EF9EE00E94E40B2F
:1042E00066E375E08BEE9EE00E94E40B65E375E00B
:1042F00085EE9EE00E94E40B64E375E08FED9EE0A6
:104300000E94E40B1092DE0E1092DD0E63E375E066
:1043100087ED9EE00E94E40B62E375E081ED9EE094
:104320000E94E40B61E375E08BEC9EE00E94E40BDD
:1043300080913C05813049F5E0913705F0913805D1
:10434000EE0FFF1FEE0FFF1FE95FFD4F4081518110
:104350006281738126E081EA97E00E94C50560E0F2
:1043600088E10E941D0440ED57E060E070E081ECC0
:104370009EE00E945D08882309F441C061E088E165
:104380000E941D0482E080933C0580913C058230B0
:10439000B1F56DE275E0CE0101960E940C0CCE01E4
:1043A00001960E94D3087C01CE0101960E94680A02
:1043B000F7FC5EC383E195E00E94E3096EE075E0DF
:1043C000CE0101960E940C0CCE0101960E940E0AAD
:1043D000CE0101960E94680A63E075E0CE01019665
:1043E0000E940C0CCE0101960E940E0ACE0101968D
:1043F0000E94680A83E080933C051092CA0E809167
:104400003C05833019F486E080933C0580913C059F
:104410008630E1F448EE53E060E070E081EC9EE02D
:104420000E945D08882309F452C06EEC74E0CE014E
:1044300001960E940C0CCE0101960E940E0ACE013C
:1044400001960E94680A89E080933C0580913C05B2
:104450008930E9F56CE275E0CE0101960E94150CF9
:10446000CE0101960E94D3087C01CE0101960E94E4
:10447000680A6CE275E0F7FE13C06AE175E0CE01F0
:1044800001960E94150CCE0101960E94D3087C0172
:10449000CE0101960E94680AF7FC22C06AE175E02D
:1044A00083E09FE00E94FF0A4091070F5091080FA0
:1044B0006091030F7091040F80ED99E00E94200538
:1044C0008BE080933C0588EA9EE00E945108809131
:1044D0003C058B3029F48CE080933C0510923B0521
:1044E00080913C058C3009F095C280913B0581118B
:1044F00007C086EB94E00E94E30983E080933B05CC
:1045000080913B05833009F0A5C048EE53E060E0A0
:1045100070E088EB9EE00E945D08882309F4BFC02C
:104520006CEA74E0CE0101960E940C0CCE0101965B
:104530000E940E0ACE0101960E94680A61EA74E0A8
:10454000CE0101960E940C0CCE0101960E940E0A2B
:10455000CE0101960E94680A61E874E0CE010196DE
:104560000E940C0CCE0101960E940E0ACE0101960B
:104570000E94680A8AE195E00E94EF08882309F406
:1045800046C067E774E0CE0101960E940C0CCE0194
:1045900001960E940E0ACE0101960E94680A6CE6FE
:1045A00074E0CE0101960E940C0CCE0101960E948F
:1045B0000E0ACE0101960E94680A61E674E0CE01FF
:1045C00001960E940C0CCE0101960E940E0ACE01AB
:1045D00001960E94680A66E574E0CE0101960E9489
:1045E0000C0CCE0101960E940E0ACE0101960E948B
:1045F000680A68E474E0CE0101960E940C0CCE01BA
:1046000001960E940E0ACE0101960E94680A6AE392
:1046100074E0CE0101960E940C0CCE0101960E941E
:104620000E0ACE0101960E94680A6DE274E0CE0186
:1046300001960E940C0CCE0101960E940E0ACE013A
:1046400001960E94680A84E080933B0588EA9EE018
:104650000E94510880913B05843009F548EE53E0F3
:1046600060E070E088EB9EE00E945D08882371F0B6
:1046700063E274E0CE0101960E940C0CCE0101961B
:104680000E940E0ACE0101960E94680A8091010FD5
:104690009091020F0F9719F485E080933B0580916C
:1046A0003B05853059F548EE53E060E070E088EB5B
:1046B0009EE00E945D08882371F06CE174E0CE01F9
:1046C00001960E940C0CCE0101960E940E0ACE01AA
:1046D00001960E94680A8091F70E9091F80E00975B
:1046E00069F00E944626633649F0633038F086E070
:1046F00080933B0588EA9EE00E94510880913B052B
:10470000863019F487E080933B0580913B05873024
:1047100099F548EE53E060E070E088EB9EE00E947F
:104720005D08882371F062E174E0CE0101960E9479
:104730000C0CCE0101960E940E0ACE0101960E9439
:10474000680A68E973E0CE0101960E940C0CBE0174
:104750006F5F7F4F81EF9EE00E940809F82ECE0127
:1047600001960E94680AFF2039F088E080933B059B
:1047700088EA9EE00E94510880913B05883019F438
:1047800089E080933B0580913B05893099F548EE9F
:1047900053E060E070E088EB9EE00E945D088823B3
:1047A00071F068E074E0CE0101960E940C0CCE011D
:1047B00001960E940E0ACE0101960E94680A64E9E1
:1047C00073E0CE0101960E940C0CBE016F5F7F4F1B
:1047D0008BEE9EE00E940809F82ECE0101960E9401
:1047E000680AFF2039F08AE080933B0588EA9EE062
:1047F0000E94510880913B058A3009F0A5C18CE2E6
:1048000095E00E94EF08882309F47BC148EE53E04D
:1048100060E070E088EB9EE00E945D0867EE73E068
:10482000811183C180913B058C3089F448EE53E0BF
:1048300060E070E088EB9EE00E945D08882319F13B
:1048400085EE9EE00E940E0A8DE080933B058091EC
:104850003B058D30C1F46BEA73E0CE0101960E94F6
:104860000C0CCE0101960E94D3087C01CE0101966A
:104870000E94680AF7FC07C08EE080933B0588EA37
:104880009EE00E94510880913B058E3089F448EEED
:1048900053E060E070E088EB9EE00E945D088823B2
:1048A00019F18FED9EE00E940E0A8FE080933B0588
:1048B00080913B058F30C1F46AE973E0CE01019627
:1048C0000E940C0CCE0101960E94D3087C01CE01FF
:1048D00001960E94680AF7FC07C081E180933B05BE
:1048E00088EA9EE00E94510880913B05813129F4BD
:1048F0001092390582E180933B0580913B0582311E
:1049000009F088C080913905811111C08091DD0EB8
:10491000882309F437C11092DD0EFF24F394F0923E
:10492000DE0E87ED9EE00E940E0AF09239056DE6DC
:1049300073E0CE0101960E940C0CCE0101960E94FC
:10494000D3087C01CE0101960E94680AF7FC0DC0D5
:1049500080913905813049F481ED9EE00E940E0A74
:104960001092DE0E82E0809339056CE573E0CE0193
:1049700043960E940C0CCE0143960E94D308FF245C
:10498000F39497FF37C06BE473E0CE010D960E945D
:104990000C0CCE010D960E94D308FF24F39497FFD0
:1049A00025C06CE373E0CE0107960E940C0CCE018B
:1049B00007960E94D308FF24F39497FF13C06DE27B
:1049C00073E0CE0101960E940C0CCE0101960E946C
:1049D000D3089095F92EFF1CFF24FF1CCE010196F1
:1049E0000E94680ACE0107960E94680ACE010D96C1
:1049F0000E94680ACE0143960E94680AFF2051F087
:104A000080913905823031F488EA9EE00E94510895
:104A1000109239056CE273E089E09FE00E94E40B9C
:104A20000E940205C090100CD090110CE090120C66
:104A3000F090130C6C197D098E099F09C0900C0C25
:104A4000D0900D0CE0900E0CF0900F0CC616D7060F
:104A5000E806F90608F0A8956AE070E080E090E0CA
:104A60000E94CF040E94C5060C94DC1931965DCBE0
:104A700048EE53E060E070E081EC9EE00E945D084B
:104A8000882301F189EE94E00E948A06E0913705BF
:104A9000F0913805EE0FFF1FEE0FFF1FE95FFD4F8E
:104AA00040815181628173812AE080ED99E00E940A
:104AB0003A0987EE94E00E94E3098091CA0E8F5F65
:104AC0008093CA0E8091CA0E853008F498CC10925B
:104AD000CA0E82ED94E00E94E3098091370590911F
:104AE000380501968230910538F49093380580930B
:104AF000370510923C0583CC10923805109237058B
:104B0000F8CF8AE195E00E94EF08882309F48ACE65
:104B100048EE53E060E070E088EB9EE00E945D08A4
:104B2000882309F47FCE69EC73E0CE0101960E94E0
:104B30000C0CCE0101960E940E0ACE0101960E9435
:104B4000680A8BE080933B0580913B058B3009F030
:104B500069CE6BEB73E0CE0101960E940C0CCE0186
:104B600001960E94D3087C01CE0101960E94680A3A
:104B7000F7FC58CE8CE080933B0588EA9EE00E94CB
:104B8000510850CE40E355E760E070E088EB9EE0CE
:104B90000E945D08882351F0FF24F394F092DE0E0A
:104BA00087ED9EE00E940E0AF09239058091DE0E9C
:104BB0008111BDCE48EB5BE060E070E08FEA9EE0E3
:104BC0000E945D08882309F4B2CE8FE793E00E942B
:104BD000E30966E773E0CE0101960E940C0CCE015A
:104BE00001960E940E0ACE0101960E94680A6FE6A5
:104BF00073E0CE0101960E940C0CCE0101960E943A
:104C00000E0ACE0101960E94680A91CE69E972E00F
:104C1000CE0101960E940C0CBE016F5F7F4F82E9AE
:104C20009EE00E940809E82ECE0101960E94680AC3
:104C3000E1100C94FF1963E972E0CE0101960E9425
:104C40000C0CBE016F5F7F4F82E99EE00E94080955
:104C5000E82ECE0101960E94680AEE2011F40C9411
:104C6000081A8091DD0E81110C94011A8091DE0EDC
:104C700081110C94011A81E592E00E94E309F092FF
:104C8000DD0E0C94011A83E090E031C91F93FC0102
:104C900099278827BC01E89411911032E9F3193063
:104CA00010F01E30C8F31B3251F01D3249F46894E5
:104CB00006C00E948826610F711D811D911D1191F2
:104CC00010531A30B0F33EF490958095709561952D
:104CD0007F4F8F4F9F4F1F910895FB01DC0105907F
:104CE0000D920020E1F70895FC0105900020E9F7FE
:104CF000809590958E0F9F1F0895BB274A3031F401
:104D0000992322F4BDE2909581959F4F0C949E26A5
:104D1000592F482F372F262F660F771F881F991F6F
:104D2000660F771F881F991F620F731F841F951FBF
:104D3000660F771F881F991F0895BB27FB01552712
:104D4000AA27880F991FAA1FA41710F0A41B8395E8
:104D50005051B9F7A05DAA3308F0A95DA19300975F
:104D600079F7B111B1931192CB010C94B726DC0104
:104D7000FC01672F71917723E1F7329704C07C9192
:104D80006D9370836291AE17BF07C8F30895052E27
:104D900097FB1EF400940E94DE2657FD07D00E9468
:104DA000F12607FC03D04EF40C94DE265095409576
:104DB000309521953F4F4F4F5F4F089590958095C7
:104DC000709561957F4F8F4F9F4F08950E941327D5
:104DD000A59F900DB49F900DA49F800D911D11244F
:104DE0000895A1E21A2EAA1BBB1BFD010DC0AA1F2C
:104DF000BB1FEE1FFF1FA217B307E407F50720F044
:104E0000A21BB30BE40BF50B661F771F881F991FBE
:104E10001A9469F760957095809590959B01AC0107
:104E2000BD01CF010895A29FB001B39FC001A39F10
:104E3000700D811D1124911DB29F700D811D1124D3
:104E4000911D0895EE0FFF1F881F8BBF0790F691ED
:104E5000E02D19940F931F93CF93DF938230910528
:104E600010F482E090E0E0914F12F091501230E0A7
:104E700020E0B0E0A0E0309799F42115310509F465
:104E80004AC0281B390B24303105D8F58A819B8113
:104E90006115710589F1FB0193838283FE0111C0C5
:104EA000408151810281138148175907E0F048176A
:104EB000590799F4109761F012960C931297139674
:104EC0001C933296CF01DF91CF911F910F910895DE
:104ED00000934F1210935012F4CF2115310551F069
:104EE0004217530738F0A901DB019A01BD01DF0128
:104EF000F801C1CFEF01F9CF9093501280934F1278
:104F0000CDCFFE01E20FF31F81939193225031091F
:104F100039832883D7CF20914D1230914E12232B05
:104F200041F4209103023091040230934E122093F9
:104F30004D1220910102309102022115310541F4F8
:104F40002DB73EB74091050250910602241B350B48
:104F5000E0914D12F0914E12E217F307A0F42E1BD0
:104F60003F0B2817390778F0AC014E5F5F4F2417CD
:104F7000350748F04E0F5F1F50934E1240934D126D
:104F8000819391939FCFF0E0E0E09CCFCF93DF93AC
:104F90000097E9F0FC01329713821282A0914F1220
:104FA000B0915012ED0130E020E01097A1F4208183
:104FB0003181820F931F20914D1230914E1228178C
:104FC000390709F061C0F0934E12E0934D12DF9162
:104FD000CF910895EA01CE17DF07E8F54A815B819A
:104FE0009E0141155105B1F7E901FB83EA8349911F
:104FF0005991C40FD51FEC17FD0761F48081918191
:105000000296840F951FE901998388838281938199
:105010009B838A83F0E0E0E012968D919C91139738
:105020000097B9F52D913C911197CD010296820F11
:10503000931F20914D1230914E122817390739F6DF
:10504000309751F51092501210924F12B0934E12A9
:10505000A0934D12BCCFD383C28340815181840F72
:10506000951FC817D90761F44E5F5F4F88819981FA
:10507000480F591F518340838A819B819383828388
:105080002115310509F0B0CFF0935012E0934F1283
:105090009ECFFD01DC01C0CF13821282D7CF4F9289
:1050A0005F926F927F928F929F92AF92BF92CF92B8
:1050B000DF92EF92FF920F931F93CF93DF938C01B8
:1050C000009799F4CB01DF91CF911F910F91FF9041
:1050D000EF90DF90CF90BF90AF909F908F907F9098
:1050E0006F905F904F900C942A27FC01E60FF71FFA
:1050F0009C0122503109E217F30708F4AEC0D90130
:10510000CD91DC911197C617D70720F1C530D10595
:1051100078F0CE0104978617970750F0C61BD70B7F
:105120002297C193D1936D937C93CF010E94C627A0
:10513000C801DF91CF911F910F91FF90EF90DF9009
:10514000CF90BF90AF909F908F907F906F905F9027
:105150004F9008955B01AC1ABD0A4C018C0E9D1E48
:10516000A0914F12B0915012512C412CF12CE12CF6
:10517000109731F580914D1290914E128815990536
:1051800009F05CC04616570608F058C0809101022D
:1051900090910202009741F48DB79EB740910502AD
:1051A00050910602841B950BE817F90708F055C0CB
:1051B000F0934E12E0934D12F90171836083B8CFE2
:1051C0008D919C91119712966C90129713967C90EA
:1051D0001397A815B90559F56C0142E0C40ED11C0E
:1051E000CA14DB0420F1AC014A195B09DA011296FA
:1051F000159780F06282738251834083D9016D9349
:105200007C93E114F10471F0D7011396FC93EE93B3
:1052100012978ECF22968C0F9D1FF9019183808368
:10522000F301EFCFF0935012E0934F1281CF481665
:10523000590608F42C017D01D3019ACFCB010E94BD
:105240002A277C01009749F0AE01B8010E94352958
:10525000C8010E94C62787016BCF10E000E068CF2D
:1052600081E090E0F8940C940E2CFB01DC0102C06C
:1052700001900D9241505040D8F70895FB01DC0198
:105280008D91019080190110D9F3990B0895FB01BC
:10529000DC0101900D920020E1F70895FB0151918E
:1052A0005523A9F0BF01DC014D9145174111E1F7EC
:1052B00059F4CD010190002049F04D914015411164
:1052C000C9F3FB014111EFCF81E090E00197089510
:1052D0002F923F924F925F926F927F928F929F9206
:1052E000AF92BF92CF92DF92EF92FF920F931F93F4
:1052F000CF93DF9300D000D000D01F921F92CDB784
:10530000DEB77C013B018A01FC0117821682838192
:1053100081FFDDC1CE0101965C01F7019381F301AC
:1053200093FD859193FF81913F01882309F453C137
:10533000853239F493FD859193FF81913F01853248
:1053400029F4B70190E00E94802BE7CF912C212C0B
:10535000312CFFE1F31538F08B3211F190F48032EB
:1053600009F1833229F137FC3CC020ED280F2A30A7
:1053700050F536FE20C08AE0989E200D1124922E12
:1053800006C08D3291F0803371F7689430F8F301E4
:1053900093FD859193FF81913F018111DACF21C067
:1053A000689431F8689432F8F2CF689433F8EFCF0C
:1053B000689434F8ECCFEAE02E9E200D1124222EC2
:1053C000689435F8E4CF8E3229F436FC04C1689431
:1053D00036F8DDCF8C3619F4689437F8D8CF883694
:1053E000B1F2982F9F7D95549330E0F08336A1F170
:1053F0008337C1F1833509F063C02801F2E04F0E15
:10540000511CF801C080D180692D70E036FC02C0CB
:105410006FEF7FEFC6010E946A2B4C01689437F84A
:1054200082010AC00C5F1F4FFFE3F9838824839435
:10543000912C6501E89437F833FE2DC0522C81146D
:10544000910471F5552009F468CFB70180E290E02E
:105450000E94802B5A94F6CFF801808189830E5FD9
:105460001F4FE4CF2801F2E04F0E511CF801C0801D
:10547000D180692D70E036FC02C06FEF7FEFC6016E
:105480000E94752B4C018201D5CFB70180E290E0DC
:105490000E94802B2A942814190409F0B0F7CECF6B
:1054A000F60137FC859137FE81916F01B70190E0DD
:1054B0000E94802B51105A94F1E08F1A9108BFCFAF
:1054C000843619F0893609F077C0F80137FE6BC0D1
:1054D00060817181828193810C5F1F4FF32DFF7674
:1054E0003F2E97FF09C090958095709561957F4FED
:1054F0008F4F9F4F689437F82AE030E0A5010E9453
:10550000B02BC82ECA188C2C432C36FE0CC0E89445
:1055100040F8C91440F434FE05C032FC03C0F32D3A
:10552000FE7E4F2E892C44FEAAC0FE01EC0DF11D1B
:105530008081803309F09CC0242D297E422E842D49
:105540008870582E43FCAAC040FEA4C09C2C821434
:1055500018F42C0C922C981844FEA6C0B70180E3D6
:1055600090E00E94802B42FE09C088E790E041FE57
:1055700002C088E590E0B7010E94802BC91408F4AE
:105580009FC0CA94D12C9FEFC91AD90ACA0CDB1C40
:10559000F60182916F01B70190E00E94802BAC145C
:1055A000BD04B1F74FCF60817181072E000C880BCD
:1055B000990B0E5F1F4F92CFD32CE894D4F82AE0BA
:1055C00030E08537E1F1232D297FD22E8F36A9F1E6
:1055D000F0F4883551F1F701868197812B960FB64B
:1055E000F894DEBF0FBECDBFDF91CF911F910F9119
:1055F000FF90EF90DF90CF90BF90AF909F908F90F3
:105600007F906F905F904F903F902F9008958037DC
:1056100049F0883701F7D4FE02C06894D2F820E13F
:1056200030E00DC06894D4F8F6CF34FE03C0822F6A
:105630008660D82E20E132E002C028E030E0F80198
:10564000D7FE0FC060817181828193810C5F1F4FF3
:10565000A5010E94B02BC82ECA183D2CE89437F83B
:1056600052CF6081718190E080E00E5F1F4FF0CFDC
:1056700042FC02C0839463CF8394839460CF842DD3
:10568000867809F45CCFF6CFB70180E290E00E9403
:10569000802B83948214C0F3512C5ECF522C581867
:1056A000821408F459CFF8CF842D867809F466CF98
:1056B0008BE241FE80E247FC8DE2B70190E05CCFD7
:1056C000B70180E390E00E94802B9A9457CF8FEF30
:1056D0009FEF84CFFC010590615070400110D8F716
:1056E000809590958E0F9F1F0895FC01615070402A
:1056F00001900110D8F7809590958E0F9F1F089507
:105700000F931F93CF93DF93182F092FEB018B81FA
:1057100081FD09C01FEF0FEF812F902FDF91CF91F7
:105720001F910F91089582FF14C02E813F818C81BB
:105730009D81281739073CF4E881F981CF01019652
:105740009983888310838E819F8101969F838E83A6
:10575000E3CFE885F985812F1995892BA1F3DACF5D
:10576000FA01AA27283051F1203181F1E8946F9392
:105770006E7F6E5F7F4F8F4F9F4FAF4FB1E03ED038
:10578000B4E03CD0670F781F891F9A1FA11D680FD6
:10579000791F8A1F911DA11D6A0F711D811D911D09
:1057A000A11D20D009F468943F912AE0269F11247E
:1057B0003019305D3193DEF6CF010895462F4770E2
:1057C000405D4193B3E00FD0C9F7F6CF462F4F703D
:1057D000405D4A3318F0495D31FD4052419302D09B
:1057E000A9F7EACFB4E0A695979587957795679541
:1057F000BA95C9F700976105710508959B01AC0141
:105800000A2E06945795479537952795BA95C9F767
:10581000620F731F841F951FA01D089513E0C2E837
:10582000D3E000E006C0802FFE010E9422272196CF
:10583000011DC338D10780E00807A9F7F894FFCF0E
:10584000010000511280008025000000C20100000C
:10585000000000460620056505A506960575058825
:10586000050000000038090000000000000000DF13
:105870000C700A9A0A00000000A40ABC0A0000008A
:1058800000C60ACD0A0000000093090000000026AF
:105890000720053A083A075B07450750072308FA2F
:1058A000070F08AE07660724070D0A0072656164DA
:1058B0005F6269747300726561645F696E707574AC
:1058C0005F6269747300726561645F696E7075749C
:1058D0005F72656769737465727300726561645F96
:1058E00072656769737465727300496C6C65676192
:1058F0006C206E62206F662076616C756573202562
:105900006420696E20257320286D61782025642924
:105910000A00496C6C6567616C2064617461206188
:1059200064647265737320307825305820696E2066
:1059300025730A00496C6C6567616C206461746151
:105940002061646472657373203078253058206953
:105950006E2077726974655F6269740A00496C6CC5
:105960006567616C20646174612076616C75652087
:10597000307825305820696E2077726974655F62CF
:105980006974207265717565737420617420616437
:105990006472657373202530580A00496C6C656722
:1059A000616C20646174612061646472657373204A
:1059B000307825305820696E2077726974655F727F
:1059C000656769737465720A00496C6C6567616C20
:1059D000206E756D626572206F662076616C7565EC
:1059E0007320256420696E2077726974655F62692F
:1059F000747320286D6178202564290A00496C6C35
:105A00006567616C206461746120616464726573B0
:105A10007320307825305820696E2077726974655C
:105A20005F626974730A00496C6C6567616C206E13
:105A3000756D626572206F662076616C7565732086
:105A4000256420696E2077726974655F7265676985
:105A5000737465727320286D6178202564290A00AB
:105A6000496C6C6567616C20646174612061646479
:105A70007265737320307825305820696E207772F4
:105A80006974655F7265676973746572730A004C47
:105A90004D42332E312E3400496C6C6567616C20A9
:105AA0006E62206F662076616C75657320285725BD
:105AB000642C205225642920696E207772697465F0
:105AC0005F616E645F726561645F7265676973745C
:105AD00065727320286D6178205725642C2052252B
