:020000040000FA
:100000000C945F040C9487040C9487040C9487046C
:100010000C9487040C9487040C9487040C94870434
:100020000C9487040C9487040C9487040C94870424
:100030000C9487040C9487040C9487040C94870414
:100040000C9452130C9487040C94C2130C949C13BC
:100050000C9487040C9487040C9487040C948704F4
:100060000C9400140C948704000000002300260068
:1000700029007774660020202020004872627400F6
:10008000436F6E6E3A004373713A004E42496F54AB
:1000900000416F004100410041004100410041002A
:1000A00041004100410041004100410041690030F0
:1000B000003100446F003000310044690056322E98
:1000C0003000524754204E422D496F5420436F6EEA
:1000D00074726F6C6C657200524754204E422D4909
:1000E0006F540000000000240027002A00000000D8
:1000F00000250028002B0004040404040404040266
:1001000002020202020303030303030102040810B4
:100110002040800102040810200102040810200081
:1001200000000800020100000304070000000000B6
:10013000000000E00002020304030404050A00FEBC
:1001400006FE07FF01120228076B2005006203214B
:1001500007316333520022079376935400230A2D0C
:1001600066570D550D5501240C455E9B87CA3BA96A
:100170006A4700250B3562375432954A3201260A08
:1001800034621753CC49C51427051173232808C3BB
:100190005E9BCA76012908435E93CB56092A092C37
:1001A00066172B152B002B071B669756022C071A78
:1001B0005A9714002D058A6A232E050963132F0A06
:1001C000445A5FE69863CE00300A3462A7A21A4907
:1001D00026053107B36297646B32093462A7628ED9
:1001E000E508330A3462A7628D6452003409346230
:1001F0001B5535621C350A346233F4463229003609
:100200000A3462A7F28A322900370934623372ACA9
:100210004B00380A3462A76252512605390A34620B
:10022000A7A24C3B29003A06216313033B08325A2C
:10023000976152003C07AB629BEA023D081C6633A3
:10024000321A013E07AB6293AB123F093462A762D8
:100250009B8A0040093462A7A2BAD10041093462E6
:10026000A7A21C5306420A3462B3E248518E0443EB
:10027000093462A7A22E930244093462B3A2732404
:10028000004509346233F4CA79044609346233F410
:10029000CA3500470A3462A7A24E33290048093400
:1002A0006213E59866004907B362B3626B4A08348B
:1002B00062DF9649014B0A34621355923295014C24
:1002C00008346293BB47004D09346213C711CD0057
:1002D0004E09346213979A66004F093462A7A2331D
:1002E0002900500A3462B3A21C29670051093C5E00
:1002F000A7A2CB4601520A3462B3A21C29CA0053FA
:100300000A3462A762D24826055408B362B3621762
:100310000055083462133D93025608346213BD62DF
:10032000045709346213CD71C400580A346213654E
:10033000922ACA005909346213AD984B005A093405
:100340006233726C8F005B07425FB37A095C0CC446
:100350005A9333CA19E58C72005D07C25EA37A0D09
:100360005E069372D7005F060D5A330460069276DC
:1003700013036108246237A25205620A346293F3C0
:100380008A72240063082462A7A2460364093462C7
:100390005F8D28D30065082462A78646036609B3EB
:1003A000629BD28A1500670A345A37A24C3B290057
:1003B0006809346293F38A66006908B3629791AC66
:1003C000066A08C25A17554B016B09346293AB2475
:1003D00053196C07B36223BB066D0925623352A51E
:1003E000922A6E082462939229036F082462A7A2BE
:1003F0004C0A700A345AB3A21C2967007109345A96
:1004000037A24CBB007208246293929D01730824AA
:100410006237361A097408B36217D38A397507240C
:1004200062132D557608246213AD180177092562F1
:1004300093924AAA0B7808246213935431790934B1
:100440005A13CDB493027A082462336239027B09CD
:10045000CB5A9B6295631D7C06415F73087D0ACB76
:100460005A93639D6215017E07146A9754027F05B3
:100470000062038005006203810500620382071A9F
:100480005E971400830ACB5A9B625AB11501840708
:100490001C5ED7520985060D62930A8608AB6697E3
:1004A00056AC008708AB6697565A0988069376D7EC
:1004B00000890A35623756DA6BA8058A0C44625700
:1004C000C69191463229008B061A6227038C0934A3
:1004D000623752B59A038D050062038E05006203F0
:1004E0008F05006203900500620391071A6FA7123F
:1004F0000092079A6E97140093071C6E97540B9402
:10050000071C6ED7520995082466A7C6500A96059F
:100510008A6A2397060D6A33049807147697540263
:1005200099081D6E335452499A0A3C6257663C360C
:100530001A099B071A621315009C08246237D28A95
:10054000299D050062039E050062039F0A446257CD
:10055000A368C55C02A005006203A107316393464E
:1005600000A20A345E1B551A794500A30A3462A71B
:10057000B2CC712400A408246213935431A509B3AA
:100580006293AA955602A606415F3307A70D445E03
:10059000A7628A29A698625200A8058A7623A90A2A
:1005A0003462A351522B2609AA07AB6AB7921EAB3D
:1005B000071D62176503AC071466337200AD050BA7
:1005C0006A33AE092C66A35152CB00AF058A76235D
:1005D000B0069B6ED705B107236297561AB2069AEA
:1005E000721307B3069A72A306B4050A7723B508F7
:1005F0002C5E937AD900B609346237D252D300B751
:1006000005096B13B806925A3302B9069A72A30A07
:10061000BA07AB6AD78D06BB081D62134B9900BCA5
:100620000B3D62A3514C7569A300BD0B3D62A35104
:100630004C75556701BE0B3D62A3515CB9B45100C6
:10064000BF0934629BA9D85200C00B446297515431
:10065000518E2903C10A44625BAB28C79401C20AC8
:1006600044625B65A8E29832C30B44629754C62A81
:100670008E2903C40A4462574315E59832C50A44DB
:10068000625BC5A8E29832C609346237521AAA4B97
:10069000C70A445AA7A22E938E11C80B44629751E1
:1006A0001A7AE53C02C90A44625B0EBD721E01CA99
:1006B0000A44625B8DBD721E01CB0A446257A3A13E
:1006C00057CE23CC09C36293D38AAD01CD09C3624F
:1006D0009BD28AAD01CE08C362D75EB11ACF09C3DF
:1006E0006293F28AAD01D009346227D3EAA500D122
:1006F0000A44629754B9D43403D20B4462975154DC
:10070000D1991400D30944625BABE84C0AD40B4482
:10071000625B65A8A2991400D50B44629754C62A5F
:100720009A4901D60A44625743159D4901D7061BD1
:1007300066933AD80A3462A7A21A492605D90A4410
:10074000629751E9991400DA084462DBF44C0ADB41
:100750000A44625B65149D4901DC0A446257A3E8C0
:10076000991400DD0A44625BE368C51C01DE0A34AB
:100770006293571C296700DF0A3C5EA7A2EA543542
:1007800000E00A3C629751C6232A55E1093C625BAE
:1007900053232A55E20A3C625B6538A25205E30AFC
:1007A0003C629754C6232A55E409346257C3119515
:1007B0002AE50A3C625BC538A25205E60824623786
:1007C000D28A03E709345AA7A246B304E80A3C6276
:1007D0009751C66A6834E9093C625B536A6834EA37
:1007E0000A3C625B65A8864603EB093462574335D1
:1007F000341AEC09BB62933392D500ED08BB625703
:1008000043590DEE08BB62D796D500EF08B362934B
:10081000B2AC06F00B3C6223358A23CAA400F10A6D
:100820003C62975486299932F20B3C629751C62A52
:10083000CAA400F30A3C625B532ACAA400F40A3C2F
:10084000625B65A8A24C0AF50B3C629754C62ACAA3
:10085000A400F60A3462574315655200F7082B626C
:1008600097D14609F8092462A7D2484901F90A3C00
:1008700062975186D15205FA093C625BE368A9028E
:10088000FB093C625B65142D55FC09346257A36873
:10089000A902FD0B4C5A1F338C66DA4901FE0B444A
:1008A0005A93F38A72A49C01FF0B445A57A368A67B
:1008B0009D140000000004FFFF0000001F1511241C
:1008C0001FBECFEFD8E0DEBFCDBF11E0A0E0B1E0AA
:1008D000EEEEF7E302C005900D92A239B107D9F709
:1008E00028E0A2E9B1E001C01D92AE32B207E1F703
:1008F00014E0CFE5D4E004C02197FE010E94D91B8B
:10090000CE35D107C9F70E943C160C94F51B0C9408
:100910000000662329F06A3019F0862F90E00895D0
:100920008FEF9FEF0895AF92BF92CF92DF92EF9239
:10093000FF920F93CF93DF93EC01DA017901942FAB
:100940009770E1E0F0E09F01092E01C0220F0A94A8
:10095000EAF7522F6E018AE8C80ED11CF601808199
:1009600040E0823018F4422F813049F15D01F8EF08
:10097000AF22E8ADF9AD28813981D90150968C912B
:100980008A9D90018B9D300D1124620F731FDF0132
:10099000A60FB71F01111AC0EA0EFB1E8C91842B03
:1009A00085278D93AE15BF05C9F7DF91CF910F91C4
:1009B000FF90EF90DF90CF90BF90AF90089550E000
:1009C000D5CF440F550FE114F10479F33C91342B4A
:1009D00035273C939F5F9770E1E0EE1AF108911183
:1009E000F0CF2CAD3DADA20FB31FF6018081823058
:1009F00028F4813009F051E041E0E5CF51E0E3CF48
:100A000080E0089590E080E00895EBE7F2E0A089AF
:100A1000B18982E08C93A485B5851C92A685B785A3
:100A20008FEC8C93108EA489B58986E08C93A28973
:100A3000B3898C9180618C93A289B3898C918860F1
:100A40008C93A289B3898C9180688C930288F389F6
:100A5000E02D80818F7D808308959B01DC011896B5
:100A6000ED91FC9141E067E10994833081F028F435
:100A7000813099F08230A9F008958730A9F088304C
:100A8000C9F08430B1F4809180008F7D03C08091E3
:100A900080008F7780938000089584B58F7784BD20
:100AA000089584B58F7DFBCF8091B0008F778093C0
:100AB000B00008958091B0008F7DF9CF1F93CF9340
:100AC000DF93282F30E0F901E15EFE4F8491F901B8
:100AD000E55FFE4FD491F901E950FF4FC491CC235B
:100AE000A9F0162F81110E943505EC2FF0E0EE0FD2
:100AF000FF1FE351FF4FA591B4918FB7F894EC918C
:100B0000111108C0D095DE23DC938FBFDF91CF9108
:100B10001F910895DE2BF8CFCF93DF9390E0FC0177
:100B2000E55FFE4F249189509F4FFC0184918823FB
:100B3000D1F090E0880F991FFC01ED51FF4FA59176
:100B4000B491FC01E351FF4FC591D491623071F42F
:100B50009FB7F8943C91822F809583238C93E881F2
:100B60002E2B28839FBFDF91CF9108958FB7F894E4
:100B7000EC912E2B2C938FBFF6CF3FB7F89480913A
:100B8000770290917802A0917902B0917A0226B50D
:100B9000A89B05C02F3F19F00196A11DB11D3FBFB5
:100BA000BA2FA92F982F8827BC01CD01620F711D84
:100BB000811D911D42E0660F771F881F991F4A957E
:100BC000D1F708958F929F92AF92BF92CF92DF920A
:100BD000EF92FF926B017C010E94BD054B015C010D
:100BE000C114D104E104F104B9F00E94BD056819F3
:100BF00079098A099B09683E73408105910580F354
:100C000021E0C21AD108E108F10888EE880E83E0DD
:100C1000981EA11CB11CE4CFFF90EF90DF90CF9005
:100C2000BF90AF909F908F900895FC01218D328DE1
:100C3000838D948DA901481B590BCA0191700895A9
:100C4000EF92FF920F931F93CF93DF938C017B0161
:100C5000D0E0C0E0F701EC0FFD1F6491662361F066
:100C6000D801ED91FC910190F081E02DC80109952A
:100C7000892B11F02196EECFCE01DF91CF911F91FC
:100C80000F91FF90EF900895AF92BF92CF92DF92B5
:100C9000EF92FF920F931F93CF93DF936C017B0131
:100CA0008B01040F151FEB015E01AE18BF08C017C2
:100CB000D10759F06991D601ED91FC910190F08135
:100CC000E02DC6010995892B79F7C501DF91CF91F8
:100CD0001F910F91FF90EF90DF90CF90BF90AF905A
:100CE00008952091940230919502809196029091FE
:100CF0009702281B390B317081E0232B09F480E027
:100D0000089580E090E0892B29F00E9471068111FE
:100D10000C94000008954FB7F894FC01258D368D92
:100D2000878D90A14FBF2817390728F081509E4F1B
:100D3000821B930B08950197FBCFFC01218D328D0F
:100D4000838D948D2817390779F0A38DB48DAE0F5C
:100D5000BF1F91968C91238D348D2F5F3F4F317043
:100D6000348F238F90E008958FEF9FEF0895FC015B
:100D7000218D328D838D948D2817390739F0838D1D
:100D8000948DE80FF91F81A190E008958FEF9FEFF8
:100D90000895FC01A78DB0A1A80FB91FAF5DBD4F8D
:100DA0002C91878D90A10196917090A3878FA68931
:100DB000B7892C93A089B1898C91837080648C93BE
:100DC000258D368D878D90A12817390731F402883B
:100DD000F389E02D80818F7D80830895FF920F93AA
:100DE0001F93CF93DF93EC0181E0888F2D8D3E8D93
:100DF0008F8D98A128173907C9F4E889F98980816E
:100E000085FF14C09FB7F894EE89FF896083E88955
:100E1000F98980818370806480839FBF81E090E046
:100E2000DF91CF911F910F91FF900895F62E0D8DB8
:100E30001E8D0F5F1F4F11708F8D98A18017910726
:100E400061F40FB607FCF8CFE889F989808185FF46
:100E5000F3CFCE010E94C906EFCFED8DFE8DEC0FD2
:100E6000FD1FEF5DFD4FF0829FB7F8941E8F0D8F31
:100E7000EA89FB8980818062CFCFCF93DF93EC0139
:100E8000888D8823B9F0AA89BB89E889F9898C9172
:100E900085FD03C0808186FD0DC00FB607FCF7CF2E
:100EA0008C9185FFF2CF808185FFEDCFCE010E942E
:100EB000C906E9CFDF91CF91089520912402260F32
:100EC0003327331F21323105ECF420914A02FC0113
:100ED00090E080E0243069F082E00895A09124023F
:100EE0002191AC014E5F5D4FA40FB52FB11D2C9326
:100EF0000196861798F380912402680F609324026C
:100F000080E0089581E0089510924A0281E0809384
:100F10004C0210924B0261E082E10E945E0561E0AA
:100F200083E10E945E05E9EBF0E080818E7F8083A3
:100F300080818D7F808388E48093B80085E48093EE
:100F4000BC000895CF93DF9391E090930102882332
:100F5000B9F0C091B800D091BA008091BC008A7BF2
:100F60008093BC0060E082E10E945E0560E083E166
:100F70000E945E050E948407D093BA00C093B80017
:100F8000DF91CF910895089508950895E091F901B2
:100F90008091F801E81730F4F0E0E852FE4F8081CC
:100FA00090E008958FEF9FEF08959091F90180915F
:100FB000F8012FEF3FEF981748F4E92FF0E0E852DF
:100FC000FE4F208130E09F5F9093F901C9010895A1
:100FD0008091F8019091F901891B990B0895CF92A6
:100FE000DF92EF92FF920F931F93CF93DF937C01D9
:100FF000CB018A012091D701222389F0EB016B01FB
:10100000C40ED51ECC15DD0569F06991D701ED91AF
:10101000FC910190F081E02DC7010995F3CF642F79
:101020000E945D07C801DF91CF911F910F91FF9042
:10103000EF90DF90CF900895CF93DF931F92CDB7BD
:10104000DEB769832091D7012223F9F02091FA01BC
:10105000203258F021E030E0FC013383228390E01D
:1010600080E00F90DF91CF9108958091FB01E82FF0
:10107000F0E0E954FE4F998190838F5F8093FB01EC
:101080008093FA0181E090E0ECCF61E0CE0101961F
:101090000E945D07F7CFDC011A96ED91FC9130E0DC
:1010A00020E00994DC011696ED91FC9130E020E0FF
:1010B00040E069E10994DC011696ED91FC9130E085
:1010C00020E040E068E109949A01DC011696ED9178
:1010D000FC91462F67E10994EF92FF920F931F93C3
:1010E000CF93DF931F92CDB7DEB77C018B01D80180
:1010F0006C91673129F150F46531A0F40F90DF91C4
:10110000CF911F910F91FF90EF9008956A3118F1E0
:101110006E3FA1F7F8014181498369E2C7010E944E
:101120004B080BC0F80141814983D7011696ED9118
:10113000FC9130E020E0C70109950E5F1F4FD7CF2B
:10114000F80181818983AE014F5F5F4F61E0C70184
:101150000E946408F2CF0F5F1F4FD7011696ED91E2
:10116000FC9130E020E040E0C7010995C0CF462F58
:10117000DC011696ED91FC9130E020E066E10994E7
:10118000462FDC011696ED91FC9130E020E065E100
:101190000994EF92FF920F931F93CF93DF93EC018B
:1011A000042F79016E3009F450C06F3091F06B302C
:1011B00009F441C06A3009F466C06D3009F450C0CA
:1011C00080E0693089F581E191E0998388831C8A08
:1011D0002AC00E945B08F7011381110F110F110F34
:1011E0006C89160F612F62956F706061CE010E944D
:1011F000C008612F6F70CE010E94C008F7016481A2
:10120000606BCE010E94C008F7014081518162816C
:10121000660F660F660FCE010E9464080150A1F7A9
:10122000CE010E94520881E0DF91CF911F910F9172
:10123000FF90EF90089565E071E0442311F060E0C5
:1012400071E0CE010E946C08EECF0E945B0861E85D
:10125000CE010E94C008602FCE010E94B708E0CFE7
:10126000411109C06AE071E00E946C08E881F981CF
:1012700082898C8BD8CF62E571E00E946C08E8818E
:10128000F9818389F6CFEA85FB8530E020E040E0F4
:1012900068E20995EE81FF8130E020E040E064E102
:1012A000CE01099541E06BE4CE010E944B08E88134
:1012B000F981448169E2CE010E944B0840E06BE471
:1012C000CE010E944B08E881F981448169E2CE0198
:1012D0000E944B0841E06BE4CE010E944B08E8817C
:1012E000F981458169E2CE010E944B0869E271E013
:1012F000A8CFDC011896ED91FC9130E020E040E0B1
:1013000069E10994DC011896ED91FC9130E020E050
:1013100040E068E10994CF93DF931F92CDB7DEB729
:101320006983BE016F5F7F4F0E942D050F90DF9193
:10133000CF910895EF92FF921F93CF93DF93EC012B
:10134000162F7A010E94820960E4CE010E948B0967
:10135000E885F9859701412F67E1CE010995CE0116
:10136000DF91CF911F91FF90EF900C947909EF924C
:10137000FF921F93CF93DF93EC01142F7901673114
:1013800030F4653178F4643159F180E005C067319B
:10139000F9F06A31D0F781E0DF91CF911F91FF9092
:1013A000EF9008950E94820960E0CE010E948B09AF
:1013B000612FCE010E948B09CE010E947909EBCFEB
:1013C00068E1CE010E949A09185188E1E80EF11CEB
:1013D000A7011931A8F7612FCE010E949A09DBCF2E
:1013E0008E898F3F11F488E78E8BE885F985970108
:1013F000412F64E1CE01DF91CF911F91FF90EF90DB
:101400000994FC016623D9F16A30C9F1808D8111FC
:1014100025C06C3F48F085E0808F617070E0738B71
:10142000628B2EEF3FEF29C0683F20F084E0808F71
:101430006370F4CF603F20F083E0808F6770EECF61
:10144000603E20F082E0808F6F70E8CF262F30E082
:10145000603C98F081E0808F6F71E0CF8150808F89
:101460002289338996E0220F331F9A95E1F76F7333
:10147000262B338B228B8111D4CFC90108952FEFF6
:101480003FEFFBCF0F93FC01E05CFF4F0190F08139
:10149000E02D4E1B5F0BDC01D496ED91FC9109957C
:1014A0000F910895CF93DF93FC01A081B18182ADAC
:1014B00090E09C0143E0220F331F4A95E1F737AFDC
:1014C00026AF50962C91509748E0249F900111240C
:1014D00035AF24AF23AD30E0B90153E0660F771F7D
:1014E0005A95E1F7EF01C05CDF4F7983688351962D
:1014F0004C915197E901C80FD91F50E04C175D0777
:1015000018F4CA01821B930BEF01CE5BDF4F798386
:101510006883229623E0880F991F2A95E1F7860FAA
:10152000971F99838883229654968D919C91559705
:1015300099838883E85BFF4F56968D919C919183A8
:101540008083DF91CF9108950F931F93FC01E25B9D
:10155000FF4F0190F081E02DDC01A05BBF4F0D90AB
:10156000BC91A02D4A175B0740F4E017F10748F043
:101570000417150730F080E019C0E017F107C0F339
:10158000FACFFC01E65BFF4F40815181845B9F4FA6
:10159000FC01808191816817790758F481E0421736
:1015A000530720F081E02617370728F71F910F9186
:1015B000089542175307B0F3DECF2F923F924F9218
:1015C0005F926F927F928F929F92AF92BF92CF92D3
:1015D000DF92EF92FF920F931F93CF93DF93CDB7DC
:1015E000DEB72A970FB6F894DEBF0FBECDBF9A873D
:1015F0008987865B9F4F9A838983FC0111821082C1
:10160000E985FA85EA5BFF4F4080518029853A855C
:10161000245B3F4F3C832B83F90151824082E98553
:10162000FA85EE5BFF4F2080318029853A85225B69
:101630003F4F3E832D83F90131822082E985FA856F
:10164000EC5BFF4F6080718029853A85205B3F4FBE
:1016500038872F83F90171826082E985FA85E85A1B
:10166000FF4FE080F180E985FA85EC5AFF4FA080BA
:10167000B180E985FA85EA5AFF4FC080D180E985BB
:10168000FA85EE5AFF4F8080918087019501A6016F
:10169000B40189859A850E94A40A29853A852C5728
:1016A0003F4F3A87298781111BC0F90110822A9682
:1016B0000FB6F894DEBF0FBECDBFDF91CF911F9163
:1016C0000F91FF90EF90DF90CF90BF90AF909F90E1
:1016D0008F907F906F905F904F903F902F900895E4
:1016E00081E0E985FA8580838114910421F0E98104
:1016F000FA8191828082A414B50420F4EB81FC81EC
:10170000B182A0822C143D0420F4ED81FE81D182AF
:10171000C082E614F70458F6EF81F885F182E08282
:10172000C6CF0F93CF93DF93E02FDC01AC57BF4FB1
:10173000FC91FF2309F460C02115310509F45CC058
:101740002230310538F0023009F04AC06F5F7F4F18
:10175000621B730B0E2F0170E0FD52C0FC01E25BB7
:10176000FF4F0190F081E02D4E175F0708F444C051
:10177000FC01E05BFF4F0190F081E02D4E175F0709
:10178000D8F5FC01E45BFF4F0190F081E02DDC0116
:10179000A65BBF4F0D90BC91A02D260F371F2617BB
:1017A000370738F56E177F0718F59F01215031096B
:1017B000A217B30708F56A177B0708F4BD012E17B7
:1017C0003F0708F4F901E61BF70BEC01AEA9BFA92E
:1017D00014960D90BC91A02D9F01FD0109950CC0A0
:1017E000033009F0B7CF4F5F5F4F421B530BB2CFAF
:1017F000BD016E177F07E0F2DF91CF910F91089541
:10180000FC01E65BFF4F0190F081E02D6E177F0732
:1018100098F3FC01E45BFF4F0190F081E02D6E171F
:101820007F0750F7FC01E05BFF4F0190F081E02D56
:10183000DC01A25BBF4F0D90BC91A02D240F351F82
:1018400024173507A8F44E175F0788F49F0121502D
:101850003109A217B30780F64A175B0708F4AD01F8
:101860002E173F0708F4F901E41BF50BAECFAD01CD
:101870004E175F0708F6EDCF0F932091EA073091DE
:10188000EB0762177307F0F02091EC073091ED073A
:1018900062177307B8F42091E6073091E7078217C3
:1018A000930780F02091E8073091E90782179307AA
:1018B00048F4AB01BC0100E021E030E08CE997E0A6
:1018C0000E94910B0F9108955F926F927F928F9279
:1018D0009F92AF92BF92CF92DF92EF92FF920F93BF
:1018E0001F93CF93DF938C01EB016817790770F595
:1018F0007C01E61AF70A81E8E816F104D0F56701E1
:10190000CE01512C50E8E52EF12C60E8662E712CAA
:10191000D0E0C0E047019694879408171907A0F11A
:10192000AA24AA94BA2C6C167D0690F5DF91CF916B
:101930001F910F91FF90EF90DF90CF90BF90AF90ED
:101940009F908F907F906F905F9008957B01E81A31
:10195000F90A81E8E816F10490F23B01E80130E869
:10196000C32ED12C5524539480E890E010E000E081
:10197000D1CF380140E8C42ED12C5524539490E0A7
:1019800080E000E810E0C6CFAA24A394B12CCBCF0E
:10199000B801CE01552011F0BE01C8010E943C0CD7
:1019A0008C189D0897FE04C00A0D1B1D8E0C9F1CF1
:1019B0002196B9CF213069F038F0223079F0840FC8
:1019C000911D47FD9A950895860F911D67FD9A9583
:1019D0000895841B910947FD93950895861B9109ED
:1019E00067FD93950895213069F038F0223079F041
:1019F000861B910967FD93950895840F911D47FDFE
:101A00009A950895860F911D67FD9A950895841BF8
:101A1000910947FD939508953F924F925F926F927F
:101A20007F928F929F92AF92BF92CF92DF92EF926E
:101A3000FF920F931F93CF93DF937C01162F442EB9
:101A4000EC01C25ADF4F5E806F806C018AE8C80EDD
:101A5000D11C78847518312E711608F4372C8C80BF
:101A60009D800E85202F462D652D8A819B810E94A9
:101A7000DA0C5C01202F462D652DC4010E94F30C69
:101A8000AC01442079F08C85F6018083232D30E071
:101A9000B501C7010E94910B171548F017196394FF
:101AA000512CD7CF8B858111F7CF8D85EDCF150DBB
:101AB0001E836F82DF91CF911F910F91FF90EF9066
:101AC000DF90CF90BF90AF909F908F907F906F905E
:101AD0005F904F903F900895DC011A964C911A97B1
:101AE000ED91FC911197249130E0042E02C03595C0
:101AF00027950A94E2F7842F860F883068F0319694
:101B00001196FC93EE93E49198E0941B01C0EE0FC4
:101B10009A95EAF72E2B88501A968C938FEF9FEFA9
:101B200001C0880F6A95EAF7809582230895FC0129
:101B3000E60FF11D849190E0982F88273196E4916B
:101B40008E0F911D0895CF93DF93EC016BAFEEA93B
:101B5000FFA90190F081E02D0995EEA9FFA902806F
:101B6000F381E02DCE01DF91CF910994AF92BF9226
:101B7000CF92DF92EF92FF920F931F93CF93DF9359
:101B800000D000D01F92CDB7DEB78C01DC01DA9611
:101B9000AC90DA97DB96EC90DB97ED91FC91B188F5
:101BA000FE2CD12CC12CD801ED91FC91119780898C
:101BB000D8962D913C911C82FD828B83B8E08B9F3F
:101BC000C00111248C9DA0018D9D500D9C9D500D38
:101BD0001124240F351F3A832983D8011496ED91DF
:101BE000FC919E012F5F3F4F41E06FE0C8010995D6
:101BF000F3948F2D8E198A1528F4BFEFCB1ADB0AC8
:101C0000FB1488F20F900F900F900F900F90DF91C0
:101C1000CF911F910F91FF90EF90DF90CF90BF90E9
:101C2000AF900895CF92DF92EF92FF920F931F93A0
:101C3000CF93DF93EC01962F683109F44BC0B901C3
:101C4000993130F49431C9F0973189F080E006C0C1
:101C5000993109F461C09032C9F781E0DF91CF91E9
:101C60001F910F91FF90EF90DF90CF90089550E07B
:101C70008CE996E00E94EF07F0CF8C859D85AE85BC
:101C8000BF85892B8A2B8B2B71F4E881F981A5857F
:101C9000B0E020EA36E841E050E00E94CE1B6C87BD
:101CA0007D878E879F871092F9011092F80110921C
:101CB000FB011092FA010E94840783EC97E0909355
:101CC00023028093220284EC97E090932702809372
:101CD0002602C3CF2C853D854E855F8560E074E28A
:101CE00084EF90E00E94AC1B205131094109510959
:101CF00056954795379527952093B8008E8990E0A3
:101D00009595879591E09093D7018093B6011092B5
:101D1000FB011092FA01A1CFD091FA01D13208F063
:101D200093C0C091B6010E94BD056B017C018091FA
:101D30004A02811164C082E080934A0281E080936C
:101D40004C028FEF8093490210926E02D0936D0285
:101D5000A7EBB1E0EDE4F2E080E0D8137CC0109294
:101D60006F0280916F02CC0FC82BC0936F028091DD
:101D70004B02813009F073C010924B020E94BD05E6
:101D80006B017C0180916F028093BB008091FD010B
:101D90009091FE01A091FF01B0910002892B8A2B46
:101DA0008B2B99F00E94BD050091FD011091FE0161
:101DB0002091FF01309100026C197D098E099F0965
:101DC0000617170728073907D8F18091BC0083FD53
:101DD000D9CF85EC8093BC000E94BD056B017C01CE
:101DE00080914A028230E9F1809149028F3F61F18E
:101DF00080914902803241F18091490225C0809151
:101E0000FD019091FE01A091FF01B0910002892B8C
:101E10008A2B8B2B09F48BCF0E94BD050091FD010D
:101E20001091FE012091FF01309100026C197D0993
:101E30008E099F09061717072807390708F077CF7B
:101E40008091FC010E94A2071092FB011092FA01FE
:101E50001092D70102CF9D9191938F5F7ECF85EE37
:101E6000B9CF8091FD019091FE01A091FF01B09149
:101E70000002892B8A2B8B2B09F4B2CF0E94BD055F
:101E80000091FD011091FE012091FF0130910002AF
:101E90006C197D098E099F0906171707280739074E
:101EA00008F09ECFCDCF0F931F93CF93DF93EC011C
:101EB000862F642F8C3208F03AC08A3208F060C056
:101EC000883209F44BC0893209F460C0803408F4C8
:101ED00075C0982F9F73FE01E90FF11D868D8F3F0E
:101EE00009F44EC0903108F436C0282F30E0F901D3
:101EF000E15EFE4F8491F901E55FFE4F0491F90127
:101F0000E950FF4F1491112379F081110E9435059A
:101F1000E12FF0E0EE0FFF1FE859FF4FA591B491BC
:101F2000EC910E2381E009F480E0898F29C08D3285
:101F300099F108F4CBCF94EB980F923008F0C6CF0C
:101F40008F73C80FD11D8E8D411134C061E00E9486
:101F50008C0560E08E8D0E945E0512C08E01025ECF
:101F60001F4FD0E0F80181918F018F3F31F061E088
:101F7000D03108F062E00E948C05DF5FD63191F726
:101F800081E0DF91CF911F910F91089570E090E073
:101F900080E00E94E205F4CF85E090E0433010F04D
:101FA00082E090E0880F991F880F991F059701978D
:101FB000F1F7E6CF62E00E948C05E2CF80E0E1CF4E
:101FC000CF92DF92EF92FF920F931F93CF93DF9305
:101FD0006C01EB017B01E40EF51E10E000E0CE1574
:101FE000DF0561F06991D601ED91FC910190F081DE
:101FF000E02DC6010995080F191FF1CFC801DF9127
:10200000CF911F910F91FF90EF90DF90CF900895A7
:102010002F923F924F925F926F927F928F929F92F8
:10202000AF92BF92CF92DF92EF92FF920F931F93E6
:10203000CF93DF93CDB7DEB728970FB6F894DEBF06
:102040000FBECDBF7C016C0124E0C20ED11CFC018F
:10205000E057FF4F0190F081E02DC60109958C01FA
:102060008E3F9F4F08F061C0370184E9680E711CF4
:10207000F3010190F081E02DFD83EC835701F2E93B
:10208000AF0EB11CF50180809180970120593F4F20
:102090003B832A83F9018081813009F470C008F400
:1020A0005FC0823009F476C0833009F482C0F70142
:1020B000EC59FF4F9182808232962C813D81318391
:1020C000208338978081918147969D838C830F3F31
:1020D000110511F008F020C1B6960136110530F453
:1020E0000134110558F0F701EE57FF4F80819181BF
:1020F0002C813D81280F391F3D832C838C819D814C
:102100000196FC01249121115FC090E080E0EA81FA
:10211000FB812081213009F4C1C108F4B7C122300C
:1021200009F4BEC1233009F4C3C181E090E02896D0
:102130000FB6F894DEBF0FBECDBFDF91CF911F91D8
:102140000F91FF90EF90DF90CF90BF90AF909F9056
:102150008F907F906F905F904F903F902F90089559
:10216000F701E05AFF4F0190F081E02DC60109957B
:102170002C813D81280F391F3D832C8398CFF70197
:10218000E05AFF4F0190F081E02DC6010995881AB1
:10219000990A8DCFF701E05AFF4F0190F081E02DB1
:1021A000C6010995EC81FD81E81BF90BFD83EC83E9
:1021B0007ECFF701E05AFF4F0190F081E02DC6017C
:1021C0000995880E991E73CFEC81FD81249120170B
:1021D000110609F09AC0CF010296009709F495CF35
:1021E000F701EE59FF4FF887EF83918380831286C2
:1021F000739660818F8198850E946C0DEF81F885C0
:102200008087F701EA58FF4F60818F8198850E948F
:102210006C0D582EEF81F8858187970122573F4F2B
:102220003D832C83F9019081EF81F885948781E0CB
:10223000911180E0EF81F8858587F701E958FF4F1C
:102240008080682D8F8198850E946C0D382EF70153
:10225000E858FF4F2080622D8F8198850E946C0D79
:10226000982EF701E758FF4F1081612F8F819885D5
:102270000E946C0D9FEF910F01E010E0980101C0EA
:10228000220F9A95EAF7821B8E83EF81F8854084AE
:1022900014140CF0C4C08A94C80101C0880F8A9439
:1022A000EAF7381AF685F983950C2A94C80101C01B
:1022B000880F2A94EAF7282E29182F2F422D632DF4
:1022C000EF81F885828193810E94DA0C4C01EF81C5
:1022D000F885938382832981422D632D84819581A2
:1022E0000E94F30CEF81F88595838483F981F130A6
:1022F00009F49AC008F44EC0F23009F4A4C0F330D7
:1023000009F4B5C0BC0194014FC0FC0184912C813B
:102310003D81280F311DF0CEF701EA57FF4F808134
:102320009181EC81FD81E80FF91FFD83EC834F0162
:1023300060E0C4010E94970D2C813D81280F391F58
:102340003D832C8362E0C4010E94970D34E0830E2C
:10235000911C8017910760F3EC81FD81849190E0DE
:10236000982F88273196E4918E2B009709F4CDCED3
:102370000817190721F48C819D8103962ECFEC81DB
:10238000FD813296E4912C813D812E0F311D3D83DC
:102390002C83E2CF9401240D311D47FC3A95BC01FA
:1023A000650D711D57FC7A958B01AC01B401C60116
:1023B0000E94A40A882399F1EF81F885168217827A
:1023C0004701F3E78F0E911C24E7E20EF11CF401A4
:1023D00060818F8198850E946C0D082FF7016081C4
:1023E0008F8198850E946C0D182F40E0602FC601E8
:1023F0000E940C0D41E0612FC6010E940C0D61E0AE
:102400008F8198850E946C0D8111EFCFEF81F88547
:1024100087818515E4F28485EC81FD818083FE81CE
:102420008F2FFF0F990B73CE0519110957FC1395C8
:1024300094012F5F3F4FBC01640D711D47FC7A95DD
:10244000800E911EB1CFA8014419510947FC539544
:1024500094012F5F3F4F0519110957FC1395BC01DB
:102460006F5F7F4F800F911F840E951E9DCF94014B
:10247000250D311D57FC3A950419110947FC139598
:10248000BC016F5F7F4F800F911F8ECFF5012081C0
:102490003181820F931F9183808347CEF301F7CF61
:1024A000F50120813181281B390B318320833DCEFA
:1024B000F301F7CF089590E080E00895FB010190CB
:1024C0000020E9F73197AF01461B570BDC01ED9176
:1024D000FC910280F381E02D09948F929F92AF923C
:1024E000BF920F931F93CF93DF93CDB7DEB7A19722
:1024F0000FB6F894DEBF0FBECDBF19A2423008F46C
:102500004AE08E010F5D1F4F842E912CB12CA12C1F
:10251000A50194010E94AC1BE62FB901CA01EA3063
:1025200004F5E05DD801EE938D01232B242B252BA0
:1025300079F790E080E0109729F0BD0188E997E0F5
:102540000E945E12A1960FB6F894DEBF0FBECDBFFB
:10255000DF91CF911F910F91BF90AF909F908F907F
:102560000895E95CDFCFBC0190E080E04AE00C9484
:102570006D1285ED8093BC008091FD019091FE016C
:10258000A091FF01B09100020796A11DB11D23E0AB
:10259000B695A795979587952A95D1F72091BC0078
:1025A00024FD03C010924A0208954091FD0150910C
:1025B000FE016091FF0170910002452B462B472BD5
:1025C00069F30097A105B10541F02AE22A95F1F7D8
:1025D00000C00197A109B109E1CF8091FC010C94E1
:1025E000A207FC01A081B18150962C9182AD38E008
:1025F000839FC0011124289FA001299F500D112401
:1026000070E060E080AD91AD0C94EE1B1F93CF9312
:10261000DF93EC010E94B60D1BAD8AAD180FE88167
:10262000F9818189181768F0EC81FD8130E020E0A4
:1026300040E060E1CE01099580E0DF91CF911F91EC
:102640000895FE01E557FF4F8081882319F0CE01E0
:102650000E94F112612FCE010E94A30D81E0EDCF07
:10266000CF93DF93EC01FC01E557FF4F8081882376
:1026700019F0CE010E94F11260E0CE01DF91CF91FE
:102680000C94A30DCF93DF93EC010E943013CE0185
:102690000E9406138111FBCF60E0CE01DF91CF9144
:1026A0000C94A30D1F920F920FB60F9211242F932B
:1026B0003F938F939F93AF93BF93809173029091B9
:1026C0007402A0917502B09176023091720223E0FB
:1026D000230F2D3758F50196A11DB11D20937202CD
:1026E0008093730290937402A0937502B093760264
:1026F0008091770290917802A0917902B0917A024C
:102700000196A11DB11D8093770290937802A0934A
:102710007902B0937A02BF91AF919F918F913F91CF
:102720002F910F900FBE0F901F90189526E8230F42
:102730000296A11DB11DD2CF1F920F920FB60F921C
:1027400011242F933F934F935F936F937F938F93B6
:102750009F93AF93BF93EF93FF938BE792E00E9419
:10276000C906FF91EF91BF91AF919F918F917F919A
:102770006F915F914F913F912F910F900FBE0F90EE
:102780001F9018951F920F920FB60F9211242F933E
:102790004F935F938F939F93EF93FF93E0918B02FF
:1027A000F0918C028081E0919102F091920282FD81
:1027B00025C020818091940290919502019691709C
:1027C00040919602509197028417950759F0E09135
:1027D0009402F0919502E558FD4F21A39093950244
:1027E00080939402FF91EF919F918F915F914F9110
:1027F0002F910F900FBE0F901F9018958081F2CFF0
:102800001F920F920FB60F9211242F933F934F9365
:102810005F936F937F938F939F93AF93BF93EF9348
:10282000FF938091B900887F803609F44AC0F0F5A3
:10283000883209F4A7C018F5803109F49BC0B8F4B8
:10284000882309F4F9C0883009F494C0FF91EF910E
:10285000BF91AF919F918F917F916F915F914F91B8
:102860003F912F910F900FBE0F901F9018958831B8
:1028700009F488C0803251F78093490214C0803433
:1028800009F49DC040F48033B9F38833F9F680939E
:10289000490285ECB0C0803509F485C0883509F45B
:1028A00096C0883499F60E94B912D0CF883909F4BD
:1028B0008CC038F5883729F050F4883611F080370D
:1028C00029F683E080934A021092480257C0883864
:1028D00009F47BC0803919F0803809F0B7CF8091B6
:1028E0004802803208F071C0E091480281E08E0F0A
:1028F000809348028091BB00F0E0E85DFD4F80834B
:102900003DC0803B39F0E0F4803A09F479C0883A60
:1029100009F09CCF84E080934A0210922502109225
:102920002402E0912202F091230209958091240271
:1029300081110FC081E0809324021092020209C02D
:10294000803C09F4A6CF883C09F4A3CF883B09F06A
:102950007DCFE091250281E08E0F80932502F0E08B
:10296000EE5FFD4F80818093BB00909125028091A6
:10297000240229C080916F028093BB0085EC809374
:10298000BC0064CF90916E0280916D02981758F54B
:10299000E0916E0281E08E0F80936E02F0E0E35BC7
:1029A000FD4F8081E9CFE0916E0281E08E0F809330
:1029B0006E028091BB00F0E0E35BFD4F808390915D
:1029C0006E0280916D029817C8F285E8D8CFE09129
:1029D0006E0281E08E0F80936E028091BB00F0E06A
:1029E000E35BFD4F808380914C0281115CCF81E0DD
:1029F00080934B0284EA8093BC0010924A0226CF57
:102A000085EC8093BC0010924A028091480280328B
:102A100030F4E0914802F0E0E85DFD4F10826091F3
:102A2000480270E0E0912602F091270288E292E0ED
:102A30000995109248020ACF1092490234CFCF93E1
:102A4000DF9310927E0210927D0288EE93E0A0E068
:102A5000B0E080937F0290938002A0938102B093B4
:102A600082022DE531E030937C0220937B0225EC3D
:102A700030E0309388022093870224EC30E03093DA
:102A80008A022093890220EC30E030938C0220935C
:102A90008B0221EC30E030938E0220938D0222ECE9
:102AA00030E03093900220938F0226EC30E0309398
:102AB0009202209391021092950210929402109229
:102AC0009702109296021092990210929802109218
:102AD0009B0210929A0210929F0610929E0680937B
:102AE000A0069093A106A093A206B093A3068FE63A
:102AF00091E090939D0680939C0610929B07109204
:102B00009A0789E894E09093290880932808109206
:102B10002B0810922A0810922D0810922C0810925F
:102B2000B40781E891E090939907809398071092F9
:102B30009D0710929C071092B1071092A80710925F
:102B4000A9071092AA071092AB078FEF8093B207E4
:102B50008093B607EAEBF7E080ED97E0DFEFD193E3
:102B60008E179F07E1F789EC98E09093A107809377
:102B7000A00787EB99E09093A3078093A20782E1D7
:102B80009EE09093A5078093A40783E59FE0909330
:102B9000A7078093A60730E020E040E069E08CE9D9
:102BA00097E00E94C9081092F7071092F60783E990
:102BB00094E09093D1078093D00788EA96E09093B1
:102BC000D5078093D407C1E0C093D6071092D707EA
:102BD000109205081092250810922108C09326082B
:102BE000C093270889E891E09093D3078093D20798
:102BF0008CE997E00E94520A1092EF071092EE07BC
:102C00001092F3071092F2078FEF9FEF9093F10766
:102C10008093F0079093F5078093F407E091D20733
:102C2000F091D3070280F381E02D8CE997E00995BC
:102C300082E095E09093F9078093F80710920808D6
:102C4000D093C507D093C607D093C707C093970703
:102C50008BE5809328078DE5809329071092610703
:102C600010926207E7E8F7E080E1DF011D928A95A4
:102C7000E9F7DF91CF910895CF93DF93CDB7DEB71A
:102C8000AE970FB6F894DEBF0FBECDBF789484B573
:102C9000826084BD84B5816084BD85B5826085BD58
:102CA00085B5816085BD80916E00816080936E00E6
:102CB00010928100809181008260809381008091D8
:102CC0008100816080938100809180008160809389
:102CD00080008091B10084608093B1008091B00049
:102CE00081608093B00080917A00846080937A0044
:102CF00080917A00826080937A0080917A0081606E
:102D000080937A0080917A00806880937A00109294
:102D1000C1000E9405050E940505E091A007F09101
:102D2000A10730E020E040E06AE08CE997E00995F7
:102D30008CE997E00E944213E091A007F091A1076F
:102D400030E020E040E06BE08CE997E0099581E01D
:102D50009AE090932908809328088091F607909133
:102D6000F7078353914009F495C0E3E3F1E0F09352
:102D7000F707E093F607E491E0930908E4E3F1E054
:102D8000E491E0930A08E5E3F1E0E491E0930B08B5
:102D9000E6E3F1E0E491E0930C08E7E3F1E0E4918D
:102DA000E0930D08E8E3F1E0E491E0930E08E9E335
:102DB000F1E0E491E0930F08EAE3F1E0E491E093BD
:102DC0001008EBE3F1E0E491E0931108ECE3F1E0AB
:102DD000E491E0931208EDE3F1E0E491E09313084D
:102DE000EEE3F1E0E491E0931408EFE3F1E0E49125
:102DF000E0931508E0E4F1E0E491E0931608E1E4E3
:102E0000F1E0E491E0931708E2E4F1E0E491E0936B
:102E10001808E3E4F1E0E491E093190861E183E349
:102E200091E00E94970D90931B0880931A0863E12C
:102E300083E391E00E94970D90931D0880931C08F6
:102E400065E183E391E00E94970D90931F088093C2
:102E50001E088091F6079091F707892BD9F0809191
:102E600016088093220840911708409323089091F8
:102E70002108992379F0913009F083C090911808C6
:102E8000891714F49093220880911908841714F478
:102E9000809323088CE997E00E944213809194026A
:102EA000909195022091960230919702821B930B8C
:102EB0009170892B09F48DC08BE792E00E949D06EA
:102EC00090912807891305C091E0909362071092B2
:102ED000610790916207992309F3E091610791E0FE
:102EE0009E0F90936107F0E0E85DF84F8283909128
:102EF00029078913D3CF109262071092610790912E
:102F00005F07EBE2F7E080E02191820FA7E0EF3569
:102F1000FA07D1F7981350C080912B07809363076D
:102F200080912C078093640780912D07809365071B
:102F300080912E0780936607EFE2F7E08081918110
:102F400089279827892791AF80AF329687E497E049
:102F50008E179F0799F7FC01808191818927982717
:102F6000892791AF80AF3296AFE4B7E0AE17BF07C5
:102F700099F7FD01819187ABB7E0EF35FB07D1F7FA
:102F80008DCF3091130820911508082E000C990B55
:102F9000622F022E000C770B630F711D37FD7A959F
:102FA000861797071CF4320F3093220824170CF071
:102FB00071CF209323086ECF62E770E08BE792E039
:102FC0000E9420066FE871E08BE792E00E945E129B
:102FD00065CFE0918507F0918607FA83E9838091B8
:102FE0008307909184079C838B83A0918107B09184
:102FF0008207BE83AD83E0917F07F0918007F88759
:10300000EF8380917D0790917E079A878987A091B1
:103010007B07B0917C07BC87AB87E0917907F09183
:103020007A07FE87ED878091770790917807988BD4
:103030008F87A0917507B0917607BA8BA98BE09125
:103040007307F0917407FC8BEB8B80917107909163
:1030500072079E8B8D8BA0916F07B0917007B88F10
:10306000AF8BE0916D07F0916E07FA8FE98F809139
:103070006B0790916C079C8F8B8FA0916907B09123
:103080006A07BE8FAD8FE0916707F0916807F8A3DC
:10309000EF8F1091660700916507F0916407FDA31B
:1030A0002091630729A78091970791E08927809352
:1030B00097078CE997E00E94301355E3C52ED12C79
:1030C00061E1262E312CA02FB0E0BAA3A9A3E12FF5
:1030D000F0E0FCA3EBA39DA1892F90E0B0E0A0E07D
:1030E0008DA39EA3AFA3B8A799A5892F90E0B0E0C8
:1030F000A0E089A79AA7ABA7BCA710922B081092B3
:103100002A08A7E0B0E0B0932D08A0932C08E7E8C8
:10311000F7E08191811122C087E997E08E179F0720
:10312000C1F762EC70E088E997E00E942006ACE607
:10313000B0E0B0932B08A0932A08E7E0F0E0F0930A
:103140002D08E0932C086DEB70E088E997E00E9471
:1031500020061AC0F0E0E0E00995EBC268ED70E0EF
:1031600088E997E00E942006D0922B08C0922A0896
:1031700087E090E090932D0880932C0867E877E033
:1031800088E997E00E945E1268E070E088E090E0D5
:103190000E94640C10922B0810922A0830922D087D
:1031A00020922C086AEB70E088E997E00E942006E4
:1031B0000CE010E01EA61DA610932B0800932A0811
:1031C00030922D0820922C0889A19AA10DA402C04A
:1031D000959587950A94E2F766EB70E080FF02C050
:1031E00068EB70E088E997E00E942006ADA5BEA5D7
:1031F0001196BEA7ADA70B5F1F4F1897E9F68BE49A
:1032000090E090932B0880932A0830922D0820920A
:103210002C0863EB70E088E997E00E94200607E540
:1032200010E01EA61DA610932B0800932A083092CA
:103230002D0820922C088BA19CA10DA402C095956D
:1032400087950A94E2F76FEA70E080FF02C061EBB5
:1032500070E088E997E00E942006EDA5FEA5319672
:10326000FEA7EDA70B5F1F4F3897E9F662E170E00C
:1032700082E190E00E94640C10922B0810922A08C0
:103280008BE190E090932D0880932C086CEA70E01D
:1032900088E997E00E9420068CE0682E712C7092DD
:1032A0002B0860922A08ABE1B0E0B0932D08A09300
:1032B0002C086AEA70E088E997E00E9420063092C4
:1032C0002B0820922A08EBE1F0E0F0932D08E09320
:1032D0002C088F8D98A10E94B3129AE2892E912C0E
:1032E00090922B0880922A088BE190E090932D0811
:1032F00080932C0868EA70E088E997E00E94200635
:103300002FE2A22EB12CB0922B08A0922A08ABE19A
:10331000B0E0B0932D08A0932C088D8D9E8D0E9457
:10332000B31238E4E32EF12CF0922B08E0922A0835
:10333000EBE1F0E0F0932D08E0932C0866EA70E0F2
:1033400088E997E00E9420068DE490E090932B0896
:1033500080932A08ABE1B0E0B0932D08A0932C082D
:103360008B8D9C8D0E94B31206E610E010932B0803
:1033700000932A08EBE1F0E0F0932D08E0932C088D
:1033800064EA70E088E997E00E9420064BE6442E4C
:10339000512C50922B0840922A088BE190E0909398
:1033A0002D0880932C08898D9A8D0E94B3127092FB
:1033B0002B0860922A08A3E2B0E0B0932D08A093F6
:1033C0002C0862EA70E088E997E00E9420063092BB
:1033D0002B0820922A08E3E2F0E0F0932D08E09316
:1033E0002C088F89988D0E94B31290922B0880929E
:1033F0002A0883E290E090932D0880932C0860EADD
:1034000070E088E997E00E942006B0922B08A09215
:103410002A08A3E2B0E0B0932D08A0932C088D8970
:103420009E890E94B312F0922B08E0922A08E3E2F0
:10343000F0E0F0932D08E0932C086EE970E088E945
:1034400097E00E9420068DE490E090932B088093F3
:103450002A08A3E2B0E0B0932D08A0932C088B8932
:103460009C890E94B31210932B0800932A08E3E270
:10347000F0E0F0932D08E0932C086CE970E088E907
:1034800097E00E94200650922B0840922A0883E27F
:1034900090E090932D0880932C0889899A890E9446
:1034A000B31270922B0860922A08ABE2B0E0B0939E
:1034B0002D08A0932C086AE970E088E997E00E9443
:1034C000200630922B0820922A08EBE2F0E0F093DD
:1034D0002D08E0932C088F8598890E94B312909252
:1034E0002B0880922A088BE290E090932D0880931D
:1034F0002C0868E970E088E997E00E942006B09205
:103500002B08A0922A08ABE2B0E0B0932D08A0935C
:103510002C088D859E850E94B312F0922B08E092B4
:103520002A08EBE2F0E0F0932D08E0932C0866E91E
:1035300070E088E997E00E9420068DE490E0909387
:103540002B0880932A08ABE2B0E0B0932D08A0933B
:103550002C088B859C850E94B31210932B08009336
:103560002A08EBE2F0E0F0932D08E0932C0864E9E0
:1035700070E088E997E00E94200650922B08409264
:103580002A088BE290E090932D0880932C0889857F
:103590009A850E94B3126CE270E08CE290E00E9487
:1035A000640C10922B0810922A08D0922D08C09219
:1035B0002C0861E970E088E997E00E94200670928B
:1035C0002B0860922A08D0922D08C0922C088F8177
:1035D00098850E94B31290922B0880922A08D0926C
:1035E0002D08C0922C088D819E810E94B312F0920A
:1035F0002B08E0922A08D0922D08C0922C088B81CB
:103600009C810E94B31210932B0800932A08D09239
:103610002D08C0922C0889819A810E94B31266E31A
:1036200070E086E390E00E94640C10922B081092E8
:103630002A08AFE3B0E0B0932D08A0932C086BE804
:1036400070E088E997E00E94200680E290E0909385
:103650002B0880932A08EFE3F0E0F0932D08E09325
:103660002C0866E870E088E997E00E94200684E371
:1036700090E090932B0880932A088FE390E090933A
:103680002D0880932C084AE06DA17EA18FA198A5FA
:103690000E946D1283E490E090932B0880932A0897
:1036A000AFE3B0E0B0932D08A0932C0860E870E081
:1036B00088E997E00E9420068CE590E090932B0823
:1036C00080932A08EFE3F0E0F0932D08E0932C08B4
:1036D0004AE069A57AA58BA59CA50E946D1250921F
:1036E0002B0840922A088FE390E090932D08809356
:1036F0002C088091970766E770E0882311F06BE74C
:1037000070E088E997E00E9420068CE997E00E942B
:1037100006138111F2CC8091700290917102883071
:10372000A7E09A0708F016CD019690937102809356
:10373000700264EF71E080E090E00E94E20580E0BA
:1037400090E0892B09F4AACB0E947106882309F422
:10375000A5CB0E940000A2CBA1E21A2EAA1BBB1B84
:10376000FD010DC0AA1FBB1FEE1FFF1FA217B3074D
:10377000E407F50720F0A21BB30BE40BF50B661F63
:10378000771F881F991F1A9469F760957095809527
:1037900090959B01AC01BD01CF0108950E94DF1BF4
:1037A000A59F900DB49F900DA49F800D911D112495
:1037B0000895EE0FFF1F0590F491E02D0994A29F4C
:1037C000B001B39FC001A39F700D811D1124911DF5
:1037D000B29F700D811D1124911D0895DC0101C05F
:1037E0006D9341505040E0F70895F894FFCF1815BD
:1037F000AE19FF1815AF19FF1815A115C819FF004C
:1038000001140A6464323200093D00000428961055
:10381000080000800040001815AE15D516A0154010
:103820001520160215A115C815DA16121581166F86
:1038300015D916D315DB1620152E15A415A619FFBC
:103840001815A015C019FF00000000EE0644068BF5
:10385000063D0715069D06B706000000001C08EF90
:10386000075B12C507E807D507C607000000000878
:1038700010E00F5B125A12520ADD0A420A0D0A00CA
:107800000C94343C0C94513C0C94513C0C94513CE1
:107810000C94513C0C94513C0C94513C0C94513CB4
:107820000C94513C0C94513C0C94513C0C94513CA4
:107830000C94513C0C94513C0C94513C0C94513C94
:107840000C94513C0C94513C0C94513C0C94513C84
:107850000C94513C0C94513C0C94513C0C94513C74
:107860000C94513C0C94513C11241FBECFEFD8E036
:10787000DEBFCDBF11E0A0E0B1E0ECE9FFE702C060
:1078800005900D92A230B107D9F712E0A2E0B1E065
:1078900001C01D92AD30B107E1F70E942D3D0C945F
:1078A000CC3F0C94003C982F959595959595959582
:1078B000905D8F708A307CF0282F295A8091C0000B
:1078C00085FFFCCF9093C6008091C00085FFFCCF60
:1078D0002093C6000895282F205DF0CF982F809127
:1078E000C00085FFFCCF9093C6000895EF92FF92F1
:1078F0000F931F93EE24FF2487018091C00087FD22
:1079000017C00894E11CF11C011D111D81E4E8164B
:1079100082E4F8068FE0080780E0180770F3E09132
:107920000401F091050109958091C00087FFE9CF1E
:107930008091C6001F910F91FF90EF9008950E94D3
:10794000763C982F8091C00085FFFCCF9093C600B5
:1079500091362CF490330CF09053892F089597555D
:10796000892F08951F930E949F3C182F0E949F3CCF
:107970001295107F810F1F9108951F93182F882350
:1079800021F00E94763C1150E1F71F9108951F935A
:10799000182F0E94763C803249F0809103018F5F5E
:1079A000809303018530C1F01F9108958091C0003C
:1079B00085FFFCCF84E18093C6008091C00085FFE5
:1079C000FCCF1093C6008091C00085FFFCCF80E102
:1079D0008093C6001F910895E0910401F091050184
:1079E00009951F9108950E94763C803241F0809164
:1079F00003018F5F80930301853081F008958091AA
:107A0000C00085FFFCCF84E18093C6008091C00058
:107A100085FFFCCF80E18093C6000895E0910401CA
:107A2000F09105010995089540E951E08823A1F0FE
:107A30002D9A28EE33E0FA013197F1F721503040CA
:107A4000D1F72D9828EE33E0FA013197F1F7215064
:107A50003040D1F7815061F708953F924F925F9285
:107A60006F927F928F929F92AF92BF92CF92DF924E
:107A7000EF92FF920F931F93CF93DF93000080E16B
:107A80008093C4001092C50088E18093C10086E015
:107A90008093C2005098589A259A81E00E94143D24
:107AA00024E1F22E9EE1E92E85E9D82E0FE0C02ECA
:107AB00010E1B12EAA24A394B1E49B2EA6E58A2E50
:107AC000F2E57F2EE0E26E2E79E4572E63E5462E36
:107AD00050E5352E0E94763C8033B1F18133B9F107
:107AE000803409F46FC0813409F476C0823409F41B
:107AF00085C0853409F488C0803531F1823521F1A3
:107B0000813511F1853509F485C0863509F48DC0BC
:107B1000843609F496C0843709F403C1853709F423
:107B200072C1863709F466C0809103018F5F80932C
:107B30000301853079F6E0910401F0910501099582
:107B40000E94763C803351F60E94F33CC3CF0E94E2
:107B5000763C803249F78091C00085FFFCCFF092DF
:107B6000C6008091C00085FFFCCF9092C600809136
:107B7000C00085FFFCCF8092C6008091C00085FFC9
:107B8000FCCF7092C6008091C00085FFFCCF609250
:107B9000C6008091C00085FFFCCF5092C600809146
:107BA000C00085FFFCCF4092C6008091C00085FFD9
:107BB000FCCF3092C6008091C00085FFFCCFB09210
:107BC000C60088CF0E94763C863808F4BDCF0E945C
:107BD000763C0E94F33C7ECF0E94763C803809F4CC
:107BE0009CC0813809F40BC1823809F43CC1883942
:107BF00009F48FC080E00E94C73C6CCF84E10E94F2
:107C0000BD3C0E94F33C66CF85E00E94BD3C0E94D3
:107C1000F33C60CF0E94763C809306010E94763C44
:107C2000809307010E94F33C55CF0E94763C80333D
:107C300009F41DC183E00E94BD3C80E00E94C73C66
:107C400049CF0E94763C809309020E94763C809343
:107C5000080280910C028E7F80930C020E94763C79
:107C6000853409F415C18091080290910902892B8D
:107C700089F000E010E00E94763CF801E85FFE4FDA
:107C800080830F5F1F4F80910802909109020817AF
:107C9000190788F30E94763C803209F045CF809125
:107CA0000C0280FF01C16091060170910701660F0F
:107CB000771F7093070160930601A0910802B091AD
:107CC00009021097C9F0E8E0F1E09B01AD014E0F09
:107CD0005F1FF999FECF32BD21BD819180BDFA9A17
:107CE000F99A2F5F3F4FE417F50799F76A0F7B1F4B
:107CF00070930701609306018091C00085FFFCCF5F
:107D0000F092C6008091C00085FFFCCFB092C60003
:107D1000E1CE83E00E94C73CDDCE82E00E94C73CFA
:107D2000D9CE0E94763C809309020E94763C8093D3
:107D300008028091060190910701880F991F909386
:107D40000701809306010E94763C853409F4A6C0A1
:107D500080910C028E7F80930C020E94763C8032D0
:107D600009F0B8CE8091C00085FFFCCFF092C6002C
:107D7000609108027091090261157105B9F140E046
:107D800050E080910C02A82FA170B82FB27011C0E2
:107D9000BB2309F45CC0E0910601F0910701319624
:107DA000F0930701E09306014F5F5F4F46175707B7
:107DB000E8F4AA2369F3F999FECF209106013091E6
:107DC000070132BD21BDF89A90B58091C00085FFB2
:107DD000FCCF9093C6002F5F3F4F30930701209355
:107DE00006014F5F5F4F4617570718F38091C00099
:107DF00085FDE5CE8091C00085FFF8CFE0CE81E023
:107E00000E94C73C67CE0E94763C803209F08CCE3F
:107E10008091C00085FFFCCFF092C6008091C00029
:107E200085FFFCCFE092C6008091C00085FFFCCFAB
:107E3000D092C6008091C00085FFFCCFC092C600E2
:107E40008091C00085FFFCCFB092C60043CEE09188
:107E50000601F091070194918091C00085FFFCCF4D
:107E60009093C6009CCF80E10E94C73C33CE0E9415
:107E7000763C0E94763C182F0E94763C112309F430
:107E800083C0113009F484C08FE00E94C73C22CE29
:107E900080910C02816080930C02E5CE80910C02EF
:107EA000816080930C0259CF809107018823880F4D
:107EB000880B8A2180930B02809106019091070123
:107EC000880F991F90930701809306018091080203
:107ED00080FF09C080910802909109020196909359
:107EE000090280930802F894F999FECF1127E091D6
:107EF0000601F0910701C8E0D1E08091080290915D
:107F00000902103091F40091570001700130D9F34B
:107F100003E000935700E89500915700017001308D
:107F2000D9F301E100935700E89509901990009169
:107F3000570001700130D9F301E000935700E89534
:107F40001395103498F011270091570001700130FB
:107F5000D9F305E000935700E895009157000170B0
:107F60000130D9F301E100935700E895329602976A
:107F700009F0C7CF103011F00296E5CF112480919F
:107F8000C00085FFB9CEBCCE8EE10E94C73CA2CD19
:0E7F900085E90E94C73C9ECDF894FFCF80008B
:00000001FF
