:100000000C948F030C94C0030C94C0030C94C00395
:100010000C94C0030C94C0030C94C0030C94C00354
:100020000C94C0030C94C0030C94C0030C94C00344
:100030000C94C0030C94C0030C94C0030C94C00334
:100040000C94C0030C94C0030C94C0030C94C00324
:100050000C94C0030C94C0030C94C0030C9475134F
:100060000C94C0030C94E5140C94BB140C94C003C2
:100070000C94C0030C94C0030C94C0030C94C003F4
:100080000C94C0030C94C0030C94C0030C94C003E4
:100090000C9491140C9467140C94C0030C94C0033A
:1000A0000C94C0030C94C0030C94C0030C94C003C4
:1000B0000C94C0030C94C0030C94C0030C94C003B4
:1000C0000C94C0030C94C0030C94C0030C943D1416
:1000D0000C9413140C94C0030C94E9130C94BF13E8
:1000E0000C94C0030C94171D0C9453110C94111014
:1000F0000C94F2030C94611D0C94C61D0C94EA033D
:100100000C94BA070C9421040C942C050C94EB0964
:100110000C9420040C94AF0A0C9494050C94A20542
:100120000C94451D0C945C070C94E0030C94A21DE8
:100130000C94D5100C9406080C941B080C94130412
:100140000C94FB030C944D1D0C9446080C94B90AB6
:100150000C945B130C94F2110C948D090C948A1D71
:100160000C94FF030C94850A0C94B1060C945B1557
:100170000C9430070C94961D0C9432090C94E603F1
:100180000C9484110C94DB0A0C9451070C947207A4
:100190000C942F080C94F30E0C94211D0C94320730
:1001A0000C94551D0C9417040C94DC0F0C94F5035F
:1001B0000C941C1D0C9405040C941B040C94AE1D93
:1001C0000C94EE030C9446070C9452060C94791D83
:1001D0000C94840F0C940D040C9481050C94391D1F
:1001E0000C9471050C940F150C946D1D0C9409045E
:1001F0000C94C40D0C9425040C94BA1D0C942D1D64
:100200000C94D10A0C94080D0C94E20A0C94670724
:100210000C94A6113E3E3E20496F542057617463F2
:1002200068646F67204177616B656E005B53747221
:10023000696E67205370616365204E4F54204F4BA9
:100240005D005B537472205370616365204F4B5D9A
:1002500000466F726365205075626C6973683A007E
:100260000041542B514D544F50454E3D302C696F39
:10027000742E7265632D67742E636F6D2C31383860
:100280003000466F726365204F70656E3A004F50C4
:10029000454E00464F5243450052455345540000D9
:1002A0002F696E2C0041542B514D545055424558E6
:1002B0003D302C312C322C302C7267742F0041547D
:1002C0002B514D545055423D302C312C322C302C7A
:1002D0007267742F007D0022616F7574223A002CC2
:1002E000002261696E223A002C0022646F7574222C
:1002F0003A002C002264696E223A002C007B2263B3
:100300007371223A005D002C005B005D002C005BE5
:1003100000000020002300260029002C002F0032BE
:1003200000000100000301060109015B48656C6CD7
:100330006F2066726F6D205245432D47545D00411A
:1003400054000000002B514D545055423A20302C9F
:10035000312C30002B514D545055423A20302C3026
:100360002C30002B514D5450554245583A20302CDA
:10037000312C30002B514D5450554245583A2030C5
:100380002C302C30003E0041542B4353510041543B
:100390002B4350494E3F003E3E3E205175657279D9
:1003A000204350494E20262043535100302C310029
:1003B00031002B514D545355423A20302C312C30C2
:1003C0002C30002B514D54434F4E4E3A20302C30A0
:1003D0002C30002B514D544F50454E3A20302C308C
:1003E0000041542B514D544F50454E3D302C382E2A
:1003F0003231302E38342E32342C313838300041FE
:10040000542B514D544F50454E3D302C696F742E36
:100410007265632D67742E636F6D2C313838300030
:1004200041542B43455245473F0041542B434741DC
:1004300054543F0041542B4353510041542B4347E4
:10044000534E3D310041542B514D54444953433D8B
:10045000300041542B514D54434C4F53453D3000D7
:1004600041542B4345445258533D302C35004154A0
:100470002B4353434F4E3D300041542B4350534D7B
:10048000533D300041542B5153434C4B3D300041C0
:10049000542B4346554E3D310041542B5149444E57
:1004A000534346473D302C312E312E312E312C32E4
:1004B00032332E352E352E350041542B5153434CBB
:1004C0004B3D300041542B4346554E3D31003E3E9E
:1004D0003E20494F5420434F4E4E454354494F4EC2
:1004E00020494E495400415449003E3E3E20494F68
:1004F000542053455249414C204641494C21002942
:10050000003E3E3E20494F542053455249414C2025
:1005100050524F42452E2E2E20280041542B51532D
:10052000434C4B3D300041544530003E3E3E20465A
:10053000494E495348204841524457415245205260
:10054000455345540052445900000000000000008B
:10055000000000003E3E3E20494F54204D4F445580
:100560004C4520494E49542C205245534554002BAC
:100570004350494E3A204E4F542052454144590071
:100580002B434D45204552524F52002B5149555255
:10059000433A20227064706465616374222C3100D8
:1005A0002B514D54524543563A2000302C31002BEC
:1005B00043455245473A20302C310031002B434708
:1005C0004154543A2031002B4353513A20002F6FAD
:1005D00075742C300041542B514D545355423D30CD
:1005E0002C312C7267742F002C747377682C315760
:1005F0006F3D5B367641306D0041542B514D544375
:100600004F4E4E3D302C6465765F002B4347534E72
:100610003A200000002100240027002A002D00308D
:1006200000330001010000040107010A010000225B
:1006300000250028002B002E0031003400020100AC
:1006400000050108010B0105050505070508080857
:1006500008020202020A0A08080404040401010153
:10066000010101010103030303030303030407075B
:10067000070C0C0C0C0C0C0C0C02020202060606F9
:1006800006060606060B0B0B0B0B0B0B0B010210E1
:10069000202008081020401020408002010201089C
:1006A000040201010204081020408080402010084C
:1006B00004020180040201804020100804020108A5
:1006C0000402010102040810204080010204081005
:1006D00020408000000A0B02090C0D0E08070304DD
:1006E0000100000000000000000000000000000009
:1006F00000000000000000000000000000000012E8
:1007000011100000000000000000000000000000C8
:10071000000000000000000000005B150F15112410
:100720001FBECFEFD1E2DEBFCDBF00E00CBF15E0B2
:10073000A0E0B2E0E0E0F7E500E00BBF02C0079008
:100740000D92A433B107D9F722E1A4E3B5E001C0CB
:100750001D92A533B207E1F713E0CEE8D3E000E045
:1007600006C021970109802FFE010E948226CD3804
:10077000D10780E00807A9F70E9496180C946E2B09
:100780000C9400008150823108F05AC0E82FF0E04C
:100790008827E253FC4F8F4F0C948226EE03F2031E
:1007A000E003E603EA032004F503FB03FF0305046B
:1007B00009040D041304170420041B042104250458
:1007C000809180008F7780938000089580918000D1
:1007D0008F7DF9CF80918000877FF5CF84B58F77AB
:1007E00084BD089584B58F7DFBCF8091B0008F7755
:1007F0008093B00008958091B0008F7DF9CF8091F3
:1008000090008F77809390000895809190008F7D65
:10081000F9CF80919000877FF5CF8091A0008F77EE
:100820008093A00008958091A0008F7DF9CF8091E2
:10083000A000877FF5CF809120018F7780932001E2
:100840000895809120018F7DF9CF80912001877FCD
:10085000F5CF1F93CF93DF93282F30E0F901ED52AE
:10086000F94F8491F901E357F94FD491F901E95B0C
:10087000F94FC491CC23A9F0162F81110E94C20315
:10088000EC2FF0E0EE0FFF1FE35DF94FA591B4915F
:100890008FB7F894EC91111108C0D095DE23DC934A
:1008A0008FBFDF91CF911F910895DE2BF8CFCF93AB
:1008B000DF9390E0FC01E357F94F2491895B994F56
:1008C000FC0184918823C9F090E0880F991FFC01F6
:1008D000ED5EF94FA591B491FC01E35DF94FC5912F
:1008E000D49161110DC09FB7F8948C91209582230B
:1008F0008C938881282328839FBFDF91CF9108950F
:10090000623051F49FB7F8943C91822F80958323F5
:100910008C93E8812E2BEFCF8FB7F894EC912E2B90
:100920002C938FBFEACF863308F0865320917B004B
:10093000982F9870277F922B90937B002091000234
:1009400090E4299F900111248770822B80937C0072
:1009500080917A00806480937A0080917A0086FD8D
:10096000FCCF809178009091790008953FB7F8947A
:100970008091800590918105A0918205B0918305B9
:1009800026B5A89B05C02F3F19F00196A11DB11DEA
:100990003FBFBA2FA92F982F8827BC01CD01620F26
:1009A000711D811D911D42E0660F771F881F991FE1
:1009B0004A95D1F708958F929F92AF92BF92CF92AE
:1009C000DF92EF92FF926B017C010E94B6044B0113
:1009D0005C01C114D104E104F104B9F00E94B60431
:1009E000681979098A099B09683E73408105910558
:1009F00080F321E0C21AD108E108F10888EE880EE0
:100A000083E0981EA11CB11CE4CFFF90EF90DF9013
:100A1000CF90BF90AF909F908F9008952FB7F8948C
:100A200060917C0570917D0580917E0590917F0598
:100A30002FBF0895FC01248135816217730748F4A4
:100A400080819181009729F0860F971FFC0180819A
:100A5000089580E008950895AF92BF92CF92DF92FB
:100A6000EF92FF920F931F93CF93DF936C017B0163
:100A70008B01040F151FEB015E01AE18BF08C017F4
:100A8000D10759F06991D601ED91FC910190F08167
:100A9000E02DC6011995892B79F7C501DF91CF911A
:100AA0001F910F91FF90EF90DF90CF90BF90AF908C
:100AB0000895FC01A089B1898C91A689B78982FD2E
:100AC0000EC09C91818D8F5F228D821749F0A18D80
:100AD000AE0FBF2FB11D5D969C93818F08958C91B1
:100AE0000895FC01538D448D252F30E0842F90E034
:100AF000821B930B541718F081509F4F0895019754
:100B00000895FC01918D828D981759F0A28DAE0F3A
:100B1000BF2FB11D5D968C91928D9F5F928F90E05B
:100B200008958FEF9FEF0895FC01918D828D9817A6
:100B300031F0828DE80FF11D858D90E008958FEFE3
:100B40009FEF0895FC01918D828D981B892F90E075
:100B5000089584E39CE00E94A20521E0892B09F41A
:100B600020E0822F089584E895E00E94A20521E00C
:100B7000892B09F420E0822F089581EA97E00E94F2
:100B8000A20521E0892B09F420E0822F089580ED51
:100B900099E00E94A20521E0892B09F420E0822F30
:100BA0000895CF92DF92EF92FF921F93CF93DF933E
:100BB000EC016A017B01122FE889F98982E08083C8
:100BC000C11481EED806E104F104A1F060E079E0FF
:100BD0008DE390E0A70196010E9451262150310932
:100BE000410951095695479537952795211580E17B
:100BF000380798F0E889F989108260E874E88EE196
:100C000090E0A70196010E94512621503109410927
:100C100051095695479537952795EC85FD85308385
:100C2000EE85FF852083188EEC89FD891083EA8983
:100C3000FB89808180618083EA89FB89808188606B
:100C40008083EA89FB89808180688083EA89FB89C7
:100C500080818F7D8083DF91CF911F91FF90EF90F6
:100C6000DF90CF900895FC01A48DA80FB92FB11D7E
:100C7000A35EBE4F9C91848D8F5F848FA689B789B8
:100C80009C93A089B1898C91837080648C93938D9F
:100C9000848D981306C00288F389E02D80818F7DB2
:100CA000808308950F931F93CF93DF93EC0181E02E
:100CB000888F9B8D8C8D981318C0E889F989808165
:100CC00085FF13C09FB7F894EE89FF896083E88998
:100CD000F98980818370806480839FBF81E090E088
:100CE000DF91CF911F910F910895062F1B8D1F5FEC
:100CF0008C8D81130CC00FB607FCFACFE889F989F7
:100D0000808185FFF5CFCE010E943306F1CFEB8DB8
:100D1000EC0FFD2FF11DE35EFE4F00839FB7F894AB
:100D20001B8FEA89FB8980818062D6CF0F931F9346
:100D3000CF93DF938C01D0E0C0E0F801EC0FFD1FF2
:100D40006491662341F080ED99E00E945206892B60
:100D500011F02196F2CFCE01DF91CF911F910F912B
:100D60000895CF93DF93EC01888D8823B9F0AA8989
:100D7000BB89E889F9898C9185FD03C0808186FD56
:100D80000DC00FB607FCF7CF8C9185FFF2CF8081A5
:100D900085FFEDCFCE010E943306E9CFDF91CF91E1
:100DA000089580E090E0892B29F00E94C705811109
:100DB0000E94000080E090E0892B29F00E94BD0590
:100DC00081110E94000080E090E0892B29F00E94B0
:100DD000B30581110E94000080E090E0892B29F08A
:100DE0000E94A90581110C9400000895009741F01C
:100DF000DC015896ED91FC9104A0F5A1E02D199429
:100E00000895009741F0DC015896ED91FC9100A007
:100E1000F1A1E02D199486E190E090932A1280933D
:100E200029128FEF9FEF0895CF93DF93EC01288570
:100E300039854A855B85A8EEB3E00E9446260E946C
:100E4000DB048C859D858230910538F0880F991FD1
:100E5000880F991F05970197F1F7DF91CF910895BA
:100E600081E00895FC01808D882349F08485958573
:100E7000DC01ED91FC910190F081E02D199481E06D
:100E800090E09383828390E080E00895DC011C96DB
:100E90008D919C91DC01ED91FC910680F781E02D14
:100EA0001994DC011C968D919C91DC01ED91FC91D3
:100EB0000284F385E02D1994DC011C968D919C91A0
:100EC000DC01ED91FC910484F585E02D1994DC01A1
:100ED0001C968D919C91DC01ED91FC910084F18533
:100EE000E02D19940F931F93CF93DF938C01FC0196
:100EF000C485D585E881F9810680F781E02DCE0192
:100F00001995EA89FB8980818F7E8083EA89FB8934
:100F10008081877F8083EA89FB8980818F778083C6
:100F2000EA89FB8980818F7D80838A8D898FF80192
:100F30008089918997FD08C060E00E94290460E0E3
:100F4000F80180890E945704F8018289938997FDEE
:100F50000CC060E00E94290460E0F8018289DF9102
:100F6000CF911F910F910C945704DF91CF911F9156
:100F70000F9108958F929F92AF92BF92DF92EF925E
:100F8000FF920F931F93CF93DF93EC014A015B0114
:100F9000D22E898E9A8EAB8EBC8E2D8F3E8F8C89F1
:100FA0009D89009709F08C010C8B1D8B8E899F8980
:100FB000009709F07C01EE8AFF8A8889998997FD5C
:100FC00007C061E00E94570460E088890E942904FC
:100FD0008A899B8997FD07C061E00E94570461E000
:100FE0008A890E942904188E2D2DB501A4018C85B3
:100FF0009D85DF91CF911F910F91FF90EF90DF9032
:10100000BF90AF909F908F900C94D105EF92FF927C
:101010000F931F93DC01ED91FC910488F589E02D7D
:10102000A2E3EA2EF12C02E310E019951F910F9133
:10103000FF90EF900895EF92FF920F931F93DC01C2
:10104000ED91FC910488F589E02D7801890126E075
:1010500030E019951F910F91FF90EF900895EF9256
:10106000FF920F931F93DC01ED91FC910488F589A9
:10107000E02D22E3E22EF12C02E310E026E030E046
:1010800019951F910F91FF90EF90089590E080E0E7
:10109000089560E086E10E94290461E070E080E04C
:1010A00090E00C94DB04982F80ED890F8A3070F06B
:1010B0008FEB890F863018F489EC890F08958FE93A
:1010C000890F863010F489EAF8CF80E00895CF9335
:1010D000DF93EC010E940E05688379838A839B83EA
:1010E000DF91CF9108958F929F92AF92BF92CF924E
:1010F000DF92EF92FF92CF93DF93EC016A017B01C5
:101100000E940E058C809D80AE80BF809B01AC014B
:10111000281939094A095B0949015A018885811151
:1011200008C00E940E056C837D838E839F8381E0BF
:101130008887C814D904EA04FB0408F418860E94BE
:101140000E058C809D80AE80BF80681979098A0960
:101150009B0921E0C616D706E806F90608F020E04C
:10116000822FDF91CF91FF90EF90DF90CF90BF90D3
:10117000AF909F908F900895CF93DF93FC012181D2
:10118000222331F0EC0160E080810E942904198261
:10119000DF91CF910895CF93DF93FC01218121113D
:1011A00007C0EC0161E080810E94290481E089830D
:1011B000DF91CF910895CF93DF93EC01862F688361
:1011C000198261E00E945704CE01DF91CF910C9407
:1011D000BC082091EB0E3091EC0E232B39F421E06A
:1011E000FC018081882361F020E00AC0BC0180916D
:1011F000E70E9091E80E0E949E2821E0892BA1F72E
:10120000822F0895FC0124813581FB0144815581A1
:1012100024173507E1F4FC0180819181FB01608195
:1012200071810097D1F061157105A1F4232BC1F0F4
:10123000FC01808190E008C0232B91F0FB018081AC
:1012400090E091958195910921E0892B09F020E0AA
:10125000822F08950E949E28F7CF6115710561F7CE
:1012600021E0F6CF0E9490288F929F92AF92BF927A
:10127000EF92FF920F931F93CF93DF93CDB7DEB71B
:10128000A1970FB6F894DEBF0FBECDBF7C01FA0167
:10129000CB0119A2223008F42AE08E010F5D1F4F06
:1012A000822E912CB12CA12CBF01A50194010E948A
:1012B0005126F901CA016A3074F5605DD8016E9358
:1012C0008D01232B242B252B79F790E080E01097BC
:1012D00089F0FD0101900020E9F73197AF014A1B29
:1012E0005B0BD701ED91FC910280F381E02DB801F9
:1012F000C7011995A1960FB6F894DEBF0FBECDBFFA
:10130000DF91CF911F910F91FF90EF90BF90AF9021
:101310009F908F900895695CD1CF8F929F92AF92EA
:10132000BF92CF92DF92EF92FF920F931F93CF93D2
:10133000DF937C01EB016C0182E0C80ED11C4701F8
:10134000E5E08E0E911C10E000E0F60141916F0186
:1013500050E070E060E02AE0CE010E9434095C01B8
:10136000E881F9810190F081E02D6EE2CE011995BE
:101370008A0D9B1D080F191FC814D90431F7F701F6
:10138000458150E070E060E02AE0CE010E9434091F
:10139000800F911FDF91CF911F910F91FF90EF90E0
:1013A000DF90CF90BF90AF909F908F90089542E0D4
:1013B00050E069E672E00C942C05CF93DF930E9415
:1013C0009606EC0180ED99E00E94D7098C0F9D1FD5
:1013D000DF91CF91089510923C0584E192E00C9446
:1013E000DD090F931F93CF93DF93EC01FB01448141
:1013F0005581608171810E942C058C01CE010E9473
:10140000D709800F911FDF91CF911F910F91089500
:10141000BC0181EA97E00E94F10981EA97E00E940D
:10142000B10661E070E080E090E00C94DB04CF93C3
:10143000DF93DC0114962D913C911597232B79F0C5
:10144000FB01CD91DC9160817181CE010E94AE28BB
:10145000009729F08C1B9D0BDF91CF9108958FEFA2
:101460009FEFFACF0F931F93CF93DF938C01EB0184
:10147000FC01808191810097E1F06881798161159B
:101480007105A9F0428153812C813D814217530798
:1014900070F00E94A7288C819D81F8019583848338
:1014A0001D821C82DF91CF911F910F9108950E94A0
:1014B000262788819981F801918380838A819B8185
:1014C000938382838C819D81958384831982188282
:1014D0001B821A82E5CFCF93DF93EC01888199813B
:1014E000009711F00E942627198218821D821C8203
:1014F0001B821A82DF91CF910895FC018081918136
:10150000009711F00C9426270895CF93DF93EC01F8
:1015100085E292E0998388838C899D89009711F0F8
:101520000E9426278E899F89009711F00E94262706
:10153000888D998D009711F00E9426278A8D9B8DAA
:10154000009711F00E9426278A819B81009721F045
:10155000DF91CF910C94F606DF91CF910895CF9350
:10156000DF93EC010E94850ACE01DF91CF910C94AC
:101570002627CF93DF93EC0189E392E09983888358
:101580008B899C89009711F00E9426278A819B8174
:10159000009721F0DF91CF910C94F606DF91CF9167
:1015A0000895CF93DF93EC010E94B90ACE01DF9139
:1015B000CF910C94262721E432E0FC013183208373
:1015C0000C94B90ACF93DF93EC010E94DB0ACE01A1
:1015D000DF91CF910C9426270F931F93CF93DF9326
:1015E000EC0188819981009759F02A813B81261767
:1015F000370730F081E0DF91CF911F910F9108956F
:101600008B016F5F7F4F0E94AF27009759F099833E
:1016100088831B830A832C813D81232B59F7FC018E
:101620001082E8CF80E0E7CFEF92FF920F931F93F5
:10163000CF93DF93EC017B01198218821B821A82FF
:101640001D821C82FB0101900020E9F731978F0178
:10165000061B170BB8010E94EC0A811109C0CE01CC
:10166000DF91CF911F910F91FF90EF900C946B0A37
:101670001D830C83B70188819981DF91CF911F91E0
:101680000F91FF90EF900C94A728EF92FF920F9389
:101690001F93CF93DF938C017B01EB010990002016
:1016A000E9F72197C61BD70BBE010E94EC0A8111F6
:1016B00009C0C801DF91CF911F910F91FF90EF906A
:1016C0000C946B0AF801D583C483B70180819181A2
:1016D000DF91CF911F910F91FF90EF900C94A7286D
:1016E000AF92BF92CF92DF92EF92FF920F931F9330
:1016F000CF93DF936C015B017A01890124173507D1
:1017000020F48F2D7901042F182F6BE672E0C601AB
:101710000E94140BD5011496CD91DC91EC16FD06B8
:10172000E0F40C171D0708F4E801D501ED91FC91D8
:101730001197EC0FFD1F108110826D917C916E0D41
:101740007F1DC60161157105A1F00E94450BF501D1
:1017500080819181C80FD91F1883C601DF91CF9175
:101760001F910F91FF90EF90DF90CF90BF90AF90BF
:1017700008950E946B0AEBCFEF92FF920F931F9395
:10178000CF93DF936115710541F480E0DF91CF9134
:101790001F910F91FF90EF9008957B01EC01CB0119
:1017A0000E94D4250097A9F00C811D81080F191FF4
:1017B000B801CE010E94EC0A882339F328813981CF
:1017C0008C819D81B701820F931F0E94CD251D83BF
:1017D0000C8381E0DBCFEF92FF920F931F93CF93A7
:1017E000DF936115710541F480E0DF91CF911F9186
:1017F0000F91FF90EF90089541155105B1F07B01D5
:10180000EC010C811D81040F151FB8010E94EC0A28
:10181000882351F3288139818C819D81B701820F02
:10182000931F0E94A7281D830C8381E0DECFEF92D7
:10183000FF920F931F93CF93DF9300D000D01F929E
:10184000CDB7DEB77C01CB014AE08E010F5F1F4FA1
:10185000B8010E94FD25F80101900020E9F73197B9
:10186000AF01401B510BB801C7010E94EB0B27963B
:101870000FB6F894DEBF0FBECDBFDF91CF911F91A1
:101880000F91FF90EF900895EF92FF920F931F93A7
:10189000CF93DF9300D01F92CDB7DEB77C01862FA8
:1018A0004AE08E010F5F1F4FB80190E00E94DD25D6
:1018B000F80101900020E9F73197AF01401B510B6F
:1018C000B801C7010E94EB0B0F900F900F900F9083
:1018D000DF91CF911F910F91FF90EF900895CF93DB
:1018E000DF931F921F92CDB7DEB769831A8241E062
:1018F00050E0BE016F5F7F4F0E94EB0B0F900F9087
:10190000DF91CF910895FB01448155816081718100
:101910000C94EB0BEF92FF920F931F93CF93DF93F7
:10192000EC018B016115710551F0CB010E94D425AA
:101930007C01BC01CE010E94EC0A81110BC0CE01DA
:101940000E946B0ACE01DF91CF911F910F91FF9002
:10195000EF900895FD82EC82B801888199810E9400
:10196000CD25F0CFFC0111821082138212821582E4
:1019700014820C948A0CBF92CF92DF92EF92FF9266
:101980000F931F93CF93DF93CDB7DEB7ED84FE8423
:10199000CF84D888B9880B891C89D70114968D917A
:1019A0009C91892B59F0AE01475E5F4F6F89788D0E
:1019B00080912F12909130120E94C8288D899E89A3
:1019C000892B31F0C7010E941407C7010E9401074B
:1019D000F6018281938180589F4F93838283D70140
:1019E0005896ED91FC910484F585E02DB801C6016F
:1019F0001995F801E80FF91FB0820196DF91CF9198
:101A00001F910F91FF90EF90DF90CF90BF900895BE
:101A10002F923F924F925F926F927F928F929F92FE
:101A2000AF92BF92CF92DF92EF92FF920F931F93EC
:101A3000CF93DF93CDB7DEB7C851D2400FB6F8943D
:101A4000DEBF0FBECDBFFC01A281B381109749F468
:101A500086E190E090932A128093291290E080E032
:101A60005BC45C017E01FBEFEF1AFEEFFF0A5896A4
:101A7000ED91FC9159970488F589E02DB701CD01CE
:101A800019951816190654F7D50112966D907C9089
:101A9000C55FDD4F99838883CB50D24086E190E0CB
:101AA0006114710409F432C4D3015896ED91FC918C
:101AB000C280D380A4E0B1E0AC0FBD1FAC0DBD1D52
:101AC0008C91282F30E0CD5EDD4F39832883C351C0
:101AD000D240A7014C0D5D1DC15FDD4F5983488386
:101AE000CF50D240DA019C90092D10E0A6E0B1E081
:101AF000AC0FBD1FAC0DBD1D4C90512C542C44247B
:101B0000A7E0B1E0AC0FBD1FAC0DBD1D8C91480E20
:101B1000511C1E01BBEF2B1ABDEF3B0AD1011196E0
:101B20003C932E9313961C930E9312970684F7857D
:101B3000E02DBE01655F7D4FC7011995F1019583C9
:101B40008483EFEFE90DE73108F0B5C5F0E08827B1
:101B5000E355F24F8F4F0C948226C40DC40DF30E43
:101B6000F30E840FDC0F84115B135B135B135B13A9
:101B70005B135B135B131110D51053115B135B13D5
:101B80005B135B13A611F2110230110509F04CC072
:101B9000D5011A964D915C911B9718962D913C9109
:101BA00019975696AD90BC9086E792E0E8E0F1E098
:101BB000EC0FFD1FEC0DFD1DE080F12CFE2CEE2442
:101BC000E9E0F1E0EC0FFD1FEC0DFD1D6081E60E7C
:101BD000F11CB70161507109603D774078F127E051
:101BE0002F9320ED2F939F938F93FF92EF928AEA8A
:101BF00092E09F938F931F9281E08F9321E030E0DA
:101C00002C0F3D1F3F932F931F9283E08F933F92A2
:101C10002F927F926F920E94BB0C8C010FB6F894AA
:101C2000DEBF0FBECDBF67C0F5014681578124815D
:101C30003581A488B5888CE692E0B8CF6201C41AD9
:101C4000D50AD7FC08C047018C0C9D1C2815390506
:101C5000ACF44E0C5F1C9F938F935F924F9282ED7A
:101C600092E09F938F931F921F9261E070E06C0F40
:101C70007D1F7F936F931F9282E00FC2D30158960E
:101C8000ED91FC910484F585E02DBE016F5F7F4FDF
:101C9000C10119958C010F5F1F4FE1E0F0E0EC0FDF
:101CA000FD1F8E0F9F1F21E0A70147705527452B71
:101CB00009F420E0F3E0F594E794FA95E1F7E20EF9
:101CC000DC01EC92F501EC0DFD1D30E020E090E030
:101CD00080E0AF014A195B09481559050CF46AC048
:101CE000892B49F0E1E0F0E0EC0FFD1FE00FF11F60
:101CF00020830F5F1F4FCD5EDD4F28813981C35197
:101D0000D240232B09F406C3D3015896ED91FC91E0
:101D10000088F189E02DB801CE01019619957C016A
:101D2000D3015896ED91FC910288F389E02DA7012B
:101D3000BE016F5F7F4FC30119958B016F3F7F4FCE
:101D400039F5F301868181FF23C0C0902912D0901C
:101D50002A12F2EFCF16FDE2DF0609F0BCC4D30170
:101D60005896ED91FC91068CF78DE02DC3011995E5
:101D7000C3010E941407D3015896ED91FC91048C85
:101D8000F58DE02DC3011995D0922A12C092291227
:101D9000F301868181FF03C00F3F100709F210167F
:101DA00011060CF0B7C2E016F10609F4B3C28FEECB
:101DB0009BE2ACC2419150E0082E02C0440F551F77
:101DC0000A94E2F7242B352B8730910551F4A1E0DA
:101DD000B0E0AC0FBD1FA00FB11F2C930F5F1F4FC2
:101DE00074CF019676CF04301105B1F5F501468523
:101DF000578524853585808C918C86E892E0E8E0D3
:101E0000F1E0EC0FFD1FEC0DFD1D008110E0102F27
:101E10000027E9E0F1E0EC0FFD1FEC0DFD1D6081F6
:101E2000060F111DB80161507109FE0131966F0155
:101E30006D37710500F11F922DE72F939F938F93BC
:101E40001F930F938AEA92E09F938F931F9281E0F2
:101E50008F93FF93EF93D8CED50152964D915C911D
:101E6000539750962D913C9151975A968D909C90F6
:101E70008BE992E0C4CF7201E41AF50A5701F7FC2E
:101E800007C0E00EF11E2E153F057CF4400E511EDA
:101E90009F938F935F924F9282ED92E09F938F93E7
:101EA0001F921F92DF92CF92E6CED3015896ED910A
:101EB000FC910484F585E02DB601C1011995F60168
:101EC000E80FF91F000F00839501220F331F820EC8
:101ED000931E0196F601E80FF91F8F010C191D09D9
:101EE000AE14BF040CF007CFD40111968C91B2E070
:101EF0008B0E911C8083D40112978C9181832FEFDC
:101F0000A21AB20A3296E9CFD50116968D919C910C
:101F10001797A201481B590BCE01019657FD06C029
:101F200014962D913C91421753074CF05F924F92BB
:101F300024EF32E03F932F931F921F92B1C1E8E04C
:101F4000F1E0EC0FFD1FEC0DFD1D208130E0322F84
:101F50002227E9E0F1E0EC0FFD1FEC0DFD1D608193
:101F6000260F311D2115FFEF3F0719F0211531050F
:101F7000B1F4D5015496ED91FC91E40FF51F41E0C9
:101F8000232B09F440E04083C55FDD4F08811981B0
:101F9000CB50D240A801B7010E949528ACCE5F92E9
:101FA0004F923F932F932DE133E03F932F931F9256
:101FB0001F929F938F936FC0D50152968D919C91E4
:101FC00053979201281B390BCE01019637FD07C0AC
:101FD00050964D915C915197241735072CF05F92E4
:101FE0004F922BE533E0A6CF220F331F5A96ED9187
:101FF000FC91E20FF31FA8E0B1E0AC0FBD1FAC0DE8
:10200000BD1D2C9130E0322F2227A9E0B1E0AC0FAA
:10201000BD1FAC0DBD1D4C91240F311D318320839C
:10202000B3CFE8E0F1E0EC0FFD1FEC0DFD1D80816A
:1020300090E0982F8827E9E0F1E0EC0FFD1FEC0D10
:10204000FD1D2081820F911D9C0121503109203BF3
:10205000374070F4EAE0F1E0EC0FFD1FEC0DFD1DE0
:102060002081E8E02E9F9001112428173907ECF415
:1020700027E02F9320EB2F939F938F9389E893E092
:102080009F938F931F9281E08F9321E030E02C0F7C
:102090003D1F3F932F931F9283E08F933F922F9288
:1020A0007F926F920E94BB0CB8CDD50116962D91F0
:1020B0003C911797F201E21BF30B9F01F7FD0CC057
:1020C000BC016E0F7F1F14964D915C9115974617BA
:1020D0005707D4F4480E591E5F924F928DEB93E050
:1020E0009F938F931F921F9221E030E02C0F3D1F92
:1020F0003F932F931F9282E08F933F922F927F9274
:102100006F920E94BB0C89CD56E0C50ED11C54962F
:102110000D911C91200F311FF90150E040E081E04A
:1021200090E08C0F9D1FC80ED91ECF01801B910B14
:1021300086179707F0F0D3015896ED91FC9104842F
:10214000F585E02DBE016F5F7F4FC1011995A1E0BC
:10215000B0E0AC0FBD1FA80FB91FF701E80FF91FC2
:1021600024E001900D922A95E1F78C010C5F1F4F3E
:10217000C2CDCF01821B930BA3E096958795AA95BC
:10218000E1F78C0D9D1D8C5F9E4FDC018C9190E0E2
:10219000042E02C0959587950A94E2F78170819389
:1021A0004F5F5F4F47705527C0CFE8E0F1E0EC0F7D
:1021B000FD1FEC0DFD1D208130E0322F2227E9E0CC
:1021C000F1E0EC0FFD1FEC0DFD1D8081280F311D8E
:1021D000C90101978B37910570F4EAE0F1E0EC0F4B
:1021E000FD1FEC0DFD1D8081B8E08B9FC001112407
:1021F000821793077CF41F928BE78F933F932F9363
:1022000087EE93E09F938F931F9281E08F93CE018F
:102210000196CFCED50152968D919C915397F201A4
:10222000E81BF90BCF01F7FD31C0A9014E0F5F1F6D
:1022300050966D917C916417750734F1C15FDD4F45
:10224000E881F981CF50D2409C01220F331F2E1913
:102250003F092C193D09841795070CF06CCFD50167
:102260005A966D917C91DB01A20FB31FAE0FBF1F79
:10227000668170E0762F66271781610F711D6D935F
:102280007C9301963296E7CF420E531E5F924F9297
:1022900080E294E09F938F931F921F92CE0101964C
:1022A0009F938F9327CFD3015896ED91FC9104848F
:1022B000F585E02DBE016F5F7F4FC1011995FE01CD
:1022C000E80FF91F24EB2283FE01E80FF91F2FEF1F
:1022D0002383DC011396E1E0F0E0EC0FFD1FAE0F6D
:1022E000BF1F28E0EFE4F4E001900D922A95E1F79A
:1022F0008C01055F1F4FE1E0F0E0EC0FFD1FE80FE0
:10230000F91F8AE08083F7CC8DE690E090932A1243
:102310008093291281E090E0C85EDD4F0FB6F894FB
:10232000DEBF0FBECDBFDF91CF911F910F91FF9008
:10233000EF90DF90CF90BF90AF909F908F907F9065
:102340006F905F904F903F902F900895D5015296D7
:102350008D919C915397F201E81BF90BCE010196E8
:10236000F7FD3DCE50962D913C915197E217F30722
:102370000CF035CEEE0FFF1F5A962D913C91E20FD7
:10238000F31FAAE0B1E0AC0FBD1FAC0DBD1D2C9139
:1023900030E0322F2227ABE0B1E0AC0FBD1FAC0D17
:1023A000BD1D4C91240F311DA8E0B1E0AC0FBD1F45
:1023B000AC0DBD1D4C91642F70E0762F6627A9E00F
:1023C000B1E0AC0FBD1FAC0DBD1D4C91460F572F9A
:1023D000511D60817181622773274623572324276B
:1023E00035271CCEE8E0F1E0EC0FFD1FEC0DFD1DE4
:1023F000808190E0982F8827E9E0F1E0EC0FFD1F45
:10240000EC0DFD1D2081FC01E20FF11DC35FDD4FCE
:10241000F983E883CD50D240ECE0F1E0EC0FFD1FF2
:10242000EC0DFD1D808190E0982F8827EDE0F1E014
:10243000EC0FFD1FEC0DFD1D2081820F911D9C01F5
:1024400021503109DE01119629373105C0F4C35FEF
:10245000DD4F28813981CD50D240215031092D37AF
:10246000310568F4EEE0F1E0EC0FFD1FEC0DFD1D11
:1024700040819C01220F331F4217130639F11F922E
:102480002DE72F931F9229E72F93C25FDD4FF8812D
:10249000CE50D240FF93C35FDD4F2881CD50D24054
:1024A0002F939F938F9388E594E09F938F931F9230
:1024B00081E08F93BF93AF931F9283E08F933F92FE
:1024C0002F927F926F920E94BB0CA7CBEAE0F1E0C3
:1024D000EC0FFD1FEC0DFD1D208130E0322F222777
:1024E000EBE0F1E0EC0FFD1FEC0DFD1D4081240F32
:1024F000311DF501428953898201041B150BCF5E02
:10250000DD4F19830883C151D240B901641B750B9B
:10251000AB014B0117FDE6C0C35FDD4FE881F981D8
:10252000CD50D240E00FF11FCB5EDD4FF983E88341
:10253000C551D240F50160897189CB5EDD4FE881DC
:10254000F981C551D2406E177F07FCF057FD1FC0BF
:10255000AC01480D591DC95EDD4F59834883C751F1
:10256000D24064177507E4F4280F391F17FF0FC016
:102570003F932F935F924F9284EA94E09F938F93BF
:102580001F921F92BF93AF9376CB57FFEDCFC35FE0
:10259000DD4F68817981CD50D240460E571EE8CF7D
:1025A000F301808D918DFC01248535857D01BD0170
:1025B000CE018B5F9D4FF9011995F701E80FF91FC7
:1025C000C35FDD4F2881CD50D240220F2083C15FF1
:1025D000DD4FE881F981CF50D240AE014B5F5E4FB5
:1025E0009401220F331F241B350B2C193D09C95EA2
:1025F000DD4F48815981C751D240841695060CF4AD
:1026000043C0F701E80FF91F9801220F331F2E195D
:102610003F09B901681B790BCB0141E050E04E192D
:102620005F098A010E0F1F1FCB5EDD4F6881798124
:10263000C551D240CF5EDD4FA881B981C151D24092
:10264000A617B7070CF057CBBC016E0F7F1FD50143
:102650005A962D913C91DB01A20FB31F11962C913C
:10266000119721832C912283CF5EDD4F2881398100
:10267000C151D2402F5F3F4FCF5EDD4F398328835A
:10268000C151D2403296CDCFD5015A964D915C9131
:10269000DA01A20FB31FAE0FBF1F428550E0542FC7
:1026A00044276385460F511D4D935C93BFEF8B1AF2
:1026B0009B0A32969CCF1F929F9285EF94E09F9346
:1026C0008F931F9281E08F939E012F5F3F4F3F9327
:1026D0002F931F9211CDC3010E941407C3010E94C2
:1026E000010752CB77FF40CF43CF1F920F920FB617
:1026F0000F9211242F933F938F939F93AF93BF9388
:1027000080917C0590917D05A0917E05B0917F051B
:1027100030917B0523E0230F2D3758F50196A11D3D
:10272000B11D20937B0580937C0590937D05A0933C
:102730007E05B0937F058091800590918105A091E1
:102740008205B09183050196A11DB11D809380057E
:1027500090938105A0938205B0938305BF91AF91BB
:102760009F918F913F912F910F900FBE0F901F90CF
:10277000189526E8230F0296A11DB11DD2CF1F92F6
:102780000F920FB60F9211240BB60F922F933F9317
:102790004F935F936F937F938F939F93AF93BF9369
:1027A000EF93FF9384E39CE00E943306FF91EF9147
:1027B000BF91AF919F918F917F916F915F914F9159
:1027C0003F912F910F900BBE0F900FBE0F901F9057
:1027D00018951F920F920FB60F9211240BB60F92FD
:1027E0002F933F934F935F936F937F938F939F9319
:1027F000AF93BF93EF93FF9384E39CE00E9459054E
:10280000FF91EF91BF91AF919F918F917F916F91C8
:102810005F914F913F912F910F900BBE0F900FBE84
:102820000F901F9018951F920F920FB60F921124C0
:102830000BB60F922F933F934F935F936F937F93BA
:102840008F939F93AF93BF93EF93FF9384E895E0AB
:102850000E943306FF91EF91BF91AF919F918F91AD
:102860007F916F915F914F913F912F910F900BBE90
:102870000F900FBE0F901F9018951F920F920FB6DA
:102880000F9211240BB60F922F933F934F935F93A8
:102890006F937F938F939F93AF93BF93EF93FF9328
:1028A00084E895E00E945905FF91EF91BF91AF91A7
:1028B0009F918F917F916F915F914F913F912F9158
:1028C0000F900BBE0F900FBE0F901F9018951F9288
:1028D0000F920FB60F9211240BB60F922F933F93C6
:1028E0004F935F936F937F938F939F93AF93BF9318
:1028F000EF93FF9381EA97E00E943306FF91EF91F7
:10290000BF91AF919F918F917F916F915F914F9107
:102910003F912F910F900BBE0F900FBE0F901F9005
:1029200018951F920F920FB60F9211240BB60F92AB
:102930002F933F934F935F936F937F938F939F93C7
:10294000AF93BF93EF93FF9381EA97E00E945905FD
:10295000FF91EF91BF91AF919F918F917F916F9177
:102960005F914F913F912F910F900BBE0F900FBE33
:102970000F901F9018951F920F920FB60F9211246F
:102980000BB60F922F933F934F935F936F937F9369
:102990008F939F93AF93BF93EF93FF9380ED99E055
:1029A0000E943306FF91EF91BF91AF919F918F915C
:1029B0007F916F915F914F913F912F910F900BBE3F
:1029C0000F900FBE0F901F9018951F920F920FB689
:1029D0000F9211240BB60F922F933F934F935F9357
:1029E0006F937F938F939F93AF93BF93EF93FF93D7
:1029F00080ED99E00E945905FF91EF91BF91AF9151
:102A00009F918F917F916F915F914F913F912F9106
:102A10000F900BBE0F900FBE0F901F90189585E181
:102A20009CE00E94DB0A86E79EE00E947D0A8CE71C
:102A30009EE00E947D0A82E89EE00E947D0A8FEA65
:102A40009EE00E947D0A85EB9EE00E947D0A8BEB52
:102A50009EE00E947D0A83EC9EE00E947D0A89EC44
:102A60009EE00E947D0A8FEC9EE00E947D0A85ED2B
:102A70009EE00E947D0A8BED9EE00E947D0A81EE21
:102A80009EE00E947D0A87EE9EE00E947D0A8DEE08
:102A90009EE00E947D0A83EF9EE00E947D0A89EFFE
:102AA0009EE00E947D0A8CEE91E10E94DB0A8BE0A1
:102AB00092E10C94850A5F926F927F928F929F921F
:102AC000AF92BF92CF92DF92EF92FF920F931F933C
:102AD000CF93DF9304E31CE0D80113961C921E925F
:102AE000129788EEC82E83E0D82EE12CF12CF80145
:102AF000C482D582E682F78283E192E0918380836B
:102B000025E331E03587248724E331E037872687C2
:102B100020E331E0318B208B21E331E0338B228BBA
:102B200022E331E0358B248B26E331E0378B268B93
:102B3000118E128E138E148EE4E8F5E01382128249
:102B4000C482D582E682F7829183808325ED30E0CE
:102B50003587248724ED30E03787268720ED30E065
:102B6000318B208B21ED30E0338B228B22ED30E056
:102B7000358B248B26ED30E0378B268B118E128E11
:102B8000138E148EE1EAF7E013821282C482D5829A
:102B9000E682F782918380832DEC30E035872487AD
:102BA0002CEC30E03787268728EC30E0318B208B07
:102BB00029EC30E0338B228B2AEC30E0358B248BF0
:102BC0002EEC30E0378B268B118E128E138E148EE6
:102BD000E0EDF9E013821282C482D582E682F782A8
:102BE0009183808385EC90E09587848784EC90E0E6
:102BF0009787868780EC90E0918B808B81EC90E0CA
:102C0000938B828B82EC90E0958B848B86EC90E0AA
:102C1000978B868B118E128E138E148EAEEBB9E0CD
:102C200099E4A92E92E0B92E1196BC92AE9212961A
:102C30001C92129713961C92139714961C92149739
:102C400015961C92A4ECB9E01196BC92AE92129625
:102C50001C92129713961C92139714961C92149719
:102C600015961C92AAECB9E01196BC92AE921296FF
:102C70001C92129713961C92139714961C921497F9
:102C800015961C92CBE0D2E11B821A822FE032E132
:102C900088E1D9011D928A95E9F78FE292E0998344
:102CA0008883ADEEBBE0BD8FAC8FCCEED1E11B8253
:102CB0001A82CC82DD82EE82FF82198618861A86FD
:102CC0001C8A1B8A1E8A1D8A188E1F8A1A8E198ECC
:102CD0001C8E1B8E21E4622E22E0722E7982688285
:102CE000BE8FAD8F13961C921E9212971496CD92A2
:102CF000DD92ED92FC9217973FE4832E32E0932E03
:102D000011969C928E921D96FC93EE931C9781E0F7
:102D100090E01F969C938E931E9782E090E05196D0
:102D20009C938E9350978FEF9FEF53969C938E9327
:102D3000529755961C921E92549757961C921E922B
:102D4000569758961C92CCEBD1E180E28883198289
:102D500060E00E94570481E28E831F8260E00E943F
:102D6000570482E28C871D8660E00E94570483E24C
:102D70008A8B1B8A60E00E94570484E2888F198E38
:102D800060E00E94570485E28E8F1F8E60E00E94F3
:102D9000570486E28CA31DA260E00E94570487E2DC
:102DA0008AA71BA660E00E94570468E28CEA91E1C2
:102DB0000E94DB0869E28EEA91E10E94DB086AE288
:102DC00080EB91E10E94DB086BE282EB91E10E94D3
:102DD000DB086CE284EB91E10E94DB086DE286EB9C
:102DE00091E10E94DB086EE288EB91E10E94DB0832
:102DF0006FE28AEB91E10E94DB08C4EAD1E184E052
:102E0000888361E00E94570485E08A8361E00E9424
:102E1000570486E08C8361E00E94570487E08E832C
:102E200061E00E945704C4E0DFE086E38883552414
:102E30005394598260E00E94570487E388AF59AEEB
:102E400060E00E94570488E38093740F5092750FDE
:102E500060E00E94570489E38093AC0F5092AD0F5D
:102E600060E00E9457048AE38093E40F5092E50FDC
:102E700060E00E9457048BE380931C1050921D1059
:102E800060E00E9457048CE38093541050925510D8
:102E900060E00E9457048DE380938C1050928D1057
:102EA00060E00E9457048EE38093C4105092C510D6
:102EB00060E00E9457048FE38093FC105092FD1055
:102EC00060E00E94570480E48093341150923511E1
:102ED00060E00E94570481E480936C1150926D1160
:102EE00060E00E945704CFEFDEE08BE1888362E070
:102EF0000E9457048CE1898362E00E9457048DE1AF
:102F00008A8362E00E9457048EE18B8362E00E9414
:102F100057048FE18C8362E00E9457046BE672E0F5
:102F200089EF9EE00E94140B6BE672E083EF9EE057
:102F30000E94140B6BE672E08DEE9EE00E94140B73
:102F40006BE672E087EE9EE00E94140B6BE672E087
:102F500081EE9EE00E94140B6BE672E08BED9EE02A
:102F60000E94140B6BE672E085ED9EE00E94140B4C
:102F70006BE672E08FEC9EE00E94140B6BE672E051
:102F800089EC9EE00E94140B6BE672E083EC9EE0FD
:102F90000E94140B1092C20E1092C10E6BE672E0EA
:102FA0008BEB9EE00E94140B6BE672E085EB9EE0DB
:102FB0000E94140B6BE672E08FEA9EE00E94140BF5
:102FC0001092AE0EE5EAFEE088EB9BE0A0E0B0E0F8
:102FD00080839183A283B383148215821682178221
:102FE0001086ECE9FEE080839183A283B383148290
:102FF0001582168217821086E3E9FEE080839183B2
:10300000A283B38314821582168217821086E8E8A1
:10301000FEE01482158216821782108688EC9FEAE1
:10302000A0E0B0E080839183A283B38312861186EF
:103030006BE672E082E89EE00E94140B6BE672E0A1
:103040008CE79EE00E94140B6BE672E086E79EE040
:103050000E94140BE0E7FEE0B182A082128213828C
:1030600014821582A1E5BEE013961C921E9212975F
:103070001496CD92DD92ED92FC92179711969C9248
:103080008E921D961C930E931C971F961C921E9257
:103090001E9751961C921E92509786E190E053968F
:1030A0009C938E93529755961C921E9254975796C6
:1030B0001C921E92569758961C925897E5E1FCE098
:1030C00013821282C482D582E682F782118610862C
:1030D0001286148A138A168A158A108E178A128EFF
:1030E000118E148E138E71826082B68FA58FECE0E4
:1030F000FCE080E09CE5A6E2B5E080839183A283BA
:10310000B38314821582168217821086DF91CF91C5
:103110001F910F91FF90EF90DF90CF90BF90AF90F5
:103120009F908F907F906F905F900895CF93DF93E3
:10313000CDB7DEB768970FB6F894DEBF0FBECDBF30
:10314000789484B5826084BD84B5816084BD85B582
:10315000826085BD85B5816085BD80916E0081608E
:1031600080936E0010928100809181008260809334
:103170008100809181008160809381008091800036
:103180008160809380008091B10084608093B10061
:103190008091B00081608093B00080919100826046
:1031A0008093910080919100816080939100809143
:1031B00090008160809390008091A1008260809354
:1031C000A1008091A10081608093A1008091A00066
:1031D00081608093A0008091210182608093210111
:1031E0008091210181608093210180912001816083
:1031F0008093200180917A00846080937A0080918E
:103200007A00826080937A0080917A008160809356
:103210007A0080917A00806880937A001092C100D1
:1032200026E040E855E260E070E080ED99E00E9421
:10323000D1051092000268E070E08BED9EE00E94E4
:10324000EC0A68E070E085ED9EE00E94EC0A68E020
:1032500070E08FEC9EE00E94EC0A68E070E08FEA7C
:103260009EE00E94EC0A60E170E087EE9EE00E9422
:10327000EC0A60E170E081EE9EE00E94EC0A60E200
:1032800070E083EF9EE00E94EC0A60E270E086E767
:103290009EE00E94EC0A60E470E089EC9EE00E94EF
:1032A000EC0A60E470E083EC9EE00E94EC0A60E4CB
:1032B00070E08BEB9EE00E94EC0A60E470E089EF26
:1032C0009EE00E94EC0A60E870E082E89EE00E94C6
:1032D000EC0A60E870E085EB9EE00E94EC0A60E09A
:1032E00071E08DEE9EE00E94EC0A882309F464C030
:1032F00082E492E00E94DD0961E088E10E945704C7
:1033000061E088E10E94290410923C0581E08093ED
:10331000900E8BEE99E09093920E8093910E26E0A2
:1033200040E855E260E070E084E895E00E94D10555
:1033300084EA91E104E01FE0F8011182085C1F4F6C
:1033400080179107C9F761E086E10E9457040E9447
:10335000490826E040E855E260E070E084E39CE044
:103360000E94D10588E199E20FB6F894A895809360
:1033700060000FBE909360005FEB852E5EE3952E9C
:10338000A12CB12CFF24F39480ED99E00E94A205BA
:10339000181619060CF048C080ED99E00E948105CE
:1033A0008D3011F40C9428258A3071F3682F86E74C
:1033B0009EE00E946F0CE8CF8CE292E09BCF1092CF
:1033C0003C0560E672E086E79EE00E948A0CDCCF56
:1033D0006EE872E0CE0101960E94B20CBE016F5FF2
:1033E0007F4F86E79EE00E940209E82ECE010196FB
:1033F0000E947D0AEE2099F082E892E00E94DD09A9
:1034000061E672E0CE0101960E94B20CCE010196F7
:103410000E94080ACE0101960E947D0AD2CF86E75B
:103420009EE00E94080ACDCF3CEB232E31E1332EE3
:103430004CEE642E41E1742E7101F701208130E0E1
:10344000F901ED52F94F8491F901E357F94FC49016
:10345000F901E95BF94FD490DD2009F43DC28111F7
:103460000E94C203ED2DF0E0EE0FFF1FEF5EFC4F58
:10347000A591B491EC91CE2281E009F480E0D82EA0
:10348000F7018181D81609F429C20E940E05F701BF
:103490002281338144815581621B730B840B950B10
:1034A000633371058105910508F0D182F6E0EF0ED6
:1034B000F11C6E147F0409F0C0CF94E0E92E9FE068
:1034C000F92EF7018181F0E4CF2ED12C412C512C23
:1034D0003201813009F00AC2C12CDD24D394412C81
:1034E000512C3201F70180810E949304092E000CB7
:1034F000AA0BBB0B480E591E6A1E7B1EF1E0CF1AA9
:10350000D10881F7B4E07694679457944794BA95BC
:10351000D1F7F70153824282349681E090E0228114
:10352000338121933193019688319105C1F7F701D9
:1035300053AA42AA60E070E0CB0150E040E0FA01FB
:10354000EE0FFF1FEE0DFF1D24813581620F731FEB
:10355000811D911D4F5F5F4F4831510581F728E173
:1035600030E040E050E00E945126F70135AB24AB3B
:10357000F70154A945A98181813009F0D2C1252FD5
:10358000342F203CFEE33F0710F02FEB3EE3AFEF7C
:10359000BFE00E947326A50194010E942726F7012F
:1035A00037AB26ABF8E3EF0EF11CE016F10609F09D
:1035B00088CF40E090E080E021E030E0F1015181EF
:1035C000511120E0082E01C0220F0A94EAF7422B85
:1035D0000196F6E02F0E311C8830910569F7409373
:1035E0003605ECEAF1E140E030E020E08181022E96
:1035F00001C0880F0A94EAF7482B2F5F3F4F32969D
:103600002830310599F7409335056FE073E089EF75
:103610009EE00E948A0C74E0C72E7FE0D72EF12C2A
:10362000E12CF60166A977A989EF9EE00E94170CAC
:10363000FBE0EF16F10431F06DE073E089EF9EE0FE
:103640000E94BC0B2FEFE21AF20A38E3C30ED11C22
:103650004CE0E416F10429F76BE073E089EF9EE09B
:103660000E94BC0B69E073E083EF9EE00E948A0C2D
:1036700064EAC62E61E1D62EF12CE12CF6016181BF
:1036800083EF9EE00E94440CF3E0EF16F10431F06A
:1036900067E073E083EF9EE00E94BC0B2FEFE21A1D
:1036A000F20A32E0C30ED11C44E0E416F10431F713
:1036B00065E073E083EF9EE00E94BC0B8091C20E38
:1036C00081115CC0F0903505E09036056DEF72E039
:1036D00085EB9EE00E948A0C6BED7EE085EB9EE020
:1036E0000E94830C6BEF72E085EB9EE00E94BC0BA6
:1036F00064EF72E085EB9EE00E94BC0B6E2D85EBC3
:103700009EE00E94440C62EF72E085EB9EE00E9416
:10371000BC0B6AEE72E085EB9EE00E94BC0B6F2D45
:1037200085EB9EE00E94440C68EE72E085EB9EE023
:103730000E94BC0B61EE72E085EB9EE00E94BC0B28
:1037400069EF7EE085EB9EE00E94830C6FED72E0F6
:1037500085EB9EE00E94BC0B67ED72E085EB9EE07E
:103760000E94BC0B63EF7EE085EB9EE00E94830C21
:1037700065ED72E085EB9EE00E94BC0B8AE195E06E
:103780000E94E9086EEB72E0811108C08CE295E0BE
:103790000E94E908882331F065EA72E08BEB9EE035
:1037A0000E948A0C61EE7EE08BEB9EE00E94830C0F
:1037B00060EA72E08BEB9EE00E94BC0B6091B90E58
:1037C0007091BA0E8BEB9EE00E94170C8091B30EA5
:1037D0009091B40E892B09F465C070E060E08FEA27
:1037E0009EE00E941A05C82E61E070E08FEA9EE01C
:1037F0000E941A05E82E63E070E08FEA9EE00E94C6
:103800001A05F82E64E070E08FEA9EE00E941A0527
:10381000D82E54E4C512BAC08AE3E812A3C08F2D93
:103820000E945308F82E8D2D0E94530890E1F99EB6
:1038300090011124F82EF22A8AEB91E1F0FC7DC070
:103840000E94BC0888EB91E1F1FC7AC00E94BC08A0
:1038500086EB91E1F2FC77C00E94BC0884EB91E119
:10386000F3FC74C00E94BC0882EB91E1F4FC71C0CF
:103870000E94BC0880EB91E1F5FC6EC00E94BC0880
:103880008EEA91E1F6FC6BC00E94BC088CEA91E1E3
:10389000F7FC79C00E94BC086FE972E08FEA9EE0F5
:1038A0000E948A0C0E94490884E39CE00E94A205C1
:1038B0007C01892B09F46DC184E39CE00E948105A1
:1038C0008D3011F40C9465258A3071F3682F82E8ED
:1038D0009EE00E946F0CE8CFD12CD2CD0E940E0545
:1038E000F7016283738384839583E0CDF701808140
:1038F0000E949304092E000CAA0BBB0B480E591E04
:103900006A1E7B1EF1E0CF1AD10881F7E6E07694BB
:10391000679457944794EA95D1F7F70155AA44AABA
:1039200027CE852F942F8115F4E09F0710F08FEF9D
:1039300093E0F70197AB86AB35CE0E94CB0882CFE0
:103940000E94CB0885CF0E94CB0888CF0E94CB086D
:103950008BCF0E94CB088ECF0E94CB0891CF0E94C4
:10396000CB0894CF8FEC8E0D883008F095CFEE2DDC
:10397000E153FF0BCF01880F991F84559E4EF0E352
:10398000FF1609F487CF0E94CB0886CF21E4C2122C
:1039900083CF8FEC8E0D853008F07ECF8F2D0E9467
:1039A0005308F82E8D2D0E94530840E1F49E90019B
:1039B0001124F82EF22A8E2D8153990BFC01EE0F63
:1039C000FF1FEC55FE4EF182E08061E08E2D0E94DB
:1039D0005704F11005C060E08E2D0E9429045CCFD1
:1039E0009FEFF91202C061E0F7CFEE2DF0E0ED524B
:1039F000F94FE491E150E23108F0C8C0F0E08827C7
:103A0000EB5FF24E8F4F0C948226171D1C1D211D5B
:103A10002D1D391DC61D451D4D1D551D611D6D1DDD
:103A2000791D8A1D961DC61DA21DAE1DBA1D84B529
:103A3000806884BDF7BC30CF84B5806284BDF8BC9B
:103A40002BCF809180008068809380008F2D90E044
:103A500090938900809388001FCF809180008062BE
:103A6000809380008F2D90E090938B0080938A004C
:103A700013CF809180008860809380008F2D90E02C
:103A800090938D0080938C0007CF8091B000806868
:103A90008093B000F092B300FFCE8091B0008062BE
:103AA0008093B000F092B400F7CE809190008068CF
:103AB000809390008F2D90E09093990080939800D0
:103AC000EBCE809190008062809390008F2D90E0EB
:103AD00090939B0080939A00DFCE80919000886045
:103AE000809390008F2D90E090939D0080939C0098
:103AF000D3CE8091A00080688093A0008091A00028
:103B00008F7B8093A0008F2D90E09093A9008093ED
:103B1000A800C2CE8091A00080628093A0008F2D6B
:103B200090E09093AB008093AA00B6CE8091A00065
:103B300088608093A0008F2D90E09093AD008093DB
:103B4000AC00AACE809120018068809320018F2D47
:103B500090E090932901809328019ECE80912001CE
:103B60008062809320018F2D90E090932B018093B1
:103B70002A0192CE809120018860809320018F2DB0
:103B800090E090932D0180932C0186CEF7FC2BCFF3
:103B900022CF0E940E052B013C0180917705909168
:103BA0007805A0917905B0917A05A3019201281BAF
:103BB000390B4A0B5B0BDA01C901813D9740A10526
:103BC000B10508F4A0C08091DB0E9091DC0ED12CE1
:103BD000009719F00E94A625D62E63E473E0CE016B
:103BE00001960E94B20CBE016F5F7F4F87EE9EE090
:103BF0000E940209C12C81110AC08CE295E00E944A
:103C0000E908CC24C394811102C032E0C32ECE0156
:103C100001960E947D0A8BE580933F0580913C05CB
:103C200090913B05890F90913905890F809340054C
:103C3000D0924105C092420580913605809343059C
:103C40008091350580934405EFE3F5E0A4E0BFE003
:103C5000D6968C91D697D7969C91D7979683878343
:103C6000D896329645E0E735F40791F710925D0556
:103C70008091A51180935E0510925F058091A71138
:103C800080936005109261058091A911809362056F
:103C9000109263058091AB118093640525E6C22ED6
:103CA00025E0D22EB70181EE9EE00E941A05F601B2
:103CB00081936F01FFEFEF1AFF0A20E1E216F10492
:103CC00089F7E0E4F5E096E380E0915019F0219166
:103CD000820FFBCF809375058DE58093760548E3D1
:103CE00050E06FE375E084E895E00E942C0584E8DD
:103CF00095E00E94B1064092770550927805609257
:103D0000790570927A058091900E882331F10E9496
:103D10000E05C0908C0ED0908D0EE0908E0EF0901F
:103D20008F0E6C197D098E099F09C090880ED09066
:103D3000890EE0908A0EF0908B0EC616D706E80624
:103D4000F90658F4E091910EF091920E3097D1F06F
:103D500019958CE89EE00E94670881EA97E00E942E
:103D6000A20518161906CCF481EA97E00E94810595
:103D70008D3099F08A3089F3682F8DEE9EE00E9495
:103D80006F0CEBCF88E198E00FB6F894A89580937C
:103D900060000FBE90936000FFCF6BE076E0CE0135
:103DA00001960E94B20CBE016F5F7F4F8DEE9EE0C8
:103DB0000E94170A7C0190933E0580933D05CE0139
:103DC00001960E947D0AF7FC5EC08CE295E00E949D
:103DD000E9088823B9F09701295E3F4FA701485FA2
:103DE0005F4F6DEE7EE0CE0101960E94700BBE012A
:103DF0006F5F7F4F81EE9EE00E94320ACE010196F6
:103E00000E947D0A8AE195E00E94E9088823B9F0C2
:103E100097012A5E3F4FA701495F5F4F6DEE7EE03D
:103E2000CE0101960E94700BBE016F5F7F4F81EE45
:103E30009EE00E94320ACE0101960E947D0A69EF3F
:103E400075E089EC9EE00E948A0C61EE7EE089ECD0
:103E50009EE00E94830C68EE75E089EC9EE00E9473
:103E6000BC0B65ED75E083EC9EE00E948A0C61EE70
:103E70007EE083EC9EE00E94830C6EEC75E083ECA8
:103E80009EE00E94BC0B67EC75E0CE0101960E949B
:103E9000B20CBE016F5F7F4F8DEE9EE00E94170A4D
:103EA0007C0190933E0580933D05CE0101960E94D2
:103EB0007D0AF7FC40C09701285F3F4FA7014A5F8A
:103EC0005F4F6DEE7EE0CE0101960E94700BBE0149
:103ED0006F5F7F4F8BED9EE00E94320ACE0101960C
:103EE0000E947D0A8091DF0E9091E00E029718F1FA
:103EF000E091DB0EF091DC0E309709F0D6C4109201
:103F00003A05EAE3F5E080818C32A9F421E030E063
:103F100050E040E06BED7EE0CE0101960E94700B18
:103F2000BE016F5F7F4F8BED9EE00E94320ACE0193
:103F300001960E947D0A6DEB75E0CE0101960E940C
:103F4000B20CBE016F5F7F4F8DEE9EE00E94170A9C
:103F50007C01CE0101960E947D0AF7FC06C06BEB46
:103F600075E085ED9EE00E948A0C6FEA75E0CE0157
:103F700001960E94B20CBE016F5F7F4F8DEE9EE0F6
:103F80000E94170A7C01CE0101960E947D0AF7FC6F
:103F900006C06BEA75E08FEC9EE00E948A0C60EA36
:103FA00075E0CE0101960E94B20CBE016F5F7F4F9B
:103FB0008DEE9EE00E94170A7C0190933E0580934F
:103FC0003D05CE0101960E947D0AF7FC1DC09701B8
:103FD000225D3F4FA701475D5F4F6DEE7EE0CE0152
:103FE00001960E94700BBE016F5F7F4F8FEA9EE0CB
:103FF0000E94320ACE0101960E947D0A6FEA7EE09D
:1040000080ED99E00E94F1096BE875E0CE01019620
:104010000E94B20CBE016F5F7F4F8DEE9EE00E944A
:10402000170A7C01CE0101960E947D0AF7FE1092CC
:104030003C0560E875E0CE0101960E94B20CBE011D
:104040006F5F7F4F8DEE9EE00E94170A7C01CE01CC
:1040500001960E947D0AF7FE10923C056FE675E01E
:10406000CE0101960E94B20CBE016F5F7F4F8DEEB4
:104070009EE00E94170A7C01CE0101960E947D0AF3
:10408000F7FE10923C0580913C05811151C084E5FA
:1040900095E00E94DD0981E080933C0510923B058C
:1040A0001092390563E575E08DEE9EE00E948A0C62
:1040B00062E575E087EE9EE00E948A0C61E575E09E
:1040C00081EE9EE00E948A0C60E575E08BED9EE03B
:1040D0000E948A0C6FE475E085ED9EE00E948A0CD8
:1040E0006EE475E08FEC9EE00E948A0C6DE475E052
:1040F00089EC9EE00E948A0C6CE475E083EC9EE003
:104100000E948A0C1092C20E1092C10E6BE475E0F0
:104110008BEB9EE00E948A0C6AE475E085EB9EE0E2
:104120000E948A0C69E475E08FEA9EE00E948A0C86
:1041300080913C05813049F5E0913705F0913805D3
:10414000EE0FFF1FEE0FFF1FE95FFD4F4081518112
:104150006281738126E081EA97E00E94D10560E0E8
:1041600088E10E94290440ED57E060E070E085EAB4
:104170009EE00E947308882309F444C061E088E14E
:104180000E94290482E080933C0580913C058230A6
:10419000C9F565E475E0CE0101960E94B20CBE013E
:1041A0006F5F7F4F8DEE9EE00E94170A7C01CE016B
:1041B00001960E947D0AF7FC7AC38BE295E00E948B
:1041C000DD0966E275E0CE0101960E94B20CCE01D7
:1041D00001960E94080ACE0101960E947D0A6BE1B9
:1041E00075E0CE0101960E94B20CCE0101960E94AC
:1041F000080ACE0101960E947D0A83E080933C0567
:104200001092AE0E80913C05833019F486E08093C5
:104210003C0580913C058630E1F448EE53E060E0D7
:1042200070E085EA9EE00E947308882309F459C073
:1042300066EE74E0CE0101960E94B20CCE010196AA
:104240000E94080ACE0101960E947D0A89E08093AF
:104250003C0580913C05893009F043C06CE275E073
:10426000CE0101960E94140BBE016F5F7F4F8DEE51
:104270009EE00E94170A7C01CE0101960E947D0AF1
:104280006CE275E0F7FE16C06AE175E0CE010196BA
:104290000E94140BBE016F5F7F4F8DEE9EE00E9467
:1042A000170A7C01CE0101960E947D0AF7FC22C00C
:1042B0006AE175E087EE9EE00E94450B4091EB0EAF
:1042C0005091EC0E6091E70E7091E80E80ED99E050
:1042D0000E942C058BE080933C058CE89EE00E94B8
:1042E000670880913C058B3029F48CE080933C0575
:1042F00010923B0580913C058C3009F0AAC2809158
:104300003B05811107C08EEC94E00E94DD0983E03B
:1043100080933B0580913B05833009F0A5C048EEB2
:1043200053E060E070E08CE99EE00E94730888230F
:1043300009F4BFC064EC74E0CE0101960E94B20C97
:10434000CE0101960E94080ACE0101960E947D0AC4
:1043500069EB74E0CE0101960E94B20CCE01019689
:104360000E94080ACE0101960E947D0A69E974E064
:10437000CE0101960E94B20CCE0101960E94080A5D
:10438000CE0101960E947D0A8AE195E00E94E9082B
:10439000882309F446C06FE874E0CE0101960E94BC
:1043A000B20CCE0101960E94080ACE0101960E942D
:1043B0007D0A64E874E0CE0101960E94B20CCE0141
:1043C00001960E94080ACE0101960E947D0A69E7C3
:1043D00074E0CE0101960E94B20CCE0101960E94BB
:1043E000080ACE0101960E947D0A6EE674E0CE01B5
:1043F00001960E94B20CCE0101960E94080ACE01DD
:1044000001960E947D0A60E674E0CE0101960E944A
:10441000B20CCE0101960E94080ACE0101960E94BC
:104420007D0A62E574E0CE0101960E94B20CCE01D5
:1044300001960E94080ACE0101960E947D0A65E459
:1044400074E0CE0101960E94B20CCE0101960E944A
:10445000080ACE0101960E947D0A84E080933B0504
:104460008CE89EE00E94670880913B05843009F546
:1044700048EE53E060E070E08CE99EE00E94730833
:10448000882371F06BE374E0CE0101960E94B20CB8
:10449000CE0101960E94080ACE0101960E947D0A73
:1044A0008091E50E9091E60E0F9719F485E08093C8
:1044B0003B0580913B05853059F548EE53E060E0BF
:1044C00070E08CE99EE00E947308882371F064E339
:1044D00074E0CE0101960E94B20CCE0101960E94BA
:1044E000080ACE0101960E947D0A8091DB0E909110
:1044F000DC0E009769F00E94A625633649F0633010
:1045000038F086E080933B058CE89EE00E946708C7
:1045100080913B05863019F487E080933B058091BC
:104520003B05873099F548EE53E060E070E08CE998
:104530009EE00E947308882371F06AE274E0CE0165
:1045400001960E94B20CCE0101960E94080ACE018B
:1045500001960E947D0A60EB73E0CE0101960E94F5
:10456000B20CBE016F5F7F4F85ED9EE00E94020995
:10457000F82ECE0101960E947D0AFF2039F088E0D6
:1045800080933B058CE89EE00E94670880913B0584
:10459000883019F489E080933B0580913B05893090
:1045A00099F548EE53E060E070E08CE99EE00E94EF
:1045B0007308882371F060E274E0CE0101960E94D6
:1045C000B20CCE0101960E94080ACE0101960E940B
:1045D0007D0A6CEA73E0CE0101960E94B20CBE0126
:1045E0006F5F7F4F8FEC9EE00E940209F82ECE0194
:1045F00001960E947D0AFF2039F08AE080933B05F6
:104600008CE89EE00E94670880913B058A3009F0A3
:10461000BAC18CE295E00E94E908882309F490C1B0
:1046200048EE53E060E070E08CE99EE00E94730881
:104630006FEF73E0811198C180913B058C3089F454
:1046400048EE53E060E070E08CE99EE00E94730861
:10465000882331F189EC9EE00E94080A8DE0809366
:104660003B0580913B058D30D9F463EC73E0CE01BE
:1046700001960E94B20CBE016F5F7F4F8DEE9EE0EF
:104680000E94170A7C01CE0101960E947D0AF7FC68
:1046900007C08EE080933B058CE89EE00E9467088F
:1046A00080913B058E3089F448EE53E060E070E085
:1046B0008CE99EE00E947308882331F183EC9EE030
:1046C0000E94080A8FE080933B0580913B058F3064
:1046D000D9F462EB73E0CE0101960E94B20CBE01E8
:1046E0006F5F7F4F8DEE9EE00E94170A7C01CE0126
:1046F00001960E947D0AF7FC07C081E180933B058B
:104700008CE89EE00E94670880913B05813129F486
:104710001092390582E180933B0580913B058231FF
:1047200009F097C080913905811111C08091C10EA7
:10473000882309F449C11092C10EFF24F394F0922A
:10474000C20E8BEB9EE00E94080AF092390565E8E4
:1047500073E0CE0101960E94B20CBE016F5F7F4FE5
:104760008DEE9EE00E94170A7C01CE0101960E9408
:104770007D0AF7FC0DC080913905813049F485EB45
:104780009EE00E94080A1092C20E82E080933905D2
:1047900064E773E0CE0143960E94B20CBE016D5EE9
:1047A0007F4F8DEE9EE00E94170AFF24F39497FF3F
:1047B00040C063E673E0CE010D960E94B20CBE01CC
:1047C000635F7F4F8DEE9EE00E94170AFF24F394F3
:1047D00097FF2BC064E573E0CE0107960E94B20CF0
:1047E000BE01695F7F4F8DEE9EE00E94170AFF2495
:1047F000F39497FF16C065E473E0CE0101960E9422
:10480000B20CBE016F5F7F4F8DEE9EE00E94170AD3
:104810009095F92EFF1CFF24FF1CCE0101960E94EB
:104820007D0ACE0107960E947D0ACE010D960E9458
:104830007D0ACE0143960E947D0AFF2051F08091AF
:104840003905823031F48CE89EE00E9467081092AE
:10485000390564E473E08DEE9EE00E948A0C0E94AC
:104860000E05C090100CD090110CE090120CF0903E
:10487000130C6C197D098E099F09C0900C0CD09007
:104880000D0CE0900E0CF0900F0CC616D706E80643
:10489000F90608F0A8956AE070E080E090E00E94D8
:1048A000DB040E94D1060C94C21931962CCB48EE41
:1048B00053E060E070E085EA9EE00E947308882380
:1048C00001F181E095E00E949606E0913705F091B4
:1048D0003805EE0FFF1FEE0FFF1FE95FFD4F408110
:1048E0005181628173812AE080ED99E00E94340950
:1048F0008FEF94E00E94DD098091AE0E8F5F809370
:10490000AE0E8091AE0E853008F47CCC1092AE0EC7
:104910008AEE94E00E94DD09809137059091380578
:1049200001968230910538F49093380580933705CD
:1049300010923C0567CC1092380510923705F8CFDD
:104940008AE195E00E94E908882309F475CE48EED3
:1049500053E060E070E08CE99EE00E9473088823D9
:1049600009F46ACE61EE73E0CE0101960E94B20CAA
:10497000CE0101960E94080ACE0101960E947D0A8E
:104980008BE080933B0580913B058B3009F054CE42
:1049900063ED73E0CE0101960E94B20CBE016F5F21
:1049A0007F4F8DEE9EE00E94170A7C01CE0101969A
:1049B0000E947D0AF7FC40CE8CE080933B058CE89A
:1049C0009EE00E94670838CE40E355E760E070E063
:1049D0008CE99EE00E947308882351F0FF24F39431
:1049E000F092C20E8BEB9EE00E94080AF09239050D
:1049F0008091C20E8111ABCE48EB5BE060E070E0CD
:104A000083E99EE00E947308882309F4A0CE87E919
:104A100093E00E94DD096EE873E0CE0101960E94EA
:104A2000B20CCE0101960E94080ACE0101960E94A6
:104A30007D0A67E873E0CE0101960E94B20CCE01B8
:104A400001960E94080ACE0101960E947D0A7FCE3F
:104A500069E972E0CE0101960E94B20CBE016F5F5F
:104A60007F4F86E79EE00E940209E82ECE01019664
:104A70000E947D0AE1100C94DF1963E972E0CE0117
:104A800001960E94B20CBE016F5F7F4F86E79EE0E9
:104A90000E940209E82ECE0101960E947D0AEE20B6
:104AA00011F40C94E8198091C10E81110C94E11954
:104AB0008091C20E81110C94E11981E592E00E946F
:104AC000DD09F092C10E0C94E1196FE373E0CE01A1
:104AD00001960E94B20CBE016F5F7F4F82E89EE09C
:104AE0000E94170A7C01CE0101960E947D0AF7FC04
:104AF00025C06BE273E0CE0101960E94B20C61E02A
:104B000086E10E94290461E070E080E090E00E946C
:104B1000DB04BE016F5F7F4F84E39CE00E94F109DC
:104B200084E39CE00E94B10661E070E080E090E0E8
:104B30000E94DB04CE0101960E947D0A62E473E0CC
:104B400082E89EE00E948A0C0C94541C1F93FC0186
:104B500099278827BC01E89411911032E9F31930A4
:104B600010F01E30C8F31B3251F01D3249F4689426
:104B700006C00E94E825610F711D811D911D1191D4
:104B800010531A30B0F33EF490958095709561956E
:104B90007F4F8F4F9F4F1F910895FB01DC010590C0
:104BA0000D920020E1F70895FC0105900020E9F73F
:104BB000809590958E0F9F1F0895BB274A3031F442
:104BC000992322F4BDE2909581959F4F0C94FE2588
:104BD000592F482F372F262F660F771F881F991FB1
:104BE000660F771F881F991F620F731F841F951F01
:104BF000660F771F881F991F0895BB27FB01552754
:104C0000AA27880F991FAA1FA41710F0A41B839529
:104C10005051B9F7A05DAA3308F0A95DA1930097A0
:104C200079F7B111B1931192CB010C941726DC01E5
:104C3000FC01672F71917723E1F7329704C07C91D3
:104C40006D9370836291AE17BF07C8F30895052E68
:104C500097FB1EF400940E943E2657FD07D00E9449
:104C6000512607FC03D04EF40C943E2650954095F7
:104C7000309521953F4F4F4F5F4F08959095809508
:104C8000709561957F4F8F4F9F4F08950E947326B7
:104C9000A59F900DB49F900DA49F800D911D112490
:104CA0000895A1E21A2EAA1BBB1BFD010DC0AA1F6D
:104CB000BB1FEE1FFF1FA217B307E407F50720F085
:104CC000A21BB30BE40BF50B661F771F881F991F00
:104CD0001A9469F760957095809590959B01AC0149
:104CE000BD01CF010895A29FB001B39FC001A39F52
:104CF000700D811D1124911DB29F700D811D112415
:104D0000911D0895EE0FFF1F881F8BBF0790F6912E
:104D1000E02D19940F931F93CF93DF938230910569
:104D200010F482E090E0E0913312F091341230E020
:104D300020E0B0E0A0E0309799F42115310509F4A6
:104D40004AC0281B390B24303105D8F58A819B8154
:104D50006115710589F1FB0193838283FE0111C006
:104D6000408151810281138148175907E0F04817AB
:104D7000590799F4109761F012960C9312971396B5
:104D80001C933296CF01DF91CF911F910F9108951F
:104D90000093331210933412F4CF2115310551F0E2
:104DA0004217530738F0A901DB019A01BD01DF0169
:104DB000F801C1CFEF01F9CF9093341280933312F1
:104DC000CDCFFE01E20FF31F819391932250310961
:104DD00039832883D7CF2091311230913212232B7F
:104DE00041F4209103023091040230933212209357
:104DF000311220910102309102022115310541F456
:104E00002DB73EB74091050250910602241B350B89
:104E1000E0913112F0913212E217F307A0F42E1B49
:104E20003F0B2817390778F0AC014E5F5F4F24170E
:104E3000350748F04E0F5F1F5093321240933112E6
:104E4000819391939FCFF0E0E0E09CCFCF93DF93ED
:104E50000097E9F0FC01329713821282A09133127D
:104E6000B0913412ED0130E020E01097A1F42081E0
:104E70003181820F931F2091311230913212281705
:104E8000390709F061C0F0933212E0933112DF91DB
:104E9000CF910895EA01CE17DF07E8F54A815B81DB
:104EA0009E0141155105B1F7E901FB83EA83499160
:104EB0005991C40FD51FEC17FD0761F480819181D2
:104EC0000296840F951FE9019983888382819381DB
:104ED0009B838A83F0E0E0E012968D919C9113977A
:104EE0000097B9F52D913C911197CD010296820F53
:104EF000931F20913112309132122817390739F659
:104F0000309751F51092341210923312B09332123E
:104F1000A0933112BCCFD383C28340815181840FCF
:104F2000951FC817D90761F44E5F5F4F888199813B
:104F3000480F591F518340838A819B8193838283C9
:104F40002115310509F0B0CFF0933412E0933312FC
:104F50009ECFFD01DC01C0CF13821282D7CF4F92CA
:104F60005F926F927F928F929F92AF92BF92CF92F9
:104F7000DF92EF92FF920F931F93CF93DF938C01F9
:104F8000009799F4CB01DF91CF911F910F91FF9082
:104F9000EF90DF90CF90BF90AF909F908F907F90D9
:104FA0006F905F904F900C948A26FC01E60FF71FDC
:104FB0009C0122503109E217F30708F4AEC0D90171
:104FC000CD91DC911197C617D70720F1C530D105D7
:104FD00078F0CE0104978617970750F0C61BD70BC1
:104FE0002297C193D1936D937C93CF010E94262782
:104FF000C801DF91CF911F910F91FF90EF90DF904B
:10500000CF90BF90AF909F908F907F906F905F9068
:105010004F9008955B01AC1ABD0A4C018C0E9D1E89
:10502000A0913312B0913412512C412CF12CE12C6F
:10503000109731F5809131129091321288159905AF
:1050400009F05CC04616570608F058C0809101026E
:1050500090910202009741F48DB79EB740910502EE
:1050600050910602841B950BE817F90708F055C00C
:10507000F0933212E0933112F90171836083B8CF5B
:105080008D919C91119712966C90129713967C902B
:105090001397A815B90559F56C0142E0C40ED11C4F
:1050A000CA14DB0420F1AC014A195B09DA0112963B
:1050B000159780F06282738251834083D9016D938A
:1050C0007C93E114F10471F0D7011396FC93EE93F5
:1050D00012978ECF22968C0F9D1FF90191838083AA
:1050E000F301EFCFF0933412E093331281CF4816DF
:1050F000590608F42C017D01D3019ACFCB010E94FF
:105100008A267C01009749F0AE01B8010E949528DB
:10511000C8010E94262787016BCF10E000E068CF0E
:1051200081E090E0F8940C946E2BFB01DC0102C04E
:1051300001900D9241505040D8F70895FB01DC01D9
:105140008D91019080190110D9F3990B0895FB01FD
:10515000DC0101900D920020E1F70895FB015191CF
:105160005523A9F0BF01DC014D9145174111E1F72D
:1051700059F4CD010190002049F04D9140154111A5
:10518000C9F3FB014111EFCF81E090E00197089551
:105190002F923F924F925F926F927F928F929F9247
:1051A000AF92BF92CF92DF92EF92FF920F931F9335
:1051B000CF93DF9300D000D000D01F921F92CDB7C5
:1051C000DEB77C013B018A01FC01178216828381D4
:1051D00081FFDDC1CE0101965C01F7019381F301EE
:1051E00093FD859193FF81913F01882309F453C179
:1051F000853239F493FD859193FF81913F0185328A
:1052000029F4B70190E00E94E02AE7CF912C212CED
:10521000312CFFE1F31538F08B3211F190F480322C
:1052200009F1833229F137FC3CC020ED280F2A30E8
:1052300050F536FE20C08AE0989E200D1124922E53
:1052400006C08D3291F0803371F7689430F8F30125
:1052500093FD859193FF81913F018111DACF21C0A8
:10526000689431F8689432F8F2CF689433F8EFCF4D
:10527000689434F8ECCFEAE02E9E200D1124222E03
:10528000689435F8E4CF8E3229F436FC04C1689472
:1052900036F8DDCF8C3619F4689437F8D8CF8836D5
:1052A000B1F2982F9F7D95549330E0F08336A1F1B1
:1052B0008337C1F1833509F063C02801F2E04F0E56
:1052C000511CF801C080D180692D70E036FC02C00D
:1052D0006FEF7FEFC6010E94CA2A4C01689437F82D
:1052E00082010AC00C5F1F4FFFE3F9838824839477
:1052F000912C6501E89437F833FE2DC0522C8114AF
:10530000910471F5552009F468CFB70180E290E06F
:105310000E94E02A5A94F6CFF801808189830E5FBB
:105320001F4FE4CF2801F2E04F0E511CF801C0805E
:10533000D180692D70E036FC02C06FEF7FEFC601AF
:105340000E94D52A4C018201D5CFB70180E290E0BE
:105350000E94E02A2A942814190409F0B0F7CECF4D
:10536000F60137FC859137FE81916F01B70190E01E
:105370000E94E02A51105A94F1E08F1A9108BFCF91
:10538000843619F0893609F077C0F80137FE6BC012
:1053900060817181828193810C5F1F4FF32DFF76B5
:1053A0003F2E97FF09C090958095709561957F4F2E
:1053B0008F4F9F4F689437F82AE030E0A5010E9494
:1053C000102BC82ECA188C2C432C36FE0CC0E89427
:1053D00040F8C91440F434FE05C032FC03C0F32D7C
:1053E000FE7E4F2E892C44FEAAC0FE01EC0DF11D5D
:1053F0008081803309F09CC0242D297E422E842D8B
:105400008870582E43FCAAC040FEA4C09C2C821475
:1054100018F42C0C922C981844FEA6C0B70180E317
:1054200090E00E94E02A42FE09C088E790E041FE39
:1054300002C088E590E0B7010E94E02AC91408F490
:105440009FC0CA94D12C9FEFC91AD90ACA0CDB1C81
:10545000F60182916F01B70190E00E94E02AAC143E
:10546000BD04B1F74FCF60817181072E000C880B0E
:10547000990B0E5F1F4F92CFD32CE894D4F82AE0FB
:1054800030E08537E1F1232D297FD22E8F36A9F127
:10549000F0F4883551F1F701868197812B960FB68C
:1054A000F894DEBF0FBECDBFDF91CF911F910F915A
:1054B000FF90EF90DF90CF90BF90AF909F908F9034
:1054C0007F906F905F904F903F902F90089580371E
:1054D00049F0883701F7D4FE02C06894D2F820E181
:1054E00030E00DC06894D4F8F6CF34FE03C0822FAC
:1054F0008660D82E20E132E002C028E030E0F801DA
:10550000D7FE0FC060817181828193810C5F1F4F34
:10551000A5010E94102BC82ECA183D2CE89437F81C
:1055200052CF6081718190E080E00E5F1F4FF0CF1D
:1055300042FC02C0839463CF8394839460CF842D14
:10554000867809F45CCFF6CFB70180E290E00E9444
:10555000E02A83948214C0F3512C5ECF522C581849
:10556000821408F459CFF8CF842D867809F466CFD9
:105570008BE241FE80E247FC8DE2B70190E05CCF18
:10558000B70180E390E00E94E02A9A9457CF8FEF12
:105590009FEF84CFFC010590615070400110D8F757
:1055A000809590958E0F9F1F0895FC01615070406B
:1055B00001900110D8F7809590958E0F9F1F089548
:1055C0000F931F93CF93DF93182F092FEB018B813C
:1055D00081FD09C01FEF0FEF812F902FDF91CF9139
:1055E0001F910F91089582FF14C02E813F818C81FD
:1055F0009D81281739073CF4E881F981CF01019694
:105600009983888310838E819F8101969F838E83E7
:10561000E3CFE885F985812F1995892BA1F3DACF9E
:10562000FA01AA27283051F1203181F1E8946F93D3
:105630006E7F6E5F7F4F8F4F9F4FAF4FB1E03ED079
:10564000B4E03CD0670F781F891F9A1FA11D680F17
:10565000791F8A1F911DA11D6A0F711D811D911D4A
:10566000A11D20D009F468943F912AE0269F1124BF
:105670003019305D3193DEF6CF010895462F477023
:10568000405D4193B3E00FD0C9F7F6CF462F4F707E
:10569000405D4A3318F0495D31FD4052419302D0DC
:1056A000A9F7EACFB4E0A695979587957795679582
:1056B000BA95C9F700976105710508959B01AC0182
:1056C0000A2E06945795479537952795BA95C9F7A9
:1056D000620F731F841F951FA01D089513E0CEE86D
:1056E000D3E000E006C0802FFE010E9482262196B2
:1056F000011DCF38D10780E00807A9F7F894FFCF44
:10570000010000351280008025000000C201000069
:1057100000000052062C057105B106A20581059412
:105720000500000000320900000000000000000831
:105730000D850AAF0A00000000B90AD10A00000076
:1057400000DB0AE20A000000008D090000000032C0
:10575000072C0546084607670751075C072F080610
:10576000081B08BA07720730070D0A0072656164EA
:105770005F6269747300726561645F696E707574ED
:105780005F6269747300726561645F696E707574DD
:105790005F72656769737465727300726561645FD7
:1057A00072656769737465727300496C6C656761D3
:1057B0006C206E62206F662076616C7565732025A3
:1057C0006420696E20257320286D61782025642966
:1057D0000A00496C6C6567616C20646174612061CA
:1057E00064647265737320307825305820696E20A8
:1057F00025730A00496C6C6567616C206461746193
:105800002061646472657373203078253058206994
:105810006E2077726974655F6269740A00496C6C06
:105820006567616C20646174612076616C756520C8
:10583000307825305820696E2077726974655F6210
:105840006974207265717565737420617420616478
:105850006472657373202530580A00496C6C656763
:10586000616C20646174612061646472657373208B
:10587000307825305820696E2077726974655F72C0
:10588000656769737465720A00496C6C6567616C61
:10589000206E756D626572206F662076616C75652D
:1058A0007320256420696E2077726974655F626970
:1058B000747320286D6178202564290A00496C6C76
:1058C0006567616C206461746120616464726573F2
:1058D0007320307825305820696E2077726974659E
:1058E0005F626974730A00496C6C6567616C206E55
:1058F000756D626572206F662076616C75657320C8
:10590000256420696E2077726974655F72656769C6
:10591000737465727320286D6178202564290A00EC
:10592000496C6C6567616C206461746120616464BA
:105930007265737320307825305820696E20777235
:105940006974655F7265676973746572730A004C88
:105950004D42332E312E3400496C6C6567616C20EA
:105960006E62206F662076616C75657320285725FE
:10597000642C205225642920696E20777269746531
:105980005F616E645F726561645F7265676973749D
:1059900065727320286D6178205725642C2052256C
:1059A00064290A00496C6C6567616C2064617461EC
:1059B000207265616420616464726573732030785D
:1059C000253058206F722077726974652061646495
:1059D000726573732030782530582077726974654A
:1059E0005F616E645F726561645F7265676973743D
:1059F0006572730A00556E6B6E6F776E204D6F6423
:105A00006275732066756E6374696F6E20636F6470
:105A1000653A2030782530580A0051756563746501
:105A20006C5F4243323630592D434E004543383087
:045A3000304B0000F7
:00000001FF
