:100000000C9465040C948D040C948D040C948D0454
:100010000C948D040C948D040C948D040C948D041C
:100020000C948D040C948D040C948D040C948D040C
:100030000C948D040C948D040C948D040C948D04FC
:100040000C9459130C948D040C94C9130C94A313A1
:100050000C948D040C948D040C948D040C948D04DC
:100060000C9407140C948D0400000000230026005B
:1000700029007774660020202020004872627400F6
:1000800056004100436F6E6E3A004373713A004E62
:1000900042496F5400416F00560041005600410034
:1000A00056004100560041005600410056004100F4
:1000B00056004100560041005600410056004100E4
:1000C0005600410041690030003100446F003000AB
:1000D000310044690056322E3000524754204E42BF
:1000E0002D496F5420436F6E74726F6C6C65720093
:1000F00000000000240027002A0000000000250066
:1001000028002B0004040404040404040202020274
:1001100002020303030303030102040810204080CA
:100120000102040810200102040810200000000849
:1001300000020100000304070000000000000000AE
:10014000E00002020304030404050A00FE06FE07A1
:10015000FF01120228076B200500620321073163AB
:1001600033520022079376935400230A2D66570DCD
:10017000550D5501240C455E9B87CA3BA96A470073
:10018000250B3562375432954A3201260A346217FC
:1001900053CC49C51427051173232808C35E9BCA95
:1001A00076012908435E93CB56092A092C66172B42
:1001B000152B002B071B669756022C071A5A97140B
:1001C000002D058A6A232E050963132F0A445A5FFE
:1001D000E69863CE00300A3462A7A21A4926053198
:1001E00007B36297646B32093462A7628EE5083305
:1001F0000A3462A7628D645200340934621B55359B
:10020000621C350A346233F446322900360A3462FD
:10021000A7F28A322900370934623372AC4B0038B6
:100220000A3462A76252512605390A3462A7A24CE9
:100230003B29003A06216313033B08325A97615267
:10024000003C07AB629BEA023D081C6633321A0190
:100250003E07AB6293AB123F093462A7629B8A00F0
:1002600040093462A7A2BAD10041093462A7A21C96
:100270005306420A3462B3E248518E0443093462A1
:10028000A7A22E930244093462B3A2732400450945
:10029000346233F4CA79044609346233F4CA35004F
:1002A000470A3462A7A24E3329004809346213E595
:1002B0009866004907B362B3626B4A083462DF96FE
:1002C00049014B0A34621355923295014C0834624D
:1002D00093BB47004D09346213C711CD004E09345A
:1002E0006213979A66004F093462A7A2332900501F
:1002F0000A3462B3A21C29670051093C5EA7A2CB55
:100300004601520A3462B3A21C29CA00530A34625D
:10031000A762D24826055408B362B3621700550895
:100320003462133D93025608346213BD62045709C8
:10033000346213CD71C400580A34621365922ACA1C
:10034000005909346213AD984B005A093462337274
:100350006C8F005B07425FB37A095C0CC45A93331D
:10036000CA19E58C72005D07C25EA37A0D5E069322
:1003700072D7005F060D5A3304600692761303614C
:1003800008246237A25205620A346293F38A722407
:100390000063082462A7A24603640934625F8D28C3
:1003A000D30065082462A78646036609B3629BD220
:1003B0008A1500670A345A37A24C3B290068093471
:1003C0006293F38A66006908B3629791AC066A0883
:1003D000C25A17554B016B09346293AB2453196C05
:1003E00007B36223BB066D0925623352A5922A6EBC
:1003F000082462939229036F082462A7A24C0A7012
:100400000A345AB3A21C2967007109345A37A24C26
:10041000BB007208246293929D01730824623736F0
:100420001A097408B36217D38A3975072462132D29
:10043000557608246213AD18017709256293924A14
:10044000AA0B78082462139354317909345A13CDD6
:10045000B493027A082462336239027B09CB5A9B37
:100460006295631D7C06415F73087D0ACB5A9363D6
:100470009D6215017E07146A9754027F050062038E
:100480008005006203810500620382071A5E9714EB
:1004900000830ACB5A9B625AB1150184071C5ED7B0
:1004A000520985060D62930A8608AB669756AC0022
:1004B0008708AB6697565A0988069376D700890A4B
:1004C00035623756DA6BA8058A0C446257C691919B
:1004D000463229008B061A6227038C093462375290
:1004E000B59A038D050062038E050062038F050037
:1004F0006203900500620391071A6FA7120092072A
:100500009A6E97140093071C6E97540B94071C6EF9
:10051000D7520995082466A7C6500A96058A6A2309
:1005200097060D6A33049807147697540299081DAC
:100530006E335452499A0A3C6257663C361A099BFC
:10054000071A621315009C08246237D28A299D0578
:100550000062039E050062039F0A446257A368C5B8
:100560005C02A005006203A1073163934600A20A62
:10057000345E1B551A794500A30A3462A7B2CC71C8
:100580002400A408246213935431A509B36293AAEA
:10059000955602A606415F3307A70D445EA7628AFF
:1005A00029A698625200A8058A7623A90A3462A374
:1005B00051522B2609AA07AB6AB7921EAB071D62E0
:1005C000176503AC071466337200AD050B6A33AED2
:1005D000092C66A35152CB00AF058A7623B0069B47
:1005E0006ED705B107236297561AB2069A7213079F
:1005F000B3069A72A306B4050A7723B5082C5E9356
:100600007AD900B609346237D252D300B705096BE4
:1006100013B806925A3302B9069A72A30ABA07AB04
:100620006AD78D06BB081D62134B9900BC0B3D6257
:10063000A3514C7569A300BD0B3D62A3514C755588
:100640006701BE0B3D62A3515CB9B45100BF0934D0
:10065000629BA9D85200C00B4462975154518E2915
:1006600003C10A44625BAB28C79401C20A44625BBF
:1006700065A8E29832C30B44629754C62A8E2903B8
:10068000C40A4462574315E59832C50A44625BC503
:10069000A8E29832C609346237521AAA4BC70A44F4
:1006A0005AA7A22E938E11C80B446297511A7AE56D
:1006B0003C02C90A44625B0EBD721E01CA0A446252
:1006C0005B8DBD721E01CB0A446257A3A157CE2396
:1006D000CC09C36293D38AAD01CD09C3629BD28A90
:1006E000AD01CE08C362D75EB11ACF09C36293F2DF
:1006F0008AAD01D009346227D3EAA500D10A446249
:100700009754B9D43403D20B4462975154D19914FD
:1007100000D30944625BABE84C0AD40B44625B65CE
:10072000A8A2991400D50B44629754C62A9A49018D
:10073000D60A44625743159D4901D7061B66933A72
:10074000D80A3462A7A21A492605D90A44629751E9
:10075000E9991400DA084462DBF44C0ADB0A4462CB
:100760005B65149D4901DC0A446257A3E8991400B3
:10077000DD0A44625BE368C51C01DE0A34629357FC
:100780001C296700DF0A3C5EA7A2EA543500E00A94
:100790003C629751C6232A55E1093C625B53232AE8
:1007A00055E20A3C625B6538A25205E30A3C629757
:1007B00054C6232A55E409346257C311952AE50A21
:1007C0003C625BC538A25205E608246237D28A0330
:1007D000E709345AA7A246B304E80A3C629751C617
:1007E0006A6834E9093C625B536A6834EA0A3C622D
:1007F0005B65A8864603EB093462574335341AEC2F
:1008000009BB62933392D500ED08BB625743590D83
:10081000EE08BB62D796D500EF08B36293B2AC0680
:10082000F00B3C6223358A23CAA400F10A3C62978C
:100830005486299932F20B3C629751C62ACAA40009
:10084000F30A3C625B532ACAA400F40A3C625B656B
:10085000A8A24C0AF50B3C629754C62ACAA400F61B
:100860000A3462574315655200F7082B6297D14648
:1008700009F8092462A7D2484901F90A3C62975154
:1008800086D15205FA093C625BE368A902FB093C88
:10089000625B65142D55FC09346257A368A902FDFB
:1008A0000B4C5A1F338C66DA4901FE0B445A93F302
:1008B0008A72A49C01FF0B445A57A368A69D14009A
:1008C00000000004FFFF0000261511241FBECFEF1B
:1008D000D8E0DEBFCDBF11E0A0E0B1E0EAEEF8E382
:1008E00002C005900D92A239B107D9F728E0A2E91C
:1008F000B1E001C01D92A231B207E1F714E0C5E6F4
:10090000D4E004C02197FE010E94571CC436D107D1
:10091000C9F70E943C160C94731C0C9400006623CB
:1009200029F06A3019F0862F90E008958FEF9FEF3D
:100930000895AF92BF92CF92DF92EF92FF920F9302
:10094000CF93DF93EC01DA017901942F9770E1E006
:10095000F0E09F01092E01C0220F0A94EAF7522FFE
:100960006E018AE8C80ED11CF601808140E0823019
:1009700018F4422F813049F15D01F8EFAF22E8AD64
:10098000F9AD28813981D90150968C918A9D9001C9
:100990008B9D300D1124620F731FDF01A60FB71F4F
:1009A00001111AC0EA0EFB1E8C91842B85278D93B2
:1009B000AE15BF05C9F7DF91CF910F91FF90EF9072
:1009C000DF90CF90BF90AF90089550E0D5CF440F07
:1009D000550FE114F10479F33C91342B35273C9306
:1009E0009F5F9770E1E0EE1AF1089111F0CF2CAD06
:1009F0003DADA20FB31FF6018081823028F4813013
:100A000009F051E041E0E5CF51E0E3CF80E0089507
:100A100090E080E00895EBE7F2E0A089B18982E000
:100A20008C93A485B5851C92A685B7858FEC8C9395
:100A3000108EA489B58986E08C93A289B3898C91A4
:100A400080618C93A289B3898C9188608C93A289F0
:100A5000B3898C9180688C930288F389E02D808122
:100A60008F7D808308959B01DC011896ED91FC91A8
:100A700041E067E10994833081F028F4813099F0F6
:100A80008230A9F008958730A9F08830C9F0843009
:100A9000B1F4809180008F7D03C0809180008F77BA
:100AA00080938000089584B58F7784BD089584B5C0
:100AB0008F7DFBCF8091B0008F778093B000089539
:100AC0008091B0008F7DF9CF1F93CF93DF93282FB4
:100AD00030E0F901E45DFE4F8491F901E85EFE4FDC
:100AE000D491F901EC5FFE4FC491CC23A9F0162FED
:100AF00081110E943B05EC2FF0E0EE0FFF1FE65046
:100B0000FF4FA591B4918FB7F894EC91111108C0E3
:100B1000D095DE23DC938FBFDF91CF911F91089595
:100B2000DE2BF8CFCF93DF9390E0FC01E85EFE4F21
:100B300024918C5F9E4FFC0184918823D1F090E03A
:100B4000880F991FFC01E051FF4FA591B491FC0162
:100B5000E650FF4FC591D491623071F49FB7F8947D
:100B60003C91822F809583238C93E8812E2B2883C0
:100B70009FBFDF91CF9108958FB7F894EC912E2B02
:100B80002C938FBFF6CF3FB7F89480917702909166
:100B90007802A0917902B0917A0226B5A89B05C08F
:100BA0002F3F19F00196A11DB11D3FBFBA2FA92FEC
:100BB000982F8827BC01CD01620F711D811D911DE9
:100BC00042E0660F771F881F991F4A95D1F7089555
:100BD0008F929F92AF92BF92CF92DF92EF92FF924D
:100BE0006B017C010E94C3054B015C01C114D1045F
:100BF000E104F104B9F00E94C305681979098A0972
:100C00009B09683E73408105910580F321E0C21A7B
:100C1000D108E108F10888EE880E83E0981EA11C37
:100C2000B11CE4CFFF90EF90DF90CF90BF90AF90DA
:100C30009F908F900895FC01218D328D838D948D2E
:100C4000A901481B590BCA0191700895EF92FF92B8
:100C50000F931F93CF93DF938C017B01D0E0C0E013
:100C6000F701EC0FFD1F6491662361F0D801ED914F
:100C7000FC910190F081E02DC8010995892B11F0BC
:100C80002196EECFCE01DF91CF911F910F91FF9072
:100C9000EF900895AF92BF92CF92DF92EF92FF92C2
:100CA0000F931F93CF93DF936C017B018B01040F94
:100CB000151FEB015E01AE18BF08C017D10759F030
:100CC0006991D601ED91FC910190F081E02DC60172
:100CD0000995892B79F7C501DF91CF911F910F916C
:100CE000FF90EF90DF90CF90BF90AF90089520914C
:100CF0009402309195028091960290919702281B60
:100D0000390B317081E0232B09F480E0089580E0F5
:100D100090E0892B29F00E94770681110C94000045
:100D200008954FB7F894FC01258D368D878D90A1DD
:100D30004FBF2817390728F081509E4F821B930B15
:100D400008950197FBCFFC01218D328D838D948D09
:100D50002817390779F0A38DB48DAE0FBF1F919678
:100D60008C91238D348D2F5F3F4F3170348F238FC3
:100D700090E008958FEF9FEF0895FC01218D328D53
:100D8000838D948D2817390739F0838D948DE80F62
:100D9000F91F81A190E008958FEF9FEF0895FC0166
:100DA000A78DB0A1A80FB91FAF5DBD4F2C91878D46
:100DB00090A10196917090A3878FA689B7892C93F3
:100DC000A089B1898C91837080648C93258D368D38
:100DD000878D90A12817390731F40288F389E02D17
:100DE00080818F7D80830895FF920F931F93CF930F
:100DF000DF93EC0181E0888F2D8D3E8D8F8D98A142
:100E000028173907C9F4E889F989808185FF14C05A
:100E10009FB7F894EE89FF896083E889F98980811A
:100E20008370806480839FBF81E090E0DF91CF91E9
:100E30001F910F91FF900895F62E0D8D1E8D0F5F5F
:100E40001F4F11708F8D98A18017910761F40FB615
:100E500007FCF8CFE889F989808185FFF3CFCE01BF
:100E60000E94CF06EFCFED8DFE8DEC0FFD1FEF5DE5
:100E7000FD4FF0829FB7F8941E8F0D8FEA89FB8992
:100E800080818062CFCFCF93DF93EC01888D882360
:100E9000B9F0AA89BB89E889F9898C9185FD03C0DD
:100EA000808186FD0DC00FB607FCF7CF8C9185FFC2
:100EB000F2CF808185FFEDCFCE010E94CF06E9CF32
:100EC000DF91CF91089520912402260F3327331FFD
:100ED00021323105ECF420914A02FC0190E080E0DF
:100EE000243069F082E00895A09124022191AC01A0
:100EF0004E5F5D4FA40FB52FB11D2C930196861741
:100F000098F380912402680F6093240280E0089592
:100F100081E0089510924A0281E080934C02109281
:100F20004B0261E082E10E94640561E083E10E947E
:100F30006405E9EBF0E080818E7F808380818D7F86
:100F4000808388E48093B80085E48093BC00089592
:100F5000CF93DF9391E0909301028823B9F0C09181
:100F6000B800D091BA008091BC008A7B8093BC000D
:100F700060E082E10E94640560E083E10E94640514
:100F80000E948A07D093BA00C093B800DF91CF9136
:100F90000895089508950895E091F9018091F80168
:100FA000E81730F4F0E0E852FE4F808190E00895B9
:100FB0008FEF9FEF08959091F9018091F8012FEF45
:100FC0003FEF981748F4E92FF0E0E852FE4F2081F8
:100FD00030E09F5F9093F901C90108958091F80175
:100FE0009091F901891B990B0895CF92DF92EF92AE
:100FF000FF920F931F93CF93DF937C01CB018A0164
:101000002091D701222389F0EB016B01C40ED51E7C
:10101000CC15DD0569F06991D701ED91FC91019046
:10102000F081E02DC7010995F3CF642F0E9463077B
:10103000C801DF91CF911F910F91FF90EF90DF904A
:10104000CF900895CF93DF931F92CDB7DEB769831A
:101050002091D7012223F9F02091FA01203258F093
:1010600021E030E0FC013383228390E080E00F90A8
:10107000DF91CF9108958091FB01E82FF0E0E954D2
:10108000FE4F998190838F5F8093FB018093FA01DB
:1010900081E090E0ECCF61E0CE0101960E94630711
:1010A000F7CFDC011A96ED91FC9130E020E0099435
:1010B000DC011696ED91FC9130E020E040E069E122
:1010C0000994DC011696ED91FC9130E020E040E0BF
:1010D00068E109949A01DC011696ED91FC91462F86
:1010E00067E10994EF92FF920F931F93CF93DF93E1
:1010F0001F92CDB7DEB77C018B01D8016C916731AF
:1011000029F150F46531A0F40F90DF91CF911F9138
:101110000F91FF90EF9008956A3118F16E3FA1F79B
:10112000F8014181498369E2C7010E9451080BC05F
:10113000F80141814983D7011696ED91FC9130E089
:1011400020E0C70109950E5F1F4FD7CFF8018181BD
:101150008983AE014F5F5F4F61E0C7010E946A085B
:10116000F2CF0F5F1F4FD7011696ED91FC9130E043
:1011700020E040E0C7010995C0CF462FDC0116965C
:10118000ED91FC9130E020E066E10994462FDC010E
:101190001696ED91FC9130E020E065E10994EF9224
:1011A000FF920F931F93CF93DF93EC01042F7901EC
:1011B0006E3009F450C06F3091F06B3009F441C0CB
:1011C0006A3009F466C06D3009F450C080E06930BF
:1011D00089F581E191E0998388831C8A2AC00E9465
:1011E0006108F7011381110F110F110F6C89160F90
:1011F000612F62956F706061CE010E94C608612FF9
:101200006F70CE010E94C608F7016481606BCE0149
:101210000E94C608F701408151816281660F660F06
:10122000660FCE010E946A080150A1F7CE010E940C
:10123000580881E0DF91CF911F910F91FF90EF90BF
:10124000089565E071E0442311F060E071E0CE01A3
:101250000E947208EECF0E94610861E8CE010E94F0
:10126000C608602FCE010E94BD08E0CF411109C021
:101270006AE071E00E947208E881F98182898C8BB2
:10128000D8CF62E571E00E947208E881F981838914
:10129000F6CFEA85FB8530E020E040E068E2099582
:1012A000EE81FF8130E020E040E064E1CE0109956D
:1012B00041E06BE4CE010E945108E881F98144814C
:1012C00069E2CE010E94510840E06BE4CE010E9429
:1012D0005108E881F981448169E2CE010E945108F8
:1012E00041E06BE4CE010E945108E881F98145811B
:1012F00069E2CE010E94510869E271E0A8CFDC01E9
:101300001896ED91FC9130E020E040E069E109940D
:10131000DC011896ED91FC9130E020E040E068E1BE
:101320000994CF93DF931F92CDB7DEB76983BE01D7
:101330006F5F7F4F0E9433050F90DF91CF9108952B
:10134000EF92FF921F93CF93DF93EC01162F7A0158
:101350000E94880960E4CE010E949109E885F98520
:101360009701412F67E1CE010995CE01DF91CF9121
:101370001F91FF90EF900C947F09EF92FF921F93C3
:10138000CF93DF93EC01142F7901673130F465318D
:1013900078F4643159F180E005C06731F9F06A31C1
:1013A000D0F781E0DF91CF911F91FF90EF900895EA
:1013B0000E94880960E0CE010E949109612FCE0150
:1013C0000E949109CE010E947F09EBCF68E1CE0116
:1013D0000E94A009185188E1E80EF11CA7011931FB
:1013E000A8F7612FCE010E94A009DBCF8E898F3F25
:1013F00011F488E78E8BE885F9859701412F64E128
:10140000CE01DF91CF911F91FF90EF900994FC01E5
:101410006623D9F16A30C9F1808D811125C06C3FF6
:1014200048F085E0808F617070E0738B628B2EEFE7
:101430003FEF29C0683F20F084E0808F6370F4CFD5
:10144000603F20F083E0808F6770EECF603E20F039
:1014500082E0808F6F70E8CF262F30E0603C98F0FC
:1014600081E0808F6F71E0CF8150808F2289338936
:1014700096E0220F331F9A95E1F76F73262B338B7B
:10148000228B8111D4CFC90108952FEF3FEFFBCFFD
:101490000F93FC01E05CFF4F0190F081E02D4E1BAB
:1014A0005F0BDC01D496ED91FC9109950F910895A5
:1014B000CF93DF93FC01A081B18182AD90E09C01CC
:1014C00043E0220F331F4A95E1F737AF26AF50961E
:1014D0002C91509748E0249F9001112435AF24AF00
:1014E00023AD30E0B90153E0660F771F5A95E1F75D
:1014F000EF01C05CDF4F7983688351964C9151971F
:10150000E901C80FD91F50E04C175D0718F4CA0154
:10151000821B930BEF01CE5BDF4F798368832296AA
:1015200023E0880F991F2A95E1F7860F971F99836B
:101530008883229654968D919C91559799838883A0
:10154000E85BFF4F56968D919C9191838083DF914C
:10155000CF9108950F931F93FC01E25BFF4F019021
:10156000F081E02DDC01A05BBF4F0D90BC91A02D60
:101570004A175B0740F4E017F10748F00417150716
:1015800030F080E019C0E017F107C0F3FACFFC019A
:10159000E65BFF4F40815181845B9F4FFC0180815E
:1015A00091816817790758F481E04217530720F0BA
:1015B00081E02617370728F71F910F9108954217EA
:1015C0005307B0F3DECF2F923F924F925F926F920C
:1015D0007F928F929F92AF92BF92CF92DF92EF92C3
:1015E000FF920F931F93CF93DF93CDB7DEB72A9768
:1015F0000FB6F894DEBF0FBECDBF9A878987865B92
:101600009F4F9A838983FC0111821082E985FA85B4
:10161000EA5BFF4F4080518029853A85245B3F4F2C
:101620003C832B83F90151824082E985FA85EE5B88
:10163000FF4F2080318029853A85225B3F4F3E83D2
:101640002D83F90131822082E985FA85EC5BFF4F19
:101650006080718029853A85205B3F4F38872F83D2
:10166000F90171826082E985FA85E85AFF4FE080CE
:10167000F180E985FA85EC5AFF4FA080B180E985B9
:10168000FA85EA5AFF4FC080D180E985FA85EE5A83
:10169000FF4F8080918087019501A601B401898563
:1016A0009A850E94AA0A29853A852C573F4F3A8786
:1016B000298781111BC0F90110822A960FB6F89470
:1016C000DEBF0FBECDBFDF91CF911F910F91FF9075
:1016D000EF90DF90CF90BF90AF909F908F907F90D2
:1016E0006F905F904F903F902F90089581E0E98533
:1016F000FA8580838114910421F0E981FA81918235
:101700008082A414B50420F4EB81FC81B182A08214
:101710002C143D0420F4ED81FE81D182C082E614B8
:10172000F70458F6EF81F885F182E082C6CF0F9377
:10173000CF93DF93E02FDC01AC57BF4FFC91FF2329
:1017400009F460C02115310509F45CC0223031056F
:1017500038F0023009F04AC06F5F7F4F621B730B95
:101760000E2F0170E0FD52C0FC01E25BFF4F0190C3
:10177000F081E02D4E175F0708F444C0FC01E05BE8
:10178000FF4F0190F081E02D4E175F07D8F5FC0167
:10179000E45BFF4F0190F081E02DDC01A65BBF4FC1
:1017A0000D90BC91A02D260F371F2617370738F54F
:1017B0006E177F0718F59F0121503109A217B30753
:1017C00008F56A177B0708F4BD012E173F0708F4D8
:1017D000F901E61BF70BEC01AEA9BFA914960D9019
:1017E000BC91A02D9F01FD0109950CC0033009F0AB
:1017F000B7CF4F5F5F4F421B530BB2CFBD016E1788
:101800007F07E0F2DF91CF910F910895FC01E65B35
:10181000FF4F0190F081E02D6E177F0798F3FC01D8
:10182000E45BFF4F0190F081E02D6E177F0750F7CA
:10183000FC01E05BFF4F0190F081E02DDC01A25B39
:10184000BF4F0D90BC91A02D240F351F24173507D5
:10185000A8F44E175F0788F49F0121503109A217A1
:10186000B30780F64A175B0708F4AD012E173F0750
:1018700008F4F901E41BF50BAECFAD014E175F077D
:1018800008F6EDCF0F932091CE073091CF07621766
:101890007307F0F02091D0073091D10762177307DA
:1018A000B8F42091CA073091CB078217930780F0D4
:1018B0002091CC073091CD078217930748F4AB01F4
:1018C000BC0100E021E030E080E897E00E94970B47
:1018D0000F9108955F926F927F928F929F92AF9235
:1018E000BF92CF92DF92EF92FF920F931F93CF930D
:1018F000DF938C01EB016817790770F57C01E61A1C
:10190000F70A81E8E816F104D0F56701CE01512C01
:1019100050E8E52EF12C60E8662E712CD0E0C0E096
:1019200047019694879408171907A0F1AA24AA944E
:10193000BA2C6C167D0690F5DF91CF911F910F9117
:10194000FF90EF90DF90CF90BF90AF909F908F90DF
:101950007F906F905F9008957B01E81AF90A81E803
:10196000E816F10490F23B01E80130E8C32ED12CD7
:101970005524539480E890E010E000E0D1CF380186
:1019800040E8C42ED12C5524539490E080E000E828
:1019900010E0C6CFAA24A394B12CCBCFB801CE01BE
:1019A000552011F0BE01C8010E94420C8C189D0800
:1019B00097FE04C00A0D1B1D8E0C9F1C2196B9CFEB
:1019C000213069F038F0223079F0840F911D47FD05
:1019D0009A950895860F911D67FD9A950895841B29
:1019E000910947FD93950895861B910967FD93958D
:1019F0000895213069F038F0223079F0861B910982
:101A000067FD93950895840F911D47FD9A9508955C
:101A1000860F911D67FD9A950895841B910947FDD6
:101A2000939508953F924F925F926F927F928F921B
:101A30009F92AF92BF92CF92DF92EF92FF920F935D
:101A40001F93CF93DF937C01162F442EEC01C25AD3
:101A5000DF4F5E806F806C018AE8C80ED11C7884ED
:101A60007518312E711608F4372C8C809D800E85E8
:101A7000202F462D652D8A819B810E94E00C5C0100
:101A8000202F462D652DC4010E94F90CAC01442085
:101A900079F08C85F6018083232D30E0B501C701F4
:101AA0000E94970B171548F017196394512CD7CF44
:101AB0008B858111F7CF8D85EDCF150D1E836F823C
:101AC000DF91CF911F910F91FF90EF90DF90CF901A
:101AD000BF90AF909F908F907F906F905F904F904E
:101AE0003F900895DC011A964C911A97ED91FC9164
:101AF0001197249130E0042E02C0359527950A9461
:101B0000E2F7842F860F883068F031961196FC93A7
:101B1000EE93E49198E0941B01C0EE0F9A95EAF7DA
:101B20002E2B88501A968C938FEF9FEF01C0880F51
:101B30006A95EAF7809582230895FC01E60FF11D6E
:101B4000849190E0982F88273196E4918E0F911D13
:101B50000895CF93DF93EC016BAFEEA9FFA901903D
:101B6000F081E02D0995EEA9FFA90280F381E02D17
:101B7000CE01DF91CF910994AF92BF92CF92DF92C5
:101B8000EF92FF920F931F93CF93DF9300D000D07B
:101B90001F92CDB7DEB78C01DC01DA96AC90DA97F4
:101BA000DB96EC90DB97ED91FC91B188FE2CD12C6B
:101BB000C12CD801ED91FC9111978089D8962D9177
:101BC0003C911C82FD828B83B8E08B9FC001112465
:101BD0008C9DA0018D9D500D9C9D500D1124240FB6
:101BE000351F3A832983D8011496ED91FC919E010B
:101BF0002F5F3F4F41E06FE0C8010995F3948F2DAF
:101C00008E198A1528F4BFEFCB1ADB0AFB1488F271
:101C10000F900F900F900F900F90DF91CF911F9129
:101C20000F91FF90EF90DF90CF90BF90AF9008950D
:101C3000CF92DF92EF92FF920F931F93CF93DF9398
:101C4000EC01962F683109F44BC0B901993130F499
:101C50009431C9F0973189F080E006C0993109F4D8
:101C600061C09032C9F781E0DF91CF911F910F9150
:101C7000FF90EF90DF90CF90089550E08CE996E0D0
:101C80000E94F507F0CF8C859D85AE85BF85892B99
:101C90008A2B8B2B71F4E881F981A585B0E020EACD
:101CA00036E841E050E00E944C1C6C877D878E87AF
:101CB0009F871092F9011092F8011092FB01109287
:101CC000FA010E948A0789EC97E09093230280939F
:101CD00022028AEC97E09093270280932602C3CFDA
:101CE0002C853D854E855F8560E074E284EF90E051
:101CF0000E942A1C205131094109510956954795E6
:101D0000379527952093B8008E8990E09595879513
:101D100091E09093D7018093B6011092FB0110924D
:101D2000FA01A1CFD091FA01D13208F093C0C0914D
:101D3000B6010E94C3056B017C0180914A028111AA
:101D400064C082E080934A0281E080934C028FEF6E
:101D50008093490210926E02D0936D02A7EBB1E01E
:101D6000EDE4F2E080E0D8137CC010926F02809125
:101D70006F02CC0FC82BC0936F0280914B02813051
:101D800009F073C010924B020E94C3056B017C01E5
:101D900080916F028093BB008091FD019091FE01C4
:101DA000A091FF01B0910002892B8A2B8B2B99F017
:101DB0000E94C3050091FD011091FE012091FF01D9
:101DC000309100026C197D098E099F0906171707CB
:101DD00028073907D8F18091BC0083FDD9CF85EC65
:101DE0008093BC000E94C3056B017C0180914A0274
:101DF0008230E9F1809149028F3F61F1809149027F
:101E0000803241F18091490225C08091FD0190917D
:101E1000FE01A091FF01B0910002892B8A2B8B2B30
:101E200009F48BCF0E94C3050091FD011091FE01C2
:101E30002091FF01309100026C197D098E099F09E4
:101E4000061717072807390708F077CF8091FC019C
:101E50000E94A8071092FB011092FA011092D7017C
:101E600002CF9D9191938F5F7ECF85EEB9CF809108
:101E7000FD019091FE01A091FF01B0910002892B1C
:101E80008A2B8B2B09F4B2CF0E94C3050091FD0170
:101E90001091FE012091FF01309100026C197D0923
:101EA0008E099F09061717072807390708F09ECFE4
:101EB000CDCF0F931F93CF93DF93EC01862F642F29
:101EC0008C3208F03AC08A3208F060C0883209F4D7
:101ED0004BC0893209F460C0803408F475C0982F73
:101EE0009F73FE01E90FF11D868D8F3F09F44EC0EF
:101EF000903108F436C0282F30E0F901E45DFE4F40
:101F00008491F901E85EFE4F0491F901EC5FFE4F08
:101F10001491112379F081110E943B05E12FF0E02B
:101F2000EE0FFF1FE859FF4FA591B491EC910E23DE
:101F300081E009F480E0898F29C08D3299F108F49D
:101F4000CBCF94EB980F923008F0C6CF8F73C80FA9
:101F5000D11D8E8D411134C061E00E94920560E078
:101F60008E8D0E94640512C08E01025E1F4FD0E06C
:101F7000F80181918F018F3F31F061E0D03108F09D
:101F800062E00E949205DF5FD63191F781E0DF9138
:101F9000CF911F910F91089570E090E080E00E9432
:101FA000E805F4CF85E090E0433010F082E090E067
:101FB000880F991F880F991F05970197F1F7E6CFB2
:101FC00062E00E949205E2CF80E0E1CFCF92DF9203
:101FD000EF92FF920F931F93CF93DF936C01EB016E
:101FE0007B01E40EF51E10E000E0CE15DF0561F088
:101FF0006991D601ED91FC910190F081E02DC6012F
:102000000995080F191FF1CFC801DF91CF911F91DA
:102010000F91FF90EF90DF90CF9008952F923F9215
:102020004F925F926F927F928F929F92AF92BF92E8
:10203000CF92DF92EF92FF920F931F93CF93DF9394
:10204000CDB7DEB728970FB6F894DEBF0FBECDBF71
:102050007C016C0124E0C20ED11CFC01E057FF4F53
:102060000190F081E02DC60109958C018E3F9F4FB4
:1020700008F061C0370184E9680E711CF30101901A
:10208000F081E02DFD83EC835701F2E9AF0EB11C26
:10209000F50180809180970120593F4F3B832A832F
:1020A000F9018081813009F470C008F45FC082308A
:1020B00009F476C0833009F482C0F701EC59FF4F70
:1020C0009182808232962C813D81318320833897A2
:1020D0008081918147969D838C830F3F110511F07C
:1020E00008F020C1B6960136110530F4013411050F
:1020F00058F0F701EE57FF4F808191812C813D818F
:10210000280F391F3D832C838C819D810196FC0112
:10211000249121115FC090E080E0EA81FB81208161
:10212000213009F4C1C108F4B7C1223009F4BEC19D
:10213000233009F4C3C181E090E028960FB6F894EB
:10214000DEBF0FBECDBFDF91CF911F910F91FF90EA
:10215000EF90DF90CF90BF90AF909F908F907F9047
:102160006F905F904F903F902F900895F701E05A45
:10217000FF4F0190F081E02DC60109952C813D8132
:10218000280F391F3D832C8398CFF701E05AFF4F6A
:102190000190F081E02DC6010995881A990A8DCF2A
:1021A000F701E05AFF4F0190F081E02DC60109953B
:1021B000EC81FD81E81BF90BFD83EC837ECFF701F9
:1021C000E05AFF4F0190F081E02DC6010995880E7D
:1021D000991E73CFEC81FD8124912017110609F01F
:1021E0009AC0CF010296009709F495CFF701EE59F6
:1021F000FF4FF887EF839183808312867396608107
:102200008F8198850E94720DEF81F8858087F70194
:10221000EA58FF4F60818F8198850E94720D582E79
:10222000EF81F8858187970122573F4F3D832C83AB
:10223000F9019081EF81F885948781E0911180E028
:10224000EF81F8858587F701E958FF4F8080682D79
:102250008F8198850E94720D382EF701E858FF4F44
:102260002080622D8F8198850E94720D982EF70133
:10227000E758FF4F1081612F8F8198850E94720D62
:102280009FEF910F01E010E0980101C0220F9A9595
:10229000EAF7821B8E83EF81F885408414140CF0DA
:1022A000C4C08A94C80101C0880F8A94EAF7381A1A
:1022B000F685F983950C2A94C80101C0880F2A94E9
:1022C000EAF7282E29182F2F422D632DEF81F8854C
:1022D000828193810E94E00C4C01EF81F885938309
:1022E00082832981422D632D848195810E94F90C7E
:1022F000EF81F88595838483F981F13009F49AC0E0
:1023000008F44EC0F23009F4A4C0F33009F4B5C0AB
:10231000BC0194014FC0FC0184912C813D81280FA8
:10232000311DF0CEF701EA57FF4F80819181EC819A
:10233000FD81E80FF91FFD83EC834F0160E0C401CC
:102340000E949D0D2C813D81280F391F3D832C83D8
:1023500062E0C4010E949D0D34E0830E911C801741
:10236000910760F3EC81FD81849190E0982F88279C
:102370003196E4918E2B009709F4CDCE08171907FA
:1023800021F48C819D8103962ECFEC81FD813296C4
:10239000E4912C813D812E0F311D3D832C83E2CFB2
:1023A0009401240D311D47FC3A95BC01650D711D4A
:1023B00057FC7A958B01AC01B401C6010E94AA0AB0
:1023C000882399F1EF81F885168217824701F3E798
:1023D0008F0E911C24E7E20EF11CF40160818F81C5
:1023E00098850E94720D082FF70160818F81988572
:1023F0000E94720D182F40E0602FC6010E94120D3E
:1024000041E0612FC6010E94120D61E08F81988525
:102410000E94720D8111EFCFEF81F88587818515BC
:10242000E4F28485EC81FD818083FE818F2FFF0F94
:10243000990B73CE0519110957FC139594012F5F61
:102440003F4FBC01640D711D47FC7A95800E911EB3
:10245000B1CFA8014419510947FC539594012F5F4E
:102460003F4F0519110957FC1395BC016F5F7F4F52
:10247000800F911F840E951E9DCF9401250D311D57
:1024800057FC3A950419110947FC1395BC016F5F7D
:102490007F4F800F911F8ECFF50120813181820FF8
:1024A000931F9183808347CEF301F7CFF5012081FD
:1024B0003181281B390B318320833DCEF301F7CFC7
:1024C000089590E080E008958F929F92AF92BF921E
:1024D0000F931F93CF93DF93CDB7DEB7A1970FB6BE
:1024E000F894DEBF0FBECDBF19A2423008F44AE017
:1024F0008E010F5D1F4F842E912CB12CA12CA501B4
:1025000094010E942A1CE62FB901CA01EA3044F561
:10251000E05DD801EE938D01232B242B252B79F739
:1025200090E080E0109769F0FD0101900020E9F74C
:102530003197AF014A1B5B0BBD018CE797E00E940E
:10254000E60FA1960FB6F894DEBF0FBECDBFDF91A8
:10255000CF911F910F91BF90AF909F908F90089552
:10256000E95CD7CF42E050E06FE871E08BE792E0A2
:102570000C944A06BC0190E080E04AE00C9464129E
:1025800085ED8093BC008091FD019091FE01A091AA
:10259000FF01B09100020796A11DB11D23E0B69581
:1025A000A795979587952A95D1F72091BC0024FD92
:1025B00003C010924A0208954091FD015091FE011E
:1025C0006091FF0170910002452B462B472B69F368
:1025D0000097A105B10541F02AE22A95F1F700C064
:1025E0000197A109B109E1CF8091FC010C94A807E2
:1025F000FC01A081B18150962C9182AD38E0839F7F
:10260000C0011124289FA001299F500D112470E0C2
:1026100060E080AD91AD0C946C1C1F93CF93DF9361
:10262000EC010E94BC0D1BAD8AAD180FE881F98149
:102630008189181768F0EC81FD8130E020E040E0EE
:1026400060E1CE01099580E0DF91CF911F9108955F
:10265000FE01E557FF4F8081882319F0CE010E94CB
:10266000F812612FCE010E94A90D81E0EDCFCF932A
:10267000DF93EC01FC01E557FF4F8081882319F0BF
:10268000CE010E94F81260E0CE01DF91CF910C9450
:10269000A90DCF93DF93EC010E943713CE010E9466
:1026A0000D138111FBCF60E0CE01DF91CF910C942F
:1026B000A90D1F920F920FB60F9211242F933F93E3
:1026C0008F939F93AF93BF93809173029091740205
:1026D000A0917502B09176023091720223E0230F2F
:1026E0002D3758F50196A11DB11D209372028093DC
:1026F000730290937402A0937502B0937602809156
:10270000770290917802A0917902B0917A020196B5
:10271000A11DB11D8093770290937802A093790256
:10272000B0937A02BF91AF919F918F913F912F917A
:102730000F900FBE0F901F90189526E8230F02965A
:10274000A11DB11DD2CF1F920F920FB60F9211246F
:102750002F933F934F935F936F937F938F939F93A9
:10276000AF93BF93EF93FF938BE792E00E94CF0666
:10277000FF91EF91BF91AF919F918F917F916F9159
:102780005F914F913F912F910F900FBE0F901F902F
:1027900018951F920F920FB60F9211242F934F93FB
:1027A0005F938F939F93EF93FF93E0918B02F09150
:1027B0008C028081E0919102F091920282FD25C00D
:1027C00020818091940290919502019691704091A0
:1027D0009602509197028417950759F0E091940260
:1027E000F0919502E558FD4F21A3909395028093B7
:1027F0009402FF91EF919F918F915F914F912F9153
:102800000F900FBE0F901F9018958081F2CF1F92EE
:102810000F920FB60F9211242F933F934F935F9314
:102820006F937F938F939F93AF93BF93EF93FF9398
:102830008091B900887F803609F44AC0F0F588326B
:1028400009F4A7C018F5803109F49BC0B8F48823B7
:1028500009F4F9C0883009F494C0FF91EF91BF9159
:10286000AF919F918F917F916F915F914F913F9128
:102870002F910F900FBE0F901F901895883109F47B
:1028800088C0803251F78093490214C0803409F423
:102890009DC040F48033B9F38833F9F68093490240
:1028A00085ECB0C0803509F485C0883509F496C040
:1028B000883499F60E94C012D0CF883909F48CC0B0
:1028C00038F5883729F050F4883611F0803729F62A
:1028D00083E080934A021092480257C0883809F476
:1028E0007BC0803919F0803809F0B7CF8091480259
:1028F000803208F071C0E091480281E08E0F809331
:1029000048028091BB00F0E0E85DFD4F80833DC050
:10291000803B39F0E0F4803A09F479C0883A09F054
:102920009CCF84E080934A021092250210922402E8
:10293000E0912202F09123020995809124028111F5
:102940000FC081E0809324021092020209C0803CF3
:1029500009F4A6CF883C09F4A3CF883B09F07DCFCA
:10296000E091250281E08E0F80932502F0E0EE5F7A
:10297000FD4F80818093BB009091250280912402BD
:1029800029C080916F028093BB0085EC8093BC00CE
:1029900064CF90916E0280916D02981758F5E09186
:1029A0006E0281E08E0F80936E02F0E0E35BFD4FDC
:1029B0008081E9CFE0916E0281E08E0F80936E02FC
:1029C0008091BB00F0E0E35BFD4F808390916E024D
:1029D00080916D029817C8F285E8D8CFE0916E0219
:1029E00081E08E0F80936E028091BB00F0E0E35B8C
:1029F000FD4F808380914C0281115CCF81E08093F8
:102A00004B0284EA8093BC0010924A0226CF85ECE8
:102A10008093BC0010924A0280914802803230F4C8
:102A2000E0914802F0E0E85DFD4F108260914802BD
:102A300070E0E0912602F091270288E292E0099589
:102A4000109248020ACF1092490234CFCF93DF93FD
:102A500010927E0210927D0288EE93E0A0E0B0E03A
:102A600080937F0290938002A0938102B0938202B0
:102A70002DE531E030937C0220937B0225EC30E0A1
:102A8000309388022093870224EC30E030938A024E
:102A90002093890220EC30E030938C0220938B024B
:102AA00021EC30E030938E0220938D0222EC30E056
:102AB0003093900220938F0226EC30E03093920204
:102AC0002093910210929502109294021092970214
:102AD00010929602109299021092980210929B0204
:102AE00010929A0210929F0610929E068093A00662
:102AF0009093A106A093A206B093A3068FE691E05F
:102B000090939D0680939C0610927F0710927E07FB
:102B10008FE894E090930D0880930C0810920F08B2
:102B200010920E0810921108109210081092980737
:102B300081E891E090937D0780937C071092810754
:102B4000109280071092950710928C0710928D07B3
:102B500010928E0710928F078FEF809396078093C5
:102B60009A07EEE9F7E084EB97E0DFEFD1938E1759
:102B70009F07E1F78FEC98E0909385078093840797
:102B80008DEB99E0909387078093860788E19EE01C
:102B9000909389078093880789E59FE090938B073E
:102BA00080938A0730E020E040E069E080E897E029
:102BB0000E94CF081092DB071092DA0789E994E0AF
:102BC0009093B5078093B40788EA96E09093B9078D
:102BD0008093B807C1E0C093BA071092BB07109268
:102BE000E9071092090810920508C0930A08C093DB
:102BF0000B0889E891E09093B7078093B60780E8C7
:102C000097E00E94580A1092D3071092D2071092B0
:102C1000D7071092D6078FEF9FEF9093D507809339
:102C2000D4079093D9078093D807E091B607F09125
:102C3000B7070280F381E02D80E897E0099588E0EE
:102C400095E09093DD078093DC071092EC07D0931A
:102C5000A907D093AA07D093AB07C0937B078BE556
:102C6000809328078DE580932907109253071092CF
:102C70005407DF91CF910895CF93DF93CDB7DEB79F
:102C8000C654D1090FB6F894DEBF0FBECDBF7894FD
:102C900084B5826084BD84B5816084BD85B5826061
:102CA00085BD85B5816085BD80916E008160809312
:102CB0006E0010928100809181008260809381007B
:102CC000809181008160809381008091800081608B
:102CD000809380008091B10084608093B1008091E6
:102CE000B00081608093B00080917A00846080930E
:102CF0007A0080917A00826080937A0080917A00D5
:102D0000816080937A0080917A00806880937A0055
:102D10001092C1000E940B050E940B05E0918407F0
:102D2000F091850730E020E040E06AE080E897E03D
:102D3000099580E897E00E944913E0918407F0919B
:102D4000850730E020E040E06BE080E897E00995FF
:102D500087E09AE090930D0880930C088091DA0741
:102D60009091DB078054914009F495C0E0E4F1E0D4
:102D7000F093DB07E093DA07E491E093ED07E1E4F9
:102D8000F1E0E491E093EE07E2E4F1E0E491E09316
:102D9000EF07E3E4F1E0E491E093F007E4E4F1E02D
:102DA000E491E093F107E5E4F1E0E491E093F207C8
:102DB000E6E4F1E0E491E093F307E7E4F1E0E49185
:102DC000E093F407E8E4F1E0E491E093F507E9E447
:102DD000F1E0E491E093F607EAE4F1E0E491E093B6
:102DE000F707EBE4F1E0E491E093F807ECE4F1E0BD
:102DF000E491E093F907EDE4F1E0E491E093FA0760
:102E0000EEE4F1E0E491E093FB07EFE4F1E0E4911C
:102E1000E093FC07E0E5F1E0E491E093FD0761E178
:102E200080E491E00E949D0D9093FF078093FE0740
:102E300063E180E491E00E949D0D909301088093EE
:102E4000000865E180E491E00E949D0D90930308E5
:102E5000809302088091DA079091DB07892BD9F0E3
:102E60008091FA07809306084091FB07409307087A
:102E700090910508992379F0913009F089C09091DB
:102E8000FC07891714F4909306088091FD078417B6
:102E900014F48093070880E897E00E9449130FE438
:102EA00017E08091940290919502209196023091C2
:102EB0009702821B930B9170892B09F48DC08BE7CD
:102EC00092E00E94A30690912807891305C031E083
:102ED000309354071092530790915407992309F3A4
:102EE000E091530791E09E0F90935307F0E0E85D67
:102EF000F84F8283909129078913D3CF10925407FA
:102F00001092530790915107EBE2F7E080E0219196
:102F1000820FA1E5B7E0AE17BF07C9F7981353C0FA
:102F200080912B078093550780912C07809356073B
:102F300080912D078093570780912E078093580723
:102F4000E8E2F7E08781908589279827892792AB67
:102F500081AB329620E437E02E173F0799F7E7E47C
:102F6000F7E08081918189279827892793A782A7F5
:102F700032960E171F07A9F780914F0790915007BF
:102F800089279827892790937A078093790789CF93
:102F90003091F7072091F907082E000C990B622F4A
:102FA000022E000C770B630F711D37FD7A95861783
:102FB00097071CF4320F3093060824170CF06BCFE0
:102FC0002093070868CF62E770E08BE792E00E94E9
:102FD00026060E94B21265CF0091790710917A07F8
:102FE00080917707909178079A8F898FA0917507C4
:102FF000B0917607BC8FAB8FE0917307F0917407A7
:10300000FE8FED8F209171073091720738A32F8FBB
:1030100080916F07909170079AA389A3A0916D0783
:10302000B0916E07BCA3ABA3E0916B07F0916C0766
:10303000FEA3EDA32091690730916A0738A72FA35B
:1030400080916707909168079AA789A7A091650763
:10305000B0916607BCA7ABA7E0916307F091640746
:10306000FEA7EDA7209161073091620738AB2FA72B
:1030700080915F07909160079AAB89ABA0915D0743
:10308000B0915E07BCABABABE0915B07F0915C0726
:10309000FEABEDAB2091590730915A0738AF2FABFB
:1030A000F0905807E0905707309156073DAF809158
:1030B000550722968FAF229780917B0791E0892751
:1030C00080937B0780E897E00E94371300FF82C35C
:1030D000A2ECB0E0BA83A98301FF81C32EEB30E0FC
:1030E0003C832B8302FF80C3AAEBB0E0BE83AD8399
:1030F00003FF7FC326EB30E038872F8304FF7EC3B6
:10310000A2EBB0E0BA87A98705FF7DC32EEA30E0C5
:103110003C872B8706FF7CC3AAEAB0E0BE87AD8759
:1031200007FF7BC326EA30E0388B2F8710FF7AC376
:10313000A2EAB0E0BA8BA98B11FF79C32EE930E087
:103140003C8B2B8B12FF78C3AAE9B0E0BE8BAD8B12
:1031500013FF77C322E830E0388F2F8B51E1C52E63
:10316000D12CAE2DB0E0BAAFA9AFEF2DF0E0FCAF9F
:10317000EBAF6BE1662E712C9DAD892F90E0B0E036
:10318000A0E021968CAF9DAFAEAFBFAF2197229646
:103190009FAD2297892F90E0B0E0A0E025968CAFFC
:1031A0009DAFAEAFBFAF259710920F0810920E08DB
:1031B000A7E0B0E0B0931108A09310086AED70E0AA
:1031C0008CE797E00E942606ECE6F0E0F0930F080B
:1031D000E0930E0827E030E03093110820931008A8
:1031E00065ED70E08CE797E00E94260668E070E0ED
:1031F00088E090E00E946A0C10920F0810920E086E
:10320000D0921108C092100862ED70E08CE797E050
:103210000E9426060CE010E027961FAE1EAE2797F0
:1032200010930F0800930E08D0921108C092100856
:1032300089AD9AAD26960FAC269702C095958795D5
:103240000A94E2F76EEC70E080FF02C060ED70E07F
:103250008CE797E00E94260627968EAD9FAD2797B4
:10326000019627969FAF8EAF27970B5F1F4F08974A
:10327000B9F6ABE4B0E0B0930F08A0930E08D0927B
:103280001108C09210086BEC70E08CE797E00E9488
:10329000260607E510E027961FAE1EAE279710936F
:1032A0000F0800930E08D0921108C09210088BAD41
:1032B0009CAD26960FAC269702C0959587950A94EB
:1032C000E2F767EC70E080FF02C069EC70E08CE729
:1032D00097E00E9426062796EEADFFAD2797319620
:1032E0002796FFAFEEAF27970B5F1F4F3897B9F6C2
:1032F00062E170E082E190E00E946A0C10920F0897
:1033000010920E08709211086092100864EC70E040
:103310008CE797E00E9426068CE0482E512C5092B4
:103320000F0840920E08709211086092100869818F
:103330007A818CE797E00E942606D0920F08C0920F
:103340000E0870921108609210088FA998AD0E9423
:10335000BA129AE2892E912C90920F0880920E0850
:1033600070921108609210086B817C818CE797E065
:103370000E9426062FE2A22EB12CB0920F08A09236
:103380000E0870921108609210088DA99EA90E94E3
:10339000BA1238E4E32EF12CF0920F08E0920E08F6
:1033A00070921108609210086D817E818CE797E021
:1033B0000E9426062DE430E030930F0820930E087B
:1033C00070921108609210088BA99CA90E94BA12F1
:1033D00006E610E010930F0800930E087092110893
:1033E000609210086F8178858CE797E00E9426062E
:1033F0004BE6242E312C30920F0820920E0870924A
:1034000011086092100889A99AA90E94BA125092D4
:103410000F0840920E0883E290E090931108809389
:10342000100869857A858CE797E00E942606D0927D
:103430000F08C0920E08A3E2B0E0B0931108A09369
:1034400010088FA598A90E94BA1290920F08809236
:103450000E08E3E2F0E0F0931108E09310086B85AA
:103460007C858CE797E00E942606B0920F08A09218
:103470000E0823E230E030931108209310088DA548
:103480009EA50E94BA12F0920F08E0920E0883E205
:1034900090E090931108809310086D857E858CE7ED
:1034A00097E00E942606ADE4B0E0B0930F08A09329
:1034B0000E08E3E2F0E0F0931108E09310088BA50A
:1034C0009CA50E94BA1210930F0800930E0823E2E5
:1034D00030E030931108209310086F8578898CE7CD
:1034E00097E00E94260630920F0820920E0883E291
:1034F00090E0909311088093100889A59AA50E94E6
:10350000BA1250920F0840920E08ABE2B0E0B093AE
:103510001108A093100869897A898CE797E00E94C6
:103520002606D0920F08C0920E08EBE2F0E0F0936E
:103530001108E09310088FA198A50E94BA129092EA
:103540000F0880920E082BE230E030931108209390
:1035500010086B897C898CE797E00E942606B09260
:103560000F08A0920E088BE290E0909311088093D0
:1035700010088DA19EA10E94BA12F0920F08E0924D
:103580000E08ABE2B0E0B0931108A09310086D896B
:103590007E898CE797E00E942606EDE4F0E0F09348
:1035A0000F08E0930E082BE230E0309311082093CF
:1035B00010088BA19CA10E94BA1210930F080093CF
:1035C0000E088BE290E090931108809310086F89A9
:1035D000788D8CE797E00E94260630920F082092A3
:1035E0000E08ABE2B0E0B0931108A093100889A1D7
:1035F0009AA10E94BA126CE270E08CE290E00E9404
:103600006A0C10920F0810920E08E5E3F0E0F093B8
:103610001108E093100865E970E08CE797E00E94DC
:10362000260650920F0840920E0825E330E03093B2
:103630001108209310088F8D98A10E94BA129092C1
:103640000F0880920E0885E390E090931108809314
:1036500010088D8D9E8D0E94BA12F0920F08E09294
:103660000E08A5E3B0E0B0931108A09310088B8D6D
:103670009C8D0E94BA1210930F0800930E08E5E388
:10368000F0E0F0931108E0931008898D9A8D0E9464
:10369000BA1266E370E086E390E00E946A0C109232
:1036A0000F0810920E082FE330E03093110820939A
:1036B00010086FE870E08CE797E00E94260680E231
:1036C00090E090930F0880930E088FE390E0909322
:1036D0001108809310086AE870E08CE797E00E9478
:1036E000260684E390E090930F0880930E08AFE3E2
:1036F000B0E0B0931108A09310084AE021966CAD99
:103700007DAD8EAD9FAD21970E94641283E490E061
:1037100090930F0880930E08EFE3F0E0F093110808
:10372000E093100864E870E08CE797E00E942606BA
:103730008CE590E090930F0880930E082FE330E023
:1037400030931108209310084AE025966CAD7DADAA
:103750008EAD9FAD25970E94641230920F08209283
:103760000E088FE390E090931108809310088091E9
:103770007B0766E770E0882311F06BE770E08CE769
:1037800097E00E94260680E897E00E940D138111C1
:103790000BCD80917002909171028830A7E09A075A
:1037A00008F054C00196909371028093700264EF08
:1037B00071E080E090E00E94E80580E090E0892BD5
:1037C00009F46DCB0E947706882309F468CB0E9428
:1037D000000065CBE0ECF0E0FA83E9837DCC8CEB74
:1037E00090E09C838B837ECCE8EBF0E0FE83ED835E
:1037F0007FCC84EB90E098878F8380CCE0EBF0E087
:10380000FA87E98781CC8CEA90E09C878B8782CC11
:10381000E8EAF0E0FE87ED8783CC84EA90E0988BBD
:103820008F8784CCE0EAF0E0FA8BE98B85CC8CE9D9
:1038300090E09C8B8B8B86CCE8E9F0E0FE8BED8BE7
:1038400087CC80E890E0988F8F8B88CCF0E0E0E028
:103850000995ADCFA1E21A2EAA1BBB1BFD010DC01D
:10386000AA1FBB1FEE1FFF1FA217B307E407F50730
:1038700020F0A21BB30BE40BF50B661F771F881F0C
:10388000991F1A9469F760957095809590959B01A2
:10389000AC01BD01CF0108950E945D1CA59F900D54
:1038A000B49F900DA49F800D911D11240895EE0FDB
:1038B000FF1F0590F491E02D0994A29FB001B39FE2
:1038C000C001A39F700D811D1124911DB29F700D29
:1038D000811D1124911D0895DC0101C06D9341509B
:0A38E0005040E0F70895F894FFCF80
:1038EA001815AE19FF1815AF19FF1815A115C81923
:1038FA00FF0001140A6464323200093D0000042802
:10390A009610080000800040001815AE15D516A0C4
:10391A0015401520160215A115C815DA16121581BB
:10392A00166F15D916D315DB1620152E15A415A654
:10393A0019FF1815A015C019FF00000000F4064A67
:10394A0006910643071B06A306BD060000000022D7
:10395A0008F5076112CB07EE07DB07CC070000006A
:10396A00000E10E60F61126012580AE30A480A0DA7
:02397A000A0041
:00000001FF
