:100000000C94B5030C94E6030C94E6030C94E603FD
:100010000C94E6030C94E6030C94E6030C94E603BC
:100020000C94E6030C94E6030C94E6030C94E603AC
:100030000C94E6030C94E6030C94E6030C94E6039C
:100040000C94E6030C94E6030C94E6030C94E6038C
:100050000C94E6030C94E6030C94E6030C94990DBF
:100060000C94E6030C94090F0C94DF0E0C94E60339
:100070000C94E6030C94E6030C94E6030C94E6035C
:100080000C94E6030C94E6030C94E6030C94E6034C
:100090000C94B50E0C948B0E0C94E6030C94E603B2
:1000A0000C94E6030C94E6030C94E6030C94E6032C
:1000B0000C94E6030C94E6030C94E6030C94E6031C
:1000C0000C94E6030C94E6030C94E6030C94610E86
:1000D0000C94370E0C94E6030C940D0E0C94E30D67
:1000E0000C94E6030C9448040C949E050C949F0712
:1000F0000C943B040C94B2050C943F040C944B05F7
:100100000C9456040C9480050C9464040C947105B2
:100110000C946E040C94330F0C9468040C944C04EF
:100120000C949C060C9420050C9453050C942F05FC
:100130000C942D040C944E070C9494050C948A0591
:100140000C9442040C9472040C9439050C946807C6
:100150000C94CD1B0C9460040C9452040C940D0868
:100160000C9467050C94A8050C9437040C943C0778
:100170000C945A040C9433040C9418050C94B20695
:100180000C9425050C945D050C9443050C94910684
:100190000C946D04000020002300260029002C0090
:1001A0002F003200000100000301060109010D0AC1
:1001B0003D3D3D204E42494F54205354415254201E
:1001C0003D3D3D005B537472696E672053706163FF
:1001D00065204E4F54204F4B5D005B53747220538B
:1001E00070616365204F4B5D002B514D5452454368
:1001F000563A002B514D545355423A002B514D5411
:100200005055423A00300030002C003A20002B4379
:1002100053513A002B43455245473A002B4347413F
:1002200054543A002F6F75742C300041542B514DAB
:10023000545355423D302C312C7267742F002C746E
:100240007377682C31576F3D5B367641306D0041D6
:10025000542B514D54434F4E4E3D302C6465765FC8
:10026000002B4347534E3A000D0A46494E49534826
:1002700020524547554C4152205055424C49534815
:10028000002B514D545055423A20302C302C300028
:100290003E000D0A46494E495348204745545449AB
:1002A0004E47204345524547002B43455245473A68
:1002B000000D0A46494E4953482047455454494E7B
:1002C00047204347415454002B43474154543A007C
:1002D0000D0A46494E4953482047455454494E4714
:1002E00020435351002B4353513A000D0A535542BA
:1002F00020544F504943204F4B002B514D545355E0
:10030000423A000D0A434F4E4E4543544544204D5A
:10031000515454002B514D54434F4E4E3A20302CE3
:10032000302C30000D0A4F50454E4544204D51545D
:1003300054002B514D544F50454E3A20302C300034
:100340000D0A46494E4953482047455454494E47A3
:10035000204345524547002B43455245473A000D3F
:100360000A46494E4953482047455454494E472070
:100370004347415454002B43474154543A000D0A1B
:1003800046494E4953482047455454494E47204317
:100390005351002B4353513A000D0A46494E4953DD
:1003A00048205345545550000D0A46494E4953487C
:1003B0002057414954494E47204950002B49503A53
:1003C000005B534F46545F52455345545D000D0A40
:1003D0004558454355544520524547554C415220B8
:1003E0005055424C4953480041542B4345524547D0
:1003F0003F000D0A5B436F6E6E65637465645D203C
:100400005155455259494E472043455245470041B1
:10041000542B43474154543F000D0A5B436F6E6EAB
:1004200065637465645D205155455259494E4720B6
:1004300043474154540041542B435351000D0A5B30
:10044000436F6E6E65637465645D20515545525906
:10045000494E4720435351000D0A46494E495348DF
:1004600020494E4954204E42494F54000D0A5355DD
:100470004253435242494E4720544F5049432E2E37
:100480002E000D0A434F4E4E454354494E47204DD2
:100490005154542E2E2E0041542B514D544F504543
:1004A0004E3D302C696F742E7265632D67742E6318
:1004B0006F6D2C31383830000D0A4F50454E494E83
:1004C00047204D5154542E2E2E0041542B4345525B
:1004D00045473F000D0A47455454494E4720434580
:1004E0005245470041542B43474154543F000D0AA5
:1004F00047455454494E47204347415454004154C2
:100500002B435351000D0A47455454494E4720434D
:1005100053510041542B514D54444953433D3000F5
:1005200041542B514D54434C4F53453D30004154A1
:100530002B4345445258533D302C350041542B43F6
:1005400053434F4E3D300041542B4350534D533D88
:10055000300041542B5153434C4B3D300041542B00
:100560004346554E3D31000D0A53455454494E47BC
:10057000205550204E42494F54000D0A576169746E
:10058000696E672049500041542B5153434C4B3DF9
:10059000300041542B4347534E3D310041542B51C1
:1005A00049444E534346473D302C382E382E382E82
:1005B000382C3232332E352E352E35005B48656CA3
:1005C0006C6F2066726F6D205247542048656C6CCA
:1005D0006F2066726F6D205247542048656C6C6FB7
:1005E0002066726F6D205247545D004154000D0A21
:1005F000464F524345205055424C4953482053548E
:100600004F505045440000002100240027002A00DC
:100610002D003000330001010000040107010A0130
:1006200000002200250028002B002E00310034009D
:1006300002010000050108010B010505050507057C
:1006400008080808020202020A0A0808040404044E
:10065000010101010101010103030303030303037A
:10066000040707070C0C0C0C0C0C0C0C0202020209
:1006700006060606060606060B0B0B0B0B0B0B0BF2
:1006800001021020200808102040102040800201A4
:100690000201080402010102040810204080804089
:1006A0002010080402018004020180402010080488
:1006B0000201080402010102040810204080010226
:1006C00004081020408000000A0B02090C0D0E08DF
:1006D000070304010000000000000000000000000B
:1006E000000000000000000000000000000000000A
:1006F00000001211100000000000000000000000C7
:100700000000000000000000000000002C002F6925
:100710006E2C0041542B514D545055423D302C30DD
:100720002C302C302C7267742F007D0022616F7585
:1007300074223A002C002261696E223A002C0022B9
:10074000646F7574223A002C002264696E223A00AC
:100750002C007B22637371223A005D002C005B0049
:100760005D002C005B00330FCD1B11241FBECFEFAB
:10077000D1E2DEBFCDBF00E00CBF12E0A0E0B2E0EE
:10078000E8EDFEE300E00BBF02C007900D92A2333C
:10079000B107D9F726E1A2E3B2E001C01D92AC3760
:1007A000B207E1F713E0C4EBD3E000E006C0219705
:1007B0000109802FFE010E94051DC33BD10780E087
:1007C0000807A9F70E9470110C945A1F0C9400009E
:1007D000FC01A089B18982E08C93A485B5851C9227
:1007E000A685B7858FEC8C93108EA489B58986E099
:1007F0008C93A289B3898C9180618C93A289B389EF
:100800008C9188608C93A289B3898C9180688C9339
:100810000288F389E02D80818F7D80830895815047
:10082000823108F05AC0E82FF0E08827E55EFB4FE0
:100830008F4F0C94051D3B043F042D0433043704F3
:100840006D04420448044C04520456045A046004E3
:1008500064046D0468046E047204809180008F77D4
:10086000809380000895809180008F7DF9CF8091E2
:100870008000877FF5CF84B58F7784BD089584B5D8
:100880008F7DFBCF8091B0008F778093B00008956B
:100890008091B0008F7DF9CF809190008F77809309
:1008A00090000895809190008F7DF9CF8091900005
:1008B000877FF5CF8091A0008F778093A000089567
:1008C0008091A0008F7DF9CF8091A000877FF5CF28
:1008D000809120018F7780932001089580912001DD
:1008E0008F7DF9CF80912001877FF5CF1F93CF9324
:1008F000DF93282F30E0F901EA53F94F8491F90191
:10090000E058F94FD491F901E65CF94FC491CC233A
:10091000A9F0162F81110E940F04EC2FF0E0EE0FCA
:10092000FF1FE05EF94FA591B4918FB7F894EC9159
:10093000111108C0D095DE23DC938FBFDF91CF91DA
:100940001F910895DE2BF8CFCF93DF9390E0FC0149
:10095000E058F94F2491865C994FFC0184918823DB
:10096000C9F090E0880F991FFC01EA5FF94FA5914B
:10097000B491FC01E05EF94FC591D49161110DC0B5
:100980009FB7F8948C91209582238C93888128239B
:1009900028839FBFDF91CF910895623051F49FB7B4
:1009A000F8943C91822F809583238C93E8812E2BA1
:1009B000EFCF8FB7F894EC912E2B2C938FBFEACF0B
:1009C0001F93CF93DF93182FEB0161E00E94A404E3
:1009D000209739F460E0812FDF91CF911F910C9423
:1009E0007604CF3FD10511F461E0F5CFE12FF0E0BF
:1009F000EA53F94FE491E150E23108F0B3C0F0E07E
:100A00008827EA5FFA4F8F4F0C94051D18052005C3
:100A100025052F053905B20543054B0553055D0531
:100A20006705710580058A05B20594059E05A80530
:100A300084B5806884BDC7BDDF91CF911F910895B3
:100A400084B5806284BDC8BDF7CF80918000806886
:100A500080938000D0938900C0938800EDCF80916F
:100A60008000806280938000D0938B00C0938A00C6
:100A7000E3CF80918000886080938000D0938D00C8
:100A8000C0938C00D9CF8091B00080688093B00073
:100A9000C093B300D1CF8091B00080628093B0004A
:100AA000C093B400C9CF809190008068809390007B
:100AB000D0939900C0939800BFCF8091900080623E
:100AC00080939000D0939B00C0939A00B5CF809103
:100AD0009000886080939000D0939D00C0939C000C
:100AE000ABCF8091A00080688093A0008091A0008F
:100AF0008F7B8093A000D093A900C093A8009CCFC7
:100B00008091A00080628093A000D093AB00C0933E
:100B1000AA0092CF8091A00088608093A000D0931B
:100B2000AD00C093AC0088CF809120018068809395
:100B30002001D0932901C09328017ECF809120010C
:100B4000806280932001D0932B01C0932A0174CF3F
:100B500080912001886080932001D0932D01C09363
:100B60002C016ACFC038D1050CF03ECF33CF86338D
:100B700008F0865320917B00982F9870277F922B46
:100B800090937B002091000290E4299F9001112412
:100B90008770822B80937C0080917A0080648093A0
:100BA0007A0080917A0086FDFCCF80917800909148
:100BB000790008953FB7F89480917402909175027E
:100BC000A0917602B091770226B5A89B05C02F3F71
:100BD00019F00196A11DB11D3FBFBA2FA92F982F63
:100BE0008827BC01CD01620F711D811D911D42E05E
:100BF000660F771F881F991F4A95D1F708958F9226
:100C00009F92AF92BF92CF92DF92EF92FF926B01D1
:100C10007C010E94DA054B015C01C114D104E1049E
:100C2000F104B9F00E94DA05681979098A099B096B
:100C3000683E73408105910580F321E0C21AD10816
:100C4000E108F10888EE880E83E0981EA11CB11C13
:100C5000E4CFFF90EF90DF90CF90BF90AF909F9048
:100C60008F9008952FB7F89460917002709171027F
:100C700080917202909173022FBF08958F929F927C
:100C8000AF92BF92CF92DF92EF92FF926B017C0105
:100C90000E94320680900B1390900C13A0900D13BD
:100CA000B0900E139B01AC01281939094A095B0960
:100CB00049015A0180910F1381110DC00E94320623
:100CC00060930B1370930C1380930D1390930E137A
:100CD00081E080930F13C814D904EA04FB0410F4D4
:100CE00010920F130E94320680900B1390900C13F9
:100CF000A0900D13B0900E13681979098A099B0909
:100D000021E0C616D706E806F90608F020E0822F93
:100D1000FF90EF90DF90CF90BF90AF909F908F901B
:100D20000895FC01218D328D838D948DA901481B7E
:100D3000590BCA019170089581E0809332020895A1
:100D4000FC01248135816217730748F48081918109
:100D5000009729F0860F971FFC018081089580E09D
:100D600008950895AF92BF92CF92DF92EF92FF92D3
:100D70000F931F93CF93DF936C017B018B01040FC3
:100D8000151FEB015E01AE18BF08C017D10759F05F
:100D90006991D601ED91FC910190F081E02DC601A1
:100DA0001995892B79F7C501DF91CF911F910F918B
:100DB000FF90EF90DF90CF90BF90AF90089520917B
:100DC000D50A3091D60A8091D70A9091D80A281B6B
:100DD000390B317081E0232B09F480E008952091D4
:100DE0009302309194028091950290919602281B73
:100DF000390B317081E0232B09F480E008952091B4
:100E0000F60E3091F70E8091F80E9091F90E281B96
:100E1000390B317081E0232B09F480E00895209193
:100E2000B4063091B5068091B6069091B706281B9E
:100E3000390B317081E0232B09F480E00895FC0127
:100E4000A089B1898C91A689B78982FD13C02C91A4
:100E5000818D928D01969170438D548D84179507E5
:100E600051F0A18DB28DAE0FBF1F91962C93928F32
:100E7000818F08958C9108954FB7F894FC01258DCA
:100E8000368D878D90A14FBF2817390728F08150E4
:100E90009E4F821B930B08950197FBCFFC01218D80
:100EA000328D838D948D2817390779F0A38DB48DF9
:100EB000AE0FBF1F91968C91238D348D2F5F3F4FC6
:100EC0003170348F238F90E008958FEF9FEF089556
:100ED000FC01218D328D838D948D2817390739F0CF
:100EE000838D948DE80FF91F81A190E008958FEF15
:100EF0009FEF0895FC01A78DB0A1A80FB91FAF5DAA
:100F0000BD4F2C91878D90A10196917090A3878FF2
:100F1000A689B7892C93A089B1898C91837080644C
:100F20008C93258D368D878D90A12817390731F444
:100F30000288F389E02D80818F7D80830895FF9260
:100F40000F931F93CF93DF93EC0181E0888F2D8D5A
:100F50003E8D8F8D98A128173907C9F4E889F98942
:100F6000808185FF14C09FB7F894EE89FF89608364
:100F7000E889F98980818370806480839FBF81E0E4
:100F800090E0DF91CF911F910F91FF900895F62E81
:100F90000D8D1E8D0F5F1F4F11708F8D98A18017C3
:100FA000910761F40FB607FCF8CFE889F9898081D1
:100FB00085FFF3CFCE010E947A07EFCFED8DFE8D36
:100FC000EC0FFD1FEF5DFD4FF0829FB7F8941E8F71
:100FD0000D8FEA89FB8980818062CFCFEF92FF92EB
:100FE0000F931F93CF93DF938C017B01D0E0C0E080
:100FF000F701EC0FFD1F6491662339F0C8010E94D0
:101000009F07892B11F02196F3CFCE01DF91CF916D
:101010001F910F91FF90EF900895CF93DF93EC0114
:10102000888D8823B9F0AA89BB89E889F9898C91D0
:1010300085FD03C0808186FD0DC00FB607FCF7CF8C
:101040008C9185FFF2CF808185FFEDCFCE010E948C
:101050007A07E9CFDF91CF91089580E090E0892B66
:1010600029F00E940F0781110E94000080E090E0AB
:10107000892B29F00E94FF0681110E94000080E068
:1010800090E0892B29F00E94EF0681110E94000058
:1010900080E090E0892B29F00E94DF0681110C94FA
:1010A00000000895CF93DF93EC010E94320668831D
:1010B00079838A839B83DF91CF910895982F80ED68
:1010C000890F8A3070F08FEB890F863018F489EC25
:1010D000890F08958FE9890F863010F489EAF8CFD7
:1010E00080E00895EF92FF920F931F93CF93DF93C9
:1010F0008C01FC01E480F580D0E0C0E0EC16FD0638
:1011000061F0BE01C8010E94A006082E000C990BD8
:10111000C0970A9750F42196F1CF81E0DF91CF91EB
:101120001F910F91FF90EF90089580E0F7CF0F93FC
:101130001F93CF93DF93EC0120E030E0A90197FDEE
:101140000AC09C018531954014F024E135E0032E5E
:10115000000C440B550BAFEFB0E00E94B51C24E12E
:1011600035E040E050E00E94961C89019A01CE01D2
:1011700062E370E00E94F11CCB01072E000CAA0B69
:10118000BB0B800F911FA21FB31F8F3F4FEF940720
:10119000A407B4077CF08F3F9105A105B1056CF45D
:1011A0006F5F7F4FCB01800F911FDF91CF911F9118
:1011B0000F91089590E080E0F8CF8FEF90E0F5CFA9
:1011C00024EC30E040E050E0843C91055CF09C0170
:1011D000211584E0380714F02FEF33E0032E000CC4
:1011E000440B550B245C310941095109A4E1B5E0D8
:1011F0000E94B51C2BE333E040E050E00E94961CB7
:10120000C9010895CF93DF93EC015CA94DA98981B1
:101210008130C9F4252F342F203C8EE3380710F09D
:101220002FEB3EE3AFEFBFE00E94E21C2FEB3EE36B
:1012300040E050E00E94961C3FAB2EAB8EA99FA9C8
:10124000DF91CF910895852F942F811524E0920787
:1012500010F08FEF93E09FAB8EABF0CFCF93DF9387
:10126000FC012181222331F0EC0160E080810E94A9
:1012700076041982DF91CF910895CF93DF93FC011B
:101280002181211107C0EC0161E080810E94760478
:1012900081E08983DF91CF910895CF93DF93EC01B3
:1012A000862F6883198261E00E94A404CE01DF9139
:1012B000CF910C942E09CF92DF92EF92FF920F9371
:1012C0001F93CF93DF93EC01288130E0F901EA53BB
:1012D000F94F8491F901E058F94F0491F901E65C66
:1012E000F94F1491112379F081110E940F04E12F1D
:1012F000F0E0EE0FFF1FEC56FE4FA591B491EC917C
:101300000E2311E009F410E089818117C9F00E94D1
:101310003206CA80DB80EC80FD806C197D098E0965
:101320009F09633371058105910508F01983DF91E9
:10133000CF911F910F91FF90EF90DF90CF90089584
:101340000E9432066A837B838C839D83F0CFCF9289
:10135000DF92EF92FF920F931F93CF93DF93EC01F5
:10136000898100E410E0C12CD12C7601813009F094
:101370004CC000E011E0C12CD12C760188810E9484
:10138000B705092E000CAA0BBB0BC80ED91EEA1E0E
:10139000FB1E0150110991F794E0F694E794D7945D
:1013A000C7949A95D1F7DB82CA82FE013496CE01AA
:1013B000C296DF0112962D913C9113972D933D9388
:1013C0008A179B07B9F7DBAACAAA9E012C5C3F4F7C
:1013D00060E070E0CB0141915191640F751F811D58
:1013E000911DE217F307B9F728E130E040E050E043
:1013F0000E94C01C3DAB2CABDF91CF911F910F9190
:10140000FF90EF90DF90CF90089588810E94B705FC
:10141000092E000CAA0BBB0BC80ED91EEA1EFB1E20
:101420000150110991F786E0F694E794D794C79498
:101430008A95D1F7DDAACCAADFCFCF93DF93FC0149
:1014400024813581232B81F0C081D1816091751376
:1014500070917613CE010E94401F009729F08C1BDB
:101460009D0BDF91CF9108958FEF9FEFFACF42E070
:1014700050E069E172E00C94B2060F931F93CF9392
:10148000DF93EC01FB0144815581608171810E94F1
:10149000B2068C01CE010E94370A800F911FDF91A6
:1014A000CF911F910F910895BC018DED9EE00E9498
:1014B0003D0A8DED9EE00E940D0862E070E080E044
:1014C00090E00C94FF050F931F93CF93DF93EC01F3
:1014D0000E94EE078C01CE010E94370A800F911FF7
:1014E000DF91CF911F910F910895FC0124813581E7
:1014F000232B39F421E0FB018081882349F020E08F
:1015000007C0808191810E94301F21E0892BB9F7AB
:10151000822F08950F931F93CF93DF938C01EB01DC
:10152000FC01808191810097E1F0688179816115EA
:101530007105A9F0428153812C813D8142175307E7
:1015400070F00E94391F8C819D81F80195838483FE
:101550001D821C82DF91CF911F910F9108950E94EF
:10156000BD1D88819981F801918380838A819B8147
:10157000938382838C819D819583848319821882D1
:101580001B821A82E5CFCF93DF93EC01888199818A
:10159000009711F00E94BD1D198218821D821C82C5
:1015A0001B821A82DF91CF910895FC018081918185
:1015B000009711F00C94BD1D08950F931F93CF93C6
:1015C000DF93EC0188819981009759F02A813B8152
:1015D0002617370730F081E0DF91CF911F910F91EF
:1015E00008958B016F5F7F4F0E94461E009759F050
:1015F000998388831B830A832C813D81232B59F790
:10160000FC011082E8CF80E0E7CFEF92FF920F93CA
:101610001F93CF93DF936115710541F480E0DF9153
:10162000CF911F910F91FF90EF9008957B01EC01F6
:10163000CB010E94431C0097A9F00C811D81080F6B
:10164000191FB801CE010E94DD0A882339F32881D1
:1016500039818C819D81B701820F931F0E943C1CB0
:101660001D830C8381E0DBCFEF92FF920F931F93DA
:10167000CF93DF936115710541F480E0DF91CF9145
:101680001F910F91FF90EF90089541155105B1F012
:101690007B01EC010C811D81040F151FB8010E9414
:1016A000DD0A882351F3288139818C819D81B7011E
:1016B000820F931F0E94391F1D830C8381E0DECFB0
:1016C0000F931F93CF93DF9300D01F92CDB7DEB758
:1016D0004AE08E010F5F1F4FB80190E00E944C1C42
:1016E000F80101900020E9F73197AF01401B510B41
:1016F000B80185E493E10E94340B0F900F900F9096
:101700000F90DF91CF911F910F910895EF92FF926B
:101710000F931F93CF93DF9300D000D01F92CDB7CC
:10172000DEB77C01CB014AE08E010F5F1F4FB8018D
:101730000E946C1CF80101900020E9F73197AF017D
:10174000401B510BB801C7010E94340B27960FB6FE
:10175000F894DEBF0FBECDBFDF91CF911F910F91E7
:10176000FF90EF900895FB01448155816081718164
:101770000C94340BEF92FF920F931F93CF93DF9350
:10178000EC018B016115710551F0CB010E94431CE6
:101790007C01BC01CE010E94DD0A81110BC0CE018B
:1017A0000E94C30ACE01DF91CF911F910F91FF904C
:1017B000EF900895FD82EC82B801888199810E94A2
:1017C0003C1CF0CF0F931F93CF93DF93E8E4F6E137
:1017D00040E090E080E021E030E05181511120E0D4
:1017E000082E01C0220F0A94EAF7422B0196369682
:1017F0008830910581F740937902E8E3F6E140E013
:1018000030E020E08181022E01C0880F0A94EAF7BF
:10181000482B2F5F3F4F32962830310599F7409380
:10182000780264E677E081E893E10E94BA0B0CE865
:1018300013E1D0E0C0E0C8010E940209BC0181E8C8
:1018400093E10E94860BCB30D10531F062E677E060
:1018500081E893E10E94050B2196085C1F4FCC3074
:10186000D10549F760E677E081E893E10E94050B36
:101870006EE577E08BE793E10E94BA0B0CE216E18C
:10188000D0E0C0E0F801618172818BE793E10E94B2
:10189000860BC330D10531F06CE577E08BE793E13F
:1018A0000E94050B21960D5F1F4FC430D10551F7E3
:1018B0006AE577E08BE793E1DF91CF911F910F917C
:1018C0000C94050BFC011182108213821282158286
:1018D00014820C94BA0BEF92FF920F931F93CF9345
:1018E000DF93EC017B018A01BA010E94DD0A8111BC
:1018F0000BC0CE010E94C30ACE01DF91CF911F9190
:101900000F91FF90EF9008951D830C83B70188819C
:1019100099810E94391FF0CFFC011182108213823D
:1019200012821582148250E040E06BE172E00C9468
:101930006B0C80910613811156C062E577E085E457
:1019400093E10E94BA0B6DE573E185E493E10E9497
:10195000B30B60E577E085E493E10E94050B69E451
:1019600077E085E493E10E94050B809179020E9463
:10197000600B67E477E085E493E10E94050B6FE379
:1019800077E085E493E10E94050B809178020E9444
:10199000600B6DE377E085E493E10E94050B66E35D
:1019A00077E085E493E10E94050B61E873E185E44B
:1019B00093E10E94B30B64E377E085E493E10E9436
:1019C000050B6CE277E085E493E10E94050B6BE781
:1019D00073E185E493E10E94B30B6AE277E085E46A
:1019E00093E10E94050B63E177E08FE393E10E94AE
:1019F000BA0B67E573E18FE393E10E94B30B6EE0EE
:101A000077E08FE393E10E94050B60914913709199
:101A10004A138FE393E10E94860B60913F1370910C
:101A2000401361157105A1F0409143135091441387
:101A300089E393E10E946B0C6CE077E089E393E12A
:101A40000E94050B65E473E189E393E10C94B30B09
:101A500089E393E10E94C30AEFCFFB0101900020CC
:101A6000E9F73197AF01461B570B0C946B0CCF92E3
:101A7000DF92EF92FF920F931F93CF93DF936C014E
:101A80007B018A014617570720F48F2D7A01062F14
:101A9000182FC6010E948C0CC0917313D09174133F
:101AA000EC16FD06F8F40C171D0708F4E801E091A8
:101AB0006F13F0917013EC0FFD1F10811082609175
:101AC0006F13709170136E0D7F1DC6016115710546
:101AD00099F00E942D0D80916F1390917013C80F93
:101AE000D91F1883C601DF91CF911F910F91FF90ED
:101AF000EF90DF90CF9008950E94C30AECCF8DED58
:101B00009EE00E944E07181619063CF461E070E052
:101B100080E090E00E94FF05F2CF6BE172E08FE67B
:101B200093E10E942D0D6AE070E080E090E00C945B
:101B3000FF051F920F920FB60F9211242F933F9320
:101B40008F939F93AF93BF93809170029091710296
:101B5000A0917202B091730230916F0223E0230FC3
:101B60002D3758F50196A11DB11D20936F0280936A
:101B7000700290937102A0937202B09373028091ED
:101B8000740290917502A0917602B091770201964D
:101B9000A11DB11D8093740290937502A0937602EB
:101BA000B0937702BF91AF919F918F913F912F9109
:101BB0000F900FBE0F901F90189526E8230F0296E6
:101BC000A11DB11DD2CF1F920F920FB60F921124FB
:101BD0000BB60F922F933F934F935F936F937F9327
:101BE0008F939F93AF93BF93EF93FF938CEB9AE008
:101BF0000E947A07FF91EF91BF91AF919F918F91D2
:101C00007F916F915F914F913F912F910F900BBEFC
:101C10000F900FBE0F901F9018951F920F920FB646
:101C20000F9211240BB60F922F933F934F935F9314
:101C30006F937F938F939F93AF93BF93EF93FF9394
:101C40008CEB9AE00E941F07FF91EF91BF91AF913B
:101C50009F918F917F916F915F914F913F912F91C4
:101C60000F900BBE0F900FBE0F901F9018951F92F4
:101C70000F920FB60F9211240BB60F922F933F9332
:101C80004F935F936F937F938F939F93AF93BF9384
:101C9000EF93FF938AE792E00E947A07FF91EF911A
:101CA000BF91AF919F918F917F916F915F914F9174
:101CB0003F912F910F900BBE0F900FBE0F901F9072
:101CC00018951F920F920FB60F9211240BB60F9218
:101CD0002F933F934F935F936F937F938F939F9334
:101CE000AF93BF93EF93FF938AE792E00E941F07A1
:101CF000FF91EF91BF91AF919F918F917F916F91E4
:101D00005F914F913F912F910F900BBE0F900FBE9F
:101D10000F901F9018951F920F920FB60F921124DB
:101D20000BB60F922F933F934F935F936F937F93D5
:101D30008F939F93AF93BF93EF93FF938DED9EE0AF
:101D40000E947A07FF91EF91BF91AF919F918F9180
:101D50007F916F915F914F913F912F910F900BBEAB
:101D60000F900FBE0F901F9018951F920F920FB6F5
:101D70000F9211240BB60F922F933F934F935F93C3
:101D80006F937F938F939F93AF93BF93EF93FF9343
:101D90008DED9EE00E941F07FF91EF91BF91AF91E3
:101DA0009F918F917F916F915F914F913F912F9173
:101DB0000F900BBE0F900FBE0F901F9018951F92A3
:101DC0000F920FB60F9211240BB60F922F933F93E1
:101DD0004F935F936F937F938F939F93AF93BF9333
:101DE000EF93FF938BE996E00E947A07FF91EF91C2
:101DF000BF91AF919F918F917F916F915F914F9123
:101E00003F912F910F900BBE0F900FBE0F901F9020
:101E100018951F920F920FB60F9211240BB60F92C6
:101E20002F933F934F935F936F937F938F939F93E2
:101E3000AF93BF93EF93FF938BE996E00E941F0748
:101E4000FF91EF91BF91AF919F918F917F916F9192
:101E50005F914F913F912F910F900BBE0F900FBE4E
:101E60000F901F9018950F931F93CF93DF93ECEB78
:101E7000FAE01382128248EE53E060E070E044839F
:101E80005583668377838BE092E09183808325E39B
:101E900031E03587248724E331E03787268720E344
:101EA00031E0318B208B21E331E0338B228B22E335
:101EB00031E0358B248B26E331E0378B268B128E75
:101EC000118E148E138E168E158E10A2178EEAE7C1
:101ED000F2E0138212824483558366837783918371
:101EE000808325ED30E03587248724ED30E0378787
:101EF000268720ED30E0318B208B21ED30E0338BD5
:101F0000228B22ED30E0358B248B26ED30E0378BB1
:101F1000268B128E118E148E138E168E158E10A295
:101F2000178EEDEDFEE013821282448355836683A3
:101F30007783918380832DEC30E0358724872CECE8
:101F400030E03787268728EC30E0318B208B29EC76
:101F500030E0338B228B2AEC30E0358B248B2EEC57
:101F600030E0378B268B128E118E148E138E168EC8
:101F7000158E10A2178EEBE9F6E0138212824483CD
:101F80005583668377839183808385EC90E0958782
:101F9000848784EC90E09787868780EC90E0918B33
:101FA000808B81EC90E0938B828B82EC90E0958B20
:101FB000848B86EC90E0978B868B128E118E148E1C
:101FC000138E168E158E10A2178EC8E4D6E180E20D
:101FD0008883198260E00E94A40481E28E831F82BC
:101FE00060E00E94A40482E28C871D8660E00E946B
:101FF000A40483E28A8B1B8A60E00E94A40484E22A
:10200000888F198E60E00E94A40485E28E8F1F8E57
:1020100060E00E94A40486E28CA31DA260E00E94FE
:10202000A40487E28AA71BA660E00E94A40468E2D9
:1020300088E396E10E944D0969E28AE396E10E94F5
:102040004D096AE28CE396E10E944D096BE28EE352
:1020500096E10E944D096CE280E496E10E944D09F0
:102060006DE282E496E10E944D096EE284E496E11D
:102070000E944D096FE286E496E10E944D09CCE290
:10208000D6E184E0888361E00E94A40485E08B832C
:1020900061E00E94A40486E08E8361E00E94A404B3
:1020A00087E0898761E00E94A4040CE813E186E3DD
:1020B000F8018083C1E0C18360E00E94A40487E34B
:1020C000F80180AFC1AF60E00E94A40488E3809370
:1020D000FC13C093FD1360E00E94A40489E3809385
:1020E0003414C093351460E00E94A4048AE3809302
:1020F0006C14C0936D1460E00E94A4048BE3809381
:10210000A414C093A51460E00E94A4048CE38093FF
:10211000DC14C093DD1460E00E94A4048DE380937E
:102120001415C093151560E00E94A4048EE38093FB
:102130004C15C0934D1560E00E94A4048FE380937A
:102140008415C093851560E00E94A40480E4809308
:10215000BC15C093BD1560E00E94A40481E4809387
:10216000F415C093F51560E00E94A404C7E8D3E11C
:102170008BE1888362E00E94A4048CE1898362E0A1
:102180000E94A4048DE18A8362E00E94A4048EE18F
:102190008B8362E00E94A4048FE18C8362E00E9442
:1021A000A40481E893E10E948C0C8BE793E10E94E8
:1021B0008C0C85E793E10E948C0C8FE693E10E94E2
:1021C0008C0C89E693E10E948C0C83E693E10E94DB
:1021D0008C0C8DE593E10E948C0C87E593E10E94C5
:1021E0008C0C81E593E10E948C0C8BE493E10E94BE
:1021F0008C0C85E493E10E948C0C8FE393E10E94A8
:102200008C0C89E393E10E948C0C83E393E10E94A0
:102210008C0C8DE293E10E948C0C87E293E10E948A
:102220008C0C81E293E10E948C0C8BE193E10E9483
:102230008C0CE0E1F3E1148215821682178210867D
:1022400080E395E7A0E0B0E080839183A283B3832D
:1022500012861186E7E0F3E180E197E2A0E0B0E0CA
:1022600080839183A283B38314821582168217829E
:102270001086CFEFD2E1188288E189831A8281E04B
:1022800090E09C838B831E821D821F828DED9EE0D9
:102290000E94E80361E089810E94A40461E08981D1
:1022A0000E94760461E086E10E94A40460E086E179
:1022B0000E9476048CEB9AE00E94E8031092FE12D2
:1022C00088E396E10E942E098AE396E10E942E0996
:1022D0008CE396E1DF91CF911F910F910C942E0921
:1022E000CF93DF93CDB7DEB7A1970FB6F894DEBFDB
:1022F0000FBECDBF789484B5826084BD84B5816003
:1023000084BD85B5826085BD85B5816085BD8091C0
:102310006E00816080936E00109281008091810038
:102320008260809381008091810081608093810030
:10233000809180008160809380008091B1008460F2
:102340008093B1008091B00081608093B000809153
:1023500091008260809391008091910081608093D0
:102360009100809190008160809390008091A10005
:1023700082608093A1008091A10081608093A10080
:102380008091A00081608093A000809121018260F3
:1023900080932101809121018160809321018091AE
:1023A000200181608093200180917A008460809375
:1023B0007A0080917A00826080937A0080917A001E
:1023C000816080937A0080917A00806880937A009F
:1023D0001092C1008BE996E00E94E803109200027F
:1023E00068E070E08DE593E10E94DD0A68E070E04E
:1023F00081E593E10E94DD0A68E070E08BE493E1FF
:102400000E94DD0A68E070E08DE293E10E94DD0A3F
:1024100068E070E087E293E10E94DD0A68E070E026
:1024200083E393E10E94DD0A60E270E087E593E1D7
:102430000E94DD0A60E270E085E793E10E94DD0A18
:1024400060E470E08BE793E10E94DD0A60E470E0F5
:1024500089E693E10E94DD0A60E470E083E693E19F
:102460000E94DD0A60E470E08FE393E10E94DD0AE0
:1024700060E870E081E893E10E94DD0A60E870E0C6
:1024800081E293E10E94DD0A60E870E08FE693E16B
:102490000E94DD0A60E071E085E493E10E94DD0ABC
:1024A00060E072E089E393E10E94DD0A60E074E09D
:1024B0008BE193E10E94DD0A6AED71E0811102C0B7
:1024C00064EC71E08BE996E00E94EE076EEA71E041
:1024D0008BE996E00E94630A11E0109318138CE9CF
:1024E00096E090931A13809319130E947F0D109316
:1024F000FF128AE792E00E94E8030CE813E1F8017A
:102500001182085C1F4FF6E10C321F07C1F788E10A
:1025100099E20FB6F894A895809360000FBE90934F
:1025200060001E0120E2220E311CE2E14E2E512CF1
:10253000FCE08F2E912CAAE0AA2EB12C80911813CA
:10254000882339F10E943206C0901413D0901513DD
:10255000E0901613F09017136C197D098E099F09EE
:10256000C0901013D0901113E0901213F090131339
:10257000C616D706E806F90660F4E0911913F09143
:102580001A13309709F4FFC2199584E193E10E9470
:1025900052088091021390910313019709F056C0DD
:1025A0006BE172E08FE693E10E942D0D6BE172E02A
:1025B00089E693E10E942D0D6BE172E083E693E1E1
:1025C0000E942D0D6BE172E08DE593E10E942D0DCF
:1025D0006BE172E087E593E10E942D0D6BE172E003
:1025E00081E593E10E942D0D6BE172E08BE493E1B4
:1025F0000E942D0D6BE172E085E493E10E942D0DA8
:102600006BE172E08FE393E10E942D0D6BE172E0CC
:1026100089E393E10E942D0D1092061360E08091F2
:1026200000130E94760468EE73E080E090E00E9460
:102630003E06882359F061E0809100130E947604E1
:1026400082E090E090930313809302138091021331
:10265000909103130297F1F564EF71E080E090E050
:102660000E943E068823B1F16CE975E0CE01019627
:102670000E94620CCE0101960E94540ACE0101967E
:102680000E94D50A62E975E0CE0101960E94620CB3
:10269000CE0101960E94540ACE0101960E94D50AED
:1026A00067E875E0CE0101960E94620CCE010196AA
:1026B0000E94540ACE0101960E94D50A6AE775E08D
:1026C0008BE996E00E94630A83E090E09093031305
:1026D000809302138091021390910313049709F0E1
:1026E0006EC067E675E08BE996E00E94630A6DE5CF
:1026F00075E0CE0101960E94620CCE0101960E9407
:10270000540ACE0101960E94D50A62E575E0CE0119
:1027100001960E94620CCE0101960E94540ACE01DD
:1027200001960E94D50A67E475E0CE0101960E94E9
:10273000620CCE0101960E94540ACE0101960E94BD
:10274000D50A6CE375E0CE0101960E94620CCE01C1
:1027500001960E94540ACE0101960E94D50A6EE2AB
:1027600075E0CE0101960E94620CCE0101960E9496
:10277000540ACE0101960E94D50A60E275E0CE01AE
:1027800001960E94620CCE0101960E94540ACE016D
:1027900001960E94D50A63E175E0CE0101960E9480
:1027A000620CCE0101960E94540ACE0101960E944D
:1027B000D50A85E090E090930313809302138091F3
:1027C000021390910313069711F568EE73E080E011
:1027D00090E00E943E068823D1F065E075E08BE929
:1027E00096E00E94630A6EEF74E0CE0101960E94AB
:1027F000620CCE0101960E94540ACE0101960E94FD
:10280000D50A87E090E090930313809302138091A0
:10281000021390910313089711F568EE73E080E0BE
:1028200090E00E943E068823D1F06EEE74E08BE9C2
:1028300096E00E94630A64EE74E0CE0101960E9465
:10284000620CCE0101960E94540ACE0101960E94AC
:10285000D50A89E090E0909303138093021380914E
:102860000213909103130A9711F568EE73E080E06C
:1028700090E00E943E068823D1F064ED74E08BE97D
:1028800096E00E94630A6AEC74E0CE0101960E9411
:10289000620CCE0101960E94540ACE0101960E945C
:1028A000D50A8BE090E090930313809302138091FC
:1028B0000213909103130C9711F568EE73E080E01A
:1028C00090E00E943E068823D1F068EB74E08BE92B
:1028D00096E00E94630A67E974E0CE0101960E94C7
:1028E000620CCE0101960E94540ACE0101960E940C
:1028F000D50A8DE090E090930313809302138091AA
:102900000213909103130E97C1F468EE73E080E018
:1029100090E00E943E06882381F062E874E08BE933
:1029200096E00E94630A89E693E10E94540A8FE0D0
:1029300090E090930313809302138091021390917F
:102940000313409781F46CE674E08BE996E00E94F3
:10295000630A83E693E10E94540A81E190E0909338
:1029600003138093021380910213909103134297F3
:1029700079F481E08093FF1283E190E09093031358
:102980008093021368E574E08BE996E00E94630A85
:102990008091021390910313439709F0B3C0809183
:1029A000041390910513892B11F568E873E180E019
:1029B00090E00E943E068823D1F06DE374E08BE93D
:1029C00096E00E94630A66E374E0CE0101960E94DD
:1029D000620CCE0101960E94540ACE0101960E941B
:1029E000D50A81E090E090930513809304138091C1
:1029F000041390910513029711F568E873E180E0E4
:102A000090E00E943E068823D1F069E174E08BE9F2
:102A100096E00E94630A6FE074E0CE0101960E9486
:102A2000620CCE0101960E94540ACE0101960E94CA
:102A3000D50A83E090E0909305138093041380916E
:102A4000041390910513049711F568E873E180E091
:102A500090E00E943E068823D1F062EF73E08BE99C
:102A600096E00E94630A68EE73E0CE0101960E9430
:102A7000620CCE0101960E94540ACE0101960E947A
:102A8000D50A85E090E0909305138093041380911C
:102A90000413909105130697D9F468EC72E380E073
:102AA00090E00E943E06882399F06EEC73E08BE97B
:102AB00096E00E94630A8FE393E10E94540A81E04A
:102AC0008093061387E090E090930513809304139E
:102AD00080910413909105130897A1F460ED77E0BD
:102AE00080E090E00E943E06882361F085E493E157
:102AF0000E94540A1092061389E090E09093051307
:102B0000809304138091F60E9091F70E2091F80EA9
:102B10003091F90E821B930B9170892B09F442C0FE
:102B200078E0C72ED12C772473948091F60E909183
:102B3000F70E2091F80E3091F90E821B930B9170D5
:102B4000892B81F18DED9EE00E944E07F82E809139
:102B50000113882329F06F2D8BE996E00E949F07CF
:102B60003DE0F31609F4D9C24AE0F416F1F2F98215
:102B70001A8241E050E0BE016F5F7F4F8FE693E124
:102B80000E94340BD2CF88E198E00FB6F894A89554
:102B9000809360000FBE90936000FFCF60E070E014
:102BA000CB014FC5809132028823A1F00E947F0D96
:102BB0001092320281E090E090930313809302130D
:102BC000109205131092041361EC73E08BE996E008
:102BD0000E94630A8091FF12811107C06AE070E0D1
:102BE00080E090E00E94FF05A9CC809102138093C1
:102BF000330258E4E52E56E1F52E68E7C62E66E16D
:102C0000D62EC7010E945B0936E0E30EF11CCE14FC
:102C1000DF04B9F74CE8E42E43E1F42EC7010E942B
:102C2000A70948E3E40EF11C0E151F05B9F70E9431
:102C3000E20B0E94990C8091371390913813892BE5
:102C400009F465C070E060E083E393E10E94A006B0
:102C5000C82E61E070E083E393E10E94A006E82EB5
:102C600063E070E083E393E10E94A006F82E64E045
:102C700070E083E393E10E94A006D82E54E4C512CD
:102C8000A6C08AE3E8128FC08F2D0E945E08F82E3E
:102C90008D2D0E945E0890E1F99E90011124F82E7E
:102CA000F22A86E496E1F0FC69C00E942E0984E4D1
:102CB00096E1F1FC66C00E942E0982E496E1F2FCE6
:102CC00063C00E942E0980E496E1F3FC60C00E947C
:102CD0002E098EE396E1F4FC5DC00E942E098CE380
:102CE00096E1F5FC5AC00E942E098AE396E1F6FCB3
:102CF00057C00E942E0988E396E1F7FC65C00E9448
:102D00002E096BE172E083E393E10E942D0D60E0F8
:102D100086E10E94760461E070E080E090E00E942D
:102D2000FF05E090D50AF090D60A8091D70A9091DD
:102D3000D80AE81AF90A51E0F522E114F10409F47D
:102D40006BC08CEB9AE00E944E07F82E682F8BE93F
:102D500096E00E949F078DE0F81609F4FDC49AE002
:102D6000F916F9F2F9821A8241E050E0BE016F5F74
:102D70007F4F81E293E10E94340BD3CF0E943D0943
:102D800096CF0E943D0999CF0E943D099CCF0E9499
:102D90003D099FCF0E943D09A2CF0E943D09A5CFCA
:102DA0000E943D09A8CF8FEC8E0D883008F0A9CF86
:102DB000EE2DE153FF0BCF01880F991F885C994ED0
:102DC000F0E3FF1609F49BCF0E943D099ACF21E45E
:102DD000C21297CF8FEC8E0D853008F092CF8F2DD9
:102DE0000E945E08F82E8D2D0E945E0830E1F39E51
:102DF000B0011124682B4E2D4153550BFA01EE0FF3
:102E0000FF1FE40FF51FE45DF94E70E072836183EC
:102E100080810E94E00475CF0E9432064B015C0164
:102E200080916B0290916C02A0916D02B0916E0244
:102E3000A5019401281B390B4A0B5B0BDA01C90170
:102E4000813D9740A105B10508F482C080915D13D2
:102E500090915E1360E0009711F00E94151C8BE5C5
:102E6000809334028091330280933502609336025E
:102E700080917902809337028091780280933802A2
:102E8000E4E3F2E08CE492E0ACE8B3E1D6962C9176
:102E9000D697D7963C91D79735832683D896329686
:102EA0008E179F0799F780912D1690912E1690936B
:102EB0005102809352028091301690913116909376
:102EC000530280935402809133169091341690935C
:102ED0005502809356028091361690913716909342
:102EE00057028093580289E5C82E82E0D82EB70198
:102EF00087E593E10E94A006F60181936F01FFEF41
:102F0000EF1AFF0A20E1E216F10489F7E5E3F2E0A7
:102F100095E380E0915019F02191820FFBCF8093CF
:102F200069028DE580936A0247E350E064E372E052
:102F30008AE792E00E94B2068AE792E00E940D08BA
:102F400080926B0290926C02A0926D02B0926E021F
:102F500088E496E10E945B098EE496E10E945B0999
:102F600084E596E10E945B098AE596E10E945B098F
:102F700080E696E10E945B098CE893E10E94A70934
:102F800084EC93E10E94A7098CEF93E10E94A709CA
:102F90008CE893E10E9402090E94E0085C0184EC45
:102FA00093E10E9402090E94E0086C018CEF93E11A
:102FB0000E9402090E94E0087C01C5010E94970856
:102FC0004C01C6010E9497083C01C7010E94970866
:102FD0002C0131E2A31633E0B3060CF47FC088E382
:102FE00096E10E943D095BEFC516D1040CF481C047
:102FF0008AE396E10E943D099FE1E916F1040CF491
:1030000082C08CE396E10E943D0990922E16809238
:103010002D16B40180912C160E94E0047092311696
:1030200060923016B30180912F160E94E0045092F6
:10303000341640923316B201809132160E94E00499
:10304000E0904F16FF24F394E110F12C19A280E3D5
:103050008F0D88A3F10101900020E9F73197AF01AE
:1030600042195309B1018BE996E00E94B2068BE93F
:1030700096E00E94370A8091FE12F81629F1F0922C
:10308000FE12EE2009F10E94E20B0E94990C69E306
:1030900073E18BE996E00E943D0A809102139091C2
:1030A0000313439789F480910413909105130797B4
:1030B000049750F06EEE75E08BE996E00E94630A8B
:1030C00089E393E10E94540AA8956AE070E080E0E9
:1030D00090E00E94FF050E942D0827CA4DE1A4162A
:1030E00043E0B4060CF07FCF88E396E10E942E09FE
:1030F0007ACF87EFC816D1040CF07ECF8AE396E131
:103100000E942E0979CFEBE1EE16F1040CF07DCF91
:103110008CE396E10E942E0978CF80910213909162
:1031200003130397E1F46CEB73E085E793E10E94EE
:10313000BA0B8FE693E10E941D0A97FD10C068EA62
:1031400073E08BE996E00E94630A84E090E090933C
:1031500003138093021384E193E10E94520880914B
:10316000021390910313059781F469E973E08BE9E9
:1031700096E00E94630AE6E0F0E0F0930313E09328
:10318000021384E193E10E9452088091021390910E
:1031900003130797D1F463E973E085E793E10E9495
:1031A000BA0B8FE693E10E941D0A97FD0EC06EE7F1
:1031B00073E08BE996E00E94630AD0920313C092F9
:1031C000021384E193E10E945208809102139091CE
:1031D00003130997D1F466E773E085E793E10E9452
:1031E000BA0B8FE693E10E941D0A97FD0EC06FE5B2
:1031F00073E08BE996E00E94630AB0920313A092F9
:10320000021384E193E10E9452088091021390918D
:1032100003130B97D1F467E573E085E793E10E9410
:10322000BA0B8FE693E10E941D0A97FD0EC060E481
:1032300073E08BE996E00E94630A909203138092F8
:10324000021384E193E10E9452088091021390914D
:1032500003130D97E1F462E373E085E793E10E94C5
:10326000BA0B8FE693E10E941D0A97FD10C064E23D
:1032700073E08BE996E00E94630A2EE030E0309321
:1032800003132093021384E193E10E94520880917A
:103290000213909103130F97E1F464E173E085E763
:1032A00093E10E94BA0B8FE693E10E941D0A97FDFD
:1032B00010C063E073E08BE996E00E94630A40E18E
:1032C00050E0509303134093021384E193E10E9472
:1032D000520880910213909103134197D1F46AEF41
:1032E00072E085E793E10E94BA0B8FE693E10E94BA
:1032F0001D0A97FD0EC06BEE72E08BE996E00E940E
:10330000630A509203134092021384E193E10E94F6
:1033100052088091021390910313439709F0A0C0C3
:1033200080910413909105130197E1F465EE72E02A
:1033300085E793E10E94BA0B8FE693E10E941D0A94
:1033400097FD10C060ED72E08BE996E00E94630A81
:1033500082E090E0909305138093041384E193E15D
:103360000E94520880910413909105130397E1F491
:1033700068EC72E085E793E10E94BA0B8FE693E177
:103380000E941D0A97FD10C061EB72E08BE996E088
:103390000E94630AE4E0F0E0F0930513E093041365
:1033A00084E193E10E9452088091041390910513E7
:1033B0000597E1F469EA72E085E793E10E94BA0BB0
:1033C0008FE693E10E941D0A97FD10C062E972E04A
:1033D0008BE996E00E94630A26E030E03093051303
:1033E0002093041384E193E10E9452088091041316
:1033F000909105130797A1F460E972E085E793E1E6
:103400000E94BA0B8FE693E10E941D0A97FD08C047
:10341000D0920513C092041384E193E10E945208F4
:1034200080910413909105130997D1F461E872E03B
:1034300085E793E10E94BA0B8FE693E10E941D0A93
:1034400097FD0EC0109205131092041368E672E007
:103450008BE996E00E94630A84E193E10E9452089E
:1034600061E672E085E793E10E94BA0B8FE693E193
:103470000E941D0A97FD3FC046E150E067E070E002
:10348000CE0101960E94370DBE016F5F7F4F87E529
:1034900093E10E948A0ACE0101960E94D50A87E52F
:1034A00093E10E947208811102C0709232026FE4AF
:1034B00072E089E693E10E94BA0B67E573E189E661
:1034C00093E10E94B30B6EE372E089E693E10E9400
:1034D000050B6BE272E083E693E10E94BA0B67E5AD
:1034E00073E183E693E10E94B30B64E272E083E64A
:1034F00093E10E94050B6CE172E085E793E10E9485
:10350000BA0B8FE693E10E941D0A97FD1DC049E0AA
:1035100050E068E070E0CE0101960E94370DBE01D8
:103520006F5F7F4F81E593E10E948A0ACE01019689
:103530000E94D50A6EE172E081E593E10E94750A6E
:10354000811102C07092320264E172E085E793E17A
:103550000E94BA0B8FE693E10E941D0A97FD1DC0E1
:103560004BE050E068E070E0CE0101960E94370D1C
:10357000BE016F5F7F4F8BE493E10E948A0ACE0108
:1035800001960E94D50A6CE172E08BE493E10E94FF
:10359000750A811102C0709232026EE072E085E716
:1035A00093E10E94BA0B8FE693E10E941D0A97FDFA
:1035B00055C06BE072E085E793E10E94BA0B8FE69D
:1035C00093E10E941D0A7C0169E072E085E793E1C6
:1035D0000E94BA0B8FE693E10E941D0AB7016E5F4D
:1035E0007F4FAC01CE0101960E94370DBE016F5F87
:1035F0007F4F8DE593E10E948A0ACE0101960E94D9
:10360000D50A60E272E08DE593E10E94750A8111AE
:10361000709232028DE593E10E947208811108C018
:103620007092320267E072E08DE593E10E94BA0B7E
:1036300080915D1390915E13009709F4AFCA0E94C8
:10364000151C655071096B31710540F070923202A2
:1036500065E072E08DE593E10E94BA0B6CEF71E0DA
:1036600085E793E10E94BA0B8FE693E10E941D0A61
:1036700097FD1DC04EE050E069E070E0CE0101967C
:103680000E94370DBE016F5F7F4F8DE293E10E9474
:103690008A0ACE0101960E94D50A63E272E08DE2A9
:1036A00093E10E94750A811102C07092320263EFA9
:1036B00071E085E793E10E94BA0B8FE693E10E94E7
:1036C0001D0A97FD1DC040E150E069E070E0CE01A9
:1036D00001960E94370DBE016F5F7F4F87E293E135
:1036E0000E948A0ACE0101960E94D50A69E272E020
:1036F00087E293E10E94750A811102C07092320242
:1037000069EE71E085E793E10E94BA0B8FE693E1E1
:103710000E941D0A97FD19C04EE250E069E270E078
:10372000CE0101960E94370DBE016F5F7F4F83E38C
:1037300093E10E948A0ACE0101960E94D50A63E3B2
:1037400073E18BE996E00E943D0A6BE172E08FE63F
:1037500093E10E942D0DE9C96BEE75E085E793E1D9
:103760000E94BA0B81E293E10E941D0A97FDD9CA1B
:1037700061E086E10E94760462E070E080E090E023
:103780000E94FF056CEB75E08CEB9AE00E94630AE7
:103790008CEB9AE00E940D08C4CA8BE193E10E9471
:1037A000D50A81E293E10E94D50A87E293E10E9463
:1037B000D50A8DE293E10E94D50A83E393E10E944A
:1037C000D50A89E393E10E94D50A8FE393E10E9431
:1037D000D50A85E493E10E94D50A8BE493E10E9427
:1037E000D50A81E593E10E94D50A87E593E10E941D
:1037F000D50A8DE593E10E94D50A83E693E10E9404
:10380000D50A89E693E10E94D50A8FE693E10E94EA
:10381000D50A85E793E10E94D50A8BE793E10E94E0
:10382000D50A81E893E10C94D50A1F93FC019927EE
:103830008827BC01E89411911032E9F3193010F097
:103840001E30C8F31B3251F01D3249F4689406C093
:103850000E94571C610F711D811D911D1191105304
:103860001A30B0F33EF490958095709561957F4F36
:103870008F4F9F4F1F910895FB01DC0105900D9222
:103880000020E1F70895FC0105900020E9F78095FC
:1038900090958E0F9F1F0895BB274A3031F49923CE
:1038A00022F4BDE2909581959F4F0C946D1C592F89
:1038B000482F372F262F660F771F881F991F660FF7
:1038C000771F881F991F620F731F841F951F660F34
:1038D000771F881F991F0895BB27FB015527AA272B
:1038E000880F991FAA1FA41710F0A41B839550518D
:1038F000B9F7A05DAA3308F0A95DA193009779F705
:10390000B111B1931192CB010C94861CDC01FC0126
:10391000672F71917723E1F7329704C07C916D9303
:1039200070836291AE17BF07C8F30895052E97FB09
:103930001EF400940E94AD1C57FD07D00E94C01CCD
:1039400007FC03D04EF40C94AD1C50954095309577
:1039500021953F4F4F4F5F4F0895909580957095FB
:1039600061957F4F8F4F9F4F08950E94E21CA59F46
:10397000900DB49F900DA49F800D911D112408956A
:10398000A1E21A2EAA1BBB1BFD010DC0AA1FBB1F63
:10399000EE1FFF1FA217B307E407F50720F0A21BD5
:1039A000B30BE40BF50B661F771F881F991F1A9442
:1039B00069F760957095809590959B01AC01BD016C
:1039C000CF010895A29FB001B39FC001A39F700DC6
:1039D000811D1124911DB29F700D811D1124911D17
:1039E000089597FB072E16F4009407D077FD09D0B1
:1039F0000E940D1D07FC05D03EF4909581959F4FC8
:103A00000895709561957F4F0895EE0FFF1F881FF1
:103A10008BBF0790F691E02D1994AA1BBB1B51E1B7
:103A200007C0AA1FBB1FA617B70710F0A61BB70B2E
:103A3000881F991F5A95A9F780959095BC01CD01D3
:103A400008950F931F93CF93DF938230910510F465
:103A500082E090E0E0917A16F0917B1630E020E071
:103A6000B0E0A0E0309799F42115310509F44AC07F
:103A7000281B390B24303105D8F58A819B816115CB
:103A8000710589F1FB0193838283FE0111C040819E
:103A900051810281138148175907E0F048175907EF
:103AA00099F4109761F012960C93129713961C9349
:103AB0003296CF01DF91CF911F910F91089500931E
:103AC0007A1610937B16F4CF2115310551F0421769
:103AD000530738F0A901DB019A01BD01DF01F801AC
:103AE000C1CFEF01F9CF90937B1680937A16CDCF9B
:103AF000FE01E20FF31F8193919322503109398324
:103B00002883D7CF2091781630917916232B41F452
:103B10002091030230910402309379162093781695
:103B200020910102309102022115310541F42DB797
:103B30003EB74091050250910602241B350BE091DF
:103B40007816F0917916E217F307A0F42E1B3F0BBD
:103B50002817390778F0AC014E5F5F4F24173507FF
:103B600048F04E0F5F1F509379164093781681935B
:103B700091939FCFF0E0E0E09CCFCF93DF9300974D
:103B8000E9F0FC01329713821282A0917A16B0916B
:103B90007B16ED0130E020E01097A1F42081318107
:103BA000820F931F209178163091791628173907C4
:103BB00009F061C0F0937916E0937816DF91CF9108
:103BC0000895EA01CE17DF07E8F54A815B819E017F
:103BD00041155105B1F7E901FB83EA8349915991F8
:103BE000C40FD51FEC17FD0761F480819181029607
:103BF000840F951FE90199838883828193819B8338
:103C00008A83F0E0E0E012968D919C9113970097E3
:103C1000B9F52D913C911197CD010296820F931F1A
:103C200020917816309179162817390739F6309790
:103C300051F510927B1610927A16B0937916A093D4
:103C40007816BCCFD383C28340815181840F951FE6
:103C5000C817D90761F44E5F5F4F88819981480F7B
:103C6000591F518340838A819B81938382832115CD
:103C7000310509F0B0CFF0937B16E0937A169ECF12
:103C8000FD01DC01C0CF13821282D7CF4F925F9229
:103C90006F927F928F929F92AF92BF92CF92DF925C
:103CA000EF92FF920F931F93CF93DF938C010097B6
:103CB00099F4CB01DF91CF911F910F91FF90EF907D
:103CC000DF90CF90BF90AF909F908F907F906F903C
:103CD0005F904F900C94211DFC01E60FF71F9C0193
:103CE00022503109E217F30708F4AEC0D901CD9193
:103CF000DC911197C617D70720F1C530D10578F0B0
:103D0000CE0104978617970750F0C61BD70B229752
:103D1000C193D1936D937C93CF010E94BD1DC801C7
:103D2000DF91CF911F910F91FF90EF90DF90CF9097
:103D3000BF90AF909F908F907F906F905F904F90CB
:103D400008955B01AC1ABD0A4C018C0E9D1EA0911A
:103D50007A16B0917B16512C412CF12CE12C109746
:103D600031F580917816909179168815990509F0AA
:103D70005CC04616570608F058C080910102909129
:103D80000202009741F48DB79EB740910502509111
:103D90000602841B950BE817F90708F055C0F0934D
:103DA0007916E0937816F90171836083B8CF8D910D
:103DB0009C91119712966C90129713967C90139782
:103DC000A815B90559F56C0142E0C40ED11CCA14FE
:103DD000DB0420F1AC014A195B09DA011296159750
:103DE00080F06282738251834083D9016D937C930A
:103DF000E114F10471F0D7011396FC93EE9312973E
:103E00008ECF22968C0F9D1FF90191838083F30141
:103E1000EFCFF0937B16E0937A1681CF48165906C0
:103E200008F42C017D01D3019ACFCB010E94211D02
:103E30007C01009749F0AE01B8010E94271FC8011C
:103E40000E94BD1D87016BCF10E000E068CFFB0131
:103E5000DC0102C001900D9241505040D8F7089506
:103E6000FB01DC018D91019080190110D9F3990BB0
:103E70000895FB01DC0101900D920020E1F7089507
:103E8000FB0151915523A9F0BF01DC014D9145176C
:103E90004111E1F759F4CD010190002049F04D9115
:103EA00040154111C9F3FB014111EFCF81E090E0D2
:103EB0000197089513E0C4EBD3E000E006C0802F23
:103EC000FE010E94051D2196011DC53BD10780E022
:083ED0000807A9F7F894FFCFE1
:103ED8000100007C168000000000009F07B2063C2D
:103EE800070D0891064E0768070D0A00302C3100AF
:103EF800393900302C302C3000302C312C302C301B
:023F08000000B7
:00000001FF
