:100000000C94AF030C94E0030C94E0030C94E00315
:100010000C94E0030C94E0030C94E0030C94E003D4
:100020000C94E0030C94E0030C94E0030C94E003C4
:100030000C94E0030C94E0030C94E0030C94E003B4
:100040000C94E0030C94E0030C94E0030C94E003A4
:100050000C94E0030C94E0030C94E0030C944E0A1F
:100060000C94E0030C94BE0B0C94940B0C94E003E2
:100070000C94E0030C94E0030C94E0030C94E00374
:100080000C94E0030C94E0030C94E0030C94E00364
:100090000C946A0B0C94400B0C94E0030C94E0035A
:1000A0000C94E0030C94E0030C94E0030C94E00344
:1000B0000C94E0030C94E0030C94E0030C94E00334
:1000C0000C94E0030C94E0030C94E0030C94160BE6
:1000D0000C94EC0A0C94E0030C94C20A0C94980A59
:1000E0000C94E0030C946B160C94E11B0C946204CA
:1000F0000C9454040C94B4050C94E80B0C94D505A2
:100100000C9475160C941F160C9430070C945A041A
:100110000C9431040C943D160C945E040C946C0405
:100120000C9439040C94BF050C9447160C943C04B1
:100130000C9429160C942D040C9484160C945004E1
:100140000C9424160C9471060C945F060C948B0688
:100150000C9446040C94C2060C9498160C94350426
:100160000C9467040C9442040C9461160C94B6161B
:100170000C94AC160C9427040C94A2160C94331611
:100180000C948E160C944F160C9468040C944C042A
:100190000C9457160D0A3D3D3D204E42494F5420C8
:1001A0005354415254203D3D3D005B537472696E7F
:1001B00067205370616365204E4F54204F4B5D00A4
:1001C0005B537472205370616365204F4B5D000078
:1001D0002B514D54524543563A002B514D545355D3
:1001E000423A002B514D545055423A0030003000F5
:1001F0002C003A20002B4353513A002B43455245E3
:10020000473A002B43474154543A002F6F75742CE2
:10021000300041542B514D545355423D302C312C1C
:100220007267742F002C747377682C31576F3D5BA5
:10023000367641306D0041542B514D54434F4E4E54
:100240003D302C6465765F002B4347534E3A000DDA
:100250000A46494E49534820524547554C41522081
:100260005055424C495348002B514D545055423A39
:1002700020302C302C30003E000D0A46494E4953A8
:10028000482047455454494E47204345524547006E
:100290002B43455245473A000D0A46494E495348BB
:1002A0002047455454494E47204347415454002B5E
:1002B00043474154543A000D0A46494E4953482099
:1002C00047455454494E4720435351002B43535103
:1002D0003A000D0A53554220544F504943204F4B8A
:1002E000002B514D545355423A000D0A434F4E4E88
:1002F0004543544544204D515454002B514D5443D3
:100300004F4E4E3A20302C302C30000D0A4F5045C5
:100310004E4544204D515454002B514D544F50459F
:100320004E3A20302C30000D0A46494E49534820A1
:1003300047455454494E47204345524547002B43B7
:10034000455245473A000D0A46494E495348204711
:10035000455454494E47204347415454002B43478A
:100360004154543A000D0A46494E495348204745E6
:100370005454494E4720435351002B4353513A00A4
:100380000D0A46494E495348205345545550000DD7
:100390000A46494E4953482057414954494E47203F
:1003A0004950002B49503A005B534F46545F524529
:1003B0005345545D000D0A45584543555445205258
:1003C0004547554C4152205055424C4953480041F5
:1003D000542B43455245473F000D0A5B434F4E4E59
:1003E00045435445445D205155455259494E472097
:1003F00043455245470041542B43474154543F0025
:100400000D0A5B434F4E4E45435445445D205155C4
:10041000455259494E472043474154540041542BBB
:10042000435351000D0A5B434F4E4E4543544544E0
:100430005D205155455259494E4720435351000DB7
:100440000A46494E49534820494E4954204E424994
:100450004F54000D0A53554253435242494E4720D0
:10046000544F5049432E2E2E000D0A434F4E4E45F9
:100470004354494E47204D5154542E2E2E00415482
:100480002B514D544F50454E3D302C696F742E7298
:1004900065632D67742E636F6D2C31383830000D15
:1004A0000A4F50454E494E47204D5154542E2E2E42
:1004B0000041542B43455245473F000D0A474554E0
:1004C00054494E472043455245470041542B43472A
:1004D0004154543F000D0A47455454494E47204368
:1004E000474154540041542B435351000D0A474592
:1004F0005454494E47204353510041542B514D54BD
:10050000444953433D300041542B514D54434C4FCB
:1005100053453D300041542B4345445258533D30E0
:100520002C350041542B4353434F4E3D3000415432
:100530002B4350534D533D300041542B5153434CAA
:100540004B3D300041542B4346554E3D31000D0A82
:1005500053455454494E47205550204E42494F541C
:10056000000D0A57616974696E6720495000415453
:100570002B5153434C4B3D300041542B4347534E7A
:100580003D310041542B5149444E534346473D3081
:100590002C382E382E382E382C3232332E352E353C
:1005A0002E350000000000000000000000002C00BC
:1005B0002F696E2C0041542B514D545055423D3003
:1005C0002C302C302C302C7267742F007D0022616F
:1005D0006F7574223A002C002261696E223A002C59
:1005E0000022646F7574223A002C002264696E2226
:1005F0003A002C007B22637371223A005D002C00CC
:100600005B005D002C005B00000020002300260042
:1006100029002C002F003200000100000301060118
:1006200009015B48656C6C6F2066726F6D205247E4
:10063000542048656C6C6F2066726F6D2052475471
:100640002048656C6C6F2066726F6D205247545D58
:100650000041540000002100240027002A002D0042
:100660003000330001010000040107010A0100000D
:100670002200250028002B002E003100340002014A
:100680000000050108010B0105050505070508081F
:100690000808020202020A0A08080404040401010C
:1006A0000101010101010303030303030303040721
:1006B00007070C0C0C0C0C0C0C0C020202020606B8
:1006C0000606060606060B0B0B0B0B0B0B0B0102AB
:1006D0001020200808102040102040800201020154
:1006E000080402010102040810204080804020100C
:1006F0000804020180040201804020100804020165
:1007000008040201010204081020408001020408CC
:100710001020408000000A0B02090C0D0E08070390
:1007200004010000000000000000000000000000C4
:1007300000000000000000000000000000000000B9
:100740001211100000000000000000000000000076
:1007500000000000000000000000E80BE11B112475
:100760001FBECFEFD1E2DEBFCDBF00E00CBF12E075
:10077000A0E0B2E0EAE9FEE300E00BBF02C00790B0
:100780000D92A233B107D9F726E1A2E3B2E001C08E
:100790001D92A03AB207E1F713E0CEEAD3E000E001
:1007A00006C021970109802FFE010E94FA1CCD3A54
:1007B000D10780E00807A9F70E946D0E0C943B1F3B
:1007C0000C940000FC01A089B18982E08C93A4857F
:1007D000B5851C92A685B7858FEC8C93108EA48965
:1007E000B58986E08C93A289B3898C9180618C93C2
:1007F000A289B3898C9188608C93A289B3898C91EA
:1008000080688C930288F389E02D80818F7D8083BE
:1008100008958150823108F05AC0E82FF0E088270F
:10082000EB5EFB4F8F4F0C94FA1C35043904270400
:100830002D04310467043C04420446044C04500473
:1008400054045A045E046704620468046C048091D2
:1008500080008F77809380000895809180008F7D45
:10086000F9CF80918000877FF5CF84B58F7784BDE5
:10087000089584B58F7DFBCF8091B0008F778093F2
:10088000B00008958091B0008F7DF9CF80919000E5
:100890008F77809390000895809190008F7DF9CF9D
:1008A00080919000877FF5CF8091A0008F77809313
:1008B000A00008958091A0008F7DF9CF8091A000C5
:1008C000877FF5CF809120018F7780932001089555
:1008D000809120018F7DF9CF80912001877FF5CF16
:1008E0001F93CF93DF93282F30E0F901EC5EF84F90
:1008F0008491F901E253F94FD491F901E857F94F86
:10090000C491CC23A9F0162F81110E940904EC2F69
:10091000F0E0EE0FFF1FE259F94FA591B4918FB7A8
:10092000F894EC91111108C0D095DE23DC938FBFB1
:10093000DF91CF911F910895DE2BF8CFCF93DF93F6
:1009400090E0FC01E253F94F24918857994FFC0144
:1009500084918823C9F090E0880F991FFC01EC5A1C
:10096000F94FA591B491FC01E259F94FC591D49189
:1009700061110DC09FB7F8948C91209582238C93C0
:100980008881282328839FBFDF91CF91089562300B
:1009900051F49FB7F8943C91822F809583238C93D8
:1009A000E8812E2BEFCF8FB7F894EC912E2B2C9360
:1009B0008FBFEACF863308F0865320917B00982FB3
:1009C0009870277F922B90937B002091000290E4F7
:1009D000299F900111248770822B80937C00809145
:1009E0007A00806480937A0080917A0086FDFCCF43
:1009F000809178009091790008953FB7F8948091A4
:100A0000760290917702A0917802B091790226B592
:100A1000A89B05C02F3F19F00196A11DB11D3FBF36
:100A2000BA2FA92F982F8827BC01CD01620F711D05
:100A3000811D911D42E0660F771F881F991F4A95FF
:100A4000D1F708958F929F92AF92BF92CF92DF928B
:100A5000EF92FF926B017C010E94FD044B015C014F
:100A6000C114D104E104F104B9F00E94FD04681935
:100A700079098A099B09683E73408105910580F3D5
:100A800021E0C21AD108E108F10888EE880E83E05F
:100A9000981EA11CB11CE4CFFF90EF90DF90CF9087
:100AA000BF90AF909F908F9008952FB7F89460916A
:100AB00072027091730280917402909175022FBF3F
:100AC00008958F929F92AF92BF92CF92DF92EF9252
:100AD000FF926B017C010E94550580902F1390902E
:100AE0003013A0903113B09032139B01AC01281940
:100AF00039094A095B0949015A018091331381116F
:100B00000DC00E94550560932F137093301380938E
:100B100031139093321381E080933313C814D904B6
:100B2000EA04FB0410F4109233130E9455058090E0
:100B30002F1390903013A0903113B0903213681996
:100B400079098A099B0921E0C616D706E806F90645
:100B500008F020E0822FFF90EF90DF90CF90BF90C1
:100B6000AF909F908F900895FC01218D328D838DE1
:100B7000948DA901481B590BCA019170089581E019
:100B8000809332020895FC01248135816217730736
:100B900048F480819181009729F0860F971FFC010E
:100BA0008081089580E008950895AF92BF92CF921A
:100BB000DF92EF92FF920F931F93CF93DF936C011D
:100BC0007B018B01040F151FEB015E01AE18BF08FE
:100BD000C017D10759F06991D601ED91FC910190B0
:100BE000F081E02DC6011995892B79F7C501DF91B8
:100BF000CF911F910F91FF90EF90DF90CF90BF901A
:100C0000AF9008952091D50A3091D60A8091D70AE5
:100C10009091D80A281B390B317081E0232B09F4FD
:100C200080E0089520919302309194028091950282
:100C300090919602281B390B317081E0232B09F427
:100C400080E008952091F60E3091F70E8091F80E15
:100C50009091F90E281B390B317081E0232B09F498
:100C600080E008952091B4063091B5068091B606D3
:100C70009091B706281B390B317081E0232B09F4C2
:100C800080E00895FC01A089B1898C91A689B7897B
:100C900082FD13C02C91818D928D01969170438DB0
:100CA000548D8417950751F0A18DB28DAE0FBF1FE3
:100CB00091962C93928F818F08958C9108954FB7C0
:100CC000F894FC01258D368D878D90A14FBF281794
:100CD000390728F081509E4F821B930B089501978E
:100CE000FBCFFC01218D328D838D948D2817390720
:100CF00079F0A38DB48DAE0FBF1F91968C91238D8B
:100D0000348D2F5F3F4F3170348F238F90E00895E3
:100D10008FEF9FEF0895FC01218D328D838D948D8F
:100D20002817390739F0838D948DE80FF91F81A1B9
:100D300090E008958FEF9FEF0895FC01A78DB0A17B
:100D4000A80FB91FAF5DBD4F2C91878D90A1019663
:100D5000917090A3878FA689B7892C93A089B189B8
:100D60008C91837080648C93258D368D878D90A1B6
:100D70002817390731F40288F389E02D80818F7DAF
:100D800080830895FF920F931F93CF93DF93EC011D
:100D900081E0888F2D8D3E8D8F8D98A12817390782
:100DA000C9F4E889F989808185FF14C09FB7F89458
:100DB000EE89FF896083E889F98980818370806486
:100DC00080839FBF81E090E0DF91CF911F910F91D1
:100DD000FF900895F62E0D8D1E8D0F5F1F4F117021
:100DE0008F8D98A18017910761F40FB607FCF8CF9B
:100DF000E889F989808185FFF3CFCE010E949D06A5
:100E0000EFCFED8DFE8DEC0FFD1FEF5DFD4FF082FE
:100E10009FB7F8941E8F0D8FEA89FB8980818062CD
:100E2000CFCFEF92FF920F931F93CF93DF938C015D
:100E30007B01D0E0C0E0F701EC0FFD1F6491662359
:100E400039F0C8010E94C206892B11F02196F3CF18
:100E5000CE01DF91CF911F910F91FF90EF900895F8
:100E6000CF93DF93EC01888D8823B9F0AA89BB89E1
:100E7000E889F9898C9185FD03C0808186FD0DC0CC
:100E80000FB607FCF7CF8C9185FFF2CF808185FFED
:100E9000EDCFCE010E949D06E9CFDF91CF9108955D
:100EA00080E090E0892B29F00E94320681110E9497
:100EB000000080E090E0892B29F00E942206811139
:100EC0000E94000080E090E0892B29F00E94120629
:100ED00081110E94000080E090E0892B29F00E949F
:100EE000020681110C9400000895CF93DF93EC016A
:100EF0000E945505688379838A839B83DF91CF9114
:100F00000895982F80ED890F8A3070F08FEB890F4C
:100F1000863018F489EC890F08958FE9890F86309F
:100F200010F489EAF8CF80E00895EF92FF920F93D2
:100F30001F93CF93DF938C01FC01E480F580D0E018
:100F4000C0E0EC16FD0661F0BE01C8010E94C305B9
:100F5000082E000C990BC0970A9750F42196F1CFF8
:100F600081E0DF91CF911F910F91FF90EF90089555
:100F700080E0F7CFCF93DF93FC012181222331F072
:100F8000EC0160E080810E9470041982DF91CF91B2
:100F90000895CF93DF93FC012181211107C0EC015B
:100FA00061E080810E94700481E08983DF91CF91AC
:100FB0000895CF93DF93EC01862F6883198261E057
:100FC0000E949E04CE01DF91CF910C94BA07CF937B
:100FD000DF93FC0124813581232B81F0C081D181F5
:100FE0006091991370919A13CE010E94211F00976E
:100FF00029F08C1B9D0BDF91CF9108958FEF9FEF10
:10100000FACF42E050E069E172E00C94D5050F930D
:101010001F93CF93DF93EC01FB01448155816081E5
:1010200071810E94D5058C01CE010E940108800FBC
:10103000911FDF91CF911F910F910895BC018DED0C
:101040009EE00E9407088DED9EE00E94300762E05E
:1010500070E080E090E00C9422050F931F93CF93F3
:10106000DF93EC010E9411078C01CE010E94010860
:10107000800F911FDF91CF911F910F910895FC0177
:1010800024813581232B39F421E0FB0180818823E1
:1010900049F020E007C0808191810E94111F21E06A
:1010A000892BB9F7822F08950F931F93CF93DF9366
:1010B0008C01EB01FC01808191810097E1F0688156
:1010C000798161157105A9F0428153812C813D819F
:1010D0004217530770F00E941A1F8C819D81F801FE
:1010E000958384831D821C82DF91CF911F910F9184
:1010F00008950E949E1D88819981F80191838083C3
:101100008A819B81938382838C819D819583848353
:10111000198218821B821A82E5CFCF93DF93EC01EC
:1011200088819981009711F00E949E1D1982188272
:101130001D821C821B821A82DF91CF910895FC01CF
:1011400080819181009711F00C949E1D08950F935A
:101150001F93CF93DF93EC0188819981009759F019
:101160002A813B812617370730F081E0DF91CF914C
:101170001F910F9108958B016F5F7F4F0E94271E73
:10118000009759F0998388831B830A832C813D81C2
:10119000232B59F7FC011082E8CF80E0E7CFEF92D4
:1011A000FF920F931F93CF93DF936115710541F465
:1011B00080E0DF91CF911F910F91FF90EF90089504
:1011C0007B01EC01CB010E94571C0097A9F00C8118
:1011D0001D81080F191FB801CE010E94A70888239E
:1011E00039F3288139818C819D81B701820F931F4A
:1011F0000E94501C1D830C8381E0DBCFEF92FF9295
:101200000F931F93CF93DF936115710541F480E035
:10121000DF91CF911F910F91FF90EF9008954115AD
:101220005105B1F07B01EC010C811D81040F151FEC
:10123000B8010E94A708882351F3288139818C8145
:101240009D81B701820F931F0E941A1F1D830C837B
:1012500081E0DECF0F931F93CF93DF9300D01F92D7
:10126000CDB7DEB74AE08E010F5F1F4FB80190E0A7
:101270000E94601CF80101900020E9F73197AF014E
:10128000401B510BB80189E693E10E94FE080F90C4
:101290000F900F900F90DF91CF911F910F910895B4
:1012A000EF92FF920F931F93CF93DF9300D000D064
:1012B0001F92CDB7DEB77C01CB014AE08E010F5FF4
:1012C0001F4FB8010E94801CF80101900020E9F72F
:1012D0003197AF01401B510BB801C7010E94FE08B6
:1012E00027960FB6F894DEBF0FBECDBFDF91CF912A
:1012F0001F910F91FF90EF900895FB01448155815C
:10130000608171810C94FE08EF92FF920F931F93FE
:10131000CF93DF93EC018B016115710551F0CB0187
:101320000E94571C7C01BC01CE010E94A7088111BC
:101330000BC0CE010E948D08CE01DF91CF911F918D
:101340000F91FF90EF900895FD82EC82B8018881A3
:1013500099810E94501CF0CFFC01118210821382EF
:101360001282158214820C9484098DED9EE00E94F5
:101370007106181619063CF461E070E080E090E018
:101380000E942205F2CF6FEC71E083E993E10E94A5
:1013900084096AE070E080E090E00C942205EF920E
:1013A000FF920F931F93CF93DF93EC017B018A0190
:1013B000BA010E94A70881110BC0CE010E948D08BE
:1013C000CE01DF91CF911F910F91FF90EF90089583
:1013D0001D830C83B701888199810E941A1FF0CF69
:1013E000FC0111821082138212821582148250E055
:1013F00040E06BE172E00C94CF09CF92DF92EF9264
:10140000FF920F931F93CF93DF937C016B018A01AF
:101410004617570720F48D2D6A01062F182FC70194
:101420000E94F009C0919713D0919813CC16DD0655
:1014300038F50C171D0708F4E801E0919313F091BB
:101440009413EC0FFD1F1081108260919313709123
:1014500094136C0D7D1D61157105E1F0FB01019088
:101460000020E9F73197AF01461B570BC7010E94D7
:10147000CF098091931390919413C80FD91F1883AB
:10148000C701DF91CF911F910F91FF90EF90DF90F7
:10149000CF900895C7010E948D08EBCF1F920F9245
:1014A0000FB60F9211242F933F938F939F93AF9377
:1014B000BF938091720290917302A0917402B091D7
:1014C00075023091710223E0230F2D3758F50196F4
:1014D000A11DB11D2093710280937202909373023B
:1014E000A0937402B0937502809176029091770276
:1014F000A0917802B09179020196A11DB11D80934F
:10150000760290937702A0937802B0937902BF910C
:10151000AF919F918F913F912F910F900FBE0F90A0
:101520001F90189526E8230F0296A11DB11DD2CF5A
:101530001F920F920FB60F9211240BB60F922F939A
:101540003F934F935F936F937F938F939F93AF934B
:10155000BF93EF93FF938CEB9AE00E949D06FF915F
:10156000EF91BF91AF919F918F917F916F915F911B
:101570004F913F912F910F900BBE0F900FBE0F9088
:101580001F9018951F920F920FB60F9211240BB651
:101590000F922F933F934F935F936F937F938F930C
:1015A0009F93AF93BF93EF93FF938CEB9AE00E94CE
:1015B0004206FF91EF91BF91AF919F918F917F91E3
:1015C0006F915F914F913F912F910F900BBE0F90B4
:1015D0000FBE0F901F9018951F920F920FB60F928B
:1015E00011240BB60F922F933F934F935F936F93FA
:1015F0007F938F939F93AF93BF93EF93FF938AE76C
:1016000092E00E949D06FF91EF91BF91AF919F9153
:101610008F917F916F915F914F913F912F910F909B
:101620000BBE0F900FBE0F901F9018951F920F9238
:101630000FB60F9211240BB60F922F933F934F9337
:101640005F936F937F938F939F93AF93BF93EF932A
:10165000FF938AE792E00E944206FF91EF91BF91CB
:10166000AF919F918F917F916F915F914F913F913A
:101670002F910F900BBE0F900FBE0F901F901895DB
:101680001F920F920FB60F9211240BB60F922F9349
:101690003F934F935F936F937F938F939F93AF93FA
:1016A000BF93EF93FF938DED9EE00E949D06FF9107
:1016B000EF91BF91AF919F918F917F916F915F91CA
:1016C0004F913F912F910F900BBE0F900FBE0F9037
:1016D0001F9018951F920F920FB60F9211240BB600
:1016E0000F922F933F934F935F936F937F938F93BB
:1016F0009F93AF93BF93EF93FF938DED9EE00E9476
:101700004206FF91EF91BF91AF919F918F917F9191
:101710006F915F914F913F912F910F900BBE0F9062
:101720000FBE0F901F9018951F920F920FB60F9239
:1017300011240BB60F922F933F934F935F936F93A8
:101740007F938F939F93AF93BF93EF93FF938BE917
:1017500096E00E949D06FF91EF91BF91AF919F91FE
:101760008F917F916F915F914F913F912F910F904A
:101770000BBE0F900FBE0F901F9018951F920F92E7
:101780000FB60F9211240BB60F922F933F934F93E6
:101790005F936F937F938F939F93AF93BF93EF93D9
:1017A000FF938BE996E00E944206FF91EF91BF9173
:1017B000AF919F918F917F916F915F914F913F91E9
:1017C0002F910F900BBE0F900FBE0F901F9018958A
:1017D000EF92FF920F931F93CF93DF93ECEBFAE01E
:1017E0001382128248EE53E060E070E04483558338
:1017F000668377838BE092E09183808325E331E0F9
:101800003587248724E331E03787268720E331E0DA
:10181000318B208B21E331E0338B228B22E331E0CB
:10182000358B248B26E331E0378B268B128E118E7D
:10183000148E138E168E158E10A2178EEAE7F2E024
:1018400013821282448355836683778391838083D6
:1018500025ED30E03587248724ED30E03787268773
:1018600020ED30E0318B208B21ED30E0338B228B6B
:1018700022ED30E0358B248B26ED30E0378B268B44
:10188000128E118E148E138E168E158E10A2178E38
:10189000EDEDFEE0138212824483558366837783E5
:1018A000918380832DEC30E0358724872CEC30E069
:1018B0003787268728EC30E0318B208B29EC30E00D
:1018C000338B228B2AEC30E0358B248B2EEC30E0EE
:1018D000378B268B128E118E148E138E168E158ECC
:1018E00010A2178EEBE9F6E013821282448355832F
:1018F000668377839183808385EC90E095878487E6
:1019000084EC90E09787868780EC90E0918B808BC9
:1019100081EC90E0938B828B82EC90E0958B848BB2
:1019200086EC90E0978B868B128E118E148E138E20
:10193000168E158E10A2178ECCE6D6E180E2888333
:10194000198260E00E949E0481E28E831F8260E023
:101950000E949E0482E28C871D8660E00E949E04A5
:1019600083E28A8B1B8A60E00E949E0484E2888F57
:10197000198E60E00E949E0485E28E8F1F8E60E0CB
:101980000E949E0486E28CA31DA260E00E949E0439
:1019900087E28AA71BA660E00E949E0468E28CE5AD
:1019A00096E10E94D90769E28EE596E10E94D90787
:1019B0006AE280E696E10E94D9076BE282E696E150
:1019C0000E94D9076CE284E696E10E94D9076DE295
:1019D00086E696E10E94D9076EE288E696E10E94CB
:1019E000D9076FE28AE696E10E94D90700E516E181
:1019F00084E0F801808361E00E949E0485E0F801A4
:101A0000838361E00E949E0486E0F801868361E0A2
:101A10000E949E0487E0F801818761E00E949E0495
:101A200080EBE82E83E1F82E86E3F701808311E056
:101A3000118360E00E949E0487E3F70180AF11AF3D
:101A400060E00E949E0488E3809320141093211488
:101A500060E00E949E0489E3809358141093591407
:101A600060E00E949E048AE3809390141093911486
:101A700060E00E949E048BE38093C8141093C91405
:101A800060E00E949E048CE3809300151093011582
:101A900060E00E949E048DE3809338151093391501
:101AA00060E00E949E048EE3809370151093711580
:101AB00060E00E949E048FE38093A8151093A915FF
:101AC00060E00E949E0480E48093E0151093E1158D
:101AD00060E00E949E0481E480931816109319160A
:101AE00060E00E949E040BEA13E18BE1F801808321
:101AF00062E00E949E048CE1F801818362E00E9412
:101B00009E048DE1F801828362E00E949E048EE1D2
:101B1000F801838362E00E949E048FE1F8018483D0
:101B200062E00E949E0485EA93E10E94F0098FE939
:101B300093E10E94F00989E993E10E94F00983E9A9
:101B400093E10E94F0098DE893E10E94F00987E893
:101B500093E10E94F00981E893E10E94F0098BE78C
:101B600093E10E94F00985E793E10E94F0098FE676
:101B700093E10E94F00989E693E10E94F00983E66F
:101B800093E10E94F0098DE593E10E94F00987E559
:101B900093E10E94F00981E593E10E94F0098BE452
:101BA00093E10E94F00985E493E10E94F0098FE33C
:101BB00093E10E94F009E4E3F3E1148215821682B6
:101BC0001782108680E395E7A0E0B0E080839183E0
:101BD000A283B38312861186EBE2F3E180E197E200
:101BE000A0E0B0E080839183A283B3831482158246
:101BF00016821782108603E213E1F801108288E151
:101C00008183128281E090E094838383168215821F
:101C100017828DED9EE00E94E20361E0F801818170
:101C20000E949E0461E0F80181810E94700461E0DD
:101C300086E10E949E0460E086E10E9470048CEBC5
:101C40009AE00E94E203E7E0F3E184EF91E09383FE
:101C5000828380E293E0958384838CE596E1978389
:101C600086838EE596E19187808780E696E193876B
:101C7000828782E696E19587848784E696E1978756
:101C8000868786E696E1918B808B88E696E1938B3A
:101C9000828BD58BC48B82E796E1978B868B108ED7
:101CA000118E128E138E82E090E091838083EEEF8E
:101CB000F2E180E09CE5A6E2B5E080839183A28317
:101CC000B38314821582168217821086DF91CF911A
:101CD0001F910F91FF90EF900895CF93DF93CDB7B1
:101CE000DEB7A1970FB6F894DEBF0FBECDBF7894D4
:101CF00084B5826084BD84B5816084BD85B5826011
:101D000085BD85B5816085BD80916E0081608093C1
:101D10006E0010928100809181008260809381002A
:101D2000809181008160809381008091800081603A
:101D3000809380008091B10084608093B100809195
:101D4000B00081608093B0008091910082608093A8
:101D5000910080919100816080939100809190002A
:101D60008160809390008091A10082608093A100A7
:101D70008091A10081608093A1008091A00081608A
:101D80008093A00080912101826080932101809145
:101D900021018160809321018091200181608093E5
:101DA000200180917A00846080937A0080917A008B
:101DB000826080937A0080917A00816080937A00BB
:101DC00080917A00806880937A001092C1008BE93C
:101DD00096E00E94E2031092000268E070E081E861
:101DE00093E10E94A70868E070E085E793E10E9414
:101DF000A70868E070E08FE693E10E94A70868E01A
:101E000070E081E593E10E94A70868E070E08BE450
:101E100093E10E94A70868E070E087E593E10E94E3
:101E2000A70860E270E08BE793E10E94A70860E2F8
:101E300070E089E993E10E94A70860E470E08FE90F
:101E400093E10E94A70860E470E08DE893E10E94AE
:101E5000A70860E470E087E893E10E94A70860E4C7
:101E600070E083E693E10E94A70860E870E085EAED
:101E700093E10E94A70860E870E085E493E10E9486
:101E8000A70860E870E083E993E10E94A70860E09A
:101E900071E089E693E10E94A70860E072E08DE5B9
:101EA00093E10E94A7086CE674E08FE393E10E943F
:101EB000A70860EC71E0811102C06AEA71E08BE969
:101EC00096E00E94110764E971E08BE996E00E94B8
:101ED0002D0811E010933C138FEB95E090933E1387
:101EE00080933D130E94B509109323138AE792E073
:101EF0000E94E203F0EBEF2EF3E1FF2EF7011182D7
:101F0000F8E3EF0EF11C20E5E21626E1F206B1F748
:101F100088E199E20FB6F894A895809360000FBE0F
:101F200090936000E6E02E2E312C54E0A52EB12CCB
:101F30006CE0462E512C7AE0672E712C80913C1378
:101F4000882339F10E9455050091381310913913F7
:101F500020913A1330913B13601B710B820B930B52
:101F600000913413109135132091361330913713AB
:101F7000061717072807390760F4E0913D13F09121
:101F80003E13309709F4FDC2199588E393E10E944E
:101F900075078091261390912713019709F056C079
:101FA0006CEA75E083E993E10E9484096BEA75E0CD
:101FB0008DE893E10E9484096AEA75E087E893E17D
:101FC0000E94840969EA75E081E893E10E9484092E
:101FD00068EA75E08BE793E10E94840967EA75E09F
:101FE00085E793E10E94840966EA75E08FE693E154
:101FF0000E94840965EA75E089E693E10E948409FC
:1020000064EA75E083E693E10E94840963EA75E07F
:102010008DE593E10E94840910922A1360E080917B
:1020200024130E94700468EE73E080E090E00E9448
:102030006105882359F061E0809124130E947004A7
:1020400082E090E0909327138093261380912613CB
:10205000909127130297F1F564EF71E080E090E032
:102060000E9461058823B1F163E875E0CE01019615
:102070000E94AC09CE0101960E941E08CE01019675
:102080000E949F0869E775E0CE0101960E94AC09A5
:10209000CE0101960E941E08CE0101960E949F0863
:1020A0006EE675E0CE0101960E94AC09CE01019664
:1020B0000E941E08CE0101960E949F0861E675E00D
:1020C0008BE996E00E942D0883E090E0909327131F
:1020D000809326138091261390912713049709F07B
:1020E0006EC06EE475E08BE996E00E942D0864E412
:1020F00075E0CE0101960E94AC09CE0101960E94C6
:102100001E08CE0101960E949F0869E375E0CE018A
:1021100001960E94AC09CE0101960E941E08CE01D4
:1021200001960E949F086EE275E0CE0101960E9422
:10213000AC09CE0101960E941E08CE0101960E94B4
:102140009F0863E275E0CE0101960E94AC09CE01C2
:1021500001960E941E08CE0101960E949F0865E12B
:1021600075E0CE0101960E94AC09CE0101960E9455
:102170001E08CE0101960E949F0867E075E0CE011F
:1021800001960E94AC09CE0101960E941E08CE0164
:1021900001960E949F086AEF74E0CE0101960E94AA
:1021A000AC09CE0101960E941E08CE0101960E9444
:1021B0009F0885E090E090932713809326138091E9
:1021C000261390912713069711F568EE73E080E0CF
:1021D00090E00E9461058823D1F06CEE74E08BE9F9
:1021E00096E00E942D0865EE74E0CE0101960E94F3
:1021F000AC09CE0101960E941E08CE0101960E94F4
:102200009F0887E090E09093271380932613809196
:10221000261390912713089711F568EE73E080E07C
:1022200090E00E9461058823D1F065ED74E08BE9B0
:1022300096E00E942D086BEC74E0CE0101960E949E
:10224000AC09CE0101960E941E08CE0101960E94A3
:102250009F0889E090E09093271380932613809144
:102260002613909127130A9711F568EE73E080E02A
:1022700090E00E9461058823D1F06BEB74E08BE95C
:1022800096E00E942D0861EB74E0CE0101960E9459
:10229000AC09CE0101960E941E08CE0101960E9453
:1022A0009F088BE090E090932713809326138091F2
:1022B0002613909127130C9711F568EE73E080E0D8
:1022C00090E00E9461058823D1F06FE974E08BE90A
:1022D00096E00E942D086EE774E0CE0101960E9400
:1022E000AC09CE0101960E941E08CE0101960E9403
:1022F0009F088DE090E090932713809326138091A0
:102300002613909127130E97C1F468EE73E080E0D6
:1023100090E00E946105882381F069E674E08BE912
:1023200096E00E942D088DE893E10E941E088FE040
:1023300090E0909327138093261380912613909119
:102340002713409781F463E574E08BE996E00E94DF
:102350002D0887E893E10E941E0881E190E09093A8
:102360002713809326138091261390912713429769
:1023700079F481E08093231383E190E09093271315
:10238000809326136FE374E08BE996E00E942D089A
:102390008091261390912713439709F0B3C0809141
:1023A000281390912913892B11F568E873E180E0D7
:1023B00090E00E9461058823D1F064E274E08BE92B
:1023C00096E00E942D086DE174E0CE0101960E9416
:1023D000AC09CE0101960E941E08CE0101960E9412
:1023E0009F0881E090E090932913809328138091B7
:1023F000281390912913029711F568E873E180E0A2
:1024000090E00E9461058823D1F060E074E08BE9E0
:1024100096E00E942D0866EF73E0CE0101960E94BF
:10242000AC09CE0101960E941E08CE0101960E94C1
:102430009F0883E090E09093291380932813809164
:10244000281390912913049711F568E873E180E04F
:1024500090E00E9461058823D1F069ED73E08BE97B
:1024600096E00E942D086FEC73E0CE0101960E9469
:10247000AC09CE0101960E941E08CE0101960E9471
:102480009F0885E090E09093291380932813809112
:102490002813909129130697D9F468EC72E380E031
:1024A00090E00E946105882399F065EB73E08BE969
:1024B00096E00E942D0883E693E10E941E0881E0C9
:1024C00080932A1387E090E0909329138093281338
:1024D00080912813909129130897A1F460ED77E07B
:1024E00080E090E00E946105882361F089E693E135
:1024F0000E941E0810922A1389E090E090932913FD
:10250000809328138091F60E9091F70E2091F80E8B
:102510003091F90E821B930B9170892B09F441C005
:1025200048E0842E912CDD24D3948091F60E909176
:10253000F70E2091F80E3091F90E821B930B9170DB
:10254000892B79F18DED9EE00E947106182F809104
:102550002513882329F0612F8BE996E00E94C2069B
:102560001D3009F4F2C51A3001F319831A8241E0D3
:1025700050E0BE016F5F7F4F83E993E10E94FE0848
:10258000D4CF88E198E00FB6F894A89580936000C6
:102590000FBE90936000FFCF60E070E0CB010C9421
:1025A000341B809132028823A1F00E94B509109259
:1025B000320281E090E090932713809326131092CB
:1025C00029131092281368EA73E08BE996E00E94C1
:1025D0002D08D0902313D11007C06AE070E080E08E
:1025E00090E00E942205AACC8091261380933502A8
:1025F0002CE6A22E26E1B22E3CE9832E36E1932E64
:102600008501F801208130E0F901EC5EF84F8491FA
:10261000F901E253F94F6490F901E857F94F7490CA
:10262000772009F458C281110E940904E72DF0E0D7
:10263000EE0FFF1FE85FF94FA591B491EC916E2268
:1026400081E009F480E0782EF8018181781609F4A0
:1026500044C20E945505F80122813381448155818D
:10266000621B730B840B950B633371058105910518
:1026700008F071820A5F1F4F8016910609F0C1CFE2
:1026800000EB13E1F801818170E4872E912C412C3D
:10269000512C3201813009F028C2812C9924939465
:1026A000412C512C3201F80180810E94DA04092E5C
:1026B000000CAA0BBB0B480E591E6A1E7B1EF1E0D4
:1026C0008F1A910881F7B4E07694679457944794F1
:1026D000BA95D1F7F80153824282349681E090E0B6
:1026E0002281338121933193019688319105C1F77D
:1026F000F80153AA42AA60E070E0CB0150E040E04C
:10270000FA01EE0FFF1FE00FF11F24813581620FE8
:10271000731F811D911D4F5F5F4F4831510581F738
:1027200028E130E040E050E00E94C91CF80135ABE0
:1027300024AB085C1F4FE016F10609F0A3CF40E080
:1027400090E080E021E030E0F5015181511120E07E
:10275000082E01C0220F0A94EAF7422B0196F6E0F8
:10276000AF0EB11C8830910569F740933402ECE557
:10277000F6E140E030E020E08181022E01C0880FC8
:102780000A94EAF7482B2F5F3F4F329628303105E5
:1027900099F74093330266E076E085EA93E10E9480
:1027A000840900EB13E1B12CA12CF80154A945A92F
:1027B0008181813009F0B4C1252F342F203CFEE304
:1027C0003F0710F02FEB3EE3AFEFBFE00E94EB1CA2
:1027D0002FEB3EE340E050E00E94AA1CF80137AB2B
:1027E00026ABF80166A977A985EA93E10E94500912
:1027F000FBE0AF16B10431F064E076E085EA93E1E6
:102800000E94CF082FEFA21AB20A085C1F4F3CE0CB
:10281000A316B10451F662E076E085EA93E10E94E6
:10282000CF0860E076E08FE993E10E94840950E5EB
:10283000A52E56E1B52E10E000E0F5016181728110
:102840008FE993E10E9450090330110531F06EEFDA
:1028500075E08FE993E10E94CF080F5F1F4FF3E00F
:10286000AF0EB11C0430110541F76CEF75E08FE934
:1028700093E10E94CF0880912A13811156C064EF22
:1028800075E089E693E10E94840961E873E189E6D5
:1028900093E10E947D0962EF75E089E693E10E9471
:1028A000CF086BEE75E089E693E10E94CF08809136
:1028B00034020E942A0969EE75E089E693E10E94DC
:1028C000CF0861EE75E089E693E10E94CF08809120
:1028D00033020E942A096FED75E089E693E10E94B8
:1028E000CF0868ED75E089E693E10E94CF0865EABC
:1028F00073E189E693E10E947D0966ED75E089E662
:1029000093E10E94CF086EEC75E089E693E10E94A6
:10291000CF086FE973E189E693E10E947D096CECD1
:1029200075E089E693E10E94CF0865EB75E083E6E8
:1029300093E10E9484096BE773E183E693E10E94CF
:102940007D0960EB75E083E693E10E94CF0860911A
:102950006D1370916E1383E693E10E9450096091AC
:102960006313709164136115710509F4E5C040911A
:102970006713509168138DE593E10E94CF096EEAC9
:1029800075E08DE593E10E94CF0869E673E18DE57E
:1029900093E10E947D0980915B1390915C13892BD8
:1029A00009F465C070E060E087E593E10E94C3052B
:1029B000B82E61E070E087E593E10E94C305182F0F
:1029C00063E070E087E593E10E94C305082F64E0AF
:1029D00070E087E593E10E94C305A82E24E4B212BB
:1029E000D8C01A3309F0C2C0802F0E948107182F67
:1029F0008A2D0E94810740E1149F90011124182F15
:102A0000122B8AE696E110FD9CC00E94BA0788E668
:102A100096E111FD99C00E94BA0786E696E112FD83
:102A200096C00E94BA0784E696E113FD93C00E9407
:102A3000BA0782E696E114FD90C00E94BA0780E6CC
:102A400096E115FD8DC00E94BA078EE596E116FD50
:102A50008AC00E94BA078CE596E117FD97C00E94D4
:102A6000BA076DEA75E087E593E10E94840960E0AA
:102A700086E10E94700461E070E080E090E00E94D6
:102A800022050091D50A1091D60A8091D70A90911B
:102A9000D80A081B190B11700115110509F46BC137
:102AA0008CEB9AE00E947106182F682F8BE996E054
:102AB0000E94C2061D3009F463C61A3011F319834F
:102AC0001A8241E050E0BE016F5F7F4F85E493E1E1
:102AD0000E94FE08D6CF712CB7CD0E945505F80193
:102AE0006283738384839583C5CDF80180810E94BE
:102AF000DA04092E000CAA0BBB0B480E591E6A1EE5
:102B00007B1EF1E08F1A910881F766E07694679456
:102B1000579447946A95D1F7F80155AA44AA09CE6B
:102B2000852F942F8115F4E09F0710F08FEF93E02D
:102B3000F80197AB86AB55CE8DE593E10E948D08E9
:102B40001ECF0E94C90763CF0E94C90766CF0E94AB
:102B5000C90769CF0E94C9076CCF0E94C9076FCF10
:102B60000E94C90772CF0E94C90775CF8FEC810FF1
:102B7000883008F076CFE12FE153FF0BCF01880FAB
:102B8000991F845A994E003309F469CF0E94C907EE
:102B900068CFF1E4BF1265CF8FEC810F853008F06C
:102BA00060CF802F0E948107B82E8A2D0E94810756
:102BB00040E1B49E90011124B82EB22AE12FE153D6
:102BC000FF0BCF010B2D10E0EE0FFF1FE80FF91FD9
:102BD000E05BF94E12830183A08061E08A2D0E94A0
:102BE0009E04B11005C060E08A2D0E94700439CFA8
:102BF0000F3F110511F461E0F7CFEA2DF0E0EC5E34
:102C0000F84FE491E150E23108F0B0C0F0E08827DD
:102C1000E35FF94E8F4F0C94FA1C1F1624162916E9
:102C200033163D16B61647164F16571661166B1615
:102C3000751684168E16B6169816A216AC1684B59E
:102C4000806884BDB7BC0DCF84B5806284BDB8BC3C
:102C500008CF809180008068809380001093890065
:102C600000938800FECE8091800080628093800077
:102C700010938B0000938A00F4CE809180008860CE
:102C80008093800010938D0000938C00EACE809199
:102C9000B00080688093B000B092B300E2CE809123
:102CA000B00080628093B000B092B400DACE809120
:102CB0009000806880939000109399000093980092
:102CC000D0CE8091900080628093900010939B0002
:102CD00000939A00C6CE8091900088608093900007
:102CE00010939D0000939C00BCCE8091A000806852
:102CF0008093A0008091A0008F7B8093A000109310
:102D0000A9000093A800ADCE8091A00080628093BE
:102D1000A0001093AB000093AA00A3CE8091A00066
:102D200088608093A0001093AD000093AC0099CE12
:102D300080912001806880932001109329010093E5
:102D400028018FCE80912001806280932001109312
:102D50002B0100932A0185CE809120018860809309
:102D6000200110932D0100932C017BCE003811051A
:102D70000CF041CF38CF0E9455052B013C018091CA
:102D80006D0290916E02A0916F02B0917002A3014A
:102D90009201281B390B4A0B5B0BDA01C901813DFB
:102DA0009740A105B10508F47FC0809181139091EF
:102DB000821360E0009711F00E94291C8BE580933C
:102DC00036028091350280933702609338028091F9
:102DD0003402809339028091330280933A02E6E311
:102DE000F2E0A0EBB3E1D6968C91D697D7969C9162
:102DF000D79795838683D896329642E0EE34F407CF
:102E000091F78091511690915216909353028093AE
:102E100054028091541690915516909355028093C8
:102E200056028091571690915816909357028093AE
:102E3000580280915A1690915B1690935902809394
:102E40005A022BE5A22E22E0B22EB8018BE793E1C5
:102E50000E94C305F50181935F010F5F1F4F003191
:102E6000110599F7E7E3F2E095E380E0915019F05E
:102E70002191820FFBCF80936B028DE580936C02D2
:102E800047E350E066E372E08AE792E00E94D505EE
:102E90008AE792E00E94300740926D0250926E02E3
:102EA00060926F02709270028091111390911213D0
:102EB0000E94C907809107139091081382309105F1
:102EC00009F09BC080910D1390910E130E94C907C9
:102ED00080910F13909110130E94BA0780911313E1
:102EE000909114130E94BA078091151390911613B4
:102EF0000E94C90780911713909118130E94BA0776
:102F00008091191390911A130E94BA0780EBA82E92
:102F100083E1B82E9AE0492E512C612C712CF501D9
:102F200086A897A8940150E040E019A28E010F5D99
:102F30001F4FCA01B901A30192010E94C91C605D23
:102F4000F80162938F01211531054105510589F77B
:102F5000309761F001900020E9F73197AF01401BF5
:102F6000510BB8018BE996E00E94D5058BE996E0FC
:102F70000E940108E0911B13F0911C1381818111C3
:102F800037C08091091390910A138815990508F0AC
:102F9000D5C0F8E3AF0EB11C20EEA21625E1B206B3
:102FA00009F0BDCF0E945505009102131091031343
:102FB0002091041330910513601B710B820B930B4E
:102FC0000091FE121091FF12209100133091011315
:102FD000061717072807390708F0A8956AE070E078
:102FE00080E090E00E9422050E9450070C94950F0B
:102FF00080910B1390910C13C8CF8330910509F089
:1030000062C080910D1390910E130E94BA078091B7
:103010000F13909110130E94C90780911313909180
:1030200014130E94C90780911513909116130E94E2
:10303000BA0780911713909118130E94BA078091D4
:10304000191390911A130E94C907E0911B13F09174
:103050001C138181811132C08091091390910A1350
:103060004996E0EBF3E126A937A98217930708F008
:10307000D12CF89635E1E03EF307A9F7DD2031F0D9
:1030800082E090E09093081380930713E0911D1362
:10309000F0911E138181811185CF84E090E090939F
:1030A0000813809307130E94550560931F137093B4
:1030B0002013809321139093221374CF80910B13CC
:1030C00090910C13CDCF049709F06CCF80910D1324
:1030D00090910E130E94C90780910F1390911013C5
:1030E0000E94BA0780911313909114130E94BA079B
:1030F00080911513909116130E94C90780911713A0
:10310000909118130E94C9078091191390911A1376
:103110000E94BA070E94550500911F1310912013B9
:103120002091211330912213601B710B820B930BA2
:10313000603177428105910508F434CF83E090E057
:1031400090930813809307132DCF809126139091AD
:1031500027130397D1F463EA73E089E993E10E94AE
:10316000840983E993E10E94E70797FD0EC06FE8A9
:1031700073E08BE996E00E942D08B0922713A0928D
:10318000261388E393E10E9475078091261390919E
:103190002713059771F460E873E08BE996E00E94CD
:1031A0002D08309227132092261388E393E10E9482
:1031B000750780912613909127130797D1F46AE73A
:1031C00073E089E993E10E94840983E993E10E9415
:1031D000E70797FD0EC065E673E08BE996E00E9475
:1031E0002D08909227138092261388E393E10E9482
:1031F000750780912613909127130997D1F46DE5F7
:1032000073E089E993E10E94840983E993E10E94D4
:10321000E70797FD0EC066E473E08BE996E00E9435
:103220002D08709227136092261388E393E10E9481
:10323000750780912613909127130B97D1F46EE3B5
:1032400073E089E993E10E94840983E993E10E9494
:10325000E70797FD0EC067E273E08BE996E00E94F6
:103260002D08509227134092261388E393E10E9481
:10327000750780912613909127130D97E1F469E16A
:1032800073E089E993E10E94840983E993E10E9454
:10329000E70797FD10C06BE073E08BE996E00E94B2
:1032A0002D084EE050E0509327134093261388E3F7
:1032B00093E10E94750780912613909127130F9731
:1032C000E1F46BEF72E089E993E10E94840983E9FC
:1032D00093E10E94E70797FD10C06AEE72E08BE968
:1032E00096E00E942D0880E190E090932713809350
:1032F000261388E393E10E9475078091261390912D
:1033000027134197E1F461EE72E089E993E10E94AD
:10331000840983E993E10E94E70797FD10C062EDFD
:1033200072E08BE996E00E942D08E2E1F0E0F09374
:103330002713E093261388E393E10E947507809199
:10334000261390912713439709F09CC0809128136E
:10335000909129130197E1F46CEC72E089E993E113
:103360000E94840983E993E10E94E70797FD10C05A
:1033700067EB72E08BE996E00E942D0822E030E0D6
:10338000309329132093281388E393E10E94750753
:1033900080912813909129130397D1F46FEA72E07A
:1033A00089E993E10E94840983E993E10E94E70798
:1033B00097FD0EC068E972E08BE996E00E942D0847
:1033C000B0922913A092281388E393E10E94750715
:1033D00080912813909129130597D1F460E972E048
:1033E00089E993E10E94840983E993E10E94E70758
:1033F00097FD0EC069E772E08BE996E00E942D0808
:10340000309229132092281388E393E10E947507D4
:1034100080912813909129130797A1F467E772E030
:1034200089E993E10E94840983E993E10E94E70717
:1034300097FD08C0909229138092281388E393E1A6
:103440000E94750780912813909129130997D1F450
:1034500068E672E089E993E10E94840983E993E1D7
:103460000E94E70797FD0EC01092291310922813AF
:103470006FE472E08BE996E00E942D0888E393E107
:103480000E94750768E472E089E993E10E9484096B
:1034900083E993E10E94E70797FD3FC046E150E0D2
:1034A00067E070E0CE0101960E94FD09BE016F5FEA
:1034B0007F4F8BE793E10E945408CE0101960E9452
:1034C0009F088BE793E10E949507811102C0D0927B
:1034D000320266E372E08DE893E10E9484096BE7B3
:1034E00073E18DE893E10E947D0965E272E08DE869
:1034F00093E10E94CF0862E172E087E893E10E94C5
:1035000084096BE773E187E893E10E947D096BE032
:1035100072E087E893E10E94CF0863E072E089E9F6
:1035200093E10E94840983E993E10E94E70797FDF4
:103530001DC049E050E068E070E0CE0101960E94B5
:10354000FD09BE016F5F7F4F85E793E10E9454083C
:10355000CE0101960E949F086EE172E085E793E13B
:103560000E943F08811102C0D09232026BEF71E0DD
:1035700089E993E10E94840983E993E10E94E707C6
:1035800097FD1DC04BE050E068E070E0CE01019671
:103590000E94FD09BE016F5F7F4F8FE693E10E949D
:1035A0005408CE0101960E949F086CE172E08FE6FC
:1035B00093E10E943F08811102C0D092320265EF70
:1035C00071E089E993E10E94840983E993E10E9413
:1035D000E70797FD56C062EF71E089E993E10E9429
:1035E000840983E993E10E94E7078C0160EF71E0B1
:1035F00089E993E10E94840983E993E10E94E70746
:10360000B8016E5F7F4FAC01CE0101960E94FD09AB
:10361000BE016F5F7F4F81E893E10E945408CE01A5
:1036200001960E949F0860E272E081E893E10E94A7
:103630003F088111D092320281E893E10E94950700
:10364000811108C0D09232026EEE71E081E893E100
:103650000E9484098091811390918213009711F444
:103660000C94CC120E94291C655071096B317105B4
:1036700040F0D09232026CEE71E081E893E10E945A
:10368000840963EE71E089E993E10E94840983E98A
:1036900093E10E94E70797FD1DC04EE050E069E00E
:1036A00070E0CE0101960E94FD09BE016F5F7F4F61
:1036B00081E593E10E945408CE0101960E949F0883
:1036C00063E272E081E593E10E943F08811102C04C
:1036D000D09232026AED71E089E993E10E94840997
:1036E00083E993E10E94E70797FD1DC040E150E0A8
:1036F00069E070E0CE0101960E94FD09BE016F5F96
:103700007F4F8BE493E10E945408CE0101960E9402
:103710009F0869E272E08BE493E10E943F08811107
:1037200002C0D092320260ED71E089E993E10E941B
:10373000840983E993E10E94E70797FD19C04EE2EF
:1037400050E069E270E0CE0101960E94FD09BE01E1
:103750006F5F7F4F87E593E10E945408CE01019689
:103760000E949F0867E573E18BE996E00E940708D5
:103770006FEC71E083E993E10E9484090C94951247
:1037800061E576E089E993E10E94840985E493E1AB
:103790000E94E70797FD75C961E086E10E94700409
:1037A00062E070E080E090E00E94220562E276E054
:1037B0008CEB9AE00E942D088CEB9AE00E94300777
:1037C00060C98FE393E10E949F0885E493E10E9422
:1037D0009F088BE493E10E949F0881E593E10E949A
:1037E0009F0887E593E10E949F088DE593E10E9481
:1037F0009F0883E693E10E949F0889E693E10E9477
:103800009F088FE693E10E949F0885E793E10E945D
:103810009F088BE793E10E949F0881E893E10E9453
:103820009F0887E893E10E949F088DE893E10E943A
:103830009F0883E993E10E949F0889E993E10E9430
:103840009F088FE993E10E949F0885EA93E10C9419
:103850009F081F93FC0199278827BC01E8941191C8
:103860001032E9F3193010F01E30C8F31B3251F05A
:103870001D3249F4689406C00E946B1C610F711DD3
:10388000811D911D119110531A30B0F33EF49095A3
:103890008095709561957F4F8F4F9F4F1F91089531
:1038A000FB01DC0105900D920020E1F70895FC0179
:1038B00005900020E9F7809590958E0F9F1F089541
:1038C000BB274A3031F4992322F4BDE290958195CB
:1038D0009F4F0C94811C592F482F372F262F660F8E
:1038E000771F881F991F660F771F881F991F620F08
:1038F000731F841F951F660F771F881F991F0895D8
:10390000BB27FB015527AA27880F991FAA1FA417B9
:1039100010F0A41B83955051B9F7A05DAA3308F0AD
:10392000A95DA193009779F7B111B1931192CB01E1
:103930000C949A1CDC01FC01672F71917723E1F74D
:10394000329704C07C916D9370836291AE17BF076C
:10395000C8F30895052E97FB1EF400940E94C11C25
:1039600057FD07D00E94C91C07FC03D04EF40C94ED
:10397000C11C50954095309521953F4F4F4F5F4F5B
:10398000089590958095709561957F4F8F4F9F4FCB
:103990000895A1E21A2EAA1BBB1BFD010DC0AA1F90
:1039A000BB1FEE1FFF1FA217B307E407F50720F0A8
:1039B000A21BB30BE40BF50B661F771F881F991F23
:1039C0001A9469F760957095809590959B01AC016C
:1039D000BD01CF010895A29FB001B39FC001A39F75
:1039E000700D811D1124911DB29F700D811D112438
:1039F000911D0895EE0FFF1F881F8BBF0790F69152
:103A0000E02D19940F931F93CF93DF93823091058C
:103A100010F482E090E0E0919E16F0919F1630E065
:103A200020E0B0E0A0E0309799F42115310509F4C9
:103A30004AC0281B390B24303105D8F58A819B8177
:103A40006115710589F1FB0193838283FE0111C029
:103A5000408151810281138148175907E0F04817CE
:103A6000590799F4109761F012960C9312971396D8
:103A70001C933296CF01DF91CF911F910F91089542
:103A800000939E1610939F16F4CF2115310551F027
:103A90004217530738F0A901DB019A01BD01DF018C
:103AA000F801C1CFEF01F9CF90939F1680939E1636
:103AB000CDCFFE01E20FF31F819391932250310984
:103AC00039832883D7CF20919C1630919D16232BC4
:103AD00041F4209103023091040230939D1620930B
:103AE0009C1620910102309102022115310541F40A
:103AF0002DB73EB74091050250910602241B350BAD
:103B0000E0919C16F0919D16E217F307A0F42E1B8E
:103B10003F0B2817390778F0AC014E5F5F4F241731
:103B2000350748F04E0F5F1F50939D1640939C162B
:103B3000819391939FCFF0E0E0E09CCFCF93DF9310
:103B40000097E9F0FC01329713821282A0919E1631
:103B5000B0919F16ED0130E020E01097A1F4208194
:103B60003181820F931F20919C1630919D1628174A
:103B7000390709F061C0F0939D16E0939C16DF9120
:103B8000CF910895EA01CE17DF07E8F54A815B81FE
:103B90009E0141155105B1F7E901FB83EA83499183
:103BA0005991C40FD51FEC17FD0761F480819181F5
:103BB0000296840F951FE9019983888382819381FE
:103BC0009B838A83F0E0E0E012968D919C9113979D
:103BD0000097B9F52D913C911197CD010296820F76
:103BE000931F20919C1630919D162817390739F69E
:103BF000309751F510929F1610929E16B0939D1615
:103C0000A0939C16BCCFD383C28340815181840F83
:103C1000951FC817D90761F44E5F5F4F888199815E
:103C2000480F591F518340838A819B8193838283EC
:103C30002115310509F0B0CFF0939F16E0939E1641
:103C40009ECFFD01DC01C0CF13821282D7CF4F92ED
:103C50005F926F927F928F929F92AF92BF92CF921C
:103C6000DF92EF92FF920F931F93CF93DF938C011C
:103C7000009799F4CB01DF91CF911F910F91FF90A5
:103C8000EF90DF90CF90BF90AF909F908F907F90FC
:103C90006F905F904F900C94021DFC01E60FF71F90
:103CA0009C0122503109E217F30708F4AEC0D90194
:103CB000CD91DC911197C617D70720F1C530D105FA
:103CC00078F0CE0104978617970750F0C61BD70BE4
:103CD0002297C193D1936D937C93CF010E949E1D37
:103CE000C801DF91CF911F910F91FF90EF90DF906E
:103CF000CF90BF90AF909F908F907F906F905F908C
:103D00004F9008955B01AC1ABD0A4C018C0E9D1EAC
:103D1000A0919E16B0919F16512C412CF12CE12CB4
:103D2000109731F580919C1690919D1688159905F4
:103D300009F05CC04616570608F058C08091010291
:103D400090910202009741F48DB79EB74091050211
:103D500050910602841B950BE817F90708F055C02F
:103D6000F0939D16E0939C16F90171836083B8CFA0
:103D70008D919C91119712966C90129713967C904E
:103D80001397A815B90559F56C0142E0C40ED11C72
:103D9000CA14DB0420F1AC014A195B09DA0112965E
:103DA000159780F06282738251834083D9016D93AD
:103DB0007C93E114F10471F0D7011396FC93EE9318
:103DC00012978ECF22968C0F9D1FF90191838083CD
:103DD000F301EFCFF0939F16E0939E1681CF481624
:103DE000590608F42C017D01D3019ACFCB010E9422
:103DF000021D7C01009749F0AE01B8010E94081F26
:103E0000C8010E949E1D87016BCF10E000E068CFC3
:103E1000FB01DC0102C001900D9241505040D8F7E7
:103E20000895FB01DC018D91019080190110D9F3F7
:103E3000990B0895FB01DC0101900D920020E1F740
:103E40000895FB0151915523A9F0BF01DC014D916B
:103E500045174111E1F759F4CD010190002049F0D7
:103E60004D9140154111C9F3FB014111EFCF81E0A4
:103E700090E00197089513E0CEEAD3E000E006C099
:103E8000802FFE010E94FA1C2196011DCF3AD10716
:0A3E900080E00807A9F7F894FFCFBF
:103E9A00010000A016800000000000C206D5055FE0
:103EAA00063007B40571068B060D0A00302C310066
:103EBA00393900302C302C3000302C312C302C3059
:023ECA000000F6
:00000001FF
