:020000040000FA
:100000000C94A4000C94D5000C94D5000C94D5004D
:100010000C94D5000C94D5000C94D5000C94D5000C
:100020000C94D5000C94D5000C94D5000C94D500FC
:100030000C94D5000C94D5000C94D5000C94D500EC
:100040000C94D5000C94D5000C94D5000C94D500DC
:100050000C94D5000C94D5000C94D5000C94B30FDF
:100060000C94D5000C9493100C9469100C94D5004A
:100070000C94D5000C94D5000C94D5000C94D500AC
:100080000C94D5000C94D5000C94D5000C94D5009C
:100090000C9427100C94FD0F0C94D5000C94D500F3
:1000A0000C94D5000C94D5000C94D5000C94D5007C
:1000B0000C94D5000C94D5000C94D5000C94D5006C
:1000C0000C94D5000C94D5000C94D5000C94D5005C
:1000D0000C94D5000C94D5000C94D5000C94D5004C
:1000E0000C94D5000C94D5100C947C010C94350222
:1000F0000C94C9010C9471010C94A0070C94220C6F
:100100000C94B00F0C94DB010C94BB020C946C02A9
:100110000C944F15CDCCCC3D0AD7233C17B7D13822
:1001200077CC2B329595E6241FB14F0A0000204171
:100130000000C84200401C4620BCBE4CCA1B0E5AE0
:10014000AEC59D74D5104F1511241FBECFEFD1E25F
:10015000DEBFCDBF00E00CBF2BE0ACE1B3E001C0DF
:100160001D92AB38B207E1F713E0A0E0B2E0EAE994
:10017000F3E300E00BBF02C007900D92AC31B10772
:10018000D9F710E0C3EAD0E000E006C021970109EA
:10019000802FFE010E947817C23AD10780E008073D
:1001A000A9F70E9452110C94BB190C940000FC0199
:1001B000A089B18982E08C93A485B5851C92A6851F
:1001C000B7858FEC8C93108EA489B58986E08C93CB
:1001D000A289B3898C9180618C93A289B3898C9117
:1001E00088608C93A289B3898C9180688C930288F3
:1001F000F389E02D80818F7D80830895CF93DF93F5
:10020000EC0188819981DC01ED91FC910190F081F4
:10021000E02D64E270E01995009741F02FE1FC01B8
:10022000238321E02283DF91CF91089521E02A8367
:10023000FACF08953FB7F89480911D0390911E0363
:10024000A0911F03B091200326B5A89B05C02F3FA6
:1002500019F00196A11DB11D3FBFBA2FA92F982FEC
:100260008827BC01CD01620F711D811D911D42E0E7
:10027000660F771F881F991F4A95D1F708958F92AF
:100280009F92AF92BF92CF92DF92EF92FF924B017B
:100290005C010E941A016B017C010E941A016C1919
:1002A0007D098E099F09683E734081059105A8F379
:1002B00021E0821A9108A108B10888EEC80E83E0F7
:1002C000D81EE11CF11C81149104A104B10429F78A
:1002D000FF90EF90DF90CF90BF90AF909F908F9066
:1002E0000895FC01218D328D838D948DA901481BC9
:1002F000590BCA0191700895AF92BF92CF92DF92CD
:10030000EF92FF920F931F93CF93DF936C017B01CA
:100310008B01040F151FEB015E01AE18BF08C0175B
:10032000D10759F06991D601ED91FC910190F081CE
:10033000E02DC6011995892B79F7C501DF91CF9181
:100340001F910F91FF90EF90DF90CF90BF90AF90F3
:10035000089520913E0330913F0380914003909196
:100360004103281B390B317081E0232B09F480E015
:10037000089520915F073091600780916107909107
:100380006207281B390B317081E0232B09F480E0D0
:1003900008954FB7F894FC01258D368D878D90A177
:1003A0004FBF2817390728F081509E4F821B930BAF
:1003B00008950197FBCFFC01218D328D838D948DA3
:1003C0002817390779F0A38DB48DAE0FBF1F919612
:1003D0008C91238D348D2F5F3F4F3170348F238F5D
:1003E00090E008958FEF9FEF08952FB7F8948091D4
:1003F000210390912203A0912303B09124032FBFE6
:1004000080932D0390932E03A0932F03B09330037A
:1004100085E293E00E94DB0197FF26C02FB7F89496
:100420008091210390912203A0912303B091240392
:100430002FBF40912D0350912E0360912F03709197
:100440003003841B950BA60BB70B409129035091E9
:100450002A0360912B0370912C0384179507A6073C
:10046000B707B0F28FEF9FEF0895FC01218D328D19
:10047000838D948D2817390739F0838D948DE80F7B
:10048000F91F81A190E008958FEF9FEF0895FC017F
:10049000A78DB0A1A80FB91FAF5DBD4F2C91878D5F
:1004A00090A10196917090A3878FA689B7892C930C
:1004B000A089B1898C91837080648C93258D368D51
:1004C000878D90A12817390731F40288F389E02D30
:1004D00080818F7D80830895FF920F931F93CF9328
:1004E000DF93EC0181E0888F2D8D3E8D8F8D98A15B
:1004F00028173907C9F4E889F989808185FF14C074
:100500009FB7F894EE89FF896083E889F989808133
:100510008370806480839FBF81E090E0DF91CF9102
:100520001F910F91FF900895F62E0D8D1E8D0F5F78
:100530001F4F11708F8D98A18017910761F40FB62E
:1005400007FCF8CFE889F989808185FFF3CFCE01D8
:100550000E944702EFCFED8DFE8DEC0FFD1FEF5D8A
:10056000FD4FF0829FB7F8941E8F0D8FEA89FB89AB
:1005700080818062CFCFCF93DF93EC01888D882379
:10058000B9F0AA89BB89E889F9898C9185FD03C0F6
:10059000808186FD0DC00FB607FCF7CF8C9185FFDB
:1005A000F2CF808185FFEDCFCE010E944702E9CFD7
:1005B000DF91CF91089580E090E0892B29F00E948F
:1005C000B90181110E94000080E090E0892B29F0A0
:1005D0000E94A90181110E94000080E090E0892B17
:1005E00049F080E090E0892B29F00E940000811101
:1005F0000E94000080E090E0892B49F080E090E0CC
:10060000892B29F00E94000081110C9400000895AC
:1006100085E293E00E94DB0197FFFACF08956F3FD8
:10062000A9F0E62FE295EF7044E0E49F90011124D9
:10063000DC01ED91FC91E20FF31F6F7082819381D9
:10064000B6E06B9F800D911D1124089590E080E02D
:100650000895982F80336CF08A3324F08F3524F07E
:100660008B3724F481E0089581341CF081E09B35C0
:100670000CF080E00895FC018485811114C0A781ED
:10068000B085818592852FEF3FEFA817B90730F429
:10069000CD010196908787832C9130E037FD20E0D3
:1006A000238781E08487838508951F93CF93DF9309
:1006B000EC01162F0E943B03811306C01C8681E0CB
:1006C000DF91CF911F91089580E0FACF0F931F9390
:1006D000CF93DF938C01EB018991882369F0C801E6
:1006E0000E943B03882379F0FE0131979081981393
:1006F0000DC0F8011486F0CF90E080E0DF91CF913B
:100700001F910F91089582E090E0F8CF83E090E090
:10071000F5CFCF93DF93EC01CE010E943B038B30EA
:100720004CF489305CF4882359F081E08E8390E0AA
:1007300080E00BC08D3011F08032B9F71C86ECCF11
:100740008E81811105C081E090E0DF91CF91089505
:1007500082E090E0FACFDC0152969C915297915042
:1007600084E0989F900111245096ED91FC91E20F46
:10077000F31F228133812115310579F04181808178
:10078000481758F481E0840F818386E0489F200D4C
:10079000311D11242115310521F460E070E08FEF47
:1007A0000895B901892F8295807F840F0895DF9283
:1007B000EF92FF920F931F93CF93DF93EC017B0196
:1007C000D12C688979898A89D816E0F484E0D89E8A
:1007D00080011124060F171FD80112966D917C918C
:1007E0006115710541F0D701ED91FC910280F38113
:1007F000E02DC7011995F80113821282108211822F
:10080000D394DFCF1A8A8FEF8C8BC617D70761F08E
:10081000D701ED91FC910280F381E02DC70119957C
:10082000D98BC88B84E08B8BDF91CF911F910F9177
:10083000FF90EF90DF900895CF92DF92EF92FF92BA
:100840000F931F93CF93DF937C016B018A01FC010F
:10085000C081D1814F3F510509F0B0F4E881F981A1
:100860000480F581E02D4B5F5F4FCE011995009715
:1008700059F0FC010383DF91CF911F910F91FF90FD
:10088000EF90DF90CF900895E881F9810280F381A5
:10089000E02DB601CE01199581E0F701828390E049
:1008A00080E0E9CF1F93CF93DF93EC01162F6A818D
:1008B0007B816115710589F04C815D81FB0183812C
:1008C0008417150651F4440F551F4F5F5F4F888101
:1008D00099810E941C049B838A838A819B81009753
:1008E00059F02C813D81A9014F5F5F4F5D834C839F
:1008F000820F931FFC011483DF91CF911F91089504
:100900009F92AF92BF92CF92DF92EF92FF920F939E
:100910001F93CF93DF9300D01F921F92CDB7DEB706
:100920008C010E943B03D82EF8011486F12CE12C97
:1009300060EFC62EC8010E943B03F8011486D8164A
:1009400009F4B3C0811113C082E090E00F900F90C2
:100950000F900F900F90DF91CF911F910F91FF900B
:10096000EF90DF90CF90BF90AF909F9008958C351F
:1009700009F099C0C8010E943B03882329F3E0E3F2
:10098000F2E0853709F083C0F801148654E0952E13
:10099000B12CA12CC8010E943B038823A9F2813409
:1009A00034F48053803130F083E090E0CFCF8F7DFE
:1009B0008753F8CF44E0AA0CBB1C4A95E1F7A82A5C
:1009C000F80114869A949110E5CFC501985D8115C0
:1009D000944020F47501F3E0FF22ACCFC5019C5D8B
:1009E00081159440A8F483E0B822B701762F6627DA
:1009F000770F770F6A297B2990E080E001966038B5
:100A000071058105910540F4C8010E94520492CFFE
:100A1000B50190E080E0F3CF1982262F2F73206874
:100A20002A8326E096958795779567952A95D1F73D
:100A30006032710580F4606C6B835E01E4E0AE0EA1
:100A4000B11CF50162915F01662309F473CFC801FF
:100A50000E945204F6CF262F2F7320682B8386E046
:100A6000769567958A95E1F76031710538F4606E87
:100A70006C835E01F5E0AF0EB11CE3CF60686C8360
:100A8000CD825E0126E0A20EB11CDBCF32969081B2
:100A9000992309F489CF8913F9CF8181882309F437
:100AA00083CFF8011486682FAFCF82819381892B81
:100AB00019F484E090E04ACF90E080E047CF6F9255
:100AC0007F928F929F92AF92BF92CF92DF92EF92DE
:100AD000FF920F931F93CF93DF93EC012A813B8109
:100AE0002C5F3F4F4C815D814430510588F5890171
:100AF000F90180E0942FB22FAE2FA21BA91730F47A
:100B0000F190A1E0F110A0E08A2BF6CF811120C076
:100B100082E0EB018C83FB01802F8B1B891728F46B
:100B2000E80189918E018193F7CF640F751FFB0156
:100B30001082DF91CF911F910F91FF90EF90DF9086
:100B4000CF90BF90AF909F908F907F906F900895BF
:100B50008B01F901E40FF51F1082888199814C8186
:100B60005D81DC011396ED91FC913A01E89477F8F0
:100B70006901C60CD71C3097C1F0A381A6151704D4
:100B800081F449017F01B4E0EB0EF11C8C149D044B
:100B900029F1D401AD904D01D701BD907D01AB1479
:100BA000A9F30190F081E02DE6CF6A817B810E945C
:100BB0001C04FC01A881B98113968D919C91149716
:100BC000918380831496FC93EE9313971B821A8271
:100BD00085E0E8018C83F983E883ABCF82818F5F66
:100BE0008283F6CFDB01ED91FC9111970280F381B6
:100BF000E02DBC01CD011994AF92BF92CF92DF924C
:100C0000EF92FF920F931F93CF93DF93EC018B0131
:100C10008C8180FF24C0A881B981FB0183819481EC
:100C200030E020E00097D9F0A817B907D1F5F80116
:100C30006081718112968C911297815012968C93DB
:100C4000129781110CC08D919C911197211531053E
:100C500029F1F90191838083CD010E94F2058C81F5
:100C6000807631F1209721F1F8805801F5E1AF0E3F
:100C7000B11C8FEFF816D1F06F2DC5010E940F0344
:100C80006C01FC01E580B8010E94FC05F801818D32
:100C9000F6018083F801F18EFE2CEBCF94838383E1
:100CA000DBCF9C01FC0180819181BCCFF882F9826D
:100CB0001C82DF91CF911F910F91FF90EF90DF90F9
:100CC000CF90BF90AF900895FB0101900020E9F70D
:100CD0003197AF01461B570B0C947C01CF93DF93E8
:100CE000FC01448155816081718186E497E00E9416
:100CF0007C01EC016CE672E086E497E00E946406F9
:100D00008C0F9D1FDF91CF9108950F931F93CF9369
:100D1000DF938C01D0E0C0E06115710519F00E94ED
:100D20006406EC016CE672E0C8010E9464068C0F58
:100D30009D1FDF91CF911F910F910895FC0130E02D
:100D400020E06115710549F0DB010D900020E9F705
:100D50009D0121503109261B370B7183608322834B
:100D6000832F8F7793819078982B40FB97F993830B
:100D70000895CF93DF9300D01F92CDB7DEB7FC016B
:100D80008481843061F08530E1F040E0BF01823041
:100D900049F060E070E080E090E090680BC0608116
:100DA000718141E0CE0101960E949E0669817A819F
:100DB0008B819C810F900F900F900F90DF91CF91BE
:100DC000089580819181FC01238130E00496BC016B
:100DD000C9019F779F77EECFBF92CF92DF92EF92BC
:100DE000FF920F931F93CF93DF93D62EC72E8A01C6
:100DF000452B09F442C0E9016596FC016081CE01F2
:100E00000E940F03FF24FA94009711F0FC01F58073
:100E1000EE24E394BB24B394009779F1EE20B1F073
:100E20000E94B9062D2D3C2D3F77AC015F7724172A
:100E3000350761F4D801E62FF72F200F311F2A174D
:100E40003B0771F09D9181919817C9F3EB246F2DA9
:100E5000CE010E940F030097F9F2FC01F580DCCF70
:100E60006F2DCE01DF91CF911F910F91FF90EF90E9
:100E7000DF90CF90BF900C940F0390E080E0DF9163
:100E8000CF911F910F91FF90EF90DF90CF90BF9087
:100E90000895CF93DF93EC018091690B90916A0BD9
:100EA0000097E9F06881798161157105B1F0409191
:100EB0006B0B50916C0B2C813D814217530768F0EE
:100EC0000E949A198C819D8190936E0B80936D0B7B
:100ED0001D821C82DF91CF9108950E941C18888189
:100EE000998190936A0B8093690B8A819B8190937F
:100EF0006C0B80936B0B8C819D8190936E0B809318
:100F00006D0B198218821B821A82E2CFCF93DF9376
:100F1000EC0188819981009711F00E941C181982B8
:100F200018821D821C821B821A82DF91CF91089544
:100F3000FC0180819181009711F00C941C18089598
:100F4000CB010C941C180F931F93CF93DF93EC01EC
:100F500088819981009759F02A813B8126173707AC
:100F600030F081E0DF91CF911F910F9108958B01B7
:100F70006F5F7F4F0E94A518009759F0998388836F
:100F80001B830A832C813D81232B59F7FC0110829E
:100F9000E8CF80E0E7CFEF92FF920F931F93CF93BC
:100FA000DF936115710541F480E0DF91CF911F91CE
:100FB0000F91FF90EF90089541155105B1F07B011D
:100FC000EC010C811D81040F151FB8010E94A307BD
:100FD000882351F3288139818C819D81B701820F4B
:100FE000931F0E949A191D830C8381E0DECFCF935B
:100FF000DF931F921F92CDB7DEB769831A8241E05B
:1010000050E0BE016F5F7F4F0E94CB070F900F90A3
:10101000DF91CF910895CF93DF93EC01EAA1FBA17B
:10102000E80FF91F1282BC016E5F7F4F81F0FB0158
:1010300001900020E9F73197AF01461B570B8881DB
:1010400099810E94CB07882311F01BA21AA28AA1C2
:101050009BA1DF91CF9108951F93CF93DF93EC0174
:10106000162F8AA19BA101968097B8F48AA19BA113
:101070009C012F5F3F4F3BA32AA38C0F9D1FFC01B8
:10108000128321E030E08CA19DA1820F931F9DA3CC
:101090008CA3DF91CF911F910895CE010E940B0880
:1010A000892B21F330E020E0EECFBF92CF92DF9288
:1010B000EF92FF920F931F93CF93DF93EC016A019E
:1010C0008B017B01E40EF51EE016F106D1F0F8016C
:1010D000B1908F018AA19BA10196809760F48AA1AB
:1010E0009BA19C012F5F3F4F3BA32AA38C0F9D1F09
:1010F000FC01B282E9CFCE010E940B08892B79F363
:10110000E3CF4CA15DA14C0D5D1D5DA34CA3DF9110
:10111000CF911F910F91FF90EF90DF90CF90BF90F4
:1011200008958F929F92AF92BF92CF92DF92EF92EB
:10113000FF920F931F93CF93DF93CDB7DEB76697E0
:101140000FB6F894DEBF0FBECDBF6C018E01095EF5
:101150001F4F78018AE0882E912CA12CB12CCB0155
:10116000BA01A50194010E945617942F852F605D46
:10117000F80162938F01A901692F782F411551055C
:101180006105710561F7A7014E1B5F0BBF01C60129
:101190000E94550866960FB6F894DEBF0FBECDBF0D
:1011A000DF91CF911F910F91FF90EF90DF90CF9043
:1011B000BF90AF909F908F900895FB010190002009
:1011C000E9F73197AF01461B570B0C945508CF92A6
:1011D000DF92EF92FF920F931F93CF93DF938C01D7
:1011E0006B017A0162E20E942C08E601EC0CFD1C06
:1011F000EC16FD0699F06991E0E3F2E0D480DD2081
:10120000C9F0329683816813F9CF6CE5C8010E945A
:101210002C086D2DC8010E942C08EACF62E2C8019B
:10122000DF91CF911F910F91FF90EF90DF90CF90C2
:101230000C942C086111EECF63E472E0C8010E94A7
:10124000DD08D6CF2F923F924F925F926F927F929E
:101250008F929F92AF92BF92CF92DF92EF92FF92C6
:101260000F931F93CF93DF93CDB7DEB76B970FB676
:10127000F894DEBF0FBECDBF7C018B01DC0114965C
:101280008C911497863009F4A3C2F8F4833009F4E2
:1012900092C258F440E0B701823009F47BC26AE49C
:1012A00072E0C8010E94DD0881C2843009F46EC278
:1012B0008530A9F7ED91FC91438150E0BF016C5F4F
:1012C0007F4FC8010E94E7081CC28E3009F443C05A
:1012D000E0F48A3009F477C28C3009F7CD90DD90C4
:1012E000ED90FC90B701A601F7FE0BC06DE2C801BE
:1012F0000E942C0844275527BA014C195D096E0934
:101300007F09C8010E949108FCC1803209F415C20E
:10131000803429F66BE5C8010E942C08D701FC90A7
:10132000BFEFFB1609F4E9C1F80186A197A16F2D63
:1013300045960E940F037C01B8010E942209D70143
:101340001596FC90BFEFFB1609F4D7C16CE2C801FB
:101350000E942C08E5CFF70180809180A280B380A5
:10136000A5019401C501B4010E946315882331F0E1
:101370006AE472E0C8010E94DD08C3C120E030E0E9
:10138000A901C501B4010E946315882371F0A5016C
:101390009401C501B4010E94A2169B01AC01C501D4
:1013A000B4010E946315882319F320E030E0A901FD
:1013B000C501B4010E94631587FF08C06DE2C80132
:1013C0000E942C08B7FAB094B7F8B09420E836E938
:1013D00048E15BE4C501B4010E943D1787FD83C06D
:1013E00074E1C72ED12CE0E2EE2EF12C312C212C11
:1013F000F601E45DFE4F6591759185919491A5018B
:1014000094010E94631518167CF0F601EC5EFE4F05
:101410002591359145915491C501B4010E94C9159A
:101420004B015C012E0C3F1CF594E794F4E0CF1ABD
:10143000D1082CEFC2162FEFD206D1F63FEF3F8B2B
:1014400020E030E0A901C501B4010E943D17181643
:101450000CF051C02CEA35EC47E257E3C501B4016A
:101460000E94631518160CF446C0AF89B4E0AB02B5
:10147000C0011124D12CC12CFC01EC5EFE4F2F01C8
:101480009C01245D3E4F39013F893F3F09F433C041
:10149000F201EC0DFD1D659175918591949120E00F
:1014A00030E040E251E40E94C915A50194010E9478
:1014B0003D1718167CF4F301EC0DFD1D25913591B7
:1014C00045915491C501B4010E94C9154B015C01BD
:1014D0002E183F08F594E7948F8981508F8B94E004
:1014E000C91AD108D1CF50E2E52EF12C85E08F8BBF
:1014F000312C212CA5CFC501B4010E940E176B0120
:101500007C012B013C0180E492E4AFE0B0E0888FE5
:10151000998FAA8FBB8F96E09F8BAAE04A16510441
:1015200061047104E0F0688D798D8A8D9B8D2AE0CD
:1015300030E040E050E00E945617288F398F4A8FE4
:101540005B8FBF89B150BF8BC301B2012AE030E08D
:1015500040E050E00E94561729013A01DECFC70152
:10156000B6010E9468159B01AC01C501B4010E943F
:10157000A1164B015C01688D798D8A8D9B8D0E942F
:1015800068159B01AC01C501B4010E94C9152B016E
:101590003C010E940E174B015C010E9468159B01E3
:1015A000AC01C301B2010E94A1169B01AC010E94D3
:1015B000A2160E940E17860E971EA81EB91E888DB1
:1015C000998DAA8DBB8D88169906AA06BB06C0F018
:1015D0009FEFC91AD90AE90AF90A2114310439F12D
:1015E000AAE0CA16D104E104F10408F1BFEF2B1AF6
:1015F0003B0A812C912C5401C12CD12C7601C3942F
:101600002AE0422E512C612C712CC501B401A3019A
:1016100092010E945617672B682B692B61F4EF89A2
:101620001E164CF449015A01E150EF8BEECF812C8C
:10163000912C5401E5CFB701A601C8010E94910881
:10164000FF89FF2391F16E0121E1C20ED11CF88FB9
:1016500076019AE0492E512C612C712C388D315035
:10166000388F3F3F69F0C501B401A30192010E9488
:101670005617605DD6016E936D0149015A01EECF98
:10168000BF898B2F90E0BC0160957095F701E81B36
:10169000F90B31978EE2808344275527461B570B61
:1016A0006E0D7F1DC8010E9455082114310449F1B7
:1016B00065E6C8010E942C08710137FE07C06DE283
:1016C000C8010E942C08F194E194F108FE0177967C
:1016D0009F018AE0C82ED12CC701B6010E94421793
:1016E000805D82937B01672BB9F7A9014E1B5F0BCD
:1016F000BF01C8010E94550804C06DE5C8010E94E1
:101700002C08F80184A195A16B960FB6F894DEBF62
:101710000FBECDBFDF91CF911F910F91FF90EF9042
:10172000DF90CF90BF90AF909F908F907F906F9001
:101730005F904F903F902F9008956BE7C8010E94F3
:101740002C08D701FC90EE24E394BB24B394BFEFA4
:10175000FB16D1F0F80186A197A16F2D45960E9446
:101760000F036C01B8010E942209D6011596FC9066
:10177000BFEFFB1639F06AE3E11001C06CE2C8016B
:101780000E942C08EB24E3CF6DE7B8CFF70160810E
:10179000718141E0CE0101960E949E064B815C81E1
:1017A0005F7769817A81C8010E94E708D801949621
:1017B0008D919C91A9CFED91FC91438150E0BF01A7
:1017C0006C5F7F4F96CF4D915D916D917C9199CDDE
:1017D0008C916FE472E08111CDCD64E572E0CACDE9
:1017E000EF92FF920F931F93CF93DF93EC017B0156
:1017F0008A01BA010E94A30781110BC0CE010E9489
:101800008607CE01DF91CF911F910F91FF90EF904E
:1018100008951D830C83B701888199810E949A19CC
:10182000F0CFFC0111821082138212821582148281
:10183000FB0101900020E9F73197AF01461B570BE0
:101840000C94F00BCB01BA010C94A518BF92CF9267
:10185000DF92EF92FF920F931F93CF93DF93EC01F0
:10186000198D1F3F81F0612F45960E940F03FC01E7
:101870008081898F309709F477C014828FEF858338
:10188000BF01812F76C06C0135E0C30ED11CE8800A
:10189000F9808F89882341F0C6010E94AB03E62FAF
:1018A000F72F182F309749F71F89988D191324C0E7
:1018B000103109F459C0110F6D897E89D701ED915E
:1018C000FC91B4E01B9FA0011124C616D70609F0B5
:1018D00044C00190F081E02DBA01C701199500972D
:1018E00009F442C020E1F601DC0101900D922A9535
:1018F000E1F79E8B8D8B188F0D891E898F8921E0D2
:10190000280F2F8BE4E08E9FC0011124080F191FB0
:1019100090E1B92E203111F48FE0B82EF6E0BF9E91
:10192000B0011124D701ED91FC910190F081E02DDF
:10193000C7011995F80193838283892B09F4B12C8F
:10194000D801BC9211961C92012B71F0C6010E9425
:10195000AB03E62FF72F182F8DCF0480F581E02DF4
:10196000C7011995009729F681E08A8360E070E04D
:101970008FEFDF91CF911F910F91FF90EF90DF904C
:10198000CF90BF9008954F925F926F927F928F9207
:101990009F92AF92BF92CF92DF92EF92FF920F93FE
:1019A0001F93CF93DF93EC018B01D42E0E94890308
:1019B0007C01892B09F03FC0CE010E943B03863693
:1019C00009F478C1F4F4873229F08B3531F1823291
:1019D00009F077C11D821C828A819B81892B31F499
:1019E000888199810E94FE009B838A83CE010E9498
:1019F00080047C01892BF9F4B801CE010E945F05B7
:101A00001AC0843709F43CC18B3709F46CC08E3698
:101A100009F057C16AE472E03AC180E4F8018483B6
:101A20000115110519F08FEF80838183D11015C046
:101A3000C5E0EC2EF12CC701DF91CF911F910F91E2
:101A4000FF90EF90DF90CF90BF90AF909F908F90DE
:101A50007F906F905F904F9008951C86CE010E94FA
:101A60008903009739F56DE5CE010E945503811178
:101A7000E2CFDA948D849E84C4010E94260CC82E85
:101A80005B01672B21F4B4E0EB2EF12CD4CFF801ED
:101A900061816F3F89F0C40145960E940F03FC01EC
:101AA000C582F801C1824D2DB501CE010E94C30C43
:101AB000009721F07C01BFCF8083F4CFCE010E943C
:101AC00089030097B9F76DE5CE010E945503811196
:101AD000B2CF6CE2CE010E9455038111CBCF83E0DF
:101AE000E82EF12CA8CF80E2F801848301151105BE
:101AF00019F08FEF80838183DD2009F499CF1C8654
:101B0000CE010E9489030097A9F66DE7CE010E94DD
:101B10005503811190CFDA941D821C828A819B81AA
:101B2000892B31F4888199810E94FE009B838A83EE
:101B3000CE010E943B038732E1F08232D1F0CE0128
:101B40000E943B03F82E0E942903882341F21C8641
:101B50006F2DCE010E945204CE010E943B03F82E4D
:101B60000E9429038111F3CF8A819B81892B41F443
:101B70008ACFCE010E9480047C01892B09F05BCFC3
:101B8000CE010E9489037C01892B09F054CF6AE3BE
:101B9000CE010E945503882309F4A1CFEA81FB817D
:101BA0008C819D81E80FF91F14826C817D817F7784
:101BB0002D853E858A819B810496472F4F77FC2D8A
:101BC000F078CF2EC42AE894C7F8AC017C2DC80168
:101BD0000E94EC067C018D849E84009709F04CC025
:101BE000C4010E94260C682E5B01672B09F44BCFC1
:101BF000C4010E94260C782E962FE92EF72EE114B0
:101C0000F10409F440CFF5017582F80161816F3F5D
:101C100089F1C40145960E940F03FC016582F80119
:101C20007182B501CE010E945F054D2DB701CE0135
:101C30000E94C30C7C01892B09F0FDCECE010E94CD
:101C400089037C01892B09F0F6CE6DE7CE010E9455
:101C500055038111F0CE6CE2CE010E94550388231A
:101C600009F43DCFCE010E9489037C01892B09F440
:101C700053CFE1CE6082D4CFB4010E94FC05D5CF12
:101C800086E0F801848381E080836FE472E0CE0116
:101C9000DF91CF911F910F91FF90EF90DF90CF9048
:101CA000BF90AF909F908F907F906F905F904F907C
:101CB0000C94660386E0F8018483108264E572E088
:101CC000E6CFCE010E943B035E01FFE0AF0EB11CE8
:101CD000D12C9A2CCB2C803374F08A3374F42FE3FC
:101CE000D21699F01C86D394F50181935F01CE0141
:101CF0000E943B03F0CF8B3291F393ED980F92301B
:101D000070F3982F9F7D953451F3FE01ED0DF11D79
:101D100017868F858B32E1F16096DD24D3948D3266
:101D200019F0C92DDC2DD12C888190ED980F9A30B7
:101D300018F08E3209F0D3CE60E070E0CB01FE01E6
:101D40002191A0ED8A2E820E39E0381518F16A39FA
:101D500049E97407840749E1940730F5AAE0B0E047
:101D60009B01AC010E948716912CB12CA12C24015F
:101D70003501409450946094709446165706680656
:101D8000790690F0680D791D8A1D9B1DEF01D7CF54
:101D90006096C9CF211108C0DD2059F1613071056D
:101DA000810550E89507A0F0B12CEAE04E2E512CA9
:101DB000612C712C61157105F0E88F07910508F110
:101DC000A30192010E945617CA01B901B394F2CF40
:101DD0002CE0F80124839B01AC0188279927DC01C2
:101DE000821B930BA40BB50B80839183A283B383D7
:101DF00022CE2AE0F8012483608371838283938357
:101E00001ACEDE01299130ED320F3A3010F4B3943E
:101E1000F8CF2E32D9F4FD013196DF013196CC9105
:101E2000C053CA3098F46C3C2CEC72072CE082074B
:101E3000910598F7AAE0B0E09B01AC010E948716DB
:101E40006C0F711D811D911DBA94E7CF2C912F7DD0
:101E5000D0E0C0E0253409F052C011962C911197C2
:101E60002D32B1F51296CC24C394FD01D0E0C0E030
:101E70002B2D0B2C000C330B5AE0952EDF01A1907B
:101E800040ED4A0D4A30B0F59C9EA0019D9E500D3C
:101E90001124CA2DAA0CDD0BE097C40FD51FA90190
:101EA0004C0F5D1F473251054CF3CC20C1F060E070
:101EB00070E080E090E8D11003C060E070E0CB01FA
:101EC0002EE0F80124836083718382839383B3CDF2
:101ED0002B3219F01196C12CC8CF1296FCCF60E0BE
:101EE00070E080E89FEFD110EBCF60E070E080E819
:101EF0009FE7E6CFCC2019F0D195C195D1092C915F
:101F00002111EDCDCB0DD11DB7FCDA950E946815DE
:101F10003CE2A32E31E0B32E1C161D063CF0D195F9
:101F2000C195D10944E1A42E41E0B42EC12C2097E3
:101F300091F0C0FF0CC044E0C49EF0011124EA0DF2
:101F4000FB1D25913591459154910E94C915D59558
:101F5000C795C394ECCFDD2009F4B2CF9058B0CF31
:101F6000CB010C9480171F920F920FB60F92112481
:101F70002F933F938F939F93AF93BF9380912103B0
:101F800090912203A0912303B091240330911C036C
:101F900023E0230F2D3758F50196A11DB11D209385
:101FA0001C038093210390932203A0932303B093F7
:101FB000240380911D0390911E03A0911F03B091F3
:101FC00020030196A11DB11D80931D0390931E0354
:101FD000A0931F03B0932003BF91AF919F918F9166
:101FE0003F912F910F900FBE0F901F90189526E8EC
:101FF000230F0296A11DB11DD2CF1F920F920FB6D3
:102000000F9211240BB60F922F933F934F935F9330
:102010006F937F938F939F93AF93BF93EF93FF93B0
:1020200085E293E00E944702FF91EF91BF91AF914B
:102030009F918F917F916F915F914F913F912F91E0
:102040000F900BBE0F900FBE0F901F9018951F9210
:102050000F920FB60F9211240BB60F922F934F933E
:102060005F938F939F93EF93FF93E0913503F091EC
:1020700036038081E0913B03F0913C0382FD27C051
:10208000208180913E0390913F0301969170409191
:102090004003509141038417950759F0E0913E03A6
:1020A000F0913F03EB5DFC4F21A390933F0380939E
:1020B0003E03FF91EF919F918F915F914F912F91EF
:1020C0000F900BBE0F900FBE0F901F901895808140
:1020D000F0CF1F920F920FB60F9211240BB60F92F2
:1020E0002F933F934F935F936F937F938F939F9320
:1020F000AF93BF93EF93FF9386E497E00E9447026C
:10210000FF91EF91BF91AF919F918F917F916F91CF
:102110005F914F913F912F910F900BBE0F900FBE8B
:102120000F901F9018951F920F920FB60F921124C7
:102130000BB60F922F934F935F938F939F93EF93D1
:10214000FF93E0915607F09157078081E0915C077B
:10215000F0915D0782FD27C0208180915F079091FB
:102160006007019691704091610750916207841752
:10217000950759F0E0915F07F0916007EA5BF84F2F
:1021800021A39093600780935F07FF91EF919F9148
:102190008F915F914F912F910F900BBE0F900FBEBB
:1021A0000F901F9018958081F0CFE5E2F3E0138245
:1021B000128248EE53E060E070E04483558366830A
:1021C000778382E292E0918380832DEC30E0358743
:1021D00024872CEC30E03787268728EC30E0318BE1
:1021E000208B29EC30E0338B228B2AEC30E0358BCE
:1021F000248B2EEC30E0378B268B128E118E148EB2
:10220000138E168E158E10A2178EE6E4F7E0138259
:10221000128244835583668377839183808385EC20
:1022200090E09587848784EC90E09787868780ECA0
:1022300090E0918B808B81EC90E0938B828B82EC91
:1022400090E0958B848B86EC90E0978B868B128E3A
:10225000118E148E138E168E158E10A2178EE7E631
:10226000FBE0108282E0818362E472E089E69BE019
:102270000E94110C62E472E08FE69BE00E94110C58
:1022800062E472E085E79BE00E94110C62E472E078
:102290008BE79BE00E94110C62E472E081E89BE016
:1022A0000C94110CCF93DF93CDB7DEB7C351D1405F
:1022B0000FB6F894DEBF0FBECDBF789484B58260B0
:1022C00084BD84B5816084BD85B5826085BD85B5DA
:1022D000816085BD80916E00816080936E00109258
:1022E00081008091810082608093810080918100D3
:1022F0008160809381008091800081608093800064
:102300008091B10084608093B1008091B0008160C1
:102310008093B000809191008260809391008091C1
:102320009100816080939100809190008160809302
:1023300090008091A10082608093A1008091A10013
:1023400081608093A1008091A00081608093A000B3
:10235000809121018260809321018091210181601F
:1023600080932101809120018160809320018091E0
:102370007A00846080937A0080917A0082608093F2
:102380007A0080917A00816080937A0080917A004F
:10239000806880937A001092C10086E497E00E94E2
:1023A000D70064E670E080E090E00E943F0185E2A3
:1023B00093E00E94D7000E9408030E9408036AE588
:1023C00072E086E497E00E94850666E672E085E2A8
:1023D00093E00E9464066CE271E080E090E00E946D
:1023E0003F0180913E0390913F0320914003309143
:1023F0004103821B930B9170892B09F490C080914B
:102400003E0390913F032091400330914103821B92
:10241000930B9170892B51F085E293E00E94DB01D0
:10242000682F89E69BE00E94F707E9CF6CE672E02F
:1024300086E497E00E9464066FE672E0CE010196A2
:102440000E94110C40916D0B50916E0B6091690BC5
:1024500070916A0BCE0101960E94CB07811104C0D6
:10246000CE0101960E948607CE0101960E946E065B
:10247000CE0101960E9498076AE772E0CE010196AC
:102480000E94110CCE0101960E9498070E94080339
:1024900070EE872E912C8C0E9D1E25E0820E911CD5
:1024A000E0EE2E2E312C2C0E3D1E3AE1230E311C77
:1024B000CE5EDE4F8882C251D140CD5EDE4F988223
:1024C000C351D1408E010E5F1E4F67E972E085E275
:1024D00093E00E9485066CE271E080E090E00E944B
:1024E0003F0180913E0390913F0320914003309142
:1024F0004103821B930B9170892B09F449C062E45C
:1025000072E0CE0101960E94110C0E94F50197FD28
:102510000DC0682FCE0101960E94F707F6CF61E843
:1025200072E086E497E00E948506B0CFCE01019666
:102530000E944907CE0101960E94980763EA72E063
:10254000CE0101960E94110C80916D0B90916E0B43
:10255000892B71F0C090690BD0906A0B69817A81E8
:10256000C6010E94A1197C01EC18FD08892B19F401
:10257000EE24EA94FE2CCE0101960E949807EF20EB
:10258000E09431F46DEA72E085E293E00E94850602
:1025900080913E0390913F0320914003309141038D
:1025A000821B930B9170892B09F470C262E472E074
:1025B000CE0101960E94110C0E94F50197FD06C004
:1025C000682FCE0101960E94F707F6CFCE01019643
:1025D0000E944907CE0101960E94980789E69BE078
:1025E0000E946E061A8219821C821B821E821D8224
:1025F0006091690B70916A0B6115710541F0409112
:102600006D0B50916E0BCE0101960E94F00BCD80A8
:10261000DE80C114D10409F4BEC0E980FA806BE702
:1026200070E0C7010E948F19009709F4B4C08E1999
:102630009F098F3F980709F4AEC05C01C816D90600
:1026400010F456016C0162E472E0CE01885F9E4F87
:102650000E94110CED80FE80AE14BF0428F5CE144C
:10266000DF0408F47601E981FA81EE0DFF1DD080C8
:10267000108269817A816A0D7B1D6115710509F4EB
:1026800084C0FB0101900020E9F73197AF01461BA0
:10269000570BCE01885F9E4F0E94F00B89819A8173
:1026A000E80EF91EF701D082CE0101960E9498072C
:1026B00080E092E0C052DF4F99838883C05ED040B3
:1026C000CE51DF4F1882C25ED040CD51DF4F19820C
:1026D0001882C35ED040CB50DF4F99828882C55F9D
:1026E000D040C950DF4F1882C75FD04084E0C85047
:1026F000DF4F8883C85FD0408FEFC750DF4F88839C
:10270000C95FD040C250DF4F1882CE5FD040C15069
:10271000DF4F8883CF5FD04080E094E0C050DF4F30
:1027200099838883C050D140C45FDE4FC880D98070
:10273000CC50D140C85FDE4FE880F980C850D1400E
:1027400060E072E0C4010E94D703CE51DF4F1882CF
:10275000C25ED040C052DF4FA880B980C05ED0407A
:10276000CD51DF4F88819981C35ED0400097D9F069
:10277000FC0120813181CD51DF4F39832883C35E35
:10278000D040B5010E94F205EBCFCE01885F9E4F8D
:102790000E94860783CF62E472E0CE01885F9E4F7D
:1027A0000E94110C81CFC250DF4F1882CE5FD04003
:1027B00020EE30E02C0F3D1F3A8329831C821B82C0
:1027C0001E821D821F82F986E886EC0CFD1CFB86AA
:1027D000EA861D863F872E874AE0B101CE01019629
:1027E0000E94C30C7C01892B69F48C85882351F0ED
:1027F000C250DF4F8881CE5FD04083FF03C053E0DB
:10280000E52EF12C8B819C81009731F0E981FA81D2
:10281000608171810E94F205E114F10479F166ECA6
:1028200072E086E497E00E946406F701EE0FFF1F56
:10283000EE5EFD4F6081718186E497E00E9485061F
:102840000E940803C052DF4FE880F980C05ED0408C
:10285000CD51DF4F88819981C35ED040009709F444
:10286000FEC0FC0120813181CD51DF4F39832883A7
:10287000C35ED040B7010E94F205EACFC250DF4FDD
:102880008881CE5FD040803209F04CC0C10127ED75
:10289000422E22E0522E33E0632E372D3078732EF5
:1028A000689477F8009769F09E0120523F4FB3017A
:1028B000A2010E94EC06009721F0FC012481203245
:1028C000A1F1F12CE12C62E472E0C8010E94110C2C
:1028D000E114F10409F453C0C7010E94B906FB01D9
:1028E000309709F44CC001900020E9F73197AF010F
:1028F000461B570BC8010E94F00BF80160817181E3
:102900006115710509F4A6C04481558181E89BE0F9
:102910000E94F00B81E89BE00E946E06C8010E94B5
:1029200098078ECF90E080E0B2CF2BED32E0C25F0F
:10293000DE4F39832883CE50D14034E0C05FDE4F74
:102940003883C051D140CF5EDE4FE881C151D140C4
:10295000E078FE2FF068CF5EDE4FF883C151D140A2
:102960009E0120523F4FC25FDE4F488159816A81EC
:102970007B81CE50D1400E94EC067C01A4CFC45490
:10298000DF4F19830883CC5BD040C252DF4F1982DE
:102990001882CE5DD040C8010E94860784E2FE0105
:1029A000E454FF4FDE01A856BF4F01900D928A9567
:1029B000E1F784E2FE01E856FF4FDE01AC58BF4F5D
:1029C00001900D928A95E1F784E2FE01EC58FF4FE9
:1029D000DE01A05BBF4F01900D928A95E1F784E282
:1029E000FE01E05BFF4FDE01119601900D928A958A
:1029F000E1F71EA21DA2CE01805B9F4F0E940B0833
:102A000020EE30E02C0F3D1F38A72FA3CE018C58AD
:102A10009F4F0E940B08E114F104A9F0BE016F5F03
:102A20007F4FC7010E942209CE0101960E940B0828
:102A3000CE0188569F4F0E940B08CE0184549F4FB1
:102A40000E940B085ACF6AE472E0CE0101960E9400
:102A5000DD08EACF81E89BE00E9486075BCFC05289
:102A6000DF4F68817981C05ED040CE5EDE4F8881C5
:102A7000C251D140CD5EDE4F9881C351D1400E94FA
:102A8000D703CE01885F9E4F0E94980768EE73E0DF
:102A900080E090E00E943F010E94DB0216CD81E8B9
:102AA0009BE00E9498078BE79BE00E94980785E7D0
:102AB0009BE00E9498078FE69BE00E94980789E6BA
:102AC0009BE00C9498070E94A51508F481E00895F6
:102AD000E89409C097FB3EF49095809570956195B8
:102AE0007F4F8F4F9F4F9923A9F0F92F96E9BB276E
:102AF0009395F695879577956795B795F111F8CFEA
:102B0000FAF4BB0F11F460FF1BC06F5F7F4F8F4F54
:102B10009F4F16C0882311F096E911C0772321F04A
:102B20009EE8872F762F05C0662371F096E8862FE2
:102B300070E060E02AF09A95660F771F881FDAF739
:102B4000880F9695879597F90895990F0008550F66
:102B5000AA0BE0E8FEEF16161706E807F907C0F023
:102B600012161306E407F50798F0621B730B840B2B
:102B7000950B39F40A2661F0232B242B252B21F405
:102B800008950A2609F4A140A6958FEF811D811DA5
:102B900008950E94DC150C944D160E943F1638F0E3
:102BA0000E94461620F0952311F00C9436160C94D2
:102BB0003C1611240C9481160E945E1670F3959FAA
:102BC000C1F3950F50E0551F629FF001729FBB2724
:102BD000F00DB11D639FAA27F00DB11DAA1F649FC0
:102BE0006627B00DA11D661F829F2227B00DA11D73
:102BF000621F739FB00DA11D621F839FA00D611DF9
:102C0000221F749F3327A00D611D231F849F600D19
:102C1000211D822F762F6A2F11249F5750409AF042
:102C2000F1F088234AF0EE0FFF1FBB1F661F771FCE
:102C3000881F91505040A9F79E3F510580F00C9499
:102C400036160C9481165F3FE4F3983ED4F38695D4
:102C500077956795B795F795E7959F5FC1F7FE2B39
:102C6000880F911D9695879597F9089597F99F6715
:102C700080E870E060E008959FEF80EC0895002404
:102C80000A941616170618060906089500240A94D1
:102C900012161306140605060895092E0394000C57
:102CA00011F4882352F0BB0F40F4BF2B11F460FFE6
:102CB00004C06F5F7F4F8F4F9F4F089557FD90580F
:102CC000440F551F59F05F3F71F04795880F97FBF0
:102CD000991F61F09F3F79F08795089512161306AA
:102CE0001406551FF2CF4695F1DF08C016161706D9
:102CF0001806991FF1CF869571056105089408950E
:102D0000E894BB2766277727CB0197F908950E949F
:102D10009216A59F900DB49F900DA49F800D911DBC
:102D200011240895A29FB001B39FC001A39F700D0D
:102D3000811D1124911DB29F700D811D1124911DC3
:102D400008955058BB27AA270E94B9160C944D1617
:102D50000E943F1638F00E94461620F039F49F3F3B
:102D600019F426F40C943C160EF4E095E7FB0C9451
:102D70003616E92F0E945E1658F3BA1762077307DA
:102D80008407950720F079F4A6F50C9480160EF4CC
:102D9000E0950B2EBA2FA02D0B01B90190010C016B
:102DA000CA01A0011124FF27591B99F0593F50F483
:102DB000503E68F11A16F040A22F232F342F4427DB
:102DC000585FF3CF469537952795A795F0405395D3
:102DD000C9F77EF41F16BA0B620B730B840BBAF0A3
:102DE0009150A1F0FF0FBB1F661F771F881FC2F70E
:102DF0000EC0BA0F621F731F841F48F48795779522
:102E00006795B795F7959E3F08F0B0CF9395880FDB
:102E100008F09927EE0F9795879508950E946616FA
:102E200088F09F5798F0B92F9927B751B0F0E1F08B
:102E3000660F771F881F991F1AF0BA95C9F714C03B
:102E4000B13091F00E948016B1E008950C94801684
:102E5000672F782F8827B85F39F0B93FCCF3869574
:102E600077956795B395D9F73EF4909580957095D1
:102E700061957F4F8F4F9F4F08950E94A51508F4CD
:102E80008FEF0895AA1BBB1B51E107C0AA1FBB1FF0
:102E9000A617B70710F0A61BB70B881F991F5A95E6
:102EA000A9F780959095BC01CD010895A1E21A2E55
:102EB000AA1BBB1BFD010DC0AA1FBB1FEE1FFF1FDE
:102EC000A217B307E407F50720F0A21BB30BE40B2E
:102ED000F50B661F771F881F991F1A9469F7609575
:102EE0007095809590959B01AC01BD01CF0108952F
:102EF000EE0FFF1F881F8BBF0790F691E02D1994EE
:102F00000F931F93CF93DF938230910510F482E0EB
:102F100090E0E091890BF0918A0B30E020E0B0E086
:102F2000A0E0309799F42115310509F44AC0281B17
:102F3000390B24303105D8F58A819B8161157105E3
:102F400089F1FB0193838283FE0111C0408151818D
:102F50000281138148175907E0F04817590799F47F
:102F6000109761F012960C93129713961C93329659
:102F7000CF01DF91CF911F910F9108950093890B9D
:102F800010938A0BF4CF2115310551F042175307E6
:102F900038F0A901DB019A01BD01DF01F801C1CFC1
:102FA000EF01F9CF90938A0B8093890BCDCFFE016F
:102FB000E20FF31F819391932250310939832883C3
:102FC000D7CF2091870B3091880B232B41F4209190
:102FD0000402309105023093880B2093870B2091D7
:102FE0000202309103022115310541F42DB73EB79D
:102FF0004091060250910702241B350BE091870B8C
:10300000F091880BE217F307A0F42E1B3F0B281753
:10301000390778F0AC014E5F5F4F2417350748F051
:103020004E0F5F1F5093880B4093870B81939193B2
:103030009FCFF0E0E0E09CCFCF93DF930097E9F0E3
:10304000FC01329713821282A091890BB0918A0BF6
:10305000ED0130E020E01097A1F420813181820F52
:10306000931F2091870B3091880B2817390709F09F
:1030700061C0F093880BE093870BDF91CF910895A7
:10308000EA01CE17DF07E8F54A815B819E01411511
:103090005105B1F7E901FB83EA8349915991C40FC6
:1030A000D51FEC17FD0761F4808191810296840F92
:1030B000951FE90199838883828193819B838A8309
:1030C000F0E0E0E012968D919C9113970097B9F58E
:1030D0002D913C911197CD010296820F931F209163
:1030E000870B3091880B2817390739F6309751F53F
:1030F00010928A0B1092890BB093880BA093870BC8
:10310000BCCFD383C28340815181840F951FC817E0
:10311000D90761F44E5F5F4F88819981480F591F2D
:10312000518340838A819B8193838283211531055A
:1031300009F0B0CFF0938A0BE093890B9ECFFD018D
:10314000DC01C0CF13821282D7CF4F925F926F9271
:103150007F928F929F92AF92BF92CF92DF92EF9227
:10316000FF920F931F93CF93DF938C01009799F4F5
:10317000CB01DF91CF911F910F91FF90EF90DF90E6
:10318000CF90BF90AF909F908F907F906F905F9007
:103190004F900C948017FC01E60FF71F9C01225002
:1031A0003109E217F30708F4AEC0D901CD91DC91E3
:1031B0001197C617D70720F1C530D10578F0CE0199
:1031C00004978617970750F0C61BD70B2297C19319
:1031D000D1936D937C93CF010E941C18C801DF919D
:1031E000CF911F910F91FF90EF90DF90CF90BF9004
:1031F000AF909F908F907F906F905F904F900895C9
:103200005B01AC1ABD0A4C018C0E9D1EA091890B6E
:10321000B0918A0B512C412CF12CE12C109731F5F7
:103220008091870B9091880B8815990509F05CC0F7
:103230004616570608F058C080910202909103028A
:10324000009741F48DB79EB7409106025091070256
:10325000841B950BE817F90708F055C0F093880B0D
:10326000E093870BF90171836083B8CF8D919C91B6
:10327000119712966C90129713967C901397A8153D
:10328000B90559F56C0142E0C40ED11CCA14DB0427
:1032900020F1AC014A195B09DA011296159780F00A
:1032A0006282738251834083D9016D937C93E114D0
:1032B000F10471F0D7011396FC93EE9312978ECF21
:1032C00022968C0F9D1FF90191838083F301EFCF2C
:1032D000F0938A0BE093890B81CF4816590608F4C6
:1032E0002C017D01D3019ACFCB010E9480177C0174
:1032F000009749F0AE01B8010E948619C8010E94EA
:103300001C1887016BCF10E000E068CFFB01DC01E7
:1033100002C001900D9241505040D8F70895FC0131
:103320008191861721F08823D9F79927089531973D
:10333000CF010895FB01DC0101900D920020E1F71F
:103340000895FB0151915523A9F0BF01DC014D9176
:1033500045174111E1F759F4CD010190002049F0E2
:103360004D9140154111C9F3FB014111EFCF81E0AF
:1033700090E00197089510E0C3EAD0E000E006C0B5
:10338000802FFE010E9478172196011DC43AD107B3
:1033900080E00807A9F7F894FFCF0C0200008B0B20
:1033A000800000000000B00FA007220CE002E30242
:1033B000EE02FE020B031403000000006C027C010D
:1033C000C901BB027101DB0135022F2F2727222201
:1033D0005C5C6208660C6E0A720D7409005C7530E4
:1033E000303030006E756C6C00747275650066610B
:1033F0006C736500434D443A2041542B43535100B4
:1034000041542B4353510D0A00526573706F6E7314
:10341000653A20002B4353513A20004E6F207265CD
:1034200073706F6E73652072656365697665642E6F
:103430000041542B4D5154545355423F00544F506A
:103440004943203132330041542B4D51545453558C
:10345000423D544F504943203132332C302C300000
:1034600050617273696E67206661696C65643A20A9
:10347000006D736700636F6465004F6B00456D708E
:103480007479496E70757400496E636F6D706C6508
:103490007465496E70757400496E76616C69644933
:1034A0006E707574004E6F4D656D6F727900546F5C
:0634B0006F446565700029
:020000040003F7
:10E000000D9489F10D94B2F10D94B2F10D94B2F129
:10E010000D94B2F10D94B2F10D94B2F10D94B2F1F0
:10E020000D94B2F10D94B2F10D94B2F10D94B2F1E0
:10E030000D94B2F10D94B2F10D94B2F10D94B2F1D0
:10E040000D94B2F10D94B2F10D94B2F10D94B2F1C0
:10E050000D94B2F10D94B2F10D94B2F10D94B2F1B0
:10E060000D94B2F10D94B2F10D94B2F10D94B2F1A0
:10E070000D94B2F10D94B2F10D94B2F10D94B2F190
:10E080000D94B2F10D94B2F10D94B2F10D94B2F180
:10E090000D94B2F10D94B2F10D94B2F10D94B2F170
:10E0A0000D94B2F10D94B2F10D94B2F10D94B2F160
:10E0B0000D94B2F10D94B2F10D94B2F10D94B2F150
:10E0C0000D94B2F10D94B2F10D94B2F10D94B2F140
:10E0D0000D94B2F10D94B2F10D94B2F10D94B2F130
:10E0E0000D94B2F141546D656761323536300041AF
:10E0F000726475696E6F206578706C6F72657220DE
:10E1000073746B3530305632206279204D4C530099
:10E11000426F6F746C6F616465723E004875683F52
:10E1200000436F6D70696C6564206F6E203D200048
:10E130004350552054797065202020203D20005FF9
:10E140005F4156525F415243485F5F3D2000415658
:10E1500052204C696243205665723D20004743437C
:10E160002056657273696F6E203D20004350552024
:10E1700049442020202020203D20004C6F7720663D
:10E18000757365202020203D20004869676820665F
:10E190007573652020203D200045787420667573D6
:10E1A00065202020203D20004C6F636B2066757336
:10E1B000652020203D20004D617220203720323024
:10E1C000313300312E362E3800342E332E350056A2
:10E1D00023202020414444522020206F7020636F70
:10E1E00064652020202020696E73747275637469E1
:10E1F0006F6E2061646472202020496E74657272B3
:10E20000757074006E6F20766563746F7200726A49
:10E210006D702020006A6D70200057686174207056
:10E220006F72743A00506F7274206E6F7420737541
:10E2300070706F72746564004D7573742062652030
:10E2400061206C6574746572002000577269747483
:10E25000696E672045450052656164696E672045B7
:10E26000450045452065727220636E743D00504F35
:10E27000525400303D5A65726F2061646472003FF1
:10E280003D43505520737461747300403D454550C3
:10E29000524F4D207465737400423D426C696E6B41
:10E2A000204C454400453D44756D70204545505215
:10E2B0004F4D00463D44756D7020464C415348001B
:10E2C000483D48656C70004C3D4C69737420492F83
:10E2D0004F20506F72747300513D51756974005234
:10E2E0003D44756D702052414D00563D73686F7707
:10E2F00020696E7465727275707420566563746FF0
:10E30000727300593D506F727420626C696E6B00BD
:10E310002A0011241FBECFEFD1E2DEBFCDBF01E046
:10E320000CBF12E0A0E0B2E0EEE1FDEF03E00BBFB6
:10E3300002C007900D92A030B107D9F712E0A0E01B
:10E34000B2E001C01D92AE30B107E1F70F9460F367
:10E350000D948DFE01E20EBF0FEF0DBF11241FBE05
:10E360000D9460F30D9400F020E030E040ED57E0B4
:10E3700005C0FA013197F1F72F5F3F4F2817390792
:10E38000C0F308959C01260F311DC901A0E0B0E043
:10E390002F5F3F4FABBFFC018791882361F08093D3
:10E3A000C6008091C00086FFFCCF8091C0008064D1
:10E3B0008093C000EACF08958DE08093C6008091DD
:10E3C000C00086FFFCCF8091C00080648093C000B5
:10E3D0008AE08093C6008091C00086FFFCCF8091C8
:10E3E000C00080648093C00008950F94C2F10F9420
:10E3F000DCF10895FC019081992359F09093C600B7
:10E400008091C00086FFFCCF8091C0008064809323
:10E41000C0003196992379F70895282F982F929567
:10E420009F70892F805D8A3308F0895F8093C600D2
:10E430008091C00086FFFCCF8091C00080648093F3
:10E44000C000822F8F70982F905D9A3308F0995FEB
:10E450009093C6008091C00086FFFCCF8091C000E1
:10E4600080648093C00008959C01FB01853691056E
:10E470001CF46330710594F0C90164E670E00F94F8
:10E480002EFE605D7F4F6093C6008091C00086FFC6
:10E49000FCCF8091C00080648093C0002B30310598
:10E4A00014F43297B4F0C90164E670E00F942EFEC4
:10E4B0006AE070E00F942EFE605D7F4F6093C600AF
:10E4C0008091C00086FFFCCF8091C0008064809363
:10E4D000C000C9016AE070E00F942EFEC0968093E0
:10E4E000C6008091C00086FFFCCF8091C000806490
:10E4F0008093C00008951F93182F8EE692EE60E07F
:10E500000F94C2F11093C6008091C00086FFFCCF2B
:10E510008091C00080648093C0000F94DCF11F9153
:10E5200008952F923F924F925F926F927F928F92B7
:10E530009F92AF92BF92CF92DF92EF92FF920F9392
:10E540001F93DF93CF93CDB7DEB762970FB6F894E2
:10E55000DEBF0FBECDBF382E622ECA01DB015C01CB
:10E560006D01772420E2222E2E010894411C511CBB
:10E570008BC081E0A81680E0B80681E0C80680E084
:10E58000D80628F0C601AA27BB270F940DF2BB2797
:10E59000AD2D9C2D8B2D0F940DF28A2D0F940DF225
:10E5A0002092C6008091C00086FFFCCF8091C00001
:10E5B00080648093C0009DE29093C6008091C0006B
:10E5C00086FFFCCF8091C00080648093C0002092C1
:10E5D000C6008091C00086FFFCCF8091C00080649F
:10E5E0008093C00019828601750188249924A1E0D6
:10E5F0003A1651F03A1620F0B2E03B1661F409C029
:10E600000BBFF701779007C0C7010F9477FE782EF4
:10E6100002C0F7017080872D0F940DF22092C60082
:10E620008091C00086FFFCCF8091C0008064809301
:10E63000C000872D8052F401EF70F0708F3520F408
:10E64000E40DF51D708204C0E40DF51D8EE280839B
:10E650000894E11CF11C011D111D0894811C911CE2
:10E6600090E18916910409F0C2CF80E190E0A0E02A
:10E67000B0E0A80EB91ECA1EDB1E198AC2010F9493
:10E68000FAF10F94DCF16A94662009F072CF629679
:10E690000FB6F894DEBF0FBECDBFCF91DF911F91B3
:10E6A0000F91FF90EF90DF90CF90BF90AF909F9031
:10E6B0008F907F906F905F904F903F902F90089534
:10E6C0002F923F924F925F926F927F928F929F9282
:10E6D000AF92BF92CF92DF92EF92FF920F931F9370
:10E6E000DF93CF93CDB7DEB7CD53D1400FB6F894BB
:10E6F000DEBF0FBECDBF01E20EBF0FEF0DBF94B75F
:10E70000F894A89514BE80916000886180936000A1
:10E7100010926000789493FF05C0E0910002F091A0
:10E7200001021995279A2F9A8091C00082608093E8
:10E73000C00080E18093C40088E18093C1000000A4
:10E74000EE24FF24870144E0A42EB12CCC24DD2448
:10E7500024C0C5010197F1F70894E11CF11C011DCB
:10E76000111D21E2E2162EE4F20620E0020720E06D
:10E77000120718F031E0C32ED12CC801B70127ECE5
:10E780003BE140E050E00F9441FE611571058105C9
:10E79000910519F485B1805885B98091C00087FD35
:10E7A00003C0C114D104A9F2A6014F5F5F4FC25E3E
:10E7B000DE4F59834883CE51D140C25EDE4F8881FF
:10E7C0009981CE51D140019711F00D9410FEC05D9A
:10E7D000DE4F19821882C053D14060E0C15DDE4F28
:10E7E0001882CF52D14088249924C35DDE4F19820C
:10E7F0001882CD52D140C05EDE4F188219821A8233
:10E800001B82C052D140CE5CDE4F188219821A8220
:10E810001B82C253D140EE24FF2487010BBFF701B6
:10E8200007911691C45CDE4F19830883CC53D14005
:10E830000D940BFEC25EDE4F28813981CE51D1404E
:10E840002130310509F52091C600C25EDE4F1982E4
:10E850001882CE51D14022C02F5F3F4F4F4F5F4FA4
:10E86000213082E138078AE7480780E0580780F0C6
:10E87000C45CDE4FE881F981CC53D140EF5FFF4F9C
:10E8800019F0EE27FF27099420E030E040E050E047
:10E890008091C00087FFE0CF2091C600C35DDE4FAE
:10E8A00048815981CD52D1404F5F5F4FC35DDE4FEC
:10E8B00059834883CD52D140213209F063C64A3092
:10E8C000510508F05FC60894811C911C53E0851621
:10E8D000910409F059C600E010E018C081E280936D
:10E8E000C6008091C00086FFFCCF8091C00080648C
:10E8F0008093C0002F5F3F4F2931310579F70F9486
:10E90000DCF10F5F1F4F0530110519F020E030E0FA
:10E91000E5CF10920A0210920B0210920C02109294
:10E920000D02109206021092070210920802109235
:10E930000902109202021092030210920402109235
:10E9400005028FEE90EE60E00F94F5F180E191EE1C
:10E9500060E00F94C2F18091C00087FFFCCF9091DE
:10E96000C600903608F09F759032B8F09093C600BC
:10E970008091C00086FFFCCF8091C00080648093AE
:10E98000C000A0E2A093C6008091C00086FFFCCF2B
:10E990008091C00080648093C000983409F4D7C18E
:10E9A0009934B8F4923409F459C1933458F490333B
:10E9B00019F1903308F4E3C59F33A1F1903409F0C5
:10E9C000DEC5BDC0953409F470C1963409F0D7C5D1
:10E9D00098C1923509F42BC2933538F49C3409F46C
:10E9E000F5C1913509F0CBC518C2963509F445C279
:10E9F000993509F0C4C567C483E792EE62E00F94CD
:10EA0000F5F110920602109207021092080210927D
:10EA1000090210920A0210920B0210920C0210923C
:10EA20000D0213C18FE792EE62E00F94F5F18FEEC5
:10EA300090EE60E00F94F5F181E291EE60E00F94CA
:10EA4000C2F187EB91EE60E00F94F5F180E391EE77
:10EA500060E00F94C2F184EE90EE60E00F94F5F167
:10EA60008FE391EE60E00F94C2F186E090E061E008
:10EA700070E00F9434F20F94DCF18DE591EE60E0DC
:10EA80000F94C2F189EC91EE60E00F94F5F18EE401
:10EA900091EE60E00F94C2F183EC91EE60E00F9490
:10EAA000F5F18CE691EE60E00F94C2F18EE10F94E7
:10EAB0000DF288E90F940DF281E00F940DF20F949E
:10EAC000DCF18BE791EE60E00F94C2F119E0E0E039
:10EAD000F0E010935700E4918E2F0F940DF20F94F5
:10EAE000DCF18AE891EE60E00F94C2F1E3E0F0E03F
:10EAF00010935700E4918E2F0F940DF20F94DCF1D8
:10EB000089E991EE60E00F94C2F1E2E0F0E0109349
:10EB10005700E4918E2F0F940DF20F94DCF188EAE8
:10EB200091EE60E00F94C2F1E1E0F0E01093570045
:10EB30001491812F0F940DF20F94DCF107CF8BE825
:10EB400092EE62E00F94F5F18BE492EE60E00F94A8
:10EB5000F5F10F94DCF100E010E019C0C8016F2D51
:10EB60000F947FFEFF2031F489E492EE60E00F9471
:10EB7000C2F10BC0F092C6008091C00086FFFCCFAE
:10EB80008091C00080648093C0000F5F1F4FC80158
:10EB900081519F41A0E0B0E0ABBFFC01F790BAE229
:10EBA000FB1621F0E2E000301E07C1F60F94DCF105
:10EBB0000F94DCF187E592EE60E00F94F5F10F948D
:10EBC000DCF1CC24DD2400E010E01EC0C8010F946D
:10EBD00077FEF82E882331F489E492EE60E00F94FA
:10EBE000C2F10BC08093C6008091C00086FFFCCFAD
:10EBF0008091C00080648093C000FE1419F00894D6
:10EC0000C11CD11C0F5F1F4FC80181519F41A0E063
:10EC1000B0E0ABBFFC01E790FAE2EF1621F022E092
:10EC20000030120799F60F94DCF10F94DCF182E6C4
:10EC300092EE60E00F94C2F1C60161E070E00F94C3
:10EC400034F20F94DCF10F94DCF110920202109276
:10EC50000302109204021092050278CE89E992EE26
:10EC600062E00F94F5F1279A2F9A16C02F9880E052
:10EC700090E0E0EDF7E03197F1F7019684369105E9
:10EC8000C1F72F9A80E090E0E0EDF7E03197F1F7DF
:10EC9000019684369105C1F78091C00087FFE6CFC9
:10ECA0008091C00087FFFCCF64C485EA92EE62E0E9
:10ECB0000F94F5F140910202509103026091040219
:10ECC0007091050281E020E10F9491F2809102029F
:10ECD00090910302A0910402B091050280509F4FD1
:10ECE000AF4FBF4F8093020290930302A0930402A0
:10ECF000B093050280509041A040B04008F426CE69
:10ED0000A4CF83EB92EE62E00F94F5F140910602FE
:10ED100050910702609108027091090280E020E1A1
:10ED20000F9491F28091060290910702A09108023F
:10ED3000B091090280509F4FAF4FBF4F80930602A2
:10ED400090930702A0930802B0930902FFCD80ECD4
:10ED500092EE62E00F94F5F183E792EE60E00F949B
:10ED6000F5F18FE792EE60E00F94F5F18BE892EE0B
:10ED700060E00F94F5F189E992EE60E00F94F5F10F
:10ED800085EA92EE60E00F94F5F183EB92EE60E09D
:10ED90000F94F5F180EC92EE60E00F94F5F187ECC2
:10EDA00092EE60E00F94F5F188ED92EE60E00F9442
:10EDB000F5F18FED92EE60E00F94F5F18AEE92EEB0
:10EDC00060E00F94F5F183E093EEBDCD87EC92EE19
:10EDD00062E00F94F5F181E40F947BF282E40F94EA
:10EDE0007BF283E40F947BF284E40F947BF285E45E
:10EDF0000F947BF286E40F947BF287E40F947BF20E
:10EE000088E40F947BF28AE40F947BF28BE40F94F6
:10EE10007BF28CE40F947BF299CD88ED92EE62E068
:10EE20000F94F5F1772473948824992409C48FED05
:10EE300092EE62E00F94F5F140910A0250910B02BC
:10EE400060910C0270910D0282E020E10F9491F22A
:10EE500080910A0290910B02A0910C02B0910D02D8
:10EE600080509F4FAF4FBF4F80930A0290930B0289
:10EE7000A0930C02B0930D0269CD8AEE92EE62E08F
:10EE80000F94F5F184EE90EE60E00F94F5F18FECC5
:10EE900091EE60E00F94F5F1662477244301CC5D98
:10EEA000DE4F19821882C452D140D401C301B695F5
:10EEB000A79597958795CA5DDE4F88839983AA8326
:10EEC000BB83C652D140CC5DDE4FA881B981C4520C
:10EED000D1401196CC5DDE4FB983A883C452D14096
:10EEE000CD0162E070E00F9434F2B0E2B093C6005E
:10EEF0008091C00086FFFCCF8091C0008064809329
:10EF0000C000EDE2E093C6008091C00086FFFCCF18
:10EF10008091C00080648093C000F0E2F093C6004E
:10EF20008091C00086FFFCCF8091C00080648093F8
:10EF3000C000CA5DDE4FE880F9800A811B81C6529D
:10EF4000D140BB27A12F902F8F2D0F940DF2CA5DBA
:10EF5000DE4F8881C652D1400F940DF2B0E2FB2EF5
:10EF6000F092C6008091C00086FFFCCF8091C00067
:10EF700080648093C0000DE30093C6008091C000C0
:10EF800086FFFCCF8091C00080648093C00010E2B7
:10EF90001093C6008091C00086FFFCCF8091C00016
:10EFA00080648093C0008BBEF3012791C65DDE4F65
:10EFB0002883CA52D140A22EBB24CC24DD2408943D
:10EFC000611C711C811C911C8BBEF3018791282E42
:10EFD0003324442455240894611C711C811C911C09
:10EFE0008BBEF3013791C55DDE4F3883CB52D140E4
:10EFF0000894611C711C811C911C8BBEF30147910C
:10F00000C45DDE4F4883CC52D140ADEFEA2EAFEF66
:10F01000FA2EAFEF0A2FAFEF1A2F6E0C7F1C801E57
:10F02000911E142D032DF22CEE24EA0CFB1C0C1D5A
:10F030001D1D0F940DF220E22093C6008091C000A8
:10F0400086FFFCCF8091C00080648093C000C65DC5
:10F05000DE4F8881CA52D1400F940DF230E23093D6
:10F06000C6008091C00086FFFCCF8091C000806404
:10F070008093C000C45DDE4F8881CC52D1400F9494
:10F080000DF240E24093C6008091C00086FFFCCFA5
:10F090008091C00080648093C000C55DDE4F888190
:10F0A000CB52D1400F940DF250E25093C6008091A4
:10F0B000C00086FFFCCF8091C00080648093C000B8
:10F0C0008FEFE8168FEFF80680E0080780E018075A
:10F0D00031F484E092EE60E00F94C2F1DFC0D80119
:10F0E000C7018070907CA070B0708050904CA040A0
:10F0F000B040D1F52FEF3FE340E050E0E222F322B1
:10F1000004231523CA5DDE4FA880B980CA80DB8046
:10F11000C652D140AE0CBF1CC01ED11EAA0CBB1CD7
:10F12000CC1CDD1C8EE092EE60E00F94C2F1BB2798
:10F13000A12F902F8F2D0F940DF28E2D0F940DF285
:10F1400030E23093C6008091C00086FFFCCF8091F2
:10F15000C00080648093C0004EE34093C60080915D
:10F16000C00086FFFCCF87C08EE09EEFA0E0B0E03D
:10F17000E822F9220A231B239CE0E91694E9F90608
:10F1800090E0090790E0190709F088C0C45DDE4FE0
:10F19000A881CC52D140EA2EFF2400E010E0102FCD
:10F1A0000F2DFE2CEE24C55DDE4FB881CB52D14031
:10F1B000EB0EF11C011D111DD601C501817090706F
:10F1C000A070B070DC0199278827E80EF91E0A1F8D
:10F1D0001B1F20EF30E040E050E0A222B322C42207
:10F1E000D52241E1AA0CBB1CCC1CDD1C4A95D1F7F1
:10F1F000EA0CFB1C0C1D1D1D81E090E0A0E0B0E0BE
:10F20000282239224A225B2235E1220C331C441C7D
:10F21000551C3A95D1F7E20CF31C041D151D57013E
:10F220006801AA0CBB1CCC1CDD1C85E192EE60E0E1
:10F230000F94C2F1C801AA27BB270F940DF2BB2778
:10F24000A12F902F8F2D0F940DF28E2D0F940DF274
:10F2500090E29093C6008091C00086FFFCCF809121
:10F26000C00080648093C000AEE3A093C60080918C
:10F27000C00086FFFCCF8091C00080648093C000F6
:10F28000C601AA27BB270F940DF2BB27AD2D9C2DDD
:10F290008B2D0F940DF28A2D0F940DF20F94DCF14B
:10F2A000CC5DDE4FE881F981C452D140F99709F471
:10F2B0004DCBF4E0EF2EF12C012D112D6E0C7F1CA7
:10F2C000801E911EF2CD83E093EE62E00F94F5F183
:10F2D0008AE192EE60E00F94C2F18091C00087FF56
:10F2E000FCCF1091C6001F751093C6008091C0001E
:10F2F00086FFFCCF8091C00080648093C0000F9493
:10F30000DCF1812F81548A3108F036C1163409F4BA
:10F3100095C0173490F4133409F44EC0143430F40B
:10F320001134F1F0123409F01DC130C0143409F465
:10F3300059C0153409F016C16BC01A3409F4C4C0A1
:10F340001B3438F4173409F48FC0183409F00AC19B
:10F35000A1C01B3409F4D2C01C3409F003C1E8C0B9
:10F360008FEF81B90DC082B1809582B980E090E0C5
:10F37000E0EDF7E03197F1F70196883C9105C1F790
:10F380008091C00087FFEFCF12B8EFC08FEF84B934
:10F390000DC085B1809585B980E090E0E0EDF7E0A3
:10F3A0003197F1F70196883C9105C1F78091C00033
:10F3B00087FFEFCF15B8D9C08FEF87B90DC088B1DF
:10F3C000809588B980E090E0E0EDF7E03197F1F7C3
:10F3D0000196883C9105C1F78091C00087FFEFCF6F
:10F3E00018B8C3C08FEF8AB90DC08BB180958BB9A7
:10F3F00080E090E0E0EDF7E03197F1F70196883C8E
:10F400009105C1F78091C00087FFEFCF1BB8ADC059
:10F410008FEF8DB90DC08EB180958EB980E090E0F0
:10F42000E0EDF7E03197F1F70196883C9105C1F7DF
:10F430008091C00087FFEFCF1EB897C08FEF80BBD1
:10F440000DC081B3809581BB80E090E0E0EDF7E0F6
:10F450003197F1F70196883C9105C1F78091C00082
:10F4600087FFEFCF11BA81C08FEF83BB0DC084B38C
:10F47000809584BB80E090E0E0EDF7E03197F1F714
:10F480000196883C9105C1F78091C00087FFEFCFBE
:10F4900014BA6BC08FEF809301010FC080910201FD
:10F4A00080958093020180E090E0E0EDF7E03197F5
:10F4B000F1F70196883C9105C1F78091C00087FF64
:10F4C000EDCF1092020151C08FEF809304010FC065
:10F4D0008091050180958093050180E090E0E0ED4A
:10F4E000F7E03197F1F70196883C9105C1F78091DB
:10F4F000C00087FFEDCF1092050137C08FEF8093DA
:10F5000007010FC08091080180958093080180E079
:10F5100090E0E0EDF7E03197F1F70196883C910536
:10F52000C1F78091C00087FFEDCF109208011DC088
:10F530008FEF80930A010FC080910B01809580931B
:10F540000B0180E090E0E0EDF7E03197F1F70196F4
:10F55000883C9105C1F78091C00087FFEDCF1092E4
:10F560000B0103C085E292EEEEC98091C00087FFD7
:10F57000FCCF8091C600EAC988E392EEE4C98CE131
:10F5800091EEE1C988249924933011F1943028F444
:10F59000913089F09230B8F408C0953061F195301F
:10F5A000F0F0963009F048C043C02B3109F042C951
:10F5B00091E06BE13FC96227C15DDE4F2883CF52E6
:10F5C000D14092E037C9B22FA0E0622793E032C960
:10F5D000822F90E0A82BB92B622794E02BC92E3004
:10F5E00009F039C3622795E0C05DDE4F19821882A9
:10F5F000C053D1401FC9E1E0F0E0EC0FFD1FC05D3A
:10F60000DE4F08811981C053D140E00FF11F2083E4
:10F610000F5F1F4FC05DDE4F19830883C053D14079
:10F6200062270A171B0709F005C9D80196E002C92D
:10F63000261709F010C303C0973009F0FBC87724E0
:10F640009981933109F412C19431C8F4963009F4C8
:10F65000D8C0973050F4923009F406C1933009F4C1
:10F660006DC0913009F059C253C0913109F477C08F
:10F67000923108F0BBC0903109F04FC2F5C098310B
:10F6800009F487C0993150F4953109F4EFC09531F0
:10F6900008F4C6C1963109F040C2C2C19A3109F4DA
:10F6A0006CC09A3108F491C09B3109F45BC09D3164
:10F6B00009F033C29D81903359F48F81882311F46E
:10F6C0009EE11CC0813011F091E018C098E916C08D
:10F6D000892F807591F0903539F4E0E0F0E089E011
:10F6E0008093570094910AC0983539F4E3E0F0E034
:10F6F00089E080935700949101C090E01A821B82A8
:10F700008D818C831D829E831F8227E030E009C299
:10F710001A8288E08B8381E48C8386E58D8382E581
:10F720008E8389E48F8383E5888780E589878FE5E9
:10F730008A8782E38B872BE030E0F3C18A818139AD
:10F7400041F0823941F0803911F48FE005C080E04A
:10F7500003C082E001C08AE01A828B8344C0772410
:10F76000739482C08D81882311F48EE12CC0813086
:10F7700011F081E028C088E926C01A82E1E0F0E0BB
:10F7800089E08093570084918B831C8224E030E0D1
:10F79000C8C18B81803589F48C81883039F4E2E0EE
:10F7A000F0E089E08093570084910DC0E0E0F0E044
:10F7B00089E080935700849106C0E3E0F0E089E09F
:10F7C0008093570084911A82DFCF8D81836C99E0FA
:10F7D000E1E0F0E0082E90935700E89507B600FCB2
:10F7E000FDCF1A821B8223E030E09BC180EC8A832C
:10F7F000CE5CDE4F188219821A821B82C253D1401E
:10F800008EC18A8190E0A0E0B0E0582F44273327D2
:10F8100022278B8190E0A0E0B0E0DC0199278827C7
:10F82000282B392B4A2B5B2B8D8190E0A0E0B0E098
:10F83000282B392B4A2B5B2B8C8190E0A0E0B0E089
:10F84000BA2FA92F982F8827282B392B4A2B5B2BCF
:10F85000220F331F441F551FC05EDE4F288339839C
:10F860004A835B83C052D1401A8259C13A81C95C34
:10F87000DE4F3883C753D140CA5CDE4F1882C6536F
:10F88000D1408B81C82EDD24CA5CDE4F488159816E
:10F89000C653D140C42AD52A933109F082C0CE5C28
:10F8A000DE4F88819981AA81BB81C253D1408050AB
:10F8B000904CA340B04030F583E0CE5CDE4FE88052
:10F8C000F9800A811B81C253D140F70100935B008C
:10F8D00080935700E89507B600FCFDCFCE5CDE4F65
:10F8E000088119812A813B81C253D14000501F4FAA
:10F8F0002F4F3F4FCE5CDE4F088319832A833B8313
:10F90000C253D140C05EDE4F488159816A817B81FC
:10F91000C052D140DE011B9631E08C9111962C91A2
:10F9200011971296C75CDE4F2883C953D140C85C3B
:10F93000DE4F1882C853D14090E0C85CDE4FE881AA
:10F94000F981C853D1408E2B9F2B0C01FA01609393
:10F950005B0030935700E89511244E5F5F4F6F4F67
:10F960007F4F0EEFE02E0FEFF02ECE0CDF1CC114F8
:10F97000D10499F685E0C05EDE4F088119812A81A5
:10F980003B81C052D140F80120935B008093570027
:10F99000E89507B600FCFDCF81E180935700E8951C
:10F9A00035C0C05EDE4F88819981AA81BB81C0527B
:10F9B000D140B695A795979587957C018601ABE0D8
:10F9C000AA2EB12CAC0EBD1E0BC0D5016D915D01F0
:10F9D000C7010F947FFE0894E11CF11C01501040F8
:10F9E0000115110591F7A60160E070E0440F551F65
:10F9F000661F771FC05EDE4FE880F9800A811B8199
:10FA0000C052D1404E0D5F1D601F711F1A82C05E33
:10FA1000DE4F488359836A837B83C052D1407FC0C5
:10FA2000FA80C55CDE4FF882CB53D140C65CDE4F16
:10FA30001882CA53D1408B81C82EDD24C65CDE4FAC
:10FA400008811981CA53D140C02AD12A1A828981DA
:10FA5000BE016D5F7F4F843121F59601C05EDE4FA0
:10FA6000E880F9800A811B81C052D1400BBFF701A9
:10FA700087919691DB018C9311969C936E5F7F4FDB
:10FA8000D801C7010296A11DB11DC05EDE4F88835B
:10FA90009983AA83BB83C052D14022503040F1F6F3
:10FAA00036C0C05EDE4F288139814A815B81C052F9
:10FAB000D1400894C108D108760100E010E0089414
:10FAC000C11CD11C0894E11CF11C011D111DE20E8A
:10FAD000F31E041F151F21BDBB27A52F942F832FB5
:10FAE00082BD2F5F3F4F4F4F5F4FF89A80B5DB01CC
:10FAF0008D93BD012E153F054007510761F7C05E8C
:10FB0000DE4F288339834A835B83C052D1409601FC
:10FB10002D5F3F4FFB01108204C080EC8A8322E0FE
:10FB200030E08BE18093C6008091C00086FFFCCF5F
:10FB30008091C00080648093C000C15DDE4FF88179
:10FB4000CF52D140F093C6008091C00086FFFCCF19
:10FB50008091C00080648093C000432F3093C60022
:10FB60008091C00086FFFCCF8091C00080648093AC
:10FB7000C000922F2093C6008091C00086FFFCCF6A
:10FB80008091C00080648093C0008EE08093C600A6
:10FB90008091C00086FFFCCF8091C000806480937C
:10FBA000C00065E1C15DDE4FE880CF52D1406E25D7
:10FBB00069276427FE01319610C090819093C6009A
:10FBC0008091C00086FFFCCF31968091C000806498
:10FBD0008093C0006927215030402115310569F715
:10FBE0006093C6008091C00086FFFCCF8091C0006A
:10FBF00080648093C00085B1805885B9772081F4F6
:10FC0000C15DDE4F0881CF52D1400F5FC15DDE4F35
:10FC10000883CF52D14090E0A0E0B0E00D941AF4F8
:10FC200027982F9880E090E020ED37E0F901319798
:10FC3000F1F7019684369105C9F700008091C00064
:10FC40008D7F8093C00081E180935700E895EE2777
:10FC5000FF270994FFCF90E00D941AF497FB092E2B
:10FC600007260AD077FD04D02ED006D000201AF443
:10FC7000709561957F4F0895F6F7909581959F4F08
:10FC80000895A1E21A2EAA1BBB1BFD010DC0AA1FDD
:10FC9000BB1FEE1FFF1FA217B307E407F50720F0F5
:10FCA000A21BB30BE40BF50B661F771F881F991F70
:10FCB0001A9469F760957095809590959B01AC01B9
:10FCC000BD01CF010895AA1BBB1B51E107C0AA1FAC
:10FCD000BB1FA617B70710F0A61BB70B881F991FED
:10FCE0005A95A9F780959095BC01CD010895F99991
:10FCF000FECF92BD81BDF89A992780B50895262F31
:10FD0000F999FECF1FBA92BD81BD20BD0FB6F89400
:0EFD1000FA9AF99A0FBE01960895F894FFCF63
:00000001FF
