:100000000C948F030C94C0030C94C0030C94C00395
:100010000C94C0030C94C0030C94C0030C94C00354
:100020000C94C0030C94C0030C94C0030C94C00344
:100030000C94C0030C94C0030C94C0030C94C00334
:100040000C94C0030C94C0030C94C0030C94C00324
:100050000C94C0030C94C0030C94C0030C9497142C
:100060000C94C0030C9407160C94DD150C94C0037B
:100070000C94C0030C94C0030C94C0030C94C003F4
:100080000C94C0030C94C0030C94C0030C94C003E4
:100090000C94B3150C9489150C94C0030C94C003F4
:1000A0000C94C0030C94C0030C94C0030C94C003C4
:1000B0000C94C0030C94C0030C94C0030C94C003B4
:1000C0000C94C0030C94C0030C94C0030C945F15F3
:1000D0000C9435150C94C0030C940B150C94E1147E
:1000E0000C94C0030C9402080C9420040C94F203AA
:1000F0000C94FB030C94E11D0C94B11D0C94331172
:100100000C947D160C942B080C942E090C94C81298
:100110000C94EB0A0C9415100C94EA030C940D0447
:100120000C94A01D0C9468070C947E070C94130487
:100130000C94431D0C9494050C9473070C94C90AF9
:100140000C94D3060C94ED1D0C9431160C94E70915
:100150000C9409040C949F0A0C94D30A0C94710516
:100160000C946C1D0C9489090C94F5030C94A20555
:100170000C9405040C94601D0C9417040C947406E4
:100180000C9421040C941B040C9452070C945407F7
:100190000C94481D0C9414130C94E0030C94A612B8
:1001A0000C94BD1D0C9481050C9425040C94741DB5
:1001B0000C94FF030C94941D0C9489070C94E60E88
:1001C0000C9494070C94E6030C943E1D0C94D51DDE
:1001D0000C942A0E0C942C050C94541D0C94A6100F
:1001E0000C94F50A0C94EE030C94C91D0C9442086F
:1001F0000C94FE100C94F7110C94881D0C9475123D
:100200000C947D140C94FC0A0C9417080C947C1D1F
:100210000C94B6073E3E3E20496F542057617463EC
:1002200068646F67204177616B656E005B53747221
:10023000696E67205370616365204E4F54204F4BA9
:100240005D005B537472205370616365204F4B5D9A
:1002500000466F726365205075626C6973683A007E
:100260000041542B514D544F50454E3D302C696F39
:10027000742E7265632D67742E636F6D2C31383860
:100280003000466F726365204F70656E3A004F50C4
:10029000454E00464F5243450052455345540000D9
:1002A000000020002300260029002C002F0032002F
:1002B000000100000301060109015B48656C6C6FD9
:1002C0002066726F6D205245432D47545D004154A6
:1002D000000000002B514D545055423A20302C3133
:1002E0002C30002B514D545055423A20302C302C9C
:1002F00030002B514D5450554245583A20302C3146
:100300002C30002B514D5450554245583A20302C3A
:10031000302C30003E0041542B4353510041542BAC
:100320004350494E3F003E3E3E2051756572792054
:100330004350494E20262043535100302C31003188
:10034000002B514D545355423A20302C312C302C37
:1003500030002B514D54434F4E4E3A20302C302C10
:1003600030002B514D544F50454E3A20302C300028
:1003700041542B514D544F50454E3D302C382E3268
:1003800031302E38342E32342C313838300041544C
:100390002B514D544F50454E3D302C696F742E7289
:1003A00065632D67742E636F6D2C313838300041D2
:1003B000542B43455245473F0041542B434741543A
:1003C000543F0041542B4353510041542B43475356
:1003D0004E3D310041542B514D54444953433D301F
:1003E0000041542B514D54434C4F53453D30004137
:1003F000542B4345445258533D302C350041542B27
:100400004353434F4E3D300041542B4350534D53C3
:100410003D300041542B5153434C4B3D300041542F
:100420002B4346554E3D310041542B5149444E53C8
:100430004346473D302C312E312E312E312C323275
:10044000332E352E352E350041542B5153434C4B12
:100450003D300041542B4346554E3D31003E3E3E1B
:1004600020494F5420434F4E4E454354494F4E2050
:10047000494E495400415449003E3E3E20494F54A4
:100480002053455249414C204641494C2100290006
:100490003E3E3E20494F542053455249414C205046
:1004A000524F42452E2E2E20280041542B515343AB
:1004B0004C4B3D300041544530003E3E3E204649C5
:1004C0004E495348204841524457415245205245D5
:1004D0005345540052445900000000000000000041
:1004E0000000003E3E3E20494F54204D4F44554CA5
:1004F0004520494E49542C205245534554002B4326
:1005000050494E3A204E4F54205245414459002BF9
:10051000434D45204552524F52002B5149555243AD
:100520003A20227064706465616374222C31002B60
:10053000514D54524543563A2000302C31002B4344
:10054000455245473A20302C310031002B4347417A
:1005500054543A2031002B4353513A20002F6F75E9
:10056000742C300041542B514D545355423D302C86
:10057000312C7267742F002C747377682C31576F8D
:100580003D5B367641306D0041542B514D54434F05
:100590004E4E3D302C6465765F002B4347534E3AF8
:1005A000200000002100240027002A002D00300038
:1005B000330001010000040107010A0100002200CC
:1005C000250028002B002E0031003400020100001D
:1005D000050108010B0105050505070508080808C0
:1005E000020202020A0A08080404040401010101CB
:1005F00001010101030303030303030304070707C6
:100600000C0C0C0C0C0C0C0C02020202060606066A
:10061000060606060B0B0B0B0B0B0B0B0102102037
:100620002008081020401020408002010201080428
:1006300002010102040810204080804020100804BC
:100640000201800402018040201008040201080415
:100650000201010204081020408001020408102059
:10066000408000000A0B02090C0D0E08070304016C
:10067000000000000000000000000000000000007A
:100680000000000000000000000000000000121147
:10069000100000000000000000000000000000004A
:1006A00000000000000000005D002C005B005D0009
:1006B0002C005B002F696E2C0041542B514D54507F
:1006C000554245583D302C312C322C302C726774F9
:1006D0002F0041542B514D545055423D302C312C5C
:1006E000322C302C7267742F007D0022616F75747C
:1006F000223A002C002261696E223A002C0022640A
:100700006F7574223A002C002264696E223A002C24
:10071000007B22637371223A00007D16311611248A
:100720001FBECFEFD1E2DEBFCDBF00E00CBF15E0B2
:10073000A0E0B2E0EAE8F7E500E00BBF02C00790F6
:100740000D92A433B107D9F722E1A4E3B5E001C0CB
:100750001D92A034B207E1F713E0CEE8D3E000E049
:1007600006C021970109802FFE010E94C726CD38BF
:10077000D10780E00807A9F70E94CF190C94B32B8A
:100780000C9400008150823108F05AC0E82FF0E04C
:100790008827E253FC4F8F4F0C94C726EE03F203D9
:1007A000E003E603EA032004F503FB03FF0305046B
:1007B00009040D041304170420041B042104250458
:1007C000809180008F7780938000089580918000D1
:1007D0008F7DF9CF80918000877FF5CF84B58F77AB
:1007E00084BD089584B58F7DFBCF8091B0008F7755
:1007F0008093B00008958091B0008F7DF9CF8091F3
:1008000090008F77809390000895809190008F7D65
:10081000F9CF80919000877FF5CF8091A0008F77EE
:100820008093A00008958091A0008F7DF9CF8091E2
:10083000A000877FF5CF809120018F7780932001E2
:100840000895809120018F7DF9CF80912001877FCD
:10085000F5CF1F93CF93DF93282F30E0F901EE59A6
:10086000F94F8491F901E45EF94FD491F901EA520C
:10087000FA4FC491CC23A9F0162F81110E94C20314
:10088000EC2FF0E0EE0FFF1FE454FA4FA591B49166
:100890008FB7F894EC91111108C0D095DE23DC934A
:1008A0008FBFDF91CF911F910895DE2BF8CFCF93AB
:1008B000DF9390E0FC01E45EF94F24918A529A4F55
:1008C000FC0184918823C9F090E0880F991FFC01F6
:1008D000EE55FA4FA591B491FC01E454FA4FC5913D
:1008E000D49161110DC09FB7F8948C91209582230B
:1008F0008C938881282328839FBFDF91CF9108950F
:10090000623051F49FB7F8943C91822F80958323F5
:100910008C93E8812E2BEFCF8FB7F894EC912E2B90
:100920002C938FBFEACF863308F0865320917B004B
:10093000982F9870277F922B90937B002091000234
:1009400090E4299F900111248770822B80937C0072
:1009500080917A00806480937A0080917A0086FD8D
:10096000FCCF809178009091790008953FB7F8947A
:1009700080917E0590917F05A0918005B0918105C1
:1009800026B5A89B05C02F3F19F00196A11DB11DEA
:100990003FBFBA2FA92F982F8827BC01CD01620F26
:1009A000711D811D911D42E0660F771F881F991FE1
:1009B0004A95D1F708958F929F92AF92BF92CF92AE
:1009C000DF92EF92FF926B017C010E94B6044B0113
:1009D0005C01C114D104E104F104B9F00E94B60431
:1009E000681979098A099B09683E73408105910558
:1009F00080F321E0C21AD108E108F10888EE880EE0
:100A000083E0981EA11CB11CE4CFFF90EF90DF9013
:100A1000CF90BF90AF909F908F9008952FB7F8948C
:100A200060917A0570917B0580917C0590917D05A0
:100A30002FBF0895FC01248135816217730748F4A4
:100A400080819181009729F0860F971FFC0180819A
:100A5000089580E008950895AF92BF92CF92DF92FB
:100A6000EF92FF920F931F93CF93DF936C017B0163
:100A70008B01040F151FEB015E01AE18BF08C017F4
:100A8000D10759F06991D601ED91FC910190F08167
:100A9000E02DC6011995892B79F7C501DF91CF911A
:100AA0001F910F91FF90EF90DF90CF90BF90AF908C
:100AB0000895FC01A089B1898C91A689B78982FD2E
:100AC0000EC09C91818D8F5F228D821749F0A18D80
:100AD000AE0FBF2FB11D5D969C93818F08958C91B1
:100AE0000895FC01538D448D252F30E0842F90E034
:100AF000821B930B541718F081509F4F0895019754
:100B00000895FC01918D828D981759F0A28DAE0F3A
:100B1000BF2FB11D5D968C91928D9F5F928F90E05B
:100B200008958FEF9FEF0895FC01918D828D9817A6
:100B300031F0828DE80FF11D858D90E008958FEFE3
:100B40009FEF0895FC01918D828D981B892F90E075
:100B500008958FE39CE00E94A20521E0892B09F40F
:100B600020E0822F089584E895E00E94A20521E00C
:100B7000892B09F420E0822F089581EA97E00E94F2
:100B8000A20521E0892B09F420E0822F089580ED51
:100B900099E00E94A20521E0892B09F420E0822F30
:100BA0000895CF93DF93EC01E881F9810680F78106
:100BB000E02D1995EA89FB8980818F7E8083EA89FF
:100BC000FB898081877F8083EA89FB8980818F7799
:100BD0008083EA89FB8980818F7D80838A8D898FDC
:100BE000DF91CF910895CF92DF92EF92FF921F9302
:100BF000CF93DF93EC016A017B01122FE889F98919
:100C000082E08083C11481EED806E104F104A1F0F2
:100C100060E079E08DE390E0A70196010E949626BE
:100C20002150310941095109569547953795279526
:100C3000211580E1380798F0E889F989108260E889
:100C400074E88EE190E0A70196010E94962621505B
:100C50003109410951095695479537952795EC85F6
:100C6000FD853083EE85FF852083188EEC89FD8914
:100C70001083EA89FB89808180618083EA89FB890E
:100C8000808188608083EA89FB8980818068808395
:100C9000EA89FB8980818F7D8083DF91CF911F91CD
:100CA000FF90EF90DF90CF900895FC01A48DA80FE6
:100CB000B92FB11DA35EBE4F9C91848D8F5F848F31
:100CC000A689B7899C93A089B1898C91837080642F
:100CD0008C93938D848D981306C00288F389E02D40
:100CE00080818F7D808308950F931F93CF93DF932F
:100CF000EC0181E0888F9B8D8C8D981318C0E8895A
:100D0000F989808185FF13C09FB7F894EE89FF8928
:100D10006083E889F98980818370806480839FBFC4
:100D200081E090E0DF91CF911F910F910895062F00
:100D30001B8D1F5F8C8D81130CC00FB607FCFACF83
:100D4000E889F989808185FFF5CFCE010E9455069B
:100D5000F1CFEB8DEC0FFD2FF11DE35EFE4F008315
:100D60009FB7F8941B8FEA89FB8980818062D6CF78
:100D70000F931F93CF93DF938C01D0E0C0E0F80175
:100D8000EC0FFD1F6491662341F080ED99E00E9415
:100D90007406892B11F02196F2CFCE01DF91CF910D
:100DA0001F910F910895CF93DF93EC01888D8823D5
:100DB000B9F0AA89BB89E889F9898C9185FD03C0BE
:100DC000808186FD0DC00FB607FCF7CF8C9185FFA3
:100DD000F2CF808185FFEDCFCE010E945506E9CF8D
:100DE000DF91CF91089580E090E0892B29F00E9457
:100DF000C70581110E94000080E090E0892B29F056
:100E00000E94BD0581110E94000080E090E0892BC6
:100E100029F00E94B30581110E94000080E090E05B
:100E2000892B29F00E94A90581110C9400000895D6
:100E3000009741F0DC015896ED91FC9104A0F5A1DA
:100E4000E02D19940895009741F0DC015896ED913A
:100E5000FC9100A0F1A1E02D199486E190E090931F
:100E60003512809334128FEF9FEF0895CF93DF9365
:100E7000EC01288539854A855B85A8EEB3E00E94A0
:100E80008B260E94DB048C859D858230910538F08D
:100E9000880F991F880F991F05970197F1F7DF9128
:100EA000CF91089581E00895FC01808D882349F059
:100EB00084859585DC01ED91FC910190F081E02D18
:100EC000199481E090E09383828390E080E008951C
:100ED000DC011C968D919C91DC01ED91FC910680CA
:100EE000F781E02D1994DC011C968D919C91DC0119
:100EF000ED91FC910284F385E02D1994DC011C96A0
:100F00008D919C91DC01ED91FC910484F585E02D9F
:100F10001994DC011C968D919C91DC01ED91FC9162
:100F20000084F185E02D1994CF93DF93EC018C853B
:100F30009D850E94D1058889998997FD07C060E049
:100F40000E94290460E088890E9457048A899B894D
:100F500097FD09C060E00E94290460E08A89DF9162
:100F6000CF910C945704DF91CF9108958F929F9267
:100F7000AF92BF92DF92EF92FF920F931F93CF93A6
:100F8000DF93EC014A015B01D22E898E9A8EAB8EE3
:100F9000BC8E2D8F3E8F8C899D89009709F08C0126
:100FA0000C8B1D8B8E899F89009709F07C01EE8A3E
:100FB000FF8A8889998997FD07C061E00E945704DC
:100FC00060E088890E9429048A899B8997FD07C06F
:100FD00061E00E94570461E08A890E942904188E0A
:100FE0002D2DB501A4018C859D85DF91CF911F9199
:100FF0000F91FF90EF90DF90BF90AF909F908F90F8
:101000000C94F305EF92FF920F931F93DC01ED9187
:10101000FC910488F589E02DA2E3EA2EF12C02E38D
:1010200010E019951F910F91FF90EF900895EF92A6
:10103000FF920F931F93DC01ED91FC910488F589D9
:10104000E02D7801890126E030E019951F910F917C
:10105000FF90EF900895EF92FF920F931F93DC01A2
:10106000ED91FC910488F589E02D22E3E22EF12C2C
:1010700002E310E026E030E019951F910F91FF90F8
:10108000EF90089590E080E0089560E086E10E948E
:10109000290461E070E080E090E00C94DB04982F7C
:1010A00080ED890F8A3070F08FEB890F863018F44D
:1010B00089EC890F08958FE9890F863010F489EA49
:1010C000F8CF80E00895CF93DF93EC010E940E05E6
:1010D000688379838A839B83DF91CF9108958F9270
:1010E0009F92AF92BF92CF92DF92EF92FF92CF93F7
:1010F000DF93EC016A017B010E940E058C809D80CC
:10110000AE80BF809B01AC01281939094A095B09EF
:1011100049015A018885811108C00E940E056C831F
:101120007D838E839F8381E08887C814D904EA0475
:10113000FB0408F418860E940E058C809D80AE800A
:10114000BF80681979098A099B0921E0C616D7066C
:10115000E806F90608F020E0822FDF91CF91FF909A
:10116000EF90DF90CF90BF90AF909F908F900895B9
:10117000CF93DF93FC012181222331F0EC0160E069
:1011800080810E9429041982DF91CF910895CF9325
:10119000DF93FC012181211107C0EC0161E0808116
:1011A0000E94290481E08983DF91CF910895CF9334
:1011B000DF93EC01862F6883198261E00E94570457
:1011C000CE01DF91CF910C94B8082091F60E3091AA
:1011D000F70E232B39F421E0FC018081882361F094
:1011E00020E00AC0BC018091F20E9091F30E0E94A3
:1011F000E32821E0892BA1F7822F0895FC012481A7
:101200003581FB014481558124173507E1F4FC0148
:1012100080819181FB01608171810097D1F061151E
:101220007105A1F4232BC1F0FC01808190E008C07E
:10123000232B91F0FB01808190E09195819591099C
:1012400021E0892B09F020E0822F08950E94E328F5
:10125000F7CF6115710561F721E0F6CF0E94D5281F
:101260008F929F92AF92BF92EF92FF920F931F9334
:10127000CF93DF93CDB7DEB7A1970FB6F894DEBF5B
:101280000FBECDBF7C01FA01CB0119A2223008F4B8
:101290002AE08E010F5D1F4F822E912CB12CA12CC4
:1012A000BF01A50194010E949626F901CA016A3086
:1012B00074F5605DD8016E938D01232B242B252BB3
:1012C00079F790E080E0109789F0FD01019000200F
:1012D000E9F73197AF014A1B5B0BD701ED91FC9108
:1012E0000280F381E02DB801C7011995A1960FB6D0
:1012F000F894DEBF0FBECDBFDF91CF911F910F914C
:10130000FF90EF90BF90AF909F908F900895695C91
:10131000D1CF8F929F92AF92BF92CF92DF92EF92F6
:10132000FF920F931F93CF93DF937C01EB016C012E
:1013300082E0C80ED11C4701E5E08E0E911C10E042
:1013400000E0F60141916F0150E070E060E02AE0BA
:10135000CE010E9430095C01E881F9810190F081A1
:10136000E02D6EE2CE0119958A0D9B1D080F191F05
:10137000C814D90431F7F701458150E070E060E00E
:101380002AE0CE010E943009800F911FDF91CF919A
:101390001F910F91FF90EF90DF90CF90BF90AF9093
:1013A0009F908F90089542E050E069E672E00C94BF
:1013B0002C05CF93DF930E94B806EC0180ED99E0F5
:1013C0000E94D3098C0F9D1FDF91CF910895109239
:1013D0003A0584E192E00C94D9090F931F93CF93BF
:1013E000DF93EC01FB0144815581608171810E9492
:1013F0002C058C01CE010E94D309800F911FDF9133
:10140000CF911F910F910895CF93DF93EC0161E08D
:1014100086E10E94290461E070E080E090E00E9493
:10142000DB04BE018FE39CE00E94ED098FE39CE0AA
:101430000E94D30661E070E080E090E0DF91CF9100
:101440000C94DB04BC0181EA97E00E94ED0981EA7B
:1014500097E00E94D30661E070E080E090E00C9499
:10146000DB04CF93DF93DC0114962D913C9115970B
:10147000232B79F0FB01CD91DC9160817181CE014C
:101480000E94F328009729F08C1B9D0BDF91CF91D0
:1014900008958FEF9FEFFACF0F931F93CF93DF93B2
:1014A0008C01EB01FC01808191810097E1F0688162
:1014B000798161157105A9F0428153812C813D81AB
:1014C0004217530770F00E94EC288C819D81F8012F
:1014D000958384831D821C82DF91CF911F910F9190
:1014E00008950E946B2788819981F80191838083F8
:1014F0008A819B81938382838C819D819583848360
:10150000198218821B821A82E5CFCF93DF93EC01F8
:1015100088819981009711F00E946B2719821882A7
:101520001D821C821B821A82DF91CF910895FC01DB
:1015300080819181009711F00C946B270895CF93CF
:10154000DF93EC0185E292E0998388838C899D8901
:10155000009711F00E946B278E899F89009711F0E8
:101560000E946B27888D998D009711F00E946B2740
:101570008A8D9B8D009711F00E946B278A819B8139
:10158000009721F0DF91CF910C941807DF91CF9154
:101590000895CF93DF93EC010E949F0ACE01DF9163
:1015A000CF910C946B27CF93DF93EC0189E392E00A
:1015B000998388838B899C89009711F00E946B27FF
:1015C0008A819B81009721F0DF91CF910C941807BD
:1015D000DF91CF910895CF93DF93EC010E94D30A5E
:1015E000CE01DF91CF910C946B2721E432E0FC0116
:1015F000318320830C94D30ACF93DF93EC010E94B4
:10160000F50ACE01DF91CF910C946B270F931F93B6
:10161000CF93DF93EC0188819981009759F02A815B
:101620003B812617370730F081E0DF91CF911F9182
:101630000F9108958B016F5F7F4F0E94F4270097F1
:1016400059F0998388831B830A832C813D81232B46
:1016500059F7FC011082E8CF80E0E7CFEF92FF92CC
:101660000F931F93CF93DF93EC017B0119821882B4
:101670001B821A821D821C82FB0101900020E9F767
:1016800031978F01061B170BB8010E94060B8111C1
:1016900009C0CE01DF91CF911F910F91FF90EF9084
:1016A0000C94850A1D830C83B70188819981DF9191
:1016B000CF911F910F91FF90EF900C94EC28EF9237
:1016C000FF920F931F93CF93DF938C017B01EB016C
:1016D00009900020E9F72197C61BD70BBE010E9495
:1016E000060B811109C0C801DF91CF911F910F91A5
:1016F000FF90EF900C94850AF801D583C483B7015D
:1017000080819181DF91CF911F910F91FF90EF9098
:101710000C94EC28AF92BF92CF92DF92EF92FF929F
:101720000F931F93CF93DF936C015B017A018901C3
:101730002417350720F48F2D7901042F182F6BE61D
:1017400072E0C6010E942E0BD5011496CD91DC915A
:10175000EC16FD06E0F40C171D0708F4E801D501AE
:10176000ED91FC911197EC0FFD1F108110826D918E
:101770007C916E0D7F1DC60161157105A1F00E945F
:101780005F0BF50180819181C80FD91F1883C601B5
:10179000DF91CF911F910F91FF90EF90DF90CF904D
:1017A000BF90AF9008950E94850AEBCFEF92FF9211
:1017B0000F931F93CF93DF936115710541F480E080
:1017C000DF91CF911F910F91FF90EF9008957B01D2
:1017D000EC01CB010E9419260097A9F00C811D8114
:1017E000080F191FB801CE010E94060B882339F398
:1017F000288139818C819D81B701820F931F0E94BE
:1018000012261D830C8381E0DBCFEF92FF920F93B2
:101810001F93CF93DF936115710541F480E0DF9151
:10182000CF911F910F91FF90EF90089541155105B1
:10183000B1F07B01EC010C811D81040F151FB80173
:101840000E94060B882351F3288139818C819D8168
:10185000B701820F931F0E94EC281D830C8381E047
:10186000DECFEF92FF920F931F93CF93DF9300D0C1
:1018700000D01F92CDB7DEB77C01CB014AE08E01CC
:101880000F5F1F4FB8010E944226F801019000200F
:10189000E9F73197AF01401B510BB801C7010E9416
:1018A000050C27960FB6F894DEBF0FBECDBFDF91B3
:1018B000CF911F910F91FF90EF900895EF92FF92BB
:1018C0000F931F93CF93DF9300D01F92CDB7DEB756
:1018D0007C01862F4AE08E010F5F1F4FB80190E018
:1018E0000E942226F80101900020E9F73197AF010C
:1018F000401B510BB801C7010E94050C0F900F90BF
:101900000F900F90DF91CF911F910F91FF90EF906B
:101910000895CF93DF931F921F92CDB7DEB76983EF
:101920001A8241E050E0BE016F5F7F4F0E94050CBC
:101930000F900F90DF91CF910895FB014481558165
:10194000608171810C94050CEF92FF920F931F93AD
:10195000CF93DF93EC018B016115710551F0CB0141
:101960000E9419267C01BC01CE010E94060B811148
:101970000BC0CE010E94850ACE01DF91CF911F914D
:101980000F91FF90EF900895FD82EC82B80188815D
:1019900099810E941226F0CFCF93DF93D82FC62FC4
:1019A0008091CD0E811158C061E177E080EC9EE01E
:1019B0000E94A40C66EE7EE080EC9EE00E949D0CEE
:1019C0006FE077E080EC9EE00E94D60B68E077E065
:1019D00080EC9EE00E94D60B6D2F80EC9EE00E9472
:1019E0005E0C66E077E080EC9EE00E94D60B6EEF26
:1019F00076E080EC9EE00E94D60B6C2F80EC9EE09F
:101A00000E945E0C6CEF76E080EC9EE00E94D60BAC
:101A100065EF76E080EC9EE00E94D60B64E07FE00C
:101A200080EC9EE00E949D0C63EF76E080EC9EE0EF
:101A30000E94D60B6BEE76E080EC9EE00E94D60B07
:101A40006EEF7EE080EC9EE00E949D0C69EE76E0F9
:101A500080EC9EE00E94D60B8CE692E00E94E508A6
:101A600062ED76E0811108C08EE792E00E94E50801
:101A7000882331F069EB76E086EC9EE00E94A40CAE
:101A80006CEE7EE086EC9EE00E949D0C64EB76E0BE
:101A900086EC9EE00E94D60B6091C40E7091C50E3C
:101AA00086EC9EE0DF91CF910C94310C0F931F9345
:101AB000CF93DF93E7ECF1E140E090E080E021E0BC
:101AC00030E05181511120E0082E01C0220F0A940C
:101AD000EAF7422B019636968830910581F74093BC
:101AE0008305E7EBF1E140E030E020E08181022E68
:101AF00001C0880F0A94EAF7482B2F5F3F4F3296B8
:101B00002830310599F74093820562EB76E084E056
:101B10009FE00E94A40C0FE01FE0D0E0C0E0F801BD
:101B200066A977A984E09FE00E94310CCB30D105F3
:101B300031F060EB76E084E09FE00E94D60B2196C6
:101B4000085C1F4FCC30D10551F76EEA76E084E097
:101B50009FE00E94D60B6CEA76E08EEF9EE00E943A
:101B6000A40C0FEA11E1D0E0C0E0F80161818EEF32
:101B70009EE00E945E0CC330D10531F06AEA76E047
:101B80008EEF9EE00E94D60B21960E5F1F4FC43051
:101B9000D10559F768EA76E08EEF9EE0DF91CF91AC
:101BA0001F910F910C94D60BFC01118210821382AD
:101BB0001282158214820C94A40CBF92CF92DF92F1
:101BC000EF92FF920F931F93CF93DF93CDB7DEB7C2
:101BD000ED84FE84CF84D888B9880B891C89D7010D
:101BE00014968D919C91892B59F0AE01475E5F4F01
:101BF0006F89788D80913A1290913B120E940D2945
:101C00008D899E89892B31F0C7010E943607C70153
:101C10000E942307F6018281938180589F4F93830E
:101C20008283D7015896ED91FC910484F585E02DCF
:101C3000B801C6011995F801E80FF91FB0820196A5
:101C4000DF91CF911F910F91FF90EF90DF90CF9098
:101C5000BF9008952F923F924F925F926F927F9222
:101C60008F929F92AF92BF92CF92DF92EF92FF92AC
:101C70000F931F93CF93DF93CDB7DEB7C851D240F8
:101C80000FB6F894DEBF0FBECDBFFC01A281B381B9
:101C9000109749F486E190E09093351280933412C6
:101CA00090E080E05BC45C017E01FBEFEF1AFEEF89
:101CB000FF0A5896ED91FC9159970488F589E02D1B
:101CC000B701CD0119951816190654F7D5011296CA
:101CD0006D907C90C55FDD4F99838883CB50D24057
:101CE00086E190E06114710409F432C4D30158967E
:101CF000ED91FC91C280D380A4E0B1E0AC0FBD1F98
:101D0000AC0DBD1D8C91282F30E0CD5EDD4F3983A9
:101D10002883C351D240A7014C0D5D1DC15FDD4F2B
:101D200059834883CF50D240DA019C90092D10E0AE
:101D3000A6E0B1E0AC0FBD1FAC0DBD1D4C90512C09
:101D4000542C4424A7E0B1E0AC0FBD1FAC0DBD1D69
:101D50008C91480E511C1E01BBEF2B1ABDEF3B0AA4
:101D6000D10111963C932E9313961C930E931297C8
:101D70000684F785E02DBE01655F7D4FC70119958B
:101D8000F10195838483EFEFE90DE73108F0B5C5E4
:101D9000F0E08827E153F14F8F4F0C94C726E60EF1
:101DA000E60E15101510A610FE10A6127D147D1457
:101DB0007D147D147D147D147D143311F71175127B
:101DC0007D147D147D147D14C81214130230110586
:101DD00009F04CC0D5011A964D915C911B9718964D
:101DE0002D913C9119975696AD90BC908FE892E05A
:101DF000E8E0F1E0EC0FFD1FEC0DFD1DE080F12CA3
:101E0000FE2CEE24E9E0F1E0EC0FFD1FEC0DFD1DD2
:101E10006081E60EF11CB70161507109603D7740A9
:101E200078F127E02F9320ED2F939F938F93FF92CC
:101E3000EF9283EC92E09F938F931F9281E08F93B8
:101E400021E030E02C0F3D1F3F932F931F9283E042
:101E50008F933F922F927F926F920E94DD0D8C01A3
:101E60000FB6F894DEBF0FBECDBF67C0F501468147
:101E7000578124813581A488B58885E892E0B8CF60
:101E80006201C41AD50AD7FC08C047018C0C9D1CFE
:101E900028153905ACF44E0C5F1C9F938F935F920D
:101EA0004F928BEE92E09F938F931F921F9261E06F
:101EB00070E06C0F7D1F7F936F931F9282E00FC2C3
:101EC000D3015896ED91FC910484F585E02DBE0177
:101ED0006F5F7F4FC10119958C010F5F1F4FE1E0CC
:101EE000F0E0EC0FFD1F8E0F9F1F21E0A701477050
:101EF0005527452B09F420E0F3E0F594E794FA9593
:101F0000E1F7E20EDC01EC92F501EC0DFD1D30E095
:101F100020E090E080E0AF014A195B0948155905BF
:101F20000CF46AC0892B49F0E1E0F0E0EC0FFD1FF2
:101F3000E00FF11F20830F5F1F4FCD5EDD4F288123
:101F40003981C351D240232B09F406C3D3015896DB
:101F5000ED91FC910088F189E02DB801CE01019648
:101F600019957C01D3015896ED91FC910288F38973
:101F7000E02DA701BE016F5F7F4FC30119958B0153
:101F80006F3F7F4F39F5F301868181FF23C0C090F9
:101F90003412D0903512F2EFCF16FDE2DF0609F0D1
:101FA000BCC4D3015896ED91FC91068CF78DE02DC1
:101FB000C3011995C3010E943607D3015896ED91CC
:101FC000FC91048CF58DE02DC3011995D09235124A
:101FD000C0923412F301868181FF03C00F3F1007C6
:101FE00009F2101611060CF0B7C2E016F10609F45A
:101FF000B3C28FEE9BE2ACC2419150E0082E02C00A
:10200000440F551F0A94E2F7242B352B8730910596
:1020100051F4A1E0B0E0AC0FBD1FA00FB11F2C9395
:102020000F5F1F4F74CF019676CF04301105B1F5C5
:10203000F5014685578524853585808C918C8FE9FF
:1020400092E0E8E0F1E0EC0FFD1FEC0DFD1D0081DA
:1020500010E0102F0027E9E0F1E0EC0FFD1FEC0D80
:10206000FD1D6081060F111DB80161507109FE014F
:1020700031966F016D37710500F11F922DE72F9397
:102080009F938F931F930F9383EC92E09F938F9373
:102090001F9281E08F93FF93EF93D8CED501529694
:1020A0004D915C91539750962D913C9151975A9632
:1020B0008D909C9084EB92E0C4CF7201E41AF50AF3
:1020C0005701F7FC07C0E00EF11E2E153F057CF40A
:1020D000400E511E9F938F935F924F928BEE92E032
:1020E0009F938F931F921F92DF92CF92E6CED301E0
:1020F0005896ED91FC910484F585E02DB601C1015F
:102100001995F601E80FF91F000F00839501220FC2
:10211000331F820E931E0196F601E80FF91F8F01FF
:102120000C191D09AE14BF040CF007CFD401119691
:102130008C91B2E08B0E911C8083D40112978C910C
:1021400081832FEFA21AB20A3296E9CFD5011696F3
:102150008D919C911797A201481B590BCE010196B6
:1021600057FD06C014962D913C91421753074CF031
:102170005F924F922DE033E03F932F931F921F9277
:10218000B1C1E8E0F1E0EC0FFD1FEC0DFD1D208179
:1021900030E0322F2227E9E0F1E0EC0FFD1FEC0DDB
:1021A000FD1D6081260F311D2115FFEF3F0719F03E
:1021B00021153105B1F4D5015496ED91FC91E40F50
:1021C000F51F41E0232B09F440E04083C55FDD4F5C
:1021D00008811981CB50D240A801B7010E94DA28AA
:1021E000ACCE5F924F923F932F9326E333E03F9321
:1021F0002F931F921F929F938F936FC0D50152967A
:102200008D919C9153979201281B390BCE01019619
:1022100037FD07C050964D915C91519724173507B3
:102220002CF05F924F9224E733E0A6CF220F331FAA
:102230005A96ED91FC91E20FF31FA8E0B1E0AC0FCC
:10224000BD1FAC0DBD1D2C9130E0322F2227A9E01F
:10225000B1E0AC0FBD1FAC0DBD1D4C91240F311D65
:1022600031832083B3CFE8E0F1E0EC0FFD1FEC0DEC
:10227000FD1D808190E0982F8827E9E0F1E0EC0FC8
:10228000FD1FEC0DFD1D2081820F911D9C01215031
:102290003109203B374070F4EAE0F1E0EC0FFD1F1C
:1022A000EC0DFD1D2081E8E02E9F900111242817E0
:1022B0003907ECF427E02F9320EB2F939F938F9314
:1022C00082EA93E09F938F931F9281E08F9321E0A6
:1022D00030E02C0F3D1F3F932F931F9283E08F938D
:1022E0003F922F927F926F920E94DD0DB8CDD50163
:1022F00016962D913C911797F201E21BF30B9F016B
:10230000F7FD0CC0BC016E0F7F1F14964D915C91C0
:10231000159746175707D4F4480E591E5F924F92EF
:1023200086ED93E09F938F931F921F9221E030E000
:102330002C0F3D1F3F932F931F9282E08F933F926C
:102340002F927F926F920E94DD0D89CD56E0C50ECF
:10235000D11C54960D911C91200F311FF90150E0B2
:1023600040E081E090E08C0F9D1FC80ED91ECF0188
:10237000801B910B86179707F0F0D3015896ED91CB
:10238000FC910484F585E02DBE016F5F7F4FC10194
:102390001995A1E0B0E0AC0FBD1FA80FB91FF70160
:1023A000E80FF91F24E001900D922A95E1F78C01C6
:1023B0000C5F1F4FC2CDCF01821B930BA3E09695FC
:1023C0008795AA95E1F78C0D9D1D8C5F9E4FDC01D2
:1023D0008C9190E0042E02C0959587950A94E2F7BF
:1023E000817081934F5F5F4F47705527C0CFE8E002
:1023F000F1E0EC0FFD1FEC0DFD1D208130E0322FD0
:102400002227E9E0F1E0EC0FFD1FEC0DFD1D8081BE
:10241000280F311DC90101978B37910570F4EAE04F
:10242000F1E0EC0FFD1FEC0DFD1D8081B8E08B9FEE
:10243000C0011124821793077CF41F928BE78F93BE
:102440003F932F9380E094E09F938F931F9281E0BE
:102450008F93CE010196CFCED50152968D919C914E
:102460005397F201E81BF90BCF01F7FD31C0A90129
:102470004E0F5F1F50966D917C916417750734F174
:10248000C15FDD4FE881F981CF50D2409C01220F1E
:10249000331F2E193F092C193D09841795070CF09D
:1024A0006CCFD5015A966D917C91DB01A20FB31FC1
:1024B000AE0FBF1F668170E0762F66271781610F10
:1024C000711D6D937C9301963296E7CF420E531E99
:1024D0005F924F9289E394E09F938F931F921F9294
:1024E000CE0101969F938F9327CFD3015896ED91FC
:1024F000FC910484F585E02DBE016F5F7F4FC10123
:102500001995FE01E80FF91F24EB2283FE01E80F65
:10251000F91F2FEF2383DC011396E1E0F0E0EC0FCD
:10252000FD1FAE0FBF1F28E0E8E6F4E001900D921A
:102530002A95E1F78C01055F1F4FE1E0F0E0EC0F19
:10254000FD1FE80FF91F8AE08083F7CC8DE690E04D
:10255000909335128093341281E090E0C85EDD4F95
:102560000FB6F894DEBF0FBECDBFDF91CF911F91A4
:102570000F91FF90EF90DF90CF90BF90AF909F9022
:102580008F907F906F905F904F903F902F90089525
:10259000D50152968D919C915397F201E81BF90B4E
:1025A000CE010196F7FD3DCE50962D913C9151976D
:1025B000E217F3070CF035CEEE0FFF1F5A962D9160
:1025C0003C91E20FF31FAAE0B1E0AC0FBD1FAC0DD0
:1025D000BD1D2C9130E0322F2227ABE0B1E0AC0FD3
:1025E000BD1FAC0DBD1D4C91240F311DA8E0B1E005
:1025F000AC0FBD1FAC0DBD1D4C91642F70E0762F4C
:102600006627A9E0B1E0AC0FBD1FAC0DBD1D4C911C
:10261000460F572F511D6081718162277327462312
:102620005723242735271CCEE8E0F1E0EC0FFD1FEF
:10263000EC0DFD1D808190E0982F8827E9E0F1E006
:10264000EC0FFD1FEC0DFD1D2081FC01E20FF11DC3
:10265000C35FDD4FF983E883CD50D240ECE0F1E079
:10266000EC0FFD1FEC0DFD1D808190E0982F882759
:10267000EDE0F1E0EC0FFD1FEC0DFD1D2081820F60
:10268000911D9C0121503109DE0111962937310538
:10269000C0F4C35FDD4F28813981CD50D240215035
:1026A00031092D37310568F4EEE0F1E0EC0FFD1F44
:1026B000EC0DFD1D40819C01220F331F42171306B4
:1026C00039F11F922DE72F931F9229E72F93C25FB5
:1026D000DD4FF881CE50D240FF93C35FDD4F28819C
:1026E000CD50D2402F939F938F9381E794E09F9397
:1026F0008F931F9281E08F93BF93AF931F9283E0DC
:102700008F933F922F927F926F920E94DD0DA7CB05
:10271000EAE0F1E0EC0FFD1FEC0DFD1D208130E043
:10272000322F2227EBE0F1E0EC0FFD1FEC0DFD1D39
:102730004081240F311DF501428953898201041B18
:10274000150BCF5EDD4F19830883C151D240B9010B
:10275000641B750BAB014B0117FDE6C0C35FDD4F7A
:10276000E881F981CD50D240E00FF11FCB5EDD4F03
:10277000F983E883C551D240F50160897189CB5E48
:10278000DD4FE881F981C551D2406E177F07FCF01B
:1027900057FD1FC0AC01480D591DC95EDD4F59835F
:1027A0004883C751D24064177507E4F4280F391FD6
:1027B00017FF0FC03F932F935F924F928DEB94E0E2
:1027C0009F938F931F921F92BF93AF9376CB57FF28
:1027D000EDCFC35FDD4F68817981CD50D240460E89
:1027E000571EE8CFF301808D918DFC01248535853E
:1027F0007D01BD01CE018B5F9D4FF9011995F70158
:10280000E80FF91FC35FDD4F2881CD50D240220F62
:102810002083C15FDD4FE881F981CF50D240AE0106
:102820004B5F5E4F9401220F331F241B350B2C1975
:102830003D09C95EDD4F48815981C751D240841698
:1028400095060CF443C0F701E80FF91F9801220F19
:10285000331F2E193F09B901681B790BCB0141E0E9
:1028600050E04E195F098A010E0F1F1FCB5EDD4F2E
:1028700068817981C551D240CF5EDD4FA881B98191
:10288000C151D240A617B7070CF057CBBC016E0F51
:102890007F1FD5015A962D913C91DB01A20FB31FEA
:1028A00011962C91119721832C912283CF5EDD4FBD
:1028B00028813981C151D2402F5F3F4FCF5EDD4F1C
:1028C00039832883C151D2403296CDCFD5015A9653
:1028D0004D915C91DA01A20FB31FAE0FBF1F42856D
:1028E00050E0542F44276385460F511D4D935C9350
:1028F000BFEF8B1A9B0A32969CCF1F929F928EE05D
:1029000095E09F938F931F9281E08F939E012F5F9D
:102910003F4F3F932F931F9211CDC3010E94360763
:10292000C3010E94230752CB77FF40CF43CF1F92B2
:102930000F920FB60F9211242F933F938F939F9373
:10294000AF93BF9380917A0590917B05A0917C0510
:10295000B0917D053091790523E0230F2D3758F58F
:102960000196A11DB11D2093790580937A0590935E
:102970007B05A0937C05B0937D0580917E059091A9
:102980007F05A0918005B09181050196A11DB11D23
:1029900080937E0590937F05A0938005B093810579
:1029A000BF91AF919F918F913F912F910F900FBE4B
:1029B0000F901F90189526E8230F0296A11DB11DB8
:1029C000D2CF1F920F920FB60F9211240BB60F9217
:1029D0002F933F934F935F936F937F938F939F9327
:1029E000AF93BF93EF93FF938FE39CE00E94550654
:1029F000FF91EF91BF91AF919F918F917F916F91D7
:102A00005F914F913F912F910F900BBE0F900FBE92
:102A10000F901F9018951F920F920FB60F921124CE
:102A20000BB60F922F933F934F935F936F937F93C8
:102A30008F939F93AF93BF93EF93FF938FE39CE0AC
:102A40000E945905FF91EF91BF91AF919F918F9196
:102A50007F916F915F914F913F912F910F900BBE9E
:102A60000F900FBE0F901F9018951F920F920FB6E8
:102A70000F9211240BB60F922F933F934F935F93B6
:102A80006F937F938F939F93AF93BF93EF93FF9336
:102A900084E895E00E945506FF91EF91BF91AF91B8
:102AA0009F918F917F916F915F914F913F912F9166
:102AB0000F900BBE0F900FBE0F901F9018951F9296
:102AC0000F920FB60F9211240BB60F922F933F93D4
:102AD0004F935F936F937F938F939F93AF93BF9326
:102AE000EF93FF9384E895E00E945905FF91EF91E1
:102AF000BF91AF919F918F917F916F915F914F9116
:102B00003F912F910F900BBE0F900FBE0F901F9013
:102B100018951F920F920FB60F9211240BB60F92B9
:102B20002F933F934F935F936F937F938F939F93D5
:102B3000AF93BF93EF93FF9381EA97E00E9455060E
:102B4000FF91EF91BF91AF919F918F917F916F9185
:102B50005F914F913F912F910F900BBE0F900FBE41
:102B60000F901F9018951F920F920FB60F9211247D
:102B70000BB60F922F933F934F935F936F937F9377
:102B80008F939F93AF93BF93EF93FF9381EA97E067
:102B90000E945905FF91EF91BF91AF919F918F9145
:102BA0007F916F915F914F913F912F910F900BBE4D
:102BB0000F900FBE0F901F9018951F920F920FB697
:102BC0000F9211240BB60F922F933F934F935F9365
:102BD0006F937F938F939F93AF93BF93EF93FF93E5
:102BE00080ED99E00E945506FF91EF91BF91AF9162
:102BF0009F918F917F916F915F914F913F912F9115
:102C00000F900BBE0F900FBE0F901F9018951F9244
:102C10000F920FB60F9211240BB60F922F933F9382
:102C20004F935F936F937F938F939F93AF93BF93D4
:102C3000EF93FF9380ED99E00E945905FF91EF918A
:102C4000BF91AF919F918F917F916F915F914F91C4
:102C50003F912F910F900BBE0F900FBE0F901F90C2
:102C6000189580E29CE00E94F50A81E89EE00E94AF
:102C7000970A87E89EE00E94970A8DE89EE00E94EE
:102C8000970A8AEB9EE00E94970A80EC9EE00E94E1
:102C9000970A86EC9EE00E94970A8EEC9EE00E94C6
:102CA000970A84ED9EE00E94970A8AED9EE00E94BA
:102CB000970A80EE9EE00E94970A86EE9EE00E94B0
:102CC000970A8CEE9EE00E94970A82EF9EE00E9497
:102CD000970A88EF9EE00E94970A8EEF9EE00E947E
:102CE000970A84E09FE00E94970A87EF91E10E9493
:102CF000F50A86E192E10C949F0A2F923F924F923F
:102D00005F926F927F928F929F92AF92BF92CF927B
:102D1000DF92EF92FF920F931F93CF93DF930FE316
:102D20001CE0D80113961C921E92129788EEC82EB2
:102D300083E0D82EE12CF12CF801C482D582E68202
:102D4000F78283E192E09183808325E331E0358748
:102D5000248724E331E03787268720E331E0318B75
:102D6000208B21E331E0338B228B22E331E0358B62
:102D7000248B26E331E0378B268B118E128E138E37
:102D8000148EE4E8F5E013821282C482D582E682D2
:102D9000F7829183808325ED30E03587248724ED09
:102DA00030E03787268720ED30E0318B208B21ED16
:102DB00030E0338B228B22ED30E0358B248B26EDF7
:102DC00030E0378B268B118E128E138E148EE1EA33
:102DD000F7E013821282C482D582E682F782918361
:102DE00080832DEC30E0358724872CEC30E037876A
:102DF000268728EC30E0318B208B29EC30E0338BB8
:102E0000228B2AEC30E0358B248B2EEC30E0378B94
:102E1000268B118E128E138E148EE0EDF9E0138244
:102E20001282C482D582E682F7829183808385EC08
:102E300090E09587848784EC90E09787868780EC84
:102E400090E0918B808B81EC90E0938B828B82EC75
:102E500090E0958B848B86EC90E0978B868B118E1F
:102E6000128E138E148EAEEBB9E099E4A92E92E087
:102E7000B92E1196BC92AE9212961C92129713968E
:102E80001C92139714961C92149715961C92A4ECFE
:102E9000B9E01196BC92AE9212961C9212971396BC
:102EA0001C92139714961C92149715961C92AAECD8
:102EB000B9E01196BC92AE9212961C92129713969C
:102EC0001C92139714961C92149715961C92C6E1A7
:102ED000D2E11B821A822AE132E188E1D9011D92F6
:102EE0008A95E9F78FE292E099838883ADEEBBE0A3
:102EF000BD8FAC8FC7EFD1E11B821A82CC82DD82FD
:102F0000EE82FF82198618861A861C8A1B8A1E8A00
:102F10001D8A188E1F8A1A8E198E1C8E1B8E21E414
:102F2000222E22E0322E39822882BE8FAD8F139658
:102F30001C921E9212971496CD92DD92ED92FC9205
:102F400017973FE4832E32E0932E11969C928E9237
:102F50001D96FC93EE931C9781E090E01F969C9346
:102F60008E931E9782E090E051969C938E9350979B
:102F70008FEF9FEF53969C938E93529755961C928A
:102F80001E92549757961C921E92569758961C92D2
:102F9000C7ECD1E180E28883198260E00E94570487
:102FA00081E28E831F8260E00E94570482E28C8758
:102FB0001D8660E00E94570483E28A8B1B8A60E0D2
:102FC0000E94570484E2888F198E60E00E945704A3
:102FD00085E28E8F1F8E60E00E94570486E28CA3EC
:102FE0001DA260E00E94570487E28AA71BA660E04A
:102FF0000E94570468E287EB91E10E94D70869E2DA
:1030000089EB91E10E94D7086AE28BEB91E10E9483
:10301000D7086BE28DEB91E10E94D7086CE28FEB51
:1030200091E10E94D7086DE281EC91E10E94D708FE
:103030006EE283EC91E10E94D7086FE285EC91E1AA
:103040000E94D708CFEAD1E184E0888361E00E9442
:10305000570485E08A8361E00E94570486E08C83F0
:1030600061E00E94570487E08E8361E00E9457046C
:10307000CFE0DFE086E3888377247394798260E091
:103080000E94570487E388AF79AE60E00E9457043E
:1030900088E380937F0F7092800F60E00E94570456
:1030A00089E38093B70F7092B80F60E00E945704D5
:1030B0008AE38093EF0F7092F00F60E00E94570454
:1030C0008BE3809327107092281060E00E945704D1
:1030D0008CE380935F107092601060E00E94570450
:1030E0008DE3809397107092981060E00E945704CF
:1030F0008EE38093CF107092D01060E00E9457044E
:103100008FE3809307117092081160E00E945704CA
:1031100080E480933F117092401160E00E94570458
:1031200081E4809377117092781160E00E945704D7
:10313000CAE0DFE08BE1888362E00E9457048CE103
:10314000898362E00E9457048DE18A8362E00E94D5
:1031500057048EE18B8362E00E9457048FE18C83D9
:1031600062E00E9457046BE672E084E09FE00E94F8
:103170002E0B6BE672E08EEF9EE00E942E0B6BE64C
:1031800072E088EF9EE00E942E0B6BE672E082EF09
:103190009EE00E942E0B6BE672E08CEE9EE00E9499
:1031A0002E0B6BE672E086EE9EE00E942E0B6BE625
:1031B00072E080EE9EE00E942E0B6BE672E08AEDDC
:1031C0009EE00E942E0B6BE672E084ED9EE00E9472
:1031D0002E0B6BE672E08EEC9EE00E942E0B10929E
:1031E000CD0E1092CC0E6BE672E086EC9EE00E9453
:1031F0002E0B6BE672E080EC9EE00E942E0B6BE6DD
:1032000072E08AEB9EE00E942E0B1092B90EE0EB6A
:10321000FEE048EB442E4BE0542E612C712C408292
:1032200051826282738214821582168217821086FE
:10323000E7EAFEE040825182628273821482158244
:10324000168217821086EEE9FEE040825182628289
:10325000738214821582168217821086E3E9FEE0DB
:103260001482158216821782108688EC9FEAA0E0ED
:10327000B0E080839183A283B383128611866BE6CC
:1032800072E08DE89EE00E942E0B6BE672E087E80C
:103290009EE00E942E0B6BE672E081E89EE00E94A9
:1032A0002E0BEBE7FEE0B182A08212821382148221
:1032B0001582ACE5BEE013961C921E9212971496EE
:1032C000CD92DD92ED92FC92179711969C928E9280
:1032D0001D961C930E931C971F961C921E921E9770
:1032E00051961C921E92509786E190E053969C93C3
:1032F0008E93529755961C921E92549757961C92F5
:103300001E92569758961C925897E0E2FCE0138262
:103310001282C482D582E682F782118610861286D6
:10332000148A138A168A158A108E178A128E118EA5
:10333000148E138E31822082B68FA58FE7E1FCE0D8
:1033400040825182628273821482158216821782B1
:1033500010861092160C1092150CECE0FCE080E048
:103360009CE5A6E2B5E080839183A283B3831482B7
:103370001582168217821086DF91CF911F910F91CF
:10338000FF90EF90DF90CF90BF90AF909F908F9085
:103390007F906F905F904F903F902F900895CF93C4
:1033A000DF93CDB7DEB768970FB6F894DEBF0FBED8
:1033B000CDBF789484B5826084BD84B5816084BDBE
:1033C00085B5826085BD85B5816085BD80916E00C3
:1033D000816080936E0010928100809181008260F4
:1033E0008093810080918100816080938100809131
:1033F00080008160809380008091B1008460809320
:10340000B1008091B00081608093B0008091910004
:1034100082608093910080919100816080939100FF
:10342000809190008160809390008091A1008260E3
:103430008093A1008091A10081608093A100809180
:10344000A00081608093A000809121018260809320
:1034500021018091210181608093210180912001CF
:1034600081608093200180917A00846080937A004B
:1034700080917A00826080937A0080917A008160E6
:1034800080937A0080917A00806880937A0010920D
:10349000C10026E040E855E260E070E080ED99E090
:1034A0000E94F3051092000268E070E086EE9EE054
:1034B0000E94060B68E070E080EE9EE00E94060B22
:1034C00068E070E08AED9EE00E94060B68E070E024
:1034D0008AEB9EE00E94060B60E170E082EF9EE0C6
:1034E0000E94060B60E170E08CEE9EE00E94060BED
:1034F00060E270E08EEF9EE00E94060B60E270E0FA
:1035000081E89EE00E94060B60E470E084ED9EE09E
:103510000E94060B60E470E08EEC9EE00E94060BB9
:1035200060E470E086EC9EE00E94060B60E470E0D0
:1035300084E09FE00E94060B60E870E08DE89EE06A
:103540000E94060B60E870E080EC9EE00E94060B93
:1035500060E071E088EF9EE00E94060B882309F48A
:1035600060C082E492E00E94D90961E088E10E9493
:10357000570461E088E10E94290410923A0581E035
:1035800080939B0E87EE99E090939D0E80939C0E06
:1035900026E040E855E260E070E084E895E00E94B3
:1035A000F305EFE0FFE01182F89621E1EF3AF20730
:1035B000D1F761E086E10E9457040E94450826E0A9
:1035C00040E052EC61E070E08FE39CE00E94F30584
:1035D00088E199E20FB6F894A895809360000FBE39
:1035E00090936000CC24CA9423E0D22EE12CF12CDD
:1035F00011E080ED99E00E94A205181619060CF062
:1036000048C080ED99E00E9481058D3011F40C9442
:1036100084258A3071F3682F81E89EE00E94890C2E
:10362000E8CF8CE292E09FCF10923A0560E672E01C
:1036300081E89EE00E94A40CDCCF6EE872E0CE012F
:1036400001960E94D40DBE016F5F7F4F81E89EE01E
:103650000E94FE08082FCE0101960E94970A0023BF
:1036600099F082E892E00E94D90961E672E0CE0109
:1036700001960E94D40DCE0101960E94220ACE012D
:1036800001960E94970AD2CF81E89EE00E94220A0A
:10369000CDCF07EC11E1F801208130E0F901EE59BE
:1036A000F94F8491F901E45EF94FB490F901EA52BF
:1036B000FA4FA490AA2009F438C181110E94C203D4
:1036C000EA2DF0E0EE0FFF1FE056FD4FA591B491FB
:1036D000EC91EB2181E009F480E0B82EF8018181C2
:1036E000B81609F424C10E940E05F80142805380E7
:1036F00064807580641975098609970963337105BB
:103700008105910508F0B1820A5F1F4FF1E1073F83
:103710001F0709F0C0CF0FE01FE0F801818170E4BE
:10372000A72EB12C412C512C3201813009F007C158
:10373000A12CBB24B394412C512C3201F80180817F
:103740000E949304092E000CAA0BBB0B480E591EB5
:103750006A1E7B1EF1E0AF1AB10881F7B4E07694DF
:10376000679457944794BA95D1F7F80153824282EF
:10377000349681E090E02281338121933193019648
:1037800088319105C1F7F80153AA42AA60E070E0C0
:10379000CB0150E040E0FA01EE0FFF1FE00FF11FF8
:1037A00024813581620F731F811D911D4F5F5F4F13
:1037B0004831510581F728E130E040E050E00E94B7
:1037C0009626F80135AB24ABF80154A945A98181AF
:1037D000813009F0CFC0252F342F203CFEE33F0776
:1037E00010F02FEB3EE3AFEFBFE00E94B8262FEBC7
:1037F0003EE340E050E00E946C26F80137AB26AB78
:10380000085C1F4FF1E10F3A1F0709F086CF0E94B5
:10381000560D60918205809183050E94CC0C8091A9
:10382000BE0E9091BF0E892B09F465C070E060E078
:103830008AEB9EE00E941A05A82E61E070E08AEBF8
:103840009EE00E941A05082F63E070E08AEB9EE07C
:103850000E941A05182F64E070E08AEB9EE00E9437
:103860001A05B82E24E4A212B9C00A3309F0A3C085
:10387000812F0E944F08182F8B2D0E944F0840E186
:10388000149F90011124182F122B85EC91E110FD4B
:103890007DC00E94B80883EC91E111FD7AC00E94BE
:1038A000B80881EC91E112FD77C00E94B8088FEB57
:1038B00091E113FD74C00E94B8088DEB91E114FDF5
:1038C00071C00E94B8088BEB91E115FD6EC00E949B
:1038D000B80889EB91E116FD6BC00E94B80887EB30
:1038E00091E117FD78C00E94B8086FE972E08AEB99
:1038F0009EE00E94A40C0E9445088FE39CE00E9479
:10390000A2058C01892B09F46BC18FE39CE00E9416
:1039100081058D3011F40C94C1258A3071F3682F24
:103920008DE89EE00E94890CE8CFB12CD7CE0E9492
:103930000E05F8016283738384839583E5CEF801D5
:1039400080810E949304092E000CAA0BBB0B480E29
:10395000591E6A1E7B1EF1E0AF1AB10881F766E0BE
:1039600076946794579447946A95D1F7F80155AACD
:1039700044AA2ACF852F942F8115F4E09F0710F0D9
:103980008FEF93E0F80197AB86AB3ACF0E94C70860
:1039900082CF0E94C70885CF0E94C70888CF0E94A7
:1039A000C7088BCF0E94C7088ECF0E94C70891CF4F
:1039B0000E94C70894CF8FEC800F883008F095CF15
:1039C000E02FE153FF0BCF01880F991F89549E4EC2
:1039D000103309F488CF0E94C70887CFF1E4AF12F3
:1039E00084CF8FEC800F853008F07FCF812F0E942D
:1039F0004F08182F8B2D0E944F0840E1149F900113
:103A00001124182F122B802F8153990BFC01EE0FDC
:103A1000FF1FE155FE4E1183008161E0802F0E945F
:103A20005704111105C060E0802F0E9429045DCF6A
:103A30001F3F11F461E0F8CFE02FF0E0EE59F94FAD
:103A4000E491E150E23108F0C8C0F0E08827E45D7D
:103A5000F24E8F4F0C94C7263E1D431D481D541D2A
:103A6000601DED1D6C1D741D7C1D881D941DA01D09
:103A7000B11DBD1DED1DC91DD51DE11D84B580689D
:103A800084BD17BD32CF84B5806284BD18BD2DCFF3
:103A900080918000806880938000812F90E09093D7
:103AA00089008093880021CF80918000806280937C
:103AB0008000812F90E090938B0080938A0015CF37
:103AC00080918000886080938000812F90E09093A7
:103AD0008D0080938C0009CF8091B0008068809326
:103AE000B0001093B30001CF8091B000806280934A
:103AF000B0001093B400F9CE80919000806880935C
:103B00009000812F90E09093990080939800EDCEE3
:103B100080919000806280939000812F90E090933C
:103B20009B0080939A00E1CE809190008860809302
:103B30009000812F90E090939D0080939C00D5CEC3
:103B40008091A00080688093A0008091A0008F7B6E
:103B50008093A000812F90E09093A9008093A8000B
:103B6000C4CE8091A00080628093A000812F90E05D
:103B70009093AB008093AA00B8CE8091A00088609B
:103B80008093A000812F90E09093AD008093AC00D3
:103B9000ACCE80912001806880932001812F90E03D
:103BA0009093290180932801A0CE8091200180620A
:103BB00080932001812F90E090932B0180932A0124
:103BC00094CE80912001886080932001812F90E025
:103BD00090932D0180932C0188CE17FD2BCF23CFFE
:103BE0002091450F3091460F211594E0390710F0D0
:103BF0002FEF33E0A4EFB1E00E94B826A7019601B1
:103C00000E946C263093160C2093150C3093AE1145
:103C10002093AD110E94560D60918205809183051D
:103C20000E94CC0C48E853E160E070E087E19CE042
:103C30000E946F08882331F080EC9EE00E94040A05
:103C40000E9445080E940E052B013C0180917505DC
:103C500090917605A0917705B0917805A301920126
:103C6000281B390B4A0B5B0BDA01C901813D9740D8
:103C7000A105B10508F49FC08091E60E9091E70E72
:103C8000B12C009719F00E94EB25B62E62ED72E080
:103C9000CE0101960E94D40DBE016F5F7F4F82EF6F
:103CA0009EE00E94FE08A12C81110AC08EE792E0DE
:103CB0000E94E508AA24A394811102C032E0A32E39
:103CC000CE0101960E94970A8BE580933D05809175
:103CD0003A0590913905890F90913705890F8093A6
:103CE0003E05B0923F05A0924005809183058093E8
:103CF00041058091820580934205EDE3F5E085E57D
:103D000095E0AFE0BFE0D6962C91D697D7963C9140
:103D1000D79736832783D89632968E179F0799F7C1
:103D200010925B058091B01180935C0510925D0547
:103D30008091B21180935E0510925F058091B4115D
:103D400080936005109261058091B61180936205A1
:103D500023E6A22E25E0B22EB8018CEE9EE00E9452
:103D60001A05F50181935F010F5F1F4F00311105A7
:103D700099F7EEE3F5E096E380E0915019F0219198
:103D8000820FFBCF809373058DE58093740548E324
:103D900050E06DE375E084E895E00E942C0584E82E
:103DA00095E00E94D3064092750550927605609288
:103DB00077057092780580919B0E882331F10E94DF
:103DC0000E050091970E1091980E2091990E30914A
:103DD0009A0E601B710B820B930B0091930E109146
:103DE000940E2091950E3091960E0617170728070E
:103DF000390758F4E0919C0EF0919D0E309701F137
:103E0000199587E99EE00E94630881EA97E00E9485
:103E1000A20518161906FCF481EA97E00E948105B4
:103E2000182F682F80ED99E00E9474061D3099F0DC
:103E30001A3059F3612F88EF9EE00E94890CE5CF7C
:103E400088E198E00FB6F894A895809360000FBEC3
:103E500090936000FFCF6AE975E0CE0101960E9461
:103E6000D40DBE016F5F7F4F88EF9EE00E94310A44
:103E70008C0190933C0580933B05CE0101960E94F6
:103E8000970A17FD5EC08EE792E00E94E50888233E
:103E9000B9F09801295E3F4FA801485F5F4F68EF76
:103EA0007EE0CE0101960E948A0BBE016F5F7F4FBC
:103EB0008CEE9EE00E944C0ACE0101960E94970A69
:103EC0008CE692E00E94E5088823B9F098012A5E0A
:103ED0003F4FA801495F5F4F68EF7EE0CE0101963A
:103EE0000E948A0BBE016F5F7F4F8CEE9EE00E94A6
:103EF0004C0ACE0101960E94970A68E875E084EDAD
:103F00009EE00E94A40C6CEE7EE084ED9EE00E9498
:103F10009D0C67E775E084ED9EE00E94D60B64E699
:103F200075E08EEC9EE00E94A40C6CEE7EE08EECC0
:103F30009EE00E949D0C6DE575E08EEC9EE00E9477
:103F4000D60B66E575E0CE0101960E94D40DBE0148
:103F50006F5F7F4F88EF9EE00E94310A8C01909343
:103F60003C0580933B05CE0101960E94970A17FD00
:103F700040C09801285F3F4FA8014A5F5F4F68EF3C
:103F80007EE0CE0101960E948A0BBE016F5F7F4FDB
:103F900086EE9EE00E944C0ACE0101960E94970A8E
:103FA0008091EA0E9091EB0E029718F1E091E60EE7
:103FB000F091E70E309709F0D5C410923805E8E388
:103FC000F5E080818C32A9F421E030E050E040E05F
:103FD00066EE7EE0CE0101960E948A0BBE016F5F05
:103FE0007F4F86EE9EE00E944C0ACE0101960E9411
:103FF000970A6CE475E0CE0101960E94D40DBE01D3
:104000006F5F7F4F88EF9EE00E94310A8C01CE01E6
:1040100001960E94970A17FD06C06AE475E080EEDB
:104020009EE00E94A40C6EE375E0CE0101960E9412
:10403000D40DBE016F5F7F4F88EF9EE00E94310A72
:104040008C01CE0101960E94970A17FD06C06AE313
:1040500075E08AED9EE00E94A40C6FE275E0CE014F
:1040600001960E94D40DBE016F5F7F4F88EF9EE0E6
:104070000E94310A8C0190933C0580933B05CE0150
:1040800001960E94970A17FD1DC09801225D3F4FBF
:10409000A801475D5F4F68EF7EE0CE0101960E9468
:1040A0008A0BBE016F5F7F4F8AEB9EE00E944C0A35
:1040B000CE0101960E94970A6AEB7EE080ED99E0BE
:1040C0000E94ED096AE175E0CE0101960E94D40DCF
:1040D000BE016F5F7F4F88EF9EE00E94310A8C0126
:1040E000CE0101960E94970A17FF10923A056FE0E1
:1040F00075E0CE0101960E94D40DBE016F5F7F4F27
:1041000088EF9EE00E94310A8C01CE0101960E9448
:10411000970A17FF10923A056EEF74E0CE010196F0
:104120000E94D40DBE016F5F7F4F88EF9EE00E941A
:10413000310A8C01CE0101960E94970A17FF109256
:104140003A0580913A05811151C083EE94E00E94B6
:10415000D90981E080933A0510923905109237050C
:1041600062EE74E088EF9EE00E94A40C61EE74E0C1
:1041700082EF9EE00E94A40C60EE74E08CEE9EE064
:104180000E94A40C6FED74E086EE9EE00E94A40CE9
:104190006EED74E080EE9EE00E94A40C6DED74E084
:1041A0008AED9EE00E94A40C6CED74E084ED9EE02C
:1041B0000E94A40C6BED74E08EEC9EE00E94A40CB7
:1041C0001092CD0E1092CC0E6AED74E086EC9EE05B
:1041D0000E94A40C69ED74E080EC9EE00E94A40CA7
:1041E00068ED74E08AEB9EE00E94A40C80913A0591
:1041F000813061F581EA97E00E94D10560E088E1B5
:104200000E94290440ED57E060E070E080EB9EE002
:104210000E946F088823D1F061E088E10E942904A0
:1042200082E080933A05E0913505F0913605EE0F76
:10423000FF1FEE0FFF1FE95FFD4F4081518162813B
:10424000738126E081EA97E00E94F30580913A05A8
:104250008230C9F564ED74E0CE0101960E94D40D60
:10426000BE016F5F7F4F88EF9EE00E94310A8C0194
:10427000CE0101960E94970A17FD76C38AEB94E05F
:104280000E94D90965EB74E0CE0101960E94D40D1D
:10429000CE0101960E94220ACE0101960E94970A41
:1042A0006AEA74E0CE0101960E94D40DCE01019617
:1042B0000E94220ACE0101960E94970A83E0809311
:1042C0003A051092B90E80913A05833019F486E0D0
:1042D00080933A0580913A058630E1F448EE53E048
:1042E00060E070E080EB9EE00E946F08882309F494
:1042F00059C065E774E0CE0101960E94D40DCE014D
:1043000001960E94220ACE0101960E94970A89E036
:1043100080933A0580913A05893009F043C06EE7F1
:1043200072E0CE0101960E942E0BBE016F5F7F4F9F
:1043300088EF9EE00E94310A8C01CE0101960E9416
:10434000970A6EE772E017FF16C06CE672E0CE01C6
:1043500001960E942E0BBE016F5F7F4F88EF9EE09B
:104360000E94310A8C01CE0101960E94970A17FD26
:1043700022C06CE672E082EF9EE00E945F0B4091EB
:10438000F60E5091F70E6091F20E7091F30E80EDE3
:1043900099E00E942C058BE080933A0587E99EE026
:1043A0000E94630880913A058B3029F48CE0809359
:1043B0003A051092390580913A058C3009F0A6C271
:1043C00080913905811107C08DE594E00E94D909DB
:1043D00083E08093390580913905833009F0A5C0C9
:1043E00048EE53E060E070E087EA9EE00E946F08CC
:1043F000882309F4BFC063E574E0CE0101960E94F2
:10440000D40DCE0101960E94220ACE0101960E948F
:10441000970A68E474E0CE0101960E94D40DCE01A3
:1044200001960E94220ACE0101960E94970A68E234
:1044300074E0CE0101960E94D40DCE0101960E9437
:10444000220ACE0101960E94970A8CE692E00E9411
:10445000E508882309F446C06EE174E0CE010196B8
:104460000E94D40DCE0101960E94220ACE0101962F
:104470000E94970A63E174E0CE0101960E94D40D78
:10448000CE0101960E94220ACE0101960E94970A4F
:1044900068E074E0CE0101960E94D40DCE01019631
:1044A0000E94220ACE0101960E94970A6DEF73E0E6
:1044B000CE0101960E94D40DCE0101960E94220ADF
:1044C000CE0101960E94970A6FEE73E0CE0101962D
:1044D0000E94D40DCE0101960E94220ACE010196BF
:1044E0000E94970A61EE73E0CE0101960E94D40DFE
:1044F000CE0101960E94220ACE0101960E94970ADF
:1045000064ED73E0CE0101960E94D40DCE010196B8
:104510000E94220ACE0101960E94970A84E08093AD
:10452000390587E99EE00E9463088091390584304F
:1045300009F548EE53E060E070E087EA9EE00E94F3
:104540006F08882371F06AEC73E0CE0101960E9437
:10455000D40DCE0101960E94220ACE0101960E943E
:10456000970A8091F00E9091F10E0F9719F485E063
:104570008093390580913905853059F548EE53E02F
:1045800060E070E087EA9EE00E946F08882371F087
:1045900063EC73E0CE0101960E94D40DCE0101962A
:1045A0000E94220ACE0101960E94970A8091E60E8F
:1045B0009091E70E009769F00E94EB25633649F071
:1045C000633038F086E08093390587E99EE00E94E9
:1045D000630880913905863019F487E080933905A6
:1045E00080913905873099F548EE53E060E070E03E
:1045F00087EA9EE00E946F08882371F069EB73E000
:10460000CE0101960E94D40DCE0101960E94220A8D
:10461000CE0101960E94970A6FE373E0CE010196E6
:104620000E94D40DBE016F5F7F4F80EE9EE00E941E
:10463000FE08182FCE0101960E94970A112339F027
:1046400088E08093390587E99EE00E9463088091A5
:104650003905883019F489E080933905809139054E
:10466000893099F548EE53E060E070E087EA9EE01B
:104670000E946F08882371F06FEA73E0CE01019603
:104680000E94D40DCE0101960E94220ACE0101960D
:104690000E94970A6BE373E0CE0101960E94D40D4D
:1046A000BE016F5F7F4F8AED9EE00E94FE08182FCB
:1046B000CE0101960E94970A112339F08AE0809377
:1046C000390587E99EE00E946308809139058A30A8
:1046D00009F0B6C18EE792E00E94E508882309F44C
:1046E0008CC148EE53E060E070E087EA9EE00E94F3
:1046F0006F086EE873E0811194C1809139058C30A8
:1047000089F448EE53E060E070E087EA9EE00E94A2
:104710006F08882331F184ED9EE00E94220A8DE02B
:1047200080933905809139058D30D9F462E573E0C5
:10473000CE0101960E94D40DBE016F5F7F4F88EFBE
:104740009EE00E94310A8C01CE0101960E94970AD8
:1047500017FD07C08EE08093390587E99EE00E942F
:104760006308809139058E3089F448EE53E060E0AB
:1047700070E087EA9EE00E946F08882331F18EEC9A
:104780009EE00E94220A8FE08093390580913905CE
:104790008F30D9F461E473E0CE0101960E94D40D0C
:1047A000BE016F5F7F4F88EF9EE00E94310A8C014F
:1047B000CE0101960E94970A17FD07C081E1809300
:1047C000390587E99EE00E946308809139058131AF
:1047D00029F41092370582E18093390580913905DB
:1047E000823109F093C080913705811110C080910A
:1047F000CC0E882309F445C11092CC0E11E0109321
:10480000CD0E86EC9EE00E94220A1093370564E1EB
:1048100073E0CE0101960E94D40DBE016F5F7F4F01
:1048200088EF9EE00E94310A8C01CE0101960E9421
:10483000970A17FD0DC080913705813049F480EC4F
:104840009EE00E94220A1092CD0E82E080933705EE
:1048500063E073E0CE0143960E94D40DBE016D5E0D
:104860007F4F88EF9EE00E94310A11E097FF3EC023
:1048700062EF72E0CE010D960E94D40DBE01635F1F
:104880007F4F88EF9EE00E94310A11E097FF2AC017
:1048900063EE72E0CE0107960E94D40DBE01695FFF
:1048A0007F4F88EF9EE00E94310A11E097FF16C00B
:1048B00064ED72E0CE0101960E94D40DBE016F5FDF
:1048C0007F4F88EF9EE00E94310A9095192F111FAB
:1048D0001127111FCE0101960E94970ACE0107965B
:1048E0000E94970ACE010D960E94970ACE01439628
:1048F0000E94970A112351F080913705823031F4DC
:1049000087E99EE00E9463081092370563ED72E02C
:1049100088EF9EE00E94A40C0E940E050091100CEE
:104920001091110C2091120C3091130C601B710B23
:10493000820B930B00910C0C10910D0C20910E0C1E
:1049400030910F0C061717072807390708F0A895AC
:104950006AE070E080E090E00E94DB040E94F306D1
:104960000C94F81A31962DCB48EE53E060E070E0DD
:1049700080EB9EE00E946F08882301F180E994E0BB
:104980000E94B806E0913505F0913605EE0FFF1F45
:10499000EE0FFF1FE95FFD4F4081518162817381FE
:1049A0002AE080ED99E00E9430098EE894E00E94B0
:1049B000D9098091B90E8F5F8093B90E8091B90E9D
:1049C000853008F480CC1092B90E89E794E00E94FB
:1049D000D90980913505909136050196823091056F
:1049E00038F4909336058093350510923A056BCCD8
:1049F0001092360510923505F8CF8CE692E00E94B1
:104A0000E508882309F479CE48EE53E060E070E0D1
:104A100087EA9EE00E946F08882309F46ECE60E763
:104A200073E0CE0101960E94D40DCE0101960E9442
:104A3000220ACE0101960E94970A8BE080933905E5
:104A4000809139058B3009F058CE62E673E0CE01D3
:104A500001960E94D40DBE016F5F7F4F88EF9EE0EC
:104A60000E94310A8C01CE0101960E94970A17FD1F
:104A700044CE8CE08093390587E99EE00E9463086C
:104A80003CCE40E355E760E070E087EA9EE00E949C
:104A90006F08882349F011E01093CD0E86EC9EE05C
:104AA0000E94220A109337058091CD0E8111AFCE5E
:104AB00048EB5BE060E070E08EE99EE00E946F08EA
:104AC000882309F4A4CE86E293E00E94D9096DE11F
:104AD00073E0CE0101960E94D40DCE0101960E9492
:104AE000220ACE0101960E94970A66E173E0CE0188
:104AF00001960E94D40DCE0101960E94220ACE0199
:104B000001960E94970A83CE69E972E0CE01019670
:104B10000E94D40DBE016F5F7F4F81E89EE00E942E
:104B2000FE08082FCE0101960E94970A01110C94ED
:104B3000141B63E972E0CE0101960E94D40DBE0100
:104B40006F5F7F4F81E89EE00E94FE08082FCE0134
:104B500001960E94970A002311F40C941D1B80916A
:104B6000CC0E81110C94161B8091CD0E81110C94EA
:104B7000161B81E592E00E94D9091093CC0E0C948B
:104B8000161B6EEC72E0CE0101960E94D40DBE01A0
:104B90006F5F7F4F8DE89EE00E94310A8C01CE014D
:104BA00001960E94970A17FD0EC06AEB72E0CE01D3
:104BB00001960E94D40DCE0101960E94040ACE01F6
:104BC00001960E94970A61ED72E08DE89EE00E94D6
:104BD000A40C0C947D1C1F93FC0199278827BC0111
:104BE000E89411911032E9F3193010F01E30C8F337
:104BF0001B3251F01D3249F4689406C00E942D26E4
:104C0000610F711D811D911D119110531A30B0F368
:104C10003EF490958095709561957F4F8F4F9F4F93
:104C20001F910895FB01DC0105900D920020E1F732
:104C30000895FC0105900020E9F7809590958E0F6E
:104C40009F1F0895BB274A3031F4992322F4BDE217
:104C5000909581959F4F0C944326592F482F372FBD
:104C6000262F660F771F881F991F660F771F881FD3
:104C7000991F620F731F841F951F660F771F881F70
:104C8000991F0895BB27FB015527AA27880F991F55
:104C9000AA1FA41710F0A41B83955051B9F7A05D6B
:104CA000AA3308F0A95DA193009779F7B111B193E8
:104CB0001192CB010C945C26DC01FC01672F7191F1
:104CC0007723E1F7329704C07C916D9370836291F2
:104CD000AE17BF07C8F30895052E97FB1EF4009486
:104CE0000E94832657FD07D00E94962607FC03D01A
:104CF0004EF40C94832650954095309521953F4F66
:104D00004F4F5F4F089590958095709561957F4FB7
:104D10008F4F9F4F08950E94B826A59F900DB49F76
:104D2000900DA49F800D911D11240895A1E21A2ECB
:104D3000AA1BBB1BFD010DC0AA1FBB1FEE1FFF1F3F
:104D4000A217B307E407F50720F0A21BB30BE40B8F
:104D5000F50B661F771F881F991F1A9469F76095D6
:104D60007095809590959B01AC01BD01CF01089590
:104D7000A29FB001B39FC001A39F700D811D11249C
:104D8000911DB29F700D811D1124911D0895EE0F8C
:104D9000FF1F881F8BBF0790F691E02D19940F938A
:104DA0001F93CF93DF938230910510F482E090E05F
:104DB000E0913E12F0913F1230E020E0B0E0A0E040
:104DC000309799F42115310509F44AC0281B390B95
:104DD00024303105D8F58A819B816115710589F1EF
:104DE000FB0193838283FE0111C0408151810281C6
:104DF000138148175907E0F04817590799F410979D
:104E000061F012960C93129713961C933296CF0171
:104E1000DF91CF911F910F91089500933E1210934F
:104E20003F12F4CF2115310551F04217530738F0E6
:104E3000A901DB019A01BD01DF01F801C1CFEF013A
:104E4000F9CF90933F1280933E12CDCFFE01E20F37
:104E5000F31F819391932250310939832883D7CF4F
:104E600020913C1230913D12232B41F420910302FA
:104E70003091040230933D1220933C1220910102A4
:104E8000309102022115310541F42DB73EB7409112
:104E9000050250910602241B350BE0913C12F09163
:104EA0003D12E217F307A0F42E1B3F0B281739071A
:104EB00078F0AC014E5F5F4F2417350748F04E0F76
:104EC0005F1F50933D1240933C12819391939FCF6B
:104ED000F0E0E0E09CCFCF93DF930097E9F0FC0196
:104EE000329713821282A0913E12B0913F12ED01CF
:104EF00030E020E01097A1F420813181820F931FD0
:104F000020913C1230913D122817390709F061C0F9
:104F1000F0933D12E0933C12DF91CF910895EA01A6
:104F2000CE17DF07E8F54A815B819E0141155105E7
:104F3000B1F7E901FB83EA8349915991C40FD51F69
:104F4000EC17FD0761F4808191810296840F951F13
:104F5000E90199838883828193819B838A83F0E02E
:104F6000E0E012968D919C9113970097B9F52D91E1
:104F70003C911197CD010296820F931F20913C1214
:104F800030913D122817390739F6309751F51092B4
:104F90003F1210923E12B0933D12A0933C12BCCF30
:104FA000D383C28340815181840F951FC817D907CD
:104FB00061F44E5F5F4F88819981480F591F51837B
:104FC00040838A819B81938382832115310509F077
:104FD000B0CFF0933F12E0933E129ECFFD01DC0173
:104FE000C0CF13821282D7CF4F925F926F927F927F
:104FF0008F929F92AF92BF92CF92DF92EF92FF92E9
:105000000F931F93CF93DF938C01009799F4CB01FB
:10501000DF91CF911F910F91FF90EF90DF90CF9094
:10502000BF90AF909F908F907F906F905F904F90C8
:105030000C94CF26FC01E60FF71F9C01225031098A
:10504000E217F30708F4AEC0D901CD91DC911197B6
:10505000C617D70720F1C530D10578F0CE010497E7
:105060008617970750F0C61BD70B2297C193D19391
:105070006D937C93CF010E946B27C801DF91CF9184
:105080001F910F91FF90EF90DF90CF90BF90AF9066
:105090009F908F907F906F905F904F9008955B01ED
:1050A000AC1ABD0A4C018C0E9D1EA0913E12B0910F
:1050B0003F12512C412CF12CE12C109731F58091AD
:1050C0003C1290913D128815990509F05CC0461676
:1050D000570608F058C08091010290910202009793
:1050E00041F48DB79EB74091050250910602841B92
:1050F000950BE817F90708F055C0F0933D12E093BF
:105100003C12F90171836083B8CF8D919C91119706
:1051100012966C90129713967C901397A815B90568
:1051200059F56C0142E0C40ED11CCA14DB0420F115
:10513000AC014A195B09DA011296159780F0628278
:10514000738251834083D9016D937C93E114F10400
:1051500071F0D7011396FC93EE9312978ECF22969F
:105160008C0F9D1FF90191838083F301EFCFF093A2
:105170003F12E0933E1281CF4816590608F42C01E5
:105180007D01D3019ACFCB010E94CF267C010097ED
:1051900049F0AE01B8010E94DA28C8010E946B27CD
:1051A00087016BCF10E000E068CF81E090E0F894D9
:1051B0000C94B32BFB01DC0102C001900D92415015
:1051C0005040D8F70895FB01DC018D9101908019C2
:1051D0000110D9F3990B0895FB01DC0101900D92A8
:1051E0000020E1F70895FB0151915523A9F0BF017B
:1051F000DC014D9145174111E1F759F4CD010190C2
:10520000002049F04D9140154111C9F3FB014111B6
:10521000EFCF81E090E0019708952F923F924F9257
:105220005F926F927F928F929F92AF92BF92CF9236
:10523000DF92EF92FF920F931F93CF93DF9300D0F3
:1052400000D000D01F921F92CDB7DEB77C013B018A
:105250008A01FC0117821682838181FFDDC1CE01A4
:1052600001965C01F7019381F30193FD859193FF12
:1052700081913F01882309F453C1853239F493FDAC
:10528000859193FF81913F01853229F4B70190E028
:105290000E94252BE7CF912C212C312CFFE1F31517
:1052A00038F08B3211F190F4803209F1833229F118
:1052B00037FC3CC020ED280F2A3050F536FE20C0C8
:1052C0008AE0989E200D1124922E06C08D3291F016
:1052D000803371F7689430F8F30193FD859193FF63
:1052E00081913F018111DACF21C0689431F868942F
:1052F00032F8F2CF689433F8EFCF689434F8ECCFFB
:10530000EAE02E9E200D1124222E689435F8E4CF79
:105310008E3229F436FC04C1689436F8DDCF8C3621
:1053200019F4689437F8D8CF8836B1F2982F9F7D5A
:1053300095549330E0F08336A1F18337C1F1833582
:1053400009F063C02801F2E04F0E511CF801C08043
:10535000D180692D70E036FC02C06FEF7FEFC6018F
:105360000E940F2B4C01689437F882010AC00C5F31
:105370001F4FFFE3F98388248394912C6501E894FF
:1053800037F833FE2DC0522C8114910471F555204D
:1053900009F468CFB70180E290E00E94252B5A946F
:1053A000F6CFF801808189830E5F1F4FE4CF28017B
:1053B000F2E04F0E511CF801C080D180692D70E0E1
:1053C00036FC02C06FEF7FEFC6010E941A2B4C0122
:1053D0008201D5CFB70180E290E00E94252B2A946C
:1053E0002814190409F0B0F7CECFF60137FC8591E7
:1053F00037FE81916F01B70190E00E94252B51107B
:105400005A94F1E08F1A9108BFCF843619F089368B
:1054100009F077C0F80137FE6BC06081718182812D
:1054200093810C5F1F4FF32DFF763F2E97FF09C02E
:1054300090958095709561957F4F8F4F9F4F6894A1
:1054400037F82AE030E0A5010E94552BC82ECA1873
:105450008C2C432C36FE0CC0E89440F8C91440F460
:1054600034FE05C032FC03C0F32DFE7E4F2E892C86
:1054700044FEAAC0FE01EC0DF11D8081803309F0CD
:105480009CC0242D297E422E842D8870582E43FCEA
:10549000AAC040FEA4C09C2C821418F42C0C922CA0
:1054A000981844FEA6C0B70180E390E00E94252B27
:1054B00042FE09C088E790E041FE02C088E590E026
:1054C000B7010E94252BC91408F49FC0CA94D12C9F
:1054D0009FEFC91AD90ACA0CDB1CF60182916F0131
:1054E000B70190E00E94252BAC14BD04B1F74FCF5B
:1054F00060817181072E000C880B990B0E5F1F4F86
:1055000092CFD32CE894D4F82AE030E08537E1F14B
:10551000232D297FD22E8F36A9F1F0F4883551F151
:10552000F701868197812B960FB6F894DEBF0FBEE8
:10553000CDBFDF91CF911F910F91FF90EF90DF9042
:10554000CF90BF90AF909F908F907F906F905F9023
:105550004F903F902F900895803749F0883701F79A
:10556000D4FE02C06894D2F820E130E00DC0689407
:10557000D4F8F6CF34FE03C0822F8660D82E20E107
:1055800032E002C028E030E0F801D7FE0FC06081B1
:105590007181828193810C5F1F4FA5010E94552B61
:1055A000C82ECA183D2CE89437F852CF608171811B
:1055B00090E080E00E5F1F4FF0CF42FC02C083946A
:1055C00063CF8394839460CF842D867809F45CCF75
:1055D000F6CFB70180E290E00E94252B83948214DD
:1055E000C0F3512C5ECF522C5818821408F459CFB6
:1055F000F8CF842D867809F466CF8BE241FE80E2F5
:1056000047FC8DE2B70190E05CCFB70180E390E00A
:105610000E94252B9A9457CF8FEF9FEF84CFFC01E8
:105620000590615070400110D8F7809590958E0FCD
:105630009F1F0895FC016150704001900110D8F740
:10564000809590958E0F9F1F08950F931F93CF9372
:10565000DF93182F092FEB018B8181FD09C01FEF0C
:105660000FEF812F902FDF91CF911F910F91089510
:1056700082FF14C02E813F818C819D8128173907BC
:105680003CF4E881F981CF010196998388831083E6
:105690008E819F8101969F838E83E3CFE885F98574
:1056A000812F1995892BA1F3DACFFA01AA27283087
:1056B00051F1203181F1E8946F936E7F6E5F7F4FDF
:1056C0008F4F9F4FAF4FB1E03ED0B4E03CD0670F5B
:1056D000781F891F9A1FA11D680F791F8A1F911DAE
:1056E000A11D6A0F711D811D911DA11D20D009F4FE
:1056F00068943F912AE0269F11243019305D319340
:10570000DEF6CF010895462F4770405D4193B3E028
:105710000FD0C9F7F6CF462F4F70405D4A3318F0CF
:10572000495D31FD4052419302D0A9F7EACFB4E080
:10573000A6959795879577956795BA95C9F7009738
:105740006105710508959B01AC010A2E06945795D9
:10575000479537952795BA95C9F7620F731F841F30
:10576000951FA01D089513E0CEE8D3E000E006C029
:10577000802FFE010E94C7262196011DCF38D10738
:0A57800080E00807A9F7F894FFCFB6
:10578A00010000401280008025000000C2010000D4
:10579A0000000074062C057105D306A20581059444
:1057AA0005000000002E0900000000000000002A89
:1057BA000E9F0AC90A00000000D30AEB0A00000083
:1057CA0000F50AFC0A0000000089090000000054E4
:1057DA00072C0542086807890773077E072B08020A
:1057EA00081708B607940752070D0A005175656332
:1057FA0074656C5F4243323630592D434E0045433F
:10580A003830304B00726561645F6269747300728C
:10581A006561645F696E7075745F62697473007242
:10582A006561645F696E7075745F726567697374C8
:10583A0065727300726561645F7265676973746526
:10584A00727300496C6C6567616C206E62206F66CA
:10585A002076616C75657320256420696E20257336
:10586A0020286D6178202564290A00496C6C6567D7
:10587A00616C206461746120616464726573732071
:10588A00307825305820696E2025730A00496C6CDF
:10589A006567616C20646174612061646472657318
:1058AA007320307825305820696E207772697465C4
:1058BA005F6269740A00496C6C6567616C20646197
:1058CA0074612076616C75652030782530582069BE
:1058DA006E2077726974655F62697420726571758A
:1058EA006573742061742061646472657373202522
:1058FA0030580A00496C6C6567616C206461746198
:10590A002061646472657373203078253058206989
:10591A006E2077726974655F726567697374657200
:10592A000A00496C6C6567616C206E756D62657200
:10593A00206F662076616C75657320256420696E18
:10594A002077726974655F6269747320286D617863
:10595A00202564290A00496C6C6567616C206461C2
:10596A0074612061646472657373203078253058DD
:10597A0020696E2077726974655F626974730A00C0
:10598A00496C6C6567616C206E756D626572206F1B
:10599A00662076616C75657320256420696E2077B0
:1059AA00726974655F7265676973746572732028BA
:1059BA006D6178202564290A00496C6C6567616C01
:1059CA002064617461206164647265737320307845
:1059DA0025305820696E2077726974655F72656731
:1059EA006973746572730A004C4D42332E312E343A
:1059FA0000496C6C6567616C206E62206F66207668
:105A0A00616C75657320285725642C2052256429FA
:105A1A0020696E2077726974655F616E645F726572
:105A2A0061645F72656769737465727320286D615A
:105A3A0078205725642C20522564290A00496C6C69
:105A4A006567616C206461746120726561642061BC
:105A5A00646472657373203078253058206F722021
:105A6A007772697465206164647265737320307833
:105A7A002530582077726974655F616E645F72655C
:105A8A0061645F7265676973746572730A00556E43
:105A9A006B6E6F776E204D6F646275732066756EDC
:105AAA006374696F6E20636F64653A2030782530BD
:045ABA00580A000086
:00000001FF
