:100000000C948F030C94C0030C94C0030C94C00395
:100010000C94C0030C94C0030C94C0030C94C00354
:100020000C94C0030C94C0030C94C0030C94C00344
:100030000C94C0030C94C0030C94C0030C94C00334
:100040000C94C0030C94C0030C94C0030C94C00324
:100050000C94C0030C94C0030C94C0030C948E1534
:100060000C94C0030C94FE160C94D4160C94C0038C
:100070000C94C0030C94C0030C94C0030C94C003F4
:100080000C94C0030C94C0030C94C0030C94C003E4
:100090000C94AA160C9480160C94C0030C94C00304
:1000A0000C94C0030C94C0030C94C0030C94C003C4
:1000B0000C94C0030C94C0030C94C0030C94C003B4
:1000C0000C94C0030C94C0030C94C0030C945616FB
:1000D0000C942C160C94C0030C9402160C94D81596
:1000E0000C94C0030C942A120C94C20B0C94EE12C4
:1000F0000C949D130C948D080C9433050C940B14E4
:100100000C94E0030C94EE030C94DA0B0C94EA03C9
:100110000C94CB040C9460080C9447050C942908AB
:100120000C94FB030C94E40B0C942B080C94EC043F
:100130000C9406050C94F5030C941B040C946C139E
:100140000C9409040C949D110C943D050C947906B3
:100150000C94AA070C9428170C94EB0B0C941A051A
:100160000C9424050C94F2030C94D60A0C94F5110B
:100170000C9420040C94E6030C948E0B0C947417CE
:100180000C94D9080C94E2040C940D040C94B80B54
:100190000C94EE080C94BF130C9417040C9458069E
:1001A0000C944A080C94210F0C9410050C94130421
:1001B0000C946B080C9474150C9421040C94D304C7
:1001C0000C946B060C9419090C9451050C94550869
:1001D0000C94680A0C94DD0F0C94F6040C94FF0345
:1001E0000C9425040C94FE040C943F080C94030614
:1001F0000C944B070C9448060C940D0A0C940209BD
:100200000C9405040C940C110C945B050C9465057E
:100210000C94D8043E3E3E20496F542057617463CD
:1002200068646F67204177616B656E00466F72632B
:1002300065205075626C6973683A005B537472692B
:100240006E67205370616365204E4F54204F4B5DA5
:10025000005B537472205370616365204F4B5D00E7
:100260000041542B514D544F50454E3D302C696F39
:10027000742E7265632D67742E636F6D2C31383860
:100280003000466F726365204F70656E3A004F50C4
:10029000454E00464F5243450052455345540000D9
:1002A000000020002300260029002C002F0032002F
:1002B000000100000301060109015B48656C6C6FD9
:1002C0002066726F6D205245432D47545D004154A6
:1002D000000000002B514D545055423A20302C3133
:1002E0002C30002B514D545055423A20302C302C9C
:1002F00030002B514D5450554245583A20302C3146
:100300002C30002B514D5450554245583A20302C3A
:10031000302C30003E0041542B4353510041542BAC
:100320004350494E3F003E3E3E2051756572792054
:100330004350494E20262043535100302C31003188
:10034000002B514D545355423A20302C312C302C37
:1003500030002B514D54434F4E4E3A20302C302C10
:1003600030002B514D544F50454E3A20302C300028
:1003700041542B514D544F50454E3D302C382E3268
:1003800031302E38342E32342C313838300041544C
:100390002B514D544F50454E3D302C696F742E7289
:1003A00065632D67742E636F6D2C313838300041D2
:1003B000542B43455245473F0041542B434741543A
:1003C000543F0041542B4353510041542B43475356
:1003D0004E3D310041542B514D54444953433D301F
:1003E0000041542B514D54434C4F53453D30004137
:1003F000542B4345445258533D302C350041542B27
:100400004353434F4E3D300041542B4350534D53C3
:100410003D300041542B5153434C4B3D300041542F
:100420002B4346554E3D310041542B5149444E53C8
:100430004346473D302C312E312E312E312C323275
:10044000332E352E352E350041542B5153434C4B12
:100450003D300041542B4346554E3D31003E3E3E1B
:1004600020494F5420434F4E4E454354494F4E2050
:10047000494E495400415449003E3E3E20494F54A4
:100480002053455249414C204641494C2100290006
:100490003E3E3E20494F542053455249414C205046
:1004A000524F42452E2E2E20280041542B515343AB
:1004B0004C4B3D300041544530003E3E3E204649C5
:1004C0004E495348204841524457415245205245D5
:1004D0005345540052445900000000000000000041
:1004E0000000003E3E3E20494F54204D4F44554CA5
:1004F0004520494E49542C205245534554002B4326
:1005000050494E3A204E4F54205245414459002BF9
:10051000434D45204552524F52002B5149555243AD
:100520003A20227064706465616374222C31002B60
:10053000514D54524543563A2000302C31002B4344
:10054000455245473A20302C310031002B4347417A
:1005500054543A2031002B4353513A20002F6F75E9
:10056000742C300041542B514D545355423D302C86
:10057000312C7267742F002C747377682C31576F8D
:100580003D5B367641306D0041542B514D54434F05
:100590004E4E3D302C6465765F002B4347534E3AF8
:1005A000200000002100240027002A002D00300038
:1005B000330001010000040107010A0100002200CC
:1005C000250028002B002E0031003400020100001D
:1005D000050108010B0105050505070508080808C0
:1005E000020202020A0A08080404040401010101CB
:1005F00001010101030303030303030304070707C6
:100600000C0C0C0C0C0C0C0C02020202060606066A
:10061000060606060B0B0B0B0B0B0B0B0102102037
:100620002008081020401020408002010201080428
:1006300002010102040810204080804020100804BC
:100640000201800402018040201008040201080415
:100650000201010204081020408001020408102059
:10066000408000000A0B02090C0D0E08070304016C
:10067000000000000000000000000000000000007A
:100680000000000000000000000000000000121147
:10069000100000000000000000000000000000004A
:1006A00000000000000000005D002C005B005D0009
:1006B0002C005B002F696E2C0041542B514D54507F
:1006C000554245583D302C312C322C302C726774F9
:1006D0002F0041542B514D545055423D302C312C5C
:1006E000322C302C7267742F007D0022616F75747C
:1006F000223A002C002261696E223A002C0022640A
:100700006F7574223A002C002264696E223A002C24
:10071000007B22637371223A00007417281711249A
:100720001FBECFEFD1E2DEBFCDBF00E00CBF15E0B2
:10073000A0E0B2E0E4E2F8E500E00BBF02C0079001
:100740000D92A433B107D9F722E1A4E3B5E001C0CB
:100750001D92A834B207E1F713E0CEE8D3E000E041
:1007600006C021970109802FFE010E941427CD3871
:10077000D10780E00807A9F70E94F71A0C94002C13
:100780000C9400008150823108F05AC0E82FF0E04C
:100790008827E253FC4F8F4F0C941427EE03F2038B
:1007A000E003E603EA032004F503FB03FF0305046B
:1007B00009040D041304170420041B042104250458
:1007C000809180008F7780938000089580918000D1
:1007D0008F7DF9CF80918000877FF5CF84B58F77AB
:1007E00084BD089584B58F7DFBCF8091B0008F7755
:1007F0008093B00008958091B0008F7DF9CF8091F3
:1008000090008F77809390000895809190008F7D65
:10081000F9CF80919000877FF5CF8091A0008F77EE
:100820008093A00008958091A0008F7DF9CF8091E2
:10083000A000877FF5CF809120018F7780932001E2
:100840000895809120018F7DF9CF80912001877FCD
:10085000F5CF1F93CF93DF93282F30E0F901EE59A6
:10086000F94F8491F901E45EF94FD491F901EA520C
:10087000FA4FC491CC23A9F0162F81110E94C20314
:10088000EC2FF0E0EE0FFF1FE454FA4FA591B49166
:100890008FB7F894EC91111108C0D095DE23DC934A
:1008A0008FBFDF91CF911F910895DE2BF8CFCF93AB
:1008B000DF9390E0FC01E45EF94F24918A529A4F55
:1008C000FC0184918823C9F090E0880F991FFC01F6
:1008D000EE55FA4FA591B491FC01E454FA4FC5913D
:1008E000D49161110DC09FB7F8948C91209582230B
:1008F0008C938881282328839FBFDF91CF9108950F
:10090000623051F49FB7F8943C91822F80958323F5
:100910008C93E8812E2BEFCF8FB7F894EC912E2B90
:100920002C938FBFEACF1F93CF93DF93182FEB0148
:1009300061E00E945704209739F460E0812FDF9135
:10094000CF911F910C942904CF3FD10511F461E0A0
:10095000F5CFE12FF0E0EE59F94FE491E150E231AB
:1009600008F0B3C0F0E08827E754FB4F8F4F0C949A
:100970001427CB04D304D804E204EC046505F60480
:10098000FE04060510051A05240533053D05650519
:10099000470551055B0584B5806884BDC7BDDF91FF
:1009A000CF911F91089584B5806284BDC8BDF7CFF3
:1009B00080918000806880938000D0938900C093EC
:1009C0008800EDCF80918000806280938000D0937A
:1009D0008B00C0938A00E3CF809180008860809371
:1009E0008000D0938D00C0938C00D9CF8091B0004F
:1009F00080688093B000C093B300D1CF8091B000E5
:100A000080628093B000C093B400C9CF8091900001
:100A1000806880939000D0939900C0939800BFCFD6
:100A200080919000806280939000D0939B00C0934F
:100A30009A00B5CF80919000886080939000D09309
:100A40009D00C0939C00ABCF8091A00080688093F4
:100A5000A0008091A0008F7B8093A000D093A9007C
:100A6000C093A8009CCF8091A00080628093A000DA
:100A7000D093AB00C093AA0092CF8091A000886071
:100A80008093A000D093AD00C093AC0088CF80913C
:100A90002001806880932001D0932901C093280110
:100AA0007ECF80912001806280932001D0932B0122
:100AB000C0932A0174CF8091200188608093200127
:100AC000D0932D01C0932C016ACFC038D1050CF012
:100AD0003ECF33CF863308F0865320917B00982F8A
:100AE0009870277F922B90937B002091000290E4D6
:100AF000299F900111248770822B80937C00809124
:100B00007A00806480937A0080917A0086FDFCCF21
:100B1000809178009091790008953FB7F894809182
:100B20007E0590917F05A0918005B091810526B545
:100B3000A89B05C02F3F19F00196A11DB11D3FBF15
:100B4000BA2FA92F982F8827BC01CD01620F711DE4
:100B5000811D911D42E0660F771F881F991F4A95DE
:100B6000D1F708958F929F92AF92BF92CF92DF926A
:100B7000EF92FF926B017C010E948D054B015C019D
:100B8000C114D104E104F104B9F00E948D05681983
:100B900079098A099B09683E73408105910580F3B4
:100BA00021E0C21AD108E108F10888EE880E83E03E
:100BB000981EA11CB11CE4CFFF90EF90DF90CF9066
:100BC000BF90AF909F908F9008952FB7F894609149
:100BD0007A0570917B0580917C0590917D052FBFF2
:100BE0000895FC01248135816217730748F48081E0
:100BF0009181009729F0860F971FFC01808108954D
:100C000080E008950895AF92BF92CF92DF92EF9265
:100C1000FF920F931F93CF93DF936C017B018B01A6
:100C2000040F151FEB015E01AE18BF08C017D107F6
:100C300059F06991D601ED91FC910190F081E02D80
:100C4000C6011995892B79F7C501DF91CF911F91C5
:100C50000F91FF90EF90DF90CF90BF90AF900895ED
:100C6000FC01A089B1898C91A689B78982FD0EC04B
:100C70009C91818D8F5F228D821749F0A18DAE0FDF
:100C8000BF2FB11D5D969C93818F08958C9108951F
:100C9000FC01538D448D252F30E0842F90E0821B82
:100CA000930B541718F081509F4F089501970895A2
:100CB000FC01918D828D981759F0A28DAE0FBF2F38
:100CC000B11D5D968C91928D9F5F928F90E00895FB
:100CD0008FEF9FEF0895FC01918D828D981731F071
:100CE000828DE80FF11D858D90E008958FEF9FEFC5
:100CF0000895FC01918D828D981B892F90E00895B5
:100D00008FE39CE00E94790621E0892B09F420E022
:100D1000822F089584E895E00E94790621E0892BCE
:100D200009F420E0822F089581EA97E00E94790675
:100D300021E0892B09F420E0822F089580ED99E0CD
:100D40000E94790621E0892B09F420E0822F089582
:100D5000CF93DF93EC01E881F9810680F781E02DE4
:100D60001995EA89FB8980818F7E8083EA89FB89D6
:100D70008081877F8083EA89FB8980818F77808368
:100D8000EA89FB8980818F7D80838A8D898FDF91BD
:100D9000CF910895CF92DF92EF92FF921F93CF935E
:100DA000DF93EC016A017B01122FE889F98982E067
:100DB0008083C11481EED806E104F104A1F060E063
:100DC00079E08DE390E0A70196010E94E32621508F
:100DD00031094109510956954795379527952115B0
:100DE00080E1380798F0E889F989108260E874E8B2
:100DF0008EE190E0A70196010E94E326215031097F
:100E0000410951095695479537952795EC85FD85FC
:100E10003083EE85FF852083188EEC89FD89108351
:100E2000EA89FB89808180618083EA89FB898081EE
:100E300088608083EA89FB89808180688083EA8971
:100E4000FB8980818F7D8083DF91CF911F91FF90FF
:100E5000EF90DF90CF900895FC01A48DA80FB92FDB
:100E6000B11DA35EBE4F9C91848D8F5F848FA68938
:100E7000B7899C93A089B1898C91837080648C938D
:100E8000938D848D981306C00288F389E02D8081AC
:100E90008F7D808308950F931F93CF93DF93EC0191
:100EA00081E0888F9B8D8C8D981318C0E889F98913
:100EB000808185FF13C09FB7F894EE89FF89608316
:100EC000E889F98980818370806480839FBF81E095
:100ED00090E0DF91CF911F910F910895062F1B8D08
:100EE0001F5F8C8D81130CC00FB607FCFACFE88909
:100EF000F989808185FFF5CFCE010E942C07F1CFC3
:100F0000EB8DEC0FFD2FF11DE35EFE4F00839FB7CD
:100F1000F8941B8FEA89FB8980818062D6CF0F937A
:100F20001F93CF93DF938C01D0E0C0E0F801EC0F6A
:100F3000FD1F6491662341F080ED99E00E944B070C
:100F4000892B11F02196F2CFCE01DF91CF911F9125
:100F50000F910895CF93DF93EC01888D8823B9F02A
:100F6000AA89BB89E889F9898C9185FD03C08081B4
:100F700086FD0DC00FB607FCF7CF8C9185FFF2CF31
:100F8000808185FFEDCFCE010E942C07E9CFDF9154
:100F9000CF91089580E090E0892B29F00E949E0671
:100FA00081110E94000080E090E0892B29F00E94CE
:100FB000940681110E94000080E090E0892B29F0C6
:100FC0000E948A0681110E94000080E090E0892B37
:100FD00029F00E94800681110C940000089500976A
:100FE00041F0DC015896ED91FC9104A0F5A1E02DB3
:100FF00019940895009741F0DC015896ED91FC9109
:1010000000A0F1A1E02D199486E190E090933D12AB
:1010100080933C128FEF9FEF0895CF93DF93EC0105
:10102000288539854A855B85A8EEB3E00E94D826DD
:101030000E94B2058C859D858230910538F0880F1D
:10104000991F880F991F05970197F1F7DF91CF91AD
:10105000089581E00895FC01808D882349F08485FE
:101060009585DC01ED91FC910190F081E02D1994C2
:1010700081E090E09383828390E080E00895DC013A
:101080001C968D919C91DC01ED91FC910680F7817D
:10109000E02D1994DC011C968D919C91DC01ED9161
:1010A000FC910284F385E02D1994DC011C968D914E
:1010B0009C91DC01ED91FC910484F585E02D19945F
:1010C000DC011C968D919C91DC01ED91FC910084DA
:1010D000F185E02D1994CF93DF93EC018C859D85EC
:1010E0000E94A8068889998997FD07C060E00E9440
:1010F000290460E088890E9457048A899B8997FDAA
:1011000009C060E00E94290460E08A89DF91CF91E4
:101110000C945704DF91CF9108958F929F92AF92D4
:10112000BF92DF92EF92FF920F931F93CF93DF93C3
:10113000EC014A015B01D22E898E9A8EAB8EBC8E59
:101140002D8F3E8F8C899D89009709F08C010C8B27
:101150001D8B8E899F89009709F07C01EE8AFF8A9A
:101160008889998997FD07C061E00E94570460E073
:1011700088890E9429048A899B8997FD07C061E0BC
:101180000E94570461E08A890E942904188E2D2D3F
:10119000B501A4018C859D85DF91CF911F910F91A1
:1011A000FF90EF90DF90BF90AF909F908F900C9446
:1011B000CA06EF92FF920F931F93DC01ED91FC9111
:1011C0000488F589E02DA2E3EA2EF12C02E310E079
:1011D00019951F910F91FF90EF900895EF92FF9254
:1011E0000F931F93DC01ED91FC910488F589E02DAC
:1011F0007801890126E030E019951F910F91FF9049
:10120000EF900895EF92FF920F931F93DC01ED9101
:10121000FC910488F589E02D22E3E22EF12C02E313
:1012200010E026E030E019951F910F91FF90EF90AC
:10123000089590E080E0089560E086E10E9429042E
:1012400061E070E080E090E00C94B205982F80EDB2
:10125000890F8A3070F08FEB890F863018F489EC93
:10126000890F08958FE9890F863010F489EAF8CF45
:1012700080E00895CF93DF93EC010E94E505688339
:1012800079838A839B83DF91CF9108958F929F9278
:10129000AF92BF92CF92DF92EF92FF92CF93DF9304
:1012A000EC016A017B010E94E5058C809D80AE8087
:1012B000BF809B01AC01281939094A095B09490122
:1012C0005A018885811108C00E94E5056C837D83E1
:1012D0008E839F8381E08887C814D904EA04FB04C5
:1012E00008F418860E94E5058C809D80AE80BF8042
:1012F000681979098A099B0921E0C616D706E8060C
:10130000F90608F020E0822FDF91CF91FF90EF9057
:10131000DF90CF90BF90AF909F908F900895CF9324
:10132000DF93FC012181222331F0EC0160E0808118
:101330000E9429041982DF91CF910895CF93DF9302
:10134000FC012181211107C0EC0161E080810E9434
:10135000290481E08983DF91CF910895CF93DF93B2
:10136000EC01862F6883198261E00E945704CE0148
:10137000DF91CF910C948F09FC01862F608311823D
:10138000168260E00C9457042091F60E3091F70E0F
:10139000232B39F421E0FC018081882361F020E0D7
:1013A0000AC0BC018091F20E9091F30E0E94302988
:1013B00021E0892BA1F7822F0895FC01248135813A
:1013C000FB014481558124173507E1F4FC0180813C
:1013D0009181FB01608171810097D1F061157105E8
:1013E000A1F4232BC1F0FC01808190E008C0232BE5
:1013F00091F0FB01808190E091958195910921E028
:10140000892B09F020E0822F08950E943029F7CF20
:101410006115710561F721E0F6CF0E9422298F92B4
:101420009F92AF92BF92EF92FF920F931F93CF9331
:10143000DF93CDB7DEB7A1970FB6F894DEBF0FBE2E
:10144000CDBF7C01FA01CB0119A2223008F42AE0B9
:101450008E010F5D1F4F822E912CB12CA12CBF014C
:10146000A50194010E94E326F901CA016A3074F5CE
:10147000605DD8016E938D01232B242B252B79F7EA
:1014800090E080E0109789F0FD0101900020E9F7DD
:101490003197AF014A1B5B0BD701ED91FC910280A4
:1014A000F381E02DB801C7011995A1960FB6F89404
:1014B000DEBF0FBECDBFDF91CF911F910F91FF9087
:1014C000EF90BF90AF909F908F900895695CD1CFBF
:1014D0008F929F92AF92BF92CF92DF92EF92FF9244
:1014E0000F931F93CF93DF937C01EB016C0182E09C
:1014F000C80ED11C4701E5E08E0E911C10E000E003
:10150000F60141916F0150E070E060E02AE0CE0109
:101510000E940F0A5C01E881F9810190F081E02DC1
:101520006EE2CE0119958A0D9B1D080F191FC81474
:10153000D90431F7F701458150E070E060E02AE01E
:10154000CE010E940F0A800F911FDF91CF911F9152
:101550000F91FF90EF90DF90CF90BF90AF909F9052
:101560008F90089542E050E069E672E00C94030623
:10157000CF93DF930E948F07EC0180ED99E00E94EA
:10158000B20A8C0F9D1FDF91CF9108958091CC0EF0
:1015900081110BC08091CD0E811107C08CE292E0C9
:1015A0000E94B80A81E08093CC0E089510923A050B
:1015B00084E192E00C94B80A0F931F93CF93DF93CA
:1015C000EC01FB0144815581608171810E94030619
:1015D0008C01CE010E94B20A800F911FDF91CF9142
:1015E0001F910F910895CF93DF93EC0161E086E1A5
:1015F0000E94290461E070E080E090E00E94B20562
:10160000BE018FE39CE00E94DC0A8FE39CE00E9415
:10161000AA0761E070E080E090E0DF91CF910C9448
:10162000B205BC0181EA97E00E94DC0A81EA97E0FA
:101630000E94AA0761E070E080E090E00C94B2059F
:10164000CF93DF93DC0114962D913C911597232BBA
:1016500079F0FB01CD91DC9160817181CE010E9416
:101660004029009729F08C1B9D0BDF91CF910895A5
:101670008FEF9FEFFACF0F931F93CF93DF938C01E0
:10168000EB01FC01808191810097E1F06881798113
:1016900061157105A9F0428153812C813D8142176A
:1016A000530770F00E9439298C819D81F801958340
:1016B00084831D821C82DF91CF911F910F91089529
:1016C0000E94B82788819981F801918380838A815B
:1016D0009B81938382838C819D81958384831982EE
:1016E00018821B821A82E5CFCF93DF93EC018881A9
:1016F0009981009711F00E94B827198218821D82E3
:101700001C821B821A82DF91CF910895FC01808197
:101710009181009711F00C94B8270895CF93DF932F
:10172000EC0185E292E0998388838C899D890097FA
:1017300011F00E94B8278E899F89009711F00E94AE
:10174000B827888D998D009711F00E94B8278A8D4F
:101750009B8D009711F00E94B8278A819B8100978A
:1017600021F0DF91CF910C94EF07DF91CF91089595
:10177000CF93DF93EC010E948E0BCE01DF91CF91CE
:101780000C94B827CF93DF93EC0189E392E099831F
:1017900088838B899C89009711F00E94B8278A81E1
:1017A0009B81009721F0DF91CF910C94EF07DF919F
:1017B000CF910895CF93DF93EC010E94C20BCE012D
:1017C000DF91CF910C94B82721E432E0FC01318302
:1017D00020830C94C20BCF93DF93EC010E94E40BA7
:1017E000CE01DF91CF910C94B8270F931F93CF9325
:1017F000DF93EC0188819981009759F02A813B8120
:101800002617370730F081E0DF91CF911F910F91BC
:1018100008958B016F5F7F4F0E944128009759F018
:10182000998388831B830A832C813D81232B59F75D
:10183000FC011082E8CF80E0E7CFEF92FF920F9398
:101840001F93CF93DF93EC017B01198218821B82D7
:101850001A821D821C82FB0101900020E9F731975A
:101860008F01061B170BB8010E94F50B811109C0EF
:10187000CE01DF91CF911F910F91FF90EF900C94CB
:10188000740B1D830C83B70188819981DF91CF91FF
:101890001F910F91FF90EF900C943929EF92FF92D6
:1018A0000F931F93CF93DF938C017B01EB01099082
:1018B0000020E9F72197C61BD70BBE010E94F50B4C
:1018C000811109C0C801DF91CF911F910F91FF9045
:1018D000EF900C94740BF801D583C483B701808119
:1018E0009181DF91CF911F910F91FF90EF900C9418
:1018F0003929AF92BF92CF92DF92EF92FF920F936E
:101900001F93CF93DF936C015B017A018901241748
:10191000350720F48F2D7901042F182F6BE672E024
:10192000C6010E941D0CD5011496CD91DC91EC16D8
:10193000FD06E0F40C171D0708F4E801D501ED9150
:10194000FC911197EC0FFD1F108110826D917C911D
:101950006E0D7F1DC60161157105A1F00E944E0C30
:10196000F50180819181C80FD91F1883C601DF91CD
:10197000CF911F910F91FF90EF90DF90CF90BF908C
:10198000AF9008950E94740BEBCFEF92FF920F93EC
:101990001F93CF93DF936115710541F480E0DF91D0
:1019A000CF911F910F91FF90EF9008957B01EC0173
:1019B000CB010E9466260097A9F00C811D81080FBB
:1019C000191FB801CE010E94F50B882339F3288135
:1019D00039818C819D81B701820F931F0E945F2600
:1019E0001D830C8381E0DBCFEF92FF920F931F9357
:1019F000CF93DF936115710541F480E0DF91CF91C2
:101A00001F910F91FF90EF90089541155105B1F08E
:101A10007B01EC010C811D81040F151FB8010E9490
:101A2000F50B882351F3288139818C819D81B70181
:101A3000820F931F0E9439291D830C8381E0DECF22
:101A4000EF92FF920F931F93CF93DF9300D000D0BC
:101A50001F92CDB7DEB77C01CB014AE08E010F5F4C
:101A60001F4FB8010E948F26F80101900020E9F76E
:101A70003197AF01401B510BB801C7010E94F40C14
:101A800027960FB6F894DEBF0FBECDBFDF91CF9182
:101A90001F910F91FF90EF900895EF92FF920F9397
:101AA0001F93CF93DF9300D01F92CDB7DEB77C0199
:101AB000862F4AE08E010F5F1F4FB80190E00E9411
:101AC0006F26F80101900020E9F73197AF01401B24
:101AD000510BB801C7010E94F40C0F900F900F90AA
:101AE0000F90DF91CF911F910F91FF90EF9008958C
:101AF000CF93DF931F921F92CDB7DEB769831A820F
:101B000041E050E0BE016F5F7F4F0E94F40C0F90E8
:101B10000F90DF91CF910895FB0144815581608141
:101B200071810C94F40CEF92FF920F931F93CF935B
:101B3000DF93EC018B016115710551F0CB010E941F
:101B400066267C01BC01CE010E94F50B81110BC001
:101B5000CE010E94740BCE01DF91CF911F910F91A6
:101B6000FF90EF900895FD82EC82B8018881998101
:101B70000E945F26F0CFCF93DF93D82FC62F80919E
:101B8000CD0E811158C061E177E080EC9EE00E94AB
:101B9000930D66EE7EE080EC9EE00E948C0D6FE07F
:101BA00077E080EC9EE00E94C50C68E077E080EC76
:101BB0009EE00E94C50C6D2F80EC9EE00E944D0DB2
:101BC00066E077E080EC9EE00E94C50C6EEF76E068
:101BD00080EC9EE00E94C50C6C2F80EC9EE00E9481
:101BE0004D0D6CEF76E080EC9EE00E94C50C65EF39
:101BF00076E080EC9EE00E94C50C64E07FE080EC23
:101C00009EE00E948C0D63EF76E080EC9EE00E94E7
:101C1000C50C6BEE76E080EC9EE00E94C50C6EEF8A
:101C20007EE080EC9EE00E948C0D69EE76E080EC18
:101C30009EE00E94C50C8CE692E00E94C40962ED11
:101C400076E0811108C08EE792E00E94C4098823E3
:101C500031F069EB76E086EC9EE00E94930D6CEE2D
:101C60007EE086EC9EE00E948C0D64EB76E086ECD4
:101C70009EE00E94C50C6091C40E7091C50E86EC6A
:101C80009EE0DF91CF910C94200D0F931F93CF9383
:101C9000DF93E7ECF1E140E090E080E021E030E02C
:101CA0005181511120E0082E01C0220F0A94EAF759
:101CB000422B019637968830910581F74093830532
:101CC000E7EBF1E140E030E020E08181022E01C04D
:101CD000880F0A94EAF7482B2F5F3F4F329628303F
:101CE000310599F74093820562EB76E084E09FE04E
:101CF0000E94930D0FE01FE0D0E0C0E0F80166A95C
:101D000077A984E09FE00E94200DCB30D10531F00F
:101D100060EB76E084E09FE00E94C50C2196085CB1
:101D20001F4FCC30D10551F76EEA76E084E09FE09A
:101D30000E94C50C6CEA76E08EEF9EE00E94930D47
:101D40000FEA11E1D0E0C0E0F80161818EEF9EE082
:101D50000E944D0DC330D10531F06AEA76E08EEF76
:101D60009EE00E94C50C21960E5F1F4FC430D10526
:101D700059F768EA76E08EEF9EE0DF91CF911F91F0
:101D80000F910C94C50C0E94450E609182058091C4
:101D900083050C94BB0DFC01118210821382128208
:101DA000158214820C94930DBF92CF92DF92EF9222
:101DB000FF920F931F93CF93DF93CDB7DEB7ED84E0
:101DC000FE84CF84D888B9880B891C89D7011496E2
:101DD0008D919C91892B59F0AE01475E5F4F6F89C1
:101DE000788D80914212909143120E945A298D89D8
:101DF0009E89892B31F0C7010E940D08C7010E94FE
:101E0000FA07F6018281938180589F4F93838283E2
:101E1000D7015896ED91FC910484F585E02DB80129
:101E2000C6011995F801E80FF91FB0820196DF91FC
:101E3000CF911F910F91FF90EF90DF90CF90BF90C7
:101E400008952F923F924F925F926F927F928F925E
:101E50009F92AF92BF92CF92DF92EF92FF920F9339
:101E60001F93CF93DF93CDB7DEB7C851D2400FB6E3
:101E7000F894DEBF0FBECDBFFC01A281B3811097E5
:101E800049F486E190E090933D1280933C1290E0FB
:101E900080E05BC45C017E01FBEFEF1AFEEFFF0AFE
:101EA0005896ED91FC9159970488F589E02DB7017A
:101EB000CD0119951816190654F7D50112966D9093
:101EC0007C90C55FDD4F99838883CB50D24086E1FB
:101ED00090E06114710409F432C4D3015896ED9175
:101EE000FC91C280D380A4E0B1E0AC0FBD1FAC0D6B
:101EF000BD1D8C91282F30E0CD5EDD4F39832883C6
:101F0000C351D240A7014C0D5D1DC15FDD4F598308
:101F10004883CF50D240DA019C90092D10E0A6E012
:101F2000B1E0AC0FBD1FAC0DBD1D4C90512C542C1D
:101F30004424A7E0B1E0AC0FBD1FAC0DBD1D8C91DA
:101F4000480E511C1E01BBEF2B1ABDEF3B0AD101FD
:101F500011963C932E9313961C930E93129706841E
:101F6000F785E02DBE01655F7D4FC7011995F10131
:101F700095838483EFEFE90DE73108F0B5C5F0E014
:101F80008827EA53F04F8F4F0C941427DD0FDD0F95
:101F90000C110C119D11F5119D1374157415741508
:101FA00074157415741574152A12EE126C137415C9
:101FB000741574157415BF130B140230110509F054
:101FC0004CC0D5011A964D915C911B9718962D9196
:101FD0003C9119975696AD90BC908FE892E0E8E05E
:101FE000F1E0EC0FFD1FEC0DFD1DE080F12CFE2C4F
:101FF000EE24E9E0F1E0EC0FFD1FEC0DFD1D60812A
:10200000E60EF11CB70161507109603D774078F12F
:1020100027E02F9320ED2F939F938F93FF92EF92C2
:1020200083EC92E09F938F931F9281E08F9321E046
:1020300030E02C0F3D1F3F932F931F9283E08F932F
:102040003F922F927F926F920E94D40E8C010FB616
:10205000F894DEBF0FBECDBF67C0F5014681578142
:1020600024813581A488B58885E892E0B8CF6201E3
:10207000C41AD50AD7FC08C047018C0C9D1C281532
:102080003905ACF44E0C5F1C9F938F935F924F9277
:102090008BEE92E09F938F931F921F9261E070E00E
:1020A0006C0F7D1F7F936F931F9282E00FC2D3014D
:1020B0005896ED91FC910484F585E02DBE016F5F8B
:1020C0007F4FC10119958C010F5F1F4FE1E0F0E0D8
:1020D000EC0FFD1F8E0F9F1F21E0A70147705527B2
:1020E000452B09F420E0F3E0F594E794FA95E1F745
:1020F000E20EDC01EC92F501EC0DFD1D30E020E07C
:1021000090E080E0AF014A195B09481559050CF4CD
:102110006AC0892B49F0E1E0F0E0EC0FFD1FE00F11
:10212000F11F20830F5F1F4FCD5EDD4F2881398166
:10213000C351D240232B09F406C3D3015896ED9125
:10214000FC910088F189E02DB801CE010196199526
:102150007C01D3015896ED91FC910288F389E02D22
:10216000A701BE016F5F7F4FC30119958B016F3FC0
:102170007F4F39F5F301868181FF23C0C0903C1267
:10218000D0903D12F2EFCF16FDE2DF0609F0BCC49D
:10219000D3015896ED91FC91068CF78DE02DC3018B
:1021A0001995C3010E940D08D3015896ED91FC9139
:1021B000048CF58DE02DC3011995D0923D12C0928B
:1021C0003C12F301868181FF03C00F3F100709F223
:1021D000101611060CF0B7C2E016F10609F4B3C2EE
:1021E0008FEE9BE2ACC2419150E0082E02C0440F3A
:1021F000551F0A94E2F7242B352B8730910551F4B3
:10220000A1E0B0E0AC0FBD1FA00FB11F2C930F5F7A
:102210001F4F74CF019676CF04301105B1F5F5014B
:102220004685578524853585808C918C8FE992E091
:10223000E8E0F1E0EC0FFD1FEC0DFD1D008110E06A
:10224000102F0027E9E0F1E0EC0FFD1FEC0DFD1D64
:102250006081060F111DB80161507109FE013196B0
:102260006F016D37710500F11F922DE72F939F933A
:102270008F931F930F9383EC92E09F938F931F9202
:1022800081E08F93FF93EF93D8CED50152964D9175
:102290005C91539750962D913C9151975A968D9001
:1022A0009C9084EB92E0C4CF7201E41AF50A5701C6
:1022B000F7FC07C0E00EF11E2E153F057CF4400E22
:1022C000511E9F938F935F924F928BEE92E09F935C
:1022D0008F931F921F92DF92CF92E6CED301589632
:1022E000ED91FC910484F585E02DB601C1011995AD
:1022F000F601E80FF91F000F00839501220F331F2D
:10230000820E931E0196F601E80FF91F8F010C193A
:102310001D09AE14BF040CF007CFD40111968C91A7
:10232000B2E08B0E911C8083D40112978C91818333
:102330002FEFA21AB20A3296E9CFD50116968D91E7
:102340009C911797A201481B590BCE01019657FD8E
:1023500006C014962D913C91421753074CF05F92A2
:102360004F922DE033E03F932F931F921F92B1C104
:10237000E8E0F1E0EC0FFD1FEC0DFD1D208130E0E9
:10238000322F2227E9E0F1E0EC0FFD1FEC0DFD1DDF
:102390006081260F311D2115FFEF3F0719F0211530
:1023A0003105B1F4D5015496ED91FC91E40FF51F80
:1023B00041E0232B09F440E04083C55FDD4F0881F5
:1023C0001981CB50D240A801B7010E942729ACCE79
:1023D0005F924F923F932F9326E333E03F932F93E7
:1023E0001F921F929F938F936FC0D50152968D912C
:1023F0009C9153979201281B390BCE01019637FD12
:1024000007C050964D915C915197241735072CF0D9
:102410005F924F9224E733E0A6CF220F331F5A96E4
:10242000ED91FC91E20FF31FA8E0B1E0AC0FBD1FEE
:10243000AC0DBD1D2C9130E0322F2227A9E0B1E078
:10244000AC0FBD1FAC0DBD1D4C91240F311D318350
:102450002083B3CFE8E0F1E0EC0FFD1FEC0DFD1D94
:10246000808190E0982F8827E9E0F1E0EC0FFD1FD4
:10247000EC0DFD1D2081820F911D9C012150310921
:10248000203B374070F4EAE0F1E0EC0FFD1FEC0D6B
:10249000FD1D2081E8E02E9F9001112428173907A7
:1024A000ECF427E02F9320EB2F939F938F9382EAF6
:1024B00093E09F938F931F9281E08F9321E030E010
:1024C0002C0F3D1F3F932F931F9283E08F933F92DA
:1024D0002F927F926F920E94D40EB8CDD50116969E
:1024E0002D913C911797F201E21BF30B9F01F7FD31
:1024F0000CC0BC016E0F7F1F14964D915C91159717
:1025000046175707D4F4480E591E5F924F9286ED36
:1025100093E09F938F931F921F9221E030E02C0F46
:102520003D1F3F932F931F9282E08F933F922F92F4
:102530007F926F920E94D40E89CD56E0C50ED11CB9
:1025400054960D911C91200F311FF90150E040E08D
:1025500081E090E08C0F9D1FC80ED91ECF01801B1B
:10256000910B86179707F0F0D3015896ED91FC91E7
:102570000484F585E02DBE016F5F7F4FC101199581
:10258000A1E0B0E0AC0FBD1FA80FB91FF701E80F25
:10259000F91F24E001900D922A95E1F78C010C5F60
:1025A0001F4FC2CDCF01821B930BA3E09695879559
:1025B000AA95E1F78C0D9D1D8C5F9E4FDC018C91DF
:1025C00090E0042E02C0959587950A94E2F78170F9
:1025D00081934F5F5F4F47705527C0CFE8E0F1E030
:1025E000EC0FFD1FEC0DFD1D208130E0322F222766
:1025F000E9E0F1E0EC0FFD1FEC0DFD1D8081280FDF
:10260000311DC90101978B37910570F4EAE0F1E0C3
:10261000EC0FFD1FEC0DFD1D8081B8E08B9FC0010C
:102620001124821793077CF41F928BE78F933F93BB
:102630002F9380E094E09F938F931F9281E08F937C
:10264000CE010196CFCED50152968D919C91539794
:10265000F201E81BF90BCF01F7FD31C0A9014E0FC4
:102660005F1F50966D917C916417750734F1C15FBF
:10267000DD4FE881F981CF50D2409C01220F331FFA
:102680002E193F092C193D09841795070CF06CCFC2
:10269000D5015A966D917C91DB01A20FB31FAE0F4D
:1026A000BF1F668170E0762F66271781610F711D4D
:1026B0006D937C9301963296E7CF420E531E5F9244
:1026C0004F9289E394E09F938F931F921F92CE01C4
:1026D00001969F938F9327CFD3015896ED91FC914C
:1026E0000484F585E02DBE016F5F7F4FC101199510
:1026F000FE01E80FF91F24EB2283FE01E80FF91F0A
:102700002FEF2383DC011396E1E0F0E0EC0FFD1FD7
:10271000AE0FBF1F28E0E8E6F4E001900D922A9585
:10272000E1F78C01055F1F4FE1E0F0E0EC0FFD1FCA
:10273000E80FF91F8AE08083F7CC8DE690E0909354
:102740003D1280933C1281E090E0C85EDD4F0FB6F1
:10275000F894DEBF0FBECDBFDF91CF911F910F91D7
:10276000FF90EF90DF90CF90BF90AF909F908F90B1
:102770007F906F905F904F903F902F900895D5017C
:1027800052968D919C915397F201E81BF90BCE0163
:102790000196F7FD3DCE50962D913C915197E21751
:1027A000F3070CF035CEEE0FFF1F5A962D913C919A
:1027B000E20FF31FAAE0B1E0AC0FBD1FAC0DBD1DD1
:1027C0002C9130E0322F2227ABE0B1E0AC0FBD1FDF
:1027D000AC0DBD1D4C91240F311DA8E0B1E0AC0F34
:1027E000BD1FAC0DBD1D4C91642F70E0762F662788
:1027F000A9E0B1E0AC0FBD1FAC0DBD1D4C91460F63
:10280000572F511D608171816227732746235723FB
:10281000242735271CCEE8E0F1E0EC0FFD1FEC0D7E
:10282000FD1D808190E0982F8827E9E0F1E0EC0F12
:10283000FD1FEC0DFD1D2081FC01E20FF11DC35FAA
:10284000DD4FF983E883CD50D240ECE0F1E0EC0FAE
:10285000FD1FEC0DFD1D808190E0982F8827EDE095
:10286000F1E0EC0FFD1FEC0DFD1D2081820F911D8D
:102870009C0121503109DE01119629373105C0F440
:10288000C35FDD4F28813981CD50D24021503109BD
:102890002D37310568F4EEE0F1E0EC0FFD1FEC0D93
:1028A000FD1D40819C01220F331F4217130639F191
:1028B0001F922DE72F931F9229E72F93C25FDD4FC1
:1028C000F881CE50D240FF93C35FDD4F2881CD50B9
:1028D000D2402F939F938F9381E794E09F938F93A0
:1028E0001F9281E08F93BF93AF931F9283E08F93EA
:1028F0003F922F927F926F920E94D40EA7CBEAE074
:10290000F1E0EC0FFD1FEC0DFD1D208130E0322FBA
:102910002227EBE0F1E0EC0FFD1FEC0DFD1D4081E7
:10292000240F311DF501428953898201041B150BC7
:10293000CF5EDD4F19830883C151D240B901641BBA
:10294000750BAB014B0117FDE6C0C35FDD4FE8819E
:10295000F981CD50D240E00FF11FCB5EDD4FF983FE
:10296000E883C551D240F50160897189CB5EDD4FA6
:10297000E881F981C551D2406E177F07FCF057FD01
:102980001FC0AC01480D591DC95EDD4F59834883F6
:10299000C751D24064177507E4F4280F391F17FF99
:1029A0000FC03F932F935F924F928DEB94E09F93D4
:1029B0008F931F921F92BF93AF9376CB57FFEDCFAC
:1029C000C35FDD4F68817981CD50D240460E571EDE
:1029D000E8CFF301808D918DFC01248535857D0143
:1029E000BD01CE018B5F9D4FF9011995F701E80FED
:1029F000F91FC35FDD4F2881CD50D240220F2083C5
:102A0000C15FDD4FE881F981CF50D240AE014B5F0D
:102A10005E4F9401220F331F241B350B2C193D09E7
:102A2000C95EDD4F48815981C751D2408416950651
:102A30000CF443C0F701E80FF91F9801220F331F70
:102A40002E193F09B901681B790BCB0141E050E019
:102A50004E195F098A010E0F1F1FCB5EDD4F688183
:102A60007981C551D240CF5EDD4FA881B981C15176
:102A7000D240A617B7070CF057CBBC016E0F7F1FD3
:102A8000D5015A962D913C91DB01A20FB31F1196EF
:102A90002C91119721832C912283CF5EDD4F2881C9
:102AA0003981C151D2402F5F3F4FCF5EDD4F398317
:102AB0002883C151D2403296CDCFD5015A964D913F
:102AC0005C91DA01A20FB31FAE0FBF1F428550E029
:102AD000542F44276385460F511D4D935C93BFEFE0
:102AE0008B1A9B0A32969CCF1F929F928EE095E0A4
:102AF0009F938F931F9281E08F939E012F5F3F4F93
:102B00003F932F931F9211CDC3010E940D08C30163
:102B10000E94FA0752CB77FF40CF43CF1F920F920C
:102B20000FB60F9211242F933F938F939F93AF93E0
:102B3000BF9380917A0590917B05A0917C05B0911F
:102B40007D053091790523E0230F2D3758F5019647
:102B5000A11DB11D2093790580937A0590937B0583
:102B6000A0937C05B0937D0580917E0590917F05B3
:102B7000A0918005B09181050196A11DB11D8093A2
:102B80007E0590937F05A0938005B0938105BF914A
:102B9000AF919F918F913F912F910F900FBE0F900A
:102BA0001F90189526E8230F0296A11DB11DD2CFC4
:102BB0001F920F920FB60F9211240BB60F922F9304
:102BC0003F934F935F936F937F938F939F93AF93B5
:102BD000BF93EF93FF938FE39CE00E942C07FF913C
:102BE000EF91BF91AF919F918F917F916F915F9185
:102BF0004F913F912F910F900BBE0F900FBE0F90F2
:102C00001F9018951F920F920FB60F9211240BB6BA
:102C10000F922F933F934F935F936F937F938F9375
:102C20009F93AF93BF93EF93FF938FE39CE00E943A
:102C30003006FF91EF91BF91AF919F918F917F915E
:102C40006F915F914F913F912F910F900BBE0F901D
:102C50000FBE0F901F9018951F920F920FB60F92F4
:102C600011240BB60F922F933F934F935F936F9363
:102C70007F938F939F93AF93BF93EF93FF9384E8DA
:102C800095E00E942C07FF91EF91BF91AF919F912A
:102C90008F917F916F915F914F913F912F910F9005
:102CA0000BBE0F900FBE0F901F9018951F920F92A2
:102CB0000FB60F9211240BB60F922F933F934F93A1
:102CC0005F936F937F938F939F93AF93BF93EF9394
:102CD000FF9384E895E00E943006FF91EF91BF9149
:102CE000AF919F918F917F916F915F914F913F91A4
:102CF0002F910F900BBE0F900FBE0F901F90189545
:102D00001F920F920FB60F9211240BB60F922F93B2
:102D10003F934F935F936F937F938F939F93AF9363
:102D2000BF93EF93FF9381EA97E00E942C07FF91F6
:102D3000EF91BF91AF919F918F917F916F915F9133
:102D40004F913F912F910F900BBE0F900FBE0F90A0
:102D50001F9018951F920F920FB60F9211240BB669
:102D60000F922F933F934F935F936F937F938F9324
:102D70009F93AF93BF93EF93FF9381EA97E00E94F5
:102D80003006FF91EF91BF91AF919F918F917F910D
:102D90006F915F914F913F912F910F900BBE0F90CC
:102DA0000FBE0F901F9018951F920F920FB60F92A3
:102DB00011240BB60F922F933F934F935F936F9312
:102DC0007F938F939F93AF93BF93EF93FF9380ED88
:102DD00099E00E942C07FF91EF91BF91AF919F91D5
:102DE0008F917F916F915F914F913F912F910F90B4
:102DF0000BBE0F900FBE0F901F9018951F920F9251
:102E00000FB60F9211240BB60F922F933F934F934F
:102E10005F936F937F938F939F93AF93BF93EF9342
:102E2000FF9380ED99E00E943006FF91EF91BF91F2
:102E3000AF919F918F917F916F915F914F913F9152
:102E40002F910F900BBE0F900FBE0F901F901895F3
:102E500080E29CE00E94E40B81E89EE00E94860BE9
:102E600087E89EE00E94860B8DE89EE00E94860B1C
:102E70008AEB9EE00E94860B80EC9EE00E94860B0F
:102E800086EC9EE00E94860B8EEC9EE00E94860BF4
:102E900084ED9EE00E94860B8AED9EE00E94860BE8
:102EA00080EE9EE00E94860B86EE9EE00E94860BDE
:102EB0008CEE9EE00E94860B82EF9EE00E94860BC5
:102EC00088EF9EE00E94860B8EEF9EE00E94860BAC
:102ED00084E09FE00E94860B8FEF91E10E94E40B5B
:102EE0008EE192E10C948E0B2F923F924F925F9263
:102EF0006F927F928F929F92AF92BF92CF92DF920A
:102F0000EF92FF920F931F93CF93DF93CFE3DCE019
:102F10001B821A8288EE882E83E0982EA12CB12C79
:102F20008C829D82AE82BF8283E192E09983888306
:102F300025E331E03D872C8724E331E03F872E876E
:102F400020E331E0398B288B21E331E03B8B2A8B66
:102F500022E331E03D8B2C8B26E331E03F8B2E8B3F
:102F6000198E1A8E1B8E1C8EE4E8F5E013821282F5
:102F700084829582A682B7829183808325ED30E09A
:102F80003587248724ED30E03787268720ED30E031
:102F9000318B208B21ED30E0338B228B22ED30E022
:102FA000358B248B26ED30E0378B268B118E128EDD
:102FB000138E148EE1EAF7E01382128284829582E6
:102FC000A682B782918380832DEC30E035872487F9
:102FD0002CEC30E03787268728EC30E0318B208BD3
:102FE00029EC30E0338B228B2AEC30E0358B248BBC
:102FF0002EEC30E0378B268B118E128E138E148EB2
:10300000E0EDF9E01382128284829582A682B78273
:103010009183808385EC90E09587848784EC90E0B1
:103020009787868780EC90E0918B808B81EC90E095
:10303000938B828B82EC90E0958B848B86EC90E076
:10304000978B868B118E128E138E148EAEEBB9E099
:1030500099E4C92E92E0D92E1196DC92CE92129666
:103060001C92129713961C92139714961C92149705
:1030700015961C92A4ECB9E01196DC92CE921296B1
:103080001C92129713961C92139714961C921497E5
:1030900015961C92AAECB9E01196DC92CE9212968B
:1030A0001C92129713961C92139714961C921497C5
:1030B00015961C928EE192E1DC0113961C921E92F1
:1030C000129742E252E128E1DA011D922A95E9F7CE
:1030D0002FE232E0DC0111963C932E934DEE5BE043
:1030E0005D965C934E935C978FEF91E1DC011396B4
:1030F0001C921E92129714968D929D92AD92BC9244
:10310000179719961C921E9218971A961C921A9746
:1031100054961C921E92539756961C921E92559747
:1031200058961C921E9257975A961C921E92599727
:103130005C961C921E925B9721E432E011963C93C0
:103140002E935E965C934E935D97DA0113961C92D4
:103150001E92129714968D929D92AD92BC921797E3
:103160002FE4222E22E0322E11963C922E921D96B2
:10317000FC93EE931C9781E090E01F969C938E93B6
:103180001E9782E090E051969C938E9350978FEF1C
:103190009FEF53969C938E93529755961C921E9236
:1031A000549757961C921E92569758961C9260E21E
:1031B00087EC91E10E94BC0961E28EEC91E10E94F2
:1031C000BC0962E285ED91E10E94BC0963E28CEDED
:1031D00091E10E94BC0964E283EE91E10E94BC0986
:1031E00065E28AEE91E10E94BC0966E281EF91E11D
:1031F0000E94BC0967E288EF91E10E94BC0968E285
:1032000087EB91E10E94AE0969E289EB91E10E94AE
:10321000AE096AE28BEB91E10E94AE096BE28DEBA5
:1032200091E10E94AE096CE28FEB91E10E94AE0940
:103230006DE281EC91E10E94AE096EE283EC91E1D6
:103240000E94AE096FE285EC91E10E94AE090FEA9F
:1032500011E184E0F801808361E00E94570485E079
:10326000D80112968C9361E00E94570486E0F80121
:10327000848361E00E94570487E0D80116968C93FE
:1032800061E00E9457043FE0E32E3FE0F32E86E327
:10329000F701808377247394718260E00E94570461
:1032A00087E3D701D8968C93D897D9967C9260E023
:1032B0000E94570488E380937F0F7092800F60E034
:1032C0000E94570489E38093B70F7092B80F60E0B3
:1032D0000E9457048AE38093EF0F7092F00F60E032
:1032E0000E9457048BE3809327107092281060E0AF
:1032F0000E9457048CE380935F107092601060E02E
:103300000E9457048DE3809397107092981060E0AC
:103310000E9457048EE38093CF107092D01060E02B
:103320000E9457048FE3809307117092081160E0A8
:103330000E94570480E480933F117092401160E036
:103340000E94570481E4809377117092781160E0B5
:103350000E9457044AE0E42E4FE0F42E8BE1F7017F
:10336000808362E00E9457048CE1D70111968C9310
:1033700062E00E9457048DE1F701828362E00E94BF
:1033800057048EE1D70113968C9362E00E94570494
:103390008FE1F701848362E00E9457046BE672E0DC
:1033A00084E09FE00E941D0C6BE672E08EEF9EE0D1
:1033B0000E941D0C6BE672E088EF9EE00E941D0CDF
:1033C0006BE672E082EF9EE00E941D0C6BE672E0FD
:1033D0008CEE9EE00E941D0C6BE672E086EE9EE095
:1033E0000E941D0C6BE672E080EE9EE00E941D0CB8
:1033F0006BE672E08AED9EE00E941D0C6BE672E0C7
:1034000084ED9EE00E941D0C6BE672E08EEC9EE067
:103410000E941D0C1092CD0E1092CC0E6BE672E045
:1034200086EC9EE00E941D0C6BE672E080EC9EE054
:103430000E941D0C6BE672E08AEB9EE00E941D0C60
:103440001092B90EE0EBFEE058EB452E5BE0552EF6
:10345000612C712C408251826282738214821582A7
:10346000168217821086E7EAFEE04082518262826D
:10347000738214821582168217821086EEE9FEE0AE
:103480004082518262827382148215821682178270
:103490001086E3E9FEE014821582168217821086F8
:1034A00088EC9FEAA0E0B0E080839183A283B3839D
:1034B000128611866BE672E08DE89EE00E941D0C7C
:1034C0006BE672E087E89EE00E941D0C6BE672E0FE
:1034D00081E89EE00E941D0CEBE7FEE0D182C082F5
:1034E0001282138214821582ACE5BEE013961C9200
:1034F0001E92129714968D929D92AD92BC92179740
:1035000011963C922E921D96DC93CE931C971F969B
:103510001C921E921E9751961C921E92509786E105
:1035200090E053969C938E93529755961C921E92C0
:10353000549757961C921E92569758961C925897DD
:10354000E0E2FCE01382128284829582A682B78236
:10355000118610861286148A138A168A158A108E8E
:10356000178A128E118E148E138E21E432E031836D
:103570002083B68FA58FE7E1FCE040825182628212
:103580007382148215821682178210861092160C8E
:103590001092150C8FEFD80113968C9313976FEF41
:1035A00070E012968C910E949304ECE0FCE080E0C5
:1035B0009CE5A6E2B5E080839183A283B383148265
:1035C0001582168217821086DF91CF911F910F917D
:1035D000FF90EF90DF90CF90BF90AF909F908F9033
:1035E0007F906F905F904F903F902F900895CF9372
:1035F000DF93CDB7DEB768970FB6F894DEBF0FBE86
:10360000CDBF789484B5826084BD84B5816084BD6B
:1036100085B5826085BD85B5816085BD80916E0070
:10362000816080936E0010928100809181008260A1
:1036300080938100809181008160809381008091DE
:1036400080008160809380008091B10084608093CD
:10365000B1008091B00081608093B00080919100B2
:1036600082608093910080919100816080939100AD
:10367000809190008160809390008091A100826091
:103680008093A1008091A10081608093A10080912E
:10369000A00081608093A0008091210182608093CE
:1036A000210180912101816080932101809120017D
:1036B00081608093200180917A00846080937A00F9
:1036C00080917A00826080937A0080917A00816094
:1036D00080937A0080917A00806880937A001092BB
:1036E000C10026E040E855E260E070E080ED99E03E
:1036F0000E94CA061092000268E070E086EE9EE02A
:103700000E94F50B68E070E080EE9EE00E94F50BF1
:1037100068E070E08AED9EE00E94F50B68E070E0E2
:103720008AEB9EE00E94F50B60E170E082EF9EE084
:103730000E94F50B60E170E08CEE9EE00E94F50BBC
:1037400060E270E08EEF9EE00E94F50B60E270E0B8
:1037500081E89EE00E94F50B60E470E084ED9EE05D
:103760000E94F50B60E470E08EEC9EE00E94F50B89
:1037700060E470E086EC9EE00E94F50B60E470E08F
:1037800084E09FE00E94F50B60E870E08DE89EE029
:103790000E94F50B60E870E080EC9EE00E94F50B63
:1037A00060E071E088EF9EE00E94F50B882309F449
:1037B0005FC081E592E00E94B80A61E088E10E9462
:1037C000570461E088E10E94290410923A0581E0E3
:1037D00080939B0E86ED9AE090939D0E80939C0EB5
:1037E00026E040E855E260E070E084E895E00E9461
:1037F000CA063FE0C32E3FE0D32EF6011182F8E364
:10380000CF0ED11C2FEAC21621E1D206B1F761E03A
:1038100086E10E9457040E941C0926E040E052EC19
:1038200061E070E08FE39CE00E94CA0688E199E2C3
:103830000FB6F894A895809360000FBE9093600037
:1038400080ED99E00E947906181619060CF048C020
:1038500080ED99E00E9458068D3011F40C94DF251C
:103860008A3071F3682F81E89EE00E94780DE8CFDE
:103870008BE392E0A0CF10923A0560E672E081E817
:103880009EE00E94930DDCCF6EE872E0CE010196BF
:103890000E94CB0EBE016F5F7F4F81E89EE00E94C9
:1038A000DD09182FCE0101960E94860B112399F095
:1038B00082E892E00E94B80A61E672E0CE010196C9
:1038C0000E94CB0ECE0101960E94110BCE010196F3
:1038D0000E94860BD2CF81E89EE00E94110BCDCFD3
:1038E00027ECA22E21E1B22E750199249394F701C1
:1038F000208130E0F901EE59F94F8491F901E45E3D
:10390000F94F0491F901EA52FA4F1491112379F019
:1039100081110E94C203E12FF0E0EE0FFF1FE0567D
:10392000FD4FA591B491EC910E2311E009F410E044
:10393000F7018181181709F424C10E94E505F701F8
:1039400042805380648075806419750986099709DF
:10395000633371058105910510F096821183F7E0BC
:10396000EF0EF11C2FEFE21621E1F20609F0BFCFB6
:103970000FE01FE0F801818170E4872E912C412C2B
:10398000512C3201813009F004C1812C9924939487
:10399000412C512C3201F80180810E946A05092EC8
:1039A000000CAA0BBB0B480E591E6A1E7B1EF1E0D1
:1039B0008F1A910881F7B4E07694679457944794EE
:1039C000BA95D1F7F80153824282349681E090E0B3
:1039D0002281338121933193019688319105C1F77A
:1039E000F80153AA42AA60E070E0CB0150E040E049
:1039F000FA01EE0FFF1FE00FF11F24813581620FE6
:103A0000731F811D911D4F5F5F4F4831510581F735
:103A100028E130E040E050E00E94E326F80135ABB9
:103A200024ABF80154A945A98181813009F0CCC0AB
:103A3000252F342F203CFEE33F0710F02FEB3EE311
:103A4000AFEFBFE00E9405272FEB3EE340E050E0E0
:103A50000E94B926F80137AB26AB085C1F4FC01691
:103A6000D10609F087CF0E94450E609182058091B2
:103A700083050E94BB0D8091BE0E9091BF0E892BD5
:103A800009F465C070E060E08AEB9EE00E94F105F9
:103A9000882E61E070E08AEB9EE00E94F105182F0D
:103AA00063E070E08AEB9EE00E94F105082F64E07D
:103AB00070E08AEB9EE00E94F105982EF4E48F12EC
:103AC000B7C01A3309F0A1C0802F0E942609182F11
:103AD000892D0E94260940E1149F90011124182F7E
:103AE000122B85EC91E110FD7BC00E948F0983ECC5
:103AF00091E111FD78C00E948F0981EC91E112FDE6
:103B000075C00E948F098FEB91E113FD72C00E9476
:103B10008F098DEB91E114FD6FC00E948F098BEB33
:103B200091E115FD6CC00E948F0989EB91E116FDB2
:103B300069C00E948F0987EB91E117FD76C00E9452
:103B40008F096FE972E08AEB9EE00E94930D0E945C
:103B50001C098FE39CE00E9479068C01892B09F4F3
:103B600089C08FE39CE00E9458068D3011F40C94BC
:103B70000E268A3071F3682F8DE89EE00E94780D42
:103B8000E8CF0E94E505F701628373838483958300
:103B9000E6CEF80180810E946A05092E000CAA0B6E
:103BA000BB0B480E591E6A1E7B1EF1E08F1A91084E
:103BB00081F766E076946794579447946A95D1F7B5
:103BC000F80155AA44AA2DCF852F942F8115F4E032
:103BD0009F0710F08FEF93E0F80197AB86AB3DCFD6
:103BE0000E949E0984CF0E949E0987CF0E949E0951
:103BF0008ACF0E949E098DCF0E949E0990CF0E947D
:103C00009E0993CF0E949E0996CF8FEC810F88303A
:103C100008F097CFE12FE153FF0BCF01880F991FD9
:103C200089549E4E003309F48ACF0E949E0989CFA1
:103C3000F1E48F1286CF8FEC810F853008F081CFB1
:103C4000802F0E942609082F892D0E94260920E135
:103C5000029FB0011124682B412F4153550BFA01EB
:103C6000EE0FFF1FE155FE4E618370E080810E94E0
:103C7000930467CF2091450F3091460F211554E0F2
:103C8000350710F02FEF33E0A4EFB1E00E940527D5
:103C90002FEF33E040E050E00E94B9263093160C3D
:103CA0002093150C3093AE112093AD1180E0F501F7
:103CB00096801682992019F00E94C30E892DF7E094
:103CC000AF0EB11CEA14FB0491F7882321F00E9487
:103CD000C30E0E94C60A0E94C30E48E853E160E08A
:103CE00070E087E19CE00E944609882331F080EC77
:103CF0009EE00E94F30A0E941C090E94E5054B0108
:103D00005C018091750590917605A0917705B09141
:103D10007805A5019401281B390B4A0B5B0BDA01CE
:103D2000C901813D9740A105B10508F49FC080916C
:103D3000E60E9091E70EE12C009719F00E943826CC
:103D4000E62E62ED72E0CE0101960E94CB0EBE011E
:103D50006F5F7F4F82EF9EE00E94DD09F12C8111A1
:103D60000AC08EE792E00E94C409FF24F3948111F7
:103D700002C032E0F32ECE0101960E94860B8BE545
:103D800080933D0580913A0590913905890F909176
:103D90003705890F80933E05E0923F05F09240057C
:103DA000809183058093410580918205809342052F
:103DB000EDE3F5E085E595E0AFE0BFE0D6962C9128
:103DC000D697D7963C91D79736832783D896329645
:103DD0008E179F0799F710925B058091B011809321
:103DE0005C0510925D058091B21180935E05109282
:103DF0005F058091B41180936005109261058091F8
:103E0000B6118093620523E6E22E25E0F22EB8017A
:103E10008CEE9EE00E94F105F70181937F010F5F18
:103E20001F4F0031110599F7EEE3F5E096E380E0CE
:103E3000915019F02191820FFBCF809373058DE58E
:103E40008093740548E350E06DE375E084E895E005
:103E50000E94030684E895E00E94AA0780927505F7
:103E600090927605A0927705B092780580919B0E8E
:103E7000882331F10E94E5050091970E1091980E6C
:103E80002091990E30919A0E601B710B820B930B4F
:103E90000091930E1091940E2091950E3091960EF4
:103EA000061717072807390758F4E0919C0EF09180
:103EB0009D0E309701F1199587E99EE00E943A091D
:103EC00081EA97E00E94790618161906FCF481EA47
:103ED00097E00E945806182F682F80ED99E00E9405
:103EE0004B071D3099F01A3059F3612F88EF9EE08F
:103EF0000E94780DE5CF88E198E00FB6F894A89578
:103F0000809360000FBE90936000FFCF6AE975E078
:103F1000CE0101960E94CB0EBE016F5F7F4F88EFEE
:103F20009EE00E94200B8C0190933C0580933B0502
:103F3000CE0101960E94860B17FD5EC08EE792E0CF
:103F40000E94C4098823B9F09801295E3F4FA80157
:103F5000485F5F4F68EF7EE0CE0101960E94790CCA
:103F6000BE016F5F7F4F8CEE9EE00E943B0BCE0147
:103F700001960E94860B8CE692E00E94C409882379
:103F8000B9F098012A5E3F4FA801495F5F4F68EF83
:103F90007EE0CE0101960E94790CBE016F5F7F4FDB
:103FA0008CEE9EE00E943B0BCE0101960E94860B98
:103FB00068E875E084ED9EE00E94930D6CEE7EE073
:103FC00084ED9EE00E948C0D67E775E084ED9EE035
:103FD0000E94C50C64E675E08EEC9EE00E94930D95
:103FE0006CEE7EE08EEC9EE00E948C0D6DE575E03F
:103FF0008EEC9EE00E94C50C66E575E0CE01019650
:104000000E94CB0EBE016F5F7F4F88EF9EE00E9443
:10401000200B8C0190933C0580933B05CE010196CB
:104020000E94860B17FD40C09801285F3F4FA801F2
:104030004A5F5F4F68EF7EE0CE0101960E94790CE7
:10404000BE016F5F7F4F86EE9EE00E943B0BCE016C
:1040500001960E94860B8091EA0E9091EB0E0297DA
:1040600018F1E091E60EF091E70E309709F0D5C413
:1040700010923805E8E3F5E080818C32A9F421E064
:1040800030E050E040E066EE7EE0CE0101960E9416
:10409000790CBE016F5F7F4F86EE9EE00E943B0B66
:1040A000CE0101960E94860B6CE475E0CE0101966C
:1040B0000E94CB0EBE016F5F7F4F88EF9EE00E9493
:1040C000200B8C01CE0101960E94860B17FD06C0C5
:1040D0006AE475E080EE9EE00E94930D6EE375E069
:1040E000CE0101960E94CB0EBE016F5F7F4F88EF1D
:1040F0009EE00E94200B8C01CE0101960E94860B4F
:1041000017FD06C06AE375E08AED9EE00E94930DFC
:104110006FE275E0CE0101960E94CB0EBE016F5F8B
:104120007F4F88EF9EE00E94200B8C0190933C050E
:1041300080933B05CE0101960E94860B17FD1DC0A2
:104140009801225D3F4FA801475D5F4F68EF7EE019
:10415000CE0101960E94790CBE016F5F7F4F8AEB02
:104160009EE00E943B0BCE0101960E94860B6AEBFB
:104170007EE080ED99E00E94DC0A6AE175E0CE0104
:1041800001960E94CB0EBE016F5F7F4F88EF9EE0CD
:104190000E94200B8C01CE0101960E94860B17FF16
:1041A00010923A056FE075E0CE0101960E94CB0EA9
:1041B000BE016F5F7F4F88EF9EE00E94200B8C0155
:1041C000CE0101960E94860B17FF10923A056EEF02
:1041D00074E0CE0101960E94CB0EBE016F5F7F4F4F
:1041E00088EF9EE00E94200B8C01CE0101960E9478
:1041F000860B17FF10923A0580913A05811151C044
:1042000083EE94E00E94B80A81E080933A05109210
:1042100039051092370562EE74E088EF9EE00E9447
:10422000930D61EE74E082EF9EE00E94930D60EECC
:1042300074E08CEE9EE00E94930D6FED74E086EECC
:104240009EE00E94930D6EED74E080EE9EE00E9471
:10425000930D6DED74E08AED9EE00E94930D6CED80
:1042600074E084ED9EE00E94930D6BED74E08EECA3
:104270009EE00E94930D1092CD0E1092CC0E6AED2E
:1042800074E086EC9EE00E94930D69ED74E080EC92
:104290009EE00E94930D68ED74E08AEB9EE00E9420
:1042A000930D80913A05813061F581EA97E00E9493
:1042B000A80660E088E10E94290440ED57E060E034
:1042C00070E080EB9EE00E9446098823D1F061E017
:1042D00088E10E94290482E080933A05E091350547
:1042E000F0913605EE0FFF1FEE0FFF1FE95FFD4F48
:1042F000408151816281738126E081EA97E00E94CA
:10430000CA0680913A058230C9F564ED74E0CE01A9
:1043100001960E94CB0EBE016F5F7F4F88EF9EE03B
:104320000E94200B8C01CE0101960E94860B17FD86
:1043300076C38AEB94E00E94B80A65EB74E0CE0184
:1043400001960E94CB0ECE0101960E94110BCE0168
:1043500001960E94860B6AEA74E0CE0101960E94E3
:10436000CB0ECE0101960E94110BCE0101960E9448
:10437000860B83E080933A051092B90E80913A053E
:10438000833019F486E080933A0580913A058630AF
:10439000E1F448EE53E060E070E080EB9EE00E94C4
:1043A0004609882309F459C065E774E0CE010196F7
:1043B0000E94CB0ECE0101960E94110BCE010196F8
:1043C0000E94860B89E080933A0580913A058930F6
:1043D00009F043C06EE772E0CE0101960E941D0C09
:1043E000BE016F5F7F4F88EF9EE00E94200B8C0123
:1043F000CE0101960E94860B6EE772E017FF16C091
:104400006CE672E0CE0101960E941D0CBE016F5F4A
:104410007F4F88EF9EE00E94200B8C01CE01019619
:104420000E94860B17FD22C06CE672E082EF9EE0D0
:104430000E944E0C4091F60E5091F70E6091F20ED4
:104440007091F30E80ED99E00E9403068BE080935B
:104450003A0587E99EE00E943A0980913A058B303F
:1044600029F48CE080933A051092390580913A0541
:104470008C3009F0A6C280913905811107C08DE505
:1044800094E00E94B80A83E0809339058091390551
:10449000833009F0A5C048EE53E060E070E087EAA1
:1044A0009EE00E944609882309F4BFC063E574E0DA
:1044B000CE0101960E94CB0ECE0101960E94110BF7
:1044C000CE0101960E94860B68E474E0CE0101964D
:1044D0000E94CB0ECE0101960E94110BCE010196D7
:1044E0000E94860B68E274E0CE0101960E94CB0E1A
:1044F000CE0101960E94110BCE0101960E94860BFF
:104500008CE692E00E94C409882309F446C06EE15B
:1045100074E0CE0101960E94CB0ECE0101960E945E
:10452000110BCE0101960E94860B63E174E0CE016F
:1045300001960E94CB0ECE0101960E94110BCE0176
:1045400001960E94860B68E074E0CE0101960E94FD
:10455000CB0ECE0101960E94110BCE0101960E9456
:10456000860B6DEF73E0CE0101960E94CB0ECE015B
:1045700001960E94110BCE0101960E94860B6FEEF0
:1045800073E0CE0101960E94CB0ECE0101960E94EF
:10459000110BCE0101960E94860B61EE73E0CE01F5
:1045A00001960E94CB0ECE0101960E94110BCE0106
:1045B00001960E94860B64ED73E0CE0101960E9485
:1045C000CB0ECE0101960E94110BCE0101960E94E6
:1045D000860B84E08093390587E99EE00E943A09C2
:1045E00080913905843009F548EE53E060E070E0D1
:1045F00087EA9EE00E944609882371F06AEC73E026
:10460000CE0101960E94CB0ECE0101960E94110BA5
:10461000CE0101960E94860B8091F00E9091F10ED2
:104620000F9719F485E0809339058091390585301D
:1046300059F548EE53E060E070E087EA9EE00E94A2
:104640004609882371F063EC73E0CE0101960E9465
:10465000CB0ECE0101960E94110BCE0101960E9455
:10466000860B8091E60E9091E70E009769F00E940C
:104670003826633649F0633038F086E08093390598
:1046800087E99EE00E943A0980913905863019F445
:1046900087E08093390580913905873099F548EE98
:1046A00053E060E070E087EA9EE00E9446098823BC
:1046B00071F069EB73E0CE0101960E94CB0ECE0142
:1046C00001960E94110BCE0101960E94860B6FE3AA
:1046D00073E0CE0101960E94CB0EBE016F5F7F4F4B
:1046E00080EE9EE00E94DD09182FCE0101960E9407
:1046F000860B112339F088E08093390587E99EE025
:104700000E943A0980913905883019F489E0809334
:10471000390580913905893099F548EE53E060E01C
:1047200070E087EA9EE00E944609882371F06FEAF4
:1047300073E0CE0101960E94CB0ECE0101960E943D
:10474000110BCE0101960E94860B6BE373E0CE0144
:1047500001960E94CB0EBE016F5F7F4F8AED9EE0F7
:104760000E94DD09182FCE0101960E94860B1123AD
:1047700039F08AE08093390587E99EE00E943A0982
:10478000809139058A3009F0B6C18EE792E00E9427
:10479000C409882309F48CC148EE53E060E070E05E
:1047A00087EA9EE00E9446096EE873E0811194C199
:1047B000809139058C3089F448EE53E060E070E078
:1047C00087EA9EE00E944609882331F184ED9EE04D
:1047D0000E94110B8DE080933905809139058D3051
:1047E000D9F462E573E0CE0101960E94CB0EBE01C2
:1047F0006F5F7F4F88EF9EE00E94200B8C01CE01FF
:1048000001960E94860B17FD07C08EE08093390544
:1048100087E99EE00E943A09809139058E3089F43B
:1048200048EE53E060E070E087EA9EE00E944609AF
:10483000882331F18EEC9EE00E94110B8FE0809373
:104840003905809139058F30D9F461E473E0CE01E8
:1048500001960E94CB0EBE016F5F7F4F88EF9EE0F6
:104860000E94200B8C01CE0101960E94860B17FD41
:1048700007C081E18093390587E99EE00E943A09EB
:1048800080913905813129F41092370582E18093B6
:10489000390580913905823109F093C0809137053F
:1048A000811110C08091CC0E882309F445C110926B
:1048B000CC0E11E01093CD0E86EC9EE00E94110B01
:1048C0001093370564E173E0CE0101960E94CB0E90
:1048D000BE016F5F7F4F88EF9EE00E94200B8C012E
:1048E000CE0101960E94860B17FD0DC08091370501
:1048F000813049F480EC9EE00E94110B1092CD0EA5
:1049000082E08093370563E073E0CE0143960E9416
:10491000CB0EBE016D5E7F4F88EF9EE00E94200BA4
:1049200011E097FF3EC062EF72E0CE010D960E944B
:10493000CB0EBE01635F7F4F88EF9EE00E94200B8D
:1049400011E097FF2AC063EE72E0CE0107960E9445
:10495000CB0EBE01695F7F4F88EF9EE00E94200B67
:1049600011E097FF16C064ED72E0CE0101960E943F
:10497000CB0EBE016F5F7F4F88EF9EE00E94200B41
:104980009095192F111F1127111FCE0101960E941A
:10499000860BCE0107960E94860BCE010D960E94D3
:1049A000860BCE0143960E94860B112351F0809115
:1049B0003705823031F487E99EE00E943A0910926F
:1049C000370563ED72E088EF9EE00E94930D0E9430
:1049D000E5050091100C1091110C2091120C3091F2
:1049E000130C601B710B820B930B00910C0C10913C
:1049F0000D0C20910E0C30910F0C0617170728078D
:104A0000390708F0A8956AE070E080E090E00E9425
:104A1000B2050E94CA070C94201C31962DCB48EE9B
:104A200053E060E070E080EB9EE00E94460988233E
:104A300001F180E994E00E948F07E0913505F09143
:104A40003605EE0FFF1FEE0FFF1FE95FFD4F4081A0
:104A50005181628173812AE080ED99E00E940F0A02
:104A60008EE894E00E94B80A8091B90E8F5F80931F
:104A7000B90E8091B90E853008F480CC1092B90E31
:104A800089E794E00E94B80A809135059091360537
:104A900001968230910538F4909336058093350560
:104AA00010923A056BCC1092360510923505F8CF6E
:104AB0008CE692E00E94C409882309F479CE48EE7E
:104AC00053E060E070E087EA9EE00E944609882398
:104AD00009F46ECE60E773E0CE0101960E94CB0E22
:104AE000CE0101960E94110BCE0101960E94860B09
:104AF0008BE080933905809139058B3009F058CED1
:104B000062E673E0CE0101960E94CB0EBE016F5F9C
:104B10007F4F88EF9EE00E94200B8C01CE01019612
:104B20000E94860B17FD44CE8CE08093390587E9FF
:104B30009EE00E943A093CCE40E355E760E070E019
:104B400087EA9EE00E944609882349F011E010930D
:104B5000CD0E86EC9EE00E94110B109337058091DC
:104B6000CD0E8111AFCE48EB5BE060E070E08EE9E6
:104B70009EE00E944609882309F4A4CE86E293E0D1
:104B80000E94B80A6DE173E0CE0101960E94CB0E3F
:104B9000CE0101960E94110BCE0101960E94860B58
:104BA00066E173E0CE0101960E94CB0ECE01019624
:104BB0000E94110BCE0101960E94860B83CE69E9FB
:104BC00072E0CE0101960E94CB0EBE016F5F7F4F57
:104BD00081E89EE00E94DD09182FCE0101960E9417
:104BE000860B11110C943B1C63E972E0CE01019617
:104BF0000E94CB0EBE016F5F7F4F81E89EE00E9456
:104C0000DD09182FCE0101960E94860B112311F4A5
:104C10000C94441C0E94C60A0C943D1C6EEC72E07D
:104C2000CE0101960E94CB0EBE016F5F7F4F8DE8D3
:104C30009EE00E94200B8C01CE0101960E94860B03
:104C400017FD0EC06AEB72E0CE0101960E94CB0EFA
:104C5000CE0101960E94F30ACE0101960E94860BB6
:104C600061ED72E08DE89EE00E94930D0C94A91D09
:104C70001F93FC0199278827BC01E89411911032F9
:104C8000E9F3193010F01E30C8F31B3251F01D3219
:104C900049F4689406C00E947A26610F711D811D37
:104CA000911D119110531A30B0F33EF490958095F8
:104CB000709561957F4F8F4F9F4F1F910895FB0116
:104CC000DC0105900D920020E1F70895FC010590AC
:104CD0000020E9F7809590958E0F9F1F0895BB27C0
:104CE0004A3031F4992322F4BDE2909581959F4F8B
:104CF0000C949026592F482F372F262F660F771F99
:104D0000881F991F660F771F881F991F620F731FD7
:104D1000841F951F660F771F881F991F0895BB2753
:104D2000FB015527AA27880F991FAA1FA41710F067
:104D3000A41B83955051B9F7A05DAA3308F0A95D73
:104D4000A193009779F7B111B1931192CB010C9413
:104D5000A926DC01FC01672F71917723E1F73297D7
:104D600004C07C916D9370836291AE17BF07C8F346
:104D70000895052E97FB1EF400940E94D02657FD3F
:104D800007D00E94E32607FC03D04EF40C94D026F3
:104D900050954095309521953F4F4F4F5F4F089567
:104DA00090958095709561957F4F8F4F9F4F089597
:104DB0000E940527A59F900DB49F900DA49F800D84
:104DC000911D11240895A1E21A2EAA1BBB1BFD01FF
:104DD0000DC0AA1FBB1FEE1FFF1FA217B307E407DA
:104DE000F50720F0A21BB30BE40BF50B661F771F32
:104DF000881F991F1A9469F7609570958095909512
:104E00009B01AC01BD01CF010895A29FB001B39FEA
:104E1000C001A39F700D811D1124911DB29F700DC3
:104E2000811D1124911D0895EE0FFF1F881F8BBF58
:104E30000790F691E02D19940F931F93CF93DF9372
:104E40008230910510F482E090E0E0914612F091FA
:104E5000471230E020E0B0E0A0E0309799F421154F
:104E6000310509F44AC0281B390B24303105D8F527
:104E70008A819B816115710589F1FB01938382838E
:104E8000FE0111C0408151810281138148175907E9
:104E9000E0F04817590799F4109761F012960C93B7
:104EA000129713961C933296CF01DF91CF911F91E9
:104EB0000F9108950093461210934712F4CF2115D5
:104EC000310551F04217530738F0A901DB019A016F
:104ED000BD01DF01F801C1CFEF01F9CF9093471277
:104EE00080934612CDCFFE01E20FF31F8193919381
:104EF0002250310939832883D7CF20914412309131
:104F00004512232B41F42091030230910402309387
:104F10004512209344122091010230910202211582
:104F2000310541F42DB73EB740910502509106027C
:104F3000241B350BE0914412F0914512E217F30760
:104F4000A0F42E1B3F0B2817390778F0AC014E5FF9
:104F50005F4F2417350748F04E0F5F1F50934512DF
:104F600040934412819391939FCFF0E0E0E09CCF77
:104F7000CF93DF930097E9F0FC01329713821282FE
:104F8000A0914612B0914712ED0130E020E0109759
:104F9000A1F420813181820F931F2091441230911E
:104FA00045122817390709F061C0F0934512E093C4
:104FB0004412DF91CF910895EA01CE17DF07E8F59B
:104FC0004A815B819E0141155105B1F7E901FB83DF
:104FD000EA8349915991C40FD51FEC17FD0761F47D
:104FE000808191810296840F951FE90199838883BE
:104FF000828193819B838A83F0E0E0E012968D9119
:105000009C9113970097B9F52D913C911197CD0183
:105010000296820F931F2091441230914512281757
:10502000390739F6309751F510924712109246120F
:10503000B0934512A0934412BCCFD383C283408166
:105040005181840F951FC817D90761F44E5F5F4FD8
:1050500088819981480F591F518340838A819B81A0
:10506000938382832115310509F0B0CFF093471265
:10507000E09346129ECFFD01DC01C0CF1382128265
:10508000D7CF4F925F926F927F928F929F92AF9203
:10509000BF92CF92DF92EF92FF920F931F93CF9325
:1050A000DF938C01009799F4CB01DF91CF911F9191
:1050B0000F91FF90EF90DF90CF90BF90AF909F90B7
:1050C0008F907F906F905F904F900C941C27FC0105
:1050D000E60FF71F9C0122503109E217F30708F48D
:1050E000AEC0D901CD91DC911197C617D70720F139
:1050F000C530D10578F0CE0104978617970750F098
:10510000C61BD70B2297C193D1936D937C93CF018C
:105110000E94B827C801DF91CF911F910F91FF9096
:10512000EF90DF90CF90BF90AF909F908F907F9047
:105130006F905F904F9008955B01AC1ABD0A4C01CF
:105140008C0E9D1EA0914612B0914712512C412CFD
:10515000F12CE12C109731F5809144129091451279
:105160008815990509F05CC04616570608F058C026
:105170008091010290910202009741F48DB79EB791
:105180004091050250910602841B950BE817F90720
:1051900008F055C0F0934512E0934412F901718371
:1051A0006083B8CF8D919C91119712966C90129755
:1051B00013967C901397A815B90559F56C0142E038
:1051C000C40ED11CCA14DB0420F1AC014A195B09DE
:1051D000DA011296159780F06282738251834083C0
:1051E000D9016D937C93E114F10471F0D70113960A
:1051F000FC93EE9312978ECF22968C0F9D1FF90190
:1052000091838083F301EFCFF0934712E09346122E
:1052100081CF4816590608F42C017D01D3019ACF9D
:10522000CB010E941C277C01009749F0AE01B80118
:105230000E942729C8010E94B82787016BCF10E080
:1052400000E068CF81E090E0F8940C94002CFB0122
:10525000DC0102C001900D9241505040D8F70895F2
:10526000FB01DC018D91019080190110D9F3990B9C
:105270000895FB01DC0101900D920020E1F70895F3
:10528000FB0151915523A9F0BF01DC014D91451758
:105290004111E1F759F4CD010190002049F04D9101
:1052A00040154111C9F3FB014111EFCF81E090E0BE
:1052B000019708952F923F924F925F926F927F9243
:1052C0008F929F92AF92BF92CF92DF92EF92FF9216
:1052D0000F931F93CF93DF9300D000D000D01F9285
:1052E0001F92CDB7DEB77C013B018A01FC0117821A
:1052F0001682838181FFDDC1CE0101965C01F70139
:105300009381F30193FD859193FF81913F01882360
:1053100009F453C1853239F493FD859193FF81914E
:105320003F01853229F4B70190E00E94722BE7CF4C
:10533000912C212C312CFFE1F31538F08B3211F137
:1053400090F4803209F1833229F137FC3CC020ED22
:10535000280F2A3050F536FE20C08AE0989E200D96
:105360001124922E06C08D3291F0803371F768942B
:1053700030F8F30193FD859193FF81913F018111F5
:10538000DACF21C0689431F8689432F8F2CF68948B
:1053900033F8EFCF689434F8ECCFEAE02E9E200D7E
:1053A0001124222E689435F8E4CF8E3229F436FC8D
:1053B00004C1689436F8DDCF8C3619F4689437F858
:1053C000D8CF8836B1F2982F9F7D95549330E0F076
:1053D0008336A1F18337C1F1833509F063C0280119
:1053E000F2E04F0E511CF801C080D180692D70E0B1
:1053F00036FC02C06FEF7FEFC6010E945C2B4C01B0
:10540000689437F882010AC00C5F1F4FFFE3F983ED
:1054100088248394912C6501E89437F833FE2DC0DD
:10542000522C8114910471F5552009F468CFB7010D
:1054300080E290E00E94722B5A94F6CFF8018081AE
:1054400089830E5F1F4FE4CF2801F2E04F0E511CFD
:10545000F801C080D180692D70E036FC02C06FEF8A
:105460007FEFC6010E94672B4C018201D5CFB701A7
:1054700080E290E00E94722B2A942814190409F00B
:10548000B0F7CECFF60137FC859137FE81916F01E1
:10549000B70190E00E94722B51105A94F1E08F1ADC
:1054A0009108BFCF843619F0893609F077C0F8012A
:1054B00037FE6BC060817181828193810C5F1F4FC9
:1054C000F32DFF763F2E97FF09C09095809570953C
:1054D00061957F4F8F4F9F4F689437F82AE030E0F7
:1054E000A5010E94A22BC82ECA188C2C432C36FE74
:1054F0000CC0E89440F8C91440F434FE05C032FCF6
:1055000003C0F32DFE7E4F2E892C44FEAAC0FE015F
:10551000EC0DF11D8081803309F09CC0242D297E83
:10552000422E842D8870582E43FCAAC040FEA4C091
:105530009C2C821418F42C0C922C981844FEA6C0B3
:10554000B70180E390E00E94722B42FE09C088E719
:1055500090E041FE02C088E590E0B7010E94722B06
:10556000C91408F49FC0CA94D12C9FEFC91AD90A54
:10557000CA0CDB1CF60182916F01B70190E00E941A
:10558000722BAC14BD04B1F74FCF60817181072E2F
:10559000000C880B990B0E5F1F4F92CFD32CE89411
:1055A000D4F82AE030E08537E1F1232D297FD22E8F
:1055B0008F36A9F1F0F4883551F1F7018681978192
:1055C0002B960FB6F894DEBF0FBECDBFDF91CF9103
:1055D0001F910F91FF90EF90DF90CF90BF90AF9011
:1055E0009F908F907F906F905F904F903F902F9003
:1055F0000895803749F0883701F7D4FE02C06894D7
:10560000D2F820E130E00DC06894D4F8F6CF34FE33
:1056100003C0822F8660D82E20E132E002C028E04D
:1056200030E0F801D7FE0FC06081718182819381E3
:105630000C5F1F4FA5010E94A22BC82ECA183D2C3B
:10564000E89437F852CF6081718190E080E00E5F7E
:105650001F4FF0CF42FC02C0839463CF83948394A6
:1056600060CF842D867809F45CCFF6CFB70180E255
:1056700090E00E94722B83948214C0F3512C5ECF71
:10568000522C5818821408F459CFF8CF842D8678FC
:1056900009F466CF8BE241FE80E247FC8DE2B70160
:1056A00090E05CCFB70180E390E00E94722B9A9467
:1056B00057CF8FEF9FEF84CFFC0105906150704072
:1056C0000110D8F7809590958E0F9F1F0895FC01CB
:1056D0006150704001900110D8F7809590958E0F21
:1056E0009F1F08950F931F93CF93DF93182F092FB8
:1056F000EB018B8181FD09C01FEF0FEF812F902FF0
:10570000DF91CF911F910F91089582FF14C02E81D8
:105710003F818C819D81281739073CF4E881F9810C
:10572000CF0101969983888310838E819F81019692
:105730009F838E83E3CFE885F985812F1995892B87
:10574000A1F3DACFFA01AA27283051F1203181F1F3
:10575000E8946F936E7F6E5F7F4F8F4F9F4FAF4F79
:10576000B1E03ED0B4E03CD0670F781F891F9A1F8C
:10577000A11D680F791F8A1F911DA11D6A0F711D40
:10578000811D911DA11D20D009F468943F912AE04C
:10579000269F11243019305D3193DEF6CF01089534
:1057A000462F4770405D4193B3E00FD0C9F7F6CF65
:1057B000462F4F70405D4A3318F0495D31FD40522D
:1057C000419302D0A9F7EACFB4E0A69597958795C3
:1057D00077956795BA95C9F70097610571050895A2
:1057E0009B01AC010A2E069457954795379527954E
:1057F000BA95C9F7620F731F841F951FA01D0895E6
:1058000013E0CEE8D3E000E006C0802FFE010E9446
:1058100014272196011DCF38D10780E00807A9F78A
:04582000F894FFCF2A
:10582400010000481280008025000000C201000031
:105834000000004B0703064806AA07790658066BC2
:1058440006000000000D0A00000000000000002116
:105854000F8E0BB80B00000000C20BDA0B00000027
:1058640000E40BEB0B00000000680A000000002BB2
:1058740008030619093F0860084A0855080209D9AF
:1058840008EE088D086B0829080D0A005175656338
:1058940074656C5F4243323630592D434E004543A4
:1058A4003830304B00726561645F626974730072F2
:1058B4006561645F696E7075745F626974730072A8
:1058C4006561645F696E7075745F7265676973742E
:1058D40065727300726561645F726567697374658C
:1058E400727300496C6C6567616C206E62206F6630
:1058F4002076616C75657320256420696E2025739C
:1059040020286D6178202564290A00496C6C65673C
:10591400616C2064617461206164647265737320D6
:10592400307825305820696E2025730A00496C6C44
:105934006567616C2064617461206164647265737D
:105944007320307825305820696E20777269746529
:105954005F6269740A00496C6C6567616C206461FC
:1059640074612076616C7565203078253058206923
:105974006E2077726974655F6269742072657175EF
:105984006573742061742061646472657373202587
:1059940030580A00496C6C6567616C2064617461FD
:1059A40020616464726573732030782530582069EF
:1059B4006E2077726974655F726567697374657266
:1059C4000A00496C6C6567616C206E756D62657266
:1059D400206F662076616C75657320256420696E7E
:1059E4002077726974655F6269747320286D6178C9
:1059F400202564290A00496C6C6567616C20646128
:105A04007461206164647265737320307825305842
:105A140020696E2077726974655F626974730A0025
:105A2400496C6C6567616C206E756D626572206F80
:105A3400662076616C75657320256420696E207715
:105A4400726974655F72656769737465727320281F
:105A54006D6178202564290A00496C6C6567616C66
:105A640020646174612061646472657373203078AA
:105A740025305820696E2077726974655F72656796
:105A84006973746572730A004C4D42332E312E349F
:105A940000496C6C6567616C206E62206F662076CD
:105AA400616C75657320285725642C205225642960
:105AB40020696E2077726974655F616E645F7265D8
:105AC40061645F72656769737465727320286D61C0
:105AD40078205725642C20522564290A00496C6CCF
