:020000040000FA
:100000000C94EE030C941F040C941F040C941F0416
:100010000C941F040C941F040C941F040C941F04D4
:100020000C941F040C941F040C941F040C941F04C4
:100030000C941F040C941F040C941F040C941F04B4
:100040000C941F040C941F040C941F040C941F04A4
:100050000C941F040C941F040C941F040C940014A3
:100060000C941F040C9470150C9446150C941F04EA
:100070000C941F040C941F040C941F040C941F0474
:100080000C941F040C941F040C941F040C941F0464
:100090000C941C150C94F2140C941F040C941F0463
:1000A0000C941F040C941F040C941F040C941F0444
:1000B0000C941F040C941F040C941F040C941F0434
:1000C0000C941F040C941F040C941F040C94C8146B
:1000D0000C949E140C941F040C9474140C944A14E5
:1000E0000C941F040C9438210C943D090C948E0B35
:1000F0000C9464040C9445040C9426090C94670831
:100100000C945A040C941A210C94ED050C941F21A4
:100110000C945C080C943B080C947E0F0C94380BE8
:100120000C94B1210C9460110C942F0A0C947F2133
:100130000C9484040C947F040C947D120C94840B16
:100140000C945C210C9451040C943C070C949A156B
:100150000C9449040C940F100C9476040C942421F4
:100160000C94A6070C94A3060C9431120C94CC05A5
:100170000C9468040C944A210C94FD080C94892179
:100180000C94EE150C94A7210C9451080C94950B2B
:100190000C9425080C9466210C9472040C94B108FC
:1001A0000C947A040C9454040C944F0E0C943F0459
:1001B0000C9446080C9412090C94620B0C9477066C
:1001C0000C9442210C9489060C946C0B0C948004C2
:1001D0000C9470210C94930D0C94D7050C946C0422
:1001E0000C944D040C9452210C94B30A0C942708DF
:1001F0000C9467100C9493210C942E210C945E04A3
:100200000C949C100C94DE110C940F120C949D21F4
:100210000C94E6130D0A3D3D3D204E42494F5420BB
:100220005354415254203D3D3D005B537472696EFE
:1002300067205370616365204E4F54204F4B5D0023
:100240005B537472205370616365204F4B5D0000F7
:100250002B514D54524543563A00302C312C302C02
:1002600030002B514D545355423A00302C302C3035
:10027000002B514D545055423A003000300039396E
:10028000002C003A20002B4353513A00302C31000F
:100290002B43455245473A0031002B4347415454C4
:1002A0003A002F6F75742C300041542B514D54532C
:1002B00055423D302C312C7267742F002C747377AB
:1002C000682C31576F3D5B367641306D0041542BC1
:1002D000514D54434F4E4E3D302C6465765F002B9C
:1002E0004347534E3A000D0A46494E49534820525F
:1002F0004547554C4152205055424C495348002BDC
:10030000514D545055423A20302C302C30003E0094
:100310000D0A46494E4953482047455454494E47D3
:10032000204345524547002B43455245473A000D6F
:100330000A46494E4953482047455454494E4720A0
:100340004347415454002B43474154543A000D0A4B
:1003500046494E4953482047455454494E47204347
:100360005351002B4353513A000D0A535542205428
:100370004F504943204F4B002B514D545355423A57
:10038000000D0A434F4E4E4543544544204D5154B1
:1003900054002B514D54434F4E4E3A20302C302CAC
:1003A00030000D0A4F50454E4544204D51545400E5
:1003B0002B514D544F50454E3A20302C30000D0AF1
:1003C00046494E4953482047455454494E472043D7
:1003D00045524547002B43455245473A000D0A46D2
:1003E000494E4953482047455454494E47204347B6
:1003F000415454002B43474154543A000D0A464996
:100400004E4953482047455454494E472043535181
:10041000002B4353513A000D0A46494E4953482098
:100420005345545550000D0A46494E4953482057EC
:10043000414954494E47204950002B49503A005BEE
:10044000534F46545F52455345545D000D0A45587D
:10045000454355544520524547554C41522050552F
:10046000424C4953480041542B43455245473F00B5
:100470000D0A5B434F4E4E45435445445D20515554
:10048000455259494E472043455245470041542B58
:1004900043474154543F000D0A5B434F4E4E454382
:1004A0005445445D205155455259494E47204347D4
:1004B0004154540041542B435351000D0A5B434FA8
:1004C0004E4E45435445445D205155455259494E81
:1004D0004720435351000D0A46494E49534820498D
:1004E0004E4954204E42494F54000D0A5355425331
:1004F000435242494E4720544F5049432E2E2E001E
:100500000D0A434F4E4E454354494E47204D5154DA
:10051000542E2E2E0041542B514D544F50454E3DDC
:10052000302C696F742E7265632D67742E636F6D46
:100530002C31383830000D0A4F50454E494E472077
:100540004D5154542E2E2E0041542B4345524547B5
:100550003F000D0A47455454494E472043455245F4
:10056000470041542B43474154543F000D0A47452F
:100570005454494E472043474154540041542B435F
:100580005351000D0A47455454494E472043535197
:100590000041542B514D54444953433D3000415484
:1005A0002B514D54434C4F53453D300041542B4348
:1005B00045445258533D302C350041542B4353434E
:1005C0004F4E3D300041542B4350534D533D30006E
:1005D00041542B5153434C4B3D300041542B434627
:1005E000554E3D31000D0A53455454494E47205550
:1005F00050204E42494F540041542B5149444E53D0
:100600004346473D302C3232332E352E352E352C95
:10061000382E382E382E380041542B5153434C4B32
:100620003D300041542B4347534E3D31000D0A5796
:10063000616974696E672049500000000000000085
:1006400000000000002C002F696E2C0041542B513B
:100650004D545055423D302C302C302C302C72678C
:10066000742F007D0022616F7574223A002C0022E5
:1006700061696E223A002C0022646F7574223A0080
:100680002C002264696E223A002C007B2263737175
:10069000223A005D002C005B005D002C005B000036
:1006A0000020002300260029002C002F003200002B
:1006B0000100000301060109015B48656C6C6F20B5
:1006C00066726F6D205245432D47545D00415400C2
:1006D0000000002100240027002A002D00300033F4
:1006E0000001010000040107010A010000220025A9
:1006F0000028002B002E003100340002010000050C
:100700000108010B01050505050705080808080291
:100710000202020A0A08080404040401010101019A
:100720000101010303030303030303040707070C89
:100730000C0C0C0C0C0C0C0202020206060606063F
:100740000606060B0B0B0B0B0B0B0B0102102020EC
:100750000808102040102040800201020108040215
:10076000010102040810204080804020100804028B
:1007700001800402018040201008040201080402E4
:1007800001010204081020408001020408102040EA
:100790008000000A0B02090C0D0E0807030401007B
:1007A0000000000000000000000000000000000049
:1007B0000000000000000000000000000012111006
:1007C0000000000000000000000000000000000029
:1007D0000000000000000000EE159A1511241FBE55
:1007E000CFEFD1E2DEBFCDBF00E00CBF15E0A0E04F
:1007F000B2E0E0EEF6E500E00BBF02C007900D921C
:10080000A231B107D9F72AE1A2E1B5E001C01D92FA
:10081000AF31B207E1F713E0CDEED3E000E006C060
:1008200021970109802FFE010E947226CC3ED1073C
:1008300080E00807A9F70E9429190C945E2B0C94FC
:1008400000008150823108F05AC0E82FF0E088277C
:10085000E35DFB4F8F4F0C9472264D0451043F040F
:10086000450449047F0454045A045E046404680483
:100870006C04720476047F047A04800484048091FA
:1008800080008F77809380000895809180008F7D15
:10089000F9CF80918000877FF5CF84B58F7784BDB5
:1008A000089584B58F7DFBCF8091B0008F778093C2
:1008B000B00008958091B0008F7DF9CF80919000B5
:1008C0008F77809390000895809190008F7DF9CF6D
:1008D00080919000877FF5CF8091A0008F778093E3
:1008E000A00008958091A0008F7DF9CF8091A00095
:1008F000877FF5CF809120018F7780932001089525
:10090000809120018F7DF9CF80912001877FF5CFE5
:100910001F93CF93DF93282F30E0F901EF56F84F64
:100920008491F901E55BF84FD491F901EB5FF84F41
:10093000C491CC23A9F0162F81110E942104EC2F21
:10094000F0E0EE0FFF1FE551F94FA591B4918FB77D
:10095000F894EC91111108C0D095DE23DC938FBF81
:10096000DF91CF911F910895DE2BF8CFCF93DF93C6
:1009700090E0FC01E55BF84F24918B5F984FFC0100
:1009800084918823C9F090E0880F991FFC01EF52F1
:10099000F94FA591B491FC01E551F94FC591D4915E
:1009A00061110DC09FB7F8948C91209582238C9390
:1009B0008881282328839FBFDF91CF9108956230DB
:1009C00051F49FB7F8943C91822F809583238C93A8
:1009D000E8812E2BEFCF8FB7F894EC912E2B2C9330
:1009E0008FBFEACF863308F0865320917B00982F83
:1009F0009870277F922B90937B002091000290E4C7
:100A0000299F900111248770822B80937C00809114
:100A10007A00806480937A0080917A0086FDFCCF12
:100A2000809178009091790008953FB7F894809173
:100A3000570590915805A0915905B0915A0526B5D2
:100A4000A89B05C02F3F19F00196A11DB11D3FBF06
:100A5000BA2FA92F982F8827BC01CD01620F711DD5
:100A6000811D911D42E0660F771F881F991F4A95CF
:100A7000D1F708958F929F92AF92BF92CF92DF925B
:100A8000EF92FF926B017C010E9415054B015C0106
:100A9000C114D104E104F104B9F00E9415056819EC
:100AA00079098A099B09683E73408105910580F3A5
:100AB00021E0C21AD108E108F10888EE880E83E02F
:100AC000981EA11CB11CE4CFFF90EF90DF90CF9057
:100AD000BF90AF909F908F9008952FB7F89460913A
:100AE00053057091540580915505909156052FBF7F
:100AF00008958F929F92AF92BF92CF92DF92EF9222
:100B0000FF926B017C010E946D05809069169090A8
:100B10006A16A0906B16B0906C169B01AC01281958
:100B200039094A095B0949015A0180916D16811101
:100B30000DC00E946D056093691670936A168093CC
:100B40006B1690936C1681E080936D16C814D904CF
:100B5000EA04FB0410F410926D160E946D0580905B
:100B6000691690906A16A0906B16B0906C16681972
:100B700079098A099B0921E0C616D706E806F90615
:100B800008F020E0822FFF90EF90DF90CF90BF9091
:100B9000AF909F908F900895FC01218D328D838DB1
:100BA000948DA901481B590BCA019170089581E0E9
:100BB000809313050895FC01248135816217730722
:100BC00048F480819181009729F0860F971FFC01DE
:100BD0008081089580E008950895AF92BF92CF92EA
:100BE000DF92EF92FF920F931F93CF93DF936C01ED
:100BF0007B018B01040F151FEB015E01AE18BF08CE
:100C0000C017D10759F06991D601ED91FC9101907F
:100C1000F081E02DC6011995892B79F7C501DF9187
:100C2000CF911F910F91FF90EF90DF90CF90BF90E9
:100C3000AF900895209138123091391280913A1274
:100C400090913B12281B390B317081E0232B09F462
:100C500080E00895209174053091750580917605A6
:100C600090917705281B390B317081E0232B09F413
:100C700080E008952091E70D3091E80D8091E90D15
:100C80009091EA0D281B390B317081E0232B09F478
:100C900080E008952091A7093091A8098091A909C1
:100CA0009091AA09281B390B317081E0232B09F49C
:100CB00080E00895FC01A089B1898C91A689B7894B
:100CC00082FD13C02C91818D928D01969170438D80
:100CD000548D8417950751F0A18DB28DAE0FBF1FB3
:100CE00091962C93928F818F08958C9108954FB790
:100CF000F894FC01258D368D878D90A14FBF281764
:100D0000390728F081509E4F821B930B089501975D
:100D1000FBCFFC01218D328D838D948D28173907EF
:100D200079F0A38DB48DAE0FBF1F91968C91238D5A
:100D3000348D2F5F3F4F3170348F238F90E00895B3
:100D40008FEF9FEF0895FC01218D328D838D948D5F
:100D50002817390739F0838D948DE80FF91F81A189
:100D600090E008958FEF9FEF0895CF92DF92EF927A
:100D7000FF921F93CF93DF93EC016A017B01122F47
:100D8000E889F98982E08083C11481EED806E10404
:100D9000F104A1F060E079E08DE390E0A701960115
:100DA0000E94412621503109410951095695479524
:100DB00037952795211580E1380798F0E889F9895A
:100DC000108260E874E88EE190E0A70196010E942D
:100DD00041262150310941095109569547953795CA
:100DE0002795EC85FD853083EE85FF852083188E61
:100DF000EC89FD891083EA89FB8980818061808389
:100E0000EA89FB89808188608083EA89FB89808107
:100E100080688083EA89FB8980818F7D8083DF9170
:100E2000CF911F91FF90EF90DF90CF900895FC013C
:100E3000A78DB0A1A80FB91FAF5DBD4F2C91878DB5
:100E400090A10196917090A3878FA689B7892C9362
:100E5000A089B1898C91837080648C93258D368DA7
:100E6000878D90A12817390731F40288F389E02D86
:100E700080818F7D80830895FF920F931F93CF937E
:100E8000DF93EC0181E0888F2D8D3E8D8F8D98A1B1
:100E900028173907C9F4E889F989808185FF14C0CA
:100EA0009FB7F894EE89FF896083E889F98980818A
:100EB0008370806480839FBF81E090E0DF91CF9159
:100EC0001F910F91FF900895F62E0D8D1E8D0F5FCF
:100ED0001F4F11708F8D98A18017910761F40FB685
:100EE00007FCF8CFE889F989808185FFF3CFCE012F
:100EF0000E941707EFCFED8DFE8DEC0FFD1FEF5D0C
:100F0000FD4FF0829FB7F8941E8F0D8FEA89FB8901
:100F100080818062CFCF0F931F93CF93DF938C019B
:100F2000D0E0C0E0F801EC0FFD1F6491662341F0B2
:100F30008EE899E00E943C07892B11F02196F2CFB0
:100F4000CE01DF91CF911F910F910895CF93DF9341
:100F5000EC01888D8823B9F0AA89BB89E889F989D1
:100F60008C9185FD03C0808186FD0DC00FB607FC06
:100F7000F7CF8C9185FFF2CF808185FFEDCFCE0139
:100F80000E941707E9CFDF91CF91089580E090E0AC
:100F9000892B29F00E944A0681110E94000080E0FE
:100FA00090E0892B29F00E943A0681110E940000EE
:100FB00080E090E0892B29F00E942A0681110E948E
:100FC000000080E090E0892B29F00E941A06811130
:100FD0000C9400000895009741F0DC015896ED91C3
:100FE000FC9104A0F5A1E02D19940895009741F01B
:100FF000DC015896ED91FC9100A0F1A1E02D19942F
:1010000086E190E09093141A8093131A8FEF9FEF6C
:101010000895CF93DF93EC01288539854A855B8558
:10102000A8EEB3E00E9436260E943A058C859D8585
:101030008230910538F0880F991F880F991F059706
:101040000197F1F7DF91CF91089581E00895FC01B8
:10105000808D882349F084859585DC01ED91FC9194
:101060000190F081E02D199481E090E093838283D8
:1010700090E080E00895DC011C968D919C91DC014C
:10108000ED91FC910680F781E02D1994DC011C960E
:101090008D919C91DC01ED91FC910284F385E02D12
:1010A0001994DC011C968D919C91DC01ED91FC91D1
:1010B0000484F585E02D1994DC011C968D919C919A
:1010C000DC01ED91FC910084F185E02D19940F93E2
:1010D0001F93CF93DF938C01FC01C485D585E881F4
:1010E000F9810680F781E02DCE011995EA89FB8907
:1010F00080818F7E8083EA89FB898081877F8083DE
:10110000EA89FB8980818F778083EA89FB898081E6
:101110008F7D80838B8D9C8D9A8F898FF80180893C
:10112000918997FD08C060E00E94880460E0F801A2
:1011300080890E94B604F8018289938997FD0CC0CA
:1011400060E00E94880460E0F8018289DF91CF911D
:101150001F910F910C94B604DF91CF911F910F91C5
:1011600008958F929F92AF92BF92DF92EF92FF927B
:101170000F931F93CF93DF93EC014A015B01D22EB3
:10118000898E9A8EAB8EBC8E2D8F3E8F8C899D89D9
:10119000009709F08C010C8B1D8B8E899F8900971D
:1011A00009F07C01EE8AFF8A8889998997FD07C03A
:1011B00061E00E94B60460E088890E9488048A8900
:1011C0009B8997FD07C061E00E94B60461E08A89AF
:1011D0000E948804188E2D2DB501A4018C859D8553
:1011E000DF91CF911F910F91FF90EF90DF90BF9013
:1011F000AF909F908F900C94B506EF92FF920F9353
:101200001F93DC01ED91FC910488F589E02DA2E3A8
:10121000EA2EF12C02E310E019951F910F91FF9037
:10122000EF900895EF92FF920F931F93DC01ED91E1
:10123000FC910488F589E02D7801890126E030E0F1
:1012400019951F910F91FF90EF900895EF92FF92E3
:101250000F931F93DC01ED91FC910488F589E02D3B
:1012600022E3E22EF12C02E310E026E030E01995B3
:101270001F910F91FF90EF90089590E080E0089506
:1012800060E086E10E94880461E070E080E090E028
:101290000C943A05CF93DF93EC010E946D056883AF
:1012A00079838A839B83DF91CF910895982F80ED76
:1012B000890F8A3070F08FEB890F863018F489EC33
:1012C000890F08958FE9890F863010F489EAF8CFE5
:1012D00080E00895EF92FF920F931F93CF93DF93D7
:1012E0008C01FC01E480F580D0E0C0E0EC16FD0646
:1012F00061F0BE01C8010E94DB05082E000C990BAD
:10130000C0970A9750F42196F1CF81E0DF91CF91F9
:101310001F910F91FF90EF90089580E0F7CFCF934A
:10132000DF93FC012181222331F0EC0160E0808118
:101330000E9488041982DF91CF910895CF93DF93A3
:10134000FC012181211107C0EC0161E080810E9434
:10135000880481E08983DF91CF910895CF93DF9353
:10136000EC01862F6883198261E00E94B604CE01E9
:10137000DF91CF910C948F09CF93DF93FC012481EF
:101380003581232B81F0C081D1816091D31670917A
:10139000D416CE010E949E28009729F08C1B9D0B2D
:1013A000DF91CF9108958FEF9FEFFACF8F929F92A9
:1013B000AF92BF92EF92FF920F931F93CF93DF9361
:1013C000CDB7DEB7A1970FB6F894DEBF0FBECDBF85
:1013D0007C01FA01CB0119A2223008F42AE08E0127
:1013E0000F5D1F4F822E912CB12CA12CBF01A501A6
:1013F00094010E944126F901CA016A3074F5605DCA
:10140000D8016E938D01232B242B252B79F790E0A7
:1014100080E0109789F0FD0101900020E9F73197F5
:10142000AF014A1B5B0BD701ED91FC910280F38168
:10143000E02DB801C7011995A1960FB6F894DEBF4B
:101440000FBECDBFDF91CF911F910F91FF90EF9015
:10145000BF90AF909F908F900895695CD1CF8F928D
:101460009F92AF92BF92CF92DF92EF92FF920F9333
:101470001F93CF93DF937C01EB016C0182E0C80ED8
:10148000D11C4701E5E08E0E911C10E000E0F60152
:1014900041916F0150E070E060E02AE0CE010E94CF
:1014A000D6095C01E881F9810190F081E02D6EE2BE
:1014B000CE0119958A0D9B1D080F191FC814D90458
:1014C00031F7F701458150E070E060E02AE0CE019D
:1014D0000E94D609800F911FDF91CF911F910F912C
:1014E000FF90EF90DF90CF90BF90AF909F908F9044
:1014F000089542E050E061E672E00C94ED05CF9370
:10150000DF930E948B07EC018EE899E00E94790A34
:101510008C0F9D1FDF91CF9108950F931F93CF9351
:10152000DF93EC01FB0144815581608171810E9450
:10153000ED058C01CE010E94790A800F911FDF9189
:10154000CF911F910F910895BC018EEC9DE00E94F8
:101550008D0A8EEC9DE00E94A60762E070E080E0BC
:1015600090E00C943A050E948028FC01248135818A
:10157000FB014481558124173507E1F4FC0180818A
:101580009181FB01608171810097D1F06115710536
:10159000A1F4232BC1F0FC01808190E008C0232B33
:1015A00091F0FB01808190E091958195910921E076
:1015B000892B09F020E0822F08950E948E28F7CF12
:1015C0006115710561F721E0F6CF0F931F93CF935B
:1015D000DF938C01EB01FC01808191810097E1F0A8
:1015E0006881798161157105A9F0428153812C814F
:1015F0003D814217530770F00E9497288C819D818E
:10160000F801958384831D821C82DF91CF911F9105
:101610000F9108950E94162788819981F80191837E
:1016200080838A819B81938382838C819D81958332
:101630008483198218821B821A82E5CFCF93DF93AD
:10164000EC0188819981009711F00E941627198278
:1016500018821D821C821B821A82DF91CF9108950D
:10166000FC0180819181009711F00C941627089558
:10167000CF93DF93EC018DE192E0998388838C898D
:101680009D89009711F00E9416278E899F890097E7
:1016900011F00E941627888D998D009711F00E94F5
:1016A00016278A8D9B8D009711F00E9416278A813C
:1016B0009B81009721F0DF91CF910C94EB07DF9194
:1016C000CF910895CF93DF93EC010E94380BCE01A8
:1016D000DF91CF910C941627CF93DF93EC0181E338
:1016E00092E0998388838B899C89009711F00E94EE
:1016F00016278A819B81009721F0DF91CF910C946E
:10170000EB07DF91CF910895CF93DF93EC010E9417
:101710006C0BCE01DF91CF910C94162729E332E0B8
:10172000FC01318320830C946C0BCF93DF93EC018D
:101730000E948E0BCE01DF91CF910C9416270F9350
:101740001F93CF93DF93EC0188819981009759F023
:101750002A813B812617370730F081E0DF91CF9156
:101760001F910F9108958B016F5F7F4F0E949F27FC
:10177000009759F0998388831B830A832C813D81CC
:10178000232B59F7FC011082E8CF80E0E7CFEF92DE
:10179000FF920F931F93CF93DF936115710541F46F
:1017A00080E0DF91CF911F910F91FF90EF9008950E
:1017B0007B01EC01CB010E94C4250097A9F00C81AC
:1017C0001D81080F191FB801CE010E949F0B8823AD
:1017D00039F3288139818C819D81B701820F931F54
:1017E0000E94BD251D830C8381E0DBCFEF92FF9229
:1017F0000F931F93CF93DF936115710541F480E040
:10180000DF91CF911F910F91FF90EF9008954115B7
:101810005105B1F07B01EC010C811D81040F151FF6
:10182000B8010E949F0B882351F3288139818C8154
:101830009D81B701820F931F0E9497281D830C83FF
:1018400081E0DECF0F931F93CF93DF9300D01F92E1
:10185000CDB7DEB74AE08E010F5F1F4FB80190E0B1
:101860000E94CD25F80101900020E9F73197AF01E2
:10187000401B510BB80183EA96E10E94F60B0F90D2
:101880000F900F900F90DF91CF911F910F910895BE
:10189000EF92FF920F931F93CF93DF9300D000D06E
:1018A0001F92CDB7DEB77C01CB014AE08E010F5FFE
:1018B0001F4FB8010E94ED25F80101900020E9F7C3
:1018C0003197AF01401B510BB801C7010E94F60BC5
:1018D00027960FB6F894DEBF0FBECDBFDF91CF9134
:1018E0001F910F91FF90EF900895FB014481558166
:1018F000608171810C94F60BEF92FF920F931F930E
:10190000CF93DF93EC018B016115710551F0CB0191
:101910000E94C4257C01BC01CE010E949F0B811155
:101920000BC0CE010E941E0BCE01DF91CF911F9103
:101930000F91FF90EF900895FD82EC82B8018881AD
:1019400099810E94BD25F0CFFC0111821082138283
:101950001282158214820C947C0C8EEC9DE00E9405
:101960008906181619063CF461E070E080E090E00A
:101970000E943A05F2CF6FE472E08DEC96E10E948E
:101980007C0C6AE070E080E090E00C943A05EF9205
:10199000FF920F931F93CF93DF93EC017B018A019A
:1019A000BA010E949F0B81110BC0CE010E941E0B39
:1019B000CE01DF91CF911F910F91FF90EF9008958D
:1019C0001D830C83B701888199810E949728F0CFED
:1019D000FC0111821082138212821582148250E05F
:1019E00040E063E672E00C94C70CCF92DF92EF9276
:1019F000FF920F931F93CF93DF937C016B018A01BA
:101A00004617570720F48D2D6A01062F182FC7019E
:101A10000E94E80CC091D116D091D216CC16DD06EA
:101A200038F50C171D0708F4E801E091CD16F09188
:101A3000CE16EC0FFD1F108110826091CD167091B3
:101A4000CE166C0D7D1D61157105E1F0FB01019055
:101A50000020E9F73197AF01461B570BC7010E94E1
:101A6000C70C8091CD169091CE16C80FD91F188340
:101A7000C701DF91CF911F910F91FF90EF90DF9001
:101A8000CF900895C7010E941E0BEBCFBF92CF925B
:101A9000DF92EF92FF920F931F93CF93DF93CDB717
:101AA000DEB7ED84FE84CF84D888B9880B891C8981
:101AB000D70114968D919C91892B59F0AE01475E08
:101AC0005F4F6F89788D8091191A90911A1A0E9430
:101AD000B8288D899E89892B31F0C7010E94090899
:101AE000C7010E94F607F6018281938180589F4FBB
:101AF00093838283D7015896ED91FC910484F585F8
:101B0000E02DB801C6011995F801E80FF91FB08260
:101B10000196DF91CF911F910F91FF90EF90DF9091
:101B2000CF90BF9008952F923F924F925F926F9205
:101B30007F928F929F92AF92BF92CF92DF92EF925D
:101B4000FF920F931F93CF93DF93CDB7DEB7C851AA
:101B5000D2400FB6F894DEBF0FBECDBFFC01A2810C
:101B6000B381109749F486E190E09093141A809322
:101B7000131A90E080E05BC45C017E01FBEFEF1A7A
:101B8000FEEFFF0A5896ED91FC9159970488F5896C
:101B9000E02DB701CD0119951816190654F7D50196
:101BA00012966D907C90C55FDD4F99838883CB50F2
:101BB000D24086E190E06114710409F432C4D3018B
:101BC0005896ED91FC91C280D380A4E0B1E0AC0FB7
:101BD000BD1FAC0DBD1D8C91282F30E0CD5EDD4FBB
:101BE00039832883C351D240A7014C0D5D1DC15FCD
:101BF000DD4F59834883CF50D240DA019C90092DA4
:101C000010E0A6E0B1E0AC0FBD1FAC0DBD1D4C90C7
:101C1000512C542C4424A7E0B1E0AC0FBD1FAC0DF7
:101C2000BD1D8C91480E511C1E01BBEF2B1ABDEF40
:101C30003B0AD10111963C932E9313961C930E935D
:101C400012970684F785E02DBE01655F7D4FC701C1
:101C50001995F10195838483EFEFE90DE73108F0E1
:101C6000B5C5F0E08827E85CF14F8F4F0C947226E1
:101C70004F0E4F0E7E0F7E0F0F1067100F12E613E0
:101C8000E613E613E613E613E613E6139C10601161
:101C9000DE11E613E613E613E61331127D1202306D
:101CA000110509F04CC0D5011A964D915C911B9716
:101CB00018962D913C9119975696AD90BC908EE652
:101CC00092E0E8E0F1E0EC0FFD1FEC0DFD1DE0807F
:101CD000F12CFE2CEE24E9E0F1E0EC0FFD1FEC0D01
:101CE000FD1D6081E60EF11CB70161507109603D78
:101CF000774078F127E02F9320ED2F939F938F93D8
:101D0000FF92EF9282EA92E09F938F931F9281E07D
:101D10008F9321E030E02C0F3D1F3F932F931F92B4
:101D200083E08F933F922F927F926F920E94460D95
:101D30008C010FB6F894DEBF0FBECDBF67C0F501B2
:101D40004681578124813581A488B58884E692E054
:101D5000B8CF6201C41AD50AD7FC08C047018C0C61
:101D60009D1C28153905ACF44E0C5F1C9F938F9376
:101D70005F924F928AEC92E09F938F931F921F92F3
:101D800061E070E06C0F7D1F7F936F931F9282E084
:101D90000FC2D3015896ED91FC910484F585E02D96
:101DA000BE016F5F7F4FC10119958C010F5F1F4FFF
:101DB000E1E0F0E0EC0FFD1F8E0F9F1F21E0A70177
:101DC00047705527452B09F420E0F3E0F594E7949C
:101DD000FA95E1F7E20EDC01EC92F501EC0DFD1D48
:101DE00030E020E090E080E0AF014A195B0948153F
:101DF00059050CF46AC0892B49F0E1E0F0E0EC0FE2
:101E0000FD1FE00FF11F20830F5F1F4FCD5EDD4FE1
:101E100028813981C351D240232B09F406C3D30151
:101E20005896ED91FC910088F189E02DB801CE0122
:101E3000019619957C01D3015896ED91FC91028889
:101E4000F389E02DA701BE016F5F7F4FC301199594
:101E50008B016F3F7F4F39F5F301868181FF23C0EE
:101E6000C090131AD090141AF2EFCF16FDE2DF06DD
:101E700009F0BCC4D3015896ED91FC91068CF78D06
:101E8000E02DC3011995C3010E940908D30158969A
:101E9000ED91FC91048CF58DE02DC3011995D09244
:101EA000141AC092131AF301868181FF03C00F3FF9
:101EB000100709F2101611060CF0B7C2E016F10671
:101EC00009F4B3C28FEE9BE2ACC2419150E0082E00
:101ED00002C0440F551F0A94E2F7242B352B87309C
:101EE000910551F4A1E0B0E0AC0FBD1FA00FB11FF0
:101EF0002C930F5F1F4F74CF019676CF04301105DE
:101F0000B1F5F5014685578524853585808C918C02
:101F10008EE792E0E8E0F1E0EC0FFD1FEC0DFD1D17
:101F2000008110E0102F0027E9E0F1E0EC0FFD1F29
:101F3000EC0DFD1D6081060F111DB8016150710986
:101F4000FE0131966F016D37710500F11F922DE78B
:101F50002F939F938F931F930F9382EA92E09F9307
:101F60008F931F9281E08F93FF93EF93D8CED5018B
:101F700052964D915C91539750962D913C9151976B
:101F80005A968D909C9083E992E0C4CF7201E41A36
:101F9000F50A5701F7FC07C0E00EF11E2E153F05AC
:101FA0007CF4400E511E9F938F935F924F928AEC68
:101FB00092E09F938F931F921F92DF92CF92E6CE73
:101FC000D3015896ED91FC910484F585E02DB6017E
:101FD000C1011995F601E80FF91F000F0083950163
:101FE000220F331F820E931E0196F601E80FF91F90
:101FF0008F010C191D09AE14BF040CF007CFD401DA
:1020000011968C91B2E08B0E911C8083D4011297B3
:102010008C9181832FEFA21AB20A3296E9CFD501B3
:1020200016968D919C911797A201481B590BCE01D2
:10203000019657FD06C014962D913C914217530707
:102040004CF05F924F922CEE32E03F932F931F9211
:102050001F92B1C1E8E0F1E0EC0FFD1FEC0DFD1D9A
:10206000208130E0322F2227E9E0F1E0EC0FFD1F64
:10207000EC0DFD1D6081260F311D2115FFEF3F077F
:1020800019F021153105B1F4D5015496ED91FC916B
:10209000E40FF51F41E0232B09F440E04083C55FC6
:1020A000DD4F08811981CB50D240A801B7010E94B1
:1020B0008528ACCE5F924F923F932F9325E133E07A
:1020C0003F932F931F921F929F938F936FC0D501C1
:1020D00052968D919C9153979201281B390BCE01FA
:1020E000019637FD07C050964D915C91519724178A
:1020F00035072CF05F924F9223E533E0A6CF220FF5
:10210000331F5A96ED91FC91E20FF31FA8E0B1E066
:10211000AC0FBD1FAC0DBD1D2C9130E0322F22271E
:10212000A9E0B1E0AC0FBD1FAC0DBD1D4C91240F5B
:10213000311D31832083B3CFE8E0F1E0EC0FFD1FC8
:10214000EC0DFD1D808190E0982F8827E9E0F1E0FB
:10215000EC0FFD1FEC0DFD1D2081820F911D9C01D8
:1021600021503109203B374070F4EAE0F1E0EC0FF8
:10217000FD1FEC0DFD1D2081E8E02E9F9001112434
:1021800028173907ECF427E02F9320EB2F939F9328
:102190008F9381E893E09F938F931F9281E08F93B9
:1021A00021E030E02C0F3D1F3F932F931F9283E0DF
:1021B0008F933F922F927F926F920E94460DB8CDDF
:1021C000D50116962D913C911797F201E21BF30B66
:1021D0009F01F7FD0CC0BC016E0F7F1F14964D913F
:1021E0005C91159746175707D4F4480E591E5F9215
:1021F0004F9285EB93E09F938F931F921F9221E064
:1022000030E02C0F3D1F3F932F931F9282E08F935E
:102210003F922F927F926F920E94460D89CD56E099
:10222000C50ED11C54960D911C91200F311FF90140
:1022300050E040E081E090E08C0F9D1FC80ED91E59
:10224000CF01801B910B86179707F0F0D3015896AA
:10225000ED91FC910484F585E02DBE016F5F7F4F09
:10226000C1011995A1E0B0E0AC0FBD1FA80FB91FC7
:10227000F701E80FF91F24E001900D922A95E1F78C
:102280008C010C5F1F4FC2CDCF01821B930BA3E0CB
:1022900096958795AA95E1F78C0D9D1D8C5F9E4FB5
:1022A000DC018C9190E0042E02C0959587950A94EC
:1022B000E2F7817081934F5F5F4F47705527C0CF22
:1022C000E8E0F1E0EC0FFD1FEC0DFD1D208130E09A
:1022D000322F2227E9E0F1E0EC0FFD1FEC0DFD1D90
:1022E0008081280F311DC90101978B37910570F44A
:1022F000EAE0F1E0EC0FFD1FEC0DFD1D8081B8E080
:102300008B9FC0011124821793077CF41F928BE7E7
:102310008F933F932F938FED93E09F938F931F9213
:1023200081E08F93CE010196CFCED50152968D914B
:102330009C915397F201E81BF90BCF01F7FD31C0D7
:10234000A9014E0F5F1F50966D917C916417750720
:1023500034F1C15FDD4FE881F981CF50D2409C015B
:10236000220F331F2E193F092C193D098417950799
:102370000CF06CCFD5015A966D917C91DB01A20FC8
:10238000B31FAE0FBF1F668170E0762F66271781DF
:10239000610F711D6D937C9301963296E7CF420ECB
:1023A000531E5F924F9288E194E09F938F931F9208
:1023B0001F92CE0101969F938F9327CFD3015896FA
:1023C000ED91FC910484F585E02DBE016F5F7F4F98
:1023D000C1011995FE01E80FF91F24EB2283FE01CC
:1023E000E80FF91F2FEF2383DC011396E1E0F0E003
:1023F000EC0FFD1FAE0FBF1F28E0E7E4F4E00190F3
:102400000D922A95E1F78C01055F1F4FE1E0F0E0A6
:10241000EC0FFD1FE80FF91F8AE08083F7CC8DE6F3
:1024200090E09093141A8093131A81E090E0C85EB4
:10243000DD4F0FB6F894DEBF0FBECDBFDF91CF9159
:102440001F910F91FF90EF90DF90CF90BF90AF90D2
:102450009F908F907F906F905F904F903F902F90C4
:102460000895D50152968D919C915397F201E81BE6
:10247000F90BCE010196F7FD3DCE50962D913C9182
:102480005197E217F3070CF035CEEE0FFF1F5A9667
:102490002D913C91E20FF31FAAE0B1E0AC0FBD1FFC
:1024A000AC0DBD1D2C9130E0322F2227ABE0B1E006
:1024B000AC0FBD1FAC0DBD1D4C91240F311DA8E00C
:1024C000B1E0AC0FBD1FAC0DBD1D4C91642F70E091
:1024D000762F6627A9E0B1E0AC0FBD1FAC0DBD1D86
:1024E0004C91460F572F511D6081718162277327D0
:1024F00046235723242735271CCEE8E0F1E0EC0FD4
:10250000FD1FEC0DFD1D808190E0982F8827E9E0EC
:10251000F1E0EC0FFD1FEC0DFD1D2081FC01E20F31
:10252000F11DC35FDD4FF983E883CD50D240ECE06D
:10253000F1E0EC0FFD1FEC0DFD1D808190E0982F68
:102540008827EDE0F1E0EC0FFD1FEC0DFD1D208173
:10255000820F911D9C0121503109DE01119629370E
:102560003105C0F4C35FDD4F28813981CD50D240A1
:10257000215031092D37310568F4EEE0F1E0EC0F20
:10258000FD1FEC0DFD1D40819C01220F331F4217E2
:10259000130639F11F922DE72F931F9229E72F93EE
:1025A000C25FDD4FF881CE50D240FF93C35FDD4F55
:1025B0002881CD50D2402F939F938F9380E594E054
:1025C0009F938F931F9281E08F93BF93AF931F923E
:1025D00083E08F933F922F927F926F920E94460DDD
:1025E000A7CBEAE0F1E0EC0FFD1FEC0DFD1D208113
:1025F00030E0322F2227EBE0F1E0EC0FFD1FEC0D75
:10260000FD1D4081240F311DF5014289538982014E
:10261000041B150BCF5EDD4F19830883C151D240D7
:10262000B901641B750BAB014B0117FDE6C0C35F1D
:10263000DD4FE881F981CD50D240E00FF11FCB5E34
:10264000DD4FF983E883C551D240F5016089718976
:10265000CB5EDD4FE881F981C551D2406E177F070F
:10266000FCF057FD1FC0AC01480D591DC95EDD4F80
:1026700059834883C751D24064177507E4F4280F83
:10268000391F17FF0FC03F932F935F924F928CE932
:1026900094E09F938F931F921F92BF93AF9376CB3B
:1026A00057FFEDCFC35FDD4F68817981CD50D240B8
:1026B000460E571EE8CFF301808D918DFC012485D5
:1026C00035857D01BD01CE018B5F9D4FF9011995C7
:1026D000F701E80FF91FC35FDD4F2881CD50D240CD
:1026E000220F2083C15FDD4FE881F981CF50D240B6
:1026F000AE014B5F5E4F9401220F331F241B350B3D
:102700002C193D09C95EDD4F48815981C751D2401E
:10271000841695060CF443C0F701E80FF91F9801E1
:10272000220F331F2E193F09B901681B790BCB010A
:1027300041E050E04E195F098A010E0F1F1FCB5E6A
:10274000DD4F68817981C551D240CF5EDD4FA881D0
:10275000B981C151D240A617B7070CF057CBBC01C5
:102760006E0F7F1FD5015A962D913C91DB01A20F70
:10277000B31F11962C91119721832C912283CF5E48
:10278000DD4F28813981C151D2402F5F3F4FCF5E4D
:10279000DD4F39832883C151D2403296CDCFD50148
:1027A0005A964D915C91DA01A20FB31FAE0FBF1F75
:1027B000428550E0542F44276385460F511D4D93A9
:1027C0005C93BFEF8B1A9B0A32969CCF1F929F920D
:1027D0008DEE94E09F938F931F9281E08F939E01E3
:1027E0002F5F3F4F3F932F931F9211CDC3010E9444
:1027F0000908C3010E94F60752CB77FF40CF43CFB1
:102800001F920F920FB60F9211242F933F938F9325
:102810009F93AF93BF938091530590915405A091DE
:102820005505B09156053091520523E0230F2D3701
:1028300058F50196A11DB11D2093520580935305B3
:1028400090935405A0935505B09356058091570574
:1028500090915805A0915905B0915A050196A11D76
:10286000B11D8093570590935805A0935905B093D7
:102870005A05BF91AF919F918F913F912F910F90EA
:102880000FBE0F901F90189526E8230F0296A11DEA
:10289000B11DD2CF1F920F920FB60F9211240BB61B
:1028A0000F922F933F934F935F936F937F938F93E9
:1028B0009F93AF93BF93EF93FF938FE192E10E94B9
:1028C0001707FF91EF91BF91AF919F918F917F91EA
:1028D0006F915F914F913F912F910F900BBE0F9091
:1028E0000FBE0F901F9018951F920F920FB60F9268
:1028F00011240BB60F922F933F934F935F936F93D7
:102900007F938F939F93AF93BF93EF93FF938FE149
:1029100092E10E945A06FF91EF91BF91AF919F9172
:102920008F917F916F915F914F913F912F910F9078
:102930000BBE0F900FBE0F901F9018951F920F9215
:102940000FB60F9211240BB60F922F933F934F9314
:102950005F936F937F938F939F93AF93BF93EF9307
:10296000FF938BE595E00E941707FF91EF91BF91D0
:10297000AF919F918F917F916F915F914F913F9117
:102980002F910F900BBE0F900FBE0F901F901895B8
:102990001F920F920FB60F9211240BB60F922F9326
:1029A0003F934F935F936F937F938F939F93AF93D7
:1029B000BF93EF93FF938BE595E00E945A06FF913A
:1029C000EF91BF91AF919F918F917F916F915F91A7
:1029D0004F913F912F910F900BBE0F900FBE0F9014
:1029E0001F9018951F920F920FB60F9211240BB6DD
:1029F0000F922F933F934F935F936F937F938F9398
:102A00009F93AF93BF93EF93FF938EEC9DE00E9453
:102A10001707FF91EF91BF91AF919F918F917F9198
:102A20006F915F914F913F912F910F900BBE0F903F
:102A30000FBE0F901F9018951F920F920FB60F9216
:102A400011240BB60F922F933F934F935F936F9385
:102A50007F938F939F93AF93BF93EF93FF938EECEE
:102A60009DE00E945A06FF91EF91BF91AF919F9117
:102A70008F917F916F915F914F913F912F910F9027
:102A80000BBE0F900FBE0F901F9018951F920F92C4
:102A90000FB60F9211240BB60F922F933F934F93C3
:102AA0005F936F937F938F939F93AF93BF93EF93B6
:102AB000FF938EE899E00E941707FF91EF91BF9175
:102AC000AF919F918F917F916F915F914F913F91C6
:102AD0002F910F900BBE0F900FBE0F901F90189567
:102AE0001F920F920FB60F9211240BB60F922F93D5
:102AF0003F934F935F936F937F938F939F93AF9386
:102B0000BF93EF93FF938EE899E00E945A06FF91DE
:102B1000EF91BF91AF919F918F917F916F915F9155
:102B20004F913F912F910F900BBE0F900FBE0F90C2
:102B30001F90189580E092E10E948E0B89E796E144
:102B40000E94300B8FE796E10E94300B85E896E1FA
:102B50000E94300B8BE896E10E94300B81E996E1F0
:102B60000E94300B87E996E10E94300B8DE996E1D7
:102B70000E94300B83EA96E10E94300B89EA96E1CD
:102B80000E94300B8FEA96E10E94300B85EB96E1B4
:102B90000E94300B8BEB96E10E94300B81EC96E1AA
:102BA0000E94300B87EC96E10E94300B8DEC96E191
:102BB0000E94300B83ED96E10E94300B89ED96E187
:102BC0000E94300B8FED96E10E94300B86ED99E16B
:102BD0000E948E0B85EF99E10C94380B2F923F9257
:102BE0004F925F926F927F928F929F92AF92BF921D
:102BF000CF92DF92EF92FF920F931F93CF93DF93C9
:102C00000FE112E1D80113961C921E92129788EEE2
:102C1000C82E83E0D82EE12CF12CF801C482D58295
:102C2000E682F7828BE092E09183808325E331E0B6
:102C30003587248724E331E03787268720E331E096
:102C4000318B208B21E331E0338B228B22E331E087
:102C5000358B248B26E331E0378B268B128E118E39
:102C6000148E138E168E158E10A2178EEBE5F5E0DE
:102C700013821282C482D582E682F7829183808396
:102C800025ED30E03587248724ED30E0378726872F
:102C900020ED30E0318B208B21ED30E0338B228B27
:102CA00022ED30E0358B248B26ED30E0378B268B00
:102CB000128E118E148E138E168E158E10A2178EF4
:102CC000EEECFDE013821282C482D582E682F782A6
:102CD000918380832DEC30E0358724872CEC30E025
:102CE0003787268728EC30E0318B208B29EC30E0C9
:102CF000338B228B2AEC30E0358B248B2EEC30E0AA
:102D0000378B268B128E118E148E138E168E158E87
:102D100010A2178EEEE8F9E013821282C482D582E7
:102D2000E682F7829183808385EC90E095878487A3
:102D300084EC90E09787868780EC90E0918B808B85
:102D400081EC90E0938B828B82EC90E0958B848B6E
:102D500086EC90E0978B868B128E118E148E138EDC
:102D6000168E158E10A2178EACE7B9E091E4A92E4D
:102D700092E0B92E1196BC92AE9212961C921297C6
:102D800013961C92139714961C92149715961C92E6
:102D9000A2E8B9E01196BC92AE9212961C921297DC
:102DA00013961C92139714961C92149715961C92C6
:102DB000A8E8B9E01196BC92AE9212961C921297B6
:102DC00013961C92139714961C92149715961C92A6
:102DD000C5EFD9E11B821A8228E1322E29EF39E1B1
:102DE000D901832D1D928A95E9F787E292E09983B4
:102DF0008883AFEABDE0BD8FAC8FC6EDD9E11B8201
:102E00001A82CC82DD82EE82FF82198618861A86AB
:102E10001C8A1B8A1E8A1D8A188E1F8A1A8E198E7A
:102E20001C8E1B8E39E3632E32E0732E798268820A
:102E3000BE8FAD8F13961C921E9212971496CD9250
:102E4000DD92ED92FC92179747E4842E42E0942E97
:102E500011969C928E921D96FC93EE931C9744249F
:102E60004394512C1F965C924E921E9782E090E004
:102E700051969C938E9350978FEF9FEF53969C9310
:102E80008E93529755961C921E92549757961C9269
:102E90001E92569758961C92C6EAD9E180E2888322
:102EA000198260E00E94B60481E28E831F8260E096
:102EB0000E94B60482E28C871D8660E00E94B60400
:102EC00083E28A8B1B8A60E00E94B60484E2888FCA
:102ED000198E60E00E94B60485E28E8F1F8E60E03E
:102EE0000E94B60486E28CA31DA260E00E94B60494
:102EF00087E28AA71BA660E00E94B60468E286E922
:102F000099E10E94AE0969E288E999E10E94AE095F
:102F10006AE28AE999E10E94AE096BE28CE999E1E3
:102F20000E94AE096CE28EE999E10E94AE096DE261
:102F300080EA99E10E94AE096EE282EA99E10E947C
:102F4000AE096FE284EA99E10E94AE09CAE8D9E1CC
:102F500084E0888361E00E94B60485E08B8361E0B1
:102F60000E94B60486E08E8361E00E94B60487E08A
:102F7000898761E00E94B604CAEED6E186E38883C1
:102F800022242394298260E00E94B60487E388AF5C
:102F900029AE60E00E94B60488E380935A1720921D
:102FA0005B1760E00E94B60489E380939217209239
:102FB000931760E00E94B6048AE38093CA172092B8
:102FC000CB1760E00E94B6048BE380930218209236
:102FD000031860E00E94B6048CE380933A182092B4
:102FE0003B1860E00E94B6048DE380937218209233
:102FF000731860E00E94B6048EE38093AA182092B2
:10300000AB1860E00E94B6048FE38093E218209230
:10301000E31860E00E94B60480E480931A192092BD
:103020001B1960E00E94B60481E48093521920923B
:10303000531960E00E94B604C5EED6E18BE18883A7
:1030400062E00E94B6048CE1898362E00E94B604CB
:103050008DE18A8362E00E94B6048EE18B8362E098
:103060000E94B6048FE18C8362E00E94B6048FED6B
:1030700096E10E94E80C89ED96E10E94E80C83ED50
:1030800096E10E94E80C8DEC96E10E94E80C87EC3A
:1030900096E10E94E80C81EC96E10E94E80C8BEB33
:1030A00096E10E94E80C85EB96E10E94E80C8FEA1D
:1030B00096E10E94E80C89EA96E10E94E80C83EA16
:1030C00096E10E94E80C8DE996E10E94E80C87E900
:1030D00096E10E94E80C81E996E10E94E80C8BE8F9
:1030E00096E10E94E80C85E896E10E94E80C8FE7E3
:1030F00096E10E94E80C89E796E10E94E80CEEE672
:10310000F6E11482158216821782108680E395E715
:10311000A0E0B0E080839183A283B38312861186FE
:10312000E5E6F6E180E197E2A0E0B0E080839183FC
:10313000A283B38314821582168217821086EFE56C
:10314000F6E1B182A0821282138214821582A0E479
:10315000B6E113961C921E9212971496CD92DD92B0
:10316000ED92FC92179711969C928E921D961C934D
:103170000E931C971F961C921E921E9751961C929E
:103180001E92509786E190E053969C938E935297AF
:1031900055961C921E92549757961C921E925697C3
:1031A00058961C925897E0E0F2E113821282C48292
:1031B000D582E682F782118610861286148A138AD7
:1031C000168A158A108E178A128E118E148E138EFF
:1031D00071826082B68FA58FC8EFD1E118823982E3
:1031E0001A825C824B821E821D821F8226E040E88A
:1031F00055E260E070E08EEC9DE00E94B50661E073
:1032000089810E94B60461E089810E948804EFEE02
:10321000F1E180E09CE5A6E2B5E080839183A283A2
:10322000B38314821582168217821086DF91CF91A4
:103230001F910F91FF90EF90DF90CF90BF90AF90D4
:103240009F908F907F906F905F904F903F902F90C6
:103250000895CF93DF9300D000D0CDB7DEB7789438
:1032600084B5826084BD84B5816084BD85B582608B
:1032700085BD85B5816085BD80916E00816080933C
:103280006E001092810080918100826080938100A5
:1032900080918100816080938100809180008160B5
:1032A000809380008091B10084608093B100809110
:1032B000B00081608093B000809191008260809323
:1032C00091008091910081608093910080919000A5
:1032D0008160809390008091A10082608093A10022
:1032E0008091A10081608093A1008091A000816005
:1032F0008093A000809121018260809321018091C0
:10330000210181608093210180912001816080935F
:10331000200180917A00846080937A0080917A0005
:10332000826080937A0080917A00816080937A0035
:1033300080917A00806880937A001092C10026E024
:1033400040E855E260E070E08EE899E00E94B50642
:103350001092000268E070E08BEB96E10E949F0BF8
:1033600068E070E08FEA96E10E949F0B68E070E0F1
:1033700089EA96E10E949F0B68E070E08BE896E195
:103380000E949F0B68E070E085E896E10E949F0B29
:1033900068E070E081E996E10E949F0B60E270E0D6
:1033A00085EB96E10E949F0B60E270E083ED96E171
:1033B0000E949F0B60E470E089ED96E10E949F0BF4
:1033C00060E470E087EC96E10E949F0B60E470E09F
:1033D00081EC96E10E949F0B60E470E08DE996E13C
:1033E0000E949F0B60E870E08FED96E10E949F0BBA
:1033F00060E870E08FE796E10E949F0B60E870E064
:103400008DEC96E10E949F0B60E071E083EA96E10B
:103410000E949F0B60E072E087E996E10E949F0B9B
:10342000882309F45AC380E492E00E948B0784E168
:1034300092E00E947F0A11E01093761687ED95E0E6
:1034400090937816809377160E94AD0C1093F81124
:1034500026E040E855E260E070E08BE595E00E94F0
:10346000B506FAEEEF2EF6E1FF2EF7011182F8E332
:10347000EF0EF11C2AE8E21629E1F206B1F761E04D
:1034800086E10E94B6040E94400926E040E855E229
:1034900060E070E08FE192E10E94B50688E199E278
:1034A0000FB6F894A895809360000FBE90936000CB
:1034B00076E0272E312CE4E08E2E912C5CE0452E18
:1034C000512C6AE0662E712C80917616882339F192
:1034D0000E946D050091721610917316209174165A
:1034E00030917516601B710B820B930B00916E1659
:1034F00010916F16209170163091711606171707EC
:103500002807390760F4E0917716F0917816309724
:1035100009F4E6C2199582E796E10E944A09809172
:10352000FB119091FC11019709F05AC063E476E019
:103530008DEC96E10E947C0C62E476E087EC96E1EB
:103540000E947C0C61E476E081EC96E10E947C0CA8
:1035500060E476E08BEB96E10E947C0C6FE376E012
:1035600085EB96E10E947C0C6EE376E08FEA96E1B3
:103570000E947C0C6DE376E089EA96E10E947C0C67
:103580006CE376E083EA96E10E947C0C6BE376E0E4
:103590008DE996E10E947C0C6AE376E087E996E18A
:1035A0000E947C0C1092FF1160E08091F9110E9442
:1035B000880468EE73E080E090E00E94790588233B
:1035C00079F061E08091F9110E94880482E090E036
:1035D0009093FC118093FB118DE296E00E947F0A8C
:1035E0008091FB119091FC110297C1F564EF71E09D
:1035F00080E090E00E947905882381F163E276E023
:10360000CE0101960E94A40CCE0101960E94A40A4C
:10361000CE0101960E94300B68E176E0CE01019662
:103620000E94A40CCE0101960E94A40ACE0101962C
:103630000E94300B68EF75E0CE0101960E94A40C49
:10364000CE0101960E94A40ACE0101960E94300B81
:1036500083E090E09093FC118093FB118091FB112B
:103660009091FC11049709F06CC085EE95E00E94E2
:103670007F0A6BED75E0CE0101960E94A40CCE018D
:1036800001960E94A40ACE0101960E94300B60EDC3
:1036900075E0CE0101960E94A40CCE0101960E9415
:1036A000A40ACE0101960E94300B65EC75E0CE01B4
:1036B00001960E94A40CCE0101960E94A40ACE019C
:1036C00001960E94300B6AEB75E0CE0101960E94D4
:1036D000A40CCE0101960E94A40ACE0101960E947C
:1036E000300B6CEA75E0CE0101960E94A40CCE016D
:1036F00001960E94A40ACE0101960E94300B6EE949
:1037000075E0CE0101960E94A40CCE0101960E94A4
:10371000A40ACE0101960E94300B61E975E0CE014A
:1037200001960E94A40CCE0101960E94A40ACE012B
:1037300001960E94300B85E090E09093FC118093FD
:10374000FB118091FB119091FC11069701F568EE39
:1037500073E080E090E00E9479058823C1F083E85F
:1037600095E00E947F0A6CE775E0CE0101960E9409
:10377000A40CCE0101960E94A40ACE0101960E94DB
:10378000300B87E090E09093FC118093FB118091C7
:10379000FB119091FC11089701F568EE73E080E051
:1037A00090E00E9479058823C1F08CE695E00E94A4
:1037B0007F0A62E675E0CE0101960E94A40CCE015C
:1037C00001960E94A40ACE0101960E94300B89E066
:1037D00090E09093FC118093FB118091FB119091EC
:1037E000FC110A9701F568EE73E080E090E00E941A
:1037F00079058823C1F082E595E00E947F0A68E49C
:1038000075E0CE0101960E94A40CCE0101960E94A3
:10381000A40ACE0101960E94300B8BE090E09093B9
:10382000FC118093FB118091FB119091FC110C977E
:1038300001F568EE73E080E090E00E94790588234E
:10384000C1F086E395E00E947F0A65E175E0CE0154
:1038500001960E94A40CCE0101960E94A40ACE01FA
:1038600001960E94300B8DE090E09093FC118093C4
:10387000FB118091FB119091FC110E97B1F468EE51
:1038800073E080E090E00E947905882371F080E089
:1038900095E00E947F0A87EC96E10E94A40A8FE0DF
:1038A00090E09093FC118093FB118091FB1190911B
:1038B000FC11409771F48AEE94E00E947F0A81EC3B
:1038C00096E10E94A40A81E190E09093FC1180931C
:1038D000FB118091FB119091FC11429769F481E0FA
:1038E0008093F81183E190E09093FC118093FB1199
:1038F00086ED94E00E947F0A8091FB119091FC116B
:10390000439709F0ABC08091FD119091FE11892B76
:1039100001F568E873E180E090E00E947905882372
:10392000C1F08BEB94E00E947F0A64EB74E0CE015F
:1039300001960E94A40CCE0101960E94A40ACE0119
:1039400001960E94300B81E090E09093FE118093ED
:10395000FD118091FD119091FE11029701F568E82B
:1039600073E180E090E00E9479058823C1F087E947
:1039700094E00E947F0A6DE874E0CE0101960E94F7
:10398000A40CCE0101960E94A40ACE0101960E94C9
:10399000300B83E090E09093FE118093FD118091B5
:1039A000FD119091FE11049701F568E873E180E044
:1039B00090E00E9479058823C1F080E794E00E949E
:1039C0007F0A66E674E0CE0101960E94A40CCE0147
:1039D00001960E94A40ACE0101960E94300B85E058
:1039E00090E09093FE118093FD118091FD119091D4
:1039F000FE110697C9F468EC72E380E090E00E9443
:103A00007905882389F08CE494E00E947F0A8DE98F
:103A100096E10E94A40A81E08093FF1187E090E084
:103A20009093FE118093FD118091FD119091FE11F4
:103A30000897A1F460ED77E080E090E00E947905BE
:103A4000882361F083EA96E10E94A40A1092FF1194
:103A500089E090E09093FE118093FD118091E70D35
:103A60009091E80D2091E90D3091EA0D821B930BA6
:103A70009170892B09F443C048E0C42ED12CBB249B
:103A8000B3948091E70D9091E80D2091E90D30916C
:103A9000EA0D821B930B9170892B89F18EEC9DE0CE
:103AA0000E948906182F8091FA11882329F0612F2E
:103AB0008EE899E00E943C071D3009F4B9C41A3021
:103AC00001F319831A8241E050E0BE016F5F7F4F1E
:103AD0008DEC96E10E94F60BD4CF8AE292E0A5CC61
:103AE00088E198E00FB6F894A895809360000FBE27
:103AF00090936000FFCF60E070E0CB013BC7809106
:103B00001305882391F00E94AD0C1092130581E0FB
:103B100090E09093FC118093FB111092FE11109293
:103B2000FD118FE394E00E947F0A8091F8118111CA
:103B300007C06AE070E080E090E00E943A05C4CCE3
:103B40008091FB118093160526EAC22E29E1D22E20
:103B500036EDA32E39E1B32E8601F801208130E045
:103B6000F901EF56F84F8491F901E55BF84F649045
:103B7000F901EB5FF84F7490772009F4A7C2811127
:103B80000E942104E72DF0E0EE0FFF1FE156F94FF0
:103B9000A591B491EC916E2281E009F480E0782E39
:103BA000F8018181781609F493C20E946D05F8012D
:103BB0002281338144815581621B730B840B950BE9
:103BC000633371058105910508F071820A5F1F4F0B
:103BD000A016B10609F0C1CF0AEE16E1F801818105
:103BE00060E4A62EB12C412C512C3201813009F019
:103BF00077C2A12CBB24B394412C512C3201F80183
:103C000080810E94F204092E000CAA0BBB0B480E07
:103C1000591E6A1E7B1EF1E0AF1AB10881F7B4E0AD
:103C20007694679457944794BA95D1F7F8015382E4
:103C30004282349681E090E0228133812193319356
:103C4000019688319105C1F7F80153AA42AA60E0B4
:103C500070E0CB0150E040E0FA01EE0FFF1FE00FF3
:103C6000F11F24813581620F731F811D911D4F5FEC
:103C70005F4F4831510581F728E130E040E050E0E6
:103C80000E944126F80135AB24AB085C1F4FE016BB
:103C9000F10609F0A3CF40E090E080E021E030E0C1
:103CA000F6015181511120E0082E01C0220F0A9423
:103CB000EAF7422B0196F6E0CF0ED11C8830910531
:103CC00069F740931505E6E9F9E140E030E020E0CE
:103CD0008181022E01C0880F0A94EAF7482B2F5FDA
:103CE0003F4F32962830310599F7409314056DE91E
:103CF00076E08FED96E10E947C0C0AEE16E1D12C65
:103D0000C12CF80154A945A98181813009F003C271
:103D1000252F342F203CFEE33F0710F02FEB3EE32E
:103D2000AFEFBFE00E9463262FEB3EE340E050E0A0
:103D30000E941726F80137AB26ABF80166A977A9D0
:103D40008FED96E10E94480CFBE0CF16D10431F0D4
:103D50006BE976E08FED96E10E94C70B2FEFC21A58
:103D6000D20A085C1F4F3CE0C316D10451F669E942
:103D700076E08FED96E10E94C70B67E976E089ED6A
:103D800096E10E947C0C4AE8C42E49E1D42E10E052
:103D900000E0F6016181728189ED96E10E94480C94
:103DA0000330110531F065E976E089ED96E10E9476
:103DB000C70B0F5F1F4FF3E0CF0ED11C043011056E
:103DC00041F763E976E089ED96E10E94C70B8091A7
:103DD000FF11811156C06BE876E083EA96E10E94FC
:103DE0007C0C6BEB76E183EA96E10E94750C69E846
:103DF00076E083EA96E10E94C70B62E876E083EA08
:103E000096E10E94C70B809115050E94220C60E884
:103E100076E083EA96E10E94C70B68E776E083EAE2
:103E200096E10E94C70B809114050E94220C66E760
:103E300076E083EA96E10E94C70B6FE676E083EABC
:103E400096E10E94C70B6FED76E183EA96E10E944E
:103E5000750C6DE676E083EA96E10E94C70B65E695
:103E600076E083EA96E10E94C70B69ED76E183EA8A
:103E700096E10E94750C63E676E083EA96E10E9483
:103E8000C70B6CE476E08DE996E10E947C0C65EB53
:103E900076E18DE996E10E94750C67E476E08DE9A4
:103EA00096E10E94C70B6091A7167091A8168DE944
:103EB00096E10E94480C60919D1670919E166115C6
:103EC000710509F434C14091A1165091A21687E9F9
:103ED00096E10E94C70C65E476E087E996E10E94CE
:103EE000C70B63EA76E187E996E10E94750C809141
:103EF000951690919616892B09F465C070E060E0E4
:103F000081E996E10E94DB05D82E61E070E081E94D
:103F100096E10E94DB05182F63E070E081E996E1ED
:103F20000E94DB05082F64E070E081E996E10E94C1
:103F3000DB05C82E24E4D21227C11A3309F011C1BF
:103F4000802F0E945609182F8C2D0E94560940E19F
:103F5000149F90011124182F122B84EA99E110FD6F
:103F6000EBC00E948F0982EA99E111FDE8C00E942E
:103F70008F0980EA99E112FDE5C00E948F098EE960
:103F800099E113FDE2C00E948F098CE999E114FDCB
:103F9000DFC00E948F098AE999E115FDDCC00E940B
:103FA0008F0988E999E116FDD9C00E948F0986E939
:103FB00099E117FDE6C00E948F0964E476E081E98B
:103FC00096E10E947C0C0E946D052B013C018091C2
:103FD0004E0590914F05A0915005B0915105A30158
:103FE0009201281B390B4A0B5B0BDA01C901813D99
:103FF0009740A105B10508F4D2C18091BB169091FC
:10400000BC1660E0009711F00E9496258BE5809326
:104010001705809116058093180560931905809106
:10402000150580931A058091140580931B05E7E11F
:10403000F5E0AAEEB6E1D6968C91D697D7969C91EC
:10404000D79795838683D896329645E0EF32F4076A
:1040500091F780918B1990918C19909334058093EE
:10406000350580918E1990918F1990933605809324
:10407000370580919119909192199093380580930A
:104080003905809194199091951990933A058093F0
:104090003B050CE315E0D12CC12CB60185EB96E174
:1040A0000E94DB05F80181938F01FFEFCF1ADF0A31
:1040B00020E1C216D10489F7E8E1F5E095E380E05C
:1040C000915009F453C12191820FFACF712C68CD20
:1040D0000E946D05F801628373838483958376CD96
:1040E000F80180810E94F204092E000CAA0BBB0B80
:1040F000480E591E6A1E7B1EF1E0AF1AB10881F707
:1041000056E076946794579447945A95D1F7F801FE
:1041100055AA44AABACD852F942F8115F4E09F07A4
:1041200010F08FEF93E0F80197AB86AB06CE87E9EE
:1041300096E10E941E0BCFCE0E949E0914CF0E94D2
:104140009E0917CF0E949E091ACF0E949E091DCF7B
:104150000E949E0920CF0E949E0923CF0E949E09A3
:1041600026CF8FEC810F883008F027CFE12FE15365
:10417000FF0BCF01880F991F8A56964E003309F422
:104180001ACF0E949E0919CFF1E4DF1216CF8FECEF
:10419000810F853008F011CF802F0E945609D82E4C
:1041A0008C2D0E94560940E1D49E90011124D82EF6
:1041B000D22AE12FE153FF0BCF010D2D10E0EE0FBE
:1041C000FF1FE80FF91FE657F64E12830183C080E8
:1041D00061E08C2D0E94B604D11005C060E08C2DEA
:1041E0000E948804EACE0F3F110511F461E0F7CF79
:1041F000EC2DF0E0EF56F84FE491E150E23108F099
:10420000B0C0F0E08827E85FFE4D8F4F0C94722617
:104210001A211F2124212E213821B12142214A2196
:1042200052215C21662170217F218921B1219321B6
:104230009D21A72184B5806884BDD7BCBECE84B53E
:10424000806284BDD8BCB9CE8091800080688093A4
:1042500080001093890000938800AFCE8091800089
:1042600080628093800010938B0000938A00A5CE1B
:104270008091800088608093800010938D0000936F
:104280008C009BCE8091B00080688093B000D0926B
:10429000B30093CE8091B00080628093B000D09242
:1042A000B4008BCE80919000806880939000109332
:1042B00099000093980081CE809190008062809355
:1042C000900010939B0000939A0077CE809190000D
:1042D00088608093900010939D0000939C006DCEA9
:1042E0008091A00080688093A0008091A0008F7BC7
:1042F0008093A0001093A9000093A8005ECE809147
:10430000A00080628093A0001093AB000093AA00ED
:1043100054CE8091A00088608093A0001093AD00DF
:104320000093AC004ACE80912001806880932001E8
:10433000109329010093280140CE809120018062D2
:104340008093200110932B0100932A0136CE809197
:10435000200188608093200110932D0100932C018F
:104360002CCE003811050CF041CF38CF80934C058E
:104370008DE580934D0547E350E067E175E08BE5FF
:1043800095E00E94ED058BE595E00E94A60740921E
:104390004E0550924F0560925005709251050E9453
:1043A0004009809138129091391220913A1230913F
:1043B0003B12821B930B9170892BA9F08FE192E144
:1043C0000E9489068D3009F479C38A3051F38983BC
:1043D0001A8241E050E0BE016F5F7F4F8FE796E1A8
:1043E0000E94F60BDECF0E946D050091F311109133
:1043F000F4112091F5113091F611601B710B820BB5
:10440000930B0091EF111091F0112091F111309167
:10441000F211061717072807390708F0A8956AE070
:1044200070E080E090E00E943A050E94C60746C80E
:104430008091FB119091FC110397C1F46AE374E041
:1044400083ED96E10E947C0C8DEC96E10E94BC0904
:1044500097FD0CC086E294E00E947F0A9092FC11C6
:104460008092FB1182E796E10E944A098091FB113C
:104470009091FC11059761F487E194E00E947F0A16
:104480003092FC112092FB1182E796E10E944A09CA
:104490008091FB119091FC110797C1F461E174E0E8
:1044A00083ED96E10E947C0C8DEC96E10E94BC09A4
:1044B00097FD0CC08CEF93E00E947F0AD092FC1114
:1044C000C092FB1182E796E10E944A098091FB119C
:1044D0009091FC110997C1F464EF73E083ED96E1CC
:1044E0000E947C0C8DEC96E10E94BC0997FD0CC0EB
:1044F0008DED93E00E947F0A7092FC116092FB1197
:1045000082E796E10E944A098091FB119091FC118B
:104510000B97C1F465ED73E083ED96E10E947C0C8E
:104520008DEC96E10E94BC0997FD0CC08EEB93E0E8
:104530000E947F0A5092FC114092FB1182E796E1A3
:104540000E944A098091FB119091FC110D97D1F4C2
:1045500060EB73E083ED96E10E947C0C8DEC96E1BC
:104560000E94BC0997FD0EC082EA93E00E947F0A78
:104570004EE050E05093FC114093FB1182E796E12E
:104580000E944A098091FB119091FC110F97D1F480
:1045900062E973E083ED96E10E947C0C8DEC96E17C
:1045A0000E94BC0997FD0EC081E893E00E947F0A3B
:1045B00080E190E09093FC118093FB1182E796E1FB
:1045C0000E944A098091FB119091FC114197D1F40E
:1045D00068E773E083ED96E10E947C0C8DEC96E138
:1045E0000E94BC0997FD0EC089E693E00E947F0AF5
:1045F000E2E1F0E0F093FC11E093FB1182E796E139
:104600000E944A098091FB119091FC11439709F097
:1046100094C08091FD119091FE110197D1F463E651
:1046200073E083ED96E10E947C0C8DEC96E10E9494
:10463000BC0997FD0EC08EE493E00E947F0A22E041
:1046400030E03093FE112093FD1182E796E10E9445
:104650004A098091FD119091FE110397C1F466E41F
:1046600073E083ED96E10E947C0C8DEC96E10E9454
:10467000BC0997FD0CC08FE293E00E947F0A9092E4
:10468000FE118092FD1182E796E10E944A09809115
:10469000FD119091FE110597C1F467E273E083ED7F
:1046A00096E10E947C0C8DEC96E10E94BC0997FD7E
:1046B0000CC080E193E00E947F0A3092FE112092AC
:1046C000FD1182E796E10E944A098091FD119091C7
:1046D000FE110797A1F46EE073E083ED96E10E946E
:1046E0007C0C8DEC96E10E94BC0997FD08C0D0922D
:1046F000FE11C092FD1182E796E10E944A09809165
:10470000FD119091FE110997C1F46FEF72E083EDF6
:1047100096E10E947C0C8DEC96E10E94BC0997FD0D
:104720000CC01092FE111092FD1186EE92E00E94D4
:104730007F0A82E796E10E944A096FED72E083EDFD
:1047400096E10E947C0C8DEC96E10E94BC0997FDDD
:1047500047C046E150E067E070E0CE0101960E945C
:10476000F50CBE016F5F7F4F85EB96E10E94E50A75
:10477000CE0101960E94300B85EB96E10E946A09FA
:10478000811102C0B09213058091B9169091BA16AA
:104790000F9711F0B09213056DEC72E087EC96E183
:1047A0000E947C0C65EB76E187EC96E10E94750C2B
:1047B0006CEB72E087EC96E10E94C70B69EA72E04D
:1047C00081EC96E10E947C0C65EB76E181EC96E150
:1047D0000E94750C62EA72E081EC96E10E94C70BC0
:1047E0006AE972E083ED96E10E947C0C8DEC96E123
:1047F0000E94BC0997FD29C049E050E068E070E0E4
:10480000CE0101960E94F50CBE016F5F7F4F8FEACB
:1048100096E10E94E50ACE0101960E94300B68E9FC
:1048200072E0CE0101960E94A40CBE016F5F7F4F23
:104830008FEA96E10E94B50A182FCE0101960E94D8
:10484000300B111102C0B092130560E972E083EDE4
:1048500096E10E947C0C8DEC96E10E94BC0997FDCC
:1048600029C04BE050E068E070E0CE0101960E9464
:10487000F50CBE016F5F7F4F89EA96E10E94E50A61
:10488000CE0101960E94300B6CE872E0CE010196D9
:104890000E94A40CBE016F5F7F4F89EA96E10E94DF
:1048A000B50A182FCE0101960E94300B111102C0DB
:1048B000B092130566E872E083ED96E10E947C0CED
:1048C0008DEC96E10E94BC0997FD61C063E872E03F
:1048D00083ED96E10E947C0C8DEC96E10E94BC0970
:1048E0008C0161E872E083ED96E10E947C0C8DEC16
:1048F00096E10E94BC09B8016E5F7F4FAC01CE010A
:1049000001960E94F50CBE016F5F7F4F8BEB96E125
:104910000E94E50ACE0101960E94300B6EE772E01C
:10492000CE0101960E94A40CBE016F5F7F4F8BEBFE
:1049300096E10E94B50A182FCE0101960E94300B15
:104940001111B09213058BEB96E10E946A09811157
:1049500008C0B09213056CE772E08BEB96E10E9401
:104960007C0C8091BB169091BC16009709F4C3C8CB
:104970000E949625655071096B31710540F0B09227
:1049800013056AE772E08BEB96E10E947C0C61E70D
:1049900072E083ED96E10E947C0C8DEC96E10E9422
:1049A000BC0997FD29C04EE050E069E070E0CE01FF
:1049B00001960E94F50CBE016F5F7F4F8BE896E178
:1049C0000E94E50ACE0101960E94300B6BE672E070
:1049D000CE0101960E94A40CBE016F5F7F4F8BE851
:1049E00096E10E94B50A182FCE0101960E94300B65
:1049F000111102C0B092130562E672E083ED96E1F8
:104A00000E947C0C8DEC96E10E94BC0997FD29C0A8
:104A100040E150E069E070E0CE0101960E94F50CA3
:104A2000BE016F5F7F4F85E896E10E94E50ACE01E7
:104A300001960E94300B6AE572E0CE0101960E9459
:104A4000A40CBE016F5F7F4F85E896E10E94B50A16
:104A5000182FCE0101960E94300B111102C0B092A6
:104A6000130560E572E083ED96E10E947C0C8DEC0D
:104A700096E10E94BC0997FD19C04EE250E069E240
:104A800070E0CE0101960E94F50CBE016F5F7F4F72
:104A900081E996E10E94E50ACE0101960E94300B61
:104AA00061E976E18EE899E00E948D0A6FE472E098
:104AB0008DEC96E10E947C0C0C94411D6DEC76E02F
:104AC00083ED96E10E947C0C8FE796E10E94BC0981
:104AD00097FD25C069EB76E0CE0101960E94A40CFB
:104AE00061E086E10E94880461E070E080E090E08F
:104AF0000E943A05BE016F5F7F4F8FE192E10E94F5
:104B00008D0A8FE192E10E94A60761E070E080E0EB
:104B100090E00E943A05CE0101960E94300B60EDB4
:104B200076E08FE796E10E947C0C3BCC1F93FC0162
:104B300099278827BC01E89411911032E9F31930C4
:104B400010F01E30C8F31B3251F01D3249F4689446
:104B500006C00E94D825610F711D811D911D119104
:104B600010531A30B0F33EF490958095709561958E
:104B70007F4F8F4F9F4F1F910895FB01DC010590E0
:104B80000D920020E1F70895FC0105900020E9F75F
:104B9000809590958E0F9F1F0895BB274A3031F462
:104BA000992322F4BDE2909581959F4F0C94EE25B8
:104BB000592F482F372F262F660F771F881F991FD1
:104BC000660F771F881F991F620F731F841F951F21
:104BD000660F771F881F991F0895BB27FB01552774
:104BE000AA27880F991FAA1FA41710F0A41B83954A
:104BF0005051B9F7A05DAA3308F0A95DA1930097C1
:104C000079F7B111B1931192CB010C940726DC0115
:104C1000FC01672F71917723E1F7329704C07C91F3
:104C20006D9370836291AE17BF07C8F30895052E88
:104C300097FB1EF400940E942E2657FD07D00E9479
:104C4000412607FC03D04EF40C942E265095409537
:104C5000309521953F4F4F4F5F4F08959095809528
:104C6000709561957F4F8F4F9F4F08950E946326E7
:104C7000A59F900DB49F900DA49F800D911D1124B0
:104C80000895A1E21A2EAA1BBB1BFD010DC0AA1F8D
:104C9000BB1FEE1FFF1FA217B307E407F50720F0A5
:104CA000A21BB30BE40BF50B661F771F881F991F20
:104CB0001A9469F760957095809590959B01AC0169
:104CC000BD01CF010895A29FB001B39FC001A39F72
:104CD000700D811D1124911DB29F700D811D112435
:104CE000911D0895EE0FFF1F881F8BBF0790F6914F
:104CF000E02D19940F931F93CF93DF93823091058A
:104D000010F482E090E0E0911D1AF0911E1A30E05C
:104D100020E0B0E0A0E0309799F42115310509F4C6
:104D20004AC0281B390B24303105D8F58A819B8174
:104D30006115710589F1FB0193838283FE0111C026
:104D4000408151810281138148175907E0F04817CB
:104D5000590799F4109761F012960C9312971396D5
:104D60001C933296CF01DF91CF911F910F9108953F
:104D700000931D1A10931E1AF4CF2115310551F01E
:104D80004217530738F0A901DB019A01BD01DF0189
:104D9000F801C1CFEF01F9CF90931E1A80931D1A2D
:104DA000CDCFFE01E20FF31F819391932250310981
:104DB00039832883D7CF20911B1A30911C1A232BBB
:104DC00041F4209103023091040230931C1A209385
:104DD0001B1A20910102309102022115310541F484
:104DE0002DB73EB74091050250910602241B350BAA
:104DF000E0911B1AF0911C1AE217F307A0F42E1B86
:104E00003F0B2817390778F0AC014E5F5F4F24172E
:104E1000350748F04E0F5F1F50931C1A40931B1A22
:104E2000819391939FCFF0E0E0E09CCFCF93DF930D
:104E30000097E9F0FC01329713821282A0911D1AAB
:104E4000B0911E1AED0130E020E01097A1F420810E
:104E50003181820F931F20911B1A30911C1A281741
:104E6000390709F061C0F0931C1AE0931B1ADF9117
:104E7000CF910895EA01CE17DF07E8F54A815B81FB
:104E80009E0141155105B1F7E901FB83EA83499180
:104E90005991C40FD51FEC17FD0761F480819181F2
:104EA0000296840F951FE9019983888382819381FB
:104EB0009B838A83F0E0E0E012968D919C9113979A
:104EC0000097B9F52D913C911197CD010296820F73
:104ED000931F20911B1A30911C1A2817390739F695
:104EE000309751F510921E1A10921D1AB0931C1A89
:104EF000A0931B1ABCCFD383C28340815181840FFE
:104F0000951FC817D90761F44E5F5F4F888199815B
:104F1000480F591F518340838A819B8193838283E9
:104F20002115310509F0B0CFF0931E1AE0931D1A38
:104F30009ECFFD01DC01C0CF13821282D7CF4F92EA
:104F40005F926F927F928F929F92AF92BF92CF9219
:104F5000DF92EF92FF920F931F93CF93DF938C0119
:104F6000009799F4CB01DF91CF911F910F91FF90A2
:104F7000EF90DF90CF90BF90AF909F908F907F90F9
:104F80006F905F904F900C947A26FC01E60FF71F0C
:104F90009C0122503109E217F30708F4AEC0D90191
:104FA000CD91DC911197C617D70720F1C530D105F7
:104FB00078F0CE0104978617970750F0C61BD70BE1
:104FC0002297C193D1936D937C93CF010E941627B2
:104FD000C801DF91CF911F910F91FF90EF90DF906B
:104FE000CF90BF90AF909F908F907F906F905F9089
:104FF0004F9008955B01AC1ABD0A4C018C0E9D1EAA
:10500000A0911D1AB0911E1A512C412CF12CE12CAB
:10501000109731F580911B1A90911C1A88159905EB
:1050200009F05CC04616570608F058C0809101028E
:1050300090910202009741F48DB79EB7409105020E
:1050400050910602841B950BE817F90708F055C02C
:10505000F0931C1AE0931B1AF90171836083B8CF97
:105060008D919C91119712966C90129713967C904B
:105070001397A815B90559F56C0142E0C40ED11C6F
:10508000CA14DB0420F1AC014A195B09DA0112965B
:10509000159780F06282738251834083D9016D93AA
:1050A0007C93E114F10471F0D7011396FC93EE9315
:1050B00012978ECF22968C0F9D1FF90191838083CA
:1050C000F301EFCFF0931E1AE0931D1A81CF48161B
:1050D000590608F42C017D01D3019ACFCB010E941F
:1050E0007A267C01009749F0AE01B8010E9485281C
:1050F000C8010E94162787016BCF10E000E068CF3F
:1051000081E090E0F8940C945E2BFB01DC0102C07E
:1051100001900D9241505040D8F70895FB01DC01F9
:105120008D91019080190110D9F3990B0895FB011D
:10513000DC0101900D920020E1F70895FB015191EF
:105140005523A9F0BF01DC014D9145174111E1F74D
:1051500059F4CD010190002049F04D9140154111C5
:10516000C9F3FB014111EFCF81E090E00197089571
:105170002F923F924F925F926F927F928F929F9267
:10518000AF92BF92CF92DF92EF92FF920F931F9355
:10519000CF93DF9300D000D000D01F921F92CDB7E5
:1051A000DEB77C013B018A01FC01178216828381F4
:1051B00081FFDDC1CE0101965C01F7019381F3010E
:1051C00093FD859193FF81913F01882309F453C199
:1051D000853239F493FD859193FF81913F018532AA
:1051E00029F4B70190E00E94D02AE7CF912C212C1E
:1051F000312CFFE1F31538F08B3211F190F480324D
:1052000009F1833229F137FC3CC020ED280F2A3008
:1052100050F536FE20C08AE0989E200D1124922E73
:1052200006C08D3291F0803371F7689430F8F30145
:1052300093FD859193FF81913F018111DACF21C0C8
:10524000689431F8689432F8F2CF689433F8EFCF6D
:10525000689434F8ECCFEAE02E9E200D1124222E23
:10526000689435F8E4CF8E3229F436FC04C1689492
:1052700036F8DDCF8C3619F4689437F8D8CF8836F5
:10528000B1F2982F9F7D95549330E0F08336A1F1D1
:105290008337C1F1833509F063C02801F2E04F0E76
:1052A000511CF801C080D180692D70E036FC02C02D
:1052B0006FEF7FEFC6010E94BA2A4C01689437F85D
:1052C00082010AC00C5F1F4FFFE3F9838824839497
:1052D000912C6501E89437F833FE2DC0522C8114CF
:1052E000910471F5552009F468CFB70180E290E090
:1052F0000E94D02A5A94F6CFF801808189830E5FEC
:105300001F4FE4CF2801F2E04F0E511CF801C0807E
:10531000D180692D70E036FC02C06FEF7FEFC601CF
:105320000E94C52A4C018201D5CFB70180E290E0EE
:105330000E94D02A2A942814190409F0B0F7CECF7D
:10534000F60137FC859137FE81916F01B70190E03E
:105350000E94D02A51105A94F1E08F1A9108BFCFC1
:10536000843619F0893609F077C0F80137FE6BC032
:1053700060817181828193810C5F1F4FF32DFF76D5
:105380003F2E97FF09C090958095709561957F4F4E
:105390008F4F9F4F689437F82AE030E0A5010E94B4
:1053A000002BC82ECA188C2C432C36FE0CC0E89457
:1053B00040F8C91440F434FE05C032FC03C0F32D9C
:1053C000FE7E4F2E892C44FEAAC0FE01EC0DF11D7D
:1053D0008081803309F09CC0242D297E422E842DAB
:1053E0008870582E43FCAAC040FEA4C09C2C821496
:1053F00018F42C0C922C981844FEA6C0B70180E338
:1054000090E00E94D02A42FE09C088E790E041FE69
:1054100002C088E590E0B7010E94D02AC91408F4C0
:105420009FC0CA94D12C9FEFC91AD90ACA0CDB1CA1
:10543000F60182916F01B70190E00E94D02AAC146E
:10544000BD04B1F74FCF60817181072E000C880B2E
:10545000990B0E5F1F4F92CFD32CE894D4F82AE01B
:1054600030E08537E1F1232D297FD22E8F36A9F147
:10547000F0F4883551F1F701868197812B960FB6AC
:10548000F894DEBF0FBECDBFDF91CF911F910F917A
:10549000FF90EF90DF90CF90BF90AF909F908F9054
:1054A0007F906F905F904F903F902F90089580373E
:1054B00049F0883701F7D4FE02C06894D2F820E1A1
:1054C00030E00DC06894D4F8F6CF34FE03C0822FCC
:1054D0008660D82E20E132E002C028E030E0F801FA
:1054E000D7FE0FC060817181828193810C5F1F4F55
:1054F000A5010E94002BC82ECA183D2CE89437F84D
:1055000052CF6081718190E080E00E5F1F4FF0CF3D
:1055100042FC02C0839463CF8394839460CF842D34
:10552000867809F45CCFF6CFB70180E290E00E9464
:10553000D02A83948214C0F3512C5ECF522C581879
:10554000821408F459CFF8CF842D867809F466CFF9
:105550008BE241FE80E247FC8DE2B70190E05CCF38
:10556000B70180E390E00E94D02A9A9457CF8FEF42
:105570009FEF84CFFC010590615070400110D8F777
:10558000809590958E0F9F1F0895FC01615070408B
:1055900001900110D8F7809590958E0F9F1F089568
:1055A0000F931F93CF93DF93182F092FEB018B815C
:1055B00081FD09C01FEF0FEF812F902FDF91CF9159
:1055C0001F910F91089582FF14C02E813F818C811D
:1055D0009D81281739073CF4E881F981CF010196B4
:1055E0009983888310838E819F8101969F838E8308
:1055F000E3CFE885F985812F1995892BA1F3DACFBF
:10560000FA01AA27283051F1203181F1E8946F93F3
:105610006E7F6E5F7F4F8F4F9F4FAF4FB1E03ED099
:10562000B4E03CD0670F781F891F9A1FA11D680F37
:10563000791F8A1F911DA11D6A0F711D811D911D6A
:10564000A11D20D009F468943F912AE0269F1124DF
:105650003019305D3193DEF6CF010895462F477043
:10566000405D4193B3E00FD0C9F7F6CF462F4F709E
:10567000405D4A3318F0495D31FD4052419302D0FC
:10568000A9F7EACFB4E0A6959795879577956795A2
:10569000BA95C9F700976105710508959B01AC01A2
:1056A0000A2E06945795479537952795BA95C9F7C9
:1056B000620F731F841F951FA01D089513E0CDEE88
:1056C000D3E000E006C0802FFE010E9472262196E2
:1056D000011DCE3ED10780E00807A9F7F894FFCF5F
:1056E0000100001F1A8000000000003C07ED057754
:1056F00006A607CC058906A30600000000B30A0031
:1057000000000000000000930D380B620B00000049
:10571000006C0B840B000000008E0B950B0000004A
:10572000002F0A000000002708ED053D093B085C3A
:1057300008460851082609FD081209B1086708251E
:10574000080D0A00726561645F62697473007265B6
:1057500061645F696E7075745F626974730072650D
:1057600061645F696E7075745F7265676973746593
:10577000727300726561645F7265676973746572E4
:105780007300496C6C6567616C206E62206F6620E7
:1057900076616C75657320256420696E2025732001
:1057A000286D6178202564290A00496C6C65676161
:1057B0006C2064617461206164647265737320306D
:1057C0007825305820696E2025730A00496C6C6575
:1057D00067616C20646174612061646472657373D5
:1057E00020307825305820696E2077726974655FA3
:1057F0006269740A00496C6C6567616C206461744D
:10580000612076616C756520307825305820696E8E
:105810002077726974655F6269742072657175655D
:105820007374206174206164647265737320253021
:10583000580A00496C6C6567616C20646174612072
:105840006164647265737320307825305820696E06
:105850002077726974655F72656769737465720A2F
:1058600000496C6C6567616C206E756D62657220B5
:105870006F662076616C75657320256420696E20E3
:1058800077726974655F6269747320286D6178202E
:105890002564290A00496C6C6567616C2064617439
:1058A00061206164647265737320307825305820FC
:1058B000696E2077726974655F626974730A004962
:1058C0006C6C6567616C206E756D626572206F66C9
:1058D0002076616C75657320256420696E2077726F
:1058E0006974655F72656769737465727320286D8A
:1058F0006178202564290A00496C6C6567616C2019
:10590000646174612061646472657373203078250A
:10591000305820696E2077726974655F72656769B7
:1059200073746572730A004C4D42332E312E34006D
:10593000496C6C6567616C206E62206F66207661D1
:105940006C75657320285725642C20522564292006
:10595000696E2077726974655F616E645F726561FC
:10596000645F72656769737465727320286D61780E
:10597000205725642C20522564290A00496C6C6547
:1059800067616C2064617461207265616420616488
:105990006472657373203078253058206F722077D9
:1059A0007269746520616464726573732030782550
:1059B00030582077726974655F616E645F726561EB
:1059C000645F7265676973746572730A00556E6B04
:1059D0006E6F776E204D6F646275732066756E63AF
:1059E00074696F6E20636F64653A20307825305893
:0259F0000A00AB
:020000040003F7
:10E000000D9489F10D94B2F10D94B2F10D94B2F129
:10E010000D94B2F10D94B2F10D94B2F10D94B2F1F0
:10E020000D94B2F10D94B2F10D94B2F10D94B2F1E0
:10E030000D94B2F10D94B2F10D94B2F10D94B2F1D0
:10E040000D94B2F10D94B2F10D94B2F10D94B2F1C0
:10E050000D94B2F10D94B2F10D94B2F10D94B2F1B0
:10E060000D94B2F10D94B2F10D94B2F10D94B2F1A0
:10E070000D94B2F10D94B2F10D94B2F10D94B2F190
:10E080000D94B2F10D94B2F10D94B2F10D94B2F180
:10E090000D94B2F10D94B2F10D94B2F10D94B2F170
:10E0A0000D94B2F10D94B2F10D94B2F10D94B2F160
:10E0B0000D94B2F10D94B2F10D94B2F10D94B2F150
:10E0C0000D94B2F10D94B2F10D94B2F10D94B2F140
:10E0D0000D94B2F10D94B2F10D94B2F10D94B2F130
