:100000000C949C030C94CD030C94CD030C94CD0361
:100010000C94CD030C94CD030C94CD030C94CD0320
:100020000C94CD030C94CD030C94CD030C94CD0310
:100030000C94CD030C94CD030C94CD030C94CD0300
:100040000C94CD030C94CD030C94CD030C94CD03F0
:100050000C94CD030C94CD030C94CD030C94090B9C
:100060000C94CD030C94790C0C944F0C0C94CD0390
:100070000C94CD030C94CD030C94CD030C94CD03C0
:100080000C94CD030C94CD030C94CD030C94CD03B0
:100090000C94250C0C94FB0B0C94CD030C94CD0309
:1000A0000C94CD030C94CD030C94CD030C94CD0390
:1000B0000C94CD030C94CD030C94CD030C94CD0380
:1000C0000C94CD030C94CD030C94CD030C94D10B64
:1000D0000C94A70B0C94CD030C947D0B0C94530B38
:1000E0000C94CD030C9458050C9432050C948505A2
:1000F0000C944B040C9444050C94FF040C943006AF
:100100000C943D040C9471050C9420050C9441044E
:100110000C9422040C9419070C9416050C941A04E0
:100120000C9454040C9426040C9414040C94390478
:100130000C942A050C9499050C94FF060C94500716
:100140000C948F050C94A30C0C941E040C942F0497
:100150000C9425060C9447040C9407050C943A055E
:100160000C9455040C9433040C94D0070C944F0455
:100170000C9467050C944E050C94ED060C94460601
:100180000C947B050C94001B0C940C050C945904E6
:100190000C9429040D0A3D3D3D204E42494F542008
:1001A0005354415254203D3D3D005B537472696E7F
:1001B00067205370616365204E4F54204F4B5D00A4
:1001C0005B537472205370616365204F4B5D002B4D
:1001D000514D54524543563A002B514D54535542BC
:1001E0003A002B514D545055423A00300030002C0B
:1001F000003A20002B4353513A002B4345524547C8
:100200003A002B43474154543A002F6F75742C30F9
:100210000041542B514D545355423D302C312C72DA
:1002200067742F002C747377682C31576F3D5B36E1
:100230007641306D0041542B514D54434F4E4E3D4D
:10024000302C6465765F002B4347534E3A000D0A0D
:1002500046494E49534820524547554C415220503B
:1002600055424C495348002B514D545055423A2069
:10027000302C302C30003E000D0A46494E49534880
:100280002047455454494E47204345524547002B8B
:1002900043455245473A000D0A46494E49534820C6
:1002A00047455454494E47204347415454002B433B
:1002B000474154543A000D0A46494E495348204795
:1002C000455454494E4720435351002B4353513A10
:1002D000000D0A53554220544F504943204F4B00C4
:1002E0002B514D545355423A000D0A434F4E4E4543
:1002F00043544544204D515454002B514D54434FC9
:100300004E4E3A20302C302C30000D0A4F50454EC6
:100310004544204D515454002B514D544F50454E9F
:100320003A20302C30000D0A46494E4953482047A8
:10033000455454494E47204345524547002B4345B9
:100340005245473A000D0A46494E49534820474511
:100350005454494E47204347415454002B4347418E
:1003600054543A000D0A46494E49534820474554D3
:1003700054494E4720435351002B4353513A000DEB
:100380000A46494E4953482047455454494E472050
:10039000494D4549002B4347534E3A000D0A464903
:1003A0004E495348205345545550000D0A46494E76
:1003B0004953482057414954494E47204950002B42
:1003C00049503A005B534F46545F52455345545D84
:1003D000000D0A4558454355544520524547554C54
:1003E0004152205055424C4953480041542B4345FB
:1003F0005245473F000D0A5155455259494E472035
:1004000043455245470041542B43474154543F0014
:100410000D0A5155455259494E47204347415454BE
:100420000041542B435351000D0A5155455259492F
:100430004E4720435351000D0A46494E4953482028
:10044000494E4954204E42494F54000D0A535542DB
:1004500053435242494E4720544F5049432E2E2E6B
:10046000000D0A434F4E4E454354494E47204D51CF
:1004700054542E2E2E0041542B514D544F50454E66
:100480003D302C382E3231302E38342E32342C314F
:10049000383830000D0A4F50454E494E47204D51D7
:1004A00054542E2E2E0041542B43455245473F00B5
:1004B0000D0A47455454494E47204345524547008D
:1004C00041542B43474154543F000D0A474554546F
:1004D000494E472043474154540041542B43535104
:1004E000000D0A47455454494E472043535100419B
:1004F000542B4347534E3D31000D0A474554544950
:100500004E4720494D45490041542B514D544449D3
:1005100053433D300041542B514D54434C4F5345B0
:100520003D300041542B4345445258533D302C3507
:100530000041542B4353434F4E3D300041542B4315
:1005400050534D533D300041542B5153434C4B3D80
:10055000300041542B4346554E3D31000D0A534562
:100560005454494E47205550204E42494F54004163
:10057000542B5153434C4B3D30000D0A57414954C5
:10058000494E47204950002C002F696E2C004154E1
:100590002B514D545055423D302C302C302C302CAA
:1005A0007267742F007D0022616F7574223A002CEF
:1005B000002261696E223A002C0022646F75742259
:1005C0003A002C002264696E223A002C007B2263E0
:1005D0007371223A005D002C005B005D002C005B13
:1005E00000000020002300260029002C002F0032EC
:1005F00000000100000301060109015B48656C6C05
:100600006F2066726F6D205247542048656C6C6F86
:100610002066726F6D205247542048656C6C6F20C5
:1006200066726F6D205247545D00415400000021F6
:1006300000240027002A002D0030003300010100B3
:1006400000040107010A0100002200250028002BF8
:10065000002E003100340002010000050108010BEA
:100660000105050505070508080808020202020A37
:100670000A08080404040401010101010101010345
:1006800003030303030303040707070C0C0C0C0C00
:100690000C0C0C0202020206060606060606060BF3
:1006A0000B0B0B0B0B0B0B0102102020080810206A
:1006B00040102040800201020108040201010204EE
:1006C00008102040808040201008040201800402AD
:1006D0000180402010080402010804020101020404
:1006E0000810204080010204081020408000000A09
:1006F0000B02090C0D0E08070304010000000000A6
:1007000000000000000000000000000000000000E9
:1007100000000000000000000012111000000000A6
:1007200000000000000000000000000000000000C9
:1007300000000000A30C001B11241FBECFEFD1E26C
:10074000DEBFCDBF00E00CBF12E0A0E0B2E0E8EDFC
:10075000FCE300E00BBF02C007900D92A233B1078B
:10076000D9F726E1A2E3B2E001C01D92A539B20794
:10077000E1F713E0CBE9D3E000E006C021970109DF
:10078000802FFE010E94191CCA39D10780E008079A
:10079000A9F70E94FD0E0C945A1E0C940000FC0157
:1007A000A089B18982E08C93A485B5851C92A68529
:1007B000B7858FEC8C93108EA489B58986E08C93D5
:1007C000A289B3898C9180618C93A289B3898C9121
:1007D00088608C93A289B3898C9180688C930288FD
:1007E000F389E02D80818F7D80830895815082314F
:1007F00008F05AC0E82FF0E08827EE5FFB4F8F4FDC
:100800000C94191C2204260414041A041E04540413
:1008100029042F04330439043D04410447044B04E4
:1008200054044F0455045904809180008F778093BD
:1008300080000895809180008F7DF9CF80918000A5
:10084000877FF5CF84B58F7784BD089584B58F7D7C
:10085000FBCF8091B0008F778093B0000895809196
:10086000B0008F7DF9CF809190008F7780939000BA
:100870000895809190008F7DF9CF80919000877FBF
:10088000F5CF8091A0008F778093A000089580918C
:10089000A0008F7DF9CF8091A000877FF5CF809158
:1008A00020018F77809320010895809120018F7D12
:1008B000F9CF80912001877FF5CF1F93CF93DF93EE
:1008C000282F30E0F901E351F94F8491F901E955FE
:1008D000F94FD491F901EF59F94FC491CC23A9F004
:1008E000162F81110E94F603EC2FF0E0EE0FFF1F90
:1008F000E95BF94FA591B4918FB7F894EC91111180
:1009000008C0D095DE23DC938FBFDF91CF911F917C
:100910000895DE2BF8CFCF93DF9390E0FC01E955EB
:10092000F94F24918F59994FFC0184918823C9F084
:1009300090E0880F991FFC01E35DF94FA591B491F8
:10094000FC01E95BF94FC591D49161110DC09FB7CE
:10095000F8948C91209582238C9388812823288376
:100960009FBFDF91CF910895623051F49FB7F89403
:100970003C91822F809583238C93E8812E2BEFCF9F
:100980008FB7F894EC912E2B2C938FBFEACF1F9347
:10099000CF93DF93182FEB0161E00E948B04209727
:1009A00039F460E0812FDF91CF911F910C945D04A9
:1009B000CF3FD10511F461E0F5CFE12FF0E0E35135
:1009C000F94FE491E150E23108F0B3C0F0E088273C
:1009D000E351FB4F8F4F0C94191CFF0407050C05C6
:1009E0001605200599052A0532053A0544054E05E8
:1009F00058056705710599057B0585058F0584B543
:100A0000806884BDC7BDDF91CF911F91089584B5E3
:100A1000806284BDC8BDF7CF8091800080688093DC
:100A20008000D0938900C0938800EDCF8091800032
:100A3000806280938000D0938B00C0938A00E3CFC4
:100A400080918000886080938000D0938D00C09357
:100A50008C00D9CF8091B00080688093B000C093A3
:100A6000B300D1CF8091B00080628093B000C0937A
:100A7000B400C9CF80919000806880939000D0939B
:100A80009900C0939800BFCF8091900080628093BE
:100A90009000D0939B00C0939A00B5CF80919000B6
:100AA000886080939000D0939D00C0939C00ABCF52
:100AB0008091A00080688093A0008091A0008F7B2F
:100AC0008093A000D093A900C093A8009CCF8091F0
:100AD000A00080628093A000D093AB00C093AA00D6
:100AE00092CF8091A00088608093A000D093AD0049
:100AF000C093AC0088CF8091200180688093200152
:100B0000D0932901C09328017ECF8091200180627B
:100B100080932001D0932B01C0932A0174CF809140
:100B20002001886080932001D0932D01C0932C0177
:100B30006ACFC038D1050CF03ECF33CF863308F0F2
:100B4000865320917B00982F9870277F922B90934B
:100B50007B002091000290E4299F9001112487706E
:100B6000822B80937C0080917A00806480937A004D
:100B700080917A0086FDFCCF809178009091790079
:100B800008953FB7F8948091760290917702A091F2
:100B90007802B091790226B5A89B05C02F3F19F0C5
:100BA0000196A11DB11D3FBFBA2FA92F982F8827ED
:100BB000BC01CD01620F711D811D911D42E0660FC8
:100BC000771F881F991F4A95D1F708958F929F929A
:100BD000AF92BF92CF92DF92EF92FF926B017C01B6
:100BE0000E94C1054B015C01C114D104E104F10470
:100BF000B9F00E94C105681979098A099B09683E04
:100C000073408105910580F321E0C21AD108E10803
:100C1000F10888EE880E83E0981EA11CB11CE4CF79
:100C2000FF90EF90DF90CF90BF90AF909F908F900C
:100C300008952FB7F89460917202709173028091B9
:100C40007402909175022FBF0895FC01218D328DA1
:100C5000838D948DA901481B590BCA019170089589
:100C600081E0809332020895FC012481358162176E
:100C7000730748F480819181009729F0860F971FB0
:100C8000FC018081089580E008950895AF92BF929D
:100C9000CF92DF92EF92FF920F931F93CF93DF9348
:100CA0006C017B018B01040F151FEB015E01AE1877
:100CB000BF08C017D10759F06991D601ED91FC9199
:100CC0000190F081E02DC6011995892B79F7C501B6
:100CD000DF91CF911F910F91FF90EF90DF90CF9018
:100CE000BF90AF90089542E050E069E172E00C944B
:100CF00046060F931F93CF93DF93EC01FB014481D2
:100D00005581608171810E9446068C01CE010E944E
:100D10007306800F911FDF91CF911F910F9108955E
:100D20002091D50A3091D60A8091D70A9091D80A9D
:100D3000281B390B317081E0232B09F480E00895E2
:100D400020919302309194028091950290919602A5
:100D5000281B390B317081E0232B09F480E00895C2
:100D60002091F60E3091F70E8091F80E9091F90EC9
:100D7000281B390B317081E0232B09F480E00895A2
:100D80002091B4063091B5068091B6069091B706D1
:100D9000281B390B317081E0232B09F480E0089582
:100DA000FC01A089B1898C91A689B78982FD13C005
:100DB0002C91818D928D01969170438D548D841765
:100DC000950751F0A18DB28DAE0FBF1F91962C9358
:100DD000928F818F08958C9108954FB7F894FC01FC
:100DE000258D368D878D90A14FBF2817390728F0A4
:100DF00081509E4F821B930B08950197FBCFFC01FE
:100E0000218D328D838D948D2817390779F0A38D2C
:100E1000B48DAE0FBF1F91968C91238D348D2F5FB3
:100E20003F4F3170348F238F90E008958FEF9FEF05
:100E30000895FC01218D328D838D948D28173907FB
:100E400039F0838D948DE80FF91F81A190E008950A
:100E50008FEF9FEF0895FC01A78DB0A1A80FB91FD8
:100E6000AF5DBD4F2C91878D90A10196917090A39D
:100E7000878FA689B7892C93A089B1898C918370BB
:100E800080648C93258D368D878D90A12817390726
:100E900031F40288F389E02D80818F7D808308956D
:100EA000FF920F931F93CF93DF93EC0181E0888F24
:100EB0002D8D3E8D8F8D98A128173907C9F4E889AB
:100EC000F989808185FF14C09FB7F894EE89FF8966
:100ED0006083E889F98980818370806480839FBF03
:100EE00081E090E0DF91CF911F910F91FF900895E5
:100EF000F62E0D8D1E8D0F5F1F4F11708F8D98A1D7
:100F00008017910761F40FB607FCF8CFE889F989DB
:100F1000808185FFF3CFCE010E942B07EFCFED8DAF
:100F2000FE8DEC0FFD1FEF5DFD4FF0829FB7F89433
:100F30001E8F0D8FEA89FB8980818062CFCFEF926F
:100F4000FF920F931F93CF93DF938C017B01D0E02F
:100F5000C0E0F701EC0FFD1F6491662339F0C80172
:100F60000E945007892B11F02196F3CFCE01DF911B
:100F7000CF911F910F91FF90EF9008950F931F93C2
:100F8000CF93DF93EC010E949F078C01CE010E945A
:100F90007306800F911FDF91CF911F910F910895DC
:100FA000CF93DF93EC01888D8823B9F0AA89BB89A0
:100FB000E889F9898C9185FD03C0808186FD0DC08B
:100FC0000FB607FCF7CF8C9185FFF2CF808185FFAC
:100FD000EDCFCE010E942B07E9CFDF91CF9108958D
:100FE000BC018DED9EE00E9479068DED9EE00E9491
:100FF000D00762E070E080E090E00C94E60580E0CD
:1010000090E0892B29F00E94C00681110E94000007
:1010100080E090E0892B29F00E94B00681110E94A7
:10102000000080E090E0892B29F00E94A006811149
:101030000E94000080E090E0892B29F00E94900639
:1010400081110C9400000895CF93DF93EC010E946E
:101050001906688379838A839B83DF91CF910895F2
:10106000982F80ED890F8A3070F08FEB890F8630D2
:1010700018F489EC890F08958FE9890F863010F4F0
:1010800089EAF8CF80E00895EF92FF920F931F93C3
:10109000CF93DF938C01FC01E480F580D0E0C0E0C9
:1010A000EC16FD0661F0BE01C8010E943406082E50
:1010B000000C990BC0970A9750F42196F1CF81E06C
:1010C000DF91CF911F910F91FF90EF90089580E0F5
:1010D000F7CF8F929F92AF92BF92CF92DF92EF9213
:1010E000FF92CF93DF93EC016A017B010E94190606
:1010F0008C809D80AE80BF809B01AC01281939098E
:101100004A095B0949015A018885811108C00E947A
:1011100019066C837D838E839F8381E08887C81442
:10112000D904EA04FB0408F418860E9419068C808E
:101130009D80AE80BF80681979098A099B0921E0EA
:10114000C616D706E806F90608F020E0822FDF91E0
:10115000CF91FF90EF90DF90CF90BF90AF909F9096
:101160008F900895CF93DF93FC012181222331F0EA
:10117000EC0160E080810E945D041982DF91CF91D3
:101180000895CF93DF93FC012181211107C0EC0169
:1011900061E080810E945D0481E08983DF91CF91CD
:1011A0000895CF93DF93EC01862F6883198261E065
:1011B0000E948B04CE01DF91CF910C94B208CF93A3
:1011C000DF93FC0124813581232B81F0C081D18103
:1011D00060918E1370918F13CE010E94401E009774
:1011E00029F08C1B9D0BDF91CF9108958FEF9FEF1E
:1011F000FACFFC0124813581232B39F421E0FB0156
:101200008081882349F020E007C0808191810E947D
:10121000301E21E0892BB9F7822F08950F931F9379
:10122000CF93DF938C01EB01FC01808191810097CA
:10123000E1F06881798161157105A9F042815381DE
:101240002C813D814217530770F00E94391E8C811A
:101250009D81F801958384831D821C82DF91CF914B
:101260001F910F9108950E94BD1C88819981F801FA
:10127000918380838A819B81938382838C819D81EA
:1012800095838483198218821B821A82E5CFCF93BB
:10129000DF93EC0188819981009711F00E94BD1CB9
:1012A000198218821D821C821B821A82DF91CF91C3
:1012B0000895FC0180819181009711F00C94BD1C70
:1012C00008950F931F93CF93DF93EC018881998149
:1012D000009759F02A813B812617370730F081E0CB
:1012E000DF91CF911F910F9108958B016F5F7F4F19
:1012F0000E94461D009759F0998388831B830A83B7
:101300002C813D81232B59F7FC011082E8CF80E02E
:10131000E7CFEF92FF920F931F93CF93DF93611567
:10132000710541F480E0DF91CF911F910F91FF9003
:10133000EF9008957B01EC01CB010E94761B009792
:10134000A9F00C811D81080F191FB801CE010E9460
:101350006109882339F3288139818C819D81B70106
:10136000820F931F0E946F1B1D830C8381E0DBCFD4
:10137000EF92FF920F931F93CF93DF936115710547
:1013800041F480E0DF91CF911F910F91FF90EF909A
:10139000089541155105B1F07B01EC010C811D81CF
:1013A000040F151FB8010E946109882351F3288199
:1013B00039818C819D81B701820F931F0E94391E54
:1013C0001D830C8381E0DECF0F931F93CF93DF93B8
:1013D00000D01F92CDB7DEB74AE08E010F5F1F4FDE
:1013E000B80190E00E947F1BF80101900020E9F70E
:1013F0003197AF01401B510BB8018EE593E10E947C
:10140000B8090F900F900F900F90DF91CF911F911F
:101410000F910895EF92FF920F931F93CF93DF9355
:1014200000D000D01F92CDB7DEB77C01CB014AE0DF
:101430008E010F5F1F4FB8010E949F1BF8010190A2
:101440000020E9F73197AF01401B510BB801C701EC
:101450000E94B80927960FB6F894DEBF0FBECDBF25
:10146000DF91CF911F910F91FF90EF900895FB01B5
:1014700044815581608171810C94B809EF92FF928B
:101480000F931F93CF93DF93EC018B0161157105CF
:1014900051F0CB010E94761B7C01BC01CE010E9461
:1014A000610981110BC0CE010E944709CE01DF9175
:1014B000CF911F910F91FF90EF900895FD82EC82E4
:1014C000B801888199810E946F1BF0CFFC011182C5
:1014D000108213821282158214820C943E0AEF92BB
:1014E000FF920F931F93CF93DF93EC017B018A014F
:1014F000BA010E94610981110BC0CE010E94470907
:10150000CE01DF91CF911F910F91FF90EF90089541
:101510001D830C83B701888199810E94391EF0CF09
:10152000FC0111821082138212821582148250E013
:1015300040E06BE172E00C946F0AFB010190002027
:10154000E9F73197AF01461B570B0C946F0ACF9206
:10155000DF92EF92FF920F931F93CF93DF936C0173
:101560007B018A014617570720F48F2D7A01062F39
:10157000182FC6010E94900AC0918C13D0918D1330
:10158000EC16FD06F8F40C171D0708F4E801E091CD
:101590008813F0918913EC0FFD1F10811082609168
:1015A0008813709189136E0D7F1DC6016115710539
:1015B00099F00E949D0A8091881390918913C80F19
:1015C000D91F1883C601DF91CF911F910F91FF9012
:1015D000EF90DF90CF9008950E944709ECCF8DEDFA
:1015E0009EE00E94FF06181619063CF461E070E0C8
:1015F00080E090E00E94E605F2CF6BE172E088E8BF
:1016000093E10E949D0A6AE070E080E090E00C9413
:10161000E6051F920F920FB60F9211242F933F935E
:101620008F939F93AF93BF938091720290917302B7
:10163000A0917402B09175023091710223E0230FE2
:101640002D3758F50196A11DB11D2093710280938D
:10165000720290937302A0937402B093750280910A
:10166000760290917702A0917802B091790201966A
:10167000A11DB11D8093760290937702A09378020A
:10168000B0937902BF91AF919F918F913F912F912C
:101690000F900FBE0F901F90189526E8230F02960B
:1016A000A11DB11DD2CF1F920F920FB60F92112420
:1016B0000BB60F922F933F934F935F936F937F934C
:1016C0008F939F93AF93BF93EF93FF938CEB9AE02D
:1016D0000E942B07FF91EF91BF91AF919F918F9146
:1016E0007F916F915F914F913F912F910F900BBE22
:1016F0000F900FBE0F901F9018951F920F920FB66C
:101700000F9211240BB60F922F933F934F935F9339
:101710006F937F938F939F93AF93BF93EF93FF93B9
:101720008CEB9AE00E94D006FF91EF91BF91AF91B0
:101730009F918F917F916F915F914F913F912F91E9
:101740000F900BBE0F900FBE0F901F9018951F9219
:101750000F920FB60F9211240BB60F922F933F9357
:101760004F935F936F937F938F939F93AF93BF93A9
:10177000EF93FF938AE792E00E942B07FF91EF918E
:10178000BF91AF919F918F917F916F915F914F9199
:101790003F912F910F900BBE0F900FBE0F901F9097
:1017A00018951F920F920FB60F9211240BB60F923D
:1017B0002F933F934F935F936F937F938F939F9359
:1017C000AF93BF93EF93FF938AE792E00E94D00616
:1017D000FF91EF91BF91AF919F918F917F916F9109
:1017E0005F914F913F912F910F900BBE0F900FBEC5
:1017F0000F901F9018951F920F920FB60F92112401
:101800000BB60F922F933F934F935F936F937F93FA
:101810008F939F93AF93BF93EF93FF938DED9EE0D4
:101820000E942B07FF91EF91BF91AF919F918F91F4
:101830007F916F915F914F913F912F910F900BBED0
:101840000F900FBE0F901F9018951F920F920FB61A
:101850000F9211240BB60F922F933F934F935F93E8
:101860006F937F938F939F93AF93BF93EF93FF9368
:101870008DED9EE00E94D006FF91EF91BF91AF9158
:101880009F918F917F916F915F914F913F912F9198
:101890000F900BBE0F900FBE0F901F9018951F92C8
:1018A0000F920FB60F9211240BB60F922F933F9306
:1018B0004F935F936F937F938F939F93AF93BF9358
:1018C000EF93FF938BE996E00E942B07FF91EF9136
:1018D000BF91AF919F918F917F916F915F914F9148
:1018E0003F912F910F900BBE0F900FBE0F901F9046
:1018F00018951F920F920FB60F9211240BB60F92EC
:101900002F933F934F935F936F937F938F939F9307
:10191000AF93BF93EF93FF938BE996E00E94D006BD
:10192000FF91EF91BF91AF919F918F917F916F91B7
:101930005F914F913F912F910F900BBE0F900FBE73
:101940000F901F9018950F931F93CF93DF93ECEB9D
:10195000FAE01382128248EE53E060E070E04483C4
:101960005583668377838BE092E09183808325E3C0
:1019700031E03587248724E331E03787268720E369
:1019800031E0318B208B21E331E0338B228B22E35A
:1019900031E0358B248B26E331E0378B268B128E9A
:1019A000118E148E138E168E158E10A2178EEAE7E6
:1019B000F2E0138212824483558366837783918396
:1019C000808325ED30E03587248724ED30E03787AC
:1019D000268720ED30E0318B208B21ED30E0338BFA
:1019E000228B22ED30E0358B248B26ED30E0378BD7
:1019F000268B128E118E148E138E168E158E10A2BB
:101A0000178EEDEDFEE013821282448355836683C8
:101A10007783918380832DEC30E0358724872CEC0D
:101A200030E03787268728EC30E0318B208B29EC9B
:101A300030E0338B228B2AEC30E0358B248B2EEC7C
:101A400030E0378B268B128E118E148E138E168EED
:101A5000158E10A2178EEBE9F6E0138212824483F2
:101A60005583668377839183808385EC90E09587A7
:101A7000848784EC90E09787868780EC90E0918B58
:101A8000808B81EC90E0938B828B82EC90E0958B45
:101A9000848B86EC90E0978B868B128E118E148E41
:101AA000138E168E158E10A2178EC1E6D6E180E237
:101AB0008883198260E00E948B0481E28E831F82FA
:101AC00060E00E948B0482E28C871D8660E00E94A9
:101AD0008B0483E28A8B1B8A60E00E948B0484E281
:101AE000888F198E60E00E948B0485E28E8F1F8E96
:101AF00060E00E948B0486E28CA31DA260E00E943D
:101B00008B0487E28AA71BA660E00E948B0468E230
:101B100081E596E10E94D10869E283E596E10E94A1
:101B2000D1086AE285E596E10E94D1086BE287E57B
:101B300096E10E94D1086CE289E596E10E94D10805
:101B40006DE28BE596E10E94D1086EE28DE596E1AB
:101B50000E94D1086FE28FE596E10E94D108C5E4AA
:101B6000D6E184E0888361E00E948B0485E08B836A
:101B700061E00E948B0486E08E8361E00E948B040A
:101B800087E0898761E00E948B0405EA13E186E320
:101B9000F8018083C1E0C18360E00E948B0487E389
:101BA000F80180AFC1AF60E00E948B0488E38093AE
:101BB0001514C093161460E00E948B0489E380938F
:101BC0004D14C0934E1460E00E948B048AE380930E
:101BD0008514C093861460E00E948B048BE380938D
:101BE000BD14C093BE1460E00E948B048CE380930C
:101BF000F514C093F61460E00E948B048DE380938B
:101C00002D15C0932E1560E00E948B048EE3809307
:101C10006515C093661560E00E948B048FE3809386
:101C20009D15C0939E1560E00E948B0480E4809314
:101C3000D515C093D61560E00E948B0481E4809393
:101C40000D16C0930E1660E00E948B0400EA13E1AB
:101C50008BE1F801808362E00E948B048CE1F80143
:101C6000818362E00E948B048DE1F801828362E04F
:101C70000E948B048EE1F801838362E00E948B0452
:101C80008FE1F801848362E00E948B048AE993E18A
:101C90000E94900A84E993E10E94900A8EE893E101
:101CA0000E94900A88E893E10E94900A82E893E1FA
:101CB0000E94900A8CE793E10E94900A86E793E1E4
:101CC0000E94900A80E793E10E94900A8AE693E1DD
:101CD0000E94900A84E693E10E94900A8EE593E1C7
:101CE0000E94900A88E593E10E94900A82E593E1C0
:101CF0000E94900A8CE493E10E94900A86E493E1AA
:101D00000E94900A80E493E10E94900A8AE393E1A2
:101D10000E94900A84E393E10E94900AE9E2F3E1D1
:101D20001482158216821782108680E395E7A0E060
:101D3000B0E080839183A283B38312861186E0E2B0
:101D4000F3E180E197E2A0E0B0E080839183A28399
:101D5000B38314821582168217821086E7E1F3E1BD
:101D600088EB9BE0A0E0B0E080839183A283B38303
:101D700014821582168217821086EEE0F3E18083CA
:101D80009183A283B38314821582168217821086F0
:101D90000E941906E6E0F3E16083718382839383F6
:101DA00015821482C6831782CEEFD2E1188288E1B1
:101DB00089831A8281E090E09C838B831E821D823E
:101DC0001F828DED9EE00E94CF0361E089810E9419
:101DD0008B0461E089810E945D0461E086E10E94DC
:101DE0008B0460E086E10E945D048CEB9AE0DF9159
:101DF000CF911F910F910C94CF03CF93DF9300D01D
:101E000000D0CDB7DEB7789484B5826084BD84B548
:101E1000816084BD85B5826085BD85B5816085BDE5
:101E200080916E00816080936E001092810080919D
:101E30008100826080938100809181008160809325
:101E40008100809180008160809380008091B1004A
:101E500084608093B1008091B00081608093B00075
:101E600080919100826080939100809191008160C7
:101E70008093910080919000816080939000809188
:101E8000A10082608093A1008091A1008160809375
:101E9000A1008091A00081608093A0008091210129
:101EA00082608093210180912101816080932101D2
:101EB0008091200181608093200180917A0084606C
:101EC00080937A0080917A00826080937A0080917A
:101ED0007A00816080937A0080917A008068809394
:101EE0007A001092C1008BE996E00E94CF03109215
:101EF000000268E070E086E793E10E94610968E013
:101F000070E08AE693E10E94610968E070E084E68F
:101F100093E10E94610968E070E086E493E10E9429
:101F2000610968E070E080E493E10E94610968E083
:101F300070E08CE493E10E94610960E270E080E768
:101F400093E10E94610960E270E08EE893E10E94F3
:101F5000610960E470E084E993E10E94610960E452
:101F600070E082E893E10E94610960E470E08CE730
:101F700093E10E94610960E470E088E593E10E94CA
:101F8000610960E870E08AE993E10E94610960E814
:101F900070E08AE393E10E94610960E870E088E8FC
:101FA00093E10E94610960E071E08EE593E10E9497
:101FB000610960E072E082E593E10E94610960E0FE
:101FC00074E084E393E10E94610960EC71E08111A7
:101FD00002C06AEA71E08BE996E00E949F0764E91B
:101FE00071E08BE996E00E94BE0711E01093311377
:101FF00080E396E090933313809332130E94EF0AAC
:102000001093FE128AE792E00E94CF0385E496E1E6
:10201000A5EAEA2EA3E1FA2EF7011182F8E3EF0E0A
:10202000F11C8E159F05C1F788E199E20FB6F8946F
:10203000A895809360000FBE90936000F6E08F2E0D
:10204000912C54E0C52ED12C64E1262E312C72E166
:10205000472E512CECE06E2E712C80913113882389
:1020600039F10E94190600912D1310912E13209121
:102070002F1330913013601B710B820B930B009167
:10208000291310912A1320912B1330912C1306172A
:1020900017072807390760F4E0913213F0913313E2
:1020A000309709F427C319958DE293E10E94240823
:1020B0008091011390910213019709F05EC06BE1CA
:1020C00072E088E893E10E949D0A6BE172E082E889
:1020D00093E10E949D0A6BE172E08CE793E10E941C
:1020E0009D0A6BE172E086E793E10E949D0A6BE135
:1020F00072E080E793E10E949D0A6BE172E08AE65C
:1021000093E10E949D0A6BE172E084E693E10E94F4
:102110009D0A6BE172E08EE593E10E949D0A6BE1FE
:1021200072E088E593E10E949D0A6BE172E082E52E
:1021300093E10E949D0A1092051360E08091FF12C6
:102140000E945D0448EE53E060E070E080E293E1BD
:102150000E946908882389F061E08091FF120E9443
:102160005D0482E090E0909302138093011364E693
:1021700070E080E090E00E94E6058091011390916C
:102180000213029721F548EE53E060E070E080E230
:1021900093E10E9469088823D1F06AE775E08BE932
:1021A00096E00E94BE076FE675E0CE0101960E94A0
:1021B000660ACE0101960E94F007CE0101960E94A8
:1021C000590983E090E0909302138093011380916A
:1021D000011390910213049709F06EC06CE575E04D
:1021E0008BE996E00E94BE0762E575E0CE0101969C
:1021F0000E94660ACE0101960E94F007CE01019668
:102200000E94590967E475E0CE0101960E94660AB2
:10221000CE0101960E94F007CE0101960E94590955
:102220006CE375E0CE0101960E94660ACE0101962C
:102230000E94F007CE0101960E94590961E375E002
:10224000CE0101960E94660ACE0101960E94F00717
:10225000CE0101960E94590963E275E0CE01019614
:102260000E94660ACE0101960E94F007CE010196F7
:102270000E94590965E175E0CE0101960E94660A47
:10228000CE0101960E94F007CE0101960E945909E5
:1022900068E075E0CE0101960E94660ACE010196C3
:1022A0000E94F007CE0101960E94590985E090E056
:1022B0009093021380930113809101139091021364
:1022C000069721F548EE53E060E070E080E293E18C
:1022D0000E9469088823D1F069EF74E08BE996E0E9
:1022E0000E94BE076FEE74E0CE0101960E94660A5E
:1022F000CE0101960E94F007CE0101960E94590975
:1023000087E090E090930213809301138091011372
:1023100090910213089721F548EE53E060E070E0D9
:1023200080E293E10E9469088823D1F061EE74E0B5
:102330008BE996E00E94BE076AED74E0CE0101963B
:102340000E94660ACE0101960E94F007CE01019616
:102350000E94590989E090E0909302138093011341
:1023600080910113909102130A9721F548EE53E0F2
:1023700060E070E080E293E10E9469088823D1F078
:102380006AEC74E08BE996E00E94BE0760EC74E0B2
:10239000CE0101960E94660ACE0101960E94F007C6
:1023A000CE0101960E9459098BE090E090930213B0
:1023B0008093011380910113909102130C9721F5E2
:1023C00048EE53E060E070E080E293E10E9469082B
:1023D0008823D1F060EB74E08BE996E00E94BE07A1
:1023E00066EA74E0CE0101960E94660ACE0101966B
:1023F0000E94F007CE0101960E9459098DE090E0FD
:102400009093021380930113809101139091021312
:102410000E9721F548EE53E060E070E080E293E132
:102420000E9469088823D1F064E974E08BE996E0A2
:102430000E94BE0766E774E0CE0101960E94660A1C
:10244000CE0101960E94F007CE0101960E94590923
:102450008FE090E090930213809301138091011319
:10246000909102134097D1F448EE53E060E070E0A1
:1024700080E293E10E946908882381F061E674E0BC
:102480008BE996E00E94BE0782E893E10E94F00784
:1024900081E190E0909302138093011380910113E6
:1024A00090910213429781F46BE474E08BE996E01B
:1024B0000E94BE078CE793E10E94F00783E190E061
:1024C0009093021380930113809101139091021352
:1024D000449779F481E08093FE1285E190E0909337
:1024E00002138093011367E374E08BE996E00E9486
:1024F000BE078091011390910213459709F0BDC06A
:102500008091031390910413892B21F548E853E13E
:1025100060E070E080E293E10E9469088823D1F0D6
:1025200068E274E08BE996E00E94BE0761E274E025
:10253000CE0101960E94660ACE0101960E94F00724
:10254000CE0101960E94590981E090E09093041316
:10255000809303138091031390910413029721F544
:1025600048E853E160E070E080E293E10E9469088E
:102570008823D1F060E174E08BE996E00E94BE0709
:1025800066E074E0CE0101960E94660ACE010196D3
:102590000E94F007CE0101960E94590983E090E065
:1025A0009093041380930313809103139091041369
:1025B000049721F548E853E160E070E080E293E1A0
:1025C0000E9469088823D1F065EF73E08BE996E0FB
:1025D0000E94BE076BEE73E0CE0101960E94660A70
:1025E000CE0101960E94F007CE0101960E94590982
:1025F00085E090E09093041380930313809103137C
:10260000909104130697E9F448EC52E360E070E01F
:1026100080E293E10E946908882399F061ED73E0FC
:102620008BE996E00E94BE0788E593E10E94F007DF
:1026300081E08093051387E090E0909304138093EA
:10264000031380910313909104130897B1F440EDA4
:1026500057E060E070E080E293E10E94690888231F
:1026600061F08EE593E10E94F0071092051389E076
:1026700090E090930413809303138091F60E909151
:10268000F70E2091F80E3091F90E821B930B91708A
:10269000892B09F43EC048E0A42EB12C8091F60E9F
:1026A0009091F70E2091F80E3091F90E821B930B4A
:1026B0009170892B71F18DED9EE00E94FF06182F1D
:1026C00080910013882329F0612F8BE996E00E9406
:1026D00050071D3009F431C41A3001F319831A82EE
:1026E00041E050E0BE016F5F7F4F88E893E10E94B8
:1026F000B809D4CF88E198E00FB6F894A8958093F4
:1027000060000FBE90936000FFCF60E070E0CB01EF
:10271000C8C6809132028823A1F00E94EF0A10926D
:10272000320281E090E090930213809301131092A3
:1027300004131092031364EC73E08BE996E00E949B
:10274000BE078091FE12811107C06AE070E080E050
:1027500090E00E94E60581CC8091011380933502C0
:1027600021E6C22E26E1D22E31E9A32E36E1B32E88
:102770008601F801208130E0F901E351F94F84919D
:10278000F901E955F94F6490F901EF59F94F749047
:10279000772009F459C281110E94F603E72DF0E079
:1027A000EE0FFF1FEF51FA4FA591B491EC916E22FD
:1027B00081E009F480E0782EF8018181781609F42F
:1027C00045C20E941906F801228133814481558156
:1027D000621B730B840B950B6333710581059105A7
:1027E00008F071820A5F1F4FA016B10609F0C1CF31
:1027F00005EA13E1F8018181E0E4AE2EB12C412C11
:10280000512C3201813009F029C2A12CBB24B39490
:10281000412C512C3201F80180810E949E05092E25
:10282000000CAA0BBB0B480E591E6A1E7B1EF1E062
:10283000AF1AB10881F7B4E076946794579447943F
:10284000BA95D1F7F80153824282349681E090E044
:102850002281338121933193019688319105C1F70B
:10286000F80153AA42AA60E070E0CB0150E040E0DA
:10287000FA01EE0FFF1FE00FF11F24813581620F77
:10288000731F811D911D4F5F5F4F4831510581F7C7
:1028900028E130E040E050E00E94E81BF80135AB51
:1028A00024AB085C1F4FE016F10609F0A3CF40E00F
:1028B00090E080E021E030E0F6015181511120E00C
:1028C000082E01C0220F0A94EAF7422B0196F6E087
:1028D000CF0ED11C8830910569F740933402E1E5B1
:1028E000F6E140E030E020E08181022E01C0880F57
:1028F0000A94EAF7482B2F5F3F4F32962830310574
:1029000099F7409333026FED75E08AE993E10E94F5
:102910003E0A05EA13E1D12CC12CF80154A945A9BE
:102920008181813009F0B5C1252F342F203CFEE391
:102930003F0710F02FEB3EE3AFEFBFE00E940A1C11
:102940002FEB3EE340E050E00E94C91BF80137AB9B
:1029500026ABF80166A977A98AE993E10E940A0AE1
:10296000FBE0CF16D10431F06DED75E08AE993E11B
:102970000E9489092FEFC21AD20A085C1F4F3CE05F
:10298000C316D10451F66BED75E08AE993E10E941C
:10299000890969ED75E084E993E10E943E0A65E4E6
:1029A000C62E66E1D62E560110E000E0F5016181E9
:1029B000728184E993E10E940A0A0330110531F023
:1029C00067ED75E084E993E10E9489090F5F1F4F6D
:1029D000F3E0AF0EB11C0430110541F765ED75E071
:1029E00084E993E10E94890980910513811156C001
:1029F0006DEC75E08EE593E10E943E0A66E773E1B7
:102A00008EE593E10E94370A6BEC75E08EE593E169
:102A10000E94890964EC75E08EE593E10E948909C2
:102A2000809134020E94E40962EC75E08EE593E146
:102A30000E9489096AEB75E08EE593E10E9489099D
:102A4000809133020E94E40968EB75E08EE593E122
:102A50000E94890961EB75E08EE593E10E94890986
:102A60006AE973E18EE593E10E94370A6FEA75E047
:102A70008EE593E10E94890967EA75E08EE593E1AE
:102A80000E94890964E973E18EE593E10E94370AA7
:102A900065EA75E08EE593E10E9489096EE875E0CC
:102AA00088E593E10E943E0A60E773E188E593E1DF
:102AB0000E94370A69E875E088E593E10E94890978
:102AC000609162137091631388E593E10E940A0A92
:102AD00060915813709159136115710509F4E5C09F
:102AE00040915C1350915D1382E593E10E946F0A5F
:102AF00067E875E082E593E10E9489096EE573E17C
:102B000082E593E10E94370A80915013909151130E
:102B1000892B09F465C070E060E08CE493E10E94C9
:102B20003406A82E61E070E08CE493E10E94340644
:102B3000182F63E070E08CE493E10E943406082FC4
:102B400064E070E08CE493E10E943406B82E24E443
:102B5000A212D8C01A3309F0C2C0802F0E943008D8
:102B6000182F8B2D0E94300840E1149F90011124F2
:102B7000182F122B8FE596E110FD9CC00E94B20821
:102B80008DE596E111FD99C00E94B2088BE596E1B2
:102B900012FD96C00E94B20889E596E113FD93C02C
:102BA0000E94B20887E596E114FD90C00E94B20829
:102BB00085E596E115FD8DC00E94B20883E596E19A
:102BC00016FD8AC00E94B20881E596E117FD97C004
:102BD0000E94B2086BE172E08CE493E10E949D0ACE
:102BE00060E086E10E945D0461E070E080E090E0DA
:102BF0000E94E6050091D50A1091D60A8091D70A65
:102C00009091D80A081B190B11700115110509F4D0
:102C10009FC08CEB9AE00E94FF06182F682F8BE96B
:102C200096E00E9450071D3009F4C9C41A3011F310
:102C300019831A8241E050E0BE016F5F7F4F8AE343
:102C400093E10E94B809D6CF712CB6CD0E94190627
:102C5000F8016283738384839583C4CDF8018081F6
:102C60000E949E05092E000CAA0BBB0B480E591E94
:102C70006A1E7B1EF1E0AF1AB10881F776E0769408
:102C80006794579447947A95D1F7F80155AA44AAC6
:102C900008CE852F942F8115F4E09F0710F08FEF59
:102CA00093E0F80197AB86AB54CE82E593E10E94A6
:102CB00047091ECF0E94C10863CF0E94C10866CF9A
:102CC0000E94C10869CF0E94C1086CCF0E94C10850
:102CD0006FCF0E94C10872CF0E94C10875CF8FECE0
:102CE000810F883008F076CFE12FE153FF0BCF0141
:102CF000880F991F8F5A994E003309F469CF0E94AB
:102D0000C10868CFF1E4AF1265CF8FEC810F853039
:102D100008F060CF802F0E943008082F8B2D0E9472
:102D2000300820E1029FB0011124682B412F41534C
:102D3000550BCA01FA01EE0FFF1FE80FF91FEB5BFD
:102D4000F94E70E07283618380810E94C70442CF94
:102D50000E9419062B013C0180916D0290916E0238
:102D6000A0916F02B0917002A3019201281B390B50
:102D70004A0B5B0BDA01C901813D9740A105B10502
:102D800008F47FC0809176139091771360E00097EC
:102D900011F00E94481B8BE580933602809135022A
:102DA0008093370260933802809134028093390215
:102DB0008091330280933A02E6E3F2E0A5EAB3E1C0
:102DC000D6968C91D697D7969C91D79795838683E4
:102DD000D896329642E0EE34F40791F78091461689
:102DE0009091471690935302809354028091491614
:102DF00090914A16909355028093560280914C16FA
:102E000090914D16909357028093580280914F16DF
:102E1000909150169093590280935A023BE5A32E4D
:102E200032E0B32EB80180E793E10E943406F50149
:102E300081935F010F5F1F4F0031110599F7E7E3A1
:102E4000F2E095E380E0915019F02191820FFBCFE1
:102E500080936B028DE580936C0247E350E066E35C
:102E600072E08AE792E00E9446068AE792E00E94BA
:102E7000D00740926D0250926E0260926F02709283
:102E8000700240ED57E060E070E087E193E10E945E
:102E900069088823D1F080910A1390910B13880F51
:102EA000991F8F5A994E20910C132223C1F10E9431
:102EB000C10880910A1390910B138730910591F10D
:102EC000019690930B1380930A1348E052E060E060
:102ED00070E08EE093E10E9469088823B1F0609170
:102EE0000D1370E0F6017283618380810E94C70434
:102EF000F3E0CF0ED11C21E5C21626E1D20679F708
:102F000080910D138B5F80930D13A8956AE070E09C
:102F100080E090E00E94E6050E94FF0792C80E94B0
:102F2000B208C7CF10920B1310920A1380910C13A2
:102F300091E0892780930C13C8CF80910113909161
:102F400002130397D1F46FEB73E08EE893E10E94D4
:102F50003E0A88E893E10E94DF0897FD0EC06BEA05
:102F600073E08BE996E00E94BE07D0920213C092F4
:102F700001138DE293E10E94240880910113909146
:102F80000213059771F46CE973E08BE996E00E94F7
:102F9000BE0790920213809201138DE293E10E948A
:102FA000240880910113909102130797D1F465E9E9
:102FB00073E08EE893E10E943E0A88E893E10E9464
:102FC000DF0897FD0EC06FE773E08BE996E00E9483
:102FD000BE07B0920213A09201138DE293E10E940A
:102FE000240880910113909102130997E1F469E795
:102FF00073E08EE893E10E943E0A88E893E10E9424
:10300000DF0897FD10C064E673E08BE996E00E944C
:10301000BE072AE030E030930213209301138DE2C3
:1030200093E10E94240880910113909102130B9761
:10303000D1F46CE573E08EE893E10E943E0A88E8E3
:1030400093E10E94DF0897FD0EC065E473E08BE911
:1030500096E00E94BE0770920213609201138DE207
:1030600093E10E94240880910113909102130D971F
:10307000E1F46DE373E08EE893E10E943E0A88E894
:1030800093E10E94DF0897FD10C066E273E08BE9D0
:1030900096E00E94BE074EE050E05093021340932A
:1030A00001138DE293E10E94240880910113909115
:1030B00002130F97E1F468E173E08EE893E10E9458
:1030C0003E0A88E893E10E94DF0897FD10C06AE09D
:1030D00073E08BE996E00E94BE0780E190E0909358
:1030E0000213809301138DE293E10E9424088091E2
:1030F0000113909102134197D1F46AEF72E08EE8C8
:1031000093E10E943E0A88E893E10E94DF0897FD60
:103110000EC069EE72E08BE996E00E94BE07509205
:103120000213409201138DE293E10E9424088091E2
:103130000113909102134397D1F460EE72E08EE890
:1031400093E10E943E0A88E893E10E94DF0897FD20
:103150000EC061ED72E08BE996E00E94BE073092EE
:103160000213209201138DE293E10E9424088091C2
:10317000011390910213459709F09CC080910313AD
:10318000909104130197E1F46BEC72E08EE893E107
:103190000E943E0A88E893E10E94DF0897FD10C074
:1031A00066EB72E08BE996E00E94BE07E2E0F0E099
:1031B000F0930413E09303138DE293E10E9424083B
:1031C00080910313909104130397D1F46EEA72E097
:1031D0008EE893E10E943E0A88E893E10E94DF08AE
:1031E00097FD0EC067E972E08BE996E00E94BE078A
:1031F000D0920413C09203138DE293E10E9424083D
:1032000080910313909104130597D1F46FE872E055
:103210008EE893E10E943E0A88E893E10E94DF086D
:1032200097FD0EC068E772E08BE996E00E94BE074A
:1032300090920413809203138DE293E10E9424087C
:1032400080910313909104130797A1F466E772E04D
:103250008EE893E10E943E0A88E893E10E94DF082D
:1032600097FD08C0B0920413A09203138DE293E17E
:103270000E94240880910313909104130997D1F4BC
:1032800067E672E08EE893E10E943E0A88E893E1E7
:103290000E94DF0897FD0EC01092041310920313D2
:1032A0006EE472E08BE996E00E94BE078DE293E146
:1032B0000E94240867E472E08EE893E10E943E0ACF
:1032C00088E893E10E94DF0897FD40C046E150E0A6
:1032D00067E070E0CE0101960E94A70ABE016F5F11
:1032E0007F4F80E793E10E940E09CE0101960E9474
:1032F000590980E793E10E944408811103C081E0ED
:103300008093320265E372E082E893E10E943E0A14
:1033100060E773E182E893E10E94370A64E272E0B9
:1033200082E893E10E94890961E172E08CE793E110
:103330000E943E0A60E773E18CE793E10E94370A3E
:103340006AE072E08CE793E10E94890962E072E032
:103350008EE893E10E943E0A88E893E10E94DF082C
:1033600097FD1EC049E050E068E070E0CE01019694
:103370000E94A70ABE016F5F7F4F8AE693E10E9419
:103380000E09CE0101960E9459096EE172E08AE6AB
:1033900093E10E94F908811103C081E08093320219
:1033A0006AEF71E08EE893E10E943E0A88E893E1BB
:1033B0000E94DF0897FD1EC04BE050E068E070E01F
:1033C000CE0101960E94A70ABE016F5F7F4F84E67F
:1033D00093E10E940E09CE0101960E9459096CE109
:1033E00072E084E693E10E94F908811103C081E054
:1033F0008093320264EF71E08EE893E10E943E0A0E
:1034000088E893E10E94DF0897FD59C061EF71E001
:103410008EE893E10E943E0A88E893E10E94DF086B
:103420008C016FEE71E08EE893E10E943E0A88E81D
:1034300093E10E94DF08B8016E5F7F4FAC01CE01BF
:1034400001960E94A70ABE016F5F7F4F86E793E156
:103450000E940E09CE0101960E94590960E272E0B5
:1034600086E793E10E94F908882319F081E08093B0
:10347000320286E793E10E944408811109C081E08D
:10348000809332026DEE71E086E793E10E943E0A7E
:103490008091761390917713009709F436C90E94B2
:1034A000481B655071096B31710548F081E08093CC
:1034B00032026BEE71E086E793E10E943E0A62EE13
:1034C00071E08EE893E10E943E0A88E893E10E9451
:1034D000DF0897FD1EC04EE050E069E070E0CE01CD
:1034E00001960E94A70ABE016F5F7F4F86E493E1B9
:1034F0000E940E09CE0101960E94590963E272E012
:1035000086E493E10E94F908811103C081E0809371
:10351000320269ED71E08EE893E10E943E0A88E88C
:1035200093E10E94DF0897FD1EC040E150E069E092
:1035300070E0CE0101960E94A70ABE016F5F7F4F27
:1035400080E493E10E940E09CE0101960E94590980
:1035500069E272E080E493E10E94F908811103C0FE
:1035600081E0809332026FEC71E08EE893E10E947B
:103570003E0A88E893E10E94DF0897FD19C04EE2F9
:1035800050E069E270E0CE0101960E94A70ABE01F8
:103590006F5F7F4F8CE493E10E940E09CE0101968C
:1035A0000E9459096CE473E18BE996E00E94790668
:1035B0006BE172E088E893E10E949D0A6FC86AE2BD
:1035C00076E08EE893E10E943E0A8AE393E10E944E
:1035D000DF0897FD0FCB61E086E10E945D0462E0A9
:1035E00070E080E090E00E94E6056BEF75E08CEB08
:1035F0009AE00E94BE078CEB9AE00E94D007FACABC
:1036000084E393E10E9459098AE393E10E945909F6
:1036100080E493E10E94590986E493E10E945909EC
:103620008CE493E10E94590982E593E10E945909D3
:1036300088E593E10E9459098EE593E10E945909BA
:1036400084E693E10E9459098AE693E10E945909B0
:1036500080E793E10E94590986E793E10E945909A6
:103660008CE793E10E94590982E893E10E9459098D
:1036700088E893E10E9459098EE893E10E94590974
:1036800084E993E10E9459098AE993E10C9459096C
:103690001F93FC0199278827BC01E89411911032EF
:1036A000E9F3193010F01E30C8F31B3251F01D320F
:1036B00049F4689406C00E948A1B610F711D811D28
:1036C000911D119110531A30B0F33EF490958095EE
:1036D000709561957F4F8F4F9F4F1F910895FB010C
:1036E000DC0105900D920020E1F70895FC010590A2
:1036F0000020E9F7809590958E0F9F1F0895BB27B6
:103700004A3031F4992322F4BDE2909581959F4F80
:103710000C94A01B592F482F372F262F660F771F89
:10372000881F991F660F771F881F991F620F731FCD
:10373000841F951F660F771F881F991F0895BB2749
:10374000FB015527AA27880F991FAA1FA41710F05D
:10375000A41B83955051B9F7A05DAA3308F0A95D69
:10376000A193009779F7B111B1931192CB010C9409
:10377000B91BDC01FC01672F71917723E1F73297C8
:1037800004C07C916D9370836291AE17BF07C8F33C
:103790000895052E97FB1EF400940E94E01B57FD30
:1037A00007D00E94E81B07FC03D04EF40C94E01BEA
:1037B00050954095309521953F4F4F4F5F4F08955D
:1037C00090958095709561957F4F8F4F9F4F08958D
:1037D000A1E21A2EAA1BBB1BFD010DC0AA1FBB1F15
:1037E000EE1FFF1FA217B307E407F50720F0A21B87
:1037F000B30BE40BF50B661F771F881F991F1A94F4
:1038000069F760957095809590959B01AC01BD011D
:10381000CF010895A29FB001B39FC001A39F700D77
:10382000811D1124911DB29F700D811D1124911DC8
:103830000895EE0FFF1F881F8BBF0790F691E02DB4
:1038400019940F931F93CF93DF938230910510F457
:1038500082E090E0E0919316F091941630E020E041
:10386000B0E0A0E0309799F42115310509F44AC081
:10387000281B390B24303105D8F58A819B816115CD
:10388000710589F1FB0193838283FE0111C04081A0
:1038900051810281138148175907E0F048175907F1
:1038A00099F4109761F012960C93129713961C934B
:1038B0003296CF01DF91CF911F910F910895009320
:1038C000931610939416F4CF2115310551F0421739
:1038D000530738F0A901DB019A01BD01DF01F801AE
:1038E000C1CFEF01F9CF9093941680939316CDCF6B
:1038F000FE01E20FF31F8193919322503109398326
:103900002883D7CF2091911630919216232B41F422
:103910002091030230910402309392162093911665
:1039200020910102309102022115310541F42DB799
:103930003EB74091050250910602241B350BE091E1
:103940009116F0919216E217F307A0F42E1B3F0B8D
:103950002817390778F0AC014E5F5F4F2417350701
:1039600048F04E0F5F1F509392164093911681932B
:1039700091939FCFF0E0E0E09CCFCF93DF9300974F
:10398000E9F0FC01329713821282A0919316B09154
:103990009416ED0130E020E01097A1F420813181F0
:1039A000820F931F20919116309192162817390794
:1039B00009F061C0F0939216E0939116DF91CF91D8
:1039C0000895EA01CE17DF07E8F54A815B819E0181
:1039D00041155105B1F7E901FB83EA8349915991FA
:1039E000C40FD51FEC17FD0761F480819181029609
:1039F000840F951FE90199838883828193819B833A
:103A00008A83F0E0E0E012968D919C9113970097E5
:103A1000B9F52D913C911197CD010296820F931F1C
:103A200020919116309192162817390739F6309760
:103A300051F51092941610929316B0939216A0938B
:103A40009116BCCFD383C28340815181840F951FCF
:103A5000C817D90761F44E5F5F4F88819981480F7D
:103A6000591F518340838A819B81938382832115CF
:103A7000310509F0B0CFF0939416E09393169ECFE2
:103A8000FD01DC01C0CF13821282D7CF4F925F922B
:103A90006F927F928F929F92AF92BF92CF92DF925E
:103AA000EF92FF920F931F93CF93DF938C010097B8
:103AB00099F4CB01DF91CF911F910F91FF90EF907F
:103AC000DF90CF90BF90AF909F908F907F906F903E
:103AD0005F904F900C94211CFC01E60FF71F9C0196
:103AE00022503109E217F30708F4AEC0D901CD9195
:103AF000DC911197C617D70720F1C530D10578F0B2
:103B0000CE0104978617970750F0C61BD70B229754
:103B1000C193D1936D937C93CF010E94BD1CC801CA
:103B2000DF91CF911F910F91FF90EF90DF90CF9099
:103B3000BF90AF909F908F907F906F905F904F90CD
:103B400008955B01AC1ABD0A4C018C0E9D1EA0911C
:103B50009316B0919416512C412CF12CE12C109716
:103B600031F580919116909192168815990509F07A
:103B70005CC04616570608F058C08091010290912B
:103B80000202009741F48DB79EB740910502509113
:103B90000602841B950BE817F90708F055C0F0934F
:103BA0009216E0939116F90171836083B8CF8D91DD
:103BB0009C91119712966C90129713967C90139784
:103BC000A815B90559F56C0142E0C40ED11CCA1400
:103BD000DB0420F1AC014A195B09DA011296159752
:103BE00080F06282738251834083D9016D937C930C
:103BF000E114F10471F0D7011396FC93EE93129740
:103C00008ECF22968C0F9D1FF90191838083F30143
:103C1000EFCFF0939416E093931681CF4816590690
:103C200008F42C017D01D3019ACFCB010E94211C05
:103C30007C01009749F0AE01B8010E94271EC8011F
:103C40000E94BD1C87016BCF10E000E068CFFB0134
:103C5000DC0102C001900D9241505040D8F7089508
:103C6000FB01DC018D91019080190110D9F3990BB2
:103C70000895FB01DC0101900D920020E1F7089509
:103C8000FB0151915523A9F0BF01DC014D9145176E
:103C90004111E1F759F4CD010190002049F04D9117
:103CA00040154111C9F3FB014111EFCF81E090E0D4
:103CB0000197089513E0CBE9D3E000E006C0802F20
:103CC000FE010E94191C2196011DCC39D10780E00C
:083CD0000807A9F7F894FFCFE3
:103CD800010000951680000000000050074606ED20
:103CE80006D0072506FF0619070D0A00302C3100FB
:103CF800393900302C302C3000302C312C302C301D
:023D08000000B9
:00000001FF
