:020000040000FA
:100000000C94AF030C94E0030C94E0030C94E00315
:100010000C94E0030C94E0030C94E0030C94E003D4
:100020000C94E0030C94E0030C94E0030C94E003C4
:100030000C94E0030C94E0030C94E0030C94E003B4
:100040000C94E0030C94E0030C94E0030C94E003A4
:100050000C94E0030C94E0030C94E0030C941B0B51
:100060000C94E0030C948B0C0C94610C0C94E00346
:100070000C94E0030C94E0030C94E0030C94E00374
:100080000C94E0030C94E0030C94E0030C94E00364
:100090000C94370C0C940D0C0C94E0030C94E003BE
:1000A0000C94E0030C94E0030C94E0030C94E00344
:1000B0000C94E0030C94E0030C94E0030C94E00334
:1000C0000C94E0030C94E0030C94E0030C94E30B19
:1000D0000C94B90B0C94E0030C948F0B0C94650BEF
:1000E0000C94E0030C9454040C9459060C94021BD9
:1000F0000C9461050C9412070C9433050C94310494
:100100000C9427040C945E040C948E050C946307E5
:100110000C9468040C9400070C943D050C94AC05F9
:100120000C9484050C946B050C941A050C946C04C7
:100130000C9446040C9457050C94B50C0C944C0488
:100140000C945A040C9443060C9498050C94670480
:100150000C9439040C947A050C942C070C943504F7
:100160000C94E3070C9442040C9462040C9429054B
:100170000C9445050C9450040C9412050C943C040A
:100180000C944D050C94A2050C942D040C941F05A1
:100190000C9438060D0A3D3D3D204E42494F5420F7
:1001A0005354415254203D3D3D005B537472696E7F
:1001B00067205370616365204E4F54204F4B5D00A4
:1001C0005B537472205370616365204F4B5D000078
:1001D0002B514D54524543563A002B514D545355D3
:1001E000423A002B514D545055423A0030003000F5
:1001F0002C003A20002B4353513A002B43455245E3
:10020000473A002B43474154543A002F6F75742CE2
:10021000300041542B514D545355423D302C312C1C
:100220007267742F002C747377682C31576F3D5BA5
:10023000367641306D0041542B514D54434F4E4E54
:100240003D302C6465765F002B4347534E3A000DDA
:100250000A46494E49534820524547554C41522081
:100260005055424C495348002B514D545055423A39
:1002700020302C302C30003E000D0A46494E4953A8
:10028000482047455454494E47204345524547006E
:100290002B43455245473A000D0A46494E495348BB
:1002A0002047455454494E47204347415454002B5E
:1002B00043474154543A000D0A46494E4953482099
:1002C00047455454494E4720435351002B43535103
:1002D0003A000D0A53554220544F504943204F4B8A
:1002E000002B514D545355423A000D0A434F4E4E88
:1002F0004543544544204D515454002B514D5443D3
:100300004F4E4E3A20302C302C30000D0A4F5045C5
:100310004E4544204D515454002B514D544F50459F
:100320004E3A20302C30000D0A46494E49534820A1
:1003300047455454494E47204345524547002B43B7
:10034000455245473A000D0A46494E495348204711
:10035000455454494E47204347415454002B43478A
:100360004154543A000D0A46494E495348204745E6
:100370005454494E4720435351002B4353513A00A4
:100380000D0A46494E495348205345545550000DD7
:100390000A46494E4953482057414954494E47203F
:1003A0004950002B49503A005B534F46545F524529
:1003B0005345545D000D0A45584543555445205258
:1003C0004547554C4152205055424C4953480041F5
:1003D000542B43455245473F000D0A5B434F4E4E59
:1003E00045435445445D205155455259494E472097
:1003F00043455245470041542B43474154543F0025
:100400000D0A5B434F4E4E45435445445D205155C4
:10041000455259494E472043474154540041542BBB
:10042000435351000D0A5B434F4E4E4543544544E0
:100430005D205155455259494E4720435351000DB7
:100440000A46494E49534820494E4954204E424994
:100450004F54000D0A53554253435242494E4720D0
:10046000544F5049432E2E2E000D0A434F4E4E45F9
:100470004354494E47204D5154542E2E2E00415482
:100480002B514D544F50454E3D302C696F742E7298
:1004900065632D67742E636F6D2C31383830000D15
:1004A0000A4F50454E494E47204D5154542E2E2E42
:1004B0000041542B43455245473F000D0A474554E0
:1004C00054494E472043455245470041542B43472A
:1004D0004154543F000D0A47455454494E47204368
:1004E000474154540041542B435351000D0A474592
:1004F0005454494E47204353510041542B514D54BD
:10050000444953433D300041542B514D54434C4FCB
:1005100053453D300041542B4345445258533D30E0
:100520002C350041542B4353434F4E3D3000415432
:100530002B4350534D533D300041542B5153434CAA
:100540004B3D300041542B4346554E3D31000D0A82
:1005500053455454494E47205550204E42494F541C
:10056000000D0A57616974696E6720495000415453
:100570002B5153434C4B3D300041542B4347534E7A
:100580003D310041542B5149444E534346473D3081
:100590002C382E382E382E382C3232332E352E353C
:1005A0002E350000000000000000000000002C00BC
:1005B0002F696E2C0041542B514D545055423D3003
:1005C0002C302C302C302C7267742F007D0022616F
:1005D0006F7574223A002C002261696E223A002C59
:1005E0000022646F7574223A002C002264696E2226
:1005F0003A002C007B22637371223A005D002C00CC
:100600005B005D002C005B00000020002300260042
:1006100029002C002F003200000100000301060118
:1006200009015B48656C6C6F2066726F6D205247E4
:10063000542048656C6C6F2066726F6D2052475471
:100640002048656C6C6F2066726F6D205247545D58
:100650000041540000002100240027002A002D0042
:100660003000330001010000040107010A0100000D
:100670002200250028002B002E003100340002014A
:100680000000050108010B0105050505070508081F
:100690000808020202020A0A08080404040401010C
:1006A0000101010101010303030303030303040721
:1006B00007070C0C0C0C0C0C0C0C020202020606B8
:1006C0000606060606060B0B0B0B0B0B0B0B0102AB
:1006D0001020200808102040102040800201020154
:1006E000080402010102040810204080804020100C
:1006F0000804020180040201804020100804020165
:1007000008040201010204081020408001020408CC
:100710001020408000000A0B02090C0D0E08070390
:1007200004010000000000000000000000000000C4
:1007300000000000000000000000000000000000B9
:100740001211100000000000000000000000000076
:1007500000000000000000000000B50C021B112486
:100760001FBECFEFD1E2DEBFCDBF00E00CBF12E075
:10077000A0E0B2E0ECEDFCE300E00BBF02C00790AC
:100780000D92A233B107D9F726E1A2E3B2E001C08E
:100790001D92AE39B207E1F713E0CEEAD3E000E0F4
:1007A00006C021970109802FFE010E941B1CCD3A33
:1007B000D10780E00807A9F70E941F0F0C945C1E68
:1007C0000C940000FC01A089B18982E08C93A4857F
:1007D000B5851C92A685B7858FEC8C93108EA48965
:1007E000B58986E08C93A289B3898C9180618C93C2
:1007F000A289B3898C9188608C93A289B3898C91EA
:1008000080688C930288F389E02D80818F7D8083BE
:1008100008958150823108F05AC0E82FF0E088270F
:10082000EB5EFB4F8F4F0C941B1C350439042704DF
:100830002D04310467043C04420446044C04500473
:1008400054045A045E046704620468046C048091D2
:1008500080008F77809380000895809180008F7D45
:10086000F9CF80918000877FF5CF84B58F7784BDE5
:10087000089584B58F7DFBCF8091B0008F778093F2
:10088000B00008958091B0008F7DF9CF80919000E5
:100890008F77809390000895809190008F7DF9CF9D
:1008A00080919000877FF5CF8091A0008F77809313
:1008B000A00008958091A0008F7DF9CF8091A000C5
:1008C000877FF5CF809120018F7780932001089555
:1008D000809120018F7DF9CF80912001877FF5CF16
:1008E0001F93CF93DF93282F30E0F901EC5EF84F90
:1008F0008491F901E253F94FD491F901E857F94F86
:10090000C491CC23A9F0162F81110E940904EC2F69
:10091000F0E0EE0FFF1FE259F94FA591B4918FB7A8
:10092000F894EC91111108C0D095DE23DC938FBFB1
:10093000DF91CF911F910895DE2BF8CFCF93DF93F6
:1009400090E0FC01E253F94F24918857994FFC0144
:1009500084918823C9F090E0880F991FFC01EC5A1C
:10096000F94FA591B491FC01E259F94FC591D49189
:1009700061110DC09FB7F8948C91209582238C93C0
:100980008881282328839FBFDF91CF91089562300B
:1009900051F49FB7F8943C91822F809583238C93D8
:1009A000E8812E2BEFCF8FB7F894EC912E2B2C9360
:1009B0008FBFEACF1F93CF93DF93182FEB0161E036
:1009C0000E949E04209739F460E0812FDF91CF913F
:1009D0001F910C947004CF3FD10511F461E0F5CF65
:1009E000E12FF0E0EC5EF84FE491E150E23108F0E5
:1009F000B3C0F0E08827E050FB4F8F4F0C941B1CD6
:100A000012051A051F0529053305AC053D054505E9
:100A10004D05570561056B057A058405AC058E0506
:100A20009805A20584B5806884BDC7BDDF91CF91CC
:100A30001F91089584B5806284BDC8BDF7CF8091B1
:100A40008000806880938000D0938900C0938800E4
:100A5000EDCF80918000806280938000D0938B00E6
:100A6000C0938A00E3CF80918000886080938000EB
:100A7000D0938D00C0938C00D9CF8091B000806856
:100A80008093B000C093B300D1CF8091B00080625A
:100A90008093B000C093B400C9CF8091900080686B
:100AA00080939000D0939900C0939800BFCF80911D
:100AB0009000806280939000D0939B00C0939A0036
:100AC000B5CF80919000886080939000D0939D0076
:100AD000C0939C00ABCF8091A00080688093A00061
:100AE0008091A0008F7B8093A000D093A900C09339
:100AF000A8009CCF8091A00080628093A000D0933A
:100B0000AB00C093AA0092CF8091A0008860809330
:100B1000A000D093AD00C093AC0088CF809120019D
:100B2000806880932001D0932901C09328017ECF53
:100B300080912001806280932001D0932B01C0938B
:100B40002A0174CF80912001886080932001D09386
:100B50002D01C0932C016ACFC038D1050CF03ECFD7
:100B600033CF863308F0865320917B00982F9870FE
:100B7000277F922B90937B002091000290E4299F85
:100B8000900111248770822B80937C0080917A00E1
:100B9000806480937A0080917A0086FDFCCF8091FA
:100BA00078009091790008953FB7F894809176028B
:100BB00090917702A0917802B091790226B5A89B16
:100BC00005C02F3F19F00196A11DB11D3FBFBA2FDF
:100BD000A92F982F8827BC01CD01620F711D811D9F
:100BE000911D42E0660F771F881F991F4A95D1F724
:100BF00008958F929F92AF92BF92CF92DF92EF9221
:100C0000FF926B017C010E94D4054B015C01C11471
:100C1000D104E104F104B9F00E94D40568197909FE
:100C20008A099B09683E73408105910580F321E0A4
:100C3000C21AD108E108F10888EE880E83E0981EF8
:100C4000A11CB11CE4CFFF90EF90DF90CF90BF903C
:100C5000AF909F908F9008952FB7F8946091720293
:100C60007091730280917402909175022FBF089564
:100C7000FC01218D328D838D948DA901481B590B68
:100C8000CA019170089581E0809332020895FC01B9
:100C9000248135816217730748F480819181009720
:100CA00029F0860F971FFC018081089580E0089548
:100CB0000895AF92BF92CF92DF92EF92FF920F937F
:100CC0001F93CF93DF936C017B018B01040F151FE2
:100CD000EB015E01AE18BF08C017D10759F069914A
:100CE000D601ED91FC910190F081E02DC60119959E
:100CF000892B79F7C501DF91CF911F910F91FF905B
:100D0000EF90DF90CF90BF90AF90089542E050E019
:100D100069E172E00C9459060F931F93CF93DF9310
:100D2000EC01FB0144815581608171810E9459066B
:100D30008C01CE010E948606800F911FDF91CF911A
:100D40001F910F9108952091D50A3091D60A809174
:100D5000D70A9091D80A281B390B317081E0232BD8
:100D600009F480E0089520919302309194028091DB
:100D7000950290919602281B390B317081E0232B4C
:100D800009F480E008952091F60E3091F70E8091DD
:100D9000F80E9091F90E281B390B317081E0232B4E
:100DA00009F480E008952091B4063091B506809151
:100DB000B6069091B706281B390B317081E0232BC2
:100DC00009F480E00895FC01A089B1898C91A6897D
:100DD000B78982FD13C02C91818D928D01969170FF
:100DE000438D548D8417950751F0A18DB28DAE0FB0
:100DF000BF1F91962C93928F818F08958C910895A7
:100E00004FB7F894FC01258D368D878D90A14FBF8B
:100E10002817390728F081509E4F821B930B0895A5
:100E20000197FBCFFC01218D328D838D948D281786
:100E3000390779F0A38DB48DAE0FBF1F91968C91B9
:100E4000238D348D2F5F3F4F3170348F238F90E08F
:100E500008958FEF9FEF0895FC01218D328D838DD2
:100E6000948D2817390739F0838D948DE80FF91F79
:100E700081A190E008958FEF9FEF0895FC01A78D69
:100E8000B0A1A80FB91FAF5DBD4F2C91878D90A168
:100E90000196917090A3878FA689B7892C93A0891A
:100EA000B1898C91837080648C93258D368D878D6C
:100EB00090A12817390731F40288F389E02D808149
:100EC0008F7D80830895FF920F931F93CF93DF93BD
:100ED000EC0181E0888F2D8D3E8D8F8D98A1281794
:100EE0003907C9F4E889F989808185FF14C09FB763
:100EF000F894EE89FF896083E889F989808183709D
:100F0000806480839FBF81E090E0DF91CF911F914B
:100F10000F91FF900895F62E0D8D1E8D0F5F1F4FC0
:100F200011708F8D98A18017910761F40FB607FC9F
:100F3000F8CFE889F989808185FFF3CFCE010E943F
:100F40003E07EFCFED8DFE8DEC0FFD1FEF5DFD4FEA
:100F5000F0829FB7F8941E8F0D8FEA89FB898081FC
:100F60008062CFCFEF92FF920F931F93CF93DF93C7
:100F70008C017B01D0E0C0E0F701EC0FFD1F649114
:100F8000662339F0C8010E946307892B11F021966E
:100F9000F3CFCE01DF91CF911F910F91FF90EF9092
:100FA00008950F931F93CF93DF93EC010E94B20734
:100FB0008C01CE010E948606800F911FDF91CF9198
:100FC0001F910F910895CF93DF93EC01888D8823B3
:100FD000B9F0AA89BB89E889F9898C9185FD03C09C
:100FE000808186FD0DC00FB607FCF7CF8C9185FF81
:100FF000F2CF808185FFEDCFCE010E943E07E9CF81
:10100000DF91CF910895BC018DED9EE00E948C068A
:101010008DED9EE00E94E30762E070E080E090E0EA
:101020000C94F90580E090E0892B29F00E94D3060A
:1010300081110E94000080E090E0892B29F00E943D
:10104000C30681110E94000080E090E0892B29F006
:101050000E94B30681110E94000080E090E0892B7D
:1010600029F00E94A30681110C9400000895CF93EB
:10107000DF93EC010E942C06688379838A839B832B
:10108000DF91CF910895982F80ED890F8A3070F00D
:101090008FEB890F863018F489EC890F08958FE95A
:1010A000890F863010F489EAF8CF80E00895EF9236
:1010B000FF920F931F93CF93DF938C01FC01E48089
:1010C000F580D0E0C0E0EC16FD0661F0BE01C8017D
:1010D0000E944706082E000C990BC0970A9750F4FF
:1010E0002196F1CF81E0DF91CF911F910F91FF9079
:1010F000EF90089580E0F7CF8F929F92AF92BF92CA
:10110000CF92DF92EF92FF92CF93DF93EC016A01CF
:101110007B010E942C068C809D80AE80BF809B014D
:10112000AC01281939094A095B0949015A01888526
:10113000811108C00E942C066C837D838E839F835F
:1011400081E08887C814D904EA04FB0408F41886EF
:101150000E942C068C809D80AE80BF806819790922
:101160008A099B0921E0C616D706E806F90608F0A9
:1011700020E0822FDF91CF91FF90EF90DF90CF9012
:10118000BF90AF909F908F900895CF93DF93FC0115
:101190002181222331F0EC0160E080810E94700403
:1011A0001982DF91CF910895CF93DF93FC012181C4
:1011B000211107C0EC0161E080810E94700481E090
:1011C0008983DF91CF910895CF93DF93EC01862F30
:1011D0006883198261E00E949E04CE01DF91CF9165
:1011E0000C94C508CF93DF93FC0124813581232B18
:1011F00081F0C081D1816091971370919813CE01D5
:101200000E94421E009729F08C1B9D0BDF91CF910D
:1012100008958FEF9FEFFACFFC0124813581232BB6
:1012200039F421E0FB018081882349F020E007C0E8
:10123000808191810E94321E21E0892BB9F7822F93
:1012400008950F931F93CF93DF938C01EB01FC0163
:10125000808191810097E1F0688179816115710544
:10126000A9F0428153812C813D814217530770F0D0
:101270000E943B1E8C819D81F801958384831D8291
:101280001C82DF91CF911F910F9108950E94BF1C86
:1012900088819981F801918380838A819B819383DE
:1012A00082838C819D8195838483198218821B821D
:1012B0001A82E5CFCF93DF93EC0188819981009763
:1012C00011F00E94BF1C198218821D821C821B8291
:1012D0001A82DF91CF910895FC018081918100975E
:1012E00011F00C94BF1C08950F931F93CF93DF93BD
:1012F000EC0188819981009759F02A813B8126175A
:10130000370730F081E0DF91CF911F910F91089561
:101310008B016F5F7F4F0E94481D009759F09983A2
:1013200088831B830A832C813D81232B59F7FC0181
:101330001082E8CF80E0E7CFEF92FF920F931F93E8
:10134000CF93DF936115710541F480E0DF91CF9178
:101350001F910F91FF90EF9008957B01EC01CB015D
:101360000E94781B0097A9F00C811D81080F191F9E
:10137000B801CE010E947409882339F3288139818C
:101380008C819D81B701820F931F0E94711B1D8369
:101390000C8381E0DBCFEF92FF920F931F93CF93EB
:1013A000DF936115710541F480E0DF91CF911F91CA
:1013B0000F91FF90EF90089541155105B1F07B0119
:1013C000EC010C811D81040F151FB8010E947409E6
:1013D000882351F3288139818C819D81B701820F47
:1013E000931F0E943B1E1D830C8381E0DECF0F9371
:1013F0001F93CF93DF9300D01F92CDB7DEB74AE0A3
:101400008E010F5F1F4FB80190E00E94811BF80111
:1014100001900020E9F73197AF01401B510BB80153
:1014200087E693E10E94CB090F900F900F900F90E9
:10143000DF91CF911F910F910895EF92FF920F933B
:101440001F93CF93DF9300D000D01F92CDB7DEB7AC
:101450007C01CB014AE08E010F5F1F4FB8010E9453
:10146000A11BF80101900020E9F73197AF01401B63
:10147000510BB801C7010E94CB0927960FB6F8940B
:10148000DEBF0FBECDBFDF91CF911F910F91FF90B7
:10149000EF900895FB0144815581608171810C9426
:1014A000CB09EF92FF920F931F93CF93DF93EC0141
:1014B0008B016115710551F0CB010E94781B7C01F5
:1014C000BC01CE010E94740981110BC0CE010E94A3
:1014D0005A09CE01DF91CF911F910F91FF90EF90AC
:1014E0000895FD82EC82B801888199810E94711B68
:1014F000F0CFFC01118210821382128215821482B5
:101500000C94510A8DED9EE00E94120718161906E0
:101510003CF461E070E080E090E00E94F905F2CFD9
:101520006FEC71E081E993E10E94510A6AE070E09A
:1015300080E090E00C94F905EF92FF920F931F93D7
:10154000CF93DF93EC017B018A01BA010E947409F9
:1015500081110BC0CE010E945A09CE01DF91CF91BB
:101560001F910F91FF90EF9008951D830C83B70199
:10157000888199810E943B1EF0CFFC01118210826C
:10158000138212821582148250E040E06BE172E017
:101590000C949C0ACF92DF92EF92FF920F931F93CD
:1015A000CF93DF937C016B018A014617570720F424
:1015B0008D2D6A01062F182FC7010E94BD0AC09108
:1015C0009513D0919613CC16DD0638F50C171D0730
:1015D00008F4E801E0919113F0919213EC0FFD1FD4
:1015E0001081108260919113709192136C0D7D1D8A
:1015F00061157105E1F0FB0101900020E9F73197D9
:10160000AF01461B570BC7010E949C0A80919113A2
:1016100090919213C80FD91F1883C701DF91CF9102
:101620001F910F91FF90EF90DF90CF900895C70129
:101630000E945A09EBCF1F920F920FB60F921124FE
:101640002F933F938F939F93AF93BF938091720299
:1016500090917302A0917402B09175023091710261
:1016600023E0230F2D3758F50196A11DB11D2093BE
:1016700071028093720290937302A0937402B093EC
:1016800075028091760290917702A0917802B091D4
:1016900079020196A11DB11D809376029093770285
:1016A000A0937802B0937902BF91AF919F918F91EF
:1016B0003F912F910F900FBE0F901F90189526E825
:1016C000230F0296A11DB11DD2CF1F920F920FB60C
:1016D0000F9211240BB60F922F933F934F935F936A
:1016E0006F937F938F939F93AF93BF93EF93FF93EA
:1016F0008CEB9AE00E943E07FF91EF91BF91AF9172
:101700009F918F917F916F915F914F913F912F9119
:101710000F900BBE0F900FBE0F901F9018951F9249
:101720000F920FB60F9211240BB60F922F933F9387
:101730004F935F936F937F938F939F93AF93BF93D9
:10174000EF93FF938CEB9AE00E94E306FF91EF91F9
:10175000BF91AF919F918F917F916F915F914F91C9
:101760003F912F910F900BBE0F900FBE0F901F90C7
:1017700018951F920F920FB60F9211240BB60F926D
:101780002F933F934F935F936F937F938F939F9389
:10179000AF93BF93EF93FF938AE792E00E943E07D7
:1017A000FF91EF91BF91AF919F918F917F916F9139
:1017B0005F914F913F912F910F900BBE0F900FBEF5
:1017C0000F901F9018951F920F920FB60F92112431
:1017D0000BB60F922F933F934F935F936F937F932B
:1017E0008F939F93AF93BF93EF93FF938AE792E01A
:1017F0000E94E306FF91EF91BF91AF919F918F916E
:101800007F916F915F914F913F912F910F900BBE00
:101810000F900FBE0F901F9018951F920F920FB64A
:101820000F9211240BB60F922F933F934F935F9318
:101830006F937F938F939F93AF93BF93EF93FF9398
:101840008DED9EE00E943E07FF91EF91BF91AF9119
:101850009F918F917F916F915F914F913F912F91C8
:101860000F900BBE0F900FBE0F901F9018951F92F8
:101870000F920FB60F9211240BB60F922F933F9336
:101880004F935F936F937F938F939F93AF93BF9388
:10189000EF93FF938DED9EE00E94E306FF91EF91A1
:1018A000BF91AF919F918F917F916F915F914F9178
:1018B0003F912F910F900BBE0F900FBE0F901F9076
:1018C00018951F920F920FB60F9211240BB60F921C
:1018D0002F933F934F935F936F937F938F939F9338
:1018E000AF93BF93EF93FF938BE996E00E943E077F
:1018F000FF91EF91BF91AF919F918F917F916F91E8
:101900005F914F913F912F910F900BBE0F900FBEA3
:101910000F901F9018951F920F920FB60F921124DF
:101920000BB60F922F933F934F935F936F937F93D9
:101930008F939F93AF93BF93EF93FF938BE996E0C1
:101940000E94E306FF91EF91BF91AF919F918F911C
:101950007F916F915F914F913F912F910F900BBEAF
:101960000F900FBE0F901F9018950F931F93CF935A
:10197000DF93ECEBFAE01382128248EE53E060E072
:1019800070E044835583668377838BE092E0918394
:10199000808325E331E03587248724E331E03787EE
:1019A000268720E331E0318B208B21E331E0338B3C
:1019B000228B22E331E0358B248B26E331E0378B19
:1019C000268B128E118E148E138E168E158E10A2EB
:1019D000178EEAE7F2E0138212824483558366830E
:1019E00077839183808325ED30E03587248724ED4C
:1019F00030E03787268720ED30E0318B208B21EDDA
:101A000030E0338B228B22ED30E0358B248B26EDBA
:101A100030E0378B268B128E118E148E138E168E1D
:101A2000158E10A2178EEDEDFEE013821282448314
:101A3000558366837783918380832DEC30E03587EF
:101A400024872CEC30E03787268728EC30E0318B78
:101A5000208B29EC30E0338B228B2AEC30E0358B65
:101A6000248B2EEC30E0378B268B128E118E148E49
:101A7000138E168E158E10A2178EEBE9F6E01382E8
:101A8000128244835583668377839183808385ECB8
:101A900090E09587848784EC90E09787868780EC38
:101AA00090E0918B808B81EC90E0938B828B82EC29
:101AB00090E0958B848B86EC90E0978B868B128ED2
:101AC000118E148E138E168E158E10A2178ECAE6E6
:101AD000D6E180E28883198260E00E949E0481E260
:101AE0008E831F8260E00E949E0482E28C871D86A6
:101AF00060E00E949E0483E28A8B1B8A60E00E9461
:101B00009E0484E2888F198E60E00E949E0485E224
:101B10008E8F1F8E60E00E949E0486E28CA31DA221
:101B200060E00E949E0487E28AA71BA660E00E94F4
:101B30009E0468E28AE596E10E94E40869E28CE589
:101B400096E10E94E4086AE28EE596E10E94E408CC
:101B50006BE280E696E10E94E4086CE282E696E1A0
:101B60000E94E4086DE284E696E10E94E4086EE2D9
:101B700086E696E10E94E4086FE288E696E10E941C
:101B8000E408CEE4D6E184E0888361E00E949E040C
:101B900085E08B8361E00E949E0486E08E8361E095
:101BA0000E949E0487E0898761E00E949E040EEAFD
:101BB00013E186E3F8018083C1E0C18360E00E9405
:101BC0009E0487E3F80180AFC1AF60E00E949E04ED
:101BD00088E380931E14C0931F1460E00E949E044B
:101BE00089E380935614C093571460E00E949E04CA
:101BF0008AE380938E14C0938F1460E00E949E0449
:101C00008BE38093C614C093C71460E00E949E04C7
:101C10008CE38093FE14C093FF1460E00E949E0446
:101C20008DE380933615C093371560E00E949E04C3
:101C30008EE380936E15C0936F1560E00E949E0442
:101C40008FE38093A615C093A71560E00E949E04C1
:101C500080E48093DE15C093DF1560E00E949E044F
:101C600081E480931616C093171660E00E949E04CC
:101C700009EA13E18BE1F801808362E00E949E048F
:101C80008CE1F801818362E00E949E048DE1F801FD
:101C9000828362E00E949E048EE1F801838362E009
:101CA0000E949E048FE1F801848362E00E949E04FA
:101CB00083EA93E10E94BD0A8DE993E10E94BD0A87
:101CC00087E993E10E94BD0A81E993E10E94BD0A80
:101CD0008BE893E10E94BD0A85E893E10E94BD0A6A
:101CE0008FE793E10E94BD0A89E793E10E94BD0A54
:101CF00083E793E10E94BD0A8DE693E10E94BD0A4D
:101D000087E693E10E94BD0A81E693E10E94BD0A45
:101D10008BE593E10E94BD0A85E593E10E94BD0A2F
:101D20008FE493E10E94BD0A89E493E10E94BD0A19
:101D300083E493E10E94BD0A8DE393E10E94BD0A12
:101D4000E2E3F3E11482158216821782108680E3A3
:101D500095E7A0E0B0E080839183A283B3831286ED
:101D60001186E9E2F3E180E197E2A0E0B0E0808350
:101D70009183A283B3831482158216821782108600
:101D8000E0E2F3E188EB9BE0A0E0B0E080839183A8
:101D9000A283B38314821582168217821086E7E12C
:101DA000F3E180839183A283B38314821582168228
:101DB000178210860E942C06EFE0F3E160837183A6
:101DC0008283938315821482C6831782C7E0D3E18E
:101DD000188288E189831A8281E090E09C838B835A
:101DE0001E821D821F828DED9EE00E94E20361E053
:101DF00089810E949E0461E089810E94700461E0F3
:101E000086E10E949E0460E086E10E9470048CEBF3
:101E10009AE00E94E203EEEFF2E180E09CE5A6E2A8
:101E2000B5E080839183A283B383148215821682E6
:101E300017821086DF91CF911F910F910895CF9354
:101E4000DF9300D000D0CDB7DEB7789484B5826040
:101E500084BD84B5816084BD85B5826085BD85B54E
:101E6000816085BD80916E00816080936E001092CC
:101E70008100809181008260809381008091810047
:101E800081608093810080918000816080938000D8
:101E90008091B10084608093B1008091B000816036
:101EA0008093B00080919100826080939100809136
:101EB0009100816080939100809190008160809377
:101EC00090008091A10082608093A1008091A10088
:101ED00081608093A1008091A00081608093A00028
:101EE0008091210182608093210180912101816094
:101EF0008093210180912001816080932001809155
:101F00007A00846080937A0080917A008260809366
:101F10007A0080917A00816080937A0080917A00C3
:101F2000806880937A001092C1008BE996E00E944D
:101F3000E2031092000268E070E08FE793E10E94F4
:101F4000740968E070E083E793E10E94740968E037
:101F500070E08DE693E10E94740968E070E08FE420
:101F600093E10E94740968E070E089E493E10E94C3
:101F7000740968E070E085E593E10E94740960E20D
:101F800070E089E793E10E94740960E270E087E9FC
:101F900093E10E94740960E470E08DE993E10E948E
:101FA000740960E470E08BE893E10E94740960E4D6
:101FB00070E085E893E10E94740960E470E081E6D6
:101FC00093E10E94740960E870E083EA93E10E9463
:101FD000740960E870E083E493E10E94740960E8AA
:101FE00070E081E993E10E94740960E071E087E6A6
:101FF00093E10E94740960E072E08BE593E10E9436
:1020000074096CE674E08DE393E10E94740960EC5E
:1020100071E0811102C06AEA71E08BE996E00E94EA
:10202000B20764E971E08BE996E00E94D10711E004
:1020300010933A1383E496E090933C1380933B1300
:102040000E94820A109307138AE792E00E94E2033B
:102050008EE496E1FEEAEF2EF3E1FF2EF701118206
:10206000F8E3EF0EF11C8E159F05C1F788E199E2A8
:102070000FB6F894A895809360000FBE909360000F
:10208000E6E08E2E912C54E0C52ED12C6CE0262E4D
:10209000312C7AE0472E512C80913A13882339F164
:1020A0000E942C060091361310913713209138139B
:1020B00030913913601B710B820B930B009132131B
:1020C00010913313209134133091351306171707ED
:1020D0002807390760F4E0913B13F0913C133097E7
:1020E00009F416C3199586E393E10E94370880919D
:1020F0000A1390910B13019709F058C06CEA75E030
:1021000081E993E10E94510A6BEA75E08BE893E163
:102110000E94510A6AEA75E085E893E10E94510A3B
:1021200069EA75E08FE793E10E94510A68EA75E079
:1021300089E793E10E94510A67EA75E083E793E13A
:102140000E94510A66EA75E08DE693E10E94510A09
:1021500065EA75E087E693E10E94510A64EA75E05A
:1021600081E693E10E94510A63EA75E08BE593E111
:102170000E94510A10920E1360E0809108130E9491
:10218000700448EE53E060E070E089E293E10E9461
:102190007C08882359F061E0809108130E94700444
:1021A00082E090E090930B1380930A1380910A13BE
:1021B00090910B13029709F040C044EF51E060E0AA
:1021C00070E089E293E10E947C088823B1F163E822
:1021D00075E0CE0101960E94790ACE0101960E9417
:1021E0000308CE0101960E946C0969E775E0CE01F3
:1021F00001960E94790ACE0101960E940308CE0141
:1022000001960E946C096EE675E0CE0101960E946F
:10221000790ACE0101960E940308CE0101960E9420
:102220006C0961E675E08BE996E00E94D10783E0D6
:1022300090E090930B1380930A1380910A1390916E
:102240000B13049709F06EC06EE475E08BE996E01D
:102250000E94D10764E475E0CE0101960E94790ADC
:10226000CE0101960E940308CE0101960E946C09DE
:1022700069E375E0CE0101960E94790ACE010196CC
:102280000E940308CE0101960E946C096EE275E07F
:10229000CE0101960E94790ACE0101960E940308A0
:1022A000CE0101960E946C0963E275E0CE010196B1
:1022B0000E94790ACE0101960E940308CE01019680
:1022C0000E946C0965E175E0CE0101960E94790AD1
:1022D000CE0101960E940308CE0101960E946C096E
:1022E00067E075E0CE0101960E94790ACE01019661
:1022F0000E940308CE0101960E946C096AEF74E007
:10230000CE0101960E94790ACE0101960E9403082F
:10231000CE0101960E946C0985E090E090930B132A
:1023200080930A1380910A1390910B13069721F55D
:1023300048EE53E060E070E089E293E10E947C089F
:102340008823D1F06CEE74E08BE996E00E94D1070F
:1023500065EE74E0CE0101960E94790ACE010196E5
:102360000E940308CE0101960E946C0987E090E06C
:1023700090930B1380930A1380910A1390910B137F
:10238000089721F548EE53E060E070E089E293E1C0
:102390000E947C088823D1F065ED74E08BE996E01B
:1023A0000E94D1076BEC74E0CE0101960E94790A7D
:1023B000CE0101960E940308CE0101960E946C098D
:1023C00089E090E090930B1380930A1380910A1395
:1023D00090910B130A9721F548EE53E060E070E00E
:1023E00089E293E10E947C088823D1F06BEB74E0D2
:1023F0008BE996E00E94D10761EB74E0CE01019673
:102400000E94790ACE0101960E940308CE0101962E
:102410000E946C098BE090E090930B1380930A1359
:1024200080910A1390910B130C9721F548EE53E01D
:1024300060E070E089E293E10E947C088823D1F09B
:102440006FE974E08BE996E00E94D1076EE774E0D3
:10245000CE0101960E94790ACE0101960E940308DE
:10246000CE0101960E946C098DE090E090930B13D1
:1024700080930A1380910A1390910B130E97D1F455
:1024800048EE53E060E070E089E293E10E947C084E
:10249000882381F069E674E08BE996E00E94D10719
:1024A0008BE893E10E9403088FE090E090930B1378
:1024B00080930A1380910A1390910B13409781F433
:1024C00063E574E08BE996E00E94D10785E893E12B
:1024D0000E94030881E190E090930B1380930A130C
:1024E00080910A1390910B13429779F481E08093C5
:1024F000071383E190E090930B1380930A136FE32B
:1025000074E08BE996E00E94D10780910A139091C4
:102510000B13439709F0BDC080910C1390910D13DC
:10252000892B21F548E853E160E070E089E293E10E
:102530000E947C088823D1F064E274E08BE996E085
:102540000E94D1076DE174E0CE0101960E94790AE4
:10255000CE0101960E940308CE0101960E946C09EB
:1025600081E090E090930D1380930C1380910C13F5
:1025700090910D13029721F548E853E160E070E077
:1025800089E293E10E947C088823D1F060E074E046
:102590008BE996E00E94D10766EF73E0CE010196C9
:1025A0000E94790ACE0101960E940308CE0101968D
:1025B0000E946C0983E090E090930D1380930C13BC
:1025C00080910C1390910D13049721F548E853E185
:1025D00060E070E089E293E10E947C088823D1F0FA
:1025E00069ED73E08BE996E00E94D1076FEC73E030
:1025F000CE0101960E94790ACE0101960E9403083D
:10260000CE0101960E946C0985E090E090930D1335
:1026100080930C1380910C1390910D130697E9F49D
:1026200048EC52E360E070E089E293E10E947C08AC
:10263000882399F065EB73E08BE996E00E94D1075F
:1026400081E693E10E94030881E080930E1387E006
:1026500090E090930D1380930C1380910C13909144
:102660000D130897B1F440ED57E060E070E089E2A7
:1026700093E10E947C08882361F087E693E10E9441
:10268000030810920E1389E090E090930D1380934D
:102690000C138091F60E9091F70E2091F80E309168
:1026A000F90E821B930B9170892B09F440C048E00E
:1026B000642E712CBB24B3948091F60E9091F70E8A
:1026C0002091F80E3091F90E821B930B9170892B9B
:1026D00071F18DED9EE00E941207182F8091091371
:1026E000882329F0612F8BE996E00E9463071D3053
:1026F00009F44EC41A3001F319831A8241E050E004
:10270000BE016F5F7F4F81E993E10E94CB09D4CF77
:1027100088E198E00FB6F894A895809360000FBE0A
:1027200090936000FFCF60E070E0CB01BFC6809166
:1027300032028823A1F00E94820A1092320281E0C4
:1027400090E090930B1380930A1310920D13109244
:102750000C1368EA73E08BE996E00E94D107809140
:102760000713811107C06AE070E080E090E00E94EA
:10277000F90592CC80910A13809335022AE6C22E85
:1027800026E1D22E3AE9A32E36E1B32E8601F801D6
:10279000208130E0F901EC5EF84F8491F901E253B9
:1027A000F94F6490F901E857F94F7490772009F4D4
:1027B00059C281110E940904E72DF0E0EE0FFF1FBE
:1027C000E85FF94FA591B491EC916E2281E009F494
:1027D00080E0782EF8018181781609F445C20E94C4
:1027E0002C06F8012281338144815581621B730BD1
:1027F000840B950B633371058105910508F0718297
:102800000A5F1F4FA016B10609F0C1CF0EEA13E10F
:10281000F8018181E0E4AE2EB12C412C512C320123
:10282000813009F029C2A12CBB24B394412C512C36
:102830003201F80180810E94B105092E000CAA0B1B
:10284000BB0B480E591E6A1E7B1EF1E0AF1AB10881
:1028500081F7B4E07694679457944794BA95D1F78A
:10286000F80153824282349681E090E022813381E4
:1028700021933193019688319105C1F7F80153AA4C
:1028800042AA60E070E0CB0150E040E0FA01EE0FB8
:10289000FF1FE00FF11F24813581620F731F811D1F
:1028A000911D4F5F5F4F4831510581F728E130E0BE
:1028B00040E050E00E94EA1BF80135AB24AB085C15
:1028C0001F4FE016F10609F0A3CF40E090E080E052
:1028D00021E030E0F6015181511120E0082E01C0C5
:1028E000220F0A94EAF7422B0196F6E0CF0ED11C94
:1028F0008830910569F740933402EAE5F6E140E05B
:1029000030E020E08181022E01C0880F0A94EAF7AE
:10291000482B2F5F3F4F32962830310599F740936F
:10292000330266E076E083EA93E10E94510A0EEA00
:1029300013E1D12CC12CF80154A945A98181813022
:1029400009F0B5C1252F342F203CFEE33F0710F0DE
:102950002FEB3EE3AFEFBFE00E940C1C2FEB3EE3FA
:1029600040E050E00E94CB1BF80137AB26ABF801EA
:1029700066A977A983EA93E10E941D0AFBE0CF16BE
:10298000D10431F064E076E083EA93E10E949C098F
:102990002FEFC21AD20A085C1F4F3CE0C316D104C5
:1029A00051F662E076E083EA93E10E949C0960E0E0
:1029B00076E08DE993E10E94510A6EE4C62E66E14D
:1029C000D62E560110E000E0F501618172818DE99B
:1029D00093E10E941D0A0330110531F06EEF75E09E
:1029E0008DE993E10E949C090F5F1F4FF3E0AF0E4A
:1029F000B11C0430110541F76CEF75E08DE993E1EE
:102A00000E949C0980910E13811156C064EF75E0FD
:102A100087E693E10E94510A6FE773E187E693E14D
:102A20000E944A0A62EF75E087E693E10E949C09E2
:102A30006BEE75E087E693E10E949C098091340279
:102A40000E94F70969EE75E087E693E10E949C0910
:102A500061EE75E087E693E10E949C098091330264
:102A60000E94F7096FED75E087E693E10E949C09EB
:102A700068ED75E087E693E10E949C0963EA73E1E3
:102A800087E693E10E944A0A66ED75E087E693E1E6
:102A90000E949C096EEC75E087E693E10E949C0918
:102AA0006DE973E187E693E10E944A0A6CEC75E0F8
:102AB00087E693E10E949C0965EB75E081E693E16E
:102AC0000E94510A69E773E181E693E10E944A0A94
:102AD00060EB75E081E693E10E949C0960916B13C5
:102AE00070916C1381E693E10E941D0A609161135D
:102AF000709162136115710509F4E5C04091651389
:102B0000509166138BE593E10E949C0A6EEA75E092
:102B10008BE593E10E949C0967E673E18BE593E105
:102B20000E944A0A8091591390915A13892B09F4F3
:102B300065C070E060E085E593E10E944706A82E3D
:102B400061E070E085E593E10E944706182F63E09D
:102B500070E085E593E10E944706082F64E070E08D
:102B600085E593E10E944706B82E24E4A212D8C05E
:102B70001A3309F0C2C0802F0E944308182F8B2DF2
:102B80000E94430840E1149F90011124182F122B3A
:102B900088E696E110FD9CC00E94C50886E696E195
:102BA00011FD99C00E94C50884E696E112FD96C009
:102BB0000E94C50882E696E113FD93C00E94C508F5
:102BC00080E696E114FD90C00E94C5088EE596E16E
:102BD00015FD8DC00E94C5088CE596E116FD8AC0E2
:102BE0000E94C5088AE596E117FD97C00E94C508B6
:102BF0006DEA75E085E593E10E94510A60E086E1A7
:102C00000E94700461E070E080E090E00E94F905AD
:102C10000091D50A1091D60A8091D70A9091D80ACE
:102C2000081B190B11700115110509F49FC08CEBDD
:102C30009AE00E941207182F682F8BE996E00E94F5
:102C400063071D3009F4BDC41A3011F319831A82C9
:102C500041E050E0BE016F5F7F4F83E493E10E944B
:102C6000CB09D6CF712CB6CD0E942C06F801628319
:102C7000738384839583C4CDF80180810E94B1055C
:102C8000092E000CAA0BBB0B480E591E6A1E7B1E98
:102C9000F1E0AF1AB10881F776E076946794579423
:102CA00047947A95D1F7F80155AA44AA08CE852F02
:102CB000942F8115F4E09F0710F08FEF93E0F80157
:102CC00097AB86AB54CE8BE593E10E945A091ECF99
:102CD0000E94D40863CF0E94D40866CF0E94D40813
:102CE00069CF0E94D4086CCF0E94D4086FCF0E9495
:102CF000D40872CF0E94D40875CF8FEC810F883032
:102D000008F076CFE12FE153FF0BCF01880F991F19
:102D1000865A994E003309F469CF0E94D40868CFCF
:102D2000F1E4AF1265CF8FEC810F853008F060CFF2
:102D3000802F0E944308082F8B2D0E94430820E11A
:102D4000029FB0011124682B412F4153550BCA013A
:102D5000FA01EE0FFF1FE80FF91FE25BF94E70E07A
:102D60007283618380810E94DA0442CF0E942C0624
:102D70002B013C0180916D0290916E02A0916F0237
:102D8000B0917002A3019201281B390B4A0B5B0B17
:102D9000DA01C901813D9740A105B10508F47FC062
:102DA00080917F139091801360E0009711F00E9452
:102DB0004A1B8BE58093360280913502809337025F
:102DC00060933802809134028093390280913302FB
:102DD00080933A02E6E3F2E0AEEAB3E1D6968C9154
:102DE000D697D7969C91D79795838683D896329617
:102DF00042E0EE34F40791F780914F16909150160F
:102E000090935302809354028091521690915316DE
:102E100090935502809356028091551690915616C4
:102E200090935702809358028091581690915916AA
:102E30009093590280935A023BE5A32E32E0B32EC1
:102E4000B80189E793E10E944706F50181935F018C
:102E50000F5F1F4F0031110599F7E7E3F2E095E3AB
:102E600080E0915019F02191820FFBCF80936B028B
:102E70008DE580936C0247E350E066E372E08AE7F9
:102E800092E00E9459068AE792E00E94E30740928E
:102E90006D0250926E0260926F027092700240ED6D
:102EA00057E060E070E080E293E10E947C088823B4
:102EB000E1F08091131390911413880F991F865A93
:102EC000994E20911513222309F454C00E94D4086E
:102ED00080911313909114138730910509F44DC01C
:102EE0000196909314138093131348E052E060E02E
:102EF00070E087E193E10E947C088823B1F0609143
:102F0000161370E0F6017283618380810E94DA04F7
:102F1000F3E0CF0ED11C2AE5C21626E1D20679F7DE
:102F2000809116138B5F809316130E942C060091DC
:102F30000213109103132091041330910513601BA9
:102F4000710B820B930B0091FE121091FF122091D6
:102F5000001330910113061717072807390708F0E7
:102F6000A8956AE070E080E090E00E94F9050E9478
:102F7000120889C80E94C508ABCF10921413109292
:102F800013138091151391E0892780931513ADCF0A
:102F900080910A1390910B130397D1F463EA73E0C5
:102FA00087E993E10E94510A81E993E10E94F208C6
:102FB00097FD0EC06FE873E08BE996E00E94D107A1
:102FC000D0920B13C0920A1386E393E10E94370854
:102FD00080910A1390910B13059771F460E873E0E8
:102FE0008BE996E00E94D10790920B1380920A130E
:102FF00086E393E10E94370880910A1390910B13A6
:103000000797D1F46AE773E087E993E10E94510AD8
:1030100081E993E10E94F20897FD0EC065E673E036
:103020008BE996E00E94D10770920B1360920A130D
:1030300086E393E10E94370880910A1390910B1365
:103040000997D1F46DE573E087E993E10E94510A95
:1030500081E993E10E94F20897FD0EC066E473E0F7
:103060008BE996E00E94D10750920B1340920A130D
:1030700086E393E10E94370880910A1390910B1325
:103080000B97D1F46EE373E087E993E10E94510A54
:1030900081E993E10E94F20897FD0EC067E273E0B8
:1030A0008BE996E00E94D10730920B1320920A130D
:1030B00086E393E10E94370880910A1390910B13E5
:1030C0000D97E1F469E173E087E993E10E94510A09
:1030D00081E993E10E94F20897FD10C06BE073E074
:1030E0008BE996E00E94D1072EE030E030930B137D
:1030F00020930A1386E393E10E94370880910A1314
:1031000090910B130F97E1F46BEF72E087E993E175
:103110000E94510A81E993E10E94F20897FD10C0D4
:103120006AEE72E08BE996E00E94D10740E150E040
:1031300050930B1340930A1386E393E10E943708E0
:1031400080910A1390910B134197E1F461EE72E0C4
:1031500087E993E10E94510A81E993E10E94F20814
:1031600097FD10C062ED72E08BE996E00E94D107F6
:1031700082E190E090930B1380930A1386E393E12E
:103180000E94370880910A1390910B13439709F01E
:103190009CC080910C1390910D130197E1F46CEC9D
:1031A00072E087E993E10E94510A81E993E10E946C
:1031B000F20897FD10C067EB72E08BE996E00E9481
:1031C000D107E2E0F0E0F0930D13E0930C1386E3F7
:1031D00093E10E94370880910C1390910D1303978F
:1031E000D1F46FEA72E087E993E10E94510A81E924
:1031F00093E10E94F20897FD0EC068E972E08BE946
:1032000096E00E94D107D0920D13C0920C1386E372
:1032100093E10E94370880910C1390910D1305974C
:10322000D1F460E972E087E993E10E94510A81E9F3
:1032300093E10E94F20897FD0EC069E772E08BE906
:1032400096E00E94D10790920D1380920C1386E3B2
:1032500093E10E94370880910C1390910D1307970A
:10326000A1F467E772E087E993E10E94510A81E9DE
:1032700093E10E94F20897FD08C070920D136092CE
:103280000C1386E393E10E94370880910C13909110
:103290000D130997D1F468E672E087E993E10E9483
:1032A000510A81E993E10E94F20897FD0EC0109245
:1032B0000D1310920C136FE472E08BE996E00E94FC
:1032C000D10786E393E10E94370868E472E087E95A
:1032D00093E10E94510A81E993E10E94F20897FD6F
:1032E0003FC046E150E067E070E0CE0101960E94E9
:1032F000CA0ABE016F5F7F4F89E793E10E942109EF
:10330000CE0101960E946C0989E793E10E9457085B
:10331000811102C0B092320266E372E08BE893E161
:103320000E94510A69E773E18BE893E10E944A0A1F
:1033300065E272E08BE893E10E949C0962E172E031
:1033400085E893E10E94510A69E773E185E893E11A
:103350000E944A0A6BE072E085E893E10E949C09B2
:1033600063E072E087E993E10E94510A81E993E109
:103370000E94F20897FD1DC049E050E068E070E04F
:10338000CE0101960E94CA0ABE016F5F7F4F83E79C
:1033900093E10E942109CE0101960E946C096EE121
:1033A00072E083E793E10E940C09811102C0B092A0
:1033B00032026BEF71E087E993E10E94510A81E9E3
:1033C00093E10E94F20897FD1DC04BE050E068E0D9
:1033D00070E0CE0101960E94CA0ABE016F5F7F4F66
:1033E0008DE693E10E942109CE0101960E946C09AD
:1033F0006CE172E08DE693E10E940C09811102C03C
:10340000B092320265EF71E087E993E10E94510AC0
:1034100081E993E10E94F20897FD55C062EF71E0E7
:1034200087E993E10E94510A81E993E10E94F20841
:103430008C0160EF71E087E993E10E94510A81E914
:1034400093E10E94F208B8016E5F7F4FAC01CE019C
:1034500001960E94CA0ABE016F5F7F4F8FE793E11A
:103460000E942109CE0101960E946C0960E272E07F
:103470008FE793E10E940C098111B09232028FE72D
:1034800093E10E945708811108C0B09232026EEE9B
:1034900071E08FE793E10E94510A80917F13909130
:1034A0008013009709F43FC90E944A1B65507109B7
:1034B0006B31710540F0B09232026CEE71E08FE733
:1034C00093E10E94510A63EE71E087E993E10E9463
:1034D000510A81E993E10E94F20897FD1DC04EE078
:1034E00050E069E070E0CE0101960E94CA0ABE0178
:1034F0006F5F7F4F8FE493E10E942109CE01019617
:103500000E946C0963E272E08FE493E10E940C096F
:10351000811102C0B09232026AED71E087E993E155
:103520000E94510A81E993E10E94F20897FD1DC0B3
:1035300040E150E069E070E0CE0101960E94CA0AC5
:10354000BE016F5F7F4F89E493E10E942109CE01A4
:1035500001960E946C0969E272E089E493E10E949D
:103560000C09811102C0B092320260ED71E087E96E
:1035700093E10E94510A81E993E10E94F20897FDCC
:1035800019C04EE250E069E270E0CE0101960E945F
:10359000CA0ABE016F5F7F4F85E593E10E94210952
:1035A000CE0101960E946C0965E573E18BE996E016
:1035B0000E948C066FEC71E081E993E10E94510A50
:1035C0007BC861E576E087E993E10E94510A83E4D4
:1035D00093E10E94F20897FD1BCB61E086E10E9417
:1035E000700462E070E080E090E00E94F90562E221
:1035F00076E08CEB9AE00E94D1078CEB9AE00E9477
:10360000E30706CB8DE393E10E946C0983E493E129
:103610000E946C0989E493E10E946C098FE493E1B4
:103620000E946C0985E593E10E946C098BE593E1AA
:103630000E946C0981E693E10E946C0987E693E1A0
:103640000E946C098DE693E10E946C0983E793E187
:103650000E946C0989E793E10E946C098FE793E16E
:103660000E946C0985E893E10E946C098BE893E164
:103670000E946C0981E993E10E946C0987E993E15A
:103680000E946C098DE993E10E946C0983EA93E141
:103690000C946C091F93FC0199278827BC01E894BE
:1036A00011911032E9F3193010F01E30C8F31B32BB
:1036B00051F01D3249F4689406C00E948C1B610FC2
:1036C000711D811D911D119110531A30B0F33EF4FC
:1036D00090958095709561957F4F8F4F9F4F1F916B
:1036E0000895FB01DC0105900D920020E1F708959B
:1036F000FC0105900020E9F7809590958E0F9F1FA3
:103700000895BB274A3031F4992322F4BDE2909505
:1037100081959F4F0C94A21B592F482F372F262F8E
:10372000660F771F881F991F660F771F881F991FC5
:10373000620F731F841F951F660F771F881F991FC5
:103740000895BB27FB015527AA27880F991FAA1F99
:10375000A41710F0A41B83955051B9F7A05DAA33AC
:1037600008F0A95DA193009779F7B111B193119277
:10377000CB010C94BB1BDC01FC01672F71917723FB
:10378000E1F7329704C07C916D9370836291AE171C
:10379000BF07C8F30895052E97FB1EF400940E94FE
:1037A000E21B57FD07D00E94EA1B07FC03D04EF432
:1037B0000C94E21B50954095309521953F4F4F4F0B
:1037C0005F4F089590958095709561957F4F8F4FCD
:1037D0009F4F0895A1E21A2EAA1BBB1BFD010DC02D
:1037E000AA1FBB1FEE1FFF1FA217B307E407F507B1
:1037F00020F0A21BB30BE40BF50B661F771F881F8D
:10380000991F1A9469F760957095809590959B0122
:10381000AC01BD01CF010895A29FB001B39FC001CB
:10382000A39F700D811D1124911DB29F700D811DEC
:103830001124911D0895EE0FFF1F881F8BBF079065
:10384000F691E02D19940F931F93CF93DF9382305D
:10385000910510F482E090E0E0919C16F0919D16A5
:1038600030E020E0B0E0A0E0309799F42115310578
:1038700009F44AC0281B390B24303105D8F58A8158
:103880009B816115710589F1FB0193838283FE01A0
:1038900011C0408151810281138148175907E0F01E
:1038A0004817590799F4109761F012960C931297E4
:1038B00013961C933296CF01DF91CF911F910F91F8
:1038C000089500939C1610939D16F4CF2115310591
:1038D00051F04217530738F0A901DB019A01BD01ED
:1038E000DF01F801C1CFEF01F9CF90939D168093CE
:1038F0009C16CDCFFE01E20FF31F819391932250CE
:10390000310939832883D7CF20919A1630919B169D
:10391000232B41F4209103023091040230939B1633
:1039200020939A162091010230910202211531054F
:1039300041F42DB73EB74091050250910602241B79
:10394000350BE0919A16F0919B16E217F307A0F45D
:103950002E1B3F0B2817390778F0AC014E5F5F4FE5
:103960002417350748F04E0F5F1F50939B16409366
:103970009A16819391939FCFF0E0E0E09CCFCF9394
:10398000DF930097E9F0FC01329713821282A09135
:103990009C16B0919D16ED0130E020E01097A1F447
:1039A00020813181820F931F20919A1630919B16AE
:1039B0002817390709F061C0F0939B16E0939A1617
:1039C000DF91CF910895EA01CE17DF07E8F54A812C
:1039D0005B819E0141155105B1F7E901FB83EA8343
:1039E00049915991C40FD51FEC17FD0761F48081EF
:1039F00091810296840F951FE901998388838281C2
:103A000093819B838A83F0E0E0E012968D919C91F4
:103A100013970097B9F52D913C911197CD0102961E
:103A2000820F931F20919A1630919B162817390701
:103A300039F6309751F510929D1610929C16B0935E
:103A40009B16A0939A16BCCFD383C2834081518129
:103A5000840F951FC817D90761F44E5F5F4F8881A7
:103A60009981480F591F518340838A819B81938399
:103A700082832115310509F0B0CFF0939D16E093B4
:103A80009C169ECFFD01DC01C0CF13821282D7CFDE
:103A90004F925F926F927F928F929F92AF92BF925E
:103AA000CF92DF92EF92FF920F931F93CF93DF930A
:103AB0008C01009799F4CB01DF91CF911F910F9169
:103AC000FF90EF90DF90CF90BF90AF909F908F903E
:103AD0007F906F905F904F900C94231CFC01E60F39
:103AE000F71F9C0122503109E217F30708F4AEC01A
:103AF000D901CD91DC911197C617D70720F1C530B8
:103B0000D10578F0CE0104978617970750F0C61BB1
:103B1000D70B2297C193D1936D937C93CF010E94D1
:103B2000BF1CC801DF91CF911F910F91FF90EF90C3
:103B3000DF90CF90BF90AF909F908F907F906F90CD
:103B40005F904F9008955B01AC1ABD0A4C018C0E3A
:103B50009D1EA0919C16B0919D16512C412CF12CCC
:103B6000E12C109731F580919A1690919B1688154B
:103B7000990509F05CC04616570608F058C08091B8
:103B8000010290910202009741F48DB79EB74091D7
:103B9000050250910602841B950BE817F90708F0FF
:103BA00055C0F0939B16E0939A16F90171836083D8
:103BB000B8CF8D919C91119712966C901297139695
:103BC0007C901397A815B90559F56C0142E0C40E15
:103BD000D11CCA14DB0420F1AC014A195B09DA01DB
:103BE0001296159780F06282738251834083D901C7
:103BF0006D937C93E114F10471F0D7011396FC935B
:103C0000EE9312978ECF22968C0F9D1FF901918310
:103C10008083F301EFCFF0939D16E0939C1681CF44
:103C20004816590608F42C017D01D3019ACFCB0127
:103C30000E94231C7C01009749F0AE01B8010E944C
:103C4000291EC8010E94BF1C87016BCF10E000E055
:103C500068CFFB01DC0102C001900D924150504041
:103C6000D8F70895FB01DC018D91019080190110B6
:103C7000D9F3990B0895FB01DC0101900D9200200E
:103C8000E1F70895FB0151915523A9F0BF01DC0133
:103C90004D9145174111E1F759F4CD0101900020F4
:103CA00049F04D9140154111C9F3FB014111EFCF8E
:103CB00081E090E00197089513E0CEEAD3E000E0C0
:103CC00006C0802FFE010E941B1C2196011DCF3AC9
:103CD000D10780E00807A9F7F894FFCF0100009E04
:103CE00016800000000000630759060007E307384C
:103CF0000612072C070D0A00302C3100393900302C
:0E3D00002C302C3000302C312C302C300000B8
:020000040003F7
:10E000000D9489F10D94B2F10D94B2F10D94B2F129
:10E010000D94B2F10D94B2F10D94B2F10D94B2F1F0
:10E020000D94B2F10D94B2F10D94B2F10D94B2F1E0
:10E030000D94B2F10D94B2F10D94B2F10D94B2F1D0
:10E040000D94B2F10D94B2F10D94B2F10D94B2F1C0
:10E050000D94B2F10D94B2F10D94B2F10D94B2F1B0
:10E060000D94B2F10D94B2F10D94B2F10D94B2F1A0
:10E070000D94B2F10D94B2F10D94B2F10D94B2F190
:10E080000D94B2F10D94B2F10D94B2F10D94B2F180
:10E090000D94B2F10D94B2F10D94B2F10D94B2F170
:10E0A0000D94B2F10D94B2F10D94B2F10D94B2F160
:10E0B0000D94B2F10D94B2F10D94B2F10D94B2F150
:10E0C0000D94B2F10D94B2F10D94B2F10D94B2F140
:10E0D0000D94B2F10D94B2F10D94B2F10D94B2F130
:10E0E0000D94B2F141546D656761323536300041AF
:10E0F000726475696E6F206578706C6F72657220DE
:10E1000073746B3530305632206279204D4C530099
:10E11000426F6F746C6F616465723E004875683F52
:10E1200000436F6D70696C6564206F6E203D200048
:10E130004350552054797065202020203D20005FF9
:10E140005F4156525F415243485F5F3D2000415658
:10E1500052204C696243205665723D20004743437C
:10E160002056657273696F6E203D20004350552024
:10E1700049442020202020203D20004C6F7720663D
:10E18000757365202020203D20004869676820665F
:10E190007573652020203D200045787420667573D6
:10E1A00065202020203D20004C6F636B2066757336
:10E1B000652020203D20004D617220203720323024
:10E1C000313300312E362E3800342E332E350056A2
:10E1D00023202020414444522020206F7020636F70
:10E1E00064652020202020696E73747275637469E1
:10E1F0006F6E2061646472202020496E74657272B3
:10E20000757074006E6F20766563746F7200726A49
:10E210006D702020006A6D70200057686174207056
:10E220006F72743A00506F7274206E6F7420737541
:10E2300070706F72746564004D7573742062652030
:10E2400061206C6574746572002000577269747483
:10E25000696E672045450052656164696E672045B7
:10E26000450045452065727220636E743D00504F35
:10E27000525400303D5A65726F2061646472003FF1
:10E280003D43505520737461747300403D454550C3
:10E29000524F4D207465737400423D426C696E6B41
:10E2A000204C454400453D44756D70204545505215
:10E2B0004F4D00463D44756D7020464C415348001B
:10E2C000483D48656C70004C3D4C69737420492F83
:10E2D0004F20506F72747300513D51756974005234
:10E2E0003D44756D702052414D00563D73686F7707
:10E2F00020696E7465727275707420566563746FF0
:10E30000727300593D506F727420626C696E6B00BD
:10E310002A0011241FBECFEFD1E2DEBFCDBF01E046
:10E320000CBF12E0A0E0B2E0EEE1FDEF03E00BBFB6
:10E3300002C007900D92A030B107D9F712E0A0E01B
:10E34000B2E001C01D92AE30B107E1F70F9460F367
:10E350000D948DFE01E20EBF0FEF0DBF11241FBE05
:10E360000D9460F30D9400F020E030E040ED57E0B4
:10E3700005C0FA013197F1F72F5F3F4F2817390792
:10E38000C0F308959C01260F311DC901A0E0B0E043
:10E390002F5F3F4FABBFFC018791882361F08093D3
:10E3A000C6008091C00086FFFCCF8091C0008064D1
:10E3B0008093C000EACF08958DE08093C6008091DD
:10E3C000C00086FFFCCF8091C00080648093C000B5
:10E3D0008AE08093C6008091C00086FFFCCF8091C8
:10E3E000C00080648093C00008950F94C2F10F9420
:10E3F000DCF10895FC019081992359F09093C600B7
:10E400008091C00086FFFCCF8091C0008064809323
:10E41000C0003196992379F70895282F982F929567
:10E420009F70892F805D8A3308F0895F8093C600D2
:10E430008091C00086FFFCCF8091C00080648093F3
:10E44000C000822F8F70982F905D9A3308F0995FEB
:10E450009093C6008091C00086FFFCCF8091C000E1
:10E4600080648093C00008959C01FB01853691056E
:10E470001CF46330710594F0C90164E670E00F94F8
:10E480002EFE605D7F4F6093C6008091C00086FFC6
:10E49000FCCF8091C00080648093C0002B30310598
:10E4A00014F43297B4F0C90164E670E00F942EFEC4
:10E4B0006AE070E00F942EFE605D7F4F6093C600AF
:10E4C0008091C00086FFFCCF8091C0008064809363
:10E4D000C000C9016AE070E00F942EFEC0968093E0
:10E4E000C6008091C00086FFFCCF8091C000806490
:10E4F0008093C00008951F93182F8EE692EE60E07F
:10E500000F94C2F11093C6008091C00086FFFCCF2B
:10E510008091C00080648093C0000F94DCF11F9153
:10E5200008952F923F924F925F926F927F928F92B7
:10E530009F92AF92BF92CF92DF92EF92FF920F9392
:10E540001F93DF93CF93CDB7DEB762970FB6F894E2
:10E55000DEBF0FBECDBF382E622ECA01DB015C01CB
:10E560006D01772420E2222E2E010894411C511CBB
:10E570008BC081E0A81680E0B80681E0C80680E084
:10E58000D80628F0C601AA27BB270F940DF2BB2797
:10E59000AD2D9C2D8B2D0F940DF28A2D0F940DF225
:10E5A0002092C6008091C00086FFFCCF8091C00001
:10E5B00080648093C0009DE29093C6008091C0006B
:10E5C00086FFFCCF8091C00080648093C0002092C1
:10E5D000C6008091C00086FFFCCF8091C00080649F
:10E5E0008093C00019828601750188249924A1E0D6
:10E5F0003A1651F03A1620F0B2E03B1661F409C029
:10E600000BBFF701779007C0C7010F9477FE782EF4
:10E6100002C0F7017080872D0F940DF22092C60082
:10E620008091C00086FFFCCF8091C0008064809301
:10E63000C000872D8052F401EF70F0708F3520F408
:10E64000E40DF51D708204C0E40DF51D8EE280839B
:10E650000894E11CF11C011D111D0894811C911CE2
:10E6600090E18916910409F0C2CF80E190E0A0E02A
:10E67000B0E0A80EB91ECA1EDB1E198AC2010F9493
:10E68000FAF10F94DCF16A94662009F072CF629679
:10E690000FB6F894DEBF0FBECDBFCF91DF911F91B3
:10E6A0000F91FF90EF90DF90CF90BF90AF909F9031
:10E6B0008F907F906F905F904F903F902F90089534
:10E6C0002F923F924F925F926F927F928F929F9282
:10E6D000AF92BF92CF92DF92EF92FF920F931F9370
:10E6E000DF93CF93CDB7DEB7CD53D1400FB6F894BB
:10E6F000DEBF0FBECDBF01E20EBF0FEF0DBF94B75F
:10E70000F894A89514BE80916000886180936000A1
:10E7100010926000789493FF05C0E0910002F091A0
:10E7200001021995279A2F9A8091C00082608093E8
:10E73000C00080E18093C40088E18093C1000000A4
:10E74000EE24FF24870144E0A42EB12CCC24DD2448
:10E7500024C0C5010197F1F70894E11CF11C011DCB
:10E76000111D21E2E2162EE4F20620E0020720E06D
:10E77000120718F031E0C32ED12CC801B70127ECE5
:10E780003BE140E050E00F9441FE611571058105C9
:10E79000910519F485B1805885B98091C00087FD35
:10E7A00003C0C114D104A9F2A6014F5F5F4FC25E3E
:10E7B000DE4F59834883CE51D140C25EDE4F8881FF
:10E7C0009981CE51D140019711F00D9410FEC05D9A
:10E7D000DE4F19821882C053D14060E0C15DDE4F28
:10E7E0001882CF52D14088249924C35DDE4F19820C
:10E7F0001882CD52D140C05EDE4F188219821A8233
:10E800001B82C052D140CE5CDE4F188219821A8220
:10E810001B82C253D140EE24FF2487010BBFF701B6
:10E8200007911691C45CDE4F19830883CC53D14005
:10E830000D940BFEC25EDE4F28813981CE51D1404E
:10E840002130310509F52091C600C25EDE4F1982E4
:10E850001882CE51D14022C02F5F3F4F4F4F5F4FA4
:10E86000213082E138078AE7480780E0580780F0C6
:10E87000C45CDE4FE881F981CC53D140EF5FFF4F9C
:10E8800019F0EE27FF27099420E030E040E050E047
:10E890008091C00087FFE0CF2091C600C35DDE4FAE
:10E8A00048815981CD52D1404F5F5F4FC35DDE4FEC
:10E8B00059834883CD52D140213209F063C64A3092
:10E8C000510508F05FC60894811C911C53E0851621
:10E8D000910409F059C600E010E018C081E280936D
:10E8E000C6008091C00086FFFCCF8091C00080648C
:10E8F0008093C0002F5F3F4F2931310579F70F9486
:10E90000DCF10F5F1F4F0530110519F020E030E0FA
:10E91000E5CF10920A0210920B0210920C02109294
:10E920000D02109206021092070210920802109235
:10E930000902109202021092030210920402109235
:10E9400005028FEE90EE60E00F94F5F180E191EE1C
:10E9500060E00F94C2F18091C00087FFFCCF9091DE
:10E96000C600903608F09F759032B8F09093C600BC
:10E970008091C00086FFFCCF8091C00080648093AE
:10E98000C000A0E2A093C6008091C00086FFFCCF2B
:10E990008091C00080648093C000983409F4D7C18E
:10E9A0009934B8F4923409F459C1933458F490333B
:10E9B00019F1903308F4E3C59F33A1F1903409F0C5
:10E9C000DEC5BDC0953409F470C1963409F0D7C5D1
:10E9D00098C1923509F42BC2933538F49C3409F46C
:10E9E000F5C1913509F0CBC518C2963509F445C279
:10E9F000993509F0C4C567C483E792EE62E00F94CD
:10EA0000F5F110920602109207021092080210927D
:10EA1000090210920A0210920B0210920C0210923C
:10EA20000D0213C18FE792EE62E00F94F5F18FEEC5
:10EA300090EE60E00F94F5F181E291EE60E00F94CA
:10EA4000C2F187EB91EE60E00F94F5F180E391EE77
:10EA500060E00F94C2F184EE90EE60E00F94F5F167
:10EA60008FE391EE60E00F94C2F186E090E061E008
:10EA700070E00F9434F20F94DCF18DE591EE60E0DC
:10EA80000F94C2F189EC91EE60E00F94F5F18EE401
:10EA900091EE60E00F94C2F183EC91EE60E00F9490
:10EAA000F5F18CE691EE60E00F94C2F18EE10F94E7
:10EAB0000DF288E90F940DF281E00F940DF20F949E
:10EAC000DCF18BE791EE60E00F94C2F119E0E0E039
:10EAD000F0E010935700E4918E2F0F940DF20F94F5
:10EAE000DCF18AE891EE60E00F94C2F1E3E0F0E03F
:10EAF00010935700E4918E2F0F940DF20F94DCF1D8
:10EB000089E991EE60E00F94C2F1E2E0F0E0109349
:10EB10005700E4918E2F0F940DF20F94DCF188EAE8
:10EB200091EE60E00F94C2F1E1E0F0E01093570045
:10EB30001491812F0F940DF20F94DCF107CF8BE825
:10EB400092EE62E00F94F5F18BE492EE60E00F94A8
:10EB5000F5F10F94DCF100E010E019C0C8016F2D51
:10EB60000F947FFEFF2031F489E492EE60E00F9471
:10EB7000C2F10BC0F092C6008091C00086FFFCCFAE
:10EB80008091C00080648093C0000F5F1F4FC80158
:10EB900081519F41A0E0B0E0ABBFFC01F790BAE229
:10EBA000FB1621F0E2E000301E07C1F60F94DCF105
:10EBB0000F94DCF187E592EE60E00F94F5F10F948D
:10EBC000DCF1CC24DD2400E010E01EC0C8010F946D
:10EBD00077FEF82E882331F489E492EE60E00F94FA
:10EBE000C2F10BC08093C6008091C00086FFFCCFAD
:10EBF0008091C00080648093C000FE1419F00894D6
:10EC0000C11CD11C0F5F1F4FC80181519F41A0E063
:10EC1000B0E0ABBFFC01E790FAE2EF1621F022E092
:10EC20000030120799F60F94DCF10F94DCF182E6C4
:10EC300092EE60E00F94C2F1C60161E070E00F94C3
:10EC400034F20F94DCF10F94DCF110920202109276
:10EC50000302109204021092050278CE89E992EE26
:10EC600062E00F94F5F1279A2F9A16C02F9880E052
:10EC700090E0E0EDF7E03197F1F7019684369105E9
:10EC8000C1F72F9A80E090E0E0EDF7E03197F1F7DF
:10EC9000019684369105C1F78091C00087FFE6CFC9
:10ECA0008091C00087FFFCCF64C485EA92EE62E0E9
:10ECB0000F94F5F140910202509103026091040219
:10ECC0007091050281E020E10F9491F2809102029F
:10ECD00090910302A0910402B091050280509F4FD1
:10ECE000AF4FBF4F8093020290930302A0930402A0
:10ECF000B093050280509041A040B04008F426CE69
:10ED0000A4CF83EB92EE62E00F94F5F140910602FE
:10ED100050910702609108027091090280E020E1A1
:10ED20000F9491F28091060290910702A09108023F
:10ED3000B091090280509F4FAF4FBF4F80930602A2
:10ED400090930702A0930802B0930902FFCD80ECD4
:10ED500092EE62E00F94F5F183E792EE60E00F949B
:10ED6000F5F18FE792EE60E00F94F5F18BE892EE0B
:10ED700060E00F94F5F189E992EE60E00F94F5F10F
:10ED800085EA92EE60E00F94F5F183EB92EE60E09D
:10ED90000F94F5F180EC92EE60E00F94F5F187ECC2
:10EDA00092EE60E00F94F5F188ED92EE60E00F9442
:10EDB000F5F18FED92EE60E00F94F5F18AEE92EEB0
:10EDC00060E00F94F5F183E093EEBDCD87EC92EE19
:10EDD00062E00F94F5F181E40F947BF282E40F94EA
:10EDE0007BF283E40F947BF284E40F947BF285E45E
:10EDF0000F947BF286E40F947BF287E40F947BF20E
:10EE000088E40F947BF28AE40F947BF28BE40F94F6
:10EE10007BF28CE40F947BF299CD88ED92EE62E068
:10EE20000F94F5F1772473948824992409C48FED05
:10EE300092EE62E00F94F5F140910A0250910B02BC
:10EE400060910C0270910D0282E020E10F9491F22A
:10EE500080910A0290910B02A0910C02B0910D02D8
:10EE600080509F4FAF4FBF4F80930A0290930B0289
:10EE7000A0930C02B0930D0269CD8AEE92EE62E08F
:10EE80000F94F5F184EE90EE60E00F94F5F18FECC5
:10EE900091EE60E00F94F5F1662477244301CC5D98
:10EEA000DE4F19821882C452D140D401C301B695F5
:10EEB000A79597958795CA5DDE4F88839983AA8326
:10EEC000BB83C652D140CC5DDE4FA881B981C4520C
:10EED000D1401196CC5DDE4FB983A883C452D14096
:10EEE000CD0162E070E00F9434F2B0E2B093C6005E
:10EEF0008091C00086FFFCCF8091C0008064809329
:10EF0000C000EDE2E093C6008091C00086FFFCCF18
:10EF10008091C00080648093C000F0E2F093C6004E
:10EF20008091C00086FFFCCF8091C00080648093F8
:10EF3000C000CA5DDE4FE880F9800A811B81C6529D
:10EF4000D140BB27A12F902F8F2D0F940DF2CA5DBA
:10EF5000DE4F8881C652D1400F940DF2B0E2FB2EF5
:10EF6000F092C6008091C00086FFFCCF8091C00067
:10EF700080648093C0000DE30093C6008091C000C0
:10EF800086FFFCCF8091C00080648093C00010E2B7
:10EF90001093C6008091C00086FFFCCF8091C00016
:10EFA00080648093C0008BBEF3012791C65DDE4F65
:10EFB0002883CA52D140A22EBB24CC24DD2408943D
:10EFC000611C711C811C911C8BBEF3018791282E42
:10EFD0003324442455240894611C711C811C911C09
:10EFE0008BBEF3013791C55DDE4F3883CB52D140E4
:10EFF0000894611C711C811C911C8BBEF30147910C
:10F00000C45DDE4F4883CC52D140ADEFEA2EAFEF66
:10F01000FA2EAFEF0A2FAFEF1A2F6E0C7F1C801E57
:10F02000911E142D032DF22CEE24EA0CFB1C0C1D5A
:10F030001D1D0F940DF220E22093C6008091C000A8
:10F0400086FFFCCF8091C00080648093C000C65DC5
:10F05000DE4F8881CA52D1400F940DF230E23093D6
:10F06000C6008091C00086FFFCCF8091C000806404
:10F070008093C000C45DDE4F8881CC52D1400F9494
:10F080000DF240E24093C6008091C00086FFFCCFA5
:10F090008091C00080648093C000C55DDE4F888190
:10F0A000CB52D1400F940DF250E25093C6008091A4
:10F0B000C00086FFFCCF8091C00080648093C000B8
:10F0C0008FEFE8168FEFF80680E0080780E018075A
:10F0D00031F484E092EE60E00F94C2F1DFC0D80119
:10F0E000C7018070907CA070B0708050904CA040A0
:10F0F000B040D1F52FEF3FE340E050E0E222F322B1
:10F1000004231523CA5DDE4FA880B980CA80DB8046
:10F11000C652D140AE0CBF1CC01ED11EAA0CBB1CD7
:10F12000CC1CDD1C8EE092EE60E00F94C2F1BB2798
:10F13000A12F902F8F2D0F940DF28E2D0F940DF285
:10F1400030E23093C6008091C00086FFFCCF8091F2
:10F15000C00080648093C0004EE34093C60080915D
:10F16000C00086FFFCCF87C08EE09EEFA0E0B0E03D
:10F17000E822F9220A231B239CE0E91694E9F90608
:10F1800090E0090790E0190709F088C0C45DDE4FE0
:10F19000A881CC52D140EA2EFF2400E010E0102FCD
:10F1A0000F2DFE2CEE24C55DDE4FB881CB52D14031
:10F1B000EB0EF11C011D111DD601C501817090706F
:10F1C000A070B070DC0199278827E80EF91E0A1F8D
:10F1D0001B1F20EF30E040E050E0A222B322C42207
:10F1E000D52241E1AA0CBB1CCC1CDD1C4A95D1F7F1
:10F1F000EA0CFB1C0C1D1D1D81E090E0A0E0B0E0BE
:10F20000282239224A225B2235E1220C331C441C7D
:10F21000551C3A95D1F7E20CF31C041D151D57013E
:10F220006801AA0CBB1CCC1CDD1C85E192EE60E0E1
:10F230000F94C2F1C801AA27BB270F940DF2BB2778
:10F24000A12F902F8F2D0F940DF28E2D0F940DF274
:10F2500090E29093C6008091C00086FFFCCF809121
:10F26000C00080648093C000AEE3A093C60080918C
:10F27000C00086FFFCCF8091C00080648093C000F6
:10F28000C601AA27BB270F940DF2BB27AD2D9C2DDD
:10F290008B2D0F940DF28A2D0F940DF20F94DCF14B
:10F2A000CC5DDE4FE881F981C452D140F99709F471
:10F2B0004DCBF4E0EF2EF12C012D112D6E0C7F1CA7
:10F2C000801E911EF2CD83E093EE62E00F94F5F183
:10F2D0008AE192EE60E00F94C2F18091C00087FF56
:10F2E000FCCF1091C6001F751093C6008091C0001E
:10F2F00086FFFCCF8091C00080648093C0000F9493
:10F30000DCF1812F81548A3108F036C1163409F4BA
:10F3100095C0173490F4133409F44EC0143430F40B
:10F320001134F1F0123409F01DC130C0143409F465
:10F3300059C0153409F016C16BC01A3409F4C4C0A1
:10F340001B3438F4173409F48FC0183409F00AC19B
:10F35000A1C01B3409F4D2C01C3409F003C1E8C0B9
:10F360008FEF81B90DC082B1809582B980E090E0C5
:10F37000E0EDF7E03197F1F70196883C9105C1F790
:10F380008091C00087FFEFCF12B8EFC08FEF84B934
:10F390000DC085B1809585B980E090E0E0EDF7E0A3
:10F3A0003197F1F70196883C9105C1F78091C00033
:10F3B00087FFEFCF15B8D9C08FEF87B90DC088B1DF
:10F3C000809588B980E090E0E0EDF7E03197F1F7C3
:10F3D0000196883C9105C1F78091C00087FFEFCF6F
:10F3E00018B8C3C08FEF8AB90DC08BB180958BB9A7
:10F3F00080E090E0E0EDF7E03197F1F70196883C8E
:10F400009105C1F78091C00087FFEFCF1BB8ADC059
:10F410008FEF8DB90DC08EB180958EB980E090E0F0
:10F42000E0EDF7E03197F1F70196883C9105C1F7DF
:10F430008091C00087FFEFCF1EB897C08FEF80BBD1
:10F440000DC081B3809581BB80E090E0E0EDF7E0F6
:10F450003197F1F70196883C9105C1F78091C00082
:10F4600087FFEFCF11BA81C08FEF83BB0DC084B38C
:10F47000809584BB80E090E0E0EDF7E03197F1F714
:10F480000196883C9105C1F78091C00087FFEFCFBE
:10F4900014BA6BC08FEF809301010FC080910201FD
:10F4A00080958093020180E090E0E0EDF7E03197F5
:10F4B000F1F70196883C9105C1F78091C00087FF64
:10F4C000EDCF1092020151C08FEF809304010FC065
:10F4D0008091050180958093050180E090E0E0ED4A
:10F4E000F7E03197F1F70196883C9105C1F78091DB
:10F4F000C00087FFEDCF1092050137C08FEF8093DA
:10F5000007010FC08091080180958093080180E079
:10F5100090E0E0EDF7E03197F1F70196883C910536
:10F52000C1F78091C00087FFEDCF109208011DC088
:10F530008FEF80930A010FC080910B01809580931B
:10F540000B0180E090E0E0EDF7E03197F1F70196F4
:10F55000883C9105C1F78091C00087FFEDCF1092E4
:10F560000B0103C085E292EEEEC98091C00087FFD7
:10F57000FCCF8091C600EAC988E392EEE4C98CE131
:10F5800091EEE1C988249924933011F1943028F444
:10F59000913089F09230B8F408C0953061F195301F
:10F5A000F0F0963009F048C043C02B3109F042C951
:10F5B00091E06BE13FC96227C15DDE4F2883CF52E6
:10F5C000D14092E037C9B22FA0E0622793E032C960
:10F5D000822F90E0A82BB92B622794E02BC92E3004
:10F5E00009F039C3622795E0C05DDE4F19821882A9
:10F5F000C053D1401FC9E1E0F0E0EC0FFD1FC05D3A
:10F60000DE4F08811981C053D140E00FF11F2083E4
:10F610000F5F1F4FC05DDE4F19830883C053D14079
:10F6200062270A171B0709F005C9D80196E002C92D
:10F63000261709F010C303C0973009F0FBC87724E0
:10F640009981933109F412C19431C8F4963009F4C8
:10F65000D8C0973050F4923009F406C1933009F4C1
:10F660006DC0913009F059C253C0913109F477C08F
:10F67000923108F0BBC0903109F04FC2F5C098310B
:10F6800009F487C0993150F4953109F4EFC09531F0
:10F6900008F4C6C1963109F040C2C2C19A3109F4DA
:10F6A0006CC09A3108F491C09B3109F45BC09D3164
:10F6B00009F033C29D81903359F48F81882311F46E
:10F6C0009EE11CC0813011F091E018C098E916C08D
:10F6D000892F807591F0903539F4E0E0F0E089E011
:10F6E0008093570094910AC0983539F4E3E0F0E034
:10F6F00089E080935700949101C090E01A821B82A8
:10F700008D818C831D829E831F8227E030E009C299
:10F710001A8288E08B8381E48C8386E58D8382E581
:10F720008E8389E48F8383E5888780E589878FE5E9
:10F730008A8782E38B872BE030E0F3C18A818139AD
:10F7400041F0823941F0803911F48FE005C080E04A
:10F7500003C082E001C08AE01A828B8344C0772410
:10F76000739482C08D81882311F48EE12CC0813086
:10F7700011F081E028C088E926C01A82E1E0F0E0BB
:10F7800089E08093570084918B831C8224E030E0D1
:10F79000C8C18B81803589F48C81883039F4E2E0EE
:10F7A000F0E089E08093570084910DC0E0E0F0E044
:10F7B00089E080935700849106C0E3E0F0E089E09F
:10F7C0008093570084911A82DFCF8D81836C99E0FA
:10F7D000E1E0F0E0082E90935700E89507B600FCB2
:10F7E000FDCF1A821B8223E030E09BC180EC8A832C
:10F7F000CE5CDE4F188219821A821B82C253D1401E
:10F800008EC18A8190E0A0E0B0E0582F44273327D2
:10F8100022278B8190E0A0E0B0E0DC0199278827C7
:10F82000282B392B4A2B5B2B8D8190E0A0E0B0E098
:10F83000282B392B4A2B5B2B8C8190E0A0E0B0E089
:10F84000BA2FA92F982F8827282B392B4A2B5B2BCF
:10F85000220F331F441F551FC05EDE4F288339839C
:10F860004A835B83C052D1401A8259C13A81C95C34
:10F87000DE4F3883C753D140CA5CDE4F1882C6536F
:10F88000D1408B81C82EDD24CA5CDE4F488159816E
:10F89000C653D140C42AD52A933109F082C0CE5C28
:10F8A000DE4F88819981AA81BB81C253D1408050AB
:10F8B000904CA340B04030F583E0CE5CDE4FE88052
:10F8C000F9800A811B81C253D140F70100935B008C
:10F8D00080935700E89507B600FCFDCFCE5CDE4F65
:10F8E000088119812A813B81C253D14000501F4FAA
:10F8F0002F4F3F4FCE5CDE4F088319832A833B8313
:10F90000C253D140C05EDE4F488159816A817B81FC
:10F91000C052D140DE011B9631E08C9111962C91A2
:10F9200011971296C75CDE4F2883C953D140C85C3B
:10F93000DE4F1882C853D14090E0C85CDE4FE881AA
:10F94000F981C853D1408E2B9F2B0C01FA01609393
:10F950005B0030935700E89511244E5F5F4F6F4F67
:10F960007F4F0EEFE02E0FEFF02ECE0CDF1CC114F8
:10F97000D10499F685E0C05EDE4F088119812A81A5
:10F980003B81C052D140F80120935B008093570027
:10F99000E89507B600FCFDCF81E180935700E8951C
:10F9A00035C0C05EDE4F88819981AA81BB81C0527B
:10F9B000D140B695A795979587957C018601ABE0D8
:10F9C000AA2EB12CAC0EBD1E0BC0D5016D915D01F0
:10F9D000C7010F947FFE0894E11CF11C01501040F8
:10F9E0000115110591F7A60160E070E0440F551F65
:10F9F000661F771FC05EDE4FE880F9800A811B8199
:10FA0000C052D1404E0D5F1D601F711F1A82C05E33
:10FA1000DE4F488359836A837B83C052D1407FC0C5
:10FA2000FA80C55CDE4FF882CB53D140C65CDE4F16
:10FA30001882CA53D1408B81C82EDD24C65CDE4FAC
:10FA400008811981CA53D140C02AD12A1A828981DA
:10FA5000BE016D5F7F4F843121F59601C05EDE4FA0
:10FA6000E880F9800A811B81C052D1400BBFF701A9
:10FA700087919691DB018C9311969C936E5F7F4FDB
:10FA8000D801C7010296A11DB11DC05EDE4F88835B
:10FA90009983AA83BB83C052D14022503040F1F6F3
:10FAA00036C0C05EDE4F288139814A815B81C052F9
:10FAB000D1400894C108D108760100E010E0089414
:10FAC000C11CD11C0894E11CF11C011D111DE20E8A
:10FAD000F31E041F151F21BDBB27A52F942F832FB5
:10FAE00082BD2F5F3F4F4F4F5F4FF89A80B5DB01CC
:10FAF0008D93BD012E153F054007510761F7C05E8C
:10FB0000DE4F288339834A835B83C052D1409601FC
:10FB10002D5F3F4FFB01108204C080EC8A8322E0FE
:10FB200030E08BE18093C6008091C00086FFFCCF5F
:10FB30008091C00080648093C000C15DDE4FF88179
:10FB4000CF52D140F093C6008091C00086FFFCCF19
:10FB50008091C00080648093C000432F3093C60022
:10FB60008091C00086FFFCCF8091C00080648093AC
:10FB7000C000922F2093C6008091C00086FFFCCF6A
:10FB80008091C00080648093C0008EE08093C600A6
:10FB90008091C00086FFFCCF8091C000806480937C
:10FBA000C00065E1C15DDE4FE880CF52D1406E25D7
:10FBB00069276427FE01319610C090819093C6009A
:10FBC0008091C00086FFFCCF31968091C000806498
:10FBD0008093C0006927215030402115310569F715
:10FBE0006093C6008091C00086FFFCCF8091C0006A
:10FBF00080648093C00085B1805885B9772081F4F6
:10FC0000C15DDE4F0881CF52D1400F5FC15DDE4F35
:10FC10000883CF52D14090E0A0E0B0E00D941AF4F8
:10FC200027982F9880E090E020ED37E0F901319798
:10FC3000F1F7019684369105C9F700008091C00064
:10FC40008D7F8093C00081E180935700E895EE2777
:10FC5000FF270994FFCF90E00D941AF497FB092E2B
:10FC600007260AD077FD04D02ED006D000201AF443
:10FC7000709561957F4F0895F6F7909581959F4F08
:10FC80000895A1E21A2EAA1BBB1BFD010DC0AA1FDD
:10FC9000BB1FEE1FFF1FA217B307E407F50720F0F5
:10FCA000A21BB30BE40BF50B661F771F881F991F70
:10FCB0001A9469F760957095809590959B01AC01B9
:10FCC000BD01CF010895AA1BBB1B51E107C0AA1FAC
:10FCD000BB1FA617B70710F0A61BB70B881F991FED
:10FCE0005A95A9F780959095BC01CD010895F99991
:10FCF000FECF92BD81BDF89A992780B50895262F31
:10FD0000F999FECF1FBA92BD81BD20BD0FB6F89400
:0EFD1000FA9AF99A0FBE01960895F894FFCF63
:00000001FF
