:100000000C94CD030C94FE030C94FE030C94FE039D
:100010000C94FE030C94FE030C94FE030C94FE035C
:100020000C94FE030C94FE030C94FE030C94FE034C
:100030000C94FE030C94FE030C94FE030C94FE033C
:100040000C94FE030C94FE030C94FE030C94FE032C
:100050000C94FE030C94FE030C94FE030C94BE144B
:100060000C94FE030C942E160C9404160C94FE03B0
:100070000C94FE030C94FE030C94FE030C94FE03FC
:100080000C94FE030C94FE030C94FE030C94FE03EC
:100090000C94DA150C94B0150C94FE030C94FE032A
:1000A0000C94FE030C94FE030C94FE030C94FE03CC
:1000B0000C94FE030C94FE030C94FE030C94FE03BC
:1000C0000C94FE030C94FE030C94FE030C94861512
:1000D0000C945C150C94FE030C9432150C940815CA
:1000E0000C94FE030C949D060C94A4140C947F08AD
:1000F0000C944B040C94D80A0C94A4160C942C0465
:100100000C949C120C9444050C941E040C943C0515
:100110000C947D0A0C948F050C940D0F0C94200503
:100120000C947B050C94B1060C9434050C945E047D
:100130000C94BF060C9434090C9424040C942B0CDE
:100140000C9451040C9443040C94CE0B0C94020CAC
:100150000C948E060C9449090C9411050C943904E6
:100160000C945E080C943C100C94CD120C945D0918
:100170000C9471050C94EF120C94360B0C94E80857
:100180000C9441060C94A3050C943B130C94280486
:100190000C945F040C9458160C9485050C949508E7
:1001A0000C94CD100C9459040C948A080C945805A6
:1001B0000C94F80B0C942A050C9425110C947409DA
:1001C0000C9474080C945A110C9499050C94240CFA
:1001D0000C9477070C9455040C9430040C94510E35
:1001E0000C9462050C944E050C94DF070C944704A4
:1001F0000C9433040C9463040C941E120C940905A3
:100200000C941A0C0C9460080C9416050C94A0081D
:100210000C943D043E3E3E20496F54205761746368
:1002200068646F67204177616B656E005B53747221
:10023000696E67205370616365204E4F54204F4BA9
:100240005D005B537472205370616365204F4B5D9A
:1002500000466F726365205075626C6973683A007E
:100260000041542B514D544F50454E3D302C696F39
:10027000742E7265632D67742E636F6D2C31383860
:100280003000466F726365204F70656E3A004F50C4
:10029000454E00464F5243450052455345540000D9
:1002A0002B514D545055423A20302C312C30002BDC
:1002B000514D545055423A20302C302C30002B51A7
:1002C0004D5450554245583A20302C312C30002B9B
:1002D000514D5450554245583A20302C302C300066
:1002E0003E0041542B4353510041542B4350494E3F
:1002F0003F003E3E3E205175657279204350494E85
:1003000020262043535100302C310031002B514D19
:10031000545355423A20302C312C302C30002B5184
:100320004D54434F4E4E3A20302C302C30002B5140
:100330004D544F50454E3A20302C300041542B51F3
:100340004D544F50454E3D302C382E3231302E38E2
:10035000342E32342C313838300041542B514D5426
:100360004F50454E3D302C696F742E7265632D677A
:10037000742E636F6D2C313838300041542B434557
:100380005245473F0041542B43474154543F00419D
:10039000542B4353510041542B4347534E3D31009E
:1003A00041542B514D54444953433D300041542B4B
:1003B000514D54434C4F53453D300041542B434520
:1003C000445258533D302C350041542B4353434F36
:1003D0004E3D300041542B4350534D533D3000416E
:1003E000542B5153434C4B3D300041542B43465505
:1003F0004E3D310041542B5149444E534346473DF5
:10040000302C312E312E312E312C3232332E352EEE
:10041000352E350041542B5153434C4B3D30004158
:10042000542B4346554E3D31003E3E3E20494F54ED
:1004300020434F4E4E454354494F4E20494E495458
:1004400000415449003E3E3E20494F5420534552FE
:1004500049414C204641494C210029003E3E3E2066
:10046000494F542053455249414C2050524F424528
:100470002E2E2E20280041542B5153434C4B3D30FF
:100480000041544530003E3E3E2046494E495348C7
:10049000204841524457415245205245534554004B
:1004A0005244590000000000000000000000003E1F
:1004B0003E3E20494F54204D4F44554C4520494E17
:1004C00049542C205245534554002B4350494E3A31
:1004D000204E4F54205245414459002B434D452056
:1004E0004552524F52002B51495552433A202270E7
:1004F00064706465616374222C31002B514D545239
:100500004543563A2000302C31002B434552454795
:100510003A20302C310031002B43474154543A20CB
:1005200031002B4353513A20002F6F75742C30004B
:1005300041542B514D545355423D302C312C726750
:10054000742F002C747377682C31576F3D5B3676AF
:1005500041306D0041542B514D54434F4E4E3D3070
:100560002C6465765F002B4347534E3A2000002FE2
:10057000696E2C0041542B514D5450554245583D05
:10058000302C312C322C302C7267742F0041542BBC
:10059000514D545055423D302C312C322C302C7260
:1005A00067742F007D0022616F7574223A002C0061
:1005B0002261696E223A002C0022646F7574223A1F
:1005C000002C002264696E223A002C007B226373A7
:1005D00071223A005D002C005B005D002C005B0086
:1005E000000020002300260029002C002F003200EC
:1005F00000010000030106010901005B3E3E736536
:100600006E6420746F20636F6D70757465722C203A
:1006100073656E6420746F20636F6D70757465729E
:100620002C2073656E6420746F20636F6D70757419
:1006300065725D000041542B4D4F44453D53454E7E
:10064000440041542B4D4F44453D4D414E55414C86
:10065000005B3C3C7265706C7920746F20636F6D39
:1006600070757465722C207265706C7920746F20BF
:10067000636F6D70757465722C207265706C792073
:10068000746F20636F6D70757465725D0041540006
:1006900000002100240027002A002D003000330034
:1006A00001010000040107010A01000022002500E9
:1006B00028002B002E00310034000201000005014B
:1006C00008010B01050505050705080808080202D1
:1006D00002020A0A080804040404010101010101DC
:1006E00001010303030303030303040707070C0CBF
:1006F0000C0C0C0C0C0C0202020206060606060686
:1007000006060B0B0B0B0B0B0B0B0102102020082A
:10071000081020401020408002010201080402015C
:1007200001020408102040808040201008040201CB
:100730008004020180402010080402010804020124
:1007400001020408102040800102040810204080AB
:1007500000000A0B02090C0D0E080703040100003B
:100760000000000000000000000000000000000089
:100770000000000000000000000000001211100046
:100780000000000000000000000000000000000069
:10079000000000000000A416581611241FBECFEF61
:1007A000D1E2DEBFCDBF00E00CBF15E0A0E0B2E0BB
:1007B000E6E8F8E500E00BBF02C007900D92A43315
:1007C000B107D9F72CE0A4E3B5E001C01D92A23532
:1007D000B207E1F713E0CCECD3E000E006C02197CC
:1007E0000109802FFE010E944527CB3CD10780E004
:1007F0000807A9F70E940E1A0C94312C0C940000E3
:100800008150823108F05AC0E82FF0E08827E45F79
:10081000FB4F8F4F0C9445272C0430041E042404F6
:1008200028045E04330439043D04430447044B04A4
:10083000510455045E0459045F04630480918000F0
:100840008F77809380000895809180008F7DF9CF0D
:1008500080918000877FF5CF84B58F7784BD089520
:1008600084B58F7DFBCF8091B0008F778093B000EF
:1008700008958091B0008F7DF9CF809190008F779F
:10088000809390000895809190008F7DF9CF8091A2
:100890009000877FF5CF8091A0008F778093A00094
:1008A00008958091A0008F7DF9CF8091A000877F6F
:1008B000F5CF809120018F7780932001089580915A
:1008C00020018F7DF9CF80912001877FF5CF1F9385
:1008D000CF93DF93282F30E0F901E05BF84F84914C
:1008E000F901E65FF84FD491F901EC53F94FC49147
:1008F000CC23A9F0162F81110E940004EC2FF0E008
:10090000EE0FFF1FE655F94FA591B4918FB7F894FC
:10091000EC91111108C0D095DE23DC938FBFDF91DD
:10092000CF911F910895DE2BF8CFCF93DF9390E006
:10093000FC01E65FF84F24918C53994FFC018491A0
:100940008823C9F090E0880F991FFC01E057F94F08
:10095000A591B491FC01E655F94FC591D49161116F
:100960000DC09FB7F8948C91209582238C93888139
:10097000282328839FBFDF91CF910895623051F4DF
:100980009FB7F8943C91822F809583238C93E881C4
:100990002E2BEFCF8FB7F894EC912E2B2C938FBF8B
:1009A000EACF1F93CF93DF93182FEB0161E00E94F2
:1009B0009504209739F460E0812FDF91CF911F914A
:1009C0000C946704CF3FD10511F461E0F5CFE12F1E
:1009D000F0E0E05BF84FE491E150E23108F0B3C0A1
:1009E000F0E08827E950FB4F8F4F0C94452709050D
:1009F0001105160520052A05A30534053C05440507
:100A00004E055805620571057B05A30585058F0513
:100A1000990584B5806884BDC7BDDF91CF911F91D2
:100A2000089584B5806284BDC8BDF7CF80918000F1
:100A3000806880938000D0938900C0938800EDCFB8
:100A400080918000806280938000D0938B00C0935F
:100A50008A00E3CF80918000886080938000D093EB
:100A60008D00C0938C00D9CF8091B00080688093B6
:100A7000B000C093B300D1CF8091B000806280936A
:100A8000B000C093B400C9CF80919000806880937B
:100A90009000D0939900C0939800BFCF80919000B0
:100AA000806280939000D0939B00C0939A00B5CF52
:100AB00080919000886080939000D0939D00C093B7
:100AC0009C00ABCF8091A00080688093A0008091B3
:100AD000A0008F7B8093A000D093A900C093A800B2
:100AE0009CCF8091A00080628093A000D093AB0047
:100AF000C093AA0092CF8091A00088608093A0004C
:100B0000D093AD00C093AC0088CF80912001806865
:100B100080932001D0932901C09328017ECF80913A
:100B20002001806280932001D0932B01C0932A0181
:100B300074CF80912001886080932001D0932D0193
:100B4000C0932C016ACFC038D1050CF03ECF33CF13
:100B5000863308F0865320917B00982F9870277F6A
:100B6000922B90937B002091000290E4299F9001AA
:100B700011248770822B80937C0080917A0080649E
:100B800080937A0080917A0086FDFCCF8091780076
:100B90009091790008953FB7F894809180059091E5
:100BA0008105A0918205B091830526B5A89B05C05B
:100BB0002F3F19F00196A11DB11D3FBFBA2FA92FDC
:100BC000982F8827BC01CD01620F711D811D911DD9
:100BD00042E0660F771F881F991F4A95D1F7089545
:100BE0008F929F92AF92BF92CF92DF92EF92FF923D
:100BF0006B017C010E94CB054B015C01C114D10447
:100C0000E104F104B9F00E94CB05681979098A0959
:100C10009B09683E73408105910580F321E0C21A6B
:100C2000D108E108F10888EE880E83E0981EA11C27
:100C3000B11CE4CFFF90EF90DF90CF90BF90AF90CA
:100C40009F908F9008952FB7F89460917C057091D4
:100C50007D0580917E0590917F052FBF0895FC0151
:100C6000248135816217730748F480819181009750
:100C700029F0860F971FFC018081089580E0089578
:100C80000895AF92BF92CF92DF92EF92FF920F93AF
:100C90001F93CF93DF936C017B018B01040F151F12
:100CA000EB015E01AE18BF08C017D10759F069917A
:100CB000D601ED91FC910190F081E02DC6011995CE
:100CC000892B79F7C501DF91CF911F910F91FF908B
:100CD000EF90DF90CF90BF90AF900895FB014481DB
:100CE0005581608171810C944106FC01A089B18914
:100CF0008C91A689B78982FD0FC09C91818D8F5FF1
:100D00008F73228D821749F0A18DAE0FBF2FB11DB9
:100D10005D969C93818F08958C910895FC01538D6D
:100D2000448D252F30E0842F90E0821B930B5417C5
:100D300010F0CF96089501970895FC01918D828D52
:100D4000981761F0A28DAE0FBF2FB11D5D968C91EB
:100D5000928D9F5F9F73928F90E008958FEF9FEF2A
:100D60000895FC01918D828D981731F0828DE80FE6
:100D7000F11D858D90E008958FEF9FEF0895FC01A0
:100D8000918D228D892F90E0805C9F4F821B91096D
:100D90008F73992708958FEB97E00E94BF0621E09B
:100DA000892B09F420E0822F089584E895E00E94C1
:100DB000BF0621E0892B09F420E0822F089581E20B
:100DC00096E00E94BF0621E0892B09F420E0822FE3
:100DD000089580ED96E00E94BF0621E0892B09F47A
:100DE00020E0822F0895CF92DF92EF92FF921F931F
:100DF000CF93DF93EC016A017B01122FE889F98917
:100E000082E08083C11481EED806E104F104A1F0F0
:100E100060E079E08DE390E0A70196010E9414273D
:100E20002150310941095109569547953795279524
:100E3000211580E1380798F0E889F989108260E887
:100E400074E88EE190E0A70196010E9414272150DA
:100E50003109410951095695479537952795EC85F4
:100E6000FD853083EE85FF852083188EEC89FD8912
:100E70001083EA89FB89808180618083EA89FB890C
:100E8000808188608083EA89FB8980818068808393
:100E9000EA89FB8980818F7D8083DF91CF911F91CB
:100EA000FF90EF90DF90CF900895FC01A48DA80FE4
:100EB000B92FB11DA35ABF4F2C91848D90E001969C
:100EC0008F739927848FA689B7892C93A089B189BC
:100ED0008C91837080648C93938D848D981306C05D
:100EE0000288F389E02D80818F7D80830895EF92C1
:100EF000FF920F931F93CF93DF93EC0181E0888FD4
:100F00009B8D8C8D98131AC0E889F989808185FFA3
:100F100015C09FB7F894EE89FF896083E889F98945
:100F200080818370806480839FBF81E090E0DF9147
:100F3000CF911F910F91FF90EF900895F62E0B8D9A
:100F400010E00F5F1F4F0F731127E02E8C8D8E1155
:100F50000CC00FB607FCFACFE889F989808185FFBC
:100F6000F5CFCE010E945507F1CFEB8DEC0FFD2F91
:100F7000F11DE35AFF4FF0829FB7F8940B8FEA8977
:100F8000FB8980818062CFCF0F931F93CF93DF9334
:100F90008C01D0E0C0E0F801EC0FFD1F64916623E6
:100FA00041F080ED96E00E947707892B11F02196A1
:100FB000F2CFCE01DF91CF911F910F910895CF9382
:100FC000DF93EC01888D8823B9F0AA89BB89E88971
:100FD000F9898C9185FD03C0808186FD0DC00FB617
:100FE00007FCF7CF8C9185FFF2CF808185FFEDCF95
:100FF000CE010E945507E9CFDF91CF91089580E09F
:1010000090E0892B29F00E94E90681110E940000DE
:1010100080E090E0892B29F00E94DF0681110E9478
:10102000000080E090E0892B29F00E94D506811114
:101030000E94000080E090E0892B29F00E94CB06FE
:1010400081110C9400000895009741F0DC0158963E
:10105000ED91FC9104A0F5A1E02D1994089500975D
:1010600041F0DC015896ED91FC9100A0F1A1E02D3A
:10107000199486E190E09093470C8093460C8FEF93
:101080009FEF0895CF93DF93EC01288539854A853A
:101090005B85A8EEB3E00E9409270E94F0058C85CD
:1010A0009D858230910538F0880F991F880F991F10
:1010B00005970197F1F7DF91CF91089581E00895A9
:1010C000FC01808D882349F084859585DC01ED91B4
:1010D000FC910190F081E02D199481E090E09383E0
:1010E000828390E080E00895DC011C968D919C91B4
:1010F000DC01ED91FC910680F781E02D1994DC0173
:101100001C968D919C91DC01ED91FC910284F385FC
:10111000E02D1994DC011C968D919C91DC01ED91E0
:10112000FC910484F585E02D1994DC011C968D91C9
:101130009C91DC01ED91FC910084F185E02D1994E6
:101140000F931F93CF93DF938C01FC01C485D5854A
:10115000E881F9810680F781E02DCE011995EA89B1
:10116000FB8980818F7E8083EA89FB898081877FEC
:101170008083EA89FB8980818F778083EA89FB8974
:1011800080818F7D80838A8D898FF8018089918904
:1011900097FD08C060E00E94670460E0F801808964
:1011A0000E949504F8018289938997FD0CC060E044
:1011B0000E94670460E0F8018289DF91CF911F915E
:1011C0000F910C949504DF91CF911F910F91089589
:1011D0008F929F92AF92BF92DF92EF92FF920F9306
:1011E0001F93CF93DF93EC014A015B01D22E898ECE
:1011F0009A8EAB8EBC8E2D8F3E8F8C899D890097E9
:1012000009F08C010C8B1D8B8E899F89009709F04A
:101210007C01EE8AFF8A8889998997FD07C061E081
:101220000E94950460E088890E9467048A899B89EE
:1012300097FD07C061E00E94950461E08A890E94E1
:101240006704188E2D2DB501A4018C859D85DF9135
:10125000CF911F910F91FF90EF90DF90BF90AF90D3
:101260009F908F900C94F306EF92FF920F931F9331
:10127000DC01ED91FC910488F589E02DA2E3EA2ED2
:10128000F12C02E310E019951F910F91FF90EF9060
:101290000895EF92FF920F931F93DC01ED91FC9163
:1012A0000488F589E02D7801890126E030E0199560
:1012B0001F910F91FF90EF900895EF92FF920F937F
:1012C0001F93DC01ED91FC910488F589E02D22E368
:1012D000E22EF12C02E310E026E030E019951F9198
:1012E0000F91FF90EF90089590E080E0089560E006
:1012F00086E10E94670462E070E080E090E00C9478
:10130000F005982F80ED890F8A3070F08FEB890FF0
:10131000863018F489EC890F08958FE9890F86309B
:1013200010F489EAF8CF80E00895CF93DF93EC01C1
:101330000E942306688379838A839B83DF91CF9100
:1013400008958F929F92AF92BF92CF92DF92EF92C9
:10135000FF92CF93DF93EC016B010E9423068C80F8
:101360009D80AE80BF809B01AC01281939094A09D4
:101370005B0949015A01F12CE12C8885811108C0D3
:101380000E9423066C837D838E839F8381E0888700
:10139000C814D904EA04FB0408F418860E94230642
:1013A0008C809D80AE80BF80681979098A099B096D
:1013B00021E0C616D706E806F90608F020E0822FDD
:1013C000DF91CF91FF90EF90DF90CF90BF90AF90E3
:1013D0009F908F900895CF93DF93FC01218122236A
:1013E00031F0EC0160E080810E9467041982DF9196
:1013F000CF910895CF93DF93FC012181211107C084
:10140000EC0161E080810E94670481E08983DF91C3
:10141000CF910895CF93DF93EC01862F68831982D3
:1014200061E00E949504CE01DF91CF910C94EB090D
:10143000CF93DF9320910E0930910F09232B89F070
:10144000FC01C0910A09D0910B0960817181CE0124
:101450000E947129009729F08C1B9D0BDF91CF9181
:1014600008958FEF9FEFFACF209108093091090975
:10147000232B39F421E0FC018081882361F020E0F6
:101480000AC0BC0180910409909105090E9461295C
:1014900021E0892BA1F7822F0895FC012481358159
:1014A000FB014481558124173507E1F4FC0180815B
:1014B0009181FB01608171810097D1F06115710507
:1014C000A1F4232BC1F0FC01808190E008C0232B04
:1014D00091F0FB01808190E091958195910921E047
:1014E000892B09F020E0822F08950E946129F7CF0F
:1014F0006115710561F721E0F6CF0E9453298F92A3
:101500009F92AF92BF92EF92FF920F931F93CF9350
:10151000DF93CDB7DEB7A1970FB6F894DEBF0FBE4D
:10152000CDBF7C01FA01CB0119A2223008F42AE0D8
:101530008E010F5D1F4F822E912CB12CA12CBF016B
:10154000A50194010E941427F901CA016A3074F5BB
:10155000605DD8016E938D01232B242B252B79F709
:1015600090E080E0109789F0FD0101900020E9F7FC
:101570003197AF014A1B5B0BD701ED91FC910280C3
:10158000F381E02DB801C7011995A1960FB6F89423
:10159000DEBF0FBECDBFDF91CF911F910F91FF90A6
:1015A000EF90BF90AF909F908F900895695CD1CFDE
:1015B0008F929F92AF92BF92CF92DF92EF92FF9263
:1015C0000F931F93CF93DF937C01EB016C0182E0BB
:1015D000C80ED11C4701E5E08E0E911C10E000E022
:1015E000F60141916F0150E070E060E02AE0CE0129
:1015F0000E947F0A5C01E881F9810190F081E02D71
:101600006EE2CE0119958A0D9B1D080F191FC81493
:10161000D90431F7F701458150E070E060E02AE03D
:10162000CE010E947F0A800F911FDF91CF911F9101
:101630000F91FF90EF90DF90CF90BF90AF909F9071
:101640008F90089542E050E069E672E00C94410604
:10165000CF93DF930E94C407EC0180ED96E00E94D7
:10166000220B8C0F9D1FDF91CF91089510923E05A4
:1016700084E192E00C94280B0F931F93CF93DF9398
:10168000EC010E946E068C01CE010E94220B800F9D
:10169000911FDF91CF911F910F910895CF93DF9309
:1016A000EC0161E086E10E94670462E070E080E0A6
:1016B00090E00E94F005BE018FEB97E00E943C0B8A
:1016C0008FEB97E00E94DF0762E070E080E090E03F
:1016D000DF91CF910C94F005BC0181E296E00E946D
:1016E0003C0B81E296E00E94DF0761E070E080E061
:1016F00090E00C94F0050F931F93CF93DF938C0130
:10170000EB01FC01808191810097E1F06881798192
:1017100061157105A9F0428153812C813D814217E9
:10172000530770F00E946A298C819D81F80195838E
:1017300084831D821C82DF91CF911F910F910895A8
:101740000E94E92788819981F801918380838A81A9
:101750009B81938382838C819D819583848319826D
:1017600018821B821A82E5CFCF93DF93EC01888128
:101770009981009711F00E94E927198218821D8231
:101780001C821B821A82DF91CF910895FC01808117
:101790009181009711F00C94E9270895CF93DF937E
:1017A000EC0185E292E0998388838C899D8900977A
:1017B00011F00E94E9278E899F89009711F00E94FD
:1017C000E927888D998D009711F00E94E9278A8D6D
:1017D0009B8D009711F00E94E9278A819B810097D9
:1017E00021F0DF91CF910C942408DF91CF910895DF
:1017F000CF93DF93EC010E94CE0BCE01DF91CF910E
:101800000C94E927CF93DF93EC0189E392E099836D
:1018100088838B899C89009711F00E94E9278A812F
:101820009B81009721F0DF91CF910C942408DF91E8
:10183000CF910895CF93DF93EC010E94020CCE016B
:10184000DF91CF910C94E92721E432E0FC01318350
:1018500020830C94020CCF93DF93EC010E94240CA4
:10186000CE01DF91CF910C94E9270F931F93CF9373
:10187000DF93EC0188819981009759F02A813B819F
:101880002617370730F081E0DF91CF911F910F913C
:1018900008958B016F5F7F4F0E947228009759F067
:1018A000998388831B830A832C813D81232B59F7DD
:1018B000FC011082E8CF80E0E7CFEF92FF920F9318
:1018C0001F93CF93DF938C017B01EB0109900020E4
:1018D000E9F72197C61BD70BBE010E94350C811179
:1018E00009C0C801DF91CF911F910F91FF90EF9038
:1018F0000C94B40BF801D583C483B7018081918126
:10190000DF91CF911F910F91FF90EF900C946A2976
:10191000EF92FF920F931F93CF93DF9361157105A1
:1019200041F480E0DF91CF911F910F91FF90EF90F4
:1019300008957B01EC01CB010E9497260097A9F046
:101940000C811D81080F191FB801CE010E94350CB2
:10195000882339F3288139818C819D81B701820FD9
:10196000931F0E9490261D830C8381E0DBCFEF92B2
:10197000FF920F931F93CF93DF936115710541F48D
:1019800080E0DF91CF911F910F91FF90EF9008952C
:1019900041155105B1F07B01EC010C811D81040F53
:1019A000151FB8010E94350C882351F32881398115
:1019B0008C819D81B701820F931F0E946A291D832C
:1019C0000C8381E0DECFEF92FF920F931F93CF93B2
:1019D000DF9300D000D01F92CDB7DEB77C01CB01E2
:1019E0004AE08E010F5F1F4FB8010E94C026F80128
:1019F00001900020E9F73197AF01401B510BB8016E
:101A0000C7010E94B70C27960FB6F894DEBF0FBE31
:101A1000CDBFDF91CF911F910F91FF90EF9008956F
:101A2000EF92FF920F931F93CF93DF9300D01F92FB
:101A3000CDB7DEB77C01862F4AE08E010F5F1F4FC6
:101A4000B80190E00E94A026F80101900020E9F77B
:101A50003197AF01401B510BB801C7010E94B70C71
:101A60000F900F900F900F90DF91CF911F910F91DA
:101A7000FF90EF900895CF93DF931F921F92CDB701
:101A8000DEB769831A8241E050E0BE016F5F7F4F8D
:101A90000E94B70C0F900F90DF91CF910895FB013A
:101AA00044815581608171810C94B70CEF92FF9253
:101AB0000F931F93CF93DF93EC018B016115710599
:101AC00051F0CB010E9497267C01BC01CE010E94FF
:101AD000350C81110BC0CE010E94B40BCE01DF91F9
:101AE000CF911F910F91FF90EF900895FD82EC82AE
:101AF000B801888199810E949026F0CFFC01118263
:101B0000108213821282158214820C94560DEF9269
:101B1000FF920F931F93CF93DF93EC017B01198208
:101B200018821B821A821D821C82FB0101900020F8
:101B3000E9F731978F01061B170BB8010E94350C8E
:101B4000811109C0CE01DF91CF911F910F91FF90BC
:101B5000EF900C94B40B1D830C83B701888199819D
:101B6000DF91CF911F910F91FF90EF900C946A2914
:101B7000AF92BF92CF92DF92EF92FF920F931F939B
:101B8000CF93DF936C015B017A018901241735073C
:101B900020F48F2D7901042F182F6BE672E0C60117
:101BA0000E94870DD5011496CD91DC91EC16FD06AF
:101BB000E0F40C171D0708F4E801D501ED91FC9144
:101BC0001197EC0FFD1F108110826D917C916E0DAD
:101BD0007F1DC60161157105A1F00E945D0CF50124
:101BE00080819181C80FD91F1883C601DF91CF91E1
:101BF0001F910F91FF90EF90DF90CF90BF90AF902B
:101C000008950E94B40BEBCFBF92CF92DF92EF9278
:101C1000FF920F931F93CF93DF93CDB7DEB7ED8481
:101C2000FE84CF84D888B9880B891C89D701149683
:101C30008D919C91892B59F0AE01475E5F4F6F8962
:101C4000788D80914C0C90914D0C0E948B298D8940
:101C50009E89892B31F0C7010E944208C7010E946A
:101C60002F08F6018281938180589F4F938382834E
:101C7000D7015896ED91FC910484F585E02DB801CB
:101C8000C6011995F801E80FF91FB0820196DF919E
:101C9000CF911F910F91FF90EF90DF90CF90BF9069
:101CA00008952F923F924F925F926F927F928F9200
:101CB0009F92AF92BF92CF92DF92EF92FF920F93DB
:101CC0001F93CF93DF93CDB7DEB7C851D2400FB685
:101CD000F894DEBF0FBECDBFFC01A281B381109787
:101CE00049F486E190E09093470C8093460C90E095
:101CF00080E05BC45C017E01FBEFEF1AFEEFFF0AA0
:101D00005896ED91FC9159970488F589E02DB7011B
:101D1000CD0119951816190654F7D50112966D9034
:101D20007C90C55FDD4F99838883CB50D24086E19C
:101D300090E06114710409F432C4D3015896ED9116
:101D4000FC91C280D380A4E0B1E0AC0FBD1FAC0D0C
:101D5000BD1D8C91282F30E0CD5EDD4F3983288367
:101D6000C351D240A7014C0D5D1DC15FDD4F5983AA
:101D70004883CF50D240DA019C90092D10E0A6E0B4
:101D8000B1E0AC0FBD1FAC0DBD1D4C90512C542CBF
:101D90004424A7E0B1E0AC0FBD1FAC0DBD1D8C917C
:101DA000480E511C1E01BBEF2B1ABDEF3B0AD1019F
:101DB00011963C932E9313961C930E9312970684C0
:101DC000F785E02DBE01655F7D4FC7011995F101D3
:101DD00095838483EFEFE90DE73108F0B5C5F0E0B6
:101DE0008827EA50F14F8F4F0C9445270D0F0D0FA8
:101DF0003C103C10CD102511CD12A414A414A41431
:101E0000A414A414A414A4145A111E129C12A414F1
:101E1000A414A414A414EF123B130230110509F00A
:101E20004CC0D5011A964D915C911B9718962D9137
:101E30003C9119975696AD90BC9086E792E0E8E009
:101E4000F1E0EC0FFD1FEC0DFD1DE080F12CFE2CF0
:101E5000EE24E9E0F1E0EC0FFD1FEC0DFD1D6081CB
:101E6000E60EF11CB70161507109603D774078F1D1
:101E700027E02F9320ED2F939F938F93FF92EF9264
:101E80008AEA92E09F938F931F9281E08F9321E0E3
:101E900030E02C0F3D1F3F932F931F9283E08F93D1
:101EA0003F922F927F926F920E94040E8C010FB688
:101EB000F894DEBF0FBECDBF67C0F50146815781E4
:101EC00024813581A488B5888CE692E0B8CF620180
:101ED000C41AD50AD7FC08C047018C0C9D1C2815D4
:101EE0003905ACF44E0C5F1C9F938F935F924F9219
:101EF00082ED92E09F938F931F921F9261E070E0BA
:101F00006C0F7D1F7F936F931F9282E00FC2D301EE
:101F10005896ED91FC910484F585E02DBE016F5F2C
:101F20007F4FC10119958C010F5F1F4FE1E0F0E079
:101F3000EC0FFD1F8E0F9F1F21E0A7014770552753
:101F4000452B09F420E0F3E0F594E794FA95E1F7E6
:101F5000E20EDC01EC92F501EC0DFD1D30E020E01D
:101F600090E080E0AF014A195B09481559050CF46F
:101F70006AC0892B49F0E1E0F0E0EC0FFD1FE00FB3
:101F8000F11F20830F5F1F4FCD5EDD4F2881398108
:101F9000C351D240232B09F406C3D3015896ED91C7
:101FA000FC910088F189E02DB801CE0101961995C8
:101FB0007C01D3015896ED91FC910288F389E02DC4
:101FC000A701BE016F5F7F4FC30119958B016F3F62
:101FD0007F4F39F5F301868181FF23C0C090460C05
:101FE000D090470CF2EFCF16FDE2DF0609F0BCC43B
:101FF000D3015896ED91FC91068CF78DE02DC3012D
:102000001995C3010E944208D3015896ED91FC91A5
:10201000048CF58DE02DC3011995D092470CC09228
:10202000460CF301868181FF03C00F3F100709F2C0
:10203000101611060CF0B7C2E016F10609F4B3C28F
:102040008FEE9BE2ACC2419150E0082E02C0440FDB
:10205000551F0A94E2F7242B352B8730910551F454
:10206000A1E0B0E0AC0FBD1FA00FB11F2C930F5F1C
:102070001F4F74CF019676CF04301105B1F5F501ED
:102080004685578524853585808C918C86E892E03D
:10209000E8E0F1E0EC0FFD1FEC0DFD1D008110E00C
:1020A000102F0027E9E0F1E0EC0FFD1FEC0DFD1D06
:1020B0006081060F111DB80161507109FE01319652
:1020C0006F016D37710500F11F922DE72F939F93DC
:1020D0008F931F930F938AEA92E09F938F931F929F
:1020E00081E08F93FF93EF93D8CED50152964D9117
:1020F0005C91539750962D913C9151975A968D90A3
:102100009C908BE992E0C4CF7201E41AF50A570162
:10211000F7FC07C0E00EF11E2E153F057CF4400EC3
:10212000511E9F938F935F924F9282ED92E09F9307
:102130008F931F921F92DF92CF92E6CED3015896D3
:10214000ED91FC910484F585E02DB601C10119954E
:10215000F601E80FF91F000F00839501220F331FCE
:10216000820E931E0196F601E80FF91F8F010C19DC
:102170001D09AE14BF040CF007CFD40111968C9149
:10218000B2E08B0E911C8083D40112978C918183D5
:102190002FEFA21AB20A3296E9CFD50116968D9189
:1021A0009C911797A201481B590BCE01019657FD30
:1021B00006C014962D913C91421753074CF05F9244
:1021C0004F9224EF32E03F932F931F921F92B1C1A1
:1021D000E8E0F1E0EC0FFD1FEC0DFD1D208130E08B
:1021E000322F2227E9E0F1E0EC0FFD1FEC0DFD1D81
:1021F0006081260F311D2115FFEF3F0719F02115D2
:102200003105B1F4D5015496ED91FC91E40FF51F21
:1022100041E0232B09F440E04083C55FDD4F088196
:102220001981CB50D240A801B7010E945829ACCEE9
:102230005F924F923F932F932DE133E03F932F9383
:102240001F921F929F938F936FC0D50152968D91CD
:102250009C9153979201281B390BCE01019637FDB3
:1022600007C050964D915C915197241735072CF07B
:102270005F924F922BE533E0A6CF220F331F5A9681
:10228000ED91FC91E20FF31FA8E0B1E0AC0FBD1F90
:10229000AC0DBD1D2C9130E0322F2227A9E0B1E01A
:1022A000AC0FBD1FAC0DBD1D4C91240F311D3183F2
:1022B0002083B3CFE8E0F1E0EC0FFD1FEC0DFD1D36
:1022C000808190E0982F8827E9E0F1E0EC0FFD1F76
:1022D000EC0DFD1D2081820F911D9C0121503109C3
:1022E000203B374070F4EAE0F1E0EC0FFD1FEC0D0D
:1022F000FD1D2081E8E02E9F900111242817390749
:10230000ECF427E02F9320EB2F939F938F9389E892
:1023100093E09F938F931F9281E08F9321E030E0B1
:102320002C0F3D1F3F932F931F9283E08F933F927B
:102330002F927F926F920E94040EB8CDD50116960F
:102340002D913C911797F201E21BF30B9F01F7FDD2
:102350000CC0BC016E0F7F1F14964D915C911597B8
:1023600046175707D4F4480E591E5F924F928DEBD3
:1023700093E09F938F931F921F9221E030E02C0FE8
:102380003D1F3F932F931F9282E08F933F922F9296
:102390007F926F920E94040E89CD56E0C50ED11C2B
:1023A00054960D911C91200F311FF90150E040E02F
:1023B00081E090E08C0F9D1FC80ED91ECF01801BBD
:1023C000910B86179707F0F0D3015896ED91FC9189
:1023D0000484F585E02DBE016F5F7F4FC101199523
:1023E000A1E0B0E0AC0FBD1FA80FB91FF701E80FC7
:1023F000F91F24E001900D922A95E1F78C010C5F02
:102400001F4FC2CDCF01821B930BA3E096958795FA
:10241000AA95E1F78C0D9D1D8C5F9E4FDC018C9180
:1024200090E0042E02C0959587950A94E2F781709A
:1024300081934F5F5F4F47705527C0CFE8E0F1E0D1
:10244000EC0FFD1FEC0DFD1D208130E0322F222707
:10245000E9E0F1E0EC0FFD1FEC0DFD1D8081280F80
:10246000311DC90101978B37910570F4EAE0F1E065
:10247000EC0FFD1FEC0DFD1D8081B8E08B9FC001AE
:102480001124821793077CF41F928BE78F933F935D
:102490002F9387EE93E09F938F931F9281E08F930A
:1024A000CE010196CFCED50152968D919C91539736
:1024B000F201E81BF90BCF01F7FD31C0A9014E0F66
:1024C0005F1F50966D917C916417750734F1C15F61
:1024D000DD4FE881F981CF50D2409C01220F331F9C
:1024E0002E193F092C193D09841795070CF06CCF64
:1024F000D5015A966D917C91DB01A20FB31FAE0FEF
:10250000BF1F668170E0762F66271781610F711DEE
:102510006D937C9301963296E7CF420E531E5F92E5
:102520004F9280E294E09F938F931F921F92CE016F
:1025300001969F938F9327CFD3015896ED91FC91ED
:102540000484F585E02DBE016F5F7F4FC1011995B1
:10255000FE01E80FF91F24EB2283FE01E80FF91FAB
:102560002FEF2383DC011396E1E0F0E0EC0FFD1F79
:10257000AE0FBF1F28E0EFE4F4E001900D922A9522
:10258000E1F78C01055F1F4FE1E0F0E0EC0FFD1F6C
:10259000E80FF91F8AE08083F7CC8DE690E09093F6
:1025A000470C8093460C81E090E0C85EDD4F0FB68B
:1025B000F894DEBF0FBECDBFDF91CF911F910F9179
:1025C000FF90EF90DF90CF90BF90AF909F908F9053
:1025D0007F906F905F904F903F902F900895D5011E
:1025E00052968D919C915397F201E81BF90BCE0105
:1025F0000196F7FD3DCE50962D913C915197E217F3
:10260000F3070CF035CEEE0FFF1F5A962D913C913B
:10261000E20FF31FAAE0B1E0AC0FBD1FAC0DBD1D72
:102620002C9130E0322F2227ABE0B1E0AC0FBD1F80
:10263000AC0DBD1D4C91240F311DA8E0B1E0AC0FD5
:10264000BD1FAC0DBD1D4C91642F70E0762F662729
:10265000A9E0B1E0AC0FBD1FAC0DBD1D4C91460F04
:10266000572F511D6081718162277327462357239D
:10267000242735271CCEE8E0F1E0EC0FFD1FEC0D20
:10268000FD1D808190E0982F8827E9E0F1E0EC0FB4
:10269000FD1FEC0DFD1D2081FC01E20FF11DC35F4C
:1026A000DD4FF983E883CD50D240ECE0F1E0EC0F50
:1026B000FD1FEC0DFD1D808190E0982F8827EDE037
:1026C000F1E0EC0FFD1FEC0DFD1D2081820F911D2F
:1026D0009C0121503109DE01119629373105C0F4E2
:1026E000C35FDD4F28813981CD50D240215031095F
:1026F0002D37310568F4EEE0F1E0EC0FFD1FEC0D35
:10270000FD1D40819C01220F331F4217130639F132
:102710001F922DE72F931F9229E72F93C25FDD4F62
:10272000F881CE50D240FF93C35FDD4F2881CD505A
:10273000D2402F939F938F9388E594E09F938F933C
:102740001F9281E08F93BF93AF931F9283E08F938B
:102750003F922F927F926F920E94040EA7CBEAE0E5
:10276000F1E0EC0FFD1FEC0DFD1D208130E0322F5C
:102770002227EBE0F1E0EC0FFD1FEC0DFD1D408189
:10278000240F311DF501428953898201041B150B69
:10279000CF5EDD4F19830883C151D240B901641B5C
:1027A000750BAB014B0117FDE6C0C35FDD4FE88140
:1027B000F981CD50D240E00FF11FCB5EDD4FF983A0
:1027C000E883C551D240F50160897189CB5EDD4F48
:1027D000E881F981C551D2406E177F07FCF057FDA3
:1027E0001FC0AC01480D591DC95EDD4F5983488398
:1027F000C751D24064177507E4F4280F391F17FF3B
:102800000FC03F932F935F924F9284EA94E09F937F
:102810008F931F921F92BF93AF9376CB57FFEDCF4D
:10282000C35FDD4F68817981CD50D240460E571E7F
:10283000E8CFF301808D918DFC01248535857D01E4
:10284000BD01CE018B5F9D4FF9011995F701E80F8E
:10285000F91FC35FDD4F2881CD50D240220F208366
:10286000C15FDD4FE881F981CF50D240AE014B5FAF
:102870005E4F9401220F331F241B350B2C193D0989
:10288000C95EDD4F48815981C751D24084169506F3
:102890000CF443C0F701E80FF91F9801220F331F12
:1028A0002E193F09B901681B790BCB0141E050E0BB
:1028B0004E195F098A010E0F1F1FCB5EDD4F688125
:1028C0007981C551D240CF5EDD4FA881B981C15118
:1028D000D240A617B7070CF057CBBC016E0F7F1F75
:1028E000D5015A962D913C91DB01A20FB31F119691
:1028F0002C91119721832C912283CF5EDD4F28816B
:102900003981C151D2402F5F3F4FCF5EDD4F3983B8
:102910002883C151D2403296CDCFD5015A964D91E0
:102920005C91DA01A20FB31FAE0FBF1F428550E0CA
:10293000542F44276385460F511D4D935C93BFEF81
:102940008B1A9B0A32969CCF1F929F9285EF94E040
:102950009F938F931F9281E08F939E012F5F3F4F34
:102960003F932F931F9211CDC3010E944208C301D0
:102970000E942F0852CB77FF40CF43CF1F920F9278
:102980000FB60F9211242F933F938F939F93AF9382
:10299000BF9380917C0590917D05A0917E05B091BB
:1029A0007F0530917B0523E0230F2D3758F50196E5
:1029B000A11DB11D20937B0580937C0590937D051F
:1029C000A0937E05B0937F0580918005909181054D
:1029D000A0918205B09183050196A11DB11D809340
:1029E000800590938105A0938205B0938305BF91E4
:1029F000AF919F918F913F912F910F900FBE0F90AC
:102A00001F90189526E8230F0296A11DB11DD2CF65
:102A10001F920F920FB60F9211240BB60F922F93A5
:102A20003F934F935F936F937F938F939F93AF9356
:102A3000BF93EF93FF938FEB97E00E945507FF91B1
:102A4000EF91BF91AF919F918F917F916F915F9126
:102A50004F913F912F910F900BBE0F900FBE0F9093
:102A60001F9018951F920F920FB60F9211240BB65C
:102A70000F922F933F934F935F936F937F938F9317
:102A80009F93AF93BF93EF93FF938FEB97E00E94D9
:102A90007506FF91EF91BF91AF919F918F917F91BB
:102AA0006F915F914F913F912F910F900BBE0F90BF
:102AB0000FBE0F901F9018951F920F920FB60F9296
:102AC00011240BB60F922F933F934F935F936F9305
:102AD0007F938F939F93AF93BF93EF93FF9384E87C
:102AE00095E00E945507FF91EF91BF91AF919F91A3
:102AF0008F917F916F915F914F913F912F910F90A7
:102B00000BBE0F900FBE0F901F9018951F920F9243
:102B10000FB60F9211240BB60F922F933F934F9342
:102B20005F936F937F938F939F93AF93BF93EF9335
:102B3000FF9384E895E00E947506FF91EF91BF91A5
:102B4000AF919F918F917F916F915F914F913F9145
:102B50002F910F900BBE0F900FBE0F901F901895E6
:102B60001F920F920FB60F9211240BB60F922F9354
:102B70003F934F935F936F937F938F939F93AF9305
:102B8000BF93EF93FF9381E296E00E945507FF9178
:102B9000EF91BF91AF919F918F917F916F915F91D5
:102BA0004F913F912F910F900BBE0F900FBE0F9042
:102BB0001F9018951F920F920FB60F9211240BB60B
:102BC0000F922F933F934F935F936F937F938F93C6
:102BD0009F93AF93BF93EF93FF9381E296E00E94A0
:102BE0007506FF91EF91BF91AF919F918F917F916A
:102BF0006F915F914F913F912F910F900BBE0F906E
:102C00000FBE0F901F9018951F920F920FB60F9244
:102C100011240BB60F922F933F934F935F936F93B3
:102C20007F938F939F93AF93BF93EF93FF9380ED29
:102C300096E00E945507FF91EF91BF91AF919F9150
:102C40008F917F916F915F914F913F912F910F9055
:102C50000BBE0F900FBE0F901F9018951F920F92F2
:102C60000FB60F9211240BB60F922F933F934F93F1
:102C70005F936F937F938F939F93AF93BF93EF93E4
:102C8000FF9380ED96E00E947506FF91EF91BF9152
:102C9000AF919F918F917F916F915F914F913F91F4
:102CA0002F910F900BBE0F900FBE0F901F90189595
:102CB00080EA97E00E94240C83E998E00E94C60B0A
:102CC00089E998E00E94C60B8FE998E00E94C60B44
:102CD0008CEC98E00E94C60B82ED98E00E94C60B37
:102CE00088ED98E00E94C60B80EE98E00E94C60B2B
:102CF00086EE98E00E94C60B8CEE98E00E94C60B10
:102D000082EF98E00E94C60B88EF98E00E94C60B05
:102D10008EEF98E00E94C60B84E099E00E94C60BFB
:102D20008AE099E00E94C60B80E199E00E94C60B00
:102D300086E199E00E94C60B89E09CE00E94240C89
:102D400088E29CE00C94CE0B2F923F924F925F92C0
:102D50007F928F929F92AF92BF92CF92DF92EF922B
:102D6000FF920F931F93CF93DF930FEB17E0D801E0
:102D700013961C921E92129788EEC82E83E0D82ECE
:102D8000E12CF12CF801C482D582E682F78283E13E
:102D900092E09183808325E331E03587248724E323
:102DA00031E03787268720E331E0318B208B21E328
:102DB00031E0338B228B22E331E0358B248B26E309
:102DC00031E0378B268B118E128E138E148EE4E831
:102DD000F5E013821282C482D582E682F782918363
:102DE000808325ED30E03587248724ED30E0378778
:102DF000268720ED30E0318B208B21ED30E0338BC6
:102E0000228B22ED30E0358B248B26ED30E0378BA2
:102E1000268B118E128E138E148EE1E2F6E0138251
:102E20001282C482D582E682F782918380832DEC60
:102E300030E0358724872CEC30E03787268728EC74
:102E400030E0318B208B29EC30E0338B228B2AEC65
:102E500030E0358B248B2EEC30E0378B268B118EB7
:102E6000128E138E148EE0EDF6E013821282C4826D
:102E7000D582E682F7829183808385EC90E0958706
:102E8000848784EC90E09787868780EC90E0918B34
:102E9000808B81EC90E0938B828B82EC90E0958B21
:102EA000848B86EC90E0978B868B118E128E138E1E
:102EB000148EAEEBB6E099E4A92E92E0B92E1196ED
:102EC000BC92AE9212961C92129713961C92139774
:102ED00014961C92149715961C92A4ECB6E01196C9
:102EE000BC92AE9212961C92129713961C92139754
:102EF00014961C92149715961C92AAECB6E01196A3
:102F0000BC92AE9212961C92129713961C92139733
:102F100014961C92149715961C92C8E2DCE01B8252
:102F20001A822CE23CE088E1D9011D928A95E9F7EA
:102F30008FE292E099838883ADE6B7E0BD8FAC8FD6
:102F4000C9E0DCE01B821A82CC82DD82EE82FF8245
:102F5000198618861A861C8A1B8A1E8A1D8A188E54
:102F60001F8A1A8E198E1C8E1B8E81E492E0998323
:102F70008883BE8FAD8F13961C921E921297149663
:102F8000CD92DD92ED92FC9217972FE4822E22E0F3
:102F9000922E11969C928E921D96FC93EE931C9706
:102FA00081E090E01F969C938E931E9782E090E0C4
:102FB00051969C938E9350978FEF9FEF53969C93CF
:102FC0008E93529755961C921E92549757961C9228
:102FD0001E92569758961C92C9EDDBE080E28883DA
:102FE000198260E00E94950481E28E831F8260E076
:102FF0000E94950482E28C871D8660E00E94950401
:1030000083E28A8B1B8A60E00E94950484E2888FA9
:10301000198E60E00E94950485E28E8F1F8E60E01D
:103020000E94950486E28CA31DA260E00E94950494
:1030300087E28AA71BA660E00E94950468E289ECFB
:103040009BE00E940A0A69E28BEC9BE00E940A0A5C
:103050006AE28DEC9BE00E940A0A6BE28FEC9BE037
:103060000E940A0A6CE281ED9BE00E940A0A6DE26E
:1030700083ED9BE00E940A0A6EE285ED9BE00E94D0
:103080000A0A6FE287ED9BE00E940A0AC1ECDBE0CE
:1030900084E0888361E00E94950485E08A8361E092
:1030A0000E94950486E08C8361E00E94950487E08D
:1030B0008E8361E00E949504C1E2D9E086E38883B3
:1030C00077247394798260E00E94950487E388AF47
:1030D00079AE60E00E94950488E380939109709234
:1030E000920960E00E94950489E38093C909709277
:1030F000CA0960E00E9495048AE38093010A7092F5
:10310000020A60E00E9495048BE38093390A709272
:103110003A0A60E00E9495048CE38093710A7092F1
:10312000720A60E00E9495048DE38093A90A709270
:10313000AA0A60E00E9495048EE38093E10A7092EF
:10314000E20A60E00E9495048FE38093190B70926D
:103150001A0B60E00E94950480E48093510B7092FA
:10316000520B60E00E94950481E48093890B709279
:103170008A0B60E00E949504CCE1D9E08BE1888362
:1031800062E00E9495048CE1898362E00E949504CC
:103190008DE18A8362E00E9495048EE18B8362E078
:1031A0000E9495048FE18C8362E00E9495046BE697
:1031B00072E086E199E00E94870D6BE672E080E1A3
:1031C00099E00E94870D6BE672E08AE099E00E9428
:1031D000870D6BE672E084E099E00E94870D6BE654
:1031E00072E08EEF98E00E94870D6BE672E088EF48
:1031F00098E00E94870D6BE672E082EF98E00E94F3
:10320000870D6BE672E08CEE98E00E94870D6BE60E
:1032100072E086EE98E00E94870D6BE672E080EE29
:1032200098E00E94870D1092DF081092DE086BE68E
:1032300072E088ED98E00E94870D6BE672E082ED07
:1032400098E00E94870D6BE672E08CEC98E00E949B
:10325000870D1092CB08E2ECF8E038EB232E3BE030
:10326000332E412C512C208231824282538214828F
:103270001582168217821086E9EBF8E020823182EF
:103280004282538214821582168217821086E0EBE6
:10329000F8E02082318242825382148215821682A3
:1032A00017821086E5EAF8E01482158216821782EA
:1032B000108688EC9FEAA0E0B0E080839183A2832F
:1032C000B383128611866BE672E08FE998E00E9464
:1032D000870D6BE672E089E998E00E94870D6BE646
:1032E00072E083E998E00E94870DEAE8F8E0208226
:1032F000318242825382148215821682178210868E
:10330000E1E8F8E020823182428253821482158201
:10331000168217821086EBE7F8E0B182A082128253
:10332000138214821582ACE5B8E013961C921E92AB
:1033300012971496CD92DD92ED92FC92179711960A
:103340009C928E921D961C930E931C971F961C9216
:103350001E921E9751961C921E92509786E190E005
:1033600053969C938E93529755961C921E92549707
:1033700057961C921E92569758961C925897E0EAC0
:10338000F7E013821282C482D582E682F782118628
:1033900010861286148A138A168A158A108E178A46
:1033A000128E118E148E138E81E492E091838083AD
:1033B000B68FA58F0E942306EDE9F7E07183608345
:1033C00012820E942306E5E9F7E06083718382831D
:1033D00093831582148276821782ECE8F7E080E00E
:1033E0009CE5A6E2B5E080839183A283B383148237
:1033F0001582168217821086DF91CF911F910F914F
:10340000FF90EF90DF90CF90BF90AF909F908F9004
:103410007F905F904F903F902F900895CF93DF93D0
:10342000CDB7DEB768970FB6F894DEBF0FBECDBF3D
:10343000789484B5826084BD84B5816084BD85B58F
:10344000826085BD85B5816085BD80916E0081609B
:1034500080936E0010928100809181008260809341
:103460008100809181008160809381008091800043
:103470008160809380008091B10084608093B1006E
:103480008091B00081608093B00080919100826053
:103490008093910080919100816080939100809150
:1034A00090008160809390008091A1008260809361
:1034B000A1008091A10081608093A1008091A00073
:1034C00081608093A000809121018260809321011E
:1034D0008091210181608093210180912001816090
:1034E0008093200180917A00846080937A0080919B
:1034F0007A00826080937A0080917A008160809364
:103500007A0080917A00806880937A001092C100DE
:1035100026E040E855E260E070E080ED96E00E9431
:10352000F3061092000268E070E088EF98E00E94D5
:10353000350C68E070E082EF98E00E94350C68E09E
:1035400070E08CEE98E00E94350C68E070E08CEC46
:1035500098E00E94350C60E170E084E099E00E9400
:10356000350C60E170E08EEF98E00E94350C60E26F
:1035700070E080E199E00E94350C60E270E083E940
:1035800098E00E94350C60E470E086EE98E00E94BE
:10359000350C60E470E080EE98E00E94350C60E449
:1035A00070E088ED98E00E94350C60E470E086E100
:1035B00099E00E94350C60E870E08FE998E00E9485
:1035C000350C60E870E082ED98E00E94350C60E018
:1035D00072E08AE099E00E94350C882309F45EC00D
:1035E00082E492E00E94280B61E088E10E94950449
:1035F00061E088E10E94670410923E0581E08093BB
:10360000AD0886E39BE09093AF088093AE0826E078
:1036100040E855E260E070E084E895E00E94F3063F
:1036200081EC9BE001E219E0F8011182085C1F4F78
:1036300080179107C9F761E086E10E9495040E9416
:10364000770926E040E855E260E070E08FEB97E014
:103650000E94F30688E199E20FB6F894A89580934A
:1036600060000FBE90936000FF24F39480ED96E01D
:103670000E94BF06181619060CF048C080ED96E0AF
:103680000E949D068D3011F40C94D3258A3071F37D
:10369000682F83E998E00E943B0DE8CF8CE292E02E
:1036A000A1CF10923E0560E672E083E998E00E94A7
:1036B000560DDCCF6EE872E0CE0101960E947E0DC1
:1036C000BE016F5F7F4F83E998E00E944D0AE82EAC
:1036D000CE0101960E94C60BEE2099F082E892E09E
:1036E0000E94280B61E672E0CE0101960E947E0DD9
:1036F000CE0101960E946C0BCE0101960E94C60B72
:10370000D2CF83E998E00E946C0BCDCF8091AD08B9
:10371000882331F10E942306C090A908D090AA08FE
:10372000E090AB08F090AC086C197D098E099F09F8
:10373000C090A508D090A608E090A708F090A8082F
:10374000C616D706E806F90658F4E091AE08F091DF
:10375000AF083097D1F0199589EA98E00E94950951
:1037600081E296E00E94BF0618161906CCF481E2A9
:1037700096E00E949D068D3099F08A3089F3682F7B
:103780008AE099E00E943B0DEBCF88E198E00FB60C
:10379000F894A895809360000FBE90936000FFCFCF
:1037A00066E675E0CE0101960E947E0DCE0101967F
:1037B0000E94180A7C019093390580933805CE0148
:1037C00001960E94C60BF7FC5EC08AE195E00E945C
:1037D000340A8823B9F09701295E3F4FA701485F5B
:1037E0005F4F6AE079E0CE0101960E94B80DBE01FC
:1037F0006F5F7F4F8EEF98E00E947B0BCE010196AA
:103800000E94C60B81E295E00E94340A8823B9F039
:1038100097012A5E3F4FA701495F5F4F6AE079E059
:10382000CE0101960E94B80DBE016F5F7F4F8EEFF3
:1038300098E00E947B0BCE0101960E94C60B64E5C6
:1038400075E086EE98E00E94560D6EEF78E086EE09
:1038500098E00E944F0D63E475E086EE98E00E94C8
:10386000880C60E375E080EE98E00E94560D6EEFE4
:1038700078E080EE98E00E944F0D69E275E080EEFE
:1038800098E00E94880C62E275E0CE0101960E94E9
:103890007E0DCE0101960E94180A7C019093390595
:1038A00080933805CE0101960E94C60BF7FC40C0FC
:1038B0009701285F3F4FA7014A5F5F4F6AE079E0B9
:1038C000CE0101960E94B80DBE016F5F7F4F88EF59
:1038D00098E00E947B0BCE0101960E94C60B80915E
:1038E000FC089091FD08029718F1E091F808F0911A
:1038F000F908309709F04AC710923705E7E3F5E079
:1039000080818C32A9F421E030E050E040E068EFA3
:1039100078E0CE0101960E94B80DBE016F5F7F4F27
:1039200088EF98E00E947B0BCE0101960E94C60BA7
:1039300068E175E0CE0101960E947E0DCE010196F0
:103940000E94180A7C01CE0101960E94C60BF7FC6A
:1039500006C066E175E082EF98E00E94560D6AE0CD
:1039600075E0CE0101960E947E0DCE0101960E9467
:10397000180A7C01CE0101960E94C60BF7FC06C016
:1039800066E075E08CEE98E00E94560D6BEF74E0F7
:10399000CE0101960E947E0DCE0101960E94180A6A
:1039A0007C019093390580933805CE0101960E94E1
:1039B000C60BF7FC1DC09701225D3F4FA701475D75
:1039C0005F4F6AE079E0CE0101960E94B80DBE011A
:1039D0006F5F7F4F8CEC98E00E947B0BCE010196CD
:1039E0000E94C60B6CEC78E080ED96E00E943C0BE8
:1039F00066EE74E0CE0101960E947E0DCE01019626
:103A00000E94180A7C01CE0101960E94C60BF7FEA7
:103A100010923E056BED74E0CE0101960E947E0D82
:103A2000CE0101960E94180A7C01CE0101960E94E7
:103A3000C60BF7FE10923E056AEC74E0CE010196CB
:103A40000E947E0DCE0101960E94180A7C01CE01D3
:103A500001960E94C60BF7FE10923E0580913E052E
:103A6000811151C08FEA94E00E94280B81E080937D
:103A70003E0510923D0510923C056EEA74E08AE026
:103A800099E00E94560D6DEA74E084E099E00E948E
:103A9000560D6CEA74E08EEF98E00E94560D6BEACA
:103AA00074E088EF98E00E94560D6AEA74E082EFB5
:103AB00098E00E94560D69EA74E08CEE98E00E944E
:103AC000560D68EA74E086EE98E00E94560D67EAAB
:103AD00074E080EE98E00E94560D1092DF0810927C
:103AE000DE0866EA74E088ED98E00E94560D65EA0B
:103AF00074E082ED98E00E94560D64EA74E08CEC6C
:103B000098E00E94560D80913E05813039F5E09194
:103B10003505F0913605EE0FFF1FEE0FFF1FE95F31
:103B2000FD4F408151816281738126E081E296E000
:103B30000E94F30660E088E10E94670460ED77E090
:103B400082EC98E00E94A109882309F441C061E059
:103B500088E10E94670482E080933E0580913E05E3
:103B60008230B1F560EA74E0CE0101960E947E0DCC
:103B7000CE0101960E94180A7C01CE0101960E9496
:103B8000C60BF7FC05C686E894E00E94280B61E8A6
:103B900074E0CE0101960E947E0DCE0101960E9436
:103BA0006C0BCE0101960E94C60B66E774E0CE0155
:103BB00001960E947E0DCE0101960E946C0BCE01F3
:103BC00001960E94C60B83E080933E051092CB08BD
:103BD00080913E05833019F486E080933E05809104
:103BE0003E058630D1F468EE73E082EC98E00E94E6
:103BF000A109882309F44CC061E474E0CE01019668
:103C00000E947E0DCE0101960E946C0BCE010196A2
:103C10000E94C60B89E080933E0580913E05893065
:103C2000B9F56AE175E0CE0101960E94870DCE01DB
:103C300001960E94180A7C01CE0101960E94C60BD3
:103C40006AE175E0F7FE13C061E275E0CE0101960E
:103C50000E94870DCE0101960E94180A7C01CE01B8
:103C600001960E94C60BF7FC1CC061E275E084E07F
:103C700099E00E945D0C64E079E080ED96E00E949E
:103C80006E068BE080933E0589EA98E00E949509D4
:103C900080913E058B3029F48CE080933E05109294
:103CA0003D0580913E058C3009F085C280913D052F
:103CB000811107C089E294E00E94280B83E0809381
:103CC0003D0580913D05833009F0A3C068EE73E0A7
:103CD00089EB98E00E94A109882309F4BDC06FE137
:103CE00074E0CE0101960E947E0DCE0101960E94E5
:103CF0006C0BCE0101960E94C60B64E174E0CE010C
:103D000001960E947E0DCE0101960E946C0BCE01A1
:103D100001960E94C60B64EF73E0CE0101960E94EB
:103D20007E0DCE0101960E946C0BCE0101960E9481
:103D3000C60B81E295E00E94340A882309F446C04C
:103D40006AEE73E0CE0101960E947E0DCE010196CF
:103D50000E946C0BCE0101960E94C60B6FED73E0C2
:103D6000CE0101960E947E0DCE0101960E946C0B41
:103D7000CE0101960E94C60B64ED73E0CE01019660
:103D80000E947E0DCE0101960E946C0BCE01019621
:103D90000E94C60B69EC73E0CE0101960E947E0D75
:103DA000CE0101960E946C0BCE0101960E94C60BBB
:103DB0006BEB73E0CE0101960E947E0DCE01019661
:103DC0000E946C0BCE0101960E94C60B6DEA73E057
:103DD000CE0101960E947E0DCE0101960E946C0BD1
:103DE000CE0101960E94C60B60EA73E0CE010196F7
:103DF0000E947E0DCE0101960E946C0BCE010196B1
:103E00000E94C60B84E080933D0589EA98E00E94F9
:103E1000950980913D058430F9F468EE73E089EBF3
:103E200098E00E94A109882371F066E973E0CE0151
:103E300001960E947E0DCE0101960E946C0BCE0170
:103E400001960E94C60B80910209909103090F9779
:103E500019F485E080933D0580913D05853049F555
:103E600068EE73E089EB98E00E94A109882371F065
:103E70006FE873E0CE0101960E947E0DCE0101969F
:103E80000E946C0BCE0101960E94C60B8091F8082F
:103E90009091F908009769F00E946926633649F00D
:103EA000633038F086E080933D0589EA98E00E940F
:103EB000950980913D05863019F487E080933D0592
:103EC00080913D05873089F568EE73E089EB98E0D5
:103ED0000E94A109882371F065E873E0CE01019684
:103EE0000E947E0DCE0101960E946C0BCE010196C0
:103EF0000E94C60B6BE073E0CE0101960E947E0D1E
:103F0000BE016F5F7F4F82EF98E00E944D0AF82E4E
:103F1000CE0101960E94C60BFF2039F088E0809305
:103F20003D0589EA98E00E94950980913D05883019
:103F300019F489E080933D0580913D05893089F52C
:103F400068EE73E089EB98E00E94A109882371F084
:103F50006BE773E0CE0101960E947E0DCE010196C3
:103F60000E946C0BCE0101960E94C60B67E073E0C5
:103F7000CE0101960E947E0DBE016F5F7F4F8CEED9
:103F800098E00E944D0AF82ECE0101960E94C60BC1
:103F9000FF2039F08AE080933D0589EA98E00E948D
:103FA000950980913D058A3009F05AC48AE195E06F
:103FB0000E94340A882309F432C468EE73E089EB66
:103FC00098E00E94A1096AE573E081113AC48091EA
:103FD0003D058C3079F468EE73E089EB98E00E943F
:103FE000A109882319F186EE98E00E946C0B8DE000
:103FF00080933D0580913D058D30C1F46EE173E005
:10400000CE0101960E947E0DCE0101960E94180AF3
:104010007C01CE0101960E94C60BF7FC07C08EE022
:1040200080933D0589EA98E00E94950980913D05BD
:104030008E3079F468EE73E089EB98E00E94A10974
:10404000882319F180EE98E00E946C0B8FE080933A
:104050003D0580913D058F30C1F46DE073E0CE01E8
:1040600001960E947E0DCE0101960E94180A7C01E5
:10407000CE0101960E94C60BF7FC07C081E1809338
:104080003D0589EA98E00E94950980913D058131BE
:1040900029F410923C0582E180933D0580913D0515
:1040A000823109F088C080913C05811111C0809156
:1040B000DE08882309F4F2C31092DE08FF24F3948B
:1040C000F092DF0888ED98E00E946C0BF0923C05BE
:1040D00060EE72E0CE0101960E947E0DCE01019647
:1040E0000E94180A7C01CE0101960E94C60BF7FCC3
:1040F0000DC080913C05813049F482ED98E00E942A
:104100006C0B1092DF0882E080933C056FEC72E04C
:10411000CE0143960E947E0DCE0143960E94180A5E
:10412000FF24F39497FF37C06EEB72E0CE010D963B
:104130000E947E0DCE010D960E94180AFF24F39472
:1041400097FF25C06FEA72E0CE0107960E947E0DB0
:10415000CE0107960E94180AFF24F39497FF13C01C
:1041600060EA72E0CE0101960E947E0DCE010196BA
:104170000E94180A9095F92EFF1CFF24FF1CCE0107
:1041800001960E94C60BCE0107960E94C60BCE0177
:104190000D960E94C60BCE0143960E94C60BFF20CF
:1041A00051F080913C05823031F489EA98E00E9418
:1041B000950910923C056FE972E08AE099E00E944F
:1041C000560D49EDA42E4BE0B42E59E0652E5CE06F
:1041D000752E7501F701208130E0F901E05BF84FA1
:1041E0008491F901E65FF84FC490F901EC53F94F5F
:1041F000D490DD2009F492C381110E940004ED2DBA
:10420000F0E0EE0FFF1FE052FA4FA591B491EC9150
:10421000CE2281E009F480E0D82EF7018181D81602
:1042200009F47EC30E942306F70122813381448171
:104230005581621B730B840B950B633371058105EC
:10424000910508F0D182F6E0EF0EF11C6E147F04A8
:1042500009F0C0CF21E2E22E29E0F22EF7018181A0
:10426000A0E4CA2ED12C412C512C3201813009F00E
:104270005FC3C12CDD24D394412C512C3201F701B2
:1042800080810E94A805092E000CAA0BBB0B480ECA
:10429000591E6A1E7B1EF1E0CF1AD10881F784E017
:1042A00076946794579447948A95D1F7F70153828F
:1042B0004282349681E090E02281338121933193D0
:1042C000019688319105C1F7F70153AA42AA60E02F
:1042D00070E0CB0150E040E0FA01EE0FFF1FEE0D61
:1042E000FF1D24813581620F731F811D911D4F5F5A
:1042F0005F4F4831510581F728E130E040E050E060
:104300000E941427F70135AB24ABF70154A945A946
:104310008181813009F027C3252F342F203CFEE313
:104320003F0710F02FEB3EE3AFEFBFE00E943627D0
:104330002FEB3EE340E050E00E94EA26F70137AB66
:1043400026ABF8E3EF0EF11CE016F10609F086CF7C
:1043500040E090E080E021E030E0F5015181511132
:1043600020E0082E01C0220F0A94EAF7422B0196A2
:10437000F6E0AF0EB11C8830910569F740933B051C
:10438000E9ECFBE040E030E020E08181022E01C05A
:10439000880F0A94EAF7482B2F5F3F4F3296283058
:1043A000310599F740933A056EED75E086E199E0A5
:1043B0000E94560DE1E2CE2EE9E0DE2EF12CE12C3A
:1043C000F60166A977A986E199E00E94E30CFBE07B
:1043D000EF16F10431F06CED75E086E199E00E9492
:1043E000880C2FEFE21AF20A38E3C30ED11C4CE01E
:1043F000E416F10429F76AED75E086E199E00E9480
:10440000880C68ED75E080E199E00E94560D71EC32
:10441000E72E7BE0F72E5701D12CC12CF5016181ED
:1044200080E199E00E94100DF3E0CF16D10431F045
:1044300066ED75E080E199E00E94880C2FEFC21ACA
:10444000D20A32E0A30EB11C44E0C416D10431F705
:1044500064ED75E080E199E00E94880C8091DF08AE
:1044600081115CC0D0903A05C0903B056CEC75E0C2
:1044700082ED98E00E94560D68EF78E082ED98E0BA
:104480000E944F0D6AEC75E082ED98E00E94880C66
:1044900063EC75E082ED98E00E94880C6C2D82ED53
:1044A00098E00E94100D61EC75E082ED98E00E94AA
:1044B000880C69EB75E082ED98E00E94880C6D2D08
:1044C00082ED98E00E94100D67EB75E082ED98E0B8
:1044D0000E94880C60EB75E082ED98E00E94880CE9
:1044E00066E179E082ED98E00E944F0D6EEA75E09A
:1044F00082ED98E00E94880C66EA75E082ED98E013
:104500000E94880C60E179E082ED98E00E944F0DF6
:1045100064EA75E082ED98E00E94880C81E295E003
:104520000E94340A6DE875E0811108C08AE195E0C7
:104530000E94340A882331F064E775E088ED98E042
:104540000E94560D6EEF78E088ED98E00E944F0DC6
:104550006FE675E088ED98E00E94880C6091D608BF
:104560007091D70888ED98E00E94E30C8091D00804
:104570009091D108892B09F465C070E060E08CEC63
:1045800098E00E942F06A82E61E070E08CEC98E085
:104590000E942F06D82E63E070E08CEC98E00E9419
:1045A0002F06C82E64E070E08CEC98E00E942F0685
:1045B000B82E54E4A5120CC28AE3D812F5C18C2D92
:1045C0000E948109D82E8B2D0E94810990E1D99EED
:1045D00090011124D82ED22A87ED9BE0D0FCCFC1C8
:1045E0000E94EB0985ED9BE0D1FCCCC10E94EB0958
:1045F00083ED9BE0D2FCC9C10E94EB0981ED9BE0F9
:10460000D3FCC6C10E94EB098FEC9BE0D4FCC3C174
:104610000E94EB098DEC9BE0D5FCC0C10E94EB0928
:104620008BEC9BE0D6FCBDC10E94EB0989EC9BE0C2
:10463000D7FCCBC10E94EB096EE675E08CEC98E0EC
:104640000E94560D0E9423062B013C0180917705A4
:1046500090917805A0917905B0917A05A301920116
:10466000281B390B4A0B5B0BDA01C901813D9740CE
:10467000A105B10508F4E7C18091F8089091F90807
:10468000D12C009719F00E946926D62E6AEF75E0AA
:10469000CE0101960E947E0DBE016F5F7F4F84E0C8
:1046A00099E00E944D0AC12C81110AC08AE195E06F
:1046B0000E94340ACC24C394811102C042E0C42E6B
:1046C000CE0101960E94C60B8BE580933F05809139
:1046D0003E0590913D05890F90913C05890F80938F
:1046E0004005D0924105C092420580913B058093E0
:1046F000430580913A0580934405EFE3F5E0A1E29C
:10470000B9E0D6968C91D697D7969C91D7979683F9
:104710008783D896329645E0E735F40791F71092F3
:104720005D058091C20B80935E0510925F058091BC
:10473000C40B80936005109261058091C60B809335
:104740006205109263058091C80B8093640535E67D
:10475000A32E35E0B32ED12CC12CB6018EEF98E0FC
:104760000E942F06F50181935F01FFEFCF1ADF0A48
:1047700020E1C216D10489F7E0E4F5E096E380E099
:10478000915009F447C12191820FFACF3196B8C8F0
:1047900068EE73E082EC98E00E94A109882301F1A1
:1047A0008CE594E00E94C407E0913505F091360550
:1047B000EE0FFF1FEE0FFF1FE95FFD4F408151819C
:1047C000628173812AE080ED96E00E947F0A8AE58B
:1047D00094E00E94280B8091CB088F5F8093CB08D8
:1047E0008091CB08853008F4F3C91092CB0885E49A
:1047F00094E00E94280B8091350590913605019632
:104800008230910538F490933605809335051092E7
:104810003E05DEC91092360510923505F8CF81E2CB
:1048200095E00E94340A882309F4D1CB68EE73E046
:1048300089EB98E00E94A109882309F4C8CB6CE3B6
:1048400073E0CE0101960E947E0DCE0101960E947A
:104850006C0BCE0101960E94C60B8BE080933D0548
:1048600080913D058B3009F0B2CB6EE273E0CE0152
:1048700001960E947E0DCE0101960E94180A7C01CD
:10488000CE0101960E94C60BF7FCA1CB8CE0809371
:104890003D0589EA98E00E94950999CB60E375E7A8
:1048A00089EB98E00E94A109882351F0FF24F3943A
:1048B000F092DF0888ED98E00E946C0BF0923C05C6
:1048C0008091DF08811104CC68EB7BE080EB98E0FD
:1048D0000E94A109882309F4FBCB82EF92E00E9499
:1048E000280B69EE72E0CE0101960E947E0DCE018A
:1048F00001960E946C0BCE0101960E94C60B62EEDF
:1049000072E0CE0101960E947E0DCE0101960E94BA
:104910006C0BCE0101960E94C60BDACBD12C7DCC5C
:104920000E942306F70162837383848395838BCC73
:10493000F70180810E94A805092E000CAA0BBB0B71
:10494000480E591E6A1E7B1EF1E0CF1AD10881F76E
:10495000F6E07694679457944794FA95D1F7F70167
:1049600055AA44AAD2CC852F942F8115F4E09F0735
:1049700010F08FEF93E0F70197AB86ABE2CC0E948B
:10498000FA0930CE0E94FA0933CE0E94FA0936CED7
:104990000E94FA0939CE0E94FA093CCE0E94FA0917
:1049A0003FCE0E94FA0942CE8FEC8D0D883008F080
:1049B00043CEED2DE153FF0BCF01880F991F875395
:1049C000944FF0E3CF1609F435CE0E94FA0934CEA5
:1049D00021E4A21231CE8FEC8D0D853008F02CCE63
:1049E0008C2D0E948109C82E8B2D0E94810930E1F7
:1049F000C39EB0011124682B4D2D4153550BFA0174
:104A0000EE0FFF1FEF53F44F618370E080810E942F
:104A1000D10412CE809375058DE58093760548E329
:104A200050E06FE375E084E895E00E94410684E879
:104A300095E00E94DF0740927705509278056092DA
:104A4000790570927A0560ED77E08AE898E00E9437
:104A5000A1098823D9F08091990790919A07880F2E
:104A6000991F8753944F20919B07222309F444C038
:104A70000E94FA098091990790919A0787309105D1
:104A8000F1F1019690939A078093990768E072E09C
:104A900081E898E00E94A1098823A9F060919C0711
:104AA000F701618370E080810E94D104F2E0EF0E93
:104AB000F11C29ECE2162BE0F20681F780919C07AD
:104AC0008B5F80939C070E947709FF24F3948FEB00
:104AD00097E00E94BF06892BE9F08FEB97E00E94D8
:104AE0009D068D3009F49CC08A3089F3682F8FE9C8
:104AF00098E00E943B0DEBCF0E94EB09BBCF1092D8
:104B00009A071092990780919B0791E089278093DB
:104B10009B07BCCF80919F078130F9F40E94230648
:104B200020919D0730919E07621B730B693E734075
:104B3000A0F06BEF75E0CE0101960E947E0DCE01D4
:104B400001960E944E0BCE0101960E94C60B0E9458
:104B5000230670939E0760939D070E942306C090D2
:104B60009007D0909107E0909207F09093076C190E
:104B70007D098E099F09C0908C07D0908D07E09029
:104B80008E07F0908F07C616D706E806F90608F0DC
:104B9000A8956AE070E080E090E00E94F0050E9435
:104BA000FF070C94341B69E972E0CE0101960E9464
:104BB0007E0DBE016F5F7F4F83E998E00E944D0A32
:104BC000E82ECE0101960E94C60BE1100C94511BF9
:104BD00063E972E0CE0101960E947E0DBE016F5F17
:104BE0007F4F83E998E00E944D0AE82ECE0101969E
:104BF0000E94C60BEE2011F40C945A1B8091DE0823
:104C000081110C94531B8091DF0881110C94531B6C
:104C100081E592E00E94280BF092DE080C94531B71
:104C20006FE978E080ED96E00E946E066DE876E030
:104C3000CE0101960E947E0DBE016F5F7F4F8FE90E
:104C400098E00E944D0AE82ECE0101960E94C60B04
:104C5000EE2071F061E576E0CE0101960E947E0DB6
:104C6000CE0101960E944E0BCE0101960E94C60B0A
:104C700062E476E0CE0101960E947E0DBE016F5F78
:104C80007F4F8FE998E00E944D0AE82ECE010196F1
:104C90000E94C60BE11010929F0765E376E0CE01FB
:104CA00001960E947E0DBE016F5F7F4F8FE998E0F5
:104CB0000E944D0AE82ECE0101960E94C60BE1101B
:104CC000F0929F0764E376E08FE998E00E94560D2A
:104CD000FECE1F93FC0199278827BC01E89411910F
:104CE0001032E9F3193010F01E30C8F31B3251F0C6
:104CF0001D3249F4689406C00E94AB26610F711DF5
:104D0000811D911D119110531A30B0F33EF490950E
:104D10008095709561957F4F8F4F9F4F1F9108959C
:104D2000FB01DC0105900D920020E1F70895FC01E4
:104D300005900020E9F7809590958E0F9F1F0895AC
:104D4000BB274A3031F4992322F4BDE29095819536
:104D50009F4F0C94C126592F482F372F262F660FAF
:104D6000771F881F991F660F771F881F991F620F73
:104D7000731F841F951F660F771F881F991F089543
:104D8000BB27FB015527AA27880F991FAA1FA41725
:104D900010F0A41B83955051B9F7A05DAA3308F019
:104DA000A95DA193009779F7B111B1931192CB014D
:104DB0000C94DA26DC01FC01672F71917723E1F76F
:104DC000329704C07C916D9370836291AE17BF07D8
:104DD000C8F30895052E97FB1EF400940E94012746
:104DE00057FD07D00E94142707FC03D04EF40C9403
:104DF000012750954095309521953F4F4F4F5F4F7C
:104E0000089590958095709561957F4F8F4F9F4F36
:104E100008950E943627A59F900DB49F900DA49FE2
:104E2000800D911D11240895A1E21A2EAA1BBB1B0F
:104E3000FD010DC0AA1FBB1FEE1FFF1FA217B30766
:104E4000E407F50720F0A21BB30BE40BF50B661F7C
:104E5000771F881F991F1A9469F760957095809540
:104E600090959B01AC01BD01CF010895A29FB001B7
:104E7000B39FC001A39F700D811D1124911DB29F8E
:104E8000700D811D1124911D0895EE0FFF1F881FC5
:104E90008BBF0790F691E02D19940F931F93CF933A
:104EA000DF938230910510F482E090E0E091500CA5
:104EB000F091510C30E020E0B0E0A0E0309799F4A0
:104EC0002115310509F44AC0281B390B243031055E
:104ED000D8F58A819B816115710589F1FB01938366
:104EE0008283FE0111C040815181028113814817E4
:104EF0005907E0F04817590799F4109761F0129696
:104F00000C93129713961C933296CF01DF91CF9199
:104F10001F910F9108950093500C1093510CF4CFF2
:104F20002115310551F04217530738F0A901DB0173
:104F30009A01BD01DF01F801C1CFEF01F9CF9093D4
:104F4000510C8093500CCDCFFE01E20FF31F8193E3
:104F500091932250310939832883D7CF20914E0C69
:104F600030914F0C232B41F4209103023091040225
:104F700030934F0C20934E0C20910102309102028D
:104F80002115310541F42DB73EB7409105025091EE
:104F90000602241B350BE0914E0CF0914F0CE217EA
:104FA000F307A0F42E1B3F0B2817390778F0AC014C
:104FB0004E5F5F4F2417350748F04E0F5F1F509329
:104FC0004F0C40934E0C819391939FCFF0E0E0E023
:104FD0009CCFCF93DF930097E9F0FC0132971382C7
:104FE0001282A091500CB091510CED0130E020E004
:104FF0001097A1F420813181820F931F20914E0CD4
:1050000030914F0C2817390709F061C0F0934F0C0D
:10501000E0934E0CDF91CF910895EA01CE17DF07A0
:10502000E8F54A815B819E0141155105B1F7E9011F
:10503000FB83EA8349915991C40FD51FEC17FD07F3
:1050400061F4808191810296840F951FE901998313
:105050008883828193819B838A83F0E0E0E01296CB
:105060008D919C9113970097B9F52D913C911197D3
:10507000CD010296820F931F20914E0C30914F0C60
:105080002817390739F6309751F51092510C1092C4
:10509000500CB0934F0CA0934E0CBCCFD383C28363
:1050A00040815181840F951FC817D90761F44E5F65
:1050B0005F4F88819981480F591F518340838A81AE
:1050C0009B81938382832115310509F0B0CFF09342
:1050D000510CE093500C9ECFFD01DC01C0CF138238
:1050E0001282D7CF4F925F926F927F928F929F9250
:1050F000AF92BF92CF92DF92EF92FF920F931F93E6
:10510000CF93DF938C01009799F4CB01DF91CF917E
:105110001F910F91FF90EF90DF90CF90BF90AF90D5
:105120009F908F907F906F905F904F900C944D2741
:10513000FC01E60FF71F9C0122503109E217F3072B
:1051400008F4AEC0D901CD91DC911197C617D707ED
:1051500020F1C530D10578F0CE0104978617970766
:1051600050F0C61BD70B2297C193D1936D937C93BC
:10517000CF010E94E927C801DF91CF911F910F91C4
:10518000FF90EF90DF90CF90BF90AF909F908F9067
:105190007F906F905F904F9008955B01AC1ABD0AAD
:1051A0004C018C0E9D1EA091500CB091510C512CB5
:1051B000412CF12CE12C109731F580914E0C9091FF
:1051C0004F0C8815990509F05CC04616570608F083
:1051D00058C08091010290910202009741F48DB76E
:1051E0009EB74091050250910602841B950BE8176B
:1051F000F90708F055C0F0934F0CE0934E0CF901FD
:1052000071836083B8CF8D919C91119712966C90A9
:10521000129713967C901397A815B90559F56C0150
:1052200042E0C40ED11CCA14DB0420F1AC014A19BF
:105230005B09DA011296159780F0628273825183BE
:105240004083D9016D937C93E114F10471F0D7018F
:105250001396FC93EE9312978ECF22968C0F9D1F80
:10526000F90191838083F301EFCFF093510CE09328
:10527000500C81CF4816590608F42C017D01D3014A
:105280009ACFCB010E944D277C01009749F0AE01D7
:10529000B8010E945829C8010E94E92787016BCFF5
:1052A00010E000E068CF81E090E0F8940C94312C9D
:1052B000FB01DC0102C001900D9241505040D8F733
:1052C0000895FB01DC018D91019080190110D9F343
:1052D000990B0895FB01DC0101900D920020E1F78C
:1052E0000895FB0151915523A9F0BF01DC014D91B7
:1052F00045174111E1F759F4CD010190002049F023
:105300004D9140154111C9F3FB014111EFCF81E0EF
:1053100090E0019708952F923F924F925F926F9283
:105320007F928F929F92AF92BF92CF92DF92EF9235
:10533000FF920F931F93CF93DF9300D000D000D044
:105340001F921F92CDB7DEB77C013B018A01FC01A1
:1053500017821682838181FFDDC1CE0101965C0137
:10536000F7019381F30193FD859193FF81913F01B3
:10537000882309F453C1853239F493FD859193FF55
:1053800081913F01853229F4B70190E00E94A32B5F
:10539000E7CF912C212C312CFFE1F31538F08B3223
:1053A00011F190F4803209F1833229F137FC3CC0CD
:1053B00020ED280F2A3050F536FE20C08AE0989E56
:1053C000200D1124922E06C08D3291F0803371F79A
:1053D000689430F8F30193FD859193FF81913F012B
:1053E0008111DACF21C0689431F8689432F8F2CF95
:1053F000689433F8EFCF689434F8ECCFEAE02E9E4F
:10540000200D1124222E689435F8E4CF8E3229F431
:1054100036FC04C1689436F8DDCF8C3619F46894F4
:1054200037F8D8CF8836B1F2982F9F7D95549330B6
:10543000E0F08336A1F18337C1F1833509F063C011
:105440002801F2E04F0E511CF801C080D180692D77
:1054500070E036FC02C06FEF7FEFC6010E948D2B1B
:105460004C01689437F882010AC00C5F1F4FFFE3BC
:10547000F98388248394912C6501E89437F833FEEE
:105480002DC0522C8114910471F5552009F468CF78
:10549000B70180E290E00E94A32B5A94F6CFF80166
:1054A000808189830E5F1F4FE4CF2801F2E04F0E09
:1054B000511CF801C080D180692D70E036FC02C01B
:1054C0006FEF7FEFC6010E94982B4C018201D5CF70
:1054D000B70180E290E00E94A32B2A9428141904BB
:1054E00009F0B0F7CECFF60137FC859137FE8191F8
:1054F0006F01B70190E00E94A32B51105A94F1E084
:105500008F1A9108BFCF843619F0893609F077C019
:10551000F80137FE6BC060817181828193810C5FDD
:105520001F4FF32DFF763F2E97FF09C09095809572
:10553000709561957F4F8F4F9F4F689437F82AE0A1
:1055400030E0A5010E94D32BC82ECA188C2C432C06
:1055500036FE0CC0E89440F8C91440F434FE05C08F
:1055600032FC03C0F32DFE7E4F2E892C44FEAAC0D0
:10557000FE01EC0DF11D8081803309F09CC0242DCB
:10558000297E422E842D8870582E43FCAAC040FEEE
:10559000A4C09C2C821418F42C0C922C981844FE55
:1055A000A6C0B70180E390E00E94A32B42FE09C091
:1055B00088E790E041FE02C088E590E0B7010E94D4
:1055C000A32BC91408F49FC0CA94D12C9FEFC91A09
:1055D000D90ACA0CDB1CF60182916F01B70190E079
:1055E0000E94A32BAC14BD04B1F74FCF6081718131
:1055F000072E000C880B990B0E5F1F4F92CFD32CF8
:10560000E894D4F82AE030E08537E1F1232D297FB2
:10561000D22E8F36A9F1F0F4883551F1F701868149
:1056200097812B960FB6F894DEBF0FBECDBFDF91EA
:10563000CF911F910F91FF90EF90DF90CF90BF908F
:10564000AF909F908F907F906F905F904F903F9022
:105650002F900895803749F0883701F7D4FE02C0B3
:105660006894D2F820E130E00DC06894D4F8F6CF09
:1056700034FE03C0822F8660D82E20E132E002C0C3
:1056800028E030E0F801D7FE0FC06081718182818F
:1056900093810C5F1F4FA5010E94D32BC82ECA18FF
:1056A0003D2CE89437F852CF6081718190E080E022
:1056B0000E5F1F4FF0CF42FC02C0839463CF8394F0
:1056C000839460CF842D867809F45CCFF6CFB70140
:1056D00080E290E00E94A32B83948214C0F3512CAB
:1056E0005ECF522C5818821408F459CFF8CF842D6D
:1056F000867809F466CF8BE241FE80E247FC8DE2BA
:10570000B70190E05CCFB70180E390E00E94A32B4B
:105710009A9457CF8FEF9FEF84CFFC010590615093
:1057200070400110D8F7809590958E0F9F1F0895B7
:10573000FC016150704001900110D8F78095909560
:105740008E0F9F1F08950F931F93CF93DF93182FF2
:10575000092FEB018B8181FD09C01FEF0FEF812F16
:10576000902FDF91CF911F910F91089582FF14C068
:105770002E813F818C819D81281739073CF4E88177
:10578000F981CF0101969983888310838E819F814F
:1057900001969F838E83E3CFE885F985812F199544
:1057A000892BA1F3DACFFA01AA27283051F1203151
:1057B00081F1E8946F936E7F6E5F7F4F8F4F9F4FA5
:1057C000AF4FB1E03ED0B4E03CD0670F781F891FE7
:1057D0009A1FA11D680F791F8A1F911DA11D6A0FB5
:1057E000711D811D911DA11D20D009F468943F9168
:1057F0002AE0269F11243019305D3193DEF6CF0167
:105800000895462F4770405D4193B3E00FD0C9F72C
:10581000F6CF462F4F70405D4A3318F0495D31FD99
:105820004052419302D0A9F7EACFB4E0A6959795EC
:10583000879577956795BA95C9F7009761057105C2
:1058400008959B01AC010A2E06945795479537950C
:105850002795BA95C9F7620F731F841F951FA01D66
:10586000089513E0CCECD3E000E006C0802FFE01E9
:105870000E9445272196011DCD3CD10780E00807F5
:06588000A9F7F894FFCF28
:10588600010000520C80008025000000C2010000CB
:10589600000000770741068E06DF07BF069D06B1AA
:1058A60006000000007D0A00000000000000005114
:1058B6000ECE0BF80B00000000020C1A0C000000C4
:1058C60000240C2B0C00000000D80A000000006029
:1058D6000841067409740895087F088A085D09342A
:1058E600094909E808A0085E080D0A0072656164A6
:1058F6005F6269747300726561645F696E70757466
:105906005F6269747300726561645F696E70757455
:105916005F72656769737465727300726561645F4F
:1059260072656769737465727300496C6C6567614B
:105936006C206E62206F662076616C75657320251B
:105946006420696E20257320286D617820256429DE
:105956000A00496C6C6567616C2064617461206142
:1059660064647265737320307825305820696E2020
:1059760025730A00496C6C6567616C20646174610B
:10598600206164647265737320307825305820690D
:105996006E2077726974655F6269740A00496C6C7F
:1059A6006567616C20646174612076616C75652041
:1059B600307825305820696E2077726974655F6289
:1059C60069742072657175657374206174206164F1
:1059D6006472657373202530580A00496C6C6567DC
:1059E600616C206461746120616464726573732004
:1059F600307825305820696E2077726974655F7239
:105A0600656769737465720A00496C6C6567616CD9
:105A1600206E756D626572206F662076616C7565A5
:105A26007320256420696E2077726974655F6269E8
:105A3600747320286D6178202564290A00496C6CEE
:105A46006567616C2064617461206164647265736A
:105A56007320307825305820696E20777269746516
:105A66005F626974730A00496C6C6567616C206ECD
:105A7600756D626572206F662076616C7565732040
:105A8600256420696E2077726974655F726567693F
:105A9600737465727320286D6178202564290A0065
:105AA600496C6C6567616C20646174612061646433
:105AB6007265737320307825305820696E207772AE
:105AC6006974655F7265676973746572730A004C01
:105AD6004D42332E312E3400496C6C6567616C2063
