:100000000C94CD030C94FE030C94FE030C94FE039D
:100010000C94FE030C94FE030C94FE030C94FE035C
:100020000C94FE030C94FE030C94FE030C94FE034C
:100030000C94FE030C94FE030C94FE030C94FE033C
:100040000C94FE030C94FE030C94FE030C94FE032C
:100050000C94FE030C94FE030C94FE030C94AC145D
:100060000C94FE030C941C160C94F2150C94FE03D5
:100070000C94FE030C94FE030C94FE030C94FE03FC
:100080000C94FE030C94FE030C94FE030C94FE03EC
:100090000C94C8150C949E150C94FE030C94FE034E
:1000A0000C94FE030C94FE030C94FE030C94FE03CC
:1000B0000C94FE030C94FE030C94FE030C94FE03BC
:1000C0000C94FE030C94FE030C94FE030C94741524
:1000D0000C944A150C94FE030C9420150C94F61401
:1000E0000C94FE030C949D060C944B040C949216F5
:1000F0000C948E080C942C040C948D060C944405DE
:100100000C941E040C943C050C948F050C943F0E2B
:100110000C9420050C947B050C9434050C945E041F
:100120000C9424040C9448110C9451040C94E60B88
:100130000C94080C0C9443040C94BB120C94FB0E0E
:100140000C9411050C94120C0C9439040C94DD12CF
:100150000C944C080C9462090C944B090C94921466
:100160000C9471050C94B0060C94F00B0C9483085D
:100170000C942A100C948A120C94BB100C94240B2F
:100180000C9441060C94A3050C9428040C945F0471
:100190000C94BE060C9446160C9485050C94CD0761
:1001A0000C9422090C94C60A0C9413110C946E073B
:1001B0000C9459040C9429130C9458050C942A059A
:1001C0000C9499050C94190C0C9455040C9430045F
:1001D0000C9462050C94D6080C944E050C94780887
:1001E0000C946B0A0C9447040C946D080C94330423
:1001F0000C9463040C944E080C9437090C94620818
:100200000C9409050C94BC0B0C9416050C940C1260
:100210000C943D043E3E3E20496F54205761746368
:1002200068646F67204177616B656E005B53747221
:10023000696E67205370616365204E4F54204F4BA9
:100240005D005B537472205370616365204F4B5D9A
:1002500000466F726365205075626C6973683A007E
:100260000041542B514D544F50454E3D302C696F39
:10027000742E7265632D67742E636F6D2C31383860
:100280003000466F726365204F70656E3A004F50C4
:10029000454E00464F5243450052455345540000D9
:1002A0002B514D545055423A20302C312C30002BDC
:1002B000514D545055423A20302C302C30002B51A7
:1002C0004D5450554245583A20302C312C30002B9B
:1002D000514D5450554245583A20302C302C300066
:1002E0003E0041542B4353510041542B4350494E3F
:1002F0003F003E3E3E205175657279204350494E85
:1003000020262043535100302C310031002B514D19
:10031000545355423A20302C312C302C30002B5184
:100320004D54434F4E4E3A20302C302C30002B5140
:100330004D544F50454E3A20302C300041542B51F3
:100340004D544F50454E3D302C382E3231302E38E2
:10035000342E32342C313838300041542B514D5426
:100360004F50454E3D302C696F742E7265632D677A
:10037000742E636F6D2C313838300041542B434557
:100380005245473F0041542B43474154543F00419D
:10039000542B4353510041542B4347534E3D31009E
:1003A00041542B514D54444953433D300041542B4B
:1003B000514D54434C4F53453D300041542B434520
:1003C000445258533D302C350041542B4353434F36
:1003D0004E3D300041542B4350534D533D3000416E
:1003E000542B5153434C4B3D300041542B43465505
:1003F0004E3D310041542B5149444E534346473DF5
:10040000302C312E312E312E312C3232332E352EEE
:10041000352E350041542B5153434C4B3D30004158
:10042000542B4346554E3D31003E3E3E20494F54ED
:1004300020434F4E4E454354494F4E20494E495458
:1004400000415449003E3E3E20494F5420534552FE
:1004500049414C204641494C210029003E3E3E2066
:10046000494F542053455249414C2050524F424528
:100470002E2E2E20280041542B5153434C4B3D30FF
:100480000041544530003E3E3E2046494E495348C7
:10049000204841524457415245205245534554004B
:1004A0005244590000000000000000000000003E1F
:1004B0003E3E20494F54204D4F44554C4520494E17
:1004C00049542C205245534554002B4350494E3A31
:1004D000204E4F54205245414459002B434D452056
:1004E0004552524F52002B51495552433A202270E7
:1004F00064706465616374222C31002B514D545239
:100500004543563A2000302C31002B434552454795
:100510003A20302C310031002B43474154543A20CB
:1005200031002B4353513A20002F6F75742C30004B
:1005300041542B514D545355423D302C312C726750
:10054000742F002C747377682C31576F3D5B3676AF
:1005500041306D0041542B514D54434F4E4E3D3070
:100560002C6465765F002B4347534E3A2000002FE2
:10057000696E2C0041542B514D5450554245583D05
:10058000302C312C322C302C7267742F0041542BBC
:10059000514D545055423D302C312C322C302C7260
:1005A00067742F007D0022616F7574223A002C0061
:1005B0002261696E223A002C0022646F7574223A1F
:1005C000002C002264696E223A002C007B226373A7
:1005D00071223A005D002C005B005D002C005B0086
:1005E000000020002300260029002C002F003200EC
:1005F00000010000030106010901005B3E3E736536
:100600006E6420746F20636F6D70757465722C203A
:1006100073656E6420746F20636F6D70757465729E
:100620002C2073656E6420746F20636F6D70757419
:1006300065725D000041542B4D4F44453D53454E7E
:10064000440041542B4D4F44453D4D414E55414C86
:10065000005B3C3C7265706C7920746F20636F6D39
:1006600070757465722C207265706C7920746F20BF
:10067000636F6D70757465722C207265706C792073
:10068000746F20636F6D70757465725D0041540006
:1006900000002100240027002A002D003000330034
:1006A00001010000040107010A01000022002500E9
:1006B00028002B002E00310034000201000005014B
:1006C00008010B01050505050705080808080202D1
:1006D00002020A0A080804040404010101010101DC
:1006E00001010303030303030303040707070C0CBF
:1006F0000C0C0C0C0C0C0202020206060606060686
:1007000006060B0B0B0B0B0B0B0B0102102020082A
:10071000081020401020408002010201080402015C
:1007200001020408102040808040201008040201CB
:100730008004020180402010080402010804020124
:1007400001020408102040800102040810204080AB
:1007500000000A0B02090C0D0E080703040100003B
:100760000000000000000000000000000000000089
:100770000000000000000000000000001211100046
:100780000000000000000000000000000000000069
:100790000000000000009216461611241FBECFEF85
:1007A000D1E2DEBFCDBF00E00CBF15E0A0E0B2E0BB
:1007B000E2E6F8E500E00BBF02C007900D92A4331B
:1007C000B107D9F722E1A4E3B5E001C01D92A2353B
:1007D000B207E1F713E0CCECD3E000E006C02197CC
:1007E0000109802FFE010E943327CB3CD10780E016
:1007F0000807A9F70E94FC190C941F2C0C94000008
:100800008150823108F05AC0E82FF0E08827E45F79
:10081000FB4F8F4F0C9433272C0430041E04240408
:1008200028045E04330439043D04430447044B04A4
:10083000510455045E0459045F04630480918000F0
:100840008F77809380000895809180008F7DF9CF0D
:1008500080918000877FF5CF84B58F7784BD089520
:1008600084B58F7DFBCF8091B0008F778093B000EF
:1008700008958091B0008F7DF9CF809190008F779F
:10088000809390000895809190008F7DF9CF8091A2
:100890009000877FF5CF8091A0008F778093A00094
:1008A00008958091A0008F7DF9CF8091A000877F6F
:1008B000F5CF809120018F7780932001089580915A
:1008C00020018F7DF9CF80912001877FF5CF1F9385
:1008D000CF93DF93282F30E0F901E05BF84F84914C
:1008E000F901E65FF84FD491F901EC53F94FC49147
:1008F000CC23A9F0162F81110E940004EC2FF0E008
:10090000EE0FFF1FE655F94FA591B4918FB7F894FC
:10091000EC91111108C0D095DE23DC938FBFDF91DD
:10092000CF911F910895DE2BF8CFCF93DF9390E006
:10093000FC01E65FF84F24918C53994FFC018491A0
:100940008823C9F090E0880F991FFC01E057F94F08
:10095000A591B491FC01E655F94FC591D49161116F
:100960000DC09FB7F8948C91209582238C93888139
:10097000282328839FBFDF91CF910895623051F4DF
:100980009FB7F8943C91822F809583238C93E881C4
:100990002E2BEFCF8FB7F894EC912E2B2C938FBF8B
:1009A000EACF1F93CF93DF93182FEB0161E00E94F2
:1009B0009504209739F460E0812FDF91CF911F914A
:1009C0000C946704CF3FD10511F461E0F5CFE12F1E
:1009D000F0E0E05BF84FE491E150E23108F0B3C0A1
:1009E000F0E08827E950FB4F8F4F0C94332709051F
:1009F0001105160520052A05A30534053C05440507
:100A00004E055805620571057B05A30585058F0513
:100A1000990584B5806884BDC7BDDF91CF911F91D2
:100A2000089584B5806284BDC8BDF7CF80918000F1
:100A3000806880938000D0938900C0938800EDCFB8
:100A400080918000806280938000D0938B00C0935F
:100A50008A00E3CF80918000886080938000D093EB
:100A60008D00C0938C00D9CF8091B00080688093B6
:100A7000B000C093B300D1CF8091B000806280936A
:100A8000B000C093B400C9CF80919000806880937B
:100A90009000D0939900C0939800BFCF80919000B0
:100AA000806280939000D0939B00C0939A00B5CF52
:100AB00080919000886080939000D0939D00C093B7
:100AC0009C00ABCF8091A00080688093A0008091B3
:100AD000A0008F7B8093A000D093A900C093A800B2
:100AE0009CCF8091A00080628093A000D093AB0047
:100AF000C093AA0092CF8091A00088608093A0004C
:100B0000D093AD00C093AC0088CF80912001806865
:100B100080932001D0932901C09328017ECF80913A
:100B20002001806280932001D0932B01C0932A0181
:100B300074CF80912001886080932001D0932D0193
:100B4000C0932C016ACFC038D1050CF03ECF33CF13
:100B5000863308F0865320917B00982F9870277F6A
:100B6000922B90937B002091000290E4299F9001AA
:100B700011248770822B80937C0080917A0080649E
:100B800080937A0080917A0086FDFCCF8091780076
:100B90009091790008953FB7F894809180059091E5
:100BA0008105A0918205B091830526B5A89B05C05B
:100BB0002F3F19F00196A11DB11D3FBFBA2FA92FDC
:100BC000982F8827BC01CD01620F711D811D911DD9
:100BD00042E0660F771F881F991F4A95D1F7089545
:100BE0008F929F92AF92BF92CF92DF92EF92FF923D
:100BF0006B017C010E94CB054B015C01C114D10447
:100C0000E104F104B9F00E94CB05681979098A0959
:100C10009B09683E73408105910580F321E0C21A6B
:100C2000D108E108F10888EE880E83E0981EA11C27
:100C3000B11CE4CFFF90EF90DF90CF90BF90AF90CA
:100C40009F908F9008952FB7F89460917C057091D4
:100C50007D0580917E0590917F052FBF0895FC0151
:100C6000248135816217730748F480819181009750
:100C700029F0860F971FFC018081089580E0089578
:100C80000895AF92BF92CF92DF92EF92FF920F93AF
:100C90001F93CF93DF936C017B018B01040F151F12
:100CA000EB015E01AE18BF08C017D10759F069917A
:100CB000D601ED91FC910190F081E02DC6011995CE
:100CC000892B79F7C501DF91CF911F910F91FF908B
:100CD000EF90DF90CF90BF90AF900895FB014481DB
:100CE0005581608171810C944106FC01A089B18914
:100CF0008C91A689B78982FD0EC09C91818D8F5FF2
:100D0000228D821749F0A18DAE0FBF2FB11D5D96C8
:100D10009C93818F08958C910895FC01538D448D8F
:100D2000252F30E0842F90E0821B930B541718F08E
:100D300081509F4F089501970895FC01918D828DF8
:100D4000981759F0A28DAE0FBF2FB11D5D968C91F3
:100D5000928D9F5F928F90E008958FEF9FEF08959F
:100D6000FC01918D828D981731F0828DE80FF11D75
:100D7000858D90E008958FEF9FEF0895FC01918D90
:100D8000828D981B892F90E008958FE39CE00E944C
:100D9000BE0621E0892B09F420E0822F089584E823
:100DA00095E00E94BE0621E0892B09F420E0822F05
:100DB000089581EA97E00E94BE0621E0892B09F49C
:100DC00020E0822F089580ED99E00E94BE0621E088
:100DD000892B09F420E0822F0895CF92DF92EF92C1
:100DE000FF921F93CF93DF93EC016A017B01122FD7
:100DF000E889F98982E08083C11481EED806E10494
:100E0000F104A1F060E079E08DE390E0A7019601A4
:100E10000E940227215031094109510956954795F1
:100E200037952795211580E1380798F0E889F989E9
:100E3000108260E874E88EE190E0A70196010E94BC
:100E40000227215031094109510956954795379597
:100E50002795EC85FD853083EE85FF852083188EF0
:100E6000EC89FD891083EA89FB8980818061808318
:100E7000EA89FB89808188608083EA89FB89808197
:100E800080688083EA89FB8980818F7D8083DF9100
:100E9000CF911F91FF90EF90DF90CF900895FC01CC
:100EA000A48DA80FB92FB11DA35EBE4F9C91848D58
:100EB0008F5F848FA689B7899C93A089B1898C9113
:100EC000837080648C93938D848D981306C0028800
:100ED000F389E02D80818F7D808308950F931F9388
:100EE000CF93DF93EC0181E0888F9B8D8C8D9813DD
:100EF00018C0E889F989808185FF13C09FB7F894ED
:100F0000EE89FF896083E889F98980818370806434
:100F100080839FBF81E090E0DF91CF911F910F917F
:100F20000895062F1B8D1F5F8C8D81130CC00FB68B
:100F300007FCFACFE889F989808185FFF5CFCE01DA
:100F40000E944F07F1CFEB8DEC0FFD2FF11DE35EFB
:100F5000FE4F00839FB7F8941B8FEA89FB8980813D
:100F60008062D6CF0F931F93CF93DF938C01D0E095
:100F7000C0E0F801EC0FFD1F6491662341F080EDA5
:100F800099E00E946E07892B11F02196F2CFCE01D5
:100F9000DF91CF911F910F910895CF93DF93EC01D3
:100FA000888D8823B9F0AA89BB89E889F9898C9151
:100FB00085FD03C0808186FD0DC00FB607FCF7CF0D
:100FC0008C9185FFF2CF808185FFEDCFCE010E940D
:100FD0004F07E9CFDF91CF91089580E090E0892B12
:100FE00029F00E94E30681110E94000080E090E059
:100FF000892B29F00E94D90681110E94000080E00F
:1010000090E0892B29F00E94CF0681110E940000F8
:1010100080E090E0892B29F00E94C50681110C9494
:1010200000000895009741F0DC015896ED91FC9185
:1010300004A0F5A1E02D19940895009741F0DC017A
:101040005896ED91FC9100A0F1A1E02D199486E154
:1010500090E090934712809346128FEF9FEF089590
:10106000CF93DF93EC01288539854A855B85A8EE0F
:10107000B3E00E94F7260E94F0058C859D858230A2
:10108000910538F0880F991F880F991F05970197D0
:10109000F1F7DF91CF91089581E00895FC01808DF3
:1010A000882349F084859585DC01ED91FC910190C0
:1010B000F081E02D199481E090E09383828390E0A9
:1010C00080E00895DC011C968D919C91DC01ED91EE
:1010D000FC910680F781E02D1994DC011C968D911E
:1010E0009C91DC01ED91FC910284F385E02D199433
:1010F000DC011C968D919C91DC01ED91FC910484A6
:10110000F585E02D1994DC011C968D919C91DC01F4
:10111000ED91FC910084F185E02D19940F931F93BC
:10112000CF93DF938C01FC01C485D585E881F981DB
:101130000680F781E02DCE011995EA89FB8980812F
:101140008F7E8083EA89FB898081877F8083EA891B
:10115000FB8980818F778083EA89FB8980818F7DFD
:1011600080838A8D898FF8018089918997FD08C0D5
:1011700060E00E94670460E0F80180890E949504A5
:10118000F8018289938997FD0CC060E00E94670492
:1011900060E0F8018289DF91CF911F910F910C944B
:1011A0009504DF91CF911F910F9108958F929F9297
:1011B000AF92BF92DF92EF92FF920F931F93CF9364
:1011C000DF93EC014A015B01D22E898E9A8EAB8EA1
:1011D000BC8E2D8F3E8F8C899D89009709F08C01E4
:1011E0000C8B1D8B8E899F89009709F07C01EE8AFC
:1011F000FF8A8889998997FD07C061E00E9495045C
:1012000060E088890E9467048A899B8997FD07C0EE
:1012100061E00E94950461E08A890E946704188E4B
:101220002D2DB501A4018C859D85DF91CF911F9156
:101230000F91FF90EF90DF90BF90AF909F908F90B5
:101240000C94ED06EF92FF920F931F93DC01ED914A
:10125000FC910488F589E02DA2E3EA2EF12C02E34B
:1012600010E019951F910F91FF90EF900895EF9264
:10127000FF920F931F93DC01ED91FC910488F58997
:10128000E02D7801890126E030E019951F910F913A
:10129000FF90EF900895EF92FF920F931F93DC0160
:1012A000ED91FC910488F589E02D22E3E22EF12CEA
:1012B00002E310E026E030E019951F910F91FF90B6
:1012C000EF90089590E080E0089560E086E10E944C
:1012D000670462E070E080E090E00C94F005982FE5
:1012E00080ED890F8A3070F08FEB890F863018F40B
:1012F00089EC890F08958FE9890F863010F489EA07
:10130000F8CF80E00895CF93DF93EC010E9423068D
:10131000688379838A839B83DF91CF9108958F922D
:101320009F92AF92BF92CF92DF92EF92FF92CF93B4
:10133000DF93EC016B010E9423068C809D80AE80C0
:10134000BF809B01AC01281939094A095B09490191
:101350005A01F12CE12C8885811108C00E942306D6
:101360006C837D838E839F8381E08887C814D90432
:10137000EA04FB0408F418860E9423068C809D80F2
:10138000AE80BF80681979098A099B0921E0C616D9
:10139000D706E806F90608F020E0822FDF91CF910A
:1013A000FF90EF90DF90CF90BF90AF909F908F9085
:1013B0000895CF93DF93FC012181222331F0EC01CA
:1013C00060E080810E9467041982DF91CF910895C7
:1013D000CF93DF93FC012181211107C0EC0161E073
:1013E00080810E94670481E08983DF91CF91089515
:1013F000CF93DF93EC01862F6883198261E00E940E
:101400009504CE01DF91CF910C94D909CF93DF934E
:1014100020910E0F30910F0F232B89F0FC01C0910A
:101420000A0FD0910B0F60817181CE010E945F295C
:10143000009729F08C1B9D0BDF91CF9108958FEFC2
:101440009FEFFACF2091080F3091090F232B39F429
:1014500021E0FC018081882361F020E00AC0BC010A
:101460008091040F9091050F0E944F2921E0892B54
:10147000A1F7822F0895FC0124813581FB0144816D
:10148000558124173507E1F4FC0180819181FB012E
:10149000608171810097D1F061157105A1F4232B52
:1014A000C1F0FC01808190E008C0232B91F0FB018A
:1014B000808190E091958195910921E0892B09F037
:1014C00020E0822F08950E944F29F7CF6115710502
:1014D00061F721E0F6CF0E9441298F929F92AF924F
:1014E000BF92EF92FF920F931F93CF93DF93CDB7ED
:1014F000DEB7A1970FB6F894DEBF0FBECDBF7C015B
:10150000FA01CB0119A2223008F42AE08E010F5D06
:101510001F4F822E912CB12CA12CBF01A50194014B
:101520000E940227F901CA016A3074F5605DD80192
:101530006E938D01232B242B252B79F790E080E0EF
:10154000109789F0FD0101900020E9F73197AF0174
:101550004A1B5B0BD701ED91FC910280F381E02DDA
:10156000B801C7011995A1960FB6F894DEBF0FBE5A
:10157000CDBFDF91CF911F910F91FF90EF90BF9062
:10158000AF909F908F900895695CD1CF8F929F927A
:10159000AF92BF92CF92DF92EF92FF920F931F9381
:1015A000CF93DF937C01EB016C0182E0C80ED11C6C
:1015B0004701E5E08E0E911C10E000E0F60141913C
:1015C0006F0150E070E060E02AE0CE010E946D0AF9
:1015D0005C01E881F9810190F081E02D6EE2CE019D
:1015E00019958A0D9B1D080F191FC814D90431F7CE
:1015F000F701458150E070E060E02AE0CE010E94F2
:101600006D0A800F911FDF91CF911F910F91FF9075
:10161000EF90DF90CF90BF90AF909F908F90089504
:1016200042E050E069E672E00C944106CF93DF930C
:101630000E94B207EC0180ED99E00E94100B8C0F24
:101640009D1FDF91CF91089510923E0584E192E0B5
:101650000C94160B0F931F93CF93DF93EC010E9412
:101660006E068C01CE010E94100B800F911FDF913E
:10167000CF911F910F910895CF93DF93EC0161E01B
:1016800086E10E94670462E070E080E090E00E94E2
:10169000F005BE018FE39CE00E942A0B8FE39CE0E3
:1016A0000E94CD0762E070E080E090E0DF91CF9192
:1016B0000C94F005BC0181EA97E00E942A0B81EAB4
:1016C00097E00E94CD0761E070E080E090E00C942C
:1016D000F0050F931F93CF93DF938C01EB01FC0177
:1016E000808191810097E1F06881798161157105B0
:1016F000A9F0428153812C813D814217530770F03C
:101700000E9458298C819D81F801958384831D82D4
:101710001C82DF91CF911F910F9108950E94D727CE
:1017200088819981F801918380838A819B81938349
:1017300082838C819D8195838483198218821B8288
:101740001A82E5CFCF93DF93EC01888199810097CE
:1017500011F00E94D727198218821D821C821B82D9
:101760001A82DF91CF910895FC01808191810097C9
:1017700011F00C94D7270895CF93DF93EC0185E205
:1017800092E0998388838C899D89009711F00E944B
:10179000D7278E899F89009711F00E94D727888DBF
:1017A000998D009711F00E94D7278A8D9B8D009705
:1017B00011F00E94D7278A819B81009721F0DF9149
:1017C000CF910C941208DF91CF910895CF93DF93BE
:1017D000EC010E94BC0BCE01DF91CF910C94D72776
:1017E000CF93DF93EC0189E392E0998388838B891F
:1017F0009C89009711F00E94D7278A819B810097CE
:1018000021F0DF91CF910C941208DF91CF910895D0
:10181000CF93DF93EC010E94F00BCE01DF91CF91CB
:101820000C94D72721E432E0FC01318320830C940F
:10183000F00BCF93DF93EC010E94120CCE01DF91ED
:10184000CF910C94D7270F931F93CF93DF93EC0185
:1018500088819981009759F02A813B8126173707A3
:1018600030F081E0DF91CF911F910F9108958B01AE
:101870006F5F7F4F0E946028009759F0998388839B
:101880001B830A832C813D81232B59F7FC01108295
:10189000E8CF80E0E7CFEF92FF920F931F93CF93B3
:1018A000DF938C017B01EB0109900020E9F7219780
:1018B000C61BD70BBE010E94230C811109C0C801B1
:1018C000DF91CF911F910F91FF90EF900C94A20B9D
:1018D000F801D583C483B70180819181DF91CF91D5
:1018E0001F910F91FF90EF900C945829EF92FF9267
:1018F0000F931F93CF93DF936115710541F480E03F
:10190000DF91CF911F910F91FF90EF9008957B0190
:10191000EC01CB010E9485260097A9F00C811D8166
:10192000080F191FB801CE010E94230C882339F338
:10193000288139818C819D81B701820F931F0E947C
:101940007E261D830C8381E0DBCFEF92FF920F9305
:101950001F93CF93DF936115710541F480E0DF9110
:10196000CF911F910F91FF90EF9008954115510570
:10197000B1F07B01EC010C811D81040F151FB80132
:101980000E94230C882351F3288139818C819D8109
:10199000B701820F931F0E9458291D830C8381E099
:1019A000DECFEF92FF920F931F93CF93DF9300D080
:1019B00000D01F92CDB7DEB77C01CB014AE08E018B
:1019C0000F5F1F4FB8010E94AE26F8010190002062
:1019D000E9F73197AF01401B510BB801C7010E94D5
:1019E000A50C27960FB6F894DEBF0FBECDBFDF91D2
:1019F000CF911F910F91FF90EF900895EF92FF927A
:101A00000F931F93CF93DF9300D01F92CDB7DEB714
:101A10007C01862F4AE08E010F5F1F4FB80190E0D6
:101A20000E948E26F80101900020E9F73197AF015E
:101A3000401B510BB801C7010E94A50C0F900F90DD
:101A40000F900F90DF91CF911F910F91FF90EF902A
:101A50000895CF93DF931F921F92CDB7DEB76983AE
:101A60001A8241E050E0BE016F5F7F4F0E94A50CDB
:101A70000F900F90DF91CF910895FB014481558124
:101A8000608171810C94A50CEF92FF920F931F93CC
:101A9000CF93DF93EC018B016115710551F0CB0100
:101AA0000E9485267C01BC01CE010E94230C81117D
:101AB0000BC0CE010E94A20BCE01DF91CF911F91EE
:101AC0000F91FF90EF900895FD82EC82B80188811C
:101AD00099810E947E26F0CFFC0111821082138230
:101AE0001282158214820C94440DEF92FF920F9390
:101AF0001F93CF93DF93EC017B01198218821B8225
:101B00001A821D821C82FB0101900020E9F73197A7
:101B10008F01061B170BB8010E94230C811109C00D
:101B2000CE01DF91CF911F910F91FF90EF900C9418
:101B3000A20B1D830C83B70188819981DF91CF911E
:101B40001F910F91FF90EF900C945829AF92BF9284
:101B5000CF92DF92EF92FF920F931F93CF93DF9379
:101B60006C015B017A0189012417350720F48F2D60
:101B70007901042F182F6BE672E0C6010E94750DE3
:101B8000D5011496CD91DC91EC16FD06E0F40C170E
:101B90001D0708F4E801D501ED91FC911197EC0FB8
:101BA000FD1F108110826D917C916E0D7F1DC6010D
:101BB00061157105A1F00E944B0CF50180819181A6
:101BC000C80FD91F1883C601DF91CF911F910F91C4
:101BD000FF90EF90DF90CF90BF90AF9008950E945C
:101BE000A20BEBCFBF92CF92DF92EF92FF920F93B7
:101BF0001F93CF93DF93CDB7DEB7ED84FE84CF8400
:101C0000D888B9880B891C89D70114968D919C912D
:101C1000892B59F0AE01475E5F4F6F89788D8091B7
:101C20004C1290914D120E9479298D899E89892BA1
:101C300031F0C7010E943008C7010E941D08F6015B
:101C40008281938180589F4F93838283D7015896D6
:101C5000ED91FC910484F585E02DB801C60119953C
:101C6000F801E80FF91FB0820196DF91CF911F9123
:101C70000F91FF90EF90DF90CF90BF9008952F923B
:101C80003F924F925F926F927F928F929F92AF920C
:101C9000BF92CF92DF92EF92FF920F931F93CF9359
:101CA000DF93CDB7DEB7C851D2400FB6F894DEBF90
:101CB0000FBECDBFFC01A281B381109749F486E12C
:101CC00090E0909347128093461290E080E05BC4CE
:101CD0005C017E01FBEFEF1AFEEFFF0A5896ED91D3
:101CE000FC9159970488F589E02DB701CD0119952C
:101CF0001816190654F7D50112966D907C90C55FA1
:101D0000DD4F99838883CB50D24086E190E0611407
:101D1000710409F432C4D3015896ED91FC91C2804C
:101D2000D380A4E0B1E0AC0FBD1FAC0DBD1D8C9104
:101D3000282F30E0CD5EDD4F39832883C351D24058
:101D4000A7014C0D5D1DC15FDD4F59834883CF5006
:101D5000D240DA019C90092D10E0A6E0B1E0AC0F72
:101D6000BD1FAC0DBD1D4C90512C542C4424A7E03C
:101D7000B1E0AC0FBD1FAC0DBD1D8C91480E511CC8
:101D80001E01BBEF2B1ABDEF3B0AD10111963C930C
:101D90002E9313961C930E9312970684F785E02DCD
:101DA000BE01655F7D4FC7011995F101958384835D
:101DB000EFEFE90DE73108F0B5C5F0E08827EC5109
:101DC000F14F8F4F0C943327FB0EFB0E2A102A1075
:101DD000BB101311BB129214921492149214921409
:101DE0009214921448110C128A12921492149214A2
:101DF0009214DD1229130230110509F04CC0D501EF
:101E00001A964D915C911B9718962D913C911997BC
:101E10005696AD90BC9086E792E0E8E0F1E0EC0FDA
:101E2000FD1FEC0DFD1DE080F12CFE2CEE24E9E001
:101E3000F1E0EC0FFD1FEC0DFD1D6081E60EF11CC5
:101E4000B70161507109603D774078F127E02F9329
:101E500020ED2F939F938F93FF92EF928AEA92E067
:101E60009F938F931F9281E08F9321E030E02C0F9E
:101E70003D1F3F932F931F9283E08F933F922F92AA
:101E80007F926F920E94F20D8C010FB6F894DEBF24
:101E90000FBECDBF67C0F5014681578124813581D2
:101EA000A488B5888CE692E0B8CF6201C41AD50A3E
:101EB000D7FC08C047018C0C9D1C28153905ACF4D3
:101EC0004E0C5F1C9F938F935F924F9282ED92E036
:101ED0009F938F931F921F9261E070E06C0F7D1FA4
:101EE0007F936F931F9282E00FC2D3015896ED91BA
:101EF000FC910484F585E02DBE016F5F7F4FC10129
:101F000019958C010F5F1F4FE1E0F0E0EC0FFD1F12
:101F10008E0F9F1F21E0A70147705527452B09F41D
:101F200020E0F3E0F594E794FA95E1F7E20EDC01A6
:101F3000EC92F501EC0DFD1D30E020E090E080E03A
:101F4000AF014A195B09481559050CF46AC0892B81
:101F500049F0E1E0F0E0EC0FFD1FE00FF11F2083FE
:101F60000F5F1F4FCD5EDD4F28813981C351D240B5
:101F7000232B09F406C3D3015896ED91FC910088F8
:101F8000F189E02DB801CE01019619957C01D301AC
:101F90005896ED91FC910288F389E02DA701BE01CE
:101FA0006F5F7F4FC30119958B016F3F7F4F39F5ED
:101FB000F301868181FF23C0C0904612D090471262
:101FC000F2EFCF16FDE2DF0609F0BCC4D30158964C
:101FD000ED91FC91068CF78DE02DC3011995C3019D
:101FE0000E943008D3015896ED91FC91048CF58D38
:101FF000E02DC3011995D0924712C0924612F30109
:10200000868181FF03C00F3F100709F210161106E9
:102010000CF0B7C2E016F10609F4B3C28FEE9BE2F2
:10202000ACC2419150E0082E02C0440F551F0A94E3
:10203000E2F7242B352B8730910551F4A1E0B0E075
:10204000AC0FBD1FA00FB11F2C930F5F1F4F74CF9C
:10205000019676CF04301105B1F5F5014685578517
:1020600024853585808C918C86E892E0E8E0F1E06B
:10207000EC0FFD1FEC0DFD1D008110E0102F00275F
:10208000E9E0F1E0EC0FFD1FEC0DFD1D6081060F96
:10209000111DB80161507109FE0131966F016D3754
:1020A000710500F11F922DE72F939F938F931F933C
:1020B0000F938AEA92E09F938F931F9281E08F9310
:1020C000FF93EF93D8CED50152964D915C915397E3
:1020D00050962D913C9151975A968D909C908BE9FA
:1020E00092E0C4CF7201E41AF50A5701F7FC07C069
:1020F000E00EF11E2E153F057CF4400E511E9F93FD
:102100008F935F924F9282ED92E09F938F931F92F5
:102110001F92DF92CF92E6CED3015896ED91FC91BB
:102120000484F585E02DB601C1011995F601E80F8B
:10213000F91F000F00839501220F331F820E931E9B
:102140000196F601E80FF91F8F010C191D09AE1455
:10215000BF040CF007CFD40111968C91B2E08B0E26
:10216000911C8083D40112978C9181832FEFA21A46
:10217000B20A3296E9CFD50116968D919C911797A8
:10218000A201481B590BCE01019657FD06C01496BB
:102190002D913C91421753074CF05F924F9224EFE0
:1021A00032E03F932F931F921F92B1C1E8E0F1E01C
:1021B000EC0FFD1FEC0DFD1D208130E0322F22279A
:1021C000E9E0F1E0EC0FFD1FEC0DFD1D6081260F35
:1021D000311D2115FFEF3F0719F021153105B1F42D
:1021E000D5015496ED91FC91E40FF51F41E0232BAE
:1021F00009F440E04083C55FDD4F08811981CB5071
:10220000D240A801B7010E944629ACCE5F924F92FE
:102210003F932F932DE133E03F932F931F921F9213
:102220009F938F936FC0D50152968D919C91539738
:102230009201281B390BCE01019637FD07C050963D
:102240004D915C915197241735072CF05F924F9276
:102250002BE533E0A6CF220F331F5A96ED91FC9168
:10226000E20FF31FA8E0B1E0AC0FBD1FAC0DBD1D28
:102270002C9130E0322F2227A9E0B1E0AC0FBD1F36
:10228000AC0DBD1D4C91240F311D31832083B3CF84
:10229000E8E0F1E0EC0FFD1FEC0DFD1D808190E00A
:1022A000982F8827E9E0F1E0EC0FFD1FEC0DFD1DF4
:1022B0002081820F911D9C0121503109203B374024
:1022C00070F4EAE0F1E0EC0FFD1FEC0DFD1D208144
:1022D000E8E02E9F9001112428173907ECF427E03D
:1022E0002F9320EB2F939F938F9389E893E09F93F5
:1022F0008F931F9281E08F9321E030E02C0F3D1FE0
:102300003F932F931F9283E08F933F922F927F9260
:102310006F920E94F20DB8CDD50116962D913C9189
:102320001797F201E21BF30B9F01F7FD0CC0BC01F4
:102330006E0F7F1F14964D915C91159746175707A6
:10234000D4F4480E591E5F924F928DEB93E09F9309
:102350008F931F921F9221E030E02C0F3D1F3F937F
:102360002F931F9282E08F933F922F927F926F92D2
:102370000E94F20D89CD56E0C50ED11C54960D91E8
:102380001C91200F311FF90150E040E081E090E006
:102390008C0F9D1FC80ED91ECF01801B910B861775
:1023A0009707F0F0D3015896ED91FC910484F585E0
:1023B000E02DBE016F5F7F4FC1011995A1E0B0E034
:1023C000AC0FBD1FA80FB91FF701E80FF91F24E0DC
:1023D00001900D922A95E1F78C010C5F1F4FC2CD41
:1023E000CF01821B930BA3E096958795AA95E1F701
:1023F0008C0D9D1D8C5F9E4FDC018C9190E0042E16
:1024000002C0959587950A94E2F7817081934F5F9A
:102410005F4F47705527C0CFE8E0F1E0EC0FFD1F9C
:10242000EC0DFD1D208130E0322F2227E9E0F1E0A4
:10243000EC0FFD1FEC0DFD1D8081280F311DC90122
:1024400001978B37910570F4EAE0F1E0EC0FFD1F86
:10245000EC0DFD1D8081B8E08B9FC0011124821717
:1024600093077CF41F928BE78F933F932F9387EE14
:1024700093E09F938F931F9281E08F93CE010196FB
:10248000CFCED50152968D919C915397F201E81BC6
:10249000F90BCF01F7FD31C0A9014E0F5F1F509618
:1024A0006D917C916417750734F1C15FDD4FE88150
:1024B000F981CF50D2409C01220F331F2E193F09C2
:1024C0002C193D09841795070CF06CCFD5015A964D
:1024D0006D917C91DB01A20FB31FAE0FBF1F668110
:1024E00070E0762F66271781610F711D6D937C93C5
:1024F00001963296E7CF420E531E5F924F9280E2D2
:1025000094E09F938F931F921F92CE0101969F9309
:102510008F9327CFD3015896ED91FC910484F585D4
:10252000E02DBE016F5F7F4FC1011995FE01E80FDD
:10253000F91F24EB2283FE01E80FF91F2FEF2383FD
:10254000DC011396E1E0F0E0EC0FFD1FAE0FBF1FC2
:1025500028E0EFE4F4E001900D922A95E1F78C0178
:10256000055F1F4FE1E0F0E0EC0FFD1FE80FF91FE2
:102570008AE08083F7CC8DE690E0909347128093B9
:10258000461281E090E0C85EDD4F0FB6F894DEBFE2
:102590000FBECDBFDF91CF911F910F91FF90EF90B4
:1025A000DF90CF90BF90AF909F908F907F906F9073
:1025B0005F904F903F902F900895D50152968D9146
:1025C0009C915397F201E81BF90BCE010196F7FDA0
:1025D0003DCE50962D913C915197E217F3070CF0A8
:1025E00035CEEE0FFF1F5A962D913C91E20FF31F4F
:1025F000AAE0B1E0AC0FBD1FAC0DBD1D2C9130E0C9
:10260000322F2227ABE0B1E0AC0FBD1FAC0DBD1DDA
:102610004C91240F311DA8E0B1E0AC0FBD1FAC0DF3
:10262000BD1D4C91642F70E0762F6627A9E0B1E0C4
:10263000AC0FBD1FAC0DBD1D4C91460F572F511D4A
:10264000608171816227732746235723242735270A
:102650001CCEE8E0F1E0EC0FFD1FEC0DFD1D8081CC
:1026600090E0982F8827E9E0F1E0EC0FFD1FEC0DDA
:10267000FD1D2081FC01E20FF11DC35FDD4FF983D9
:10268000E883CD50D240ECE0F1E0EC0FFD1FEC0D03
:10269000FD1D808190E0982F8827EDE0F1E0EC0FA0
:1026A000FD1FEC0DFD1D2081820F911D9C0121500D
:1026B0003109DE01119629373105C0F4C35FDD4FC2
:1026C00028813981CD50D240215031092D37310533
:1026D00068F4EEE0F1E0EC0FFD1FEC0DFD1D408114
:1026E0009C01220F331F4217130639F11F922DE769
:1026F0002F931F9229E72F93C25FDD4FF881CE50B1
:10270000D240FF93C35FDD4F2881CD50D2402F933D
:102710009F938F9388E594E09F938F931F9281E01E
:102720008F93BF93AF931F9283E08F933F922F922B
:102730007F926F920E94F20DA7CBEAE0F1E0EC0FDE
:10274000FD1FEC0DFD1D208130E0322F2227EBE034
:10275000F1E0EC0FFD1FEC0DFD1D4081240F311D3C
:10276000F501428953898201041B150BCF5EDD4FB1
:1027700019830883C151D240B901641B750BAB01A9
:102780004B0117FDE6C0C35FDD4FE881F981CD50F5
:10279000D240E00FF11FCB5EDD4FF983E883C551D6
:1027A000D240F50160897189CB5EDD4FE881F98106
:1027B000C551D2406E177F07FCF057FD1FC0AC011A
:1027C000480D591DC95EDD4F59834883C751D2401A
:1027D00064177507E4F4280F391F17FF0FC03F93E4
:1027E0002F935F924F9284EA94E09F938F931F926E
:1027F0001F92BF93AF9376CB57FFEDCFC35FDD4FF3
:1028000068817981CD50D240460E571EE8CFF30142
:10281000808D918DFC01248535857D01BD01CE0122
:102820008B5F9D4FF9011995F701E80FF91FC35F01
:10283000DD4F2881CD50D240220F2083C15FDD4F74
:10284000E881F981CF50D240AE014B5F5E4F9401D9
:10285000220F331F241B350B2C193D09C95EDD4F98
:1028600048815981C751D240841695060CF443C063
:10287000F701E80FF91F9801220F331F2E193F09A6
:10288000B901681B790BCB0141E050E04E195F099B
:102890008A010E0F1F1FCB5EDD4F68817981C55104
:1028A000D240CF5EDD4FA881B981C151D240A61779
:1028B000B7070CF057CBBC016E0F7F1FD5015A969E
:1028C0002D913C91DB01A20FB31F11962C91119712
:1028D00021832C912283CF5EDD4F28813981C15124
:1028E000D2402F5F3F4FCF5EDD4F39832883C151E8
:1028F000D2403296CDCFD5015A964D915C91DA01F6
:10290000A20FB31FAE0FBF1F428550E0542F4427C4
:102910006385460F511D4D935C93BFEF8B1A9B0A45
:1029200032969CCF1F929F9285EF94E09F938F9356
:102930001F9281E08F939E012F5F3F4F3F932F9314
:102940001F9211CDC3010E943008C3010E941D08CF
:1029500052CB77FF40CF43CF1F920F920FB60F920B
:1029600011242F933F938F939F93AF93BF938091A5
:102970007C0590917D05A0917E05B0917F053091F9
:102980007B0523E0230F2D3758F50196A11DB11DBE
:1029900020937B0580937C0590937D05A0937E0515
:1029A000B0937F058091800590918105A09182056B
:1029B000B09183050196A11DB11D80938005909370
:1029C0008105A0938205B0938305BF91AF919F913C
:1029D0008F913F912F910F900FBE0F901F901895E0
:1029E00026E8230F0296A11DB11DD2CF1F920F9290
:1029F0000FB60F9211240BB60F922F933F934F9364
:102A00005F936F937F938F939F93AF93BF93EF9356
:102A1000FF938FE39CE00E944F07FF91EF91BF91DE
:102A2000AF919F918F917F916F915F914F913F9166
:102A30002F910F900BBE0F900FBE0F901F90189507
:102A40001F920F920FB60F9211240BB60F922F9375
:102A50003F934F935F936F937F938F939F93AF9326
:102A6000BF93EF93FF938FE39CE00E947506FF9165
:102A7000EF91BF91AF919F918F917F916F915F91F6
:102A80004F913F912F910F900BBE0F900FBE0F9063
:102A90001F9018951F920F920FB60F9211240BB62C
:102AA0000F922F933F934F935F936F937F938F93E7
:102AB0009F93AF93BF93EF93FF9384E895E00E94B9
:102AC0004F07FF91EF91BF91AF919F918F917F91B0
:102AD0006F915F914F913F912F910F900BBE0F908F
:102AE0000FBE0F901F9018951F920F920FB60F9266
:102AF00011240BB60F922F933F934F935F936F93D5
:102B00007F938F939F93AF93BF93EF93FF9384E84B
:102B100095E00E947506FF91EF91BF91AF919F9153
:102B20008F917F916F915F914F913F912F910F9076
:102B30000BBE0F900FBE0F901F9018951F920F9213
:102B40000FB60F9211240BB60F922F933F934F9312
:102B50005F936F937F938F939F93AF93BF93EF9305
:102B6000FF9381EA97E00E944F07FF91EF91BF9199
:102B7000AF919F918F917F916F915F914F913F9115
:102B80002F910F900BBE0F900FBE0F901F901895B6
:102B90001F920F920FB60F9211240BB60F922F9324
:102BA0003F934F935F936F937F938F939F93AF93D5
:102BB000BF93EF93FF9381EA97E00E947506FF9120
:102BC000EF91BF91AF919F918F917F916F915F91A5
:102BD0004F913F912F910F900BBE0F900FBE0F9012
:102BE0001F9018951F920F920FB60F9211240BB6DB
:102BF0000F922F933F934F935F936F937F938F9396
:102C00009F93AF93BF93EF93FF9380ED99E00E9462
:102C10004F07FF91EF91BF91AF919F918F917F915E
:102C20006F915F914F913F912F910F900BBE0F903D
:102C30000FBE0F901F9018951F920F920FB60F9214
:102C400011240BB60F922F933F934F935F936F9383
:102C50007F938F939F93AF93BF93EF93FF9380EDF9
:102C600099E00E947506FF91EF91BF91AF919F91FE
:102C70008F917F916F915F914F913F912F910F9025
:102C80000BBE0F900FBE0F901F90189580E29CE036
:102C90000E94120C83E99EE00E94B40B89E99EE039
:102CA0000E94B40B8FE99EE00E94B40B8CEC9EE076
:102CB0000E94B40B82ED9EE00E94B40B88ED9EE072
:102CC0000E94B40B80EE9EE00E94B40B86EE9EE064
:102CD0000E94B40B8CEE9EE00E94B40B82EF9EE04B
:102CE0000E94B40B88EF9EE00E94B40B8EEF9EE032
:102CF0000E94B40B84E09FE00E94B40B8AE09FE046
:102D00000E94B40B80E19FE00E94B40B86E19FE03B
:102D10000E94B40B89E092E10E94120C88E292E1D9
:102D20000C94BC0B2F923F924F925F927F928F92A6
:102D30009F92AF92BF92CF92DF92EF92FF920F934A
:102D40001F93CF93DF930FE31CE0D80113961C92DF
:102D50001E92129788EEC82E83E0D82EE12CF12C1B
:102D6000F801C482D582E682F78283E192E0918302
:102D7000808325E331E03587248724E331E03787FA
:102D8000268720E331E0318B208B21E331E0338B48
:102D9000228B22E331E0358B248B26E331E0378B25
:102DA000268B118E128E138E148EE4E8F5E01382BA
:102DB0001282C482D582E682F7829183808325EDD8
:102DC00030E03587248724ED30E03787268720EDF3
:102DD00030E0318B208B21ED30E0338B228B22EDE4
:102DE00030E0358B248B26ED30E0378B268B118E2F
:102DF000128E138E148EE1EAF7E013821282C482DF
:102E0000D582E682F782918380832DEC30E035878E
:102E100024872CEC30E03787268728EC30E0318B94
:102E2000208B29EC30E0338B228B2AEC30E0358B81
:102E3000248B2EEC30E0378B268B118E128E138E66
:102E4000148EE0EDF9E013821282C482D582E6820C
:102E5000F7829183808385EC90E09587848784EC6A
:102E600090E09787868780EC90E0918B808B81EC57
:102E700090E0938B828B82EC90E0958B848B86EC38
:102E800090E0978B868B118E128E138E148EAEEB84
:102E9000B9E099E4A92E92E0B92E1196BC92AE92B7
:102EA00012961C92129713961C92139714961C92CA
:102EB000149715961C92A4ECB9E01196BC92AE92B0
:102EC00012961C92129713961C92139714961C92AA
:102ED000149715961C92AAECB9E01196BC92AE928A
:102EE00012961C92129713961C92139714961C928A
:102EF000149715961C92C8E2D2E11B821A822CE22A
:102F000032E188E1D9011D928A95E9F78FE292E0DA
:102F100099838883ADEEBBE0BD8FAC8FC9E0D2E171
:102F20001B821A82CC82DD82EE82FF82198618868D
:102F30001A861C8A1B8A1E8A1D8A188E1F8A1A8E60
:102F4000198E1C8E1B8E81E492E099838883BE8F3C
:102F5000AD8F13961C921E9212971496CD92DD920D
:102F6000ED92FC9217972FE4822E22E0922E11967A
:102F70009C928E921D96FC93EE931C9781E090E0BC
:102F80001F969C938E931E9782E090E051969C939F
:102F90008E9350978FEF9FEF53969C938E935297FB
:102FA00055961C921E92549757961C921E925697B5
:102FB00058961C92C9EDD1E180E28883198260E0C5
:102FC0000E94950481E28E831F8260E00E94950436
:102FD00082E28C871D8660E00E94950483E28A8BE2
:102FE0001B8A60E00E94950484E2888F198E60E05D
:102FF0000E94950485E28E8F1F8E60E00E949504EA
:1030000086E28CA31DA260E00E94950487E28AA755
:103010001BA660E00E94950468E289EC91E10E94A1
:10302000F80969E28BEC91E10E94F8096AE28DEC03
:1030300091E10E94F8096BE28FEC91E10E94F8099E
:103040006CE281ED91E10E94F8096DE283ED91E17E
:103050000E94F8096EE285ED91E10E94F8096FE2A5
:1030600087ED91E10E94F809C1ECD1E184E0888309
:1030700061E00E94950485E08A8361E00E949504E6
:1030800086E08C8361E00E94950487E08E8361E096
:103090000E949504C1E2DFE086E38883772473947D
:1030A000798260E00E94950487E388AF79AE60E0A2
:1030B0000E94950488E38093910F7092920F60E0D4
:1030C0000E94950489E38093C90F7092CA0F60E053
:1030D0000E9495048AE3809301107092021060E0D0
:1030E0000E9495048BE38093391070923A1060E04F
:1030F0000E9495048CE3809371107092721060E0CE
:103100000E9495048DE38093A9107092AA1060E04C
:103110000E9495048EE38093E1107092E21060E0CB
:103120000E9495048FE38093191170921A1160E048
:103130000E94950480E4809351117092521160E0D6
:103140000E94950481E48093891170928A1160E055
:103150000E949504CCE1DFE08BE1888362E00E946D
:1031600095048CE1898362E00E9495048DE18A8355
:1031700062E00E9495048EE18B8362E00E949504D8
:103180008FE18C8362E00E9495046BE672E086E139
:103190009FE00E94750D6BE672E080E19FE00E9467
:1031A000750D6BE672E08AE09FE00E94750D6BE69C
:1031B00072E084E09FE00E94750D6BE672E08EEF96
:1031C0009EE00E94750D6BE672E088EF9EE00E9423
:1031D000750D6BE672E082EF9EE00E94750D6BE666
:1031E00072E08CEE9EE00E94750D6BE672E086EE5A
:1031F0009EE00E94750D6BE672E080EE9EE00E94FC
:10320000750D1092DF0E1092DE0E6BE672E088ED07
:103210009EE00E94750D6BE672E082ED9EE00E94DA
:10322000750D6BE672E08CEC9EE00E94750D1092BD
:10323000CB0EE2ECFEE038EB232E3BE0332E412CAC
:10324000512C20823182428253821482158216824E
:1032500017821086E9EBFEE020823182428253829F
:1032600014821582168217821086E0EBFEE020821F
:10327000318242825382148215821682178210860E
:10328000E5EAFEE01482158216821782108688EC29
:103290009FEAA0E0B0E080839183A283B38312868B
:1032A00011866BE672E08FE99EE00E94750D6BE679
:1032B00072E089E99EE00E94750D6BE672E083E999
:1032C0009EE00E94750DEAE8FEE020823182428293
:1032D000538214821582168217821086E1E8FEE07E
:1032E0002082318242825382148215821682178292
:1032F0001086EBE7FEE0B182A08212821382148274
:103300001582ACE5BEE013961C921E92129714969D
:10331000CD92DD92ED92FC92179711969C928E922F
:103320001D961C930E931C971F961C921E921E971F
:1033300051961C921E92509786E190E053969C9372
:103340008E93529755961C921E92549757961C92A4
:103350001E92569758961C925897E0E2FCE0138212
:103360001282C482D582E682F78211861086128686
:10337000148A138A168A158A108E178A128E118E55
:10338000148E138E81E492E091838083B68FA58F93
:103390000E942306EDE1FCE07183608312820E94AB
:1033A0002306E5E1FCE060837183828393831582C9
:1033B000148276821782ECE0FCE080E09CE5A6E2D5
:1033C000B5E080839183A283B38314821582168231
:1033D00017821086DF91CF911F910F91FF90EF9090
:1033E000DF90CF90BF90AF909F908F907F905F9035
:1033F0004F903F902F900895CF93DF93CDB7DEB7D6
:1034000068970FB6F894DEBF0FBECDBF789484B531
:10341000826084BD84B5816084BD85B5826085BDD0
:1034200085B5816085BD80916E00816080936E005E
:103430001092810080918100826080938100809150
:103440008100816080938100809180008160809301
:1034500080008091B10084608093B1008091B000C1
:1034600081608093B0008091910082608093910090
:1034700080919100816080939100809190008160A3
:10348000809390008091A10082608093A100809140
:10349000A10081608093A1008091A0008160809351
:1034A000A0008091210182608093210180912101FF
:1034B00081608093210180912001816080932001AF
:1034C00080917A00846080937A0080917A00826093
:1034D00080937A0080917A00816080937A00809155
:1034E0007A00806880937A001092C10026E040E85C
:1034F00055E260E070E080ED99E00E94ED061092E8
:10350000000268E070E088EF9EE00E94230C68E013
:1035100070E082EF9EE00E94230C68E070E08CEE89
:103520009EE00E94230C68E070E08CEC9EE00E941C
:10353000230C60E170E084E09FE00E94230C60E1D6
:1035400070E08EEF9EE00E94230C60E270E080E16C
:103550009FE00E94230C60E270E083E99EE00E94FD
:10356000230C60E470E086EE9EE00E94230C60E491
:1035700070E080EE9EE00E94230C60E470E088ED35
:103580009EE00E94230C60E470E086E19FE00E94D0
:10359000230C60E870E08FE99EE00E94230C60E855
:1035A00070E082ED9EE00E94230C60E072E08AE011
:1035B0009FE00E94230C882309F45EC082E492E01D
:1035C0000E94160B61E088E10E94950461E088E1A9
:1035D0000E94670410923E0581E08093AD0E84E264
:1035E0009BE09093AF0E8093AE0E26E040E855E24C
:1035F00060E070E084E895E00E94ED0681EC91E1E6
:1036000001E21FE0F8011182085C1F4F801791074B
:10361000C9F761E086E10E9495040E94650926E0F1
:1036200040E855E260E070E08FE39CE00E94ED0628
:1036300088E199E20FB6F894A895809360000FBED8
:1036400090936000FF24F39480ED99E00E94BE0601
:10365000181619060CF048C080ED99E00E949D06EE
:103660008D3011F40C94C1258A3071F3682F83E9F1
:103670009EE00E94290DE8CF8CE292E0A1CF10924B
:103680003E0560E672E083E99EE00E94440DDCCFD7
:103690006EE872E0CE0101960E946C0DBE016F5F74
:1036A0007F4F83E99EE00E943B0AE82ECE010196FF
:1036B0000E94B40BEE2099F082E892E00E94160B73
:1036C00061E672E0CE0101960E946C0DCE0101967A
:1036D0000E945A0BCE0101960E94B40BD2CF83E90F
:1036E0009EE00E945A0BCDCF8091AD0E882331F120
:1036F0000E942306C090A90ED090AA0EE090AB0EB7
:10370000F090AC0E6C197D098E099F09C090A50E32
:10371000D090A60EE090A70EF090A80EC616D70681
:10372000E806F90658F4E091AE0EF091AF0E30972E
:10373000D1F0199589EA9EE00E94830981EA97E019
:103740000E94BE0618161906CCF481EA97E00E9482
:103750009D068D3099F08A3089F3682F8AE09FE0CA
:103760000E94290DEBCF88E198E00FB6F894A89558
:10377000809360000FBE90936000FFCF66E675E017
:10378000CE0101960E946C0DCE0101960E94060AA0
:103790007C019093390580933805CE0101960E94F3
:1037A000B40BF7FC5EC08AE195E00E94220A8823F0
:1037B000B9F09701295E3F4FA701485F5F4F6AE06C
:1037C0007FE0CE0101960E94A60DBE016F5F7F4F84
:1037D0008EEF9EE00E94690BCE0101960E94B40B11
:1037E00081E295E00E94220A8823B9F097012A5EBF
:1037F0003F4FA701495F5F4F6AE07FE0CE0101962E
:103800000E94A60DBE016F5F7F4F8EEF9EE00E946B
:10381000690BCE0101960E94B40B64E575E086EE5B
:103820009EE00E94440D6EEF7EE086EE9EE00E94D8
:103830003D0D63E475E086EE9EE00E94760C60E349
:1038400075E080EE9EE00E94440D6EEF7EE080EE1B
:103850009EE00E943D0D69E275E080EE9EE00E94D0
:10386000760C62E275E0CE0101960E946C0DCE01ED
:1038700001960E94060A7C019093390580933805D1
:10388000CE0101960E94B40BF7FC40C09701285F5F
:103890003F4FA7014A5F5F4F6AE07FE0CE0101968C
:1038A0000E94A60DBE016F5F7F4F88EF9EE00E94D1
:1038B000690BCE0101960E94B40B8091FC0E909191
:1038C000FD0E029718F1E091F80EF091F90E309785
:1038D00009F04AC710923705E7E3F5E080818C32A2
:1038E000A9F421E030E050E040E068EF7EE0CE0156
:1038F00001960E94A60DBE016F5F7F4F88EF9EE08C
:103900000E94690BCE0101960E94B40B68E175E03C
:10391000CE0101960E946C0DCE0101960E94060A0E
:103920007C01CE0101960E94B40BF7FC06C066E153
:1039300075E082EF9EE00E94440D6AE075E0CE01E2
:1039400001960E946C0DCE0101960E94060A7C0130
:10395000CE0101960E94B40BF7FC06C066E075E04C
:103960008CEE9EE00E94440D6BEF74E0CE01019658
:103970000E946C0DCE0101960E94060A7C01909374
:10398000390580933805CE0101960E94B40BF7FCEF
:103990001DC09701225D3F4FA701475D5F4F6AE061
:1039A0007FE0CE0101960E94A60DBE016F5F7F4FA2
:1039B0008CEC9EE00E94690BCE0101960E94B40B34
:1039C0006CEC7EE080ED99E00E942A0B66EE74E0DC
:1039D000CE0101960E946C0DCE0101960E94060A4E
:1039E0007C01CE0101960E94B40BF7FE10923E05B9
:1039F0006BED74E0CE0101960E946C0DCE01019634
:103A00000E94060A7C01CE0101960E94B40BF7FECB
:103A100010923E056AEC74E0CE0101960E946C0D96
:103A2000CE0101960E94060A7C01CE0101960E94F9
:103A3000B40BF7FE10923E0580913E05811151C0F6
:103A40008FEA94E00E94160B81E080933E0510926D
:103A50003D0510923C056EEA74E08AE09FE00E940A
:103A6000440D6DEA74E084E09FE00E94440D6CEA2E
:103A700074E08EEF9EE00E94440D6BEA74E088EFE4
:103A80009EE00E94440D6AEA74E082EF9EE00E948C
:103A9000440D69EA74E08CEE9EE00E94440D68EAF1
:103AA00074E086EE9EE00E94440D67EA74E080EECA
:103AB0009EE00E94440D1092DF0E1092DE0E66EA28
:103AC00074E088ED9EE00E94440D65EA74E082EDAA
:103AD0009EE00E94440D64EA74E08CEC9EE00E943B
:103AE000440D80913E05813039F5E0913505F09126
:103AF0003605EE0FFF1FEE0FFF1FE95FFD4F408100
:103B000051816281738126E081EA97E00E94ED068F
:103B100060E088E10E94670460ED77E082EC9EE05F
:103B20000E948F09882309F441C061E088E10E9466
:103B3000670482E080933E0580913E058230B1F5B6
:103B400060EA74E0CE0101960E946C0DCE010196F0
:103B50000E94060A7C01CE0101960E94B40BF7FC7C
:103B600005C686E894E00E94160B61E874E0CE0179
:103B700001960E946C0DCE0101960E945A0BCE0157
:103B800001960E94B40B66E774E0CE0101960E9494
:103B90006C0DCE0101960E945A0BCE0101960E9437
:103BA000B40B83E080933E051092CB0E80913E05CE
:103BB000833019F486E080933E0580913E0586307F
:103BC000D1F468EE73E082EC9EE00E948F098823B6
:103BD00009F44CC061E474E0CE0101960E946C0DC2
:103BE000CE0101960E945A0BCE0101960E94B40BA1
:103BF00089E080933E0580913E058930B9F56AE100
:103C000075E0CE0101960E94750DCE0101960E94CD
:103C1000060A7C01CE0101960E94B40B6AE175E0B0
:103C2000F7FE13C061E275E0CE0101960E94750DAA
:103C3000CE0101960E94060A7C01CE0101960E94E7
:103C4000B40BF7FC1CC061E275E084E09FE00E94C9
:103C50004B0C64E07FE080ED99E00E946E068BE003
:103C600080933E0589EA9EE00E94830980913E058B
:103C70008B3029F48CE080933E0510923D058091B5
:103C80003E058C3009F085C280913D05811107C049
:103C900089E294E00E94160B83E080933D058091B9
:103CA0003D05833009F0A3C068EE73E089EB9EE028
:103CB0000E948F09882309F4BDC06FE174E0CE0132
:103CC00001960E946C0DCE0101960E945A0BCE0106
:103CD00001960E94B40B64E174E0CE0101960E944B
:103CE0006C0DCE0101960E945A0BCE0101960E94E6
:103CF000B40B64EF73E0CE0101960E946C0DCE010F
:103D000001960E945A0BCE0101960E94B40B81E2EB
:103D100095E00E94220A882309F446C06AEE73E007
:103D2000CE0101960E946C0DCE0101960E945A0BA5
:103D3000CE0101960E94B40B6FED73E0CE010196A7
:103D40000E946C0DCE0101960E945A0BCE01019685
:103D50000E94B40B64ED73E0CE0101960E946C0DDD
:103D6000CE0101960E945A0BCE0101960E94B40B1F
:103D700069EC73E0CE0101960E946C0DCE010196B4
:103D80000E945A0BCE0101960E94B40B6BEB73E0BC
:103D9000CE0101960E946C0DCE0101960E945A0B35
:103DA000CE0101960E94B40B6DEA73E0CE0101963C
:103DB0000E946C0DCE0101960E945A0BCE01019615
:103DC0000E94B40B60EA73E0CE0101960E946C0D74
:103DD000CE0101960E945A0BCE0101960E94B40BAF
:103DE00084E080933D0589EA9EE00E9483098091EA
:103DF0003D058430F9F468EE73E089EB9EE00E94A3
:103E00008F09882371F066E973E0CE0101960E9464
:103E10006C0DCE0101960E945A0BCE0101960E94B4
:103E2000B40B8091020F9091030F0F9719F485E066
:103E300080933D0580913D05853049F568EE73E03E
:103E400089EB9EE00E948F09882371F06FE873E090
:103E5000CE0101960E946C0DCE0101960E945A0B74
:103E6000CE0101960E94B40B8091F80E9091F90E4C
:103E7000009769F00E945726633649F0633038F0A6
:103E800086E080933D0589EA9EE00E948309809147
:103E90003D05863019F487E080933D0580913D050E
:103EA000873089F568EE73E089EB9EE00E948F0908
:103EB000882371F065E873E0CE0101960E946C0DD5
:103EC000CE0101960E945A0BCE0101960E94B40BBE
:103ED0006BE073E0CE0101960E946C0DBE016F5F36
:103EE0007F4F82EF9EE00E943B0AF82ECE010196A2
:103EF0000E94B40BFF2039F088E080933D0589EAE9
:103F00009EE00E94830980913D05883019F489E084
:103F100080933D0580913D05893089F568EE73E019
:103F200089EB9EE00E948F09882371F06BE773E0B4
:103F3000CE0101960E946C0DCE0101960E945A0B93
:103F4000CE0101960E94B40B67E073E0CE010196AA
:103F50000E946C0DBE016F5F7F4F8CEE9EE00E9451
:103F60003B0AF82ECE0101960E94B40BFF2039F0D7
:103F70008AE080933D0589EA9EE00E948309809152
:103F80003D058A3009F05AC48AE195E00E94220A70
:103F9000882309F432C468EE73E089EB9EE00E9446
:103FA0008F096AE573E081113AC480913D058C3038
:103FB00079F468EE73E089EB9EE00E948F09882314
:103FC00019F186EE9EE00E945A0B8DE080933D052C
:103FD00080913D058D30C1F46EE173E0CE01019614
:103FE0000E946C0DCE0101960E94060A7C01CE0152
:103FF00001960E94B40BF7FC07C08EE080933D054C
:1040000089EA9EE00E94830980913D058E3079F413
:1040100068EE73E089EB9EE00E948F09882319F116
:1040200080EE9EE00E945A0B8FE080933D058091C8
:104030003D058F30C1F46DE073E0CE0101960E9422
:104040006C0DCE0101960E94060A7C01CE010196FC
:104050000E94B40BF7FC07C081E180933D0589EA1B
:104060009EE00E94830980913D05813129F41092E0
:104070003C0582E180933D0580913D05823109F048
:1040800088C080913C05811111C08091DE0E88238B
:1040900009F4F2C31092DE0EFF24F394F092DF0EC7
:1040A00088ED9EE00E945A0BF0923C0560EE72E0B3
:1040B000CE0101960E946C0DCE0101960E94060A67
:1040C0007C01CE0101960E94B40BF7FC0DC08091DB
:1040D0003C05813049F482ED9EE00E945A0B10921B
:1040E000DF0E82E080933C056FEC72E0CE014396D8
:1040F0000E946C0DCE0143960E94060AFF24F394A1
:1041000097FF37C06EEB72E0CE010D960E946C0DEA
:10411000CE010D960E94060AFF24F39497FF25C056
:104120006FEA72E0CE0107960E946C0DCE010796F1
:104130000E94060AFF24F39497FF13C060EA72E01E
:10414000CE0101960E946C0DCE0101960E94060AD6
:104150009095F92EFF1CFF24FF1CCE0101960E94B2
:10416000B40BCE0107960E94B40BCE010D960E94AF
:10417000B40BCE0143960E94B40BFF2051F0809106
:104180003C05823031F489EA9EE00E948309109256
:104190003C056FE972E08AE09FE00E94440D49ED22
:1041A000A42E41E1B42E59E0652E52E1752E750121
:1041B000F701208130E0F901E05BF84F8491F901CB
:1041C000E65FF84FC490F901EC53F94FD490DD202D
:1041D00009F492C381110E940004ED2DF0E0EE0F6E
:1041E000FF1FE052FA4FA591B491EC91CE2281E0ED
:1041F00009F480E0D82EF7018181D81609F47EC336
:104200000E942306F7012281338144815581621B7C
:10421000730B840B950B633371058105910508F0D1
:10422000D182F6E0EF0EF11C6E147F0409F0C0CFCE
:1042300021E2E22E2FE0F22EF7018181A0E4CA2EC6
:10424000D12C412C512C3201813009F05FC3C12C9B
:10425000DD24D394412C512C3201F70180810E943E
:10426000A805092E000CAA0BBB0B480E591E6A1E8E
:104270007B1EF1E0CF1AD10881F784E07694679431
:10428000579447948A95D1F7F70153824282349626
:1042900081E090E02281338121933193019688312E
:1042A0009105C1F7F70153AA42AA60E070E0CB0183
:1042B00050E040E0FA01EE0FFF1FEE0DFF1D2481DC
:1042C0003581620F731F811D911D4F5F5F4F483114
:1042D000510581F728E130E040E050E00E940227DC
:1042E000F70135AB24ABF70154A945A98181813091
:1042F00009F027C3252F342F203CFEE33F0710F0A1
:104300002FEB3EE3AFEFBFE00E9424272FEB3EE30D
:1043100040E050E00E94D826F70137AB26ABF8E327
:10432000EF0EF11CE016F10609F086CF40E090E0B8
:1043300080E021E030E0F5015181511120E0082EAC
:1043400001C0220F0A94EAF7422B0196F6E0AF0E65
:10435000B11C8830910569F740933B05E9ECF1E128
:1043600040E030E020E08181022E01C0880F0A94F5
:10437000EAF7482B2F5F3F4F32962830310599F7E7
:1043800040933A056EED75E086E19FE00E94440D92
:10439000E1E2CE2EEFE0DE2EF12CE12CF60166A953
:1043A00077A986E19FE00E94D10CFBE0EF16F104B3
:1043B00031F06CED75E086E19FE00E94760C2FEF06
:1043C000E21AF20A38E3C30ED11C4CE0E416F10401
:1043D00029F76AED75E086E19FE00E94760C68EDB2
:1043E00075E080E19FE00E94440D71ECE72E71E1E1
:1043F000F72E5701D12CC12CF501618180E19FE09E
:104400000E94FE0CF3E0CF16D10431F066ED75E0AA
:1044100080E19FE00E94760C2FEFC21AD20A32E0B0
:10442000A30EB11C44E0C416D10431F764ED75E06D
:1044300080E19FE00E94760C8091DF0E81115CC0CC
:10444000D0903A05C0903B056CEC75E082ED9EE0A3
:104450000E94440D68EF7EE082ED9EE00E943D0DDB
:104460006AEC75E082ED9EE00E94760C63EC75E0EC
:1044700082ED9EE00E94760C6C2D82ED9EE00E9403
:10448000FE0C61EC75E082ED9EE00E94760C69EB1B
:1044900075E082ED9EE00E94760C6D2D82ED9EE02F
:1044A0000E94FE0C67EB75E082ED9EE00E94760CA8
:1044B00060EB75E082ED9EE00E94760C66E17FE0A5
:1044C00082ED9EE00E943D0D6EEA75E082ED9EE079
:1044D0000E94760C66EA75E082ED9EE00E94760C02
:1044E00060E17FE082ED9EE00E943D0D64EA75E0B0
:1044F00082ED9EE00E94760C81E295E00E94220A05
:104500006DE875E0811108C08AE195E00E94220AF9
:10451000882331F064E775E088ED9EE00E94440D49
:104520006EEF7EE088ED9EE00E943D0D6FE675E047
:1045300088ED9EE00E94760C6091D60E7091D70EA9
:1045400088ED9EE00E94D10C8091D00E9091D10E0A
:10455000892B09F465C070E060E08CEC9EE00E945D
:104560002F06A82E61E070E08CEC9EE00E942F06E2
:10457000D82E63E070E08CEC9EE00E942F06C82EDF
:1045800064E070E08CEC9EE00E942F06B82E54E4AC
:10459000A5120CC28AE3D812F5C18C2D0E946F09B6
:1045A000D82E8B2D0E946F0990E1D99E9001112485
:1045B000D82ED22A87ED91E1D0FCCFC10E94D90933
:1045C00085ED91E1D1FCCCC10E94D90983ED91E147
:1045D000D2FCC9C10E94D90981ED91E1D3FCC6C1C9
:1045E0000E94D9098FEC91E1D4FCC3C10E94D90982
:1045F0008DEC91E1D5FCC0C10E94D9098BEC91E111
:10460000D6FCBDC10E94D90989EC91E1D7FCCBC190
:104610000E94D9096EE675E08CEC9EE00E94440D84
:104620000E9423062B013C0180917705909178052B
:10463000A0917905B0917A05A3019201281B390B4D
:104640004A0B5B0BDA01C901813D9740A105B10519
:1046500008F4E7C18091F80E9091F90ED12C0097E3
:1046600019F00E945726D62E6AEF75E0CE0101960A
:104670000E946C0DBE016F5F7F4F84E09FE00E943F
:104680003B0AC12C81110AC08AE195E00E94220AEE
:10469000CC24C394811102C042E0C42ECE01019605
:1046A0000E94B40B8BE580933F0580913E0590916D
:1046B0003D05890F90913C05890F80934005D0926C
:1046C0004105C092420580913B058093430580914E
:1046D0003A0580934405EFE3F5E0A1E2BFE0D6960A
:1046E0008C91D697D7969C91D79796838783D896A7
:1046F000329645E0E735F40791F710925D05809119
:10470000C21180935E0510925F058091C411809361
:104710006005109261058091C61180936205109228
:1047200063058091C8118093640535E6A32E35E0BA
:10473000B32ED12CC12CB6018EEF9EE00E942F0625
:10474000F50181935F01FFEFCF1ADF0A20E1C21666
:10475000D10489F7E0E4F5E096E380E0915009F4B4
:1047600047C12191820FFACF3196B8C868EE73E045
:1047700082EC9EE00E948F09882301F18CE594E091
:104780000E94B207E0913505F0913605EE0FFF1F4C
:10479000EE0FFF1FE95FFD4F408151816281738100
:1047A0002AE080ED99E00E946D0A8AE594E00E947B
:1047B000160B8091CB0E8F5F8093CB0E8091CB0E2A
:1047C000853008F4F3C91092CB0E85E494E00E9482
:1047D000160B809135059091360501968230910532
:1047E00038F4909336058093350510923E05DEC966
:1047F0001092360510923505F8CF81E295E00E94BF
:10480000220A882309F4D1CB68EE73E089EB9EE09D
:104810000E948F09882309F4C8CB6CE373E0CE01B2
:1048200001960E946C0DCE0101960E945A0BCE019A
:1048300001960E94B40B8BE080933D0580913D056D
:104840008B3009F0B2CB6EE273E0CE0101960E948C
:104850006C0DCE0101960E94060A7C01CE010196E4
:104860000E94B40BF7FCA1CB8CE080933D0589EA54
:104870009EE00E94830999CB60E375E789EB9EE097
:104880000E948F09882351F0FF24F394F092DF0EE9
:1048900088ED9EE00E945A0BF0923C058091DF0E5D
:1048A000811104CC68EB7BE080EB9EE00E948F09D5
:1048B000882309F4FBCB82EF92E00E94160B69EE8D
:1048C00072E0CE0101960E946C0DCE0101960E940D
:1048D0005A0BCE0101960E94B40B62EE72E0CE013B
:1048E00001960E946C0DCE0101960E945A0BCE01DA
:1048F00001960E94B40BDACBD12C7DCC0E9423060A
:10490000F70162837383848395838BCCF701808165
:104910000E94A805092E000CAA0BBB0B480E591EBD
:104920006A1E7B1EF1E0CF1AD10881F7F6E076947B
:10493000679457944794FA95D1F7F70155AA44AA7A
:10494000D2CC852F942F8115F4E09F0710F08FEFC4
:1049500093E0F70197AB86ABE2CC0E94E80930CE3A
:104960000E94E80933CE0E94E80936CE0E94E80989
:1049700039CE0E94E8093CCE0E94E8093FCE0E9451
:10498000E80942CE8FEC8D0D883008F043CEED2D36
:10499000E153FF0BCF01880F991F87539E4EF0E321
:1049A000CF1609F435CE0E94E80934CE21E4A212D4
:1049B00031CE8FEC8D0D853008F02CCE8C2D0E94E1
:1049C0006F09C82E8B2D0E946F0930E1C39EB00184
:1049D0001124682B4D2D4153550BFA01EE0FFF1F8B
:1049E000EF53FE4E618370E080810E94D10412CEAD
:1049F000809375058DE58093760548E350E06FE37D
:104A000075E084E895E00E94410684E895E00E9404
:104A1000CD074092770550927805609279057092A3
:104A20007A0560ED77E08AE89EE00E948F0988238E
:104A3000D9F08091190C90911A0C880F991F875307
:104A40009E4E20911B0C222309F444C00E94E809C9
:104A50008091190C90911A0C87309105F1F1019613
:104A600090931A0C8093190C68E072E081E89EE044
:104A70000E948F098823A9F060911C0CF7016183C3
:104A800070E080810E94D104F2E0EF0EF11C29EC6D
:104A9000E21621E1F20681F780911C0C8B5F809376
:104AA0001C0C0E946509FF24F3948FE39CE00E9494
:104AB000BE06892BE9F08FE39CE00E949D068D30B5
:104AC00009F49CC08A3089F3682F8FE99EE00E9428
:104AD000290DEBCF0E94D909BBCF10921A0C10926E
:104AE000190C80911B0C91E0892780931B0CBCCF83
:104AF00080911F0C8130F9F40E94230620911D0C37
:104B000030911E0C621B730B693E7340A0F06BEF7B
:104B100075E0CE0101960E946C0DCE0101960E94B7
:104B20003C0BCE0101960E94B40B0E9423067093A9
:104B30001E0C60931D0C0E942306C090100CD09098
:104B4000110CE090120CF090130C6C197D098E0979
:104B50009F09C0900C0CD0900D0CE0900E0CF090C2
:104B60000F0CC616D706E806F90608F0A8956AE005
:104B700070E080E090E00E94F0050E94ED070C9448
:104B8000221B69E972E0CE0101960E946C0DBE0104
:104B90006F5F7F4F83E99EE00E943B0AE82ECE01C3
:104BA00001960E94B40BE1100C943F1B63E972E084
:104BB000CE0101960E946C0DBE016F5F7F4F83E9AD
:104BC0009EE00E943B0AE82ECE0101960E94B40BA3
:104BD000EE2011F40C94481B8091DE0E81110C9490
:104BE000411B8091DF0E81110C94411B81E592E005
:104BF0000E94160BF092DE0E0C94411B6FE97EE0D2
:104C000080ED99E00E946E066DE876E0CE01019697
:104C10000E946C0DBE016F5F7F4F8FE99EE00E9486
:104C20003B0AE82ECE0101960E94B40BEE2071F0F3
:104C300061E576E0CE0101960E946C0DCE010196F1
:104C40000E943C0BCE0101960E94B40B62E476E018
:104C5000CE0101960E946C0DBE016F5F7F4F8FE900
:104C60009EE00E943B0AE82ECE0101960E94B40B02
:104C7000E11010921F0C65E376E0CE0101960E94D0
:104C80006C0DBE016F5F7F4F8FE99EE00E943B0A73
:104C9000E82ECE0101960E94B40BE110F0921F0C99
:104CA00064E376E08FE99EE00E94440DFECE1F9300
:104CB000FC0199278827BC01E89411911032E9F38F
:104CC000193010F01E30C8F31B3251F01D3249F478
:104CD000689406C00E949926610F711D811D911D67
:104CE000119110531A30B0F33EF490958095709561
:104CF00061957F4F8F4F9F4F1F910895FB01DC01FE
:104D000005900D920020E1F70895FC010590002028
:104D1000E9F7809590958E0F9F1F0895BB274A3025
:104D200031F4992322F4BDE2909581959F4F0C9424
:104D3000AF26592F482F372F262F660F771F881F32
:104D4000991F660F771F881F991F620F731F841F9B
:104D5000951F660F771F881F991F0895BB27FB01BA
:104D60005527AA27880F991FAA1FA41710F0A41B64
:104D700083955051B9F7A05DAA3308F0A95DA193BE
:104D8000009779F7B111B1931192CB010C94C82619
:104D9000DC01FC01672F71917723E1F7329704C0A2
:104DA0007C916D9370836291AE17BF07C8F308952D
:104DB000052E97FB1EF400940E94EF2657FD07D0A6
:104DC0000E94022707FC03D04EF40C94EF26509566
:104DD0004095309521953F4F4F4F5F4F08959095E7
:104DE0008095709561957F4F8F4F9F4F08950E94DA
:104DF0002427A59F900DB49F900DA49F800D911D19
:104E000011240895A1E21A2EAA1BBB1BFD010DC09F
:104E1000AA1FBB1FEE1FFF1FA217B307E407F5076A
:104E200020F0A21BB30BE40BF50B661F771F881F46
:104E3000991F1A9469F760957095809590959B01DC
:104E4000AC01BD01CF010895A29FB001B39FC00185
:104E5000A39F700D811D1124911DB29F700D811DA6
:104E60001124911D0895EE0FFF1F881F8BBF07901F
:104E7000F691E02D19940F931F93CF93DF93823017
:104E8000910510F482E090E0E0915012F0915112FF
:104E900030E020E0B0E0A0E0309799F42115310532
:104EA00009F44AC0281B390B24303105D8F58A8112
:104EB0009B816115710589F1FB0193838283FE015A
:104EC00011C0408151810281138148175907E0F0D8
:104ED0004817590799F4109761F012960C9312979E
:104EE00013961C933296CF01DF91CF911F910F91B2
:104EF00008950093501210935112F4CF21153105EB
:104F000051F04217530738F0A901DB019A01BD01A6
:104F1000DF01F801C1CFEF01F9CF909351128093D7
:104F20005012CDCFFE01E20FF31F819391932250D7
:104F3000310939832883D7CF20914E1230914F12F7
:104F4000232B41F4209103023091040230934F123D
:104F500020934E1220910102309102022115310559
:104F600041F42DB73EB74091050250910602241B33
:104F7000350BE0914E12F0914F12E217F307A0F4B7
:104F80002E1B3F0B2817390778F0AC014E5F5F4F9F
:104F90002417350748F04E0F5F1F50934F12409370
:104FA0004E12819391939FCFF0E0E0E09CCFCF939E
:104FB000DF930097E9F0FC01329713821282A091EF
:104FC0005012B0915112ED0130E020E01097A1F4A1
:104FD00020813181820F931F20914E1230914F1208
:104FE0002817390709F061C0F0934F12E0934E1271
:104FF000DF91CF910895EA01CE17DF07E8F54A81E6
:105000005B819E0141155105B1F7E901FB83EA83FC
:1050100049915991C40FD51FEC17FD0761F48081A8
:1050200091810296840F951FE9019983888382817B
:1050300093819B838A83F0E0E0E012968D919C91AE
:1050400013970097B9F52D913C911197CD010296D8
:10505000820F931F20914E1230914F12281739075B
:1050600039F6309751F51092511210925012B093B8
:105070004F12A0934E12BCCFD383C2834081518183
:10508000840F951FC817D90761F44E5F5F4F888161
:105090009981480F591F518340838A819B81938353
:1050A00082832115310509F0B0CFF0935112E093BE
:1050B00050129ECFFD01DC01C0CF13821282D7CFE8
:1050C0004F925F926F927F928F929F92AF92BF9218
:1050D000CF92DF92EF92FF920F931F93CF93DF93C4
:1050E0008C01009799F4CB01DF91CF911F910F9123
:1050F000FF90EF90DF90CF90BF90AF909F908F90F8
:105100007F906F905F904F900C943B27FC01E60FCF
:10511000F71F9C0122503109E217F30708F4AEC0D3
:10512000D901CD91DC911197C617D70720F1C53071
:10513000D10578F0CE0104978617970750F0C61B6B
:10514000D70B2297C193D1936D937C93CF010E948B
:10515000D727C801DF91CF911F910F91FF90EF905A
:10516000DF90CF90BF90AF909F908F907F906F9087
:105170005F904F9008955B01AC1ABD0A4C018C0EF4
:105180009D1EA0915012B0915112512C412CF12C26
:10519000E12C109731F580914E1290914F128815A5
:1051A000990509F05CC04616570608F058C0809172
:1051B000010290910202009741F48DB79EB7409191
:1051C000050250910602841B950BE817F90708F0B9
:1051D00055C0F0934F12E0934E12F9017183608332
:1051E000B8CF8D919C91119712966C90129713964F
:1051F0007C901397A815B90559F56C0142E0C40ECF
:10520000D11CCA14DB0420F1AC014A195B09DA0194
:105210001296159780F06282738251834083D90180
:105220006D937C93E114F10471F0D7011396FC9314
:10523000EE9312978ECF22968C0F9D1FF9019183CA
:105240008083F301EFCFF0935112E093501281CF9E
:105250004816590608F42C017D01D3019ACFCB01E1
:105260000E943B277C01009749F0AE01B8010E94E3
:105270004629C8010E94D72787016BCF10E000E0C4
:1052800068CF81E090E0F8940C941F2CFB01DC01C6
:1052900002C001900D9241505040D8F70895FB0193
:1052A000DC018D91019080190110D9F3990B0895BB
:1052B000FB01DC0101900D920020E1F70895FB0154
:1052C00051915523A9F0BF01DC014D9145174111C2
:1052D000E1F759F4CD010190002049F04D914015BE
:1052E0004111C9F3FB014111EFCF81E090E001973B
:1052F00008952F923F924F925F926F927F928F927A
:105300009F92AF92BF92CF92DF92EF92FF920F9354
:105310001F93CF93DF9300D000D000D01F921F9235
:10532000CDB7DEB77C013B018A01FC0117821682F2
:10533000838181FFDDC1CE0101965C01F70193817C
:10534000F30193FD859193FF81913F01882309F437
:1053500053C1853239F493FD859193FF81913F01CB
:10536000853229F4B70190E00E94912BE7CF912C70
:10537000212C312CFFE1F31538F08B3211F190F430
:10538000803209F1833229F137FC3CC020ED280F2F
:105390002A3050F536FE20C08AE0989E200D112458
:1053A000922E06C08D3291F0803371F7689430F8F8
:1053B000F30193FD859193FF81913F018111DACF34
:1053C00021C0689431F8689432F8F2CF689433F8C9
:1053D000EFCF689434F8ECCFEAE02E9E200D112434
:1053E000222E689435F8E4CF8E3229F436FC04C1BD
:1053F000689436F8DDCF8C3619F4689437F8D8CF36
:105400008836B1F2982F9F7D95549330E0F0833623
:10541000A1F18337C1F1833509F063C02801F2E0BF
:105420004F0E511CF801C080D180692D70E036FC10
:1054300002C06FEF7FEFC6010E947B2B4C01689486
:1054400037F882010AC00C5F1F4FFFE3F9838824FD
:105450008394912C6501E89437F833FE2DC0522CCB
:105460008114910471F5552009F468CFB70180E2E9
:1054700090E00E94912B5A94F6CFF80180818983A5
:105480000E5F1F4FE4CF2801F2E04F0E511CF801D0
:10549000C080D180692D70E036FC02C06FEF7FEFD5
:1054A000C6010E94862B4C018201D5CFB70180E254
:1054B00090E00E94912B2A942814190409F0B0F767
:1054C000CECFF60137FC859137FE81916F01B70190
:1054D00090E00E94912B51105A94F1E08F1A91089C
:1054E000BFCF843619F0893609F077C0F80137FE4E
:1054F0006BC060817181828193810C5F1F4FF32D9E
:10550000FF763F2E97FF09C0909580957095619525
:105510007F4F8F4F9F4F689437F82AE030E0A50106
:105520000E94C12BC82ECA188C2C432C36FE0CC0EE
:10553000E89440F8C91440F434FE05C032FC03C0BE
:10554000F32DFE7E4F2E892C44FEAAC0FE01EC0DE9
:10555000F11D8081803309F09CC0242D297E422ECC
:10556000842D8870582E43FCAAC040FEA4C09C2CF9
:10557000821418F42C0C922C981844FEA6C0B70183
:1055800080E390E00E94912B42FE09C088E790E002
:1055900041FE02C088E590E0B7010E94912BC9143A
:1055A00008F49FC0CA94D12C9FEFC91AD90ACA0C1B
:1055B000DB1CF60182916F01B70190E00E94912BF4
:1055C000AC14BD04B1F74FCF60817181072E000C80
:1055D000880B990B0E5F1F4F92CFD32CE894D4F811
:1055E0002AE030E08537E1F1232D297FD22E8F3656
:1055F000A9F1F0F4883551F1F701868197812B9656
:105600000FB6F894DEBF0FBECDBFDF91CF911F91D3
:105610000F91FF90EF90DF90CF90BF90AF909F9051
:105620008F907F906F905F904F903F902F90089554
:10563000803749F0883701F7D4FE02C06894D2F869
:1056400020E130E00DC06894D4F8F6CF34FE03C0FA
:10565000822F8660D82E20E132E002C028E030E0C0
:10566000F801D7FE0FC060817181828193810C5F48
:105670001F4FA5010E94C12BC82ECA183D2CE894CB
:1056800037F852CF6081718190E080E00E5F1F4F4C
:10569000F0CF42FC02C0839463CF8394839460CFA5
:1056A000842D867809F45CCFF6CFB70180E290E0D4
:1056B0000E94912B83948214C0F3512C5ECF522C04
:1056C0005818821408F459CFF8CF842D867809F43D
:1056D00066CF8BE241FE80E247FC8DE2B70190E0AD
:1056E0005CCFB70180E390E00E94912B9A9457CF52
:1056F0008FEF9FEF84CFFC01059061507040011047
:10570000D8F7809590958E0F9F1F0895FC016150EA
:10571000704001900110D8F7809590958E0F9F1FD3
:1057200008950F931F93CF93DF93182F092FEB0149
:105730008B8181FD09C01FEF0FEF812F902FDF912B
:10574000CF911F910F91089582FF14C02E813F8148
:105750008C819D81281739073CF4E881F981CF01BC
:1057600001969983888310838E819F8101969F8300
:105770008E83E3CFE885F985812F1995892BA1F3D5
:10578000DACFFA01AA27283051F1203181F1E894CB
:105790006F936E7F6E5F7F4F8F4F9F4FAF4FB1E024
:1057A0003ED0B4E03CD0670F781F891F9A1FA11D1F
:1057B000680F791F8A1F911DA11D6A0F711D811D20
:1057C000911DA11D20D009F468943F912AE0269FE5
:1057D00011243019305D3193DEF6CF010895462F44
:1057E0004770405D4193B3E00FD0C9F7F6CF462F25
:1057F0004F70405D4A3318F0495D31FD405241938E
:1058000002D0A9F7EACFB4E0A6959795879577954A
:105810006795BA95C9F700976105710508959B01D1
:10582000AC010A2E06945795479537952795BA955A
:10583000C9F7620F731F841F951FA01D089513E001
:10584000CCECD3E000E006C0802FFE010E9433279D
:105850002196011DCD3CD10780E00807A9F7F894F7
:02586000FFCF78
:10586200010000521280008025000000C2010000E9
:105872000000006E0741068D06CD07BE069D06B0EC
:1058820006000000006B0A00000000000000003F5C
:105892000EBC0BE60B00000000F00B080C00000031
:1058A20000120C190C00000000C60A000000004E95
:1058B2000841066209620883086D0878084B0922CC
:1058C200093709D6088E084C080D0A007265616412
:1058D2005F6269747300726561645F696E7075748A
:1058E2005F6269747300726561645F696E7075747A
:1058F2005F72656769737465727300726561645F74
:1059020072656769737465727300496C6C6567616F
:105912006C206E62206F662076616C75657320253F
:105922006420696E20257320286D61782025642902
:105932000A00496C6C6567616C2064617461206166
:1059420064647265737320307825305820696E2044
:1059520025730A00496C6C6567616C20646174612F
:105962002061646472657373203078253058206931
:105972006E2077726974655F6269740A00496C6CA3
:105982006567616C20646174612076616C75652065
:10599200307825305820696E2077726974655F62AD
:1059A2006974207265717565737420617420616415
:1059B2006472657373202530580A00496C6C656700
:1059C200616C206461746120616464726573732028
:1059D200307825305820696E2077726974655F725D
:1059E200656769737465720A00496C6C6567616CFE
:1059F200206E756D626572206F662076616C7565CA
:105A02007320256420696E2077726974655F62690C
:105A1200747320286D6178202564290A00496C6C12
:105A22006567616C2064617461206164647265738E
:105A32007320307825305820696E2077726974653A
:105A42005F626974730A00496C6C6567616C206EF1
:105A5200756D626572206F662076616C7565732064
:105A6200256420696E2077726974655F7265676963
:105A7200737465727320286D6178202564290A0089
:105A8200496C6C6567616C20646174612061646457
:105A92007265737320307825305820696E207772D2
:105AA2006974655F7265676973746572730A004C25
:105AB2004D42332E312E3400496C6C6567616C2087
:105AC2006E62206F662076616C756573202857259B
:105AD200642C205225642920696E207772697465CE
